{
	"NapTx.sol": {
		"OfflinePaymentSystem": {
			"abi": [
				{
					"inputs": [],
					"stateMutability": "nonpayable",
					"type": "constructor"
				},
				{
					"inputs": [
						{
							"internalType": "address",
							"name": "spender",
							"type": "address"
						},
						{
							"internalType": "uint256",
							"name": "allowance",
							"type": "uint256"
						},
						{
							"internalType": "uint256",
							"name": "needed",
							"type": "uint256"
						}
					],
					"name": "ERC20InsufficientAllowance",
					"type": "error"
				},
				{
					"inputs": [
						{
							"internalType": "address",
							"name": "sender",
							"type": "address"
						},
						{
							"internalType": "uint256",
							"name": "balance",
							"type": "uint256"
						},
						{
							"internalType": "uint256",
							"name": "needed",
							"type": "uint256"
						}
					],
					"name": "ERC20InsufficientBalance",
					"type": "error"
				},
				{
					"inputs": [
						{
							"internalType": "address",
							"name": "approver",
							"type": "address"
						}
					],
					"name": "ERC20InvalidApprover",
					"type": "error"
				},
				{
					"inputs": [
						{
							"internalType": "address",
							"name": "receiver",
							"type": "address"
						}
					],
					"name": "ERC20InvalidReceiver",
					"type": "error"
				},
				{
					"inputs": [
						{
							"internalType": "address",
							"name": "sender",
							"type": "address"
						}
					],
					"name": "ERC20InvalidSender",
					"type": "error"
				},
				{
					"inputs": [
						{
							"internalType": "address",
							"name": "spender",
							"type": "address"
						}
					],
					"name": "ERC20InvalidSpender",
					"type": "error"
				},
				{
					"anonymous": false,
					"inputs": [
						{
							"indexed": true,
							"internalType": "address",
							"name": "owner",
							"type": "address"
						},
						{
							"indexed": true,
							"internalType": "address",
							"name": "spender",
							"type": "address"
						},
						{
							"indexed": false,
							"internalType": "uint256",
							"name": "value",
							"type": "uint256"
						}
					],
					"name": "Approval",
					"type": "event"
				},
				{
					"anonymous": false,
					"inputs": [
						{
							"indexed": true,
							"internalType": "address",
							"name": "emisor",
							"type": "address"
						},
						{
							"indexed": false,
							"internalType": "bytes32",
							"name": "deviceId",
							"type": "bytes32"
						},
						{
							"indexed": false,
							"internalType": "bytes32",
							"name": "hashInicial",
							"type": "bytes32"
						},
						{
							"indexed": false,
							"internalType": "uint256",
							"name": "timestamp",
							"type": "uint256"
						}
					],
					"name": "EmisorRegistrado",
					"type": "event"
				},
				{
					"anonymous": false,
					"inputs": [
						{
							"indexed": true,
							"internalType": "bytes32",
							"name": "pagoId",
							"type": "bytes32"
						},
						{
							"indexed": true,
							"internalType": "address",
							"name": "emisor",
							"type": "address"
						},
						{
							"indexed": true,
							"internalType": "address",
							"name": "receptor",
							"type": "address"
						},
						{
							"indexed": false,
							"internalType": "uint256",
							"name": "amount",
							"type": "uint256"
						},
						{
							"indexed": false,
							"internalType": "bytes32",
							"name": "hashFinal",
							"type": "bytes32"
						},
						{
							"indexed": false,
							"internalType": "uint256",
							"name": "timestamp",
							"type": "uint256"
						}
					],
					"name": "PagoConfirmado",
					"type": "event"
				},
				{
					"anonymous": false,
					"inputs": [
						{
							"indexed": true,
							"internalType": "bytes32",
							"name": "pagoId",
							"type": "bytes32"
						},
						{
							"indexed": true,
							"internalType": "address",
							"name": "emisor",
							"type": "address"
						},
						{
							"indexed": true,
							"internalType": "address",
							"name": "receptor",
							"type": "address"
						},
						{
							"indexed": false,
							"internalType": "uint256",
							"name": "amount",
							"type": "uint256"
						},
						{
							"indexed": false,
							"internalType": "bytes32",
							"name": "hashPreparado",
							"type": "bytes32"
						},
						{
							"indexed": false,
							"internalType": "uint256",
							"name": "timestamp",
							"type": "uint256"
						}
					],
					"name": "PagoPreparado",
					"type": "event"
				},
				{
					"anonymous": false,
					"inputs": [
						{
							"indexed": true,
							"internalType": "bytes32",
							"name": "pagoId",
							"type": "bytes32"
						},
						{
							"indexed": true,
							"internalType": "address",
							"name": "emisor",
							"type": "address"
						},
						{
							"indexed": true,
							"internalType": "address",
							"name": "receptor",
							"type": "address"
						},
						{
							"indexed": false,
							"internalType": "uint256",
							"name": "amount",
							"type": "uint256"
						},
						{
							"indexed": false,
							"internalType": "uint256",
							"name": "timestamp",
							"type": "uint256"
						}
					],
					"name": "PagoRevertido",
					"type": "event"
				},
				{
					"anonymous": false,
					"inputs": [
						{
							"indexed": true,
							"internalType": "address",
							"name": "from",
							"type": "address"
						},
						{
							"indexed": true,
							"internalType": "address",
							"name": "to",
							"type": "address"
						},
						{
							"indexed": false,
							"internalType": "uint256",
							"name": "value",
							"type": "uint256"
						}
					],
					"name": "Transfer",
					"type": "event"
				},
				{
					"anonymous": false,
					"inputs": [
						{
							"indexed": true,
							"internalType": "address",
							"name": "emisor",
							"type": "address"
						},
						{
							"indexed": false,
							"internalType": "address[]",
							"name": "receptores",
							"type": "address[]"
						},
						{
							"indexed": false,
							"internalType": "uint256[]",
							"name": "limites",
							"type": "uint256[]"
						},
						{
							"indexed": false,
							"internalType": "uint256",
							"name": "timestamp",
							"type": "uint256"
						}
					],
					"name": "WhitelistConfigurada",
					"type": "event"
				},
				{
					"inputs": [],
					"name": "TIMEOUT_PAGO",
					"outputs": [
						{
							"internalType": "uint256",
							"name": "",
							"type": "uint256"
						}
					],
					"stateMutability": "view",
					"type": "function"
				},
				{
					"inputs": [],
					"name": "TIMESTAMP_TOLERANCE",
					"outputs": [
						{
							"internalType": "uint256",
							"name": "",
							"type": "uint256"
						}
					],
					"stateMutability": "view",
					"type": "function"
				},
				{
					"inputs": [
						{
							"internalType": "address",
							"name": "owner",
							"type": "address"
						},
						{
							"internalType": "address",
							"name": "spender",
							"type": "address"
						}
					],
					"name": "allowance",
					"outputs": [
						{
							"internalType": "uint256",
							"name": "",
							"type": "uint256"
						}
					],
					"stateMutability": "view",
					"type": "function"
				},
				{
					"inputs": [
						{
							"internalType": "address",
							"name": "spender",
							"type": "address"
						},
						{
							"internalType": "uint256",
							"name": "value",
							"type": "uint256"
						}
					],
					"name": "approve",
					"outputs": [
						{
							"internalType": "bool",
							"name": "",
							"type": "bool"
						}
					],
					"stateMutability": "nonpayable",
					"type": "function"
				},
				{
					"inputs": [
						{
							"internalType": "address",
							"name": "account",
							"type": "address"
						}
					],
					"name": "balanceOf",
					"outputs": [
						{
							"internalType": "uint256",
							"name": "",
							"type": "uint256"
						}
					],
					"stateMutability": "view",
					"type": "function"
				},
				{
					"inputs": [
						{
							"internalType": "address[]",
							"name": "receptores",
							"type": "address[]"
						},
						{
							"internalType": "uint256[]",
							"name": "limites",
							"type": "uint256[]"
						},
						{
							"internalType": "uint256",
							"name": "timestamp",
							"type": "uint256"
						},
						{
							"internalType": "uint256",
							"name": "nonce",
							"type": "uint256"
						},
						{
							"internalType": "bytes",
							"name": "firma",
							"type": "bytes"
						}
					],
					"name": "configurarWhitelist",
					"outputs": [],
					"stateMutability": "nonpayable",
					"type": "function"
				},
				{
					"inputs": [],
					"name": "decimals",
					"outputs": [
						{
							"internalType": "uint8",
							"name": "",
							"type": "uint8"
						}
					],
					"stateMutability": "view",
					"type": "function"
				},
				{
					"inputs": [
						{
							"internalType": "bytes32",
							"name": "",
							"type": "bytes32"
						}
					],
					"name": "deviceIdsUsados",
					"outputs": [
						{
							"internalType": "bool",
							"name": "",
							"type": "bool"
						}
					],
					"stateMutability": "view",
					"type": "function"
				},
				{
					"inputs": [
						{
							"internalType": "address",
							"name": "",
							"type": "address"
						}
					],
					"name": "emisores",
					"outputs": [
						{
							"internalType": "address",
							"name": "walletAddress",
							"type": "address"
						},
						{
							"internalType": "bytes32",
							"name": "hashActual",
							"type": "bytes32"
						},
						{
							"internalType": "uint256",
							"name": "timestampUltimoPago",
							"type": "uint256"
						},
						{
							"internalType": "bool",
							"name": "registrado",
							"type": "bool"
						},
						{
							"internalType": "bytes32",
							"name": "deviceId",
							"type": "bytes32"
						}
					],
					"stateMutability": "view",
					"type": "function"
				},
				{
					"inputs": [],
					"name": "name",
					"outputs": [
						{
							"internalType": "string",
							"name": "",
							"type": "string"
						}
					],
					"stateMutability": "view",
					"type": "function"
				},
				{
					"inputs": [
						{
							"internalType": "address",
							"name": "",
							"type": "address"
						},
						{
							"internalType": "uint256",
							"name": "",
							"type": "uint256"
						}
					],
					"name": "noncesUsados",
					"outputs": [
						{
							"internalType": "bool",
							"name": "",
							"type": "bool"
						}
					],
					"stateMutability": "view",
					"type": "function"
				},
				{
					"inputs": [
						{
							"internalType": "bytes32",
							"name": "",
							"type": "bytes32"
						}
					],
					"name": "pagosPendientes",
					"outputs": [
						{
							"internalType": "bytes32",
							"name": "pagoId",
							"type": "bytes32"
						},
						{
							"internalType": "address",
							"name": "emisor",
							"type": "address"
						},
						{
							"internalType": "address",
							"name": "receptor",
							"type": "address"
						},
						{
							"internalType": "uint256",
							"name": "amount",
							"type": "uint256"
						},
						{
							"internalType": "bytes32",
							"name": "hashUsado",
							"type": "bytes32"
						},
						{
							"internalType": "bytes32",
							"name": "hashPreparado",
							"type": "bytes32"
						},
						{
							"internalType": "bytes32",
							"name": "hashFinal",
							"type": "bytes32"
						},
						{
							"internalType": "uint256",
							"name": "timestampPreparacion",
							"type": "uint256"
						},
						{
							"internalType": "uint256",
							"name": "timestampConfirmacion",
							"type": "uint256"
						},
						{
							"internalType": "enum OfflinePaymentSystem.Estado",
							"name": "estado",
							"type": "uint8"
						},
						{
							"internalType": "bytes32",
							"name": "txId",
							"type": "bytes32"
						}
					],
					"stateMutability": "view",
					"type": "function"
				},
				{
					"inputs": [
						{
							"internalType": "bytes32",
							"name": "hashUsado",
							"type": "bytes32"
						},
						{
							"internalType": "uint256",
							"name": "amount",
							"type": "uint256"
						},
						{
							"internalType": "address",
							"name": "receptor",
							"type": "address"
						},
						{
							"internalType": "uint256",
							"name": "timestamp",
							"type": "uint256"
						},
						{
							"internalType": "uint256",
							"name": "nonce",
							"type": "uint256"
						},
						{
							"internalType": "bytes32",
							"name": "deviceId",
							"type": "bytes32"
						},
						{
							"internalType": "bytes",
							"name": "firma",
							"type": "bytes"
						}
					],
					"name": "prepararPago",
					"outputs": [
						{
							"internalType": "bytes32",
							"name": "pagoId",
							"type": "bytes32"
						},
						{
							"internalType": "bytes32",
							"name": "hashPreparado",
							"type": "bytes32"
						}
					],
					"stateMutability": "nonpayable",
					"type": "function"
				},
				{
					"inputs": [
						{
							"internalType": "bytes32",
							"name": "deviceId",
							"type": "bytes32"
						},
						{
							"internalType": "uint256",
							"name": "timestamp",
							"type": "uint256"
						},
						{
							"internalType": "uint256",
							"name": "nonce",
							"type": "uint256"
						},
						{
							"internalType": "bytes",
							"name": "firma",
							"type": "bytes"
						}
					],
					"name": "registrar",
					"outputs": [
						{
							"internalType": "bytes32",
							"name": "hashInicial",
							"type": "bytes32"
						}
					],
					"stateMutability": "nonpayable",
					"type": "function"
				},
				{
					"inputs": [],
					"name": "symbol",
					"outputs": [
						{
							"internalType": "string",
							"name": "",
							"type": "string"
						}
					],
					"stateMutability": "view",
					"type": "function"
				},
				{
					"inputs": [],
					"name": "totalSupply",
					"outputs": [
						{
							"internalType": "uint256",
							"name": "",
							"type": "uint256"
						}
					],
					"stateMutability": "view",
					"type": "function"
				},
				{
					"inputs": [
						{
							"internalType": "address",
							"name": "to",
							"type": "address"
						},
						{
							"internalType": "uint256",
							"name": "value",
							"type": "uint256"
						}
					],
					"name": "transfer",
					"outputs": [
						{
							"internalType": "bool",
							"name": "",
							"type": "bool"
						}
					],
					"stateMutability": "nonpayable",
					"type": "function"
				},
				{
					"inputs": [
						{
							"internalType": "address",
							"name": "from",
							"type": "address"
						},
						{
							"internalType": "address",
							"name": "to",
							"type": "address"
						},
						{
							"internalType": "uint256",
							"name": "value",
							"type": "uint256"
						}
					],
					"name": "transferFrom",
					"outputs": [
						{
							"internalType": "bool",
							"name": "",
							"type": "bool"
						}
					],
					"stateMutability": "nonpayable",
					"type": "function"
				}
			],
			"devdoc": {
				"errors": {
					"ERC20InsufficientAllowance(address,uint256,uint256)": [
						{
							"details": "Indicates a failure with the `spender`’s `allowance`. Used in transfers.",
							"params": {
								"allowance": "Amount of tokens a `spender` is allowed to operate with.",
								"needed": "Minimum amount required to perform a transfer.",
								"spender": "Address that may be allowed to operate on tokens without being their owner."
							}
						}
					],
					"ERC20InsufficientBalance(address,uint256,uint256)": [
						{
							"details": "Indicates an error related to the current `balance` of a `sender`. Used in transfers.",
							"params": {
								"balance": "Current balance for the interacting account.",
								"needed": "Minimum amount required to perform a transfer.",
								"sender": "Address whose tokens are being transferred."
							}
						}
					],
					"ERC20InvalidApprover(address)": [
						{
							"details": "Indicates a failure with the `approver` of a token to be approved. Used in approvals.",
							"params": {
								"approver": "Address initiating an approval operation."
							}
						}
					],
					"ERC20InvalidReceiver(address)": [
						{
							"details": "Indicates a failure with the token `receiver`. Used in transfers.",
							"params": {
								"receiver": "Address to which tokens are being transferred."
							}
						}
					],
					"ERC20InvalidSender(address)": [
						{
							"details": "Indicates a failure with the token `sender`. Used in transfers.",
							"params": {
								"sender": "Address whose tokens are being transferred."
							}
						}
					],
					"ERC20InvalidSpender(address)": [
						{
							"details": "Indicates a failure with the `spender` to be approved. Used in approvals.",
							"params": {
								"spender": "Address that may be allowed to operate on tokens without being their owner."
							}
						}
					]
				},
				"events": {
					"Approval(address,address,uint256)": {
						"details": "Emitted when the allowance of a `spender` for an `owner` is set by a call to {approve}. `value` is the new allowance."
					},
					"Transfer(address,address,uint256)": {
						"details": "Emitted when `value` tokens are moved from one account (`from`) to another (`to`). Note that `value` may be zero."
					}
				},
				"kind": "dev",
				"methods": {
					"allowance(address,address)": {
						"details": "Returns the remaining number of tokens that `spender` will be allowed to spend on behalf of `owner` through {transferFrom}. This is zero by default. This value changes when {approve} or {transferFrom} are called."
					},
					"approve(address,uint256)": {
						"details": "See {IERC20-approve}. NOTE: If `value` is the maximum `uint256`, the allowance is not updated on `transferFrom`. This is semantically equivalent to an infinite approval. Requirements: - `spender` cannot be the zero address."
					},
					"balanceOf(address)": {
						"details": "Returns the value of tokens owned by `account`."
					},
					"decimals()": {
						"details": "Returns the number of decimals used to get its user representation. For example, if `decimals` equals `2`, a balance of `505` tokens should be displayed to a user as `5.05` (`505 / 10 ** 2`). Tokens usually opt for a value of 18, imitating the relationship between Ether and Wei. This is the default value returned by this function, unless it's overridden. NOTE: This information is only used for _display_ purposes: it in no way affects any of the arithmetic of the contract, including {IERC20-balanceOf} and {IERC20-transfer}."
					},
					"name()": {
						"details": "Returns the name of the token."
					},
					"symbol()": {
						"details": "Returns the symbol of the token, usually a shorter version of the name."
					},
					"totalSupply()": {
						"details": "Returns the value of tokens in existence."
					},
					"transfer(address,uint256)": {
						"details": "See {IERC20-transfer}. Requirements: - `to` cannot be the zero address. - the caller must have a balance of at least `value`."
					},
					"transferFrom(address,address,uint256)": {
						"details": "See {IERC20-transferFrom}. Skips emitting an {Approval} event indicating an allowance update. This is not required by the ERC. See {xref-ERC20-_approve-address-address-uint256-bool-}[_approve]. NOTE: Does not update the allowance if the current allowance is the maximum `uint256`. Requirements: - `from` and `to` cannot be the zero address. - `from` must have a balance of at least `value`. - the caller must have allowance for ``from``'s tokens of at least `value`."
					}
				},
				"version": 1
			},
			"evm": {
				"assembly": "    /* \"NapTx.sol\":170:8177  contract OfflinePaymentSystem is ERC20 {... */\n  mstore(0x40, 0x80)\n    /* \"NapTx.sol\":1195:1287  constructor () ERC20(\"NapTx Token\", \"NPTX\"){... */\n  callvalue\n  dup1\n  iszero\n  tag_1\n  jumpi\n  revert(0x00, 0x00)\ntag_1:\n  pop\n    /* \"https://github.com/OpenZeppelin/openzeppelin-contracts/blob/master/contracts/token/ERC20/ERC20.sol\":1582:1695  constructor(string memory name_, string memory symbol_) {... */\n  mload(0x40)\n  dup1\n  0x40\n  add\n  0x40\n  mstore\n  dup1\n  0x0b\n  dup2\n  mstore\n  0x20\n  add\n  0x4e6170547820546f6b656e000000000000000000000000000000000000000000\n  dup2\n  mstore\n  pop\n  mload(0x40)\n  dup1\n  0x40\n  add\n  0x40\n  mstore\n  dup1\n  0x04\n  dup2\n  mstore\n  0x20\n  add\n  0x4e50545800000000000000000000000000000000000000000000000000000000\n  dup2\n  mstore\n  pop\n    /* \"https://github.com/OpenZeppelin/openzeppelin-contracts/blob/master/contracts/token/ERC20/ERC20.sol\":1656:1661  name_ */\n  dup2\n    /* \"https://github.com/OpenZeppelin/openzeppelin-contracts/blob/master/contracts/token/ERC20/ERC20.sol\":1648:1653  _name */\n  0x03\n    /* \"https://github.com/OpenZeppelin/openzeppelin-contracts/blob/master/contracts/token/ERC20/ERC20.sol\":1648:1661  _name = name_ */\n  swap1\n  dup2\n  tag_5\n  swap2\n  swap1\n  tag_6\n  jump\t// in\ntag_5:\n  pop\n    /* \"https://github.com/OpenZeppelin/openzeppelin-contracts/blob/master/contracts/token/ERC20/ERC20.sol\":1681:1688  symbol_ */\n  dup1\n    /* \"https://github.com/OpenZeppelin/openzeppelin-contracts/blob/master/contracts/token/ERC20/ERC20.sol\":1671:1678  _symbol */\n  0x04\n    /* \"https://github.com/OpenZeppelin/openzeppelin-contracts/blob/master/contracts/token/ERC20/ERC20.sol\":1671:1688  _symbol = symbol_ */\n  swap1\n  dup2\n  tag_7\n  swap2\n  swap1\n  tag_6\n  jump\t// in\ntag_7:\n  pop\n    /* \"https://github.com/OpenZeppelin/openzeppelin-contracts/blob/master/contracts/token/ERC20/ERC20.sol\":1582:1695  constructor(string memory name_, string memory symbol_) {... */\n  pop\n  pop\n    /* \"NapTx.sol\":1248:1280  _mint(msg.sender, 1000 * 10**10) */\n  tag_9\n    /* \"NapTx.sol\":1254:1264  msg.sender */\n  caller\n    /* \"NapTx.sol\":1266:1279  1000 * 10**10 */\n  0x09184e72a000\n    /* \"NapTx.sol\":1248:1253  _mint */\n  shl(0x20, tag_10)\n    /* \"NapTx.sol\":1248:1280  _mint(msg.sender, 1000 * 10**10) */\n  0x20\n  shr\n  jump\t// in\ntag_9:\n    /* \"NapTx.sol\":170:8177  contract OfflinePaymentSystem is ERC20 {... */\n  jump(tag_11)\n    /* \"https://github.com/OpenZeppelin/openzeppelin-contracts/blob/master/contracts/token/ERC20/ERC20.sol\":7362:7570  function _mint(address account, uint256 value) internal {... */\ntag_10:\n    /* \"https://github.com/OpenZeppelin/openzeppelin-contracts/blob/master/contracts/token/ERC20/ERC20.sol\":7451:7452  0 */\n  0x00\n    /* \"https://github.com/OpenZeppelin/openzeppelin-contracts/blob/master/contracts/token/ERC20/ERC20.sol\":7432:7453  account == address(0) */\n  0xffffffffffffffffffffffffffffffffffffffff\n  and\n    /* \"https://github.com/OpenZeppelin/openzeppelin-contracts/blob/master/contracts/token/ERC20/ERC20.sol\":7432:7439  account */\n  dup3\n    /* \"https://github.com/OpenZeppelin/openzeppelin-contracts/blob/master/contracts/token/ERC20/ERC20.sol\":7432:7453  account == address(0) */\n  0xffffffffffffffffffffffffffffffffffffffff\n  and\n  sub\n    /* \"https://github.com/OpenZeppelin/openzeppelin-contracts/blob/master/contracts/token/ERC20/ERC20.sol\":7428:7519  if (account == address(0)) {... */\n  tag_13\n  jumpi\n    /* \"https://github.com/OpenZeppelin/openzeppelin-contracts/blob/master/contracts/token/ERC20/ERC20.sol\":7505:7506  0 */\n  0x00\n    /* \"https://github.com/OpenZeppelin/openzeppelin-contracts/blob/master/contracts/token/ERC20/ERC20.sol\":7476:7508  ERC20InvalidReceiver(address(0)) */\n  mload(0x40)\n  0xec442f0500000000000000000000000000000000000000000000000000000000\n  dup2\n  mstore\n  0x04\n  add\n  tag_14\n  swap2\n  swap1\n  tag_15\n  jump\t// in\ntag_14:\n  mload(0x40)\n  dup1\n  swap2\n  sub\n  swap1\n  revert\n    /* \"https://github.com/OpenZeppelin/openzeppelin-contracts/blob/master/contracts/token/ERC20/ERC20.sol\":7428:7519  if (account == address(0)) {... */\ntag_13:\n    /* \"https://github.com/OpenZeppelin/openzeppelin-contracts/blob/master/contracts/token/ERC20/ERC20.sol\":7528:7563  _update(address(0), account, value) */\n  tag_16\n    /* \"https://github.com/OpenZeppelin/openzeppelin-contracts/blob/master/contracts/token/ERC20/ERC20.sol\":7544:7545  0 */\n  0x00\n    /* \"https://github.com/OpenZeppelin/openzeppelin-contracts/blob/master/contracts/token/ERC20/ERC20.sol\":7548:7555  account */\n  dup4\n    /* \"https://github.com/OpenZeppelin/openzeppelin-contracts/blob/master/contracts/token/ERC20/ERC20.sol\":7557:7562  value */\n  dup4\n    /* \"https://github.com/OpenZeppelin/openzeppelin-contracts/blob/master/contracts/token/ERC20/ERC20.sol\":7528:7535  _update */\n  shl(0x20, tag_17)\n    /* \"https://github.com/OpenZeppelin/openzeppelin-contracts/blob/master/contracts/token/ERC20/ERC20.sol\":7528:7563  _update(address(0), account, value) */\n  0x20\n  shr\n  jump\t// in\ntag_16:\n    /* \"https://github.com/OpenZeppelin/openzeppelin-contracts/blob/master/contracts/token/ERC20/ERC20.sol\":7362:7570  function _mint(address account, uint256 value) internal {... */\n  pop\n  pop\n  jump\t// out\n    /* \"https://github.com/OpenZeppelin/openzeppelin-contracts/blob/master/contracts/token/ERC20/ERC20.sol\":5912:7019  function _update(address from, address to, uint256 value) internal virtual {... */\ntag_17:\n    /* \"https://github.com/OpenZeppelin/openzeppelin-contracts/blob/master/contracts/token/ERC20/ERC20.sol\":6017:6018  0 */\n  0x00\n    /* \"https://github.com/OpenZeppelin/openzeppelin-contracts/blob/master/contracts/token/ERC20/ERC20.sol\":6001:6019  from == address(0) */\n  0xffffffffffffffffffffffffffffffffffffffff\n  and\n    /* \"https://github.com/OpenZeppelin/openzeppelin-contracts/blob/master/contracts/token/ERC20/ERC20.sol\":6001:6005  from */\n  dup4\n    /* \"https://github.com/OpenZeppelin/openzeppelin-contracts/blob/master/contracts/token/ERC20/ERC20.sol\":6001:6019  from == address(0) */\n  0xffffffffffffffffffffffffffffffffffffffff\n  and\n  sub\n    /* \"https://github.com/OpenZeppelin/openzeppelin-contracts/blob/master/contracts/token/ERC20/ERC20.sol\":5997:6537  if (from == address(0)) {... */\n  tag_19\n  jumpi\n    /* \"https://github.com/OpenZeppelin/openzeppelin-contracts/blob/master/contracts/token/ERC20/ERC20.sol\":6153:6158  value */\n  dup1\n    /* \"https://github.com/OpenZeppelin/openzeppelin-contracts/blob/master/contracts/token/ERC20/ERC20.sol\":6137:6149  _totalSupply */\n  0x02\n  0x00\n    /* \"https://github.com/OpenZeppelin/openzeppelin-contracts/blob/master/contracts/token/ERC20/ERC20.sol\":6137:6158  _totalSupply += value */\n  dup3\n  dup3\n  sload\n  tag_20\n  swap2\n  swap1\n  tag_21\n  jump\t// in\ntag_20:\n  swap3\n  pop\n  pop\n  dup2\n  swap1\n  sstore\n  pop\n    /* \"https://github.com/OpenZeppelin/openzeppelin-contracts/blob/master/contracts/token/ERC20/ERC20.sol\":5997:6537  if (from == address(0)) {... */\n  jump(tag_22)\ntag_19:\n    /* \"https://github.com/OpenZeppelin/openzeppelin-contracts/blob/master/contracts/token/ERC20/ERC20.sol\":6189:6208  uint256 fromBalance */\n  0x00\n    /* \"https://github.com/OpenZeppelin/openzeppelin-contracts/blob/master/contracts/token/ERC20/ERC20.sol\":6211:6220  _balances */\n  0x00\n    /* \"https://github.com/OpenZeppelin/openzeppelin-contracts/blob/master/contracts/token/ERC20/ERC20.sol\":6211:6226  _balances[from] */\n  0x00\n    /* \"https://github.com/OpenZeppelin/openzeppelin-contracts/blob/master/contracts/token/ERC20/ERC20.sol\":6221:6225  from */\n  dup6\n    /* \"https://github.com/OpenZeppelin/openzeppelin-contracts/blob/master/contracts/token/ERC20/ERC20.sol\":6211:6226  _balances[from] */\n  0xffffffffffffffffffffffffffffffffffffffff\n  and\n  0xffffffffffffffffffffffffffffffffffffffff\n  and\n  dup2\n  mstore\n  0x20\n  add\n  swap1\n  dup2\n  mstore\n  0x20\n  add\n  0x00\n  keccak256\n  sload\n    /* \"https://github.com/OpenZeppelin/openzeppelin-contracts/blob/master/contracts/token/ERC20/ERC20.sol\":6189:6226  uint256 fromBalance = _balances[from] */\n  swap1\n  pop\n    /* \"https://github.com/OpenZeppelin/openzeppelin-contracts/blob/master/contracts/token/ERC20/ERC20.sol\":6258:6263  value */\n  dup2\n    /* \"https://github.com/OpenZeppelin/openzeppelin-contracts/blob/master/contracts/token/ERC20/ERC20.sol\":6244:6255  fromBalance */\n  dup2\n    /* \"https://github.com/OpenZeppelin/openzeppelin-contracts/blob/master/contracts/token/ERC20/ERC20.sol\":6244:6263  fromBalance < value */\n  lt\n    /* \"https://github.com/OpenZeppelin/openzeppelin-contracts/blob/master/contracts/token/ERC20/ERC20.sol\":6240:6355  if (fromBalance < value) {... */\n  iszero\n  tag_23\n  jumpi\n    /* \"https://github.com/OpenZeppelin/openzeppelin-contracts/blob/master/contracts/token/ERC20/ERC20.sol\":6315:6319  from */\n  dup4\n    /* \"https://github.com/OpenZeppelin/openzeppelin-contracts/blob/master/contracts/token/ERC20/ERC20.sol\":6321:6332  fromBalance */\n  dup2\n    /* \"https://github.com/OpenZeppelin/openzeppelin-contracts/blob/master/contracts/token/ERC20/ERC20.sol\":6334:6339  value */\n  dup4\n    /* \"https://github.com/OpenZeppelin/openzeppelin-contracts/blob/master/contracts/token/ERC20/ERC20.sol\":6290:6340  ERC20InsufficientBalance(from, fromBalance, value) */\n  mload(0x40)\n  0xe450d38c00000000000000000000000000000000000000000000000000000000\n  dup2\n  mstore\n  0x04\n  add\n  tag_24\n  swap4\n  swap3\n  swap2\n  swap1\n  tag_25\n  jump\t// in\ntag_24:\n  mload(0x40)\n  dup1\n  swap2\n  sub\n  swap1\n  revert\n    /* \"https://github.com/OpenZeppelin/openzeppelin-contracts/blob/master/contracts/token/ERC20/ERC20.sol\":6240:6355  if (fromBalance < value) {... */\ntag_23:\n    /* \"https://github.com/OpenZeppelin/openzeppelin-contracts/blob/master/contracts/token/ERC20/ERC20.sol\":6507:6512  value */\n  dup2\n    /* \"https://github.com/OpenZeppelin/openzeppelin-contracts/blob/master/contracts/token/ERC20/ERC20.sol\":6493:6504  fromBalance */\n  dup2\n    /* \"https://github.com/OpenZeppelin/openzeppelin-contracts/blob/master/contracts/token/ERC20/ERC20.sol\":6493:6512  fromBalance - value */\n  sub\n    /* \"https://github.com/OpenZeppelin/openzeppelin-contracts/blob/master/contracts/token/ERC20/ERC20.sol\":6475:6484  _balances */\n  0x00\n    /* \"https://github.com/OpenZeppelin/openzeppelin-contracts/blob/master/contracts/token/ERC20/ERC20.sol\":6475:6490  _balances[from] */\n  0x00\n    /* \"https://github.com/OpenZeppelin/openzeppelin-contracts/blob/master/contracts/token/ERC20/ERC20.sol\":6485:6489  from */\n  dup7\n    /* \"https://github.com/OpenZeppelin/openzeppelin-contracts/blob/master/contracts/token/ERC20/ERC20.sol\":6475:6490  _balances[from] */\n  0xffffffffffffffffffffffffffffffffffffffff\n  and\n  0xffffffffffffffffffffffffffffffffffffffff\n  and\n  dup2\n  mstore\n  0x20\n  add\n  swap1\n  dup2\n  mstore\n  0x20\n  add\n  0x00\n  keccak256\n    /* \"https://github.com/OpenZeppelin/openzeppelin-contracts/blob/master/contracts/token/ERC20/ERC20.sol\":6475:6512  _balances[from] = fromBalance - value */\n  dup2\n  swap1\n  sstore\n  pop\n    /* \"https://github.com/OpenZeppelin/openzeppelin-contracts/blob/master/contracts/token/ERC20/ERC20.sol\":6175:6537  {... */\n  pop\n    /* \"https://github.com/OpenZeppelin/openzeppelin-contracts/blob/master/contracts/token/ERC20/ERC20.sol\":5997:6537  if (from == address(0)) {... */\ntag_22:\n    /* \"https://github.com/OpenZeppelin/openzeppelin-contracts/blob/master/contracts/token/ERC20/ERC20.sol\":6565:6566  0 */\n  0x00\n    /* \"https://github.com/OpenZeppelin/openzeppelin-contracts/blob/master/contracts/token/ERC20/ERC20.sol\":6551:6567  to == address(0) */\n  0xffffffffffffffffffffffffffffffffffffffff\n  and\n    /* \"https://github.com/OpenZeppelin/openzeppelin-contracts/blob/master/contracts/token/ERC20/ERC20.sol\":6551:6553  to */\n  dup3\n    /* \"https://github.com/OpenZeppelin/openzeppelin-contracts/blob/master/contracts/token/ERC20/ERC20.sol\":6551:6567  to == address(0) */\n  0xffffffffffffffffffffffffffffffffffffffff\n  and\n  sub\n    /* \"https://github.com/OpenZeppelin/openzeppelin-contracts/blob/master/contracts/token/ERC20/ERC20.sol\":6547:6972  if (to == address(0)) {... */\n  tag_26\n  jumpi\n    /* \"https://github.com/OpenZeppelin/openzeppelin-contracts/blob/master/contracts/token/ERC20/ERC20.sol\":6730:6735  value */\n  dup1\n    /* \"https://github.com/OpenZeppelin/openzeppelin-contracts/blob/master/contracts/token/ERC20/ERC20.sol\":6714:6726  _totalSupply */\n  0x02\n  0x00\n    /* \"https://github.com/OpenZeppelin/openzeppelin-contracts/blob/master/contracts/token/ERC20/ERC20.sol\":6714:6735  _totalSupply -= value */\n  dup3\n  dup3\n  sload\n  sub\n  swap3\n  pop\n  pop\n  dup2\n  swap1\n  sstore\n  pop\n    /* \"https://github.com/OpenZeppelin/openzeppelin-contracts/blob/master/contracts/token/ERC20/ERC20.sol\":6547:6972  if (to == address(0)) {... */\n  jump(tag_27)\ntag_26:\n    /* \"https://github.com/OpenZeppelin/openzeppelin-contracts/blob/master/contracts/token/ERC20/ERC20.sol\":6942:6947  value */\n  dup1\n    /* \"https://github.com/OpenZeppelin/openzeppelin-contracts/blob/master/contracts/token/ERC20/ERC20.sol\":6925:6934  _balances */\n  0x00\n    /* \"https://github.com/OpenZeppelin/openzeppelin-contracts/blob/master/contracts/token/ERC20/ERC20.sol\":6925:6938  _balances[to] */\n  0x00\n    /* \"https://github.com/OpenZeppelin/openzeppelin-contracts/blob/master/contracts/token/ERC20/ERC20.sol\":6935:6937  to */\n  dup5\n    /* \"https://github.com/OpenZeppelin/openzeppelin-contracts/blob/master/contracts/token/ERC20/ERC20.sol\":6925:6938  _balances[to] */\n  0xffffffffffffffffffffffffffffffffffffffff\n  and\n  0xffffffffffffffffffffffffffffffffffffffff\n  and\n  dup2\n  mstore\n  0x20\n  add\n  swap1\n  dup2\n  mstore\n  0x20\n  add\n  0x00\n  keccak256\n  0x00\n    /* \"https://github.com/OpenZeppelin/openzeppelin-contracts/blob/master/contracts/token/ERC20/ERC20.sol\":6925:6947  _balances[to] += value */\n  dup3\n  dup3\n  sload\n  add\n  swap3\n  pop\n  pop\n  dup2\n  swap1\n  sstore\n  pop\n    /* \"https://github.com/OpenZeppelin/openzeppelin-contracts/blob/master/contracts/token/ERC20/ERC20.sol\":6547:6972  if (to == address(0)) {... */\ntag_27:\n    /* \"https://github.com/OpenZeppelin/openzeppelin-contracts/blob/master/contracts/token/ERC20/ERC20.sol\":7002:7004  to */\n  dup2\n    /* \"https://github.com/OpenZeppelin/openzeppelin-contracts/blob/master/contracts/token/ERC20/ERC20.sol\":6987:7012  Transfer(from, to, value) */\n  0xffffffffffffffffffffffffffffffffffffffff\n  and\n    /* \"https://github.com/OpenZeppelin/openzeppelin-contracts/blob/master/contracts/token/ERC20/ERC20.sol\":6996:7000  from */\n  dup4\n    /* \"https://github.com/OpenZeppelin/openzeppelin-contracts/blob/master/contracts/token/ERC20/ERC20.sol\":6987:7012  Transfer(from, to, value) */\n  0xffffffffffffffffffffffffffffffffffffffff\n  and\n  0xddf252ad1be2c89b69c2b068fc378daa952ba7f163c4a11628f55a4df523b3ef\n    /* \"https://github.com/OpenZeppelin/openzeppelin-contracts/blob/master/contracts/token/ERC20/ERC20.sol\":7006:7011  value */\n  dup4\n    /* \"https://github.com/OpenZeppelin/openzeppelin-contracts/blob/master/contracts/token/ERC20/ERC20.sol\":6987:7012  Transfer(from, to, value) */\n  mload(0x40)\n  tag_28\n  swap2\n  swap1\n  tag_29\n  jump\t// in\ntag_28:\n  mload(0x40)\n  dup1\n  swap2\n  sub\n  swap1\n  log3\n    /* \"https://github.com/OpenZeppelin/openzeppelin-contracts/blob/master/contracts/token/ERC20/ERC20.sol\":5912:7019  function _update(address from, address to, uint256 value) internal virtual {... */\n  pop\n  pop\n  pop\n  jump\t// out\n    /* \"#utility.yul\":7:106   */\ntag_30:\n    /* \"#utility.yul\":59:65   */\n  0x00\n    /* \"#utility.yul\":93:98   */\n  dup2\n    /* \"#utility.yul\":87:99   */\n  mload\n    /* \"#utility.yul\":77:99   */\n  swap1\n  pop\n    /* \"#utility.yul\":7:106   */\n  swap2\n  swap1\n  pop\n  jump\t// out\n    /* \"#utility.yul\":112:292   */\ntag_31:\n    /* \"#utility.yul\":160:237   */\n  0x4e487b7100000000000000000000000000000000000000000000000000000000\n    /* \"#utility.yul\":157:158   */\n  0x00\n    /* \"#utility.yul\":150:238   */\n  mstore\n    /* \"#utility.yul\":257:261   */\n  0x41\n    /* \"#utility.yul\":254:255   */\n  0x04\n    /* \"#utility.yul\":247:262   */\n  mstore\n    /* \"#utility.yul\":281:285   */\n  0x24\n    /* \"#utility.yul\":278:279   */\n  0x00\n    /* \"#utility.yul\":271:286   */\n  revert\n    /* \"#utility.yul\":298:478   */\ntag_32:\n    /* \"#utility.yul\":346:423   */\n  0x4e487b7100000000000000000000000000000000000000000000000000000000\n    /* \"#utility.yul\":343:344   */\n  0x00\n    /* \"#utility.yul\":336:424   */\n  mstore\n    /* \"#utility.yul\":443:447   */\n  0x22\n    /* \"#utility.yul\":440:441   */\n  0x04\n    /* \"#utility.yul\":433:448   */\n  mstore\n    /* \"#utility.yul\":467:471   */\n  0x24\n    /* \"#utility.yul\":464:465   */\n  0x00\n    /* \"#utility.yul\":457:472   */\n  revert\n    /* \"#utility.yul\":484:804   */\ntag_33:\n    /* \"#utility.yul\":528:534   */\n  0x00\n    /* \"#utility.yul\":565:566   */\n  0x02\n    /* \"#utility.yul\":559:563   */\n  dup3\n    /* \"#utility.yul\":555:567   */\n  div\n    /* \"#utility.yul\":545:567   */\n  swap1\n  pop\n    /* \"#utility.yul\":612:613   */\n  0x01\n    /* \"#utility.yul\":606:610   */\n  dup3\n    /* \"#utility.yul\":602:614   */\n  and\n    /* \"#utility.yul\":633:651   */\n  dup1\n    /* \"#utility.yul\":623:704   */\n  tag_60\n  jumpi\n    /* \"#utility.yul\":689:693   */\n  0x7f\n    /* \"#utility.yul\":681:687   */\n  dup3\n    /* \"#utility.yul\":677:694   */\n  and\n    /* \"#utility.yul\":667:694   */\n  swap2\n  pop\n    /* \"#utility.yul\":623:704   */\ntag_60:\n    /* \"#utility.yul\":751:753   */\n  0x20\n    /* \"#utility.yul\":743:749   */\n  dup3\n    /* \"#utility.yul\":740:754   */\n  lt\n    /* \"#utility.yul\":720:738   */\n  dup2\n    /* \"#utility.yul\":717:755   */\n  sub\n    /* \"#utility.yul\":714:798   */\n  tag_61\n  jumpi\n    /* \"#utility.yul\":770:788   */\n  tag_62\n  tag_32\n  jump\t// in\ntag_62:\n    /* \"#utility.yul\":714:798   */\ntag_61:\n    /* \"#utility.yul\":535:804   */\n  pop\n    /* \"#utility.yul\":484:804   */\n  swap2\n  swap1\n  pop\n  jump\t// out\n    /* \"#utility.yul\":810:951   */\ntag_34:\n    /* \"#utility.yul\":859:863   */\n  0x00\n    /* \"#utility.yul\":882:885   */\n  dup2\n    /* \"#utility.yul\":874:885   */\n  swap1\n  pop\n    /* \"#utility.yul\":905:908   */\n  dup2\n    /* \"#utility.yul\":902:903   */\n  0x00\n    /* \"#utility.yul\":895:909   */\n  mstore\n    /* \"#utility.yul\":939:943   */\n  0x20\n    /* \"#utility.yul\":936:937   */\n  0x00\n    /* \"#utility.yul\":926:944   */\n  keccak256\n    /* \"#utility.yul\":918:944   */\n  swap1\n  pop\n    /* \"#utility.yul\":810:951   */\n  swap2\n  swap1\n  pop\n  jump\t// out\n    /* \"#utility.yul\":957:1050   */\ntag_35:\n    /* \"#utility.yul\":994:1000   */\n  0x00\n    /* \"#utility.yul\":1041:1043   */\n  0x20\n    /* \"#utility.yul\":1036:1038   */\n  0x1f\n    /* \"#utility.yul\":1029:1034   */\n  dup4\n    /* \"#utility.yul\":1025:1039   */\n  add\n    /* \"#utility.yul\":1021:1044   */\n  div\n    /* \"#utility.yul\":1011:1044   */\n  swap1\n  pop\n    /* \"#utility.yul\":957:1050   */\n  swap2\n  swap1\n  pop\n  jump\t// out\n    /* \"#utility.yul\":1056:1163   */\ntag_36:\n    /* \"#utility.yul\":1100:1108   */\n  0x00\n    /* \"#utility.yul\":1150:1155   */\n  dup3\n    /* \"#utility.yul\":1144:1148   */\n  dup3\n    /* \"#utility.yul\":1140:1156   */\n  shl\n    /* \"#utility.yul\":1119:1156   */\n  swap1\n  pop\n    /* \"#utility.yul\":1056:1163   */\n  swap3\n  swap2\n  pop\n  pop\n  jump\t// out\n    /* \"#utility.yul\":1169:1562   */\ntag_37:\n    /* \"#utility.yul\":1238:1244   */\n  0x00\n    /* \"#utility.yul\":1288:1289   */\n  0x08\n    /* \"#utility.yul\":1276:1286   */\n  dup4\n    /* \"#utility.yul\":1272:1290   */\n  mul\n    /* \"#utility.yul\":1311:1408   */\n  tag_67\n    /* \"#utility.yul\":1341:1407   */\n  0xffffffffffffffffffffffffffffffffffffffffffffffffffffffffffffffff\n    /* \"#utility.yul\":1330:1339   */\n  dup3\n    /* \"#utility.yul\":1311:1408   */\n  tag_36\n  jump\t// in\ntag_67:\n    /* \"#utility.yul\":1429:1468   */\n  tag_68\n    /* \"#utility.yul\":1459:1467   */\n  dup7\n    /* \"#utility.yul\":1448:1457   */\n  dup4\n    /* \"#utility.yul\":1429:1468   */\n  tag_36\n  jump\t// in\ntag_68:\n    /* \"#utility.yul\":1417:1468   */\n  swap6\n  pop\n    /* \"#utility.yul\":1501:1505   */\n  dup1\n    /* \"#utility.yul\":1497:1506   */\n  not\n    /* \"#utility.yul\":1490:1495   */\n  dup5\n    /* \"#utility.yul\":1486:1507   */\n  and\n    /* \"#utility.yul\":1477:1507   */\n  swap4\n  pop\n    /* \"#utility.yul\":1550:1554   */\n  dup1\n    /* \"#utility.yul\":1540:1548   */\n  dup7\n    /* \"#utility.yul\":1536:1555   */\n  and\n    /* \"#utility.yul\":1529:1534   */\n  dup5\n    /* \"#utility.yul\":1526:1556   */\n  or\n    /* \"#utility.yul\":1516:1556   */\n  swap3\n  pop\n    /* \"#utility.yul\":1245:1562   */\n  pop\n  pop\n    /* \"#utility.yul\":1169:1562   */\n  swap4\n  swap3\n  pop\n  pop\n  pop\n  jump\t// out\n    /* \"#utility.yul\":1568:1645   */\ntag_38:\n    /* \"#utility.yul\":1605:1612   */\n  0x00\n    /* \"#utility.yul\":1634:1639   */\n  dup2\n    /* \"#utility.yul\":1623:1639   */\n  swap1\n  pop\n    /* \"#utility.yul\":1568:1645   */\n  swap2\n  swap1\n  pop\n  jump\t// out\n    /* \"#utility.yul\":1651:1711   */\ntag_39:\n    /* \"#utility.yul\":1679:1682   */\n  0x00\n    /* \"#utility.yul\":1700:1705   */\n  dup2\n    /* \"#utility.yul\":1693:1705   */\n  swap1\n  pop\n    /* \"#utility.yul\":1651:1711   */\n  swap2\n  swap1\n  pop\n  jump\t// out\n    /* \"#utility.yul\":1717:1859   */\ntag_40:\n    /* \"#utility.yul\":1767:1776   */\n  0x00\n    /* \"#utility.yul\":1800:1853   */\n  tag_72\n    /* \"#utility.yul\":1818:1852   */\n  tag_73\n    /* \"#utility.yul\":1827:1851   */\n  tag_74\n    /* \"#utility.yul\":1845:1850   */\n  dup5\n    /* \"#utility.yul\":1827:1851   */\n  tag_38\n  jump\t// in\ntag_74:\n    /* \"#utility.yul\":1818:1852   */\n  tag_39\n  jump\t// in\ntag_73:\n    /* \"#utility.yul\":1800:1853   */\n  tag_38\n  jump\t// in\ntag_72:\n    /* \"#utility.yul\":1787:1853   */\n  swap1\n  pop\n    /* \"#utility.yul\":1717:1859   */\n  swap2\n  swap1\n  pop\n  jump\t// out\n    /* \"#utility.yul\":1865:1940   */\ntag_41:\n    /* \"#utility.yul\":1908:1911   */\n  0x00\n    /* \"#utility.yul\":1929:1934   */\n  dup2\n    /* \"#utility.yul\":1922:1934   */\n  swap1\n  pop\n    /* \"#utility.yul\":1865:1940   */\n  swap2\n  swap1\n  pop\n  jump\t// out\n    /* \"#utility.yul\":1946:2215   */\ntag_42:\n    /* \"#utility.yul\":2056:2095   */\n  tag_77\n    /* \"#utility.yul\":2087:2094   */\n  dup4\n    /* \"#utility.yul\":2056:2095   */\n  tag_40\n  jump\t// in\ntag_77:\n    /* \"#utility.yul\":2117:2208   */\n  tag_78\n    /* \"#utility.yul\":2166:2207   */\n  tag_79\n    /* \"#utility.yul\":2190:2206   */\n  dup3\n    /* \"#utility.yul\":2166:2207   */\n  tag_41\n  jump\t// in\ntag_79:\n    /* \"#utility.yul\":2158:2164   */\n  dup5\n    /* \"#utility.yul\":2151:2155   */\n  dup5\n    /* \"#utility.yul\":2145:2156   */\n  sload\n    /* \"#utility.yul\":2117:2208   */\n  tag_37\n  jump\t// in\ntag_78:\n    /* \"#utility.yul\":2111:2115   */\n  dup3\n    /* \"#utility.yul\":2104:2209   */\n  sstore\n    /* \"#utility.yul\":2022:2215   */\n  pop\n    /* \"#utility.yul\":1946:2215   */\n  pop\n  pop\n  pop\n  jump\t// out\n    /* \"#utility.yul\":2221:2294   */\ntag_43:\n    /* \"#utility.yul\":2266:2269   */\n  0x00\n    /* \"#utility.yul\":2287:2288   */\n  0x00\n    /* \"#utility.yul\":2280:2288   */\n  swap1\n  pop\n    /* \"#utility.yul\":2221:2294   */\n  swap1\n  jump\t// out\n    /* \"#utility.yul\":2300:2489   */\ntag_44:\n    /* \"#utility.yul\":2377:2409   */\n  tag_82\n  tag_43\n  jump\t// in\ntag_82:\n    /* \"#utility.yul\":2418:2483   */\n  tag_83\n    /* \"#utility.yul\":2476:2482   */\n  dup2\n    /* \"#utility.yul\":2468:2474   */\n  dup5\n    /* \"#utility.yul\":2462:2466   */\n  dup5\n    /* \"#utility.yul\":2418:2483   */\n  tag_42\n  jump\t// in\ntag_83:\n    /* \"#utility.yul\":2353:2489   */\n  pop\n    /* \"#utility.yul\":2300:2489   */\n  pop\n  pop\n  jump\t// out\n    /* \"#utility.yul\":2495:2681   */\ntag_45:\n    /* \"#utility.yul\":2555:2675   */\ntag_85:\n    /* \"#utility.yul\":2572:2575   */\n  dup2\n    /* \"#utility.yul\":2565:2570   */\n  dup2\n    /* \"#utility.yul\":2562:2576   */\n  lt\n    /* \"#utility.yul\":2555:2675   */\n  iszero\n  tag_87\n  jumpi\n    /* \"#utility.yul\":2626:2665   */\n  tag_88\n    /* \"#utility.yul\":2663:2664   */\n  0x00\n    /* \"#utility.yul\":2656:2661   */\n  dup3\n    /* \"#utility.yul\":2626:2665   */\n  tag_44\n  jump\t// in\ntag_88:\n    /* \"#utility.yul\":2599:2600   */\n  0x01\n    /* \"#utility.yul\":2592:2597   */\n  dup2\n    /* \"#utility.yul\":2588:2601   */\n  add\n    /* \"#utility.yul\":2579:2601   */\n  swap1\n  pop\n    /* \"#utility.yul\":2555:2675   */\n  jump(tag_85)\ntag_87:\n    /* \"#utility.yul\":2495:2681   */\n  pop\n  pop\n  jump\t// out\n    /* \"#utility.yul\":2687:3230   */\ntag_46:\n    /* \"#utility.yul\":2788:2790   */\n  0x1f\n    /* \"#utility.yul\":2783:2786   */\n  dup3\n    /* \"#utility.yul\":2780:2791   */\n  gt\n    /* \"#utility.yul\":2777:3223   */\n  iszero\n  tag_90\n  jumpi\n    /* \"#utility.yul\":2822:2860   */\n  tag_91\n    /* \"#utility.yul\":2854:2859   */\n  dup2\n    /* \"#utility.yul\":2822:2860   */\n  tag_34\n  jump\t// in\ntag_91:\n    /* \"#utility.yul\":2906:2935   */\n  tag_92\n    /* \"#utility.yul\":2924:2934   */\n  dup5\n    /* \"#utility.yul\":2906:2935   */\n  tag_35\n  jump\t// in\ntag_92:\n    /* \"#utility.yul\":2896:2904   */\n  dup2\n    /* \"#utility.yul\":2892:2936   */\n  add\n    /* \"#utility.yul\":3089:3091   */\n  0x20\n    /* \"#utility.yul\":3077:3087   */\n  dup6\n    /* \"#utility.yul\":3074:3092   */\n  lt\n    /* \"#utility.yul\":3071:3120   */\n  iszero\n  tag_93\n  jumpi\n    /* \"#utility.yul\":3110:3118   */\n  dup2\n    /* \"#utility.yul\":3095:3118   */\n  swap1\n  pop\n    /* \"#utility.yul\":3071:3120   */\ntag_93:\n    /* \"#utility.yul\":3133:3213   */\n  tag_94\n    /* \"#utility.yul\":3189:3211   */\n  tag_95\n    /* \"#utility.yul\":3207:3210   */\n  dup6\n    /* \"#utility.yul\":3189:3211   */\n  tag_35\n  jump\t// in\ntag_95:\n    /* \"#utility.yul\":3179:3187   */\n  dup4\n    /* \"#utility.yul\":3175:3212   */\n  add\n    /* \"#utility.yul\":3162:3173   */\n  dup3\n    /* \"#utility.yul\":3133:3213   */\n  tag_45\n  jump\t// in\ntag_94:\n    /* \"#utility.yul\":2792:3223   */\n  pop\n  pop\n    /* \"#utility.yul\":2777:3223   */\ntag_90:\n    /* \"#utility.yul\":2687:3230   */\n  pop\n  pop\n  pop\n  jump\t// out\n    /* \"#utility.yul\":3236:3353   */\ntag_47:\n    /* \"#utility.yul\":3290:3298   */\n  0x00\n    /* \"#utility.yul\":3340:3345   */\n  dup3\n    /* \"#utility.yul\":3334:3338   */\n  dup3\n    /* \"#utility.yul\":3330:3346   */\n  shr\n    /* \"#utility.yul\":3309:3346   */\n  swap1\n  pop\n    /* \"#utility.yul\":3236:3353   */\n  swap3\n  swap2\n  pop\n  pop\n  jump\t// out\n    /* \"#utility.yul\":3359:3528   */\ntag_48:\n    /* \"#utility.yul\":3403:3409   */\n  0x00\n    /* \"#utility.yul\":3436:3487   */\n  tag_98\n    /* \"#utility.yul\":3484:3485   */\n  0x00\n    /* \"#utility.yul\":3480:3486   */\n  not\n    /* \"#utility.yul\":3472:3477   */\n  dup5\n    /* \"#utility.yul\":3469:3470   */\n  0x08\n    /* \"#utility.yul\":3465:3478   */\n  mul\n    /* \"#utility.yul\":3436:3487   */\n  tag_47\n  jump\t// in\ntag_98:\n    /* \"#utility.yul\":3432:3488   */\n  not\n    /* \"#utility.yul\":3517:3521   */\n  dup1\n    /* \"#utility.yul\":3511:3515   */\n  dup4\n    /* \"#utility.yul\":3507:3522   */\n  and\n    /* \"#utility.yul\":3497:3522   */\n  swap2\n  pop\n    /* \"#utility.yul\":3410:3528   */\n  pop\n    /* \"#utility.yul\":3359:3528   */\n  swap3\n  swap2\n  pop\n  pop\n  jump\t// out\n    /* \"#utility.yul\":3533:3828   */\ntag_49:\n    /* \"#utility.yul\":3609:3613   */\n  0x00\n    /* \"#utility.yul\":3755:3784   */\n  tag_100\n    /* \"#utility.yul\":3780:3783   */\n  dup4\n    /* \"#utility.yul\":3774:3778   */\n  dup4\n    /* \"#utility.yul\":3755:3784   */\n  tag_48\n  jump\t// in\ntag_100:\n    /* \"#utility.yul\":3747:3784   */\n  swap2\n  pop\n    /* \"#utility.yul\":3817:3820   */\n  dup3\n    /* \"#utility.yul\":3814:3815   */\n  0x02\n    /* \"#utility.yul\":3810:3821   */\n  mul\n    /* \"#utility.yul\":3804:3808   */\n  dup3\n    /* \"#utility.yul\":3801:3822   */\n  or\n    /* \"#utility.yul\":3793:3822   */\n  swap1\n  pop\n    /* \"#utility.yul\":3533:3828   */\n  swap3\n  swap2\n  pop\n  pop\n  jump\t// out\n    /* \"#utility.yul\":3833:5228   */\ntag_6:\n    /* \"#utility.yul\":3950:3987   */\n  tag_102\n    /* \"#utility.yul\":3983:3986   */\n  dup3\n    /* \"#utility.yul\":3950:3987   */\n  tag_30\n  jump\t// in\ntag_102:\n    /* \"#utility.yul\":4052:4070   */\n  0xffffffffffffffff\n    /* \"#utility.yul\":4044:4050   */\n  dup2\n    /* \"#utility.yul\":4041:4071   */\n  gt\n    /* \"#utility.yul\":4038:4094   */\n  iszero\n  tag_103\n  jumpi\n    /* \"#utility.yul\":4074:4092   */\n  tag_104\n  tag_31\n  jump\t// in\ntag_104:\n    /* \"#utility.yul\":4038:4094   */\ntag_103:\n    /* \"#utility.yul\":4118:4156   */\n  tag_105\n    /* \"#utility.yul\":4150:4154   */\n  dup3\n    /* \"#utility.yul\":4144:4155   */\n  sload\n    /* \"#utility.yul\":4118:4156   */\n  tag_33\n  jump\t// in\ntag_105:\n    /* \"#utility.yul\":4203:4270   */\n  tag_106\n    /* \"#utility.yul\":4263:4269   */\n  dup3\n    /* \"#utility.yul\":4255:4261   */\n  dup3\n    /* \"#utility.yul\":4249:4253   */\n  dup6\n    /* \"#utility.yul\":4203:4270   */\n  tag_46\n  jump\t// in\ntag_106:\n    /* \"#utility.yul\":4297:4298   */\n  0x00\n    /* \"#utility.yul\":4321:4325   */\n  0x20\n    /* \"#utility.yul\":4308:4325   */\n  swap1\n  pop\n    /* \"#utility.yul\":4353:4355   */\n  0x1f\n    /* \"#utility.yul\":4345:4351   */\n  dup4\n    /* \"#utility.yul\":4342:4356   */\n  gt\n    /* \"#utility.yul\":4370:4371   */\n  0x01\n    /* \"#utility.yul\":4365:4983   */\n  dup2\n  eq\n  tag_108\n  jumpi\n    /* \"#utility.yul\":5027:5028   */\n  0x00\n    /* \"#utility.yul\":5044:5050   */\n  dup5\n    /* \"#utility.yul\":5041:5118   */\n  iszero\n  tag_109\n  jumpi\n    /* \"#utility.yul\":5093:5102   */\n  dup3\n    /* \"#utility.yul\":5088:5091   */\n  dup8\n    /* \"#utility.yul\":5084:5103   */\n  add\n    /* \"#utility.yul\":5078:5104   */\n  mload\n    /* \"#utility.yul\":5069:5104   */\n  swap1\n  pop\n    /* \"#utility.yul\":5041:5118   */\ntag_109:\n    /* \"#utility.yul\":5144:5211   */\n  tag_110\n    /* \"#utility.yul\":5204:5210   */\n  dup6\n    /* \"#utility.yul\":5197:5202   */\n  dup3\n    /* \"#utility.yul\":5144:5211   */\n  tag_49\n  jump\t// in\ntag_110:\n    /* \"#utility.yul\":5138:5142   */\n  dup7\n    /* \"#utility.yul\":5131:5212   */\n  sstore\n    /* \"#utility.yul\":5000:5222   */\n  pop\n    /* \"#utility.yul\":4335:5222   */\n  jump(tag_107)\n    /* \"#utility.yul\":4365:4983   */\ntag_108:\n    /* \"#utility.yul\":4417:4421   */\n  0x1f\n    /* \"#utility.yul\":4413:4422   */\n  not\n    /* \"#utility.yul\":4405:4411   */\n  dup5\n    /* \"#utility.yul\":4401:4423   */\n  and\n    /* \"#utility.yul\":4451:4488   */\n  tag_111\n    /* \"#utility.yul\":4483:4487   */\n  dup7\n    /* \"#utility.yul\":4451:4488   */\n  tag_34\n  jump\t// in\ntag_111:\n    /* \"#utility.yul\":4510:4511   */\n  0x00\n    /* \"#utility.yul\":4524:4732   */\ntag_112:\n    /* \"#utility.yul\":4538:4545   */\n  dup3\n    /* \"#utility.yul\":4535:4536   */\n  dup2\n    /* \"#utility.yul\":4532:4546   */\n  lt\n    /* \"#utility.yul\":4524:4732   */\n  iszero\n  tag_114\n  jumpi\n    /* \"#utility.yul\":4617:4626   */\n  dup5\n    /* \"#utility.yul\":4612:4615   */\n  dup10\n    /* \"#utility.yul\":4608:4627   */\n  add\n    /* \"#utility.yul\":4602:4628   */\n  mload\n    /* \"#utility.yul\":4594:4600   */\n  dup3\n    /* \"#utility.yul\":4587:4629   */\n  sstore\n    /* \"#utility.yul\":4668:4669   */\n  0x01\n    /* \"#utility.yul\":4660:4666   */\n  dup3\n    /* \"#utility.yul\":4656:4670   */\n  add\n    /* \"#utility.yul\":4646:4670   */\n  swap2\n  pop\n    /* \"#utility.yul\":4715:4717   */\n  0x20\n    /* \"#utility.yul\":4704:4713   */\n  dup6\n    /* \"#utility.yul\":4700:4718   */\n  add\n    /* \"#utility.yul\":4687:4718   */\n  swap5\n  pop\n    /* \"#utility.yul\":4561:4565   */\n  0x20\n    /* \"#utility.yul\":4558:4559   */\n  dup2\n    /* \"#utility.yul\":4554:4566   */\n  add\n    /* \"#utility.yul\":4549:4566   */\n  swap1\n  pop\n    /* \"#utility.yul\":4524:4732   */\n  jump(tag_112)\ntag_114:\n    /* \"#utility.yul\":4760:4766   */\n  dup7\n    /* \"#utility.yul\":4751:4758   */\n  dup4\n    /* \"#utility.yul\":4748:4767   */\n  lt\n    /* \"#utility.yul\":4745:4924   */\n  iszero\n  tag_115\n  jumpi\n    /* \"#utility.yul\":4818:4827   */\n  dup5\n    /* \"#utility.yul\":4813:4816   */\n  dup10\n    /* \"#utility.yul\":4809:4828   */\n  add\n    /* \"#utility.yul\":4803:4829   */\n  mload\n    /* \"#utility.yul\":4861:4909   */\n  tag_116\n    /* \"#utility.yul\":4903:4907   */\n  0x1f\n    /* \"#utility.yul\":4895:4901   */\n  dup10\n    /* \"#utility.yul\":4891:4908   */\n  and\n    /* \"#utility.yul\":4880:4889   */\n  dup3\n    /* \"#utility.yul\":4861:4909   */\n  tag_48\n  jump\t// in\ntag_116:\n    /* \"#utility.yul\":4853:4859   */\n  dup4\n    /* \"#utility.yul\":4846:4910   */\n  sstore\n    /* \"#utility.yul\":4768:4924   */\n  pop\n    /* \"#utility.yul\":4745:4924   */\ntag_115:\n    /* \"#utility.yul\":4970:4971   */\n  0x01\n    /* \"#utility.yul\":4966:4967   */\n  0x02\n    /* \"#utility.yul\":4958:4964   */\n  dup9\n    /* \"#utility.yul\":4954:4968   */\n  mul\n    /* \"#utility.yul\":4950:4972   */\n  add\n    /* \"#utility.yul\":4944:4948   */\n  dup9\n    /* \"#utility.yul\":4937:4973   */\n  sstore\n    /* \"#utility.yul\":4372:4983   */\n  pop\n  pop\n  pop\n    /* \"#utility.yul\":4335:5222   */\ntag_107:\n  pop\n    /* \"#utility.yul\":3925:5228   */\n  pop\n  pop\n  pop\n    /* \"#utility.yul\":3833:5228   */\n  pop\n  pop\n  jump\t// out\n    /* \"#utility.yul\":5234:5360   */\ntag_50:\n    /* \"#utility.yul\":5271:5278   */\n  0x00\n    /* \"#utility.yul\":5311:5353   */\n  0xffffffffffffffffffffffffffffffffffffffff\n    /* \"#utility.yul\":5304:5309   */\n  dup3\n    /* \"#utility.yul\":5300:5354   */\n  and\n    /* \"#utility.yul\":5289:5354   */\n  swap1\n  pop\n    /* \"#utility.yul\":5234:5360   */\n  swap2\n  swap1\n  pop\n  jump\t// out\n    /* \"#utility.yul\":5366:5462   */\ntag_51:\n    /* \"#utility.yul\":5403:5410   */\n  0x00\n    /* \"#utility.yul\":5432:5456   */\n  tag_119\n    /* \"#utility.yul\":5450:5455   */\n  dup3\n    /* \"#utility.yul\":5432:5456   */\n  tag_50\n  jump\t// in\ntag_119:\n    /* \"#utility.yul\":5421:5456   */\n  swap1\n  pop\n    /* \"#utility.yul\":5366:5462   */\n  swap2\n  swap1\n  pop\n  jump\t// out\n    /* \"#utility.yul\":5468:5586   */\ntag_52:\n    /* \"#utility.yul\":5555:5579   */\n  tag_121\n    /* \"#utility.yul\":5573:5578   */\n  dup2\n    /* \"#utility.yul\":5555:5579   */\n  tag_51\n  jump\t// in\ntag_121:\n    /* \"#utility.yul\":5550:5553   */\n  dup3\n    /* \"#utility.yul\":5543:5580   */\n  mstore\n    /* \"#utility.yul\":5468:5586   */\n  pop\n  pop\n  jump\t// out\n    /* \"#utility.yul\":5592:5814   */\ntag_15:\n    /* \"#utility.yul\":5685:5689   */\n  0x00\n    /* \"#utility.yul\":5723:5725   */\n  0x20\n    /* \"#utility.yul\":5712:5721   */\n  dup3\n    /* \"#utility.yul\":5708:5726   */\n  add\n    /* \"#utility.yul\":5700:5726   */\n  swap1\n  pop\n    /* \"#utility.yul\":5736:5807   */\n  tag_123\n    /* \"#utility.yul\":5804:5805   */\n  0x00\n    /* \"#utility.yul\":5793:5802   */\n  dup4\n    /* \"#utility.yul\":5789:5806   */\n  add\n    /* \"#utility.yul\":5780:5786   */\n  dup5\n    /* \"#utility.yul\":5736:5807   */\n  tag_52\n  jump\t// in\ntag_123:\n    /* \"#utility.yul\":5592:5814   */\n  swap3\n  swap2\n  pop\n  pop\n  jump\t// out\n    /* \"#utility.yul\":5820:6000   */\ntag_53:\n    /* \"#utility.yul\":5868:5945   */\n  0x4e487b7100000000000000000000000000000000000000000000000000000000\n    /* \"#utility.yul\":5865:5866   */\n  0x00\n    /* \"#utility.yul\":5858:5946   */\n  mstore\n    /* \"#utility.yul\":5965:5969   */\n  0x11\n    /* \"#utility.yul\":5962:5963   */\n  0x04\n    /* \"#utility.yul\":5955:5970   */\n  mstore\n    /* \"#utility.yul\":5989:5993   */\n  0x24\n    /* \"#utility.yul\":5986:5987   */\n  0x00\n    /* \"#utility.yul\":5979:5994   */\n  revert\n    /* \"#utility.yul\":6006:6197   */\ntag_21:\n    /* \"#utility.yul\":6046:6049   */\n  0x00\n    /* \"#utility.yul\":6065:6085   */\n  tag_126\n    /* \"#utility.yul\":6083:6084   */\n  dup3\n    /* \"#utility.yul\":6065:6085   */\n  tag_38\n  jump\t// in\ntag_126:\n    /* \"#utility.yul\":6060:6085   */\n  swap2\n  pop\n    /* \"#utility.yul\":6099:6119   */\n  tag_127\n    /* \"#utility.yul\":6117:6118   */\n  dup4\n    /* \"#utility.yul\":6099:6119   */\n  tag_38\n  jump\t// in\ntag_127:\n    /* \"#utility.yul\":6094:6119   */\n  swap3\n  pop\n    /* \"#utility.yul\":6142:6143   */\n  dup3\n    /* \"#utility.yul\":6139:6140   */\n  dup3\n    /* \"#utility.yul\":6135:6144   */\n  add\n    /* \"#utility.yul\":6128:6144   */\n  swap1\n  pop\n    /* \"#utility.yul\":6163:6166   */\n  dup1\n    /* \"#utility.yul\":6160:6161   */\n  dup3\n    /* \"#utility.yul\":6157:6167   */\n  gt\n    /* \"#utility.yul\":6154:6190   */\n  iszero\n  tag_128\n  jumpi\n    /* \"#utility.yul\":6170:6188   */\n  tag_129\n  tag_53\n  jump\t// in\ntag_129:\n    /* \"#utility.yul\":6154:6190   */\ntag_128:\n    /* \"#utility.yul\":6006:6197   */\n  swap3\n  swap2\n  pop\n  pop\n  jump\t// out\n    /* \"#utility.yul\":6203:6321   */\ntag_54:\n    /* \"#utility.yul\":6290:6314   */\n  tag_131\n    /* \"#utility.yul\":6308:6313   */\n  dup2\n    /* \"#utility.yul\":6290:6314   */\n  tag_38\n  jump\t// in\ntag_131:\n    /* \"#utility.yul\":6285:6288   */\n  dup3\n    /* \"#utility.yul\":6278:6315   */\n  mstore\n    /* \"#utility.yul\":6203:6321   */\n  pop\n  pop\n  jump\t// out\n    /* \"#utility.yul\":6327:6769   */\ntag_25:\n    /* \"#utility.yul\":6476:6480   */\n  0x00\n    /* \"#utility.yul\":6514:6516   */\n  0x60\n    /* \"#utility.yul\":6503:6512   */\n  dup3\n    /* \"#utility.yul\":6499:6517   */\n  add\n    /* \"#utility.yul\":6491:6517   */\n  swap1\n  pop\n    /* \"#utility.yul\":6527:6598   */\n  tag_133\n    /* \"#utility.yul\":6595:6596   */\n  0x00\n    /* \"#utility.yul\":6584:6593   */\n  dup4\n    /* \"#utility.yul\":6580:6597   */\n  add\n    /* \"#utility.yul\":6571:6577   */\n  dup7\n    /* \"#utility.yul\":6527:6598   */\n  tag_52\n  jump\t// in\ntag_133:\n    /* \"#utility.yul\":6608:6680   */\n  tag_134\n    /* \"#utility.yul\":6676:6678   */\n  0x20\n    /* \"#utility.yul\":6665:6674   */\n  dup4\n    /* \"#utility.yul\":6661:6679   */\n  add\n    /* \"#utility.yul\":6652:6658   */\n  dup6\n    /* \"#utility.yul\":6608:6680   */\n  tag_54\n  jump\t// in\ntag_134:\n    /* \"#utility.yul\":6690:6762   */\n  tag_135\n    /* \"#utility.yul\":6758:6760   */\n  0x40\n    /* \"#utility.yul\":6747:6756   */\n  dup4\n    /* \"#utility.yul\":6743:6761   */\n  add\n    /* \"#utility.yul\":6734:6740   */\n  dup5\n    /* \"#utility.yul\":6690:6762   */\n  tag_54\n  jump\t// in\ntag_135:\n    /* \"#utility.yul\":6327:6769   */\n  swap5\n  swap4\n  pop\n  pop\n  pop\n  pop\n  jump\t// out\n    /* \"#utility.yul\":6775:6997   */\ntag_29:\n    /* \"#utility.yul\":6868:6872   */\n  0x00\n    /* \"#utility.yul\":6906:6908   */\n  0x20\n    /* \"#utility.yul\":6895:6904   */\n  dup3\n    /* \"#utility.yul\":6891:6909   */\n  add\n    /* \"#utility.yul\":6883:6909   */\n  swap1\n  pop\n    /* \"#utility.yul\":6919:6990   */\n  tag_137\n    /* \"#utility.yul\":6987:6988   */\n  0x00\n    /* \"#utility.yul\":6976:6985   */\n  dup4\n    /* \"#utility.yul\":6972:6989   */\n  add\n    /* \"#utility.yul\":6963:6969   */\n  dup5\n    /* \"#utility.yul\":6919:6990   */\n  tag_54\n  jump\t// in\ntag_137:\n    /* \"#utility.yul\":6775:6997   */\n  swap3\n  swap2\n  pop\n  pop\n  jump\t// out\n    /* \"NapTx.sol\":170:8177  contract OfflinePaymentSystem is ERC20 {... */\ntag_11:\n  dataSize(sub_0)\n  dup1\n  dataOffset(sub_0)\n  0x00\n  codecopy\n  0x00\n  return\nstop\n\nsub_0: assembly {\n        /* \"NapTx.sol\":170:8177  contract OfflinePaymentSystem is ERC20 {... */\n      mstore(0x40, 0x80)\n      callvalue\n      dup1\n      iszero\n      tag_1\n      jumpi\n      revert(0x00, 0x00)\n    tag_1:\n      pop\n      jumpi(tag_2, lt(calldatasize, 0x04))\n      shr(0xe0, calldataload(0x00))\n      dup1\n      0x95d89b41\n      gt\n      tag_21\n      jumpi\n      dup1\n      0xc5dc38a3\n      gt\n      tag_22\n      jumpi\n      dup1\n      0xc5dc38a3\n      eq\n      tag_16\n      jumpi\n      dup1\n      0xcb942a5f\n      eq\n      tag_17\n      jumpi\n      dup1\n      0xdd62ed3e\n      eq\n      tag_18\n      jumpi\n      dup1\n      0xe8d7b7fa\n      eq\n      tag_19\n      jumpi\n      dup1\n      0xf021cffe\n      eq\n      tag_20\n      jumpi\n      jump(tag_2)\n    tag_22:\n      dup1\n      0x95d89b41\n      eq\n      tag_12\n      jumpi\n      dup1\n      0xa7b2dcc9\n      eq\n      tag_13\n      jumpi\n      dup1\n      0xa9059cbb\n      eq\n      tag_14\n      jumpi\n      dup1\n      0xc0d1782f\n      eq\n      tag_15\n      jumpi\n      jump(tag_2)\n    tag_21:\n      dup1\n      0x23b872dd\n      gt\n      tag_23\n      jumpi\n      dup1\n      0x23b872dd\n      eq\n      tag_7\n      jumpi\n      dup1\n      0x27386fde\n      eq\n      tag_8\n      jumpi\n      dup1\n      0x313ce567\n      eq\n      tag_9\n      jumpi\n      dup1\n      0x70a08231\n      eq\n      tag_10\n      jumpi\n      dup1\n      0x93004a38\n      eq\n      tag_11\n      jumpi\n      jump(tag_2)\n    tag_23:\n      dup1\n      0x06fdde03\n      eq\n      tag_3\n      jumpi\n      dup1\n      0x095ea7b3\n      eq\n      tag_4\n      jumpi\n      dup1\n      0x18160ddd\n      eq\n      tag_5\n      jumpi\n      dup1\n      0x1dedc70e\n      eq\n      tag_6\n      jumpi\n    tag_2:\n      revert(0x00, 0x00)\n        /* \"https://github.com/OpenZeppelin/openzeppelin-contracts/blob/master/contracts/token/ERC20/ERC20.sol\":1760:1849  function name() public view virtual returns (string memory) {... */\n    tag_3:\n      tag_24\n      tag_25\n      jump\t// in\n    tag_24:\n      mload(0x40)\n      tag_26\n      swap2\n      swap1\n      tag_27\n      jump\t// in\n    tag_26:\n      mload(0x40)\n      dup1\n      swap2\n      sub\n      swap1\n      return\n        /* \"https://github.com/OpenZeppelin/openzeppelin-contracts/blob/master/contracts/token/ERC20/ERC20.sol\":3902:4088  function approve(address spender, uint256 value) public virtual returns (bool) {... */\n    tag_4:\n      tag_28\n      0x04\n      dup1\n      calldatasize\n      sub\n      dup2\n      add\n      swap1\n      tag_29\n      swap2\n      swap1\n      tag_30\n      jump\t// in\n    tag_29:\n      tag_31\n      jump\t// in\n    tag_28:\n      mload(0x40)\n      tag_32\n      swap2\n      swap1\n      tag_33\n      jump\t// in\n    tag_32:\n      mload(0x40)\n      dup1\n      swap2\n      sub\n      swap1\n      return\n        /* \"https://github.com/OpenZeppelin/openzeppelin-contracts/blob/master/contracts/token/ERC20/ERC20.sol\":2803:2900  function totalSupply() public view virtual returns (uint256) {... */\n    tag_5:\n      tag_34\n      tag_35\n      jump\t// in\n    tag_34:\n      mload(0x40)\n      tag_36\n      swap2\n      swap1\n      tag_37\n      jump\t// in\n    tag_36:\n      mload(0x40)\n      dup1\n      swap2\n      sub\n      swap1\n      return\n        /* \"NapTx.sol\":1454:2832  function registrar(bytes32 deviceId, uint256 timestamp, uint256 nonce, bytes calldata firma) external returns (bytes32 hashInicial){... */\n    tag_6:\n      tag_38\n      0x04\n      dup1\n      calldatasize\n      sub\n      dup2\n      add\n      swap1\n      tag_39\n      swap2\n      swap1\n      tag_40\n      jump\t// in\n    tag_39:\n      tag_41\n      jump\t// in\n    tag_38:\n      mload(0x40)\n      tag_42\n      swap2\n      swap1\n      tag_43\n      jump\t// in\n    tag_42:\n      mload(0x40)\n      dup1\n      swap2\n      sub\n      swap1\n      return\n        /* \"https://github.com/OpenZeppelin/openzeppelin-contracts/blob/master/contracts/token/ERC20/ERC20.sol\":4680:4924  function transferFrom(address from, address to, uint256 value) public virtual returns (bool) {... */\n    tag_7:\n      tag_44\n      0x04\n      dup1\n      calldatasize\n      sub\n      dup2\n      add\n      swap1\n      tag_45\n      swap2\n      swap1\n      tag_46\n      jump\t// in\n    tag_45:\n      tag_47\n      jump\t// in\n    tag_44:\n      mload(0x40)\n      tag_48\n      swap2\n      swap1\n      tag_33\n      jump\t// in\n    tag_48:\n      mload(0x40)\n      dup1\n      swap2\n      sub\n      swap1\n      return\n        /* \"NapTx.sol\":1066:1130  mapping(address => mapping(uint256 => bool)) public noncesUsados */\n    tag_8:\n      tag_49\n      0x04\n      dup1\n      calldatasize\n      sub\n      dup2\n      add\n      swap1\n      tag_50\n      swap2\n      swap1\n      tag_30\n      jump\t// in\n    tag_50:\n      tag_51\n      jump\t// in\n    tag_49:\n      mload(0x40)\n      tag_52\n      swap2\n      swap1\n      tag_33\n      jump\t// in\n    tag_52:\n      mload(0x40)\n      dup1\n      swap2\n      sub\n      swap1\n      return\n        /* \"https://github.com/OpenZeppelin/openzeppelin-contracts/blob/master/contracts/token/ERC20/ERC20.sol\":2688:2770  function decimals() public view virtual returns (uint8) {... */\n    tag_9:\n      tag_53\n      tag_54\n      jump\t// in\n    tag_53:\n      mload(0x40)\n      tag_55\n      swap2\n      swap1\n      tag_56\n      jump\t// in\n    tag_55:\n      mload(0x40)\n      dup1\n      swap2\n      sub\n      swap1\n      return\n        /* \"https://github.com/OpenZeppelin/openzeppelin-contracts/blob/master/contracts/token/ERC20/ERC20.sol\":2933:3049  function balanceOf(address account) public view virtual returns (uint256) {... */\n    tag_10:\n      tag_57\n      0x04\n      dup1\n      calldatasize\n      sub\n      dup2\n      add\n      swap1\n      tag_58\n      swap2\n      swap1\n      tag_59\n      jump\t// in\n    tag_58:\n      tag_60\n      jump\t// in\n    tag_57:\n      mload(0x40)\n      tag_61\n      swap2\n      swap1\n      tag_37\n      jump\t// in\n    tag_61:\n      mload(0x40)\n      dup1\n      swap2\n      sub\n      swap1\n      return\n        /* \"NapTx.sol\":1136:1183  mapping(bytes32 => bool) public deviceIdsUsados */\n    tag_11:\n      tag_62\n      0x04\n      dup1\n      calldatasize\n      sub\n      dup2\n      add\n      swap1\n      tag_63\n      swap2\n      swap1\n      tag_64\n      jump\t// in\n    tag_63:\n      tag_65\n      jump\t// in\n    tag_62:\n      mload(0x40)\n      tag_66\n      swap2\n      swap1\n      tag_33\n      jump\t// in\n    tag_66:\n      mload(0x40)\n      dup1\n      swap2\n      sub\n      swap1\n      return\n        /* \"https://github.com/OpenZeppelin/openzeppelin-contracts/blob/master/contracts/token/ERC20/ERC20.sol\":1962:2055  function symbol() public view virtual returns (string memory) {... */\n    tag_12:\n      tag_67\n      tag_68\n      jump\t// in\n    tag_67:\n      mload(0x40)\n      tag_69\n      swap2\n      swap1\n      tag_27\n      jump\t// in\n    tag_69:\n      mload(0x40)\n      dup1\n      swap2\n      sub\n      swap1\n      return\n        /* \"NapTx.sol\":5264:7424  function prepararPago(bytes32 hashUsado, uint256 amount, address receptor, uint256 timestamp, uint256 nonce, bytes32 deviceId,... */\n    tag_13:\n      tag_70\n      0x04\n      dup1\n      calldatasize\n      sub\n      dup2\n      add\n      swap1\n      tag_71\n      swap2\n      swap1\n      tag_72\n      jump\t// in\n    tag_71:\n      tag_73\n      jump\t// in\n    tag_70:\n      mload(0x40)\n      tag_74\n      swap3\n      swap2\n      swap1\n      tag_75\n      jump\t// in\n    tag_74:\n      mload(0x40)\n      dup1\n      swap2\n      sub\n      swap1\n      return\n        /* \"https://github.com/OpenZeppelin/openzeppelin-contracts/blob/master/contracts/token/ERC20/ERC20.sol\":3244:3422  function transfer(address to, uint256 value) public virtual returns (bool) {... */\n    tag_14:\n      tag_76\n      0x04\n      dup1\n      calldatasize\n      sub\n      dup2\n      add\n      swap1\n      tag_77\n      swap2\n      swap1\n      tag_30\n      jump\t// in\n    tag_77:\n      tag_78\n      jump\t// in\n    tag_76:\n      mload(0x40)\n      tag_79\n      swap2\n      swap1\n      tag_33\n      jump\t// in\n    tag_79:\n      mload(0x40)\n      dup1\n      swap2\n      sub\n      swap1\n      return\n        /* \"NapTx.sol\":3954:5258  function configurarWhitelist(address[] memory receptores, uint256[] calldata limites,uint256 timestamp, uint256 nonce, bytes calldata firma) external {... */\n    tag_15:\n      tag_80\n      0x04\n      dup1\n      calldatasize\n      sub\n      dup2\n      add\n      swap1\n      tag_81\n      swap2\n      swap1\n      tag_82\n      jump\t// in\n    tag_81:\n      tag_83\n      jump\t// in\n    tag_80:\n      stop\n        /* \"NapTx.sol\":956:998  mapping(address => Emisor) public emisores */\n    tag_16:\n      tag_84\n      0x04\n      dup1\n      calldatasize\n      sub\n      dup2\n      add\n      swap1\n      tag_85\n      swap2\n      swap1\n      tag_59\n      jump\t// in\n    tag_85:\n      tag_86\n      jump\t// in\n    tag_84:\n      mload(0x40)\n      tag_87\n      swap6\n      swap5\n      swap4\n      swap3\n      swap2\n      swap1\n      tag_88\n      jump\t// in\n    tag_87:\n      mload(0x40)\n      dup1\n      swap2\n      sub\n      swap1\n      return\n        /* \"NapTx.sol\":216:265  uint256 public constant TIMEOUT_PAGO = 10 minutes */\n    tag_17:\n      tag_89\n      tag_90\n      jump\t// in\n    tag_89:\n      mload(0x40)\n      tag_91\n      swap2\n      swap1\n      tag_37\n      jump\t// in\n    tag_91:\n      mload(0x40)\n      dup1\n      swap2\n      sub\n      swap1\n      return\n        /* \"https://github.com/OpenZeppelin/openzeppelin-contracts/blob/master/contracts/token/ERC20/ERC20.sol\":3455:3595  function allowance(address owner, address spender) public view virtual returns (uint256) {... */\n    tag_18:\n      tag_92\n      0x04\n      dup1\n      calldatasize\n      sub\n      dup2\n      add\n      swap1\n      tag_93\n      swap2\n      swap1\n      tag_94\n      jump\t// in\n    tag_93:\n      tag_95\n      jump\t// in\n    tag_92:\n      mload(0x40)\n      tag_96\n      swap2\n      swap1\n      tag_37\n      jump\t// in\n    tag_96:\n      mload(0x40)\n      dup1\n      swap2\n      sub\n      swap1\n      return\n        /* \"NapTx.sol\":1004:1060  mapping(bytes32 => PagoPendiente) public pagosPendientes */\n    tag_19:\n      tag_97\n      0x04\n      dup1\n      calldatasize\n      sub\n      dup2\n      add\n      swap1\n      tag_98\n      swap2\n      swap1\n      tag_64\n      jump\t// in\n    tag_98:\n      tag_99\n      jump\t// in\n    tag_97:\n      mload(0x40)\n      tag_100\n      swap12\n      swap11\n      swap10\n      swap9\n      swap8\n      swap7\n      swap6\n      swap5\n      swap4\n      swap3\n      swap2\n      swap1\n      tag_101\n      jump\t// in\n    tag_100:\n      mload(0x40)\n      dup1\n      swap2\n      sub\n      swap1\n      return\n        /* \"NapTx.sol\":271:326  uint256 public constant TIMESTAMP_TOLERANCE = 5 minutes */\n    tag_20:\n      tag_102\n      tag_103\n      jump\t// in\n    tag_102:\n      mload(0x40)\n      tag_104\n      swap2\n      swap1\n      tag_37\n      jump\t// in\n    tag_104:\n      mload(0x40)\n      dup1\n      swap2\n      sub\n      swap1\n      return\n        /* \"https://github.com/OpenZeppelin/openzeppelin-contracts/blob/master/contracts/token/ERC20/ERC20.sol\":1760:1849  function name() public view virtual returns (string memory) {... */\n    tag_25:\n        /* \"https://github.com/OpenZeppelin/openzeppelin-contracts/blob/master/contracts/token/ERC20/ERC20.sol\":1805:1818  string memory */\n      0x60\n        /* \"https://github.com/OpenZeppelin/openzeppelin-contracts/blob/master/contracts/token/ERC20/ERC20.sol\":1837:1842  _name */\n      0x03\n        /* \"https://github.com/OpenZeppelin/openzeppelin-contracts/blob/master/contracts/token/ERC20/ERC20.sol\":1830:1842  return _name */\n      dup1\n      sload\n      tag_106\n      swap1\n      tag_107\n      jump\t// in\n    tag_106:\n      dup1\n      0x1f\n      add\n      0x20\n      dup1\n      swap2\n      div\n      mul\n      0x20\n      add\n      mload(0x40)\n      swap1\n      dup2\n      add\n      0x40\n      mstore\n      dup1\n      swap3\n      swap2\n      swap1\n      dup2\n      dup2\n      mstore\n      0x20\n      add\n      dup3\n      dup1\n      sload\n      tag_108\n      swap1\n      tag_107\n      jump\t// in\n    tag_108:\n      dup1\n      iszero\n      tag_109\n      jumpi\n      dup1\n      0x1f\n      lt\n      tag_110\n      jumpi\n      0x0100\n      dup1\n      dup4\n      sload\n      div\n      mul\n      dup4\n      mstore\n      swap2\n      0x20\n      add\n      swap2\n      jump(tag_109)\n    tag_110:\n      dup3\n      add\n      swap2\n      swap1\n      0x00\n      mstore\n      keccak256(0x00, 0x20)\n      swap1\n    tag_111:\n      dup2\n      sload\n      dup2\n      mstore\n      swap1\n      0x01\n      add\n      swap1\n      0x20\n      add\n      dup1\n      dup4\n      gt\n      tag_111\n      jumpi\n      dup3\n      swap1\n      sub\n      0x1f\n      and\n      dup3\n      add\n      swap2\n    tag_109:\n      pop\n      pop\n      pop\n      pop\n      pop\n      swap1\n      pop\n        /* \"https://github.com/OpenZeppelin/openzeppelin-contracts/blob/master/contracts/token/ERC20/ERC20.sol\":1760:1849  function name() public view virtual returns (string memory) {... */\n      swap1\n      jump\t// out\n        /* \"https://github.com/OpenZeppelin/openzeppelin-contracts/blob/master/contracts/token/ERC20/ERC20.sol\":3902:4088  function approve(address spender, uint256 value) public virtual returns (bool) {... */\n    tag_31:\n        /* \"https://github.com/OpenZeppelin/openzeppelin-contracts/blob/master/contracts/token/ERC20/ERC20.sol\":3975:3979  bool */\n      0x00\n        /* \"https://github.com/OpenZeppelin/openzeppelin-contracts/blob/master/contracts/token/ERC20/ERC20.sol\":3991:4004  address owner */\n      0x00\n        /* \"https://github.com/OpenZeppelin/openzeppelin-contracts/blob/master/contracts/token/ERC20/ERC20.sol\":4007:4019  _msgSender() */\n      tag_113\n        /* \"https://github.com/OpenZeppelin/openzeppelin-contracts/blob/master/contracts/token/ERC20/ERC20.sol\":4007:4017  _msgSender */\n      tag_114\n        /* \"https://github.com/OpenZeppelin/openzeppelin-contracts/blob/master/contracts/token/ERC20/ERC20.sol\":4007:4019  _msgSender() */\n      jump\t// in\n    tag_113:\n        /* \"https://github.com/OpenZeppelin/openzeppelin-contracts/blob/master/contracts/token/ERC20/ERC20.sol\":3991:4019  address owner = _msgSender() */\n      swap1\n      pop\n        /* \"https://github.com/OpenZeppelin/openzeppelin-contracts/blob/master/contracts/token/ERC20/ERC20.sol\":4029:4060  _approve(owner, spender, value) */\n      tag_115\n        /* \"https://github.com/OpenZeppelin/openzeppelin-contracts/blob/master/contracts/token/ERC20/ERC20.sol\":4038:4043  owner */\n      dup2\n        /* \"https://github.com/OpenZeppelin/openzeppelin-contracts/blob/master/contracts/token/ERC20/ERC20.sol\":4045:4052  spender */\n      dup6\n        /* \"https://github.com/OpenZeppelin/openzeppelin-contracts/blob/master/contracts/token/ERC20/ERC20.sol\":4054:4059  value */\n      dup6\n        /* \"https://github.com/OpenZeppelin/openzeppelin-contracts/blob/master/contracts/token/ERC20/ERC20.sol\":4029:4037  _approve */\n      tag_116\n        /* \"https://github.com/OpenZeppelin/openzeppelin-contracts/blob/master/contracts/token/ERC20/ERC20.sol\":4029:4060  _approve(owner, spender, value) */\n      jump\t// in\n    tag_115:\n        /* \"https://github.com/OpenZeppelin/openzeppelin-contracts/blob/master/contracts/token/ERC20/ERC20.sol\":4077:4081  true */\n      0x01\n        /* \"https://github.com/OpenZeppelin/openzeppelin-contracts/blob/master/contracts/token/ERC20/ERC20.sol\":4070:4081  return true */\n      swap2\n      pop\n      pop\n        /* \"https://github.com/OpenZeppelin/openzeppelin-contracts/blob/master/contracts/token/ERC20/ERC20.sol\":3902:4088  function approve(address spender, uint256 value) public virtual returns (bool) {... */\n      swap3\n      swap2\n      pop\n      pop\n      jump\t// out\n        /* \"https://github.com/OpenZeppelin/openzeppelin-contracts/blob/master/contracts/token/ERC20/ERC20.sol\":2803:2900  function totalSupply() public view virtual returns (uint256) {... */\n    tag_35:\n        /* \"https://github.com/OpenZeppelin/openzeppelin-contracts/blob/master/contracts/token/ERC20/ERC20.sol\":2855:2862  uint256 */\n      0x00\n        /* \"https://github.com/OpenZeppelin/openzeppelin-contracts/blob/master/contracts/token/ERC20/ERC20.sol\":2881:2893  _totalSupply */\n      sload(0x02)\n        /* \"https://github.com/OpenZeppelin/openzeppelin-contracts/blob/master/contracts/token/ERC20/ERC20.sol\":2874:2893  return _totalSupply */\n      swap1\n      pop\n        /* \"https://github.com/OpenZeppelin/openzeppelin-contracts/blob/master/contracts/token/ERC20/ERC20.sol\":2803:2900  function totalSupply() public view virtual returns (uint256) {... */\n      swap1\n      jump\t// out\n        /* \"NapTx.sol\":1454:2832  function registrar(bytes32 deviceId, uint256 timestamp, uint256 nonce, bytes calldata firma) external returns (bytes32 hashInicial){... */\n    tag_41:\n        /* \"NapTx.sol\":1565:1584  bytes32 hashInicial */\n      0x00\n        /* \"NapTx.sol\":1595:1609  address emisor */\n      0x00\n        /* \"NapTx.sol\":1612:1622  msg.sender */\n      caller\n        /* \"NapTx.sol\":1595:1622  address emisor = msg.sender */\n      swap1\n      pop\n        /* \"NapTx.sol\":1641:1649  emisores */\n      0x05\n        /* \"NapTx.sol\":1641:1657  emisores[emisor] */\n      0x00\n        /* \"NapTx.sol\":1650:1656  emisor */\n      dup3\n        /* \"NapTx.sol\":1641:1657  emisores[emisor] */\n      0xffffffffffffffffffffffffffffffffffffffff\n      and\n      0xffffffffffffffffffffffffffffffffffffffff\n      and\n      dup2\n      mstore\n      0x20\n      add\n      swap1\n      dup2\n      mstore\n      0x20\n      add\n      0x00\n      keccak256\n        /* \"NapTx.sol\":1641:1668  emisores[emisor].registrado */\n      0x04\n      add\n      0x00\n      swap1\n      sload\n      swap1\n      0x0100\n      exp\n      swap1\n      div\n      0xff\n      and\n        /* \"NapTx.sol\":1640:1668  !emisores[emisor].registrado */\n      iszero\n        /* \"NapTx.sol\":1632:1686  require(!emisores[emisor].registrado, \"Ya registrado\") */\n      tag_119\n      jumpi\n      mload(0x40)\n      0x08c379a000000000000000000000000000000000000000000000000000000000\n      dup2\n      mstore\n      0x04\n      add\n      tag_120\n      swap1\n      tag_121\n      jump\t// in\n    tag_120:\n      mload(0x40)\n      dup1\n      swap2\n      sub\n      swap1\n      revert\n    tag_119:\n        /* \"NapTx.sol\":1705:1720  deviceIdsUsados */\n      0x08\n        /* \"NapTx.sol\":1705:1730  deviceIdsUsados[deviceId] */\n      0x00\n        /* \"NapTx.sol\":1721:1729  deviceId */\n      dup9\n        /* \"NapTx.sol\":1705:1730  deviceIdsUsados[deviceId] */\n      dup2\n      mstore\n      0x20\n      add\n      swap1\n      dup2\n      mstore\n      0x20\n      add\n      0x00\n      keccak256\n      0x00\n      swap1\n      sload\n      swap1\n      0x0100\n      exp\n      swap1\n      div\n      0xff\n      and\n        /* \"NapTx.sol\":1704:1730  !deviceIdsUsados[deviceId] */\n      iszero\n        /* \"NapTx.sol\":1696:1750  require(!deviceIdsUsados[deviceId], \"Device ya usado\") */\n      tag_122\n      jumpi\n      mload(0x40)\n      0x08c379a000000000000000000000000000000000000000000000000000000000\n      dup2\n      mstore\n      0x04\n      add\n      tag_123\n      swap1\n      tag_124\n      jump\t// in\n    tag_123:\n      mload(0x40)\n      dup1\n      swap2\n      sub\n      swap1\n      revert\n    tag_122:\n        /* \"NapTx.sol\":317:326  5 minutes */\n      0x012c\n        /* \"NapTx.sol\":1787:1796  timestamp */\n      dup7\n        /* \"NapTx.sol\":1787:1817  timestamp +TIMESTAMP_TOLERANCE */\n      tag_125\n      swap2\n      swap1\n      tag_126\n      jump\t// in\n    tag_125:\n        /* \"NapTx.sol\":1768:1783  block.timestamp */\n      timestamp\n        /* \"NapTx.sol\":1768:1817  block.timestamp <= timestamp +TIMESTAMP_TOLERANCE */\n      gt\n      iszero\n        /* \"NapTx.sol\":1760:1840  require(block.timestamp <= timestamp +TIMESTAMP_TOLERANCE, \"Timestamp expirado\") */\n      tag_127\n      jumpi\n      mload(0x40)\n      0x08c379a000000000000000000000000000000000000000000000000000000000\n      dup2\n      mstore\n      0x04\n      add\n      tag_128\n      swap1\n      tag_129\n      jump\t// in\n    tag_128:\n      mload(0x40)\n      dup1\n      swap2\n      sub\n      swap1\n      revert\n    tag_127:\n        /* \"NapTx.sol\":1882:1897  bytes32 mensaje */\n      0x00\n        /* \"NapTx.sol\":1940:1946  emisor */\n      dup2\n        /* \"NapTx.sol\":1960:1968  deviceId */\n      dup9\n        /* \"NapTx.sol\":1982:1991  timestamp */\n      dup9\n        /* \"NapTx.sol\":2005:2010  nonce */\n      dup9\n        /* \"NapTx.sol\":1910:2020  abi.encodePacked(... */\n      add(0x20, mload(0x40))\n      tag_130\n      swap5\n      swap4\n      swap3\n      swap2\n      swap1\n      tag_131\n      jump\t// in\n    tag_130:\n      mload(0x40)\n      0x20\n      dup2\n      dup4\n      sub\n      sub\n      dup2\n      mstore\n      swap1\n      0x40\n      mstore\n        /* \"NapTx.sol\":1900:2021  keccak256(abi.encodePacked(... */\n      dup1\n      mload\n      swap1\n      0x20\n      add\n      keccak256\n        /* \"NapTx.sol\":1882:2021  bytes32 mensaje = keccak256(abi.encodePacked(... */\n      swap1\n      pop\n        /* \"NapTx.sol\":2032:2048  address firmante */\n      0x00\n        /* \"NapTx.sol\":2051:2084  recuperarFirmante(mensaje, firma) */\n      tag_132\n        /* \"NapTx.sol\":2069:2076  mensaje */\n      dup3\n        /* \"NapTx.sol\":2078:2083  firma */\n      dup8\n      dup8\n        /* \"NapTx.sol\":2051:2084  recuperarFirmante(mensaje, firma) */\n      dup1\n      dup1\n      0x1f\n      add\n      0x20\n      dup1\n      swap2\n      div\n      mul\n      0x20\n      add\n      mload(0x40)\n      swap1\n      dup2\n      add\n      0x40\n      mstore\n      dup1\n      swap4\n      swap3\n      swap2\n      swap1\n      dup2\n      dup2\n      mstore\n      0x20\n      add\n      dup4\n      dup4\n      dup1\n      dup3\n      dup5\n      calldatacopy\n      0x00\n      dup2\n      dup5\n      add\n      mstore\n      not(0x1f)\n      0x1f\n      dup3\n      add\n      and\n      swap1\n      pop\n      dup1\n      dup4\n      add\n      swap3\n      pop\n      pop\n      pop\n      pop\n      pop\n      pop\n      pop\n        /* \"NapTx.sol\":2051:2068  recuperarFirmante */\n      tag_133\n        /* \"NapTx.sol\":2051:2084  recuperarFirmante(mensaje, firma) */\n      jump\t// in\n    tag_132:\n        /* \"NapTx.sol\":2032:2084  address firmante = recuperarFirmante(mensaje, firma) */\n      swap1\n      pop\n        /* \"NapTx.sol\":2114:2120  emisor */\n      dup3\n        /* \"NapTx.sol\":2102:2120  firmante == emisor */\n      0xffffffffffffffffffffffffffffffffffffffff\n      and\n        /* \"NapTx.sol\":2102:2110  firmante */\n      dup2\n        /* \"NapTx.sol\":2102:2120  firmante == emisor */\n      0xffffffffffffffffffffffffffffffffffffffff\n      and\n      eq\n        /* \"NapTx.sol\":2094:2139  require(firmante == emisor, \"Firma invalida\") */\n      tag_134\n      jumpi\n      mload(0x40)\n      0x08c379a000000000000000000000000000000000000000000000000000000000\n      dup2\n      mstore\n      0x04\n      add\n      tag_135\n      swap1\n      tag_136\n      jump\t// in\n    tag_135:\n      mload(0x40)\n      dup1\n      swap2\n      sub\n      swap1\n      revert\n    tag_134:\n        /* \"NapTx.sol\":2235:2241  emisor */\n      dup3\n        /* \"NapTx.sol\":2255:2263  deviceId */\n      dup10\n        /* \"NapTx.sol\":2277:2292  block.timestamp */\n      timestamp\n        /* \"NapTx.sol\":2205:2325  abi.encodePacked(... */\n      add(0x20, mload(0x40))\n      tag_137\n      swap4\n      swap3\n      swap2\n      swap1\n      tag_138\n      jump\t// in\n    tag_137:\n      mload(0x40)\n      0x20\n      dup2\n      dup4\n      sub\n      sub\n      dup2\n      mstore\n      swap1\n      0x40\n      mstore\n        /* \"NapTx.sol\":2195:2326  keccak256(abi.encodePacked(... */\n      dup1\n      mload\n      swap1\n      0x20\n      add\n      keccak256\n        /* \"NapTx.sol\":2181:2326  hashInicial = keccak256(abi.encodePacked(... */\n      swap4\n      pop\n        /* \"NapTx.sol\":2395:2401  emisor */\n      dup3\n        /* \"NapTx.sol\":2362:2370  emisores */\n      0x05\n        /* \"NapTx.sol\":2362:2378  emisores[emisor] */\n      0x00\n        /* \"NapTx.sol\":2371:2377  emisor */\n      dup6\n        /* \"NapTx.sol\":2362:2378  emisores[emisor] */\n      0xffffffffffffffffffffffffffffffffffffffff\n      and\n      0xffffffffffffffffffffffffffffffffffffffff\n      and\n      dup2\n      mstore\n      0x20\n      add\n      swap1\n      dup2\n      mstore\n      0x20\n      add\n      0x00\n      keccak256\n        /* \"NapTx.sol\":2362:2392  emisores[emisor].walletAddress */\n      0x00\n      add\n      0x00\n        /* \"NapTx.sol\":2362:2401  emisores[emisor].walletAddress = emisor */\n      0x0100\n      exp\n      dup2\n      sload\n      dup2\n      0xffffffffffffffffffffffffffffffffffffffff\n      mul\n      not\n      and\n      swap1\n      dup4\n      0xffffffffffffffffffffffffffffffffffffffff\n      and\n      mul\n      or\n      swap1\n      sstore\n      pop\n        /* \"NapTx.sol\":2441:2452  hashInicial */\n      dup4\n        /* \"NapTx.sol\":2411:2419  emisores */\n      0x05\n        /* \"NapTx.sol\":2411:2427  emisores[emisor] */\n      0x00\n        /* \"NapTx.sol\":2420:2426  emisor */\n      dup6\n        /* \"NapTx.sol\":2411:2427  emisores[emisor] */\n      0xffffffffffffffffffffffffffffffffffffffff\n      and\n      0xffffffffffffffffffffffffffffffffffffffff\n      and\n      dup2\n      mstore\n      0x20\n      add\n      swap1\n      dup2\n      mstore\n      0x20\n      add\n      0x00\n      keccak256\n        /* \"NapTx.sol\":2411:2438  emisores[emisor].hashActual */\n      0x01\n      add\n        /* \"NapTx.sol\":2411:2452  emisores[emisor].hashActual = hashInicial */\n      dup2\n      swap1\n      sstore\n      pop\n        /* \"NapTx.sol\":2490:2498  deviceId */\n      dup9\n        /* \"NapTx.sol\":2462:2470  emisores */\n      0x05\n        /* \"NapTx.sol\":2462:2478  emisores[emisor] */\n      0x00\n        /* \"NapTx.sol\":2471:2477  emisor */\n      dup6\n        /* \"NapTx.sol\":2462:2478  emisores[emisor] */\n      0xffffffffffffffffffffffffffffffffffffffff\n      and\n      0xffffffffffffffffffffffffffffffffffffffff\n      and\n      dup2\n      mstore\n      0x20\n      add\n      swap1\n      dup2\n      mstore\n      0x20\n      add\n      0x00\n      keccak256\n        /* \"NapTx.sol\":2462:2487  emisores[emisor].deviceId */\n      0x05\n      add\n        /* \"NapTx.sol\":2462:2498  emisores[emisor].deviceId = deviceId */\n      dup2\n      swap1\n      sstore\n      pop\n        /* \"NapTx.sol\":2547:2548  0 */\n      0x00\n        /* \"NapTx.sol\":2508:2516  emisores */\n      0x05\n        /* \"NapTx.sol\":2508:2524  emisores[emisor] */\n      0x00\n        /* \"NapTx.sol\":2517:2523  emisor */\n      dup6\n        /* \"NapTx.sol\":2508:2524  emisores[emisor] */\n      0xffffffffffffffffffffffffffffffffffffffff\n      and\n      0xffffffffffffffffffffffffffffffffffffffff\n      and\n      dup2\n      mstore\n      0x20\n      add\n      swap1\n      dup2\n      mstore\n      0x20\n      add\n      0x00\n      keccak256\n        /* \"NapTx.sol\":2508:2544  emisores[emisor].timestampUltimoPago */\n      0x03\n      add\n        /* \"NapTx.sol\":2508:2548  emisores[emisor].timestampUltimoPago = 0 */\n      dup2\n      swap1\n      sstore\n      pop\n        /* \"NapTx.sol\":2588:2592  true */\n      0x01\n        /* \"NapTx.sol\":2558:2566  emisores */\n      0x05\n        /* \"NapTx.sol\":2558:2574  emisores[emisor] */\n      0x00\n        /* \"NapTx.sol\":2567:2573  emisor */\n      dup6\n        /* \"NapTx.sol\":2558:2574  emisores[emisor] */\n      0xffffffffffffffffffffffffffffffffffffffff\n      and\n      0xffffffffffffffffffffffffffffffffffffffff\n      and\n      dup2\n      mstore\n      0x20\n      add\n      swap1\n      dup2\n      mstore\n      0x20\n      add\n      0x00\n      keccak256\n        /* \"NapTx.sol\":2558:2585  emisores[emisor].registrado */\n      0x04\n      add\n      0x00\n        /* \"NapTx.sol\":2558:2592  emisores[emisor].registrado = true */\n      0x0100\n      exp\n      dup2\n      sload\n      dup2\n      0xff\n      mul\n      not\n      and\n      swap1\n      dup4\n      iszero\n      iszero\n      mul\n      or\n      swap1\n      sstore\n      pop\n        /* \"NapTx.sol\":2660:2664  true */\n      0x01\n        /* \"NapTx.sol\":2632:2647  deviceIdsUsados */\n      0x08\n        /* \"NapTx.sol\":2632:2657  deviceIdsUsados[deviceId] */\n      0x00\n        /* \"NapTx.sol\":2648:2656  deviceId */\n      dup12\n        /* \"NapTx.sol\":2632:2657  deviceIdsUsados[deviceId] */\n      dup2\n      mstore\n      0x20\n      add\n      swap1\n      dup2\n      mstore\n      0x20\n      add\n      0x00\n      keccak256\n      0x00\n        /* \"NapTx.sol\":2632:2664  deviceIdsUsados[deviceId] = true */\n      0x0100\n      exp\n      dup2\n      sload\n      dup2\n      0xff\n      mul\n      not\n      and\n      swap1\n      dup4\n      iszero\n      iszero\n      mul\n      or\n      swap1\n      sstore\n      pop\n        /* \"NapTx.sol\":2704:2708  true */\n      0x01\n        /* \"NapTx.sol\":2674:2686  noncesUsados */\n      0x07\n        /* \"NapTx.sol\":2674:2694  noncesUsados[emisor] */\n      0x00\n        /* \"NapTx.sol\":2687:2693  emisor */\n      dup6\n        /* \"NapTx.sol\":2674:2694  noncesUsados[emisor] */\n      0xffffffffffffffffffffffffffffffffffffffff\n      and\n      0xffffffffffffffffffffffffffffffffffffffff\n      and\n      dup2\n      mstore\n      0x20\n      add\n      swap1\n      dup2\n      mstore\n      0x20\n      add\n      0x00\n      keccak256\n        /* \"NapTx.sol\":2674:2701  noncesUsados[emisor][nonce] */\n      0x00\n        /* \"NapTx.sol\":2695:2700  nonce */\n      dup10\n        /* \"NapTx.sol\":2674:2701  noncesUsados[emisor][nonce] */\n      dup2\n      mstore\n      0x20\n      add\n      swap1\n      dup2\n      mstore\n      0x20\n      add\n      0x00\n      keccak256\n      0x00\n        /* \"NapTx.sol\":2674:2708  noncesUsados[emisor][nonce] = true */\n      0x0100\n      exp\n      dup2\n      sload\n      dup2\n      0xff\n      mul\n      not\n      and\n      swap1\n      dup4\n      iszero\n      iszero\n      mul\n      or\n      swap1\n      sstore\n      pop\n        /* \"NapTx.sol\":2741:2747  emisor */\n      dup3\n        /* \"NapTx.sol\":2724:2788  EmisorRegistrado(emisor, deviceId, hashInicial, block.timestamp) */\n      0xffffffffffffffffffffffffffffffffffffffff\n      and\n      0x33ee050b57a9d4230ce40c33cffd55a1210af20d6915c2d690b821d8a3822343\n        /* \"NapTx.sol\":2749:2757  deviceId */\n      dup11\n        /* \"NapTx.sol\":2759:2770  hashInicial */\n      dup7\n        /* \"NapTx.sol\":2772:2787  block.timestamp */\n      timestamp\n        /* \"NapTx.sol\":2724:2788  EmisorRegistrado(emisor, deviceId, hashInicial, block.timestamp) */\n      mload(0x40)\n      tag_139\n      swap4\n      swap3\n      swap2\n      swap1\n      tag_140\n      jump\t// in\n    tag_139:\n      mload(0x40)\n      dup1\n      swap2\n      sub\n      swap1\n      log2\n        /* \"NapTx.sol\":2801:2819  return hashInicial */\n      pop\n      pop\n      pop\n        /* \"NapTx.sol\":1454:2832  function registrar(bytes32 deviceId, uint256 timestamp, uint256 nonce, bytes calldata firma) external returns (bytes32 hashInicial){... */\n      swap6\n      swap5\n      pop\n      pop\n      pop\n      pop\n      pop\n      jump\t// out\n        /* \"https://github.com/OpenZeppelin/openzeppelin-contracts/blob/master/contracts/token/ERC20/ERC20.sol\":4680:4924  function transferFrom(address from, address to, uint256 value) public virtual returns (bool) {... */\n    tag_47:\n        /* \"https://github.com/OpenZeppelin/openzeppelin-contracts/blob/master/contracts/token/ERC20/ERC20.sol\":4767:4771  bool */\n      0x00\n        /* \"https://github.com/OpenZeppelin/openzeppelin-contracts/blob/master/contracts/token/ERC20/ERC20.sol\":4783:4798  address spender */\n      0x00\n        /* \"https://github.com/OpenZeppelin/openzeppelin-contracts/blob/master/contracts/token/ERC20/ERC20.sol\":4801:4813  _msgSender() */\n      tag_142\n        /* \"https://github.com/OpenZeppelin/openzeppelin-contracts/blob/master/contracts/token/ERC20/ERC20.sol\":4801:4811  _msgSender */\n      tag_114\n        /* \"https://github.com/OpenZeppelin/openzeppelin-contracts/blob/master/contracts/token/ERC20/ERC20.sol\":4801:4813  _msgSender() */\n      jump\t// in\n    tag_142:\n        /* \"https://github.com/OpenZeppelin/openzeppelin-contracts/blob/master/contracts/token/ERC20/ERC20.sol\":4783:4813  address spender = _msgSender() */\n      swap1\n      pop\n        /* \"https://github.com/OpenZeppelin/openzeppelin-contracts/blob/master/contracts/token/ERC20/ERC20.sol\":4823:4860  _spendAllowance(from, spender, value) */\n      tag_143\n        /* \"https://github.com/OpenZeppelin/openzeppelin-contracts/blob/master/contracts/token/ERC20/ERC20.sol\":4839:4843  from */\n      dup6\n        /* \"https://github.com/OpenZeppelin/openzeppelin-contracts/blob/master/contracts/token/ERC20/ERC20.sol\":4845:4852  spender */\n      dup3\n        /* \"https://github.com/OpenZeppelin/openzeppelin-contracts/blob/master/contracts/token/ERC20/ERC20.sol\":4854:4859  value */\n      dup6\n        /* \"https://github.com/OpenZeppelin/openzeppelin-contracts/blob/master/contracts/token/ERC20/ERC20.sol\":4823:4838  _spendAllowance */\n      tag_144\n        /* \"https://github.com/OpenZeppelin/openzeppelin-contracts/blob/master/contracts/token/ERC20/ERC20.sol\":4823:4860  _spendAllowance(from, spender, value) */\n      jump\t// in\n    tag_143:\n        /* \"https://github.com/OpenZeppelin/openzeppelin-contracts/blob/master/contracts/token/ERC20/ERC20.sol\":4870:4896  _transfer(from, to, value) */\n      tag_145\n        /* \"https://github.com/OpenZeppelin/openzeppelin-contracts/blob/master/contracts/token/ERC20/ERC20.sol\":4880:4884  from */\n      dup6\n        /* \"https://github.com/OpenZeppelin/openzeppelin-contracts/blob/master/contracts/token/ERC20/ERC20.sol\":4886:4888  to */\n      dup6\n        /* \"https://github.com/OpenZeppelin/openzeppelin-contracts/blob/master/contracts/token/ERC20/ERC20.sol\":4890:4895  value */\n      dup6\n        /* \"https://github.com/OpenZeppelin/openzeppelin-contracts/blob/master/contracts/token/ERC20/ERC20.sol\":4870:4879  _transfer */\n      tag_146\n        /* \"https://github.com/OpenZeppelin/openzeppelin-contracts/blob/master/contracts/token/ERC20/ERC20.sol\":4870:4896  _transfer(from, to, value) */\n      jump\t// in\n    tag_145:\n        /* \"https://github.com/OpenZeppelin/openzeppelin-contracts/blob/master/contracts/token/ERC20/ERC20.sol\":4913:4917  true */\n      0x01\n        /* \"https://github.com/OpenZeppelin/openzeppelin-contracts/blob/master/contracts/token/ERC20/ERC20.sol\":4906:4917  return true */\n      swap2\n      pop\n      pop\n        /* \"https://github.com/OpenZeppelin/openzeppelin-contracts/blob/master/contracts/token/ERC20/ERC20.sol\":4680:4924  function transferFrom(address from, address to, uint256 value) public virtual returns (bool) {... */\n      swap4\n      swap3\n      pop\n      pop\n      pop\n      jump\t// out\n        /* \"NapTx.sol\":1066:1130  mapping(address => mapping(uint256 => bool)) public noncesUsados */\n    tag_51:\n      mstore(0x20, 0x07)\n      dup2\n      0x00\n      mstore\n      mstore(0x20, keccak256(0x00, 0x40))\n      dup1\n      0x00\n      mstore\n      keccak256(0x00, 0x40)\n      0x00\n      swap2\n      pop\n      swap2\n      pop\n      swap1\n      sload\n      swap1\n      0x0100\n      exp\n      swap1\n      div\n      0xff\n      and\n      dup2\n      jump\t// out\n        /* \"https://github.com/OpenZeppelin/openzeppelin-contracts/blob/master/contracts/token/ERC20/ERC20.sol\":2688:2770  function decimals() public view virtual returns (uint8) {... */\n    tag_54:\n        /* \"https://github.com/OpenZeppelin/openzeppelin-contracts/blob/master/contracts/token/ERC20/ERC20.sol\":2737:2742  uint8 */\n      0x00\n        /* \"https://github.com/OpenZeppelin/openzeppelin-contracts/blob/master/contracts/token/ERC20/ERC20.sol\":2761:2763  18 */\n      0x12\n        /* \"https://github.com/OpenZeppelin/openzeppelin-contracts/blob/master/contracts/token/ERC20/ERC20.sol\":2754:2763  return 18 */\n      swap1\n      pop\n        /* \"https://github.com/OpenZeppelin/openzeppelin-contracts/blob/master/contracts/token/ERC20/ERC20.sol\":2688:2770  function decimals() public view virtual returns (uint8) {... */\n      swap1\n      jump\t// out\n        /* \"https://github.com/OpenZeppelin/openzeppelin-contracts/blob/master/contracts/token/ERC20/ERC20.sol\":2933:3049  function balanceOf(address account) public view virtual returns (uint256) {... */\n    tag_60:\n        /* \"https://github.com/OpenZeppelin/openzeppelin-contracts/blob/master/contracts/token/ERC20/ERC20.sol\":2998:3005  uint256 */\n      0x00\n        /* \"https://github.com/OpenZeppelin/openzeppelin-contracts/blob/master/contracts/token/ERC20/ERC20.sol\":3024:3033  _balances */\n      0x00\n        /* \"https://github.com/OpenZeppelin/openzeppelin-contracts/blob/master/contracts/token/ERC20/ERC20.sol\":3024:3042  _balances[account] */\n      0x00\n        /* \"https://github.com/OpenZeppelin/openzeppelin-contracts/blob/master/contracts/token/ERC20/ERC20.sol\":3034:3041  account */\n      dup4\n        /* \"https://github.com/OpenZeppelin/openzeppelin-contracts/blob/master/contracts/token/ERC20/ERC20.sol\":3024:3042  _balances[account] */\n      0xffffffffffffffffffffffffffffffffffffffff\n      and\n      0xffffffffffffffffffffffffffffffffffffffff\n      and\n      dup2\n      mstore\n      0x20\n      add\n      swap1\n      dup2\n      mstore\n      0x20\n      add\n      0x00\n      keccak256\n      sload\n        /* \"https://github.com/OpenZeppelin/openzeppelin-contracts/blob/master/contracts/token/ERC20/ERC20.sol\":3017:3042  return _balances[account] */\n      swap1\n      pop\n        /* \"https://github.com/OpenZeppelin/openzeppelin-contracts/blob/master/contracts/token/ERC20/ERC20.sol\":2933:3049  function balanceOf(address account) public view virtual returns (uint256) {... */\n      swap2\n      swap1\n      pop\n      jump\t// out\n        /* \"NapTx.sol\":1136:1183  mapping(bytes32 => bool) public deviceIdsUsados */\n    tag_65:\n      mstore(0x20, 0x08)\n      dup1\n      0x00\n      mstore\n      keccak256(0x00, 0x40)\n      0x00\n      swap2\n      pop\n      sload\n      swap1\n      0x0100\n      exp\n      swap1\n      div\n      0xff\n      and\n      dup2\n      jump\t// out\n        /* \"https://github.com/OpenZeppelin/openzeppelin-contracts/blob/master/contracts/token/ERC20/ERC20.sol\":1962:2055  function symbol() public view virtual returns (string memory) {... */\n    tag_68:\n        /* \"https://github.com/OpenZeppelin/openzeppelin-contracts/blob/master/contracts/token/ERC20/ERC20.sol\":2009:2022  string memory */\n      0x60\n        /* \"https://github.com/OpenZeppelin/openzeppelin-contracts/blob/master/contracts/token/ERC20/ERC20.sol\":2041:2048  _symbol */\n      0x04\n        /* \"https://github.com/OpenZeppelin/openzeppelin-contracts/blob/master/contracts/token/ERC20/ERC20.sol\":2034:2048  return _symbol */\n      dup1\n      sload\n      tag_150\n      swap1\n      tag_107\n      jump\t// in\n    tag_150:\n      dup1\n      0x1f\n      add\n      0x20\n      dup1\n      swap2\n      div\n      mul\n      0x20\n      add\n      mload(0x40)\n      swap1\n      dup2\n      add\n      0x40\n      mstore\n      dup1\n      swap3\n      swap2\n      swap1\n      dup2\n      dup2\n      mstore\n      0x20\n      add\n      dup3\n      dup1\n      sload\n      tag_151\n      swap1\n      tag_107\n      jump\t// in\n    tag_151:\n      dup1\n      iszero\n      tag_152\n      jumpi\n      dup1\n      0x1f\n      lt\n      tag_153\n      jumpi\n      0x0100\n      dup1\n      dup4\n      sload\n      div\n      mul\n      dup4\n      mstore\n      swap2\n      0x20\n      add\n      swap2\n      jump(tag_152)\n    tag_153:\n      dup3\n      add\n      swap2\n      swap1\n      0x00\n      mstore\n      keccak256(0x00, 0x20)\n      swap1\n    tag_154:\n      dup2\n      sload\n      dup2\n      mstore\n      swap1\n      0x01\n      add\n      swap1\n      0x20\n      add\n      dup1\n      dup4\n      gt\n      tag_154\n      jumpi\n      dup3\n      swap1\n      sub\n      0x1f\n      and\n      dup3\n      add\n      swap2\n    tag_152:\n      pop\n      pop\n      pop\n      pop\n      pop\n      swap1\n      pop\n        /* \"https://github.com/OpenZeppelin/openzeppelin-contracts/blob/master/contracts/token/ERC20/ERC20.sol\":1962:2055  function symbol() public view virtual returns (string memory) {... */\n      swap1\n      jump\t// out\n        /* \"NapTx.sol\":5264:7424  function prepararPago(bytes32 hashUsado, uint256 amount, address receptor, uint256 timestamp, uint256 nonce, bytes32 deviceId,... */\n    tag_73:\n        /* \"NapTx.sol\":5439:5453  bytes32 pagoId */\n      0x00\n        /* \"NapTx.sol\":5455:5476  bytes32 hashPreparado */\n      0x00\n        /* \"NapTx.sol\":5497:5512  bytes32 mensaje */\n      0x00\n        /* \"NapTx.sol\":5555:5564  hashUsado */\n      dup11\n        /* \"NapTx.sol\":5578:5584  amount */\n      dup11\n        /* \"NapTx.sol\":5598:5606  receptor */\n      dup11\n        /* \"NapTx.sol\":5620:5629  timestamp */\n      dup11\n        /* \"NapTx.sol\":5643:5648  nonce */\n      dup11\n        /* \"NapTx.sol\":5662:5670  deviceId */\n      dup11\n        /* \"NapTx.sol\":5525:5680  abi.encodePacked(... */\n      add(0x20, mload(0x40))\n      tag_156\n      swap7\n      swap6\n      swap5\n      swap4\n      swap3\n      swap2\n      swap1\n      tag_157\n      jump\t// in\n    tag_156:\n      mload(0x40)\n      0x20\n      dup2\n      dup4\n      sub\n      sub\n      dup2\n      mstore\n      swap1\n      0x40\n      mstore\n        /* \"NapTx.sol\":5515:5681  keccak256(abi.encodePacked(... */\n      dup1\n      mload\n      swap1\n      0x20\n      add\n      keccak256\n        /* \"NapTx.sol\":5497:5681  bytes32 mensaje = keccak256(abi.encodePacked(... */\n      swap1\n      pop\n        /* \"NapTx.sol\":5692:5706  address emisor */\n      0x00\n        /* \"NapTx.sol\":5709:5742  recuperarFirmante(mensaje, firma) */\n      tag_158\n        /* \"NapTx.sol\":5727:5734  mensaje */\n      dup3\n        /* \"NapTx.sol\":5736:5741  firma */\n      dup8\n      dup8\n        /* \"NapTx.sol\":5709:5742  recuperarFirmante(mensaje, firma) */\n      dup1\n      dup1\n      0x1f\n      add\n      0x20\n      dup1\n      swap2\n      div\n      mul\n      0x20\n      add\n      mload(0x40)\n      swap1\n      dup2\n      add\n      0x40\n      mstore\n      dup1\n      swap4\n      swap3\n      swap2\n      swap1\n      dup2\n      dup2\n      mstore\n      0x20\n      add\n      dup4\n      dup4\n      dup1\n      dup3\n      dup5\n      calldatacopy\n      0x00\n      dup2\n      dup5\n      add\n      mstore\n      not(0x1f)\n      0x1f\n      dup3\n      add\n      and\n      swap1\n      pop\n      dup1\n      dup4\n      add\n      swap3\n      pop\n      pop\n      pop\n      pop\n      pop\n      pop\n      pop\n        /* \"NapTx.sol\":5709:5726  recuperarFirmante */\n      tag_133\n        /* \"NapTx.sol\":5709:5742  recuperarFirmante(mensaje, firma) */\n      jump\t// in\n    tag_158:\n        /* \"NapTx.sol\":5692:5742  address emisor = recuperarFirmante(mensaje, firma) */\n      swap1\n      pop\n        /* \"NapTx.sol\":5761:5769  emisores */\n      0x05\n        /* \"NapTx.sol\":5761:5777  emisores[emisor] */\n      0x00\n        /* \"NapTx.sol\":5770:5776  emisor */\n      dup3\n        /* \"NapTx.sol\":5761:5777  emisores[emisor] */\n      0xffffffffffffffffffffffffffffffffffffffff\n      and\n      0xffffffffffffffffffffffffffffffffffffffff\n      and\n      dup2\n      mstore\n      0x20\n      add\n      swap1\n      dup2\n      mstore\n      0x20\n      add\n      0x00\n      keccak256\n        /* \"NapTx.sol\":5761:5788  emisores[emisor].registrado */\n      0x04\n      add\n      0x00\n      swap1\n      sload\n      swap1\n      0x0100\n      exp\n      swap1\n      div\n      0xff\n      and\n        /* \"NapTx.sol\":5753:5806  require(emisores[emisor].registrado, \"No registrado\") */\n      tag_159\n      jumpi\n      mload(0x40)\n      0x08c379a000000000000000000000000000000000000000000000000000000000\n      dup2\n      mstore\n      0x04\n      add\n      tag_160\n      swap1\n      tag_161\n      jump\t// in\n    tag_160:\n      mload(0x40)\n      dup1\n      swap2\n      sub\n      swap1\n      revert\n    tag_159:\n        /* \"NapTx.sol\":5855:5864  hashUsado */\n      dup12\n        /* \"NapTx.sol\":5824:5832  emisores */\n      0x05\n        /* \"NapTx.sol\":5824:5840  emisores[emisor] */\n      0x00\n        /* \"NapTx.sol\":5833:5839  emisor */\n      dup4\n        /* \"NapTx.sol\":5824:5840  emisores[emisor] */\n      0xffffffffffffffffffffffffffffffffffffffff\n      and\n      0xffffffffffffffffffffffffffffffffffffffff\n      and\n      dup2\n      mstore\n      0x20\n      add\n      swap1\n      dup2\n      mstore\n      0x20\n      add\n      0x00\n      keccak256\n        /* \"NapTx.sol\":5824:5851  emisores[emisor].hashActual */\n      0x01\n      add\n      sload\n        /* \"NapTx.sol\":5824:5864  emisores[emisor].hashActual == hashUsado */\n      eq\n        /* \"NapTx.sol\":5816:5882  require(emisores[emisor].hashActual == hashUsado, \"Hash invalido\") */\n      tag_162\n      jumpi\n      mload(0x40)\n      0x08c379a000000000000000000000000000000000000000000000000000000000\n      dup2\n      mstore\n      0x04\n      add\n      tag_163\n      swap1\n      tag_164\n      jump\t// in\n    tag_163:\n      mload(0x40)\n      dup1\n      swap2\n      sub\n      swap1\n      revert\n    tag_162:\n        /* \"NapTx.sol\":5929:5937  deviceId */\n      dup7\n        /* \"NapTx.sol\":5900:5908  emisores */\n      0x05\n        /* \"NapTx.sol\":5900:5916  emisores[emisor] */\n      0x00\n        /* \"NapTx.sol\":5909:5915  emisor */\n      dup4\n        /* \"NapTx.sol\":5900:5916  emisores[emisor] */\n      0xffffffffffffffffffffffffffffffffffffffff\n      and\n      0xffffffffffffffffffffffffffffffffffffffff\n      and\n      dup2\n      mstore\n      0x20\n      add\n      swap1\n      dup2\n      mstore\n      0x20\n      add\n      0x00\n      keccak256\n        /* \"NapTx.sol\":5900:5925  emisores[emisor].deviceId */\n      0x05\n      add\n      sload\n        /* \"NapTx.sol\":5900:5937  emisores[emisor].deviceId == deviceId */\n      eq\n        /* \"NapTx.sol\":5892:5957  require(emisores[emisor].deviceId == deviceId, \"Device invalido\") */\n      tag_165\n      jumpi\n      mload(0x40)\n      0x08c379a000000000000000000000000000000000000000000000000000000000\n      dup2\n      mstore\n      0x04\n      add\n      tag_166\n      swap1\n      tag_167\n      jump\t// in\n    tag_166:\n      mload(0x40)\n      dup1\n      swap2\n      sub\n      swap1\n      revert\n    tag_165:\n        /* \"NapTx.sol\":317:326  5 minutes */\n      0x012c\n        /* \"NapTx.sol\":5994:6003  timestamp */\n      dup10\n        /* \"NapTx.sol\":5994:6025  timestamp + TIMESTAMP_TOLERANCE */\n      tag_168\n      swap2\n      swap1\n      tag_126\n      jump\t// in\n    tag_168:\n        /* \"NapTx.sol\":5975:5990  block.timestamp */\n      timestamp\n        /* \"NapTx.sol\":5975:6025  block.timestamp <= timestamp + TIMESTAMP_TOLERANCE */\n      gt\n      iszero\n        /* \"NapTx.sol\":5967:6048  require(block.timestamp <= timestamp + TIMESTAMP_TOLERANCE, \"Timestamp expirado\") */\n      tag_169\n      jumpi\n      mload(0x40)\n      0x08c379a000000000000000000000000000000000000000000000000000000000\n      dup2\n      mstore\n      0x04\n      add\n      tag_170\n      swap1\n      tag_129\n      jump\t// in\n    tag_170:\n      mload(0x40)\n      dup1\n      swap2\n      sub\n      swap1\n      revert\n    tag_169:\n        /* \"NapTx.sol\":6067:6079  noncesUsados */\n      0x07\n        /* \"NapTx.sol\":6067:6087  noncesUsados[emisor] */\n      0x00\n        /* \"NapTx.sol\":6080:6086  emisor */\n      dup3\n        /* \"NapTx.sol\":6067:6087  noncesUsados[emisor] */\n      0xffffffffffffffffffffffffffffffffffffffff\n      and\n      0xffffffffffffffffffffffffffffffffffffffff\n      and\n      dup2\n      mstore\n      0x20\n      add\n      swap1\n      dup2\n      mstore\n      0x20\n      add\n      0x00\n      keccak256\n        /* \"NapTx.sol\":6067:6094  noncesUsados[emisor][nonce] */\n      0x00\n        /* \"NapTx.sol\":6088:6093  nonce */\n      dup10\n        /* \"NapTx.sol\":6067:6094  noncesUsados[emisor][nonce] */\n      dup2\n      mstore\n      0x20\n      add\n      swap1\n      dup2\n      mstore\n      0x20\n      add\n      0x00\n      keccak256\n      0x00\n      swap1\n      sload\n      swap1\n      0x0100\n      exp\n      swap1\n      div\n      0xff\n      and\n        /* \"NapTx.sol\":6066:6094  !noncesUsados[emisor][nonce] */\n      iszero\n        /* \"NapTx.sol\":6058:6113  require(!noncesUsados[emisor][nonce], \"Nonce ya usado\") */\n      tag_171\n      jumpi\n      mload(0x40)\n      0x08c379a000000000000000000000000000000000000000000000000000000000\n      dup2\n      mstore\n      0x04\n      add\n      tag_172\n      swap1\n      tag_173\n      jump\t// in\n    tag_172:\n      mload(0x40)\n      dup1\n      swap2\n      sub\n      swap1\n      revert\n    tag_171:\n        /* \"NapTx.sol\":6171:6177  amount */\n      dup11\n        /* \"NapTx.sol\":6131:6139  emisores */\n      0x05\n        /* \"NapTx.sol\":6131:6147  emisores[emisor] */\n      0x00\n        /* \"NapTx.sol\":6140:6146  emisor */\n      dup4\n        /* \"NapTx.sol\":6131:6147  emisores[emisor] */\n      0xffffffffffffffffffffffffffffffffffffffff\n      and\n      0xffffffffffffffffffffffffffffffffffffffff\n      and\n      dup2\n      mstore\n      0x20\n      add\n      swap1\n      dup2\n      mstore\n      0x20\n      add\n      0x00\n      keccak256\n        /* \"NapTx.sol\":6131:6157  emisores[emisor].whitelist */\n      0x02\n      add\n        /* \"NapTx.sol\":6131:6167  emisores[emisor].whitelist[receptor] */\n      0x00\n        /* \"NapTx.sol\":6158:6166  receptor */\n      dup13\n        /* \"NapTx.sol\":6131:6167  emisores[emisor].whitelist[receptor] */\n      0xffffffffffffffffffffffffffffffffffffffff\n      and\n      0xffffffffffffffffffffffffffffffffffffffff\n      and\n      dup2\n      mstore\n      0x20\n      add\n      swap1\n      dup2\n      mstore\n      0x20\n      add\n      0x00\n      keccak256\n      sload\n        /* \"NapTx.sol\":6131:6177  emisores[emisor].whitelist[receptor] >= amount */\n      lt\n      iszero\n        /* \"NapTx.sol\":6123:6196  require(emisores[emisor].whitelist[receptor] >= amount, \"Excede limites\") */\n      tag_174\n      jumpi\n      mload(0x40)\n      0x08c379a000000000000000000000000000000000000000000000000000000000\n      dup2\n      mstore\n      0x04\n      add\n      tag_175\n      swap1\n      tag_176\n      jump\t// in\n    tag_175:\n      mload(0x40)\n      dup1\n      swap2\n      sub\n      swap1\n      revert\n    tag_174:\n        /* \"NapTx.sol\":6251:6257  amount */\n      dup11\n        /* \"NapTx.sol\":6215:6247  allowance(emisor, address(this)) */\n      tag_177\n        /* \"NapTx.sol\":6225:6231  emisor */\n      dup3\n        /* \"NapTx.sol\":6241:6245  this */\n      address\n        /* \"NapTx.sol\":6215:6224  allowance */\n      tag_95\n        /* \"NapTx.sol\":6215:6247  allowance(emisor, address(this)) */\n      jump\t// in\n    tag_177:\n        /* \"NapTx.sol\":6215:6257  allowance(emisor, address(this)) >= amount */\n      lt\n      iszero\n        /* \"NapTx.sol\":6207:6284  require(allowance(emisor, address(this)) >= amount, \"Allowance insuficiente\") */\n      tag_178\n      jumpi\n      mload(0x40)\n      0x08c379a000000000000000000000000000000000000000000000000000000000\n      dup2\n      mstore\n      0x04\n      add\n      tag_179\n      swap1\n      tag_180\n      jump\t// in\n    tag_179:\n      mload(0x40)\n      dup1\n      swap2\n      sub\n      swap1\n      revert\n    tag_178:\n        /* \"NapTx.sol\":6323:6329  amount */\n      dup11\n        /* \"NapTx.sol\":6302:6319  balanceOf(emisor) */\n      tag_181\n        /* \"NapTx.sol\":6312:6318  emisor */\n      dup3\n        /* \"NapTx.sol\":6302:6311  balanceOf */\n      tag_60\n        /* \"NapTx.sol\":6302:6319  balanceOf(emisor) */\n      jump\t// in\n    tag_181:\n        /* \"NapTx.sol\":6302:6329  balanceOf(emisor) >= amount */\n      lt\n      iszero\n        /* \"NapTx.sol\":6294:6354  require(balanceOf(emisor) >= amount, \"Balance insuficiente\") */\n      tag_182\n      jumpi\n      mload(0x40)\n      0x08c379a000000000000000000000000000000000000000000000000000000000\n      dup2\n      mstore\n      0x04\n      add\n      tag_183\n      swap1\n      tag_184\n      jump\t// in\n    tag_183:\n      mload(0x40)\n      dup1\n      swap2\n      sub\n      swap1\n      revert\n    tag_182:\n        /* \"NapTx.sol\":6413:6419  emisor */\n      dup1\n        /* \"NapTx.sol\":6432:6440  receptor */\n      dup11\n        /* \"NapTx.sol\":6453:6459  amount */\n      dup13\n        /* \"NapTx.sol\":6472:6481  hashUsado */\n      dup15\n        /* \"NapTx.sol\":6494:6509  block.timestamp */\n      timestamp\n        /* \"NapTx.sol\":6522:6527  nonce */\n      dup13\n        /* \"NapTx.sol\":6384:6537  abi.encodePacked(... */\n      add(0x20, mload(0x40))\n      tag_185\n      swap7\n      swap6\n      swap5\n      swap4\n      swap3\n      swap2\n      swap1\n      tag_186\n      jump\t// in\n    tag_185:\n      mload(0x40)\n      0x20\n      dup2\n      dup4\n      sub\n      sub\n      dup2\n      mstore\n      swap1\n      0x40\n      mstore\n        /* \"NapTx.sol\":6374:6538  keccak256(abi.encodePacked(... */\n      dup1\n      mload\n      swap1\n      0x20\n      add\n      keccak256\n        /* \"NapTx.sol\":6365:6538  pagoId = keccak256(abi.encodePacked(... */\n      swap4\n      pop\n        /* \"NapTx.sol\":6607:6608  0 */\n      0x00\n        /* \"NapTx.sol\":6565:6609  pagosPendientes[pagoId].emisor == address(0) */\n      0xffffffffffffffffffffffffffffffffffffffff\n      and\n        /* \"NapTx.sol\":6565:6580  pagosPendientes */\n      0x06\n        /* \"NapTx.sol\":6565:6588  pagosPendientes[pagoId] */\n      0x00\n        /* \"NapTx.sol\":6581:6587  pagoId */\n      dup7\n        /* \"NapTx.sol\":6565:6588  pagosPendientes[pagoId] */\n      dup2\n      mstore\n      0x20\n      add\n      swap1\n      dup2\n      mstore\n      0x20\n      add\n      0x00\n      keccak256\n        /* \"NapTx.sol\":6565:6595  pagosPendientes[pagoId].emisor */\n      0x01\n      add\n      0x00\n      swap1\n      sload\n      swap1\n      0x0100\n      exp\n      swap1\n      div\n      0xffffffffffffffffffffffffffffffffffffffff\n      and\n        /* \"NapTx.sol\":6565:6609  pagosPendientes[pagoId].emisor == address(0) */\n      0xffffffffffffffffffffffffffffffffffffffff\n      and\n      eq\n        /* \"NapTx.sol\":6557:6631  require(pagosPendientes[pagoId].emisor == address(0), \"Pago ya existente\") */\n      tag_187\n      jumpi\n      mload(0x40)\n      0x08c379a000000000000000000000000000000000000000000000000000000000\n      dup2\n      mstore\n      0x04\n      add\n      tag_188\n      swap1\n      tag_189\n      jump\t// in\n    tag_188:\n      mload(0x40)\n      dup1\n      swap2\n      sub\n      swap1\n      revert\n    tag_187:\n        /* \"NapTx.sol\":6698:6707  hashUsado */\n      dup12\n        /* \"NapTx.sol\":6746:6752  pagoId */\n      dup5\n        /* \"NapTx.sol\":6766:6781  block.timestamp */\n      timestamp\n        /* \"NapTx.sol\":6668:6791  abi.encodePacked(... */\n      add(0x20, mload(0x40))\n      tag_190\n      swap4\n      swap3\n      swap2\n      swap1\n      tag_191\n      jump\t// in\n    tag_190:\n      mload(0x40)\n      0x20\n      dup2\n      dup4\n      sub\n      sub\n      dup2\n      mstore\n      swap1\n      0x40\n      mstore\n        /* \"NapTx.sol\":6658:6792  keccak256(abi.encodePacked(... */\n      dup1\n      mload\n      swap1\n      0x20\n      add\n      keccak256\n        /* \"NapTx.sol\":6642:6792  hashPreparado = keccak256(abi.encodePacked(... */\n      swap3\n      pop\n        /* \"NapTx.sol\":6836:6842  pagoId */\n      dup4\n        /* \"NapTx.sol\":6803:6818  pagosPendientes */\n      0x06\n        /* \"NapTx.sol\":6803:6826  pagosPendientes[pagoId] */\n      0x00\n        /* \"NapTx.sol\":6819:6825  pagoId */\n      dup7\n        /* \"NapTx.sol\":6803:6826  pagosPendientes[pagoId] */\n      dup2\n      mstore\n      0x20\n      add\n      swap1\n      dup2\n      mstore\n      0x20\n      add\n      0x00\n      keccak256\n        /* \"NapTx.sol\":6803:6833  pagosPendientes[pagoId].pagoId */\n      0x00\n      add\n        /* \"NapTx.sol\":6803:6842  pagosPendientes[pagoId].pagoId = pagoId */\n      dup2\n      swap1\n      sstore\n      pop\n        /* \"NapTx.sol\":6885:6891  emisor */\n      dup1\n        /* \"NapTx.sol\":6852:6867  pagosPendientes */\n      0x06\n        /* \"NapTx.sol\":6852:6875  pagosPendientes[pagoId] */\n      0x00\n        /* \"NapTx.sol\":6868:6874  pagoId */\n      dup7\n        /* \"NapTx.sol\":6852:6875  pagosPendientes[pagoId] */\n      dup2\n      mstore\n      0x20\n      add\n      swap1\n      dup2\n      mstore\n      0x20\n      add\n      0x00\n      keccak256\n        /* \"NapTx.sol\":6852:6882  pagosPendientes[pagoId].emisor */\n      0x01\n      add\n      0x00\n        /* \"NapTx.sol\":6852:6891  pagosPendientes[pagoId].emisor = emisor */\n      0x0100\n      exp\n      dup2\n      sload\n      dup2\n      0xffffffffffffffffffffffffffffffffffffffff\n      mul\n      not\n      and\n      swap1\n      dup4\n      0xffffffffffffffffffffffffffffffffffffffff\n      and\n      mul\n      or\n      swap1\n      sstore\n      pop\n        /* \"NapTx.sol\":6936:6944  receptor */\n      dup10\n        /* \"NapTx.sol\":6901:6916  pagosPendientes */\n      0x06\n        /* \"NapTx.sol\":6901:6924  pagosPendientes[pagoId] */\n      0x00\n        /* \"NapTx.sol\":6917:6923  pagoId */\n      dup7\n        /* \"NapTx.sol\":6901:6924  pagosPendientes[pagoId] */\n      dup2\n      mstore\n      0x20\n      add\n      swap1\n      dup2\n      mstore\n      0x20\n      add\n      0x00\n      keccak256\n        /* \"NapTx.sol\":6901:6933  pagosPendientes[pagoId].receptor */\n      0x02\n      add\n      0x00\n        /* \"NapTx.sol\":6901:6944  pagosPendientes[pagoId].receptor = receptor */\n      0x0100\n      exp\n      dup2\n      sload\n      dup2\n      0xffffffffffffffffffffffffffffffffffffffff\n      mul\n      not\n      and\n      swap1\n      dup4\n      0xffffffffffffffffffffffffffffffffffffffff\n      and\n      mul\n      or\n      swap1\n      sstore\n      pop\n        /* \"NapTx.sol\":6987:6993  amount */\n      dup11\n        /* \"NapTx.sol\":6954:6969  pagosPendientes */\n      0x06\n        /* \"NapTx.sol\":6954:6977  pagosPendientes[pagoId] */\n      0x00\n        /* \"NapTx.sol\":6970:6976  pagoId */\n      dup7\n        /* \"NapTx.sol\":6954:6977  pagosPendientes[pagoId] */\n      dup2\n      mstore\n      0x20\n      add\n      swap1\n      dup2\n      mstore\n      0x20\n      add\n      0x00\n      keccak256\n        /* \"NapTx.sol\":6954:6984  pagosPendientes[pagoId].amount */\n      0x03\n      add\n        /* \"NapTx.sol\":6954:6993  pagosPendientes[pagoId].amount = amount */\n      dup2\n      swap1\n      sstore\n      pop\n        /* \"NapTx.sol\":7039:7048  hashUsado */\n      dup12\n        /* \"NapTx.sol\":7003:7018  pagosPendientes */\n      0x06\n        /* \"NapTx.sol\":7003:7026  pagosPendientes[pagoId] */\n      0x00\n        /* \"NapTx.sol\":7019:7025  pagoId */\n      dup7\n        /* \"NapTx.sol\":7003:7026  pagosPendientes[pagoId] */\n      dup2\n      mstore\n      0x20\n      add\n      swap1\n      dup2\n      mstore\n      0x20\n      add\n      0x00\n      keccak256\n        /* \"NapTx.sol\":7003:7036  pagosPendientes[pagoId].hashUsado */\n      0x04\n      add\n        /* \"NapTx.sol\":7003:7048  pagosPendientes[pagoId].hashUsado = hashUsado */\n      dup2\n      swap1\n      sstore\n      pop\n        /* \"NapTx.sol\":7098:7111  hashPreparado */\n      dup3\n        /* \"NapTx.sol\":7058:7073  pagosPendientes */\n      0x06\n        /* \"NapTx.sol\":7058:7081  pagosPendientes[pagoId] */\n      0x00\n        /* \"NapTx.sol\":7074:7080  pagoId */\n      dup7\n        /* \"NapTx.sol\":7058:7081  pagosPendientes[pagoId] */\n      dup2\n      mstore\n      0x20\n      add\n      swap1\n      dup2\n      mstore\n      0x20\n      add\n      0x00\n      keccak256\n        /* \"NapTx.sol\":7058:7095  pagosPendientes[pagoId].hashPreparado */\n      0x05\n      add\n        /* \"NapTx.sol\":7058:7111  pagosPendientes[pagoId].hashPreparado = hashPreparado */\n      dup2\n      swap1\n      sstore\n      pop\n        /* \"NapTx.sol\":7168:7183  block.timestamp */\n      timestamp\n        /* \"NapTx.sol\":7121:7136  pagosPendientes */\n      0x06\n        /* \"NapTx.sol\":7121:7144  pagosPendientes[pagoId] */\n      0x00\n        /* \"NapTx.sol\":7137:7143  pagoId */\n      dup7\n        /* \"NapTx.sol\":7121:7144  pagosPendientes[pagoId] */\n      dup2\n      mstore\n      0x20\n      add\n      swap1\n      dup2\n      mstore\n      0x20\n      add\n      0x00\n      keccak256\n        /* \"NapTx.sol\":7121:7165  pagosPendientes[pagoId].timestampPreparacion */\n      0x07\n      add\n        /* \"NapTx.sol\":7121:7183  pagosPendientes[pagoId].timestampPreparacion = block.timestamp */\n      dup2\n      swap1\n      sstore\n      pop\n        /* \"NapTx.sol\":7226:7242  Estado.PREPARADO */\n      0x00\n        /* \"NapTx.sol\":7193:7208  pagosPendientes */\n      0x06\n        /* \"NapTx.sol\":7193:7216  pagosPendientes[pagoId] */\n      0x00\n        /* \"NapTx.sol\":7209:7215  pagoId */\n      dup7\n        /* \"NapTx.sol\":7193:7216  pagosPendientes[pagoId] */\n      dup2\n      mstore\n      0x20\n      add\n      swap1\n      dup2\n      mstore\n      0x20\n      add\n      0x00\n      keccak256\n        /* \"NapTx.sol\":7193:7223  pagosPendientes[pagoId].estado */\n      0x09\n      add\n      0x00\n        /* \"NapTx.sol\":7193:7242  pagosPendientes[pagoId].estado = Estado.PREPARADO */\n      0x0100\n      exp\n      dup2\n      sload\n      dup2\n      0xff\n      mul\n      not\n      and\n      swap1\n      dup4\n      0x03\n      dup2\n      gt\n      iszero\n      tag_192\n      jumpi\n      tag_193\n      tag_194\n      jump\t// in\n    tag_193:\n    tag_192:\n      mul\n      or\n      swap1\n      sstore\n      pop\n        /* \"NapTx.sol\":7283:7287  true */\n      0x01\n        /* \"NapTx.sol\":7253:7265  noncesUsados */\n      0x07\n        /* \"NapTx.sol\":7253:7273  noncesUsados[emisor] */\n      0x00\n        /* \"NapTx.sol\":7266:7272  emisor */\n      dup4\n        /* \"NapTx.sol\":7253:7273  noncesUsados[emisor] */\n      0xffffffffffffffffffffffffffffffffffffffff\n      and\n      0xffffffffffffffffffffffffffffffffffffffff\n      and\n      dup2\n      mstore\n      0x20\n      add\n      swap1\n      dup2\n      mstore\n      0x20\n      add\n      0x00\n      keccak256\n        /* \"NapTx.sol\":7253:7280  noncesUsados[emisor][nonce] */\n      0x00\n        /* \"NapTx.sol\":7274:7279  nonce */\n      dup11\n        /* \"NapTx.sol\":7253:7280  noncesUsados[emisor][nonce] */\n      dup2\n      mstore\n      0x20\n      add\n      swap1\n      dup2\n      mstore\n      0x20\n      add\n      0x00\n      keccak256\n      0x00\n        /* \"NapTx.sol\":7253:7287  noncesUsados[emisor][nonce] = true */\n      0x0100\n      exp\n      dup2\n      sload\n      dup2\n      0xff\n      mul\n      not\n      and\n      swap1\n      dup4\n      iszero\n      iszero\n      mul\n      or\n      swap1\n      sstore\n      pop\n        /* \"NapTx.sol\":7333:7341  receptor */\n      dup10\n        /* \"NapTx.sol\":7303:7376  PagoPreparado(pagoId, emisor, receptor, amount, hashPreparado, timestamp) */\n      0xffffffffffffffffffffffffffffffffffffffff\n      and\n        /* \"NapTx.sol\":7325:7331  emisor */\n      dup2\n        /* \"NapTx.sol\":7303:7376  PagoPreparado(pagoId, emisor, receptor, amount, hashPreparado, timestamp) */\n      0xffffffffffffffffffffffffffffffffffffffff\n      and\n        /* \"NapTx.sol\":7317:7323  pagoId */\n      dup6\n        /* \"NapTx.sol\":7303:7376  PagoPreparado(pagoId, emisor, receptor, amount, hashPreparado, timestamp) */\n      0x5a10ea259427b588e51f66ca281a95e7b6a497d7aff40eb19f9ea12f67c4dc4b\n        /* \"NapTx.sol\":7343:7349  amount */\n      dup15\n        /* \"NapTx.sol\":7351:7364  hashPreparado */\n      dup8\n        /* \"NapTx.sol\":7366:7375  timestamp */\n      dup15\n        /* \"NapTx.sol\":7303:7376  PagoPreparado(pagoId, emisor, receptor, amount, hashPreparado, timestamp) */\n      mload(0x40)\n      tag_195\n      swap4\n      swap3\n      swap2\n      swap1\n      tag_196\n      jump\t// in\n    tag_195:\n      mload(0x40)\n      dup1\n      swap2\n      sub\n      swap1\n      log4\n        /* \"NapTx.sol\":7387:7417  return (pagoId, hashPreparado) */\n      pop\n      pop\n        /* \"NapTx.sol\":5264:7424  function prepararPago(bytes32 hashUsado, uint256 amount, address receptor, uint256 timestamp, uint256 nonce, bytes32 deviceId,... */\n      swap9\n      pop\n      swap9\n      swap7\n      pop\n      pop\n      pop\n      pop\n      pop\n      pop\n      pop\n      jump\t// out\n        /* \"https://github.com/OpenZeppelin/openzeppelin-contracts/blob/master/contracts/token/ERC20/ERC20.sol\":3244:3422  function transfer(address to, uint256 value) public virtual returns (bool) {... */\n    tag_78:\n        /* \"https://github.com/OpenZeppelin/openzeppelin-contracts/blob/master/contracts/token/ERC20/ERC20.sol\":3313:3317  bool */\n      0x00\n        /* \"https://github.com/OpenZeppelin/openzeppelin-contracts/blob/master/contracts/token/ERC20/ERC20.sol\":3329:3342  address owner */\n      0x00\n        /* \"https://github.com/OpenZeppelin/openzeppelin-contracts/blob/master/contracts/token/ERC20/ERC20.sol\":3345:3357  _msgSender() */\n      tag_198\n        /* \"https://github.com/OpenZeppelin/openzeppelin-contracts/blob/master/contracts/token/ERC20/ERC20.sol\":3345:3355  _msgSender */\n      tag_114\n        /* \"https://github.com/OpenZeppelin/openzeppelin-contracts/blob/master/contracts/token/ERC20/ERC20.sol\":3345:3357  _msgSender() */\n      jump\t// in\n    tag_198:\n        /* \"https://github.com/OpenZeppelin/openzeppelin-contracts/blob/master/contracts/token/ERC20/ERC20.sol\":3329:3357  address owner = _msgSender() */\n      swap1\n      pop\n        /* \"https://github.com/OpenZeppelin/openzeppelin-contracts/blob/master/contracts/token/ERC20/ERC20.sol\":3367:3394  _transfer(owner, to, value) */\n      tag_199\n        /* \"https://github.com/OpenZeppelin/openzeppelin-contracts/blob/master/contracts/token/ERC20/ERC20.sol\":3377:3382  owner */\n      dup2\n        /* \"https://github.com/OpenZeppelin/openzeppelin-contracts/blob/master/contracts/token/ERC20/ERC20.sol\":3384:3386  to */\n      dup6\n        /* \"https://github.com/OpenZeppelin/openzeppelin-contracts/blob/master/contracts/token/ERC20/ERC20.sol\":3388:3393  value */\n      dup6\n        /* \"https://github.com/OpenZeppelin/openzeppelin-contracts/blob/master/contracts/token/ERC20/ERC20.sol\":3367:3376  _transfer */\n      tag_146\n        /* \"https://github.com/OpenZeppelin/openzeppelin-contracts/blob/master/contracts/token/ERC20/ERC20.sol\":3367:3394  _transfer(owner, to, value) */\n      jump\t// in\n    tag_199:\n        /* \"https://github.com/OpenZeppelin/openzeppelin-contracts/blob/master/contracts/token/ERC20/ERC20.sol\":3411:3415  true */\n      0x01\n        /* \"https://github.com/OpenZeppelin/openzeppelin-contracts/blob/master/contracts/token/ERC20/ERC20.sol\":3404:3415  return true */\n      swap2\n      pop\n      pop\n        /* \"https://github.com/OpenZeppelin/openzeppelin-contracts/blob/master/contracts/token/ERC20/ERC20.sol\":3244:3422  function transfer(address to, uint256 value) public virtual returns (bool) {... */\n      swap3\n      swap2\n      pop\n      pop\n      jump\t// out\n        /* \"NapTx.sol\":3954:5258  function configurarWhitelist(address[] memory receptores, uint256[] calldata limites,uint256 timestamp, uint256 nonce, bytes calldata firma) external {... */\n    tag_83:\n        /* \"NapTx.sol\":4114:4128  address emisor */\n      0x00\n        /* \"NapTx.sol\":4131:4141  msg.sender */\n      caller\n        /* \"NapTx.sol\":4114:4141  address emisor = msg.sender */\n      swap1\n      pop\n        /* \"NapTx.sol\":4160:4168  emisores */\n      0x05\n        /* \"NapTx.sol\":4160:4176  emisores[emisor] */\n      0x00\n        /* \"NapTx.sol\":4169:4175  emisor */\n      dup3\n        /* \"NapTx.sol\":4160:4176  emisores[emisor] */\n      0xffffffffffffffffffffffffffffffffffffffff\n      and\n      0xffffffffffffffffffffffffffffffffffffffff\n      and\n      dup2\n      mstore\n      0x20\n      add\n      swap1\n      dup2\n      mstore\n      0x20\n      add\n      0x00\n      keccak256\n        /* \"NapTx.sol\":4160:4187  emisores[emisor].registrado */\n      0x04\n      add\n      0x00\n      swap1\n      sload\n      swap1\n      0x0100\n      exp\n      swap1\n      div\n      0xff\n      and\n        /* \"NapTx.sol\":4152:4205  require(emisores[emisor].registrado, \"No registrado\") */\n      tag_201\n      jumpi\n      mload(0x40)\n      0x08c379a000000000000000000000000000000000000000000000000000000000\n      dup2\n      mstore\n      0x04\n      add\n      tag_202\n      swap1\n      tag_161\n      jump\t// in\n    tag_202:\n      mload(0x40)\n      dup1\n      swap2\n      sub\n      swap1\n      revert\n    tag_201:\n        /* \"NapTx.sol\":4244:4251  limites */\n      dup7\n      dup7\n        /* \"NapTx.sol\":4244:4258  limites.length */\n      swap1\n      pop\n        /* \"NapTx.sol\":4223:4233  receptores */\n      dup9\n        /* \"NapTx.sol\":4223:4240  receptores.length */\n      mload\n        /* \"NapTx.sol\":4223:4258  receptores.length == limites.length */\n      eq\n        /* \"NapTx.sol\":4215:4284  require(receptores.length == limites.length, \"Longitudes diferentes\") */\n      tag_203\n      jumpi\n      mload(0x40)\n      0x08c379a000000000000000000000000000000000000000000000000000000000\n      dup2\n      mstore\n      0x04\n      add\n      tag_204\n      swap1\n      tag_205\n      jump\t// in\n    tag_204:\n      mload(0x40)\n      dup1\n      swap2\n      sub\n      swap1\n      revert\n    tag_203:\n        /* \"NapTx.sol\":317:326  5 minutes */\n      0x012c\n        /* \"NapTx.sol\":4321:4330  timestamp */\n      dup6\n        /* \"NapTx.sol\":4321:4352  timestamp + TIMESTAMP_TOLERANCE */\n      tag_206\n      swap2\n      swap1\n      tag_126\n      jump\t// in\n    tag_206:\n        /* \"NapTx.sol\":4302:4317  block.timestamp */\n      timestamp\n        /* \"NapTx.sol\":4302:4352  block.timestamp <= timestamp + TIMESTAMP_TOLERANCE */\n      gt\n      iszero\n        /* \"NapTx.sol\":4294:4375  require(block.timestamp <= timestamp + TIMESTAMP_TOLERANCE, \"Timestamp expirado\") */\n      tag_207\n      jumpi\n      mload(0x40)\n      0x08c379a000000000000000000000000000000000000000000000000000000000\n      dup2\n      mstore\n      0x04\n      add\n      tag_208\n      swap1\n      tag_129\n      jump\t// in\n    tag_208:\n      mload(0x40)\n      dup1\n      swap2\n      sub\n      swap1\n      revert\n    tag_207:\n        /* \"NapTx.sol\":4394:4406  noncesUsados */\n      0x07\n        /* \"NapTx.sol\":4394:4414  noncesUsados[emisor] */\n      0x00\n        /* \"NapTx.sol\":4407:4413  emisor */\n      dup3\n        /* \"NapTx.sol\":4394:4414  noncesUsados[emisor] */\n      0xffffffffffffffffffffffffffffffffffffffff\n      and\n      0xffffffffffffffffffffffffffffffffffffffff\n      and\n      dup2\n      mstore\n      0x20\n      add\n      swap1\n      dup2\n      mstore\n      0x20\n      add\n      0x00\n      keccak256\n        /* \"NapTx.sol\":4394:4421  noncesUsados[emisor][nonce] */\n      0x00\n        /* \"NapTx.sol\":4415:4420  nonce */\n      dup6\n        /* \"NapTx.sol\":4394:4421  noncesUsados[emisor][nonce] */\n      dup2\n      mstore\n      0x20\n      add\n      swap1\n      dup2\n      mstore\n      0x20\n      add\n      0x00\n      keccak256\n      0x00\n      swap1\n      sload\n      swap1\n      0x0100\n      exp\n      swap1\n      div\n      0xff\n      and\n        /* \"NapTx.sol\":4393:4421  !noncesUsados[emisor][nonce] */\n      iszero\n        /* \"NapTx.sol\":4385:4440  require(!noncesUsados[emisor][nonce], \"Nonce ya usado\") */\n      tag_209\n      jumpi\n      mload(0x40)\n      0x08c379a000000000000000000000000000000000000000000000000000000000\n      dup2\n      mstore\n      0x04\n      add\n      tag_210\n      swap1\n      tag_173\n      jump\t// in\n    tag_210:\n      mload(0x40)\n      dup1\n      swap2\n      sub\n      swap1\n      revert\n    tag_209:\n        /* \"NapTx.sol\":4451:4466  bytes32 mensaje */\n      0x00\n        /* \"NapTx.sol\":4509:4519  receptores */\n      dup9\n        /* \"NapTx.sol\":4533:4540  limites */\n      dup9\n      dup9\n        /* \"NapTx.sol\":4554:4563  timestamp */\n      dup9\n        /* \"NapTx.sol\":4577:4582  nonce */\n      dup9\n        /* \"NapTx.sol\":4479:4592  abi.encodePacked(... */\n      add(0x20, mload(0x40))\n      tag_211\n      swap6\n      swap5\n      swap4\n      swap3\n      swap2\n      swap1\n      tag_212\n      jump\t// in\n    tag_211:\n      mload(0x40)\n      0x20\n      dup2\n      dup4\n      sub\n      sub\n      dup2\n      mstore\n      swap1\n      0x40\n      mstore\n        /* \"NapTx.sol\":4469:4593  keccak256(abi.encodePacked(... */\n      dup1\n      mload\n      swap1\n      0x20\n      add\n      keccak256\n        /* \"NapTx.sol\":4451:4593  bytes32 mensaje = keccak256(abi.encodePacked(... */\n      swap1\n      pop\n        /* \"NapTx.sol\":4604:4620  address firmante */\n      0x00\n        /* \"NapTx.sol\":4623:4656  recuperarFirmante(mensaje, firma) */\n      tag_213\n        /* \"NapTx.sol\":4641:4648  mensaje */\n      dup3\n        /* \"NapTx.sol\":4650:4655  firma */\n      dup7\n      dup7\n        /* \"NapTx.sol\":4623:4656  recuperarFirmante(mensaje, firma) */\n      dup1\n      dup1\n      0x1f\n      add\n      0x20\n      dup1\n      swap2\n      div\n      mul\n      0x20\n      add\n      mload(0x40)\n      swap1\n      dup2\n      add\n      0x40\n      mstore\n      dup1\n      swap4\n      swap3\n      swap2\n      swap1\n      dup2\n      dup2\n      mstore\n      0x20\n      add\n      dup4\n      dup4\n      dup1\n      dup3\n      dup5\n      calldatacopy\n      0x00\n      dup2\n      dup5\n      add\n      mstore\n      not(0x1f)\n      0x1f\n      dup3\n      add\n      and\n      swap1\n      pop\n      dup1\n      dup4\n      add\n      swap3\n      pop\n      pop\n      pop\n      pop\n      pop\n      pop\n      pop\n        /* \"NapTx.sol\":4623:4640  recuperarFirmante */\n      tag_133\n        /* \"NapTx.sol\":4623:4656  recuperarFirmante(mensaje, firma) */\n      jump\t// in\n    tag_213:\n        /* \"NapTx.sol\":4604:4656  address firmante = recuperarFirmante(mensaje, firma) */\n      swap1\n      pop\n        /* \"NapTx.sol\":4686:4692  emisor */\n      dup3\n        /* \"NapTx.sol\":4674:4692  firmante == emisor */\n      0xffffffffffffffffffffffffffffffffffffffff\n      and\n        /* \"NapTx.sol\":4674:4682  firmante */\n      dup2\n        /* \"NapTx.sol\":4674:4692  firmante == emisor */\n      0xffffffffffffffffffffffffffffffffffffffff\n      and\n      eq\n        /* \"NapTx.sol\":4666:4711  require(firmante == emisor, \"Firma invalida\") */\n      tag_214\n      jumpi\n      mload(0x40)\n      0x08c379a000000000000000000000000000000000000000000000000000000000\n      dup2\n      mstore\n      0x04\n      add\n      tag_215\n      swap1\n      tag_136\n      jump\t// in\n    tag_215:\n      mload(0x40)\n      dup1\n      swap2\n      sub\n      swap1\n      revert\n    tag_214:\n        /* \"NapTx.sol\":4722:4739  uint256 sumaTotal */\n      0x00\n        /* \"NapTx.sol\":4741:4742  0 */\n      0x00\n        /* \"NapTx.sol\":4722:4742  uint256 sumaTotal =0 */\n      swap1\n      pop\n        /* \"NapTx.sol\":4757:4763  uint i */\n      0x00\n        /* \"NapTx.sol\":4765:4766  0 */\n      0x00\n        /* \"NapTx.sol\":4757:4766  uint i =0 */\n      swap1\n      pop\n        /* \"NapTx.sol\":4752:4853  for (uint i =0; i < receptores.length; i++) ... */\n    tag_216:\n        /* \"NapTx.sol\":4772:4782  receptores */\n      dup12\n        /* \"NapTx.sol\":4772:4789  receptores.length */\n      mload\n        /* \"NapTx.sol\":4768:4769  i */\n      dup2\n        /* \"NapTx.sol\":4768:4789  i < receptores.length */\n      lt\n        /* \"NapTx.sol\":4752:4853  for (uint i =0; i < receptores.length; i++) ... */\n      iszero\n      tag_217\n      jumpi\n        /* \"NapTx.sol\":4832:4839  limites */\n      dup11\n      dup11\n        /* \"NapTx.sol\":4840:4841  i */\n      dup3\n        /* \"NapTx.sol\":4832:4842  limites[i] */\n      dup2\n      dup2\n      lt\n      tag_219\n      jumpi\n      tag_220\n      tag_221\n      jump\t// in\n    tag_220:\n    tag_219:\n      swap1\n      pop\n      0x20\n      mul\n      add\n      calldataload\n        /* \"NapTx.sol\":4819:4842  sumaTotal += limites[i] */\n      dup3\n      tag_222\n      swap2\n      swap1\n      tag_126\n      jump\t// in\n    tag_222:\n      swap2\n      pop\n        /* \"NapTx.sol\":4791:4794  i++ */\n      dup1\n      dup1\n      0x01\n      add\n      swap2\n      pop\n      pop\n        /* \"NapTx.sol\":4752:4853  for (uint i =0; i < receptores.length; i++) ... */\n      jump(tag_216)\n    tag_217:\n      pop\n        /* \"NapTx.sol\":4863:4886  uint256 allowanceActual */\n      0x00\n        /* \"NapTx.sol\":4889:4921  allowance(emisor, address(this)) */\n      tag_223\n        /* \"NapTx.sol\":4899:4905  emisor */\n      dup6\n        /* \"NapTx.sol\":4915:4919  this */\n      address\n        /* \"NapTx.sol\":4889:4898  allowance */\n      tag_95\n        /* \"NapTx.sol\":4889:4921  allowance(emisor, address(this)) */\n      jump\t// in\n    tag_223:\n        /* \"NapTx.sol\":4863:4921  uint256 allowanceActual = allowance(emisor, address(this)) */\n      swap1\n      pop\n        /* \"NapTx.sol\":4952:4967  allowanceActual */\n      dup1\n        /* \"NapTx.sol\":4939:4948  sumaTotal */\n      dup3\n        /* \"NapTx.sol\":4939:4967  sumaTotal <= allowanceActual */\n      gt\n      iszero\n        /* \"NapTx.sol\":4931:4988  require(sumaTotal <= allowanceActual, \"Suma > allowance\") */\n      tag_224\n      jumpi\n      mload(0x40)\n      0x08c379a000000000000000000000000000000000000000000000000000000000\n      dup2\n      mstore\n      0x04\n      add\n      tag_225\n      swap1\n      tag_226\n      jump\t// in\n    tag_225:\n      mload(0x40)\n      dup1\n      swap2\n      sub\n      swap1\n      revert\n    tag_224:\n        /* \"NapTx.sol\":5004:5010  uint i */\n      0x00\n        /* \"NapTx.sol\":5012:5013  0 */\n      0x00\n        /* \"NapTx.sol\":5004:5013  uint i =0 */\n      swap1\n      pop\n        /* \"NapTx.sol\":4999:5131  for (uint i =0; i < receptores.length; i++) ... */\n    tag_227:\n        /* \"NapTx.sol\":5019:5029  receptores */\n      dup13\n        /* \"NapTx.sol\":5019:5036  receptores.length */\n      mload\n        /* \"NapTx.sol\":5015:5016  i */\n      dup2\n        /* \"NapTx.sol\":5015:5036  i < receptores.length */\n      lt\n        /* \"NapTx.sol\":4999:5131  for (uint i =0; i < receptores.length; i++) ... */\n      iszero\n      tag_228\n      jumpi\n        /* \"NapTx.sol\":5110:5117  limites */\n      dup12\n      dup12\n        /* \"NapTx.sol\":5118:5119  i */\n      dup3\n        /* \"NapTx.sol\":5110:5120  limites[i] */\n      dup2\n      dup2\n      lt\n      tag_230\n      jumpi\n      tag_231\n      tag_221\n      jump\t// in\n    tag_231:\n    tag_230:\n      swap1\n      pop\n      0x20\n      mul\n      add\n      calldataload\n        /* \"NapTx.sol\":5066:5074  emisores */\n      0x05\n        /* \"NapTx.sol\":5066:5082  emisores[emisor] */\n      0x00\n        /* \"NapTx.sol\":5075:5081  emisor */\n      dup9\n        /* \"NapTx.sol\":5066:5082  emisores[emisor] */\n      0xffffffffffffffffffffffffffffffffffffffff\n      and\n      0xffffffffffffffffffffffffffffffffffffffff\n      and\n      dup2\n      mstore\n      0x20\n      add\n      swap1\n      dup2\n      mstore\n      0x20\n      add\n      0x00\n      keccak256\n        /* \"NapTx.sol\":5066:5092  emisores[emisor].whitelist */\n      0x02\n      add\n        /* \"NapTx.sol\":5066:5107  emisores[emisor].whitelist[receptores[i]] */\n      0x00\n        /* \"NapTx.sol\":5093:5103  receptores */\n      dup16\n        /* \"NapTx.sol\":5104:5105  i */\n      dup5\n        /* \"NapTx.sol\":5093:5106  receptores[i] */\n      dup2\n      mload\n      dup2\n      lt\n      tag_232\n      jumpi\n      tag_233\n      tag_221\n      jump\t// in\n    tag_233:\n    tag_232:\n      0x20\n      mul\n      0x20\n      add\n      add\n      mload\n        /* \"NapTx.sol\":5066:5107  emisores[emisor].whitelist[receptores[i]] */\n      0xffffffffffffffffffffffffffffffffffffffff\n      and\n      0xffffffffffffffffffffffffffffffffffffffff\n      and\n      dup2\n      mstore\n      0x20\n      add\n      swap1\n      dup2\n      mstore\n      0x20\n      add\n      0x00\n      keccak256\n        /* \"NapTx.sol\":5066:5120  emisores[emisor].whitelist[receptores[i]] = limites[i] */\n      dup2\n      swap1\n      sstore\n      pop\n        /* \"NapTx.sol\":5038:5041  i++ */\n      dup1\n      dup1\n      0x01\n      add\n      swap2\n      pop\n      pop\n        /* \"NapTx.sol\":4999:5131  for (uint i =0; i < receptores.length; i++) ... */\n      jump(tag_227)\n    tag_228:\n      pop\n        /* \"NapTx.sol\":5171:5175  true */\n      0x01\n        /* \"NapTx.sol\":5141:5153  noncesUsados */\n      0x07\n        /* \"NapTx.sol\":5141:5161  noncesUsados[emisor] */\n      0x00\n        /* \"NapTx.sol\":5154:5160  emisor */\n      dup8\n        /* \"NapTx.sol\":5141:5161  noncesUsados[emisor] */\n      0xffffffffffffffffffffffffffffffffffffffff\n      and\n      0xffffffffffffffffffffffffffffffffffffffff\n      and\n      dup2\n      mstore\n      0x20\n      add\n      swap1\n      dup2\n      mstore\n      0x20\n      add\n      0x00\n      keccak256\n        /* \"NapTx.sol\":5141:5168  noncesUsados[emisor][nonce] */\n      0x00\n        /* \"NapTx.sol\":5162:5167  nonce */\n      dup11\n        /* \"NapTx.sol\":5141:5168  noncesUsados[emisor][nonce] */\n      dup2\n      mstore\n      0x20\n      add\n      swap1\n      dup2\n      mstore\n      0x20\n      add\n      0x00\n      keccak256\n      0x00\n        /* \"NapTx.sol\":5141:5175  noncesUsados[emisor][nonce] = true */\n      0x0100\n      exp\n      dup2\n      sload\n      dup2\n      0xff\n      mul\n      not\n      and\n      swap1\n      dup4\n      iszero\n      iszero\n      mul\n      or\n      swap1\n      sstore\n      pop\n        /* \"NapTx.sol\":5212:5218  emisor */\n      dup5\n        /* \"NapTx.sol\":5191:5251  WhitelistConfigurada(emisor, receptores, limites, timestamp) */\n      0xffffffffffffffffffffffffffffffffffffffff\n      and\n      0x1350de0e499b0e4996f5ed7a5beb1c93ec8096be6d7375514726766b5dbd6bfc\n        /* \"NapTx.sol\":5220:5230  receptores */\n      dup14\n        /* \"NapTx.sol\":5232:5239  limites */\n      dup14\n      dup14\n        /* \"NapTx.sol\":5241:5250  timestamp */\n      dup14\n        /* \"NapTx.sol\":5191:5251  WhitelistConfigurada(emisor, receptores, limites, timestamp) */\n      mload(0x40)\n      tag_234\n      swap5\n      swap4\n      swap3\n      swap2\n      swap1\n      tag_235\n      jump\t// in\n    tag_234:\n      mload(0x40)\n      dup1\n      swap2\n      sub\n      swap1\n      log2\n        /* \"NapTx.sol\":4104:5258  {... */\n      pop\n      pop\n      pop\n      pop\n      pop\n        /* \"NapTx.sol\":3954:5258  function configurarWhitelist(address[] memory receptores, uint256[] calldata limites,uint256 timestamp, uint256 nonce, bytes calldata firma) external {... */\n      pop\n      pop\n      pop\n      pop\n      pop\n      pop\n      pop\n      jump\t// out\n        /* \"NapTx.sol\":956:998  mapping(address => Emisor) public emisores */\n    tag_86:\n      mstore(0x20, 0x05)\n      dup1\n      0x00\n      mstore\n      keccak256(0x00, 0x40)\n      0x00\n      swap2\n      pop\n      swap1\n      pop\n      dup1\n      0x00\n      add\n      0x00\n      swap1\n      sload\n      swap1\n      0x0100\n      exp\n      swap1\n      div\n      0xffffffffffffffffffffffffffffffffffffffff\n      and\n      swap1\n      dup1\n      0x01\n      add\n      sload\n      swap1\n      dup1\n      0x03\n      add\n      sload\n      swap1\n      dup1\n      0x04\n      add\n      0x00\n      swap1\n      sload\n      swap1\n      0x0100\n      exp\n      swap1\n      div\n      0xff\n      and\n      swap1\n      dup1\n      0x05\n      add\n      sload\n      swap1\n      pop\n      dup6\n      jump\t// out\n        /* \"NapTx.sol\":216:265  uint256 public constant TIMEOUT_PAGO = 10 minutes */\n    tag_90:\n        /* \"NapTx.sol\":255:265  10 minutes */\n      0x0258\n        /* \"NapTx.sol\":216:265  uint256 public constant TIMEOUT_PAGO = 10 minutes */\n      dup2\n      jump\t// out\n        /* \"https://github.com/OpenZeppelin/openzeppelin-contracts/blob/master/contracts/token/ERC20/ERC20.sol\":3455:3595  function allowance(address owner, address spender) public view virtual returns (uint256) {... */\n    tag_95:\n        /* \"https://github.com/OpenZeppelin/openzeppelin-contracts/blob/master/contracts/token/ERC20/ERC20.sol\":3535:3542  uint256 */\n      0x00\n        /* \"https://github.com/OpenZeppelin/openzeppelin-contracts/blob/master/contracts/token/ERC20/ERC20.sol\":3561:3572  _allowances */\n      0x01\n        /* \"https://github.com/OpenZeppelin/openzeppelin-contracts/blob/master/contracts/token/ERC20/ERC20.sol\":3561:3579  _allowances[owner] */\n      0x00\n        /* \"https://github.com/OpenZeppelin/openzeppelin-contracts/blob/master/contracts/token/ERC20/ERC20.sol\":3573:3578  owner */\n      dup5\n        /* \"https://github.com/OpenZeppelin/openzeppelin-contracts/blob/master/contracts/token/ERC20/ERC20.sol\":3561:3579  _allowances[owner] */\n      0xffffffffffffffffffffffffffffffffffffffff\n      and\n      0xffffffffffffffffffffffffffffffffffffffff\n      and\n      dup2\n      mstore\n      0x20\n      add\n      swap1\n      dup2\n      mstore\n      0x20\n      add\n      0x00\n      keccak256\n        /* \"https://github.com/OpenZeppelin/openzeppelin-contracts/blob/master/contracts/token/ERC20/ERC20.sol\":3561:3588  _allowances[owner][spender] */\n      0x00\n        /* \"https://github.com/OpenZeppelin/openzeppelin-contracts/blob/master/contracts/token/ERC20/ERC20.sol\":3580:3587  spender */\n      dup4\n        /* \"https://github.com/OpenZeppelin/openzeppelin-contracts/blob/master/contracts/token/ERC20/ERC20.sol\":3561:3588  _allowances[owner][spender] */\n      0xffffffffffffffffffffffffffffffffffffffff\n      and\n      0xffffffffffffffffffffffffffffffffffffffff\n      and\n      dup2\n      mstore\n      0x20\n      add\n      swap1\n      dup2\n      mstore\n      0x20\n      add\n      0x00\n      keccak256\n      sload\n        /* \"https://github.com/OpenZeppelin/openzeppelin-contracts/blob/master/contracts/token/ERC20/ERC20.sol\":3554:3588  return _allowances[owner][spender] */\n      swap1\n      pop\n        /* \"https://github.com/OpenZeppelin/openzeppelin-contracts/blob/master/contracts/token/ERC20/ERC20.sol\":3455:3595  function allowance(address owner, address spender) public view virtual returns (uint256) {... */\n      swap3\n      swap2\n      pop\n      pop\n      jump\t// out\n        /* \"NapTx.sol\":1004:1060  mapping(bytes32 => PagoPendiente) public pagosPendientes */\n    tag_99:\n      mstore(0x20, 0x06)\n      dup1\n      0x00\n      mstore\n      keccak256(0x00, 0x40)\n      0x00\n      swap2\n      pop\n      swap1\n      pop\n      dup1\n      0x00\n      add\n      sload\n      swap1\n      dup1\n      0x01\n      add\n      0x00\n      swap1\n      sload\n      swap1\n      0x0100\n      exp\n      swap1\n      div\n      0xffffffffffffffffffffffffffffffffffffffff\n      and\n      swap1\n      dup1\n      0x02\n      add\n      0x00\n      swap1\n      sload\n      swap1\n      0x0100\n      exp\n      swap1\n      div\n      0xffffffffffffffffffffffffffffffffffffffff\n      and\n      swap1\n      dup1\n      0x03\n      add\n      sload\n      swap1\n      dup1\n      0x04\n      add\n      sload\n      swap1\n      dup1\n      0x05\n      add\n      sload\n      swap1\n      dup1\n      0x06\n      add\n      sload\n      swap1\n      dup1\n      0x07\n      add\n      sload\n      swap1\n      dup1\n      0x08\n      add\n      sload\n      swap1\n      dup1\n      0x09\n      add\n      0x00\n      swap1\n      sload\n      swap1\n      0x0100\n      exp\n      swap1\n      div\n      0xff\n      and\n      swap1\n      dup1\n      0x0a\n      add\n      sload\n      swap1\n      pop\n      dup12\n      jump\t// out\n        /* \"NapTx.sol\":271:326  uint256 public constant TIMESTAMP_TOLERANCE = 5 minutes */\n    tag_103:\n        /* \"NapTx.sol\":317:326  5 minutes */\n      0x012c\n        /* \"NapTx.sol\":271:326  uint256 public constant TIMESTAMP_TOLERANCE = 5 minutes */\n      dup2\n      jump\t// out\n        /* \"https://github.com/OpenZeppelin/openzeppelin-contracts/blob/master/contracts/utils/Context.sol\":656:752  function _msgSender() internal view virtual returns (address) {... */\n    tag_114:\n        /* \"https://github.com/OpenZeppelin/openzeppelin-contracts/blob/master/contracts/utils/Context.sol\":709:716  address */\n      0x00\n        /* \"https://github.com/OpenZeppelin/openzeppelin-contracts/blob/master/contracts/utils/Context.sol\":735:745  msg.sender */\n      caller\n        /* \"https://github.com/OpenZeppelin/openzeppelin-contracts/blob/master/contracts/utils/Context.sol\":728:745  return msg.sender */\n      swap1\n      pop\n        /* \"https://github.com/OpenZeppelin/openzeppelin-contracts/blob/master/contracts/utils/Context.sol\":656:752  function _msgSender() internal view virtual returns (address) {... */\n      swap1\n      jump\t// out\n        /* \"https://github.com/OpenZeppelin/openzeppelin-contracts/blob/master/contracts/token/ERC20/ERC20.sol\":8630:8758  function _approve(address owner, address spender, uint256 value) internal {... */\n    tag_116:\n        /* \"https://github.com/OpenZeppelin/openzeppelin-contracts/blob/master/contracts/token/ERC20/ERC20.sol\":8714:8751  _approve(owner, spender, value, true) */\n      tag_239\n        /* \"https://github.com/OpenZeppelin/openzeppelin-contracts/blob/master/contracts/token/ERC20/ERC20.sol\":8723:8728  owner */\n      dup4\n        /* \"https://github.com/OpenZeppelin/openzeppelin-contracts/blob/master/contracts/token/ERC20/ERC20.sol\":8730:8737  spender */\n      dup4\n        /* \"https://github.com/OpenZeppelin/openzeppelin-contracts/blob/master/contracts/token/ERC20/ERC20.sol\":8739:8744  value */\n      dup4\n        /* \"https://github.com/OpenZeppelin/openzeppelin-contracts/blob/master/contracts/token/ERC20/ERC20.sol\":8746:8750  true */\n      0x01\n        /* \"https://github.com/OpenZeppelin/openzeppelin-contracts/blob/master/contracts/token/ERC20/ERC20.sol\":8714:8722  _approve */\n      tag_240\n        /* \"https://github.com/OpenZeppelin/openzeppelin-contracts/blob/master/contracts/token/ERC20/ERC20.sol\":8714:8751  _approve(owner, spender, value, true) */\n      jump\t// in\n    tag_239:\n        /* \"https://github.com/OpenZeppelin/openzeppelin-contracts/blob/master/contracts/token/ERC20/ERC20.sol\":8630:8758  function _approve(address owner, address spender, uint256 value) internal {... */\n      pop\n      pop\n      pop\n      jump\t// out\n        /* \"NapTx.sol\":2928:3948  function recuperarFirmante(bytes32 mensaje, bytes memory firma) internal pure returns (address)... */\n    tag_133:\n        /* \"NapTx.sol\":3015:3022  address */\n      0x00\n        /* \"NapTx.sol\":3062:3064  65 */\n      0x41\n        /* \"NapTx.sol\":3046:3051  firma */\n      dup3\n        /* \"NapTx.sol\":3046:3058  firma.length */\n      mload\n        /* \"NapTx.sol\":3046:3064  firma.length == 65 */\n      eq\n        /* \"NapTx.sol\":3038:3083  require(firma.length == 65, \"Firma invalida\") */\n      tag_242\n      jumpi\n      mload(0x40)\n      0x08c379a000000000000000000000000000000000000000000000000000000000\n      dup2\n      mstore\n      0x04\n      add\n      tag_243\n      swap1\n      tag_136\n      jump\t// in\n    tag_243:\n      mload(0x40)\n      dup1\n      swap2\n      sub\n      swap1\n      revert\n    tag_242:\n        /* \"NapTx.sol\":3094:3103  bytes32 r */\n      0x00\n        /* \"NapTx.sol\":3113:3122  bytes32 s */\n      0x00\n        /* \"NapTx.sol\":3132:3139  uint8 v */\n      0x00\n        /* \"NapTx.sol\":3194:3196  32 */\n      0x20\n        /* \"NapTx.sol\":3188:3193  firma */\n      dup6\n        /* \"NapTx.sol\":3184:3197  add(firma,32) */\n      add\n        /* \"NapTx.sol\":3178:3198  mload(add(firma,32)) */\n      mload\n        /* \"NapTx.sol\":3173:3198  r := mload(add(firma,32)) */\n      swap3\n      pop\n        /* \"NapTx.sol\":3312:3314  64 */\n      0x40\n        /* \"NapTx.sol\":3306:3311  firma */\n      dup6\n        /* \"NapTx.sol\":3302:3315  add(firma,64) */\n      add\n        /* \"NapTx.sol\":3296:3316  mload(add(firma,64)) */\n      mload\n        /* \"NapTx.sol\":3291:3316  s := mload(add(firma,64)) */\n      swap2\n      pop\n        /* \"NapTx.sol\":3395:3397  96 */\n      0x60\n        /* \"NapTx.sol\":3388:3393  firma */\n      dup6\n        /* \"NapTx.sol\":3384:3398  add(firma, 96) */\n      add\n        /* \"NapTx.sol\":3378:3399  mload(add(firma, 96)) */\n      mload\n        /* \"NapTx.sol\":3376:3377  0 */\n      0x00\n        /* \"NapTx.sol\":3371:3400  byte(0,mload(add(firma, 96))) */\n      byte\n        /* \"NapTx.sol\":3366:3400  v := byte(0,mload(add(firma, 96))) */\n      swap1\n      pop\n        /* \"NapTx.sol\":3764:3766  27 */\n      0x1b\n        /* \"NapTx.sol\":3760:3761  v */\n      dup2\n        /* \"NapTx.sol\":3760:3766  v < 27 */\n      0xff\n      and\n      lt\n        /* \"NapTx.sol\":3756:3800  if (v < 27) {... */\n      iszero\n      tag_244\n      jumpi\n        /* \"NapTx.sol\":3787:3789  27 */\n      0x1b\n        /* \"NapTx.sol\":3782:3789  v += 27 */\n      dup2\n      tag_245\n      swap2\n      swap1\n      tag_246\n      jump\t// in\n    tag_245:\n      swap1\n      pop\n        /* \"NapTx.sol\":3756:3800  if (v < 27) {... */\n    tag_244:\n        /* \"NapTx.sol\":3823:3825  27 */\n      0x1b\n        /* \"NapTx.sol\":3818:3819  v */\n      dup2\n        /* \"NapTx.sol\":3818:3825  v == 27 */\n      0xff\n      and\n      eq\n        /* \"NapTx.sol\":3818:3836  v == 27 || v == 28 */\n      dup1\n      tag_247\n      jumpi\n      pop\n        /* \"NapTx.sol\":3834:3836  28 */\n      0x1c\n        /* \"NapTx.sol\":3829:3830  v */\n      dup2\n        /* \"NapTx.sol\":3829:3836  v == 28 */\n      0xff\n      and\n      eq\n        /* \"NapTx.sol\":3818:3836  v == 27 || v == 28 */\n    tag_247:\n        /* \"NapTx.sol\":3810:3851  require(v == 27 || v == 28, \"v invalido\") */\n      tag_248\n      jumpi\n      mload(0x40)\n      0x08c379a000000000000000000000000000000000000000000000000000000000\n      dup2\n      mstore\n      0x04\n      add\n      tag_249\n      swap1\n      tag_250\n      jump\t// in\n    tag_249:\n      mload(0x40)\n      dup1\n      swap2\n      sub\n      swap1\n      revert\n    tag_248:\n        /* \"NapTx.sol\":3914:3941  ecrecover(mensaje, v, r, s) */\n      0x01\n        /* \"NapTx.sol\":3924:3931  mensaje */\n      dup7\n        /* \"NapTx.sol\":3933:3934  v */\n      dup3\n        /* \"NapTx.sol\":3936:3937  r */\n      dup6\n        /* \"NapTx.sol\":3939:3940  s */\n      dup6\n        /* \"NapTx.sol\":3914:3941  ecrecover(mensaje, v, r, s) */\n      mload(0x40)\n      0x00\n      dup2\n      mstore\n      0x20\n      add\n      0x40\n      mstore\n      mload(0x40)\n      tag_251\n      swap5\n      swap4\n      swap3\n      swap2\n      swap1\n      tag_252\n      jump\t// in\n    tag_251:\n      0x20\n      mload(0x40)\n      0x20\n      dup2\n      sub\n      swap1\n      dup1\n      dup5\n      sub\n      swap1\n      dup6\n      gas\n      staticcall\n      iszero\n      dup1\n      iszero\n      tag_254\n      jumpi\n      returndatacopy(0x00, 0x00, returndatasize)\n      revert(0x00, returndatasize)\n    tag_254:\n      pop\n      pop\n      pop\n      mload(sub(mload(0x40), 0x20))\n        /* \"NapTx.sol\":3907:3941  return ecrecover(mensaje, v, r, s) */\n      swap4\n      pop\n      pop\n      pop\n      pop\n        /* \"NapTx.sol\":2928:3948  function recuperarFirmante(bytes32 mensaje, bytes memory firma) internal pure returns (address)... */\n      swap3\n      swap2\n      pop\n      pop\n      jump\t// out\n        /* \"https://github.com/OpenZeppelin/openzeppelin-contracts/blob/master/contracts/token/ERC20/ERC20.sol\":10321:10797  function _spendAllowance(address owner, address spender, uint256 value) internal virtual {... */\n    tag_144:\n        /* \"https://github.com/OpenZeppelin/openzeppelin-contracts/blob/master/contracts/token/ERC20/ERC20.sol\":10420:10444  uint256 currentAllowance */\n      0x00\n        /* \"https://github.com/OpenZeppelin/openzeppelin-contracts/blob/master/contracts/token/ERC20/ERC20.sol\":10447:10472  allowance(owner, spender) */\n      tag_256\n        /* \"https://github.com/OpenZeppelin/openzeppelin-contracts/blob/master/contracts/token/ERC20/ERC20.sol\":10457:10462  owner */\n      dup5\n        /* \"https://github.com/OpenZeppelin/openzeppelin-contracts/blob/master/contracts/token/ERC20/ERC20.sol\":10464:10471  spender */\n      dup5\n        /* \"https://github.com/OpenZeppelin/openzeppelin-contracts/blob/master/contracts/token/ERC20/ERC20.sol\":10447:10456  allowance */\n      tag_95\n        /* \"https://github.com/OpenZeppelin/openzeppelin-contracts/blob/master/contracts/token/ERC20/ERC20.sol\":10447:10472  allowance(owner, spender) */\n      jump\t// in\n    tag_256:\n        /* \"https://github.com/OpenZeppelin/openzeppelin-contracts/blob/master/contracts/token/ERC20/ERC20.sol\":10420:10472  uint256 currentAllowance = allowance(owner, spender) */\n      swap1\n      pop\n        /* \"https://github.com/OpenZeppelin/openzeppelin-contracts/blob/master/contracts/token/ERC20/ERC20.sol\":10505:10522  type(uint256).max */\n      0xffffffffffffffffffffffffffffffffffffffffffffffffffffffffffffffff\n        /* \"https://github.com/OpenZeppelin/openzeppelin-contracts/blob/master/contracts/token/ERC20/ERC20.sol\":10486:10502  currentAllowance */\n      dup2\n        /* \"https://github.com/OpenZeppelin/openzeppelin-contracts/blob/master/contracts/token/ERC20/ERC20.sol\":10486:10522  currentAllowance < type(uint256).max */\n      lt\n        /* \"https://github.com/OpenZeppelin/openzeppelin-contracts/blob/master/contracts/token/ERC20/ERC20.sol\":10482:10791  if (currentAllowance < type(uint256).max) {... */\n      iszero\n      tag_257\n      jumpi\n        /* \"https://github.com/OpenZeppelin/openzeppelin-contracts/blob/master/contracts/token/ERC20/ERC20.sol\":10561:10566  value */\n      dup2\n        /* \"https://github.com/OpenZeppelin/openzeppelin-contracts/blob/master/contracts/token/ERC20/ERC20.sol\":10542:10558  currentAllowance */\n      dup2\n        /* \"https://github.com/OpenZeppelin/openzeppelin-contracts/blob/master/contracts/token/ERC20/ERC20.sol\":10542:10566  currentAllowance < value */\n      lt\n        /* \"https://github.com/OpenZeppelin/openzeppelin-contracts/blob/master/contracts/token/ERC20/ERC20.sol\":10538:10668  if (currentAllowance < value) {... */\n      iszero\n      tag_258\n      jumpi\n        /* \"https://github.com/OpenZeppelin/openzeppelin-contracts/blob/master/contracts/token/ERC20/ERC20.sol\":10620:10627  spender */\n      dup3\n        /* \"https://github.com/OpenZeppelin/openzeppelin-contracts/blob/master/contracts/token/ERC20/ERC20.sol\":10629:10645  currentAllowance */\n      dup2\n        /* \"https://github.com/OpenZeppelin/openzeppelin-contracts/blob/master/contracts/token/ERC20/ERC20.sol\":10647:10652  value */\n      dup4\n        /* \"https://github.com/OpenZeppelin/openzeppelin-contracts/blob/master/contracts/token/ERC20/ERC20.sol\":10593:10653  ERC20InsufficientAllowance(spender, currentAllowance, value) */\n      mload(0x40)\n      0xfb8f41b200000000000000000000000000000000000000000000000000000000\n      dup2\n      mstore\n      0x04\n      add\n      tag_259\n      swap4\n      swap3\n      swap2\n      swap1\n      tag_260\n      jump\t// in\n    tag_259:\n      mload(0x40)\n      dup1\n      swap2\n      sub\n      swap1\n      revert\n        /* \"https://github.com/OpenZeppelin/openzeppelin-contracts/blob/master/contracts/token/ERC20/ERC20.sol\":10538:10668  if (currentAllowance < value) {... */\n    tag_258:\n        /* \"https://github.com/OpenZeppelin/openzeppelin-contracts/blob/master/contracts/token/ERC20/ERC20.sol\":10709:10766  _approve(owner, spender, currentAllowance - value, false) */\n      tag_261\n        /* \"https://github.com/OpenZeppelin/openzeppelin-contracts/blob/master/contracts/token/ERC20/ERC20.sol\":10718:10723  owner */\n      dup5\n        /* \"https://github.com/OpenZeppelin/openzeppelin-contracts/blob/master/contracts/token/ERC20/ERC20.sol\":10725:10732  spender */\n      dup5\n        /* \"https://github.com/OpenZeppelin/openzeppelin-contracts/blob/master/contracts/token/ERC20/ERC20.sol\":10753:10758  value */\n      dup5\n        /* \"https://github.com/OpenZeppelin/openzeppelin-contracts/blob/master/contracts/token/ERC20/ERC20.sol\":10734:10750  currentAllowance */\n      dup5\n        /* \"https://github.com/OpenZeppelin/openzeppelin-contracts/blob/master/contracts/token/ERC20/ERC20.sol\":10734:10758  currentAllowance - value */\n      sub\n        /* \"https://github.com/OpenZeppelin/openzeppelin-contracts/blob/master/contracts/token/ERC20/ERC20.sol\":10760:10765  false */\n      0x00\n        /* \"https://github.com/OpenZeppelin/openzeppelin-contracts/blob/master/contracts/token/ERC20/ERC20.sol\":10709:10717  _approve */\n      tag_240\n        /* \"https://github.com/OpenZeppelin/openzeppelin-contracts/blob/master/contracts/token/ERC20/ERC20.sol\":10709:10766  _approve(owner, spender, currentAllowance - value, false) */\n      jump\t// in\n    tag_261:\n        /* \"https://github.com/OpenZeppelin/openzeppelin-contracts/blob/master/contracts/token/ERC20/ERC20.sol\":10482:10791  if (currentAllowance < type(uint256).max) {... */\n    tag_257:\n        /* \"https://github.com/OpenZeppelin/openzeppelin-contracts/blob/master/contracts/token/ERC20/ERC20.sol\":10410:10797  {... */\n      pop\n        /* \"https://github.com/OpenZeppelin/openzeppelin-contracts/blob/master/contracts/token/ERC20/ERC20.sol\":10321:10797  function _spendAllowance(address owner, address spender, uint256 value) internal virtual {... */\n      pop\n      pop\n      pop\n      jump\t// out\n        /* \"https://github.com/OpenZeppelin/openzeppelin-contracts/blob/master/contracts/token/ERC20/ERC20.sol\":5297:5597  function _transfer(address from, address to, uint256 value) internal {... */\n    tag_146:\n        /* \"https://github.com/OpenZeppelin/openzeppelin-contracts/blob/master/contracts/token/ERC20/ERC20.sol\":5396:5397  0 */\n      0x00\n        /* \"https://github.com/OpenZeppelin/openzeppelin-contracts/blob/master/contracts/token/ERC20/ERC20.sol\":5380:5398  from == address(0) */\n      0xffffffffffffffffffffffffffffffffffffffff\n      and\n        /* \"https://github.com/OpenZeppelin/openzeppelin-contracts/blob/master/contracts/token/ERC20/ERC20.sol\":5380:5384  from */\n      dup4\n        /* \"https://github.com/OpenZeppelin/openzeppelin-contracts/blob/master/contracts/token/ERC20/ERC20.sol\":5380:5398  from == address(0) */\n      0xffffffffffffffffffffffffffffffffffffffff\n      and\n      sub\n        /* \"https://github.com/OpenZeppelin/openzeppelin-contracts/blob/master/contracts/token/ERC20/ERC20.sol\":5376:5462  if (from == address(0)) {... */\n      tag_263\n      jumpi\n        /* \"https://github.com/OpenZeppelin/openzeppelin-contracts/blob/master/contracts/token/ERC20/ERC20.sol\":5448:5449  0 */\n      0x00\n        /* \"https://github.com/OpenZeppelin/openzeppelin-contracts/blob/master/contracts/token/ERC20/ERC20.sol\":5421:5451  ERC20InvalidSender(address(0)) */\n      mload(0x40)\n      0x96c6fd1e00000000000000000000000000000000000000000000000000000000\n      dup2\n      mstore\n      0x04\n      add\n      tag_264\n      swap2\n      swap1\n      tag_265\n      jump\t// in\n    tag_264:\n      mload(0x40)\n      dup1\n      swap2\n      sub\n      swap1\n      revert\n        /* \"https://github.com/OpenZeppelin/openzeppelin-contracts/blob/master/contracts/token/ERC20/ERC20.sol\":5376:5462  if (from == address(0)) {... */\n    tag_263:\n        /* \"https://github.com/OpenZeppelin/openzeppelin-contracts/blob/master/contracts/token/ERC20/ERC20.sol\":5489:5490  0 */\n      0x00\n        /* \"https://github.com/OpenZeppelin/openzeppelin-contracts/blob/master/contracts/token/ERC20/ERC20.sol\":5475:5491  to == address(0) */\n      0xffffffffffffffffffffffffffffffffffffffff\n      and\n        /* \"https://github.com/OpenZeppelin/openzeppelin-contracts/blob/master/contracts/token/ERC20/ERC20.sol\":5475:5477  to */\n      dup3\n        /* \"https://github.com/OpenZeppelin/openzeppelin-contracts/blob/master/contracts/token/ERC20/ERC20.sol\":5475:5491  to == address(0) */\n      0xffffffffffffffffffffffffffffffffffffffff\n      and\n      sub\n        /* \"https://github.com/OpenZeppelin/openzeppelin-contracts/blob/master/contracts/token/ERC20/ERC20.sol\":5471:5557  if (to == address(0)) {... */\n      tag_266\n      jumpi\n        /* \"https://github.com/OpenZeppelin/openzeppelin-contracts/blob/master/contracts/token/ERC20/ERC20.sol\":5543:5544  0 */\n      0x00\n        /* \"https://github.com/OpenZeppelin/openzeppelin-contracts/blob/master/contracts/token/ERC20/ERC20.sol\":5514:5546  ERC20InvalidReceiver(address(0)) */\n      mload(0x40)\n      0xec442f0500000000000000000000000000000000000000000000000000000000\n      dup2\n      mstore\n      0x04\n      add\n      tag_267\n      swap2\n      swap1\n      tag_265\n      jump\t// in\n    tag_267:\n      mload(0x40)\n      dup1\n      swap2\n      sub\n      swap1\n      revert\n        /* \"https://github.com/OpenZeppelin/openzeppelin-contracts/blob/master/contracts/token/ERC20/ERC20.sol\":5471:5557  if (to == address(0)) {... */\n    tag_266:\n        /* \"https://github.com/OpenZeppelin/openzeppelin-contracts/blob/master/contracts/token/ERC20/ERC20.sol\":5566:5590  _update(from, to, value) */\n      tag_268\n        /* \"https://github.com/OpenZeppelin/openzeppelin-contracts/blob/master/contracts/token/ERC20/ERC20.sol\":5574:5578  from */\n      dup4\n        /* \"https://github.com/OpenZeppelin/openzeppelin-contracts/blob/master/contracts/token/ERC20/ERC20.sol\":5580:5582  to */\n      dup4\n        /* \"https://github.com/OpenZeppelin/openzeppelin-contracts/blob/master/contracts/token/ERC20/ERC20.sol\":5584:5589  value */\n      dup4\n        /* \"https://github.com/OpenZeppelin/openzeppelin-contracts/blob/master/contracts/token/ERC20/ERC20.sol\":5566:5573  _update */\n      tag_269\n        /* \"https://github.com/OpenZeppelin/openzeppelin-contracts/blob/master/contracts/token/ERC20/ERC20.sol\":5566:5590  _update(from, to, value) */\n      jump\t// in\n    tag_268:\n        /* \"https://github.com/OpenZeppelin/openzeppelin-contracts/blob/master/contracts/token/ERC20/ERC20.sol\":5297:5597  function _transfer(address from, address to, uint256 value) internal {... */\n      pop\n      pop\n      pop\n      jump\t// out\n        /* \"https://github.com/OpenZeppelin/openzeppelin-contracts/blob/master/contracts/token/ERC20/ERC20.sol\":9607:10039  function _approve(address owner, address spender, uint256 value, bool emitEvent) internal virtual {... */\n    tag_240:\n        /* \"https://github.com/OpenZeppelin/openzeppelin-contracts/blob/master/contracts/token/ERC20/ERC20.sol\":9736:9737  0 */\n      0x00\n        /* \"https://github.com/OpenZeppelin/openzeppelin-contracts/blob/master/contracts/token/ERC20/ERC20.sol\":9719:9738  owner == address(0) */\n      0xffffffffffffffffffffffffffffffffffffffff\n      and\n        /* \"https://github.com/OpenZeppelin/openzeppelin-contracts/blob/master/contracts/token/ERC20/ERC20.sol\":9719:9724  owner */\n      dup5\n        /* \"https://github.com/OpenZeppelin/openzeppelin-contracts/blob/master/contracts/token/ERC20/ERC20.sol\":9719:9738  owner == address(0) */\n      0xffffffffffffffffffffffffffffffffffffffff\n      and\n      sub\n        /* \"https://github.com/OpenZeppelin/openzeppelin-contracts/blob/master/contracts/token/ERC20/ERC20.sol\":9715:9804  if (owner == address(0)) {... */\n      tag_271\n      jumpi\n        /* \"https://github.com/OpenZeppelin/openzeppelin-contracts/blob/master/contracts/token/ERC20/ERC20.sol\":9790:9791  0 */\n      0x00\n        /* \"https://github.com/OpenZeppelin/openzeppelin-contracts/blob/master/contracts/token/ERC20/ERC20.sol\":9761:9793  ERC20InvalidApprover(address(0)) */\n      mload(0x40)\n      0xe602df0500000000000000000000000000000000000000000000000000000000\n      dup2\n      mstore\n      0x04\n      add\n      tag_272\n      swap2\n      swap1\n      tag_265\n      jump\t// in\n    tag_272:\n      mload(0x40)\n      dup1\n      swap2\n      sub\n      swap1\n      revert\n        /* \"https://github.com/OpenZeppelin/openzeppelin-contracts/blob/master/contracts/token/ERC20/ERC20.sol\":9715:9804  if (owner == address(0)) {... */\n    tag_271:\n        /* \"https://github.com/OpenZeppelin/openzeppelin-contracts/blob/master/contracts/token/ERC20/ERC20.sol\":9836:9837  0 */\n      0x00\n        /* \"https://github.com/OpenZeppelin/openzeppelin-contracts/blob/master/contracts/token/ERC20/ERC20.sol\":9817:9838  spender == address(0) */\n      0xffffffffffffffffffffffffffffffffffffffff\n      and\n        /* \"https://github.com/OpenZeppelin/openzeppelin-contracts/blob/master/contracts/token/ERC20/ERC20.sol\":9817:9824  spender */\n      dup4\n        /* \"https://github.com/OpenZeppelin/openzeppelin-contracts/blob/master/contracts/token/ERC20/ERC20.sol\":9817:9838  spender == address(0) */\n      0xffffffffffffffffffffffffffffffffffffffff\n      and\n      sub\n        /* \"https://github.com/OpenZeppelin/openzeppelin-contracts/blob/master/contracts/token/ERC20/ERC20.sol\":9813:9903  if (spender == address(0)) {... */\n      tag_273\n      jumpi\n        /* \"https://github.com/OpenZeppelin/openzeppelin-contracts/blob/master/contracts/token/ERC20/ERC20.sol\":9889:9890  0 */\n      0x00\n        /* \"https://github.com/OpenZeppelin/openzeppelin-contracts/blob/master/contracts/token/ERC20/ERC20.sol\":9861:9892  ERC20InvalidSpender(address(0)) */\n      mload(0x40)\n      0x94280d6200000000000000000000000000000000000000000000000000000000\n      dup2\n      mstore\n      0x04\n      add\n      tag_274\n      swap2\n      swap1\n      tag_265\n      jump\t// in\n    tag_274:\n      mload(0x40)\n      dup1\n      swap2\n      sub\n      swap1\n      revert\n        /* \"https://github.com/OpenZeppelin/openzeppelin-contracts/blob/master/contracts/token/ERC20/ERC20.sol\":9813:9903  if (spender == address(0)) {... */\n    tag_273:\n        /* \"https://github.com/OpenZeppelin/openzeppelin-contracts/blob/master/contracts/token/ERC20/ERC20.sol\":9942:9947  value */\n      dup2\n        /* \"https://github.com/OpenZeppelin/openzeppelin-contracts/blob/master/contracts/token/ERC20/ERC20.sol\":9912:9923  _allowances */\n      0x01\n        /* \"https://github.com/OpenZeppelin/openzeppelin-contracts/blob/master/contracts/token/ERC20/ERC20.sol\":9912:9930  _allowances[owner] */\n      0x00\n        /* \"https://github.com/OpenZeppelin/openzeppelin-contracts/blob/master/contracts/token/ERC20/ERC20.sol\":9924:9929  owner */\n      dup7\n        /* \"https://github.com/OpenZeppelin/openzeppelin-contracts/blob/master/contracts/token/ERC20/ERC20.sol\":9912:9930  _allowances[owner] */\n      0xffffffffffffffffffffffffffffffffffffffff\n      and\n      0xffffffffffffffffffffffffffffffffffffffff\n      and\n      dup2\n      mstore\n      0x20\n      add\n      swap1\n      dup2\n      mstore\n      0x20\n      add\n      0x00\n      keccak256\n        /* \"https://github.com/OpenZeppelin/openzeppelin-contracts/blob/master/contracts/token/ERC20/ERC20.sol\":9912:9939  _allowances[owner][spender] */\n      0x00\n        /* \"https://github.com/OpenZeppelin/openzeppelin-contracts/blob/master/contracts/token/ERC20/ERC20.sol\":9931:9938  spender */\n      dup6\n        /* \"https://github.com/OpenZeppelin/openzeppelin-contracts/blob/master/contracts/token/ERC20/ERC20.sol\":9912:9939  _allowances[owner][spender] */\n      0xffffffffffffffffffffffffffffffffffffffff\n      and\n      0xffffffffffffffffffffffffffffffffffffffff\n      and\n      dup2\n      mstore\n      0x20\n      add\n      swap1\n      dup2\n      mstore\n      0x20\n      add\n      0x00\n      keccak256\n        /* \"https://github.com/OpenZeppelin/openzeppelin-contracts/blob/master/contracts/token/ERC20/ERC20.sol\":9912:9947  _allowances[owner][spender] = value */\n      dup2\n      swap1\n      sstore\n      pop\n        /* \"https://github.com/OpenZeppelin/openzeppelin-contracts/blob/master/contracts/token/ERC20/ERC20.sol\":9961:9970  emitEvent */\n      dup1\n        /* \"https://github.com/OpenZeppelin/openzeppelin-contracts/blob/master/contracts/token/ERC20/ERC20.sol\":9957:10033  if (emitEvent) {... */\n      iszero\n      tag_275\n      jumpi\n        /* \"https://github.com/OpenZeppelin/openzeppelin-contracts/blob/master/contracts/token/ERC20/ERC20.sol\":10007:10014  spender */\n      dup3\n        /* \"https://github.com/OpenZeppelin/openzeppelin-contracts/blob/master/contracts/token/ERC20/ERC20.sol\":9991:10022  Approval(owner, spender, value) */\n      0xffffffffffffffffffffffffffffffffffffffff\n      and\n        /* \"https://github.com/OpenZeppelin/openzeppelin-contracts/blob/master/contracts/token/ERC20/ERC20.sol\":10000:10005  owner */\n      dup5\n        /* \"https://github.com/OpenZeppelin/openzeppelin-contracts/blob/master/contracts/token/ERC20/ERC20.sol\":9991:10022  Approval(owner, spender, value) */\n      0xffffffffffffffffffffffffffffffffffffffff\n      and\n      0x8c5be1e5ebec7d5bd14f71427d1e84f3dd0314c0f7b2291e5b200ac8c7c3b925\n        /* \"https://github.com/OpenZeppelin/openzeppelin-contracts/blob/master/contracts/token/ERC20/ERC20.sol\":10016:10021  value */\n      dup5\n        /* \"https://github.com/OpenZeppelin/openzeppelin-contracts/blob/master/contracts/token/ERC20/ERC20.sol\":9991:10022  Approval(owner, spender, value) */\n      mload(0x40)\n      tag_276\n      swap2\n      swap1\n      tag_37\n      jump\t// in\n    tag_276:\n      mload(0x40)\n      dup1\n      swap2\n      sub\n      swap1\n      log3\n        /* \"https://github.com/OpenZeppelin/openzeppelin-contracts/blob/master/contracts/token/ERC20/ERC20.sol\":9957:10033  if (emitEvent) {... */\n    tag_275:\n        /* \"https://github.com/OpenZeppelin/openzeppelin-contracts/blob/master/contracts/token/ERC20/ERC20.sol\":9607:10039  function _approve(address owner, address spender, uint256 value, bool emitEvent) internal virtual {... */\n      pop\n      pop\n      pop\n      pop\n      jump\t// out\n        /* \"https://github.com/OpenZeppelin/openzeppelin-contracts/blob/master/contracts/token/ERC20/ERC20.sol\":5912:7019  function _update(address from, address to, uint256 value) internal virtual {... */\n    tag_269:\n        /* \"https://github.com/OpenZeppelin/openzeppelin-contracts/blob/master/contracts/token/ERC20/ERC20.sol\":6017:6018  0 */\n      0x00\n        /* \"https://github.com/OpenZeppelin/openzeppelin-contracts/blob/master/contracts/token/ERC20/ERC20.sol\":6001:6019  from == address(0) */\n      0xffffffffffffffffffffffffffffffffffffffff\n      and\n        /* \"https://github.com/OpenZeppelin/openzeppelin-contracts/blob/master/contracts/token/ERC20/ERC20.sol\":6001:6005  from */\n      dup4\n        /* \"https://github.com/OpenZeppelin/openzeppelin-contracts/blob/master/contracts/token/ERC20/ERC20.sol\":6001:6019  from == address(0) */\n      0xffffffffffffffffffffffffffffffffffffffff\n      and\n      sub\n        /* \"https://github.com/OpenZeppelin/openzeppelin-contracts/blob/master/contracts/token/ERC20/ERC20.sol\":5997:6537  if (from == address(0)) {... */\n      tag_278\n      jumpi\n        /* \"https://github.com/OpenZeppelin/openzeppelin-contracts/blob/master/contracts/token/ERC20/ERC20.sol\":6153:6158  value */\n      dup1\n        /* \"https://github.com/OpenZeppelin/openzeppelin-contracts/blob/master/contracts/token/ERC20/ERC20.sol\":6137:6149  _totalSupply */\n      0x02\n      0x00\n        /* \"https://github.com/OpenZeppelin/openzeppelin-contracts/blob/master/contracts/token/ERC20/ERC20.sol\":6137:6158  _totalSupply += value */\n      dup3\n      dup3\n      sload\n      tag_279\n      swap2\n      swap1\n      tag_126\n      jump\t// in\n    tag_279:\n      swap3\n      pop\n      pop\n      dup2\n      swap1\n      sstore\n      pop\n        /* \"https://github.com/OpenZeppelin/openzeppelin-contracts/blob/master/contracts/token/ERC20/ERC20.sol\":5997:6537  if (from == address(0)) {... */\n      jump(tag_280)\n    tag_278:\n        /* \"https://github.com/OpenZeppelin/openzeppelin-contracts/blob/master/contracts/token/ERC20/ERC20.sol\":6189:6208  uint256 fromBalance */\n      0x00\n        /* \"https://github.com/OpenZeppelin/openzeppelin-contracts/blob/master/contracts/token/ERC20/ERC20.sol\":6211:6220  _balances */\n      0x00\n        /* \"https://github.com/OpenZeppelin/openzeppelin-contracts/blob/master/contracts/token/ERC20/ERC20.sol\":6211:6226  _balances[from] */\n      0x00\n        /* \"https://github.com/OpenZeppelin/openzeppelin-contracts/blob/master/contracts/token/ERC20/ERC20.sol\":6221:6225  from */\n      dup6\n        /* \"https://github.com/OpenZeppelin/openzeppelin-contracts/blob/master/contracts/token/ERC20/ERC20.sol\":6211:6226  _balances[from] */\n      0xffffffffffffffffffffffffffffffffffffffff\n      and\n      0xffffffffffffffffffffffffffffffffffffffff\n      and\n      dup2\n      mstore\n      0x20\n      add\n      swap1\n      dup2\n      mstore\n      0x20\n      add\n      0x00\n      keccak256\n      sload\n        /* \"https://github.com/OpenZeppelin/openzeppelin-contracts/blob/master/contracts/token/ERC20/ERC20.sol\":6189:6226  uint256 fromBalance = _balances[from] */\n      swap1\n      pop\n        /* \"https://github.com/OpenZeppelin/openzeppelin-contracts/blob/master/contracts/token/ERC20/ERC20.sol\":6258:6263  value */\n      dup2\n        /* \"https://github.com/OpenZeppelin/openzeppelin-contracts/blob/master/contracts/token/ERC20/ERC20.sol\":6244:6255  fromBalance */\n      dup2\n        /* \"https://github.com/OpenZeppelin/openzeppelin-contracts/blob/master/contracts/token/ERC20/ERC20.sol\":6244:6263  fromBalance < value */\n      lt\n        /* \"https://github.com/OpenZeppelin/openzeppelin-contracts/blob/master/contracts/token/ERC20/ERC20.sol\":6240:6355  if (fromBalance < value) {... */\n      iszero\n      tag_281\n      jumpi\n        /* \"https://github.com/OpenZeppelin/openzeppelin-contracts/blob/master/contracts/token/ERC20/ERC20.sol\":6315:6319  from */\n      dup4\n        /* \"https://github.com/OpenZeppelin/openzeppelin-contracts/blob/master/contracts/token/ERC20/ERC20.sol\":6321:6332  fromBalance */\n      dup2\n        /* \"https://github.com/OpenZeppelin/openzeppelin-contracts/blob/master/contracts/token/ERC20/ERC20.sol\":6334:6339  value */\n      dup4\n        /* \"https://github.com/OpenZeppelin/openzeppelin-contracts/blob/master/contracts/token/ERC20/ERC20.sol\":6290:6340  ERC20InsufficientBalance(from, fromBalance, value) */\n      mload(0x40)\n      0xe450d38c00000000000000000000000000000000000000000000000000000000\n      dup2\n      mstore\n      0x04\n      add\n      tag_282\n      swap4\n      swap3\n      swap2\n      swap1\n      tag_260\n      jump\t// in\n    tag_282:\n      mload(0x40)\n      dup1\n      swap2\n      sub\n      swap1\n      revert\n        /* \"https://github.com/OpenZeppelin/openzeppelin-contracts/blob/master/contracts/token/ERC20/ERC20.sol\":6240:6355  if (fromBalance < value) {... */\n    tag_281:\n        /* \"https://github.com/OpenZeppelin/openzeppelin-contracts/blob/master/contracts/token/ERC20/ERC20.sol\":6507:6512  value */\n      dup2\n        /* \"https://github.com/OpenZeppelin/openzeppelin-contracts/blob/master/contracts/token/ERC20/ERC20.sol\":6493:6504  fromBalance */\n      dup2\n        /* \"https://github.com/OpenZeppelin/openzeppelin-contracts/blob/master/contracts/token/ERC20/ERC20.sol\":6493:6512  fromBalance - value */\n      sub\n        /* \"https://github.com/OpenZeppelin/openzeppelin-contracts/blob/master/contracts/token/ERC20/ERC20.sol\":6475:6484  _balances */\n      0x00\n        /* \"https://github.com/OpenZeppelin/openzeppelin-contracts/blob/master/contracts/token/ERC20/ERC20.sol\":6475:6490  _balances[from] */\n      0x00\n        /* \"https://github.com/OpenZeppelin/openzeppelin-contracts/blob/master/contracts/token/ERC20/ERC20.sol\":6485:6489  from */\n      dup7\n        /* \"https://github.com/OpenZeppelin/openzeppelin-contracts/blob/master/contracts/token/ERC20/ERC20.sol\":6475:6490  _balances[from] */\n      0xffffffffffffffffffffffffffffffffffffffff\n      and\n      0xffffffffffffffffffffffffffffffffffffffff\n      and\n      dup2\n      mstore\n      0x20\n      add\n      swap1\n      dup2\n      mstore\n      0x20\n      add\n      0x00\n      keccak256\n        /* \"https://github.com/OpenZeppelin/openzeppelin-contracts/blob/master/contracts/token/ERC20/ERC20.sol\":6475:6512  _balances[from] = fromBalance - value */\n      dup2\n      swap1\n      sstore\n      pop\n        /* \"https://github.com/OpenZeppelin/openzeppelin-contracts/blob/master/contracts/token/ERC20/ERC20.sol\":6175:6537  {... */\n      pop\n        /* \"https://github.com/OpenZeppelin/openzeppelin-contracts/blob/master/contracts/token/ERC20/ERC20.sol\":5997:6537  if (from == address(0)) {... */\n    tag_280:\n        /* \"https://github.com/OpenZeppelin/openzeppelin-contracts/blob/master/contracts/token/ERC20/ERC20.sol\":6565:6566  0 */\n      0x00\n        /* \"https://github.com/OpenZeppelin/openzeppelin-contracts/blob/master/contracts/token/ERC20/ERC20.sol\":6551:6567  to == address(0) */\n      0xffffffffffffffffffffffffffffffffffffffff\n      and\n        /* \"https://github.com/OpenZeppelin/openzeppelin-contracts/blob/master/contracts/token/ERC20/ERC20.sol\":6551:6553  to */\n      dup3\n        /* \"https://github.com/OpenZeppelin/openzeppelin-contracts/blob/master/contracts/token/ERC20/ERC20.sol\":6551:6567  to == address(0) */\n      0xffffffffffffffffffffffffffffffffffffffff\n      and\n      sub\n        /* \"https://github.com/OpenZeppelin/openzeppelin-contracts/blob/master/contracts/token/ERC20/ERC20.sol\":6547:6972  if (to == address(0)) {... */\n      tag_283\n      jumpi\n        /* \"https://github.com/OpenZeppelin/openzeppelin-contracts/blob/master/contracts/token/ERC20/ERC20.sol\":6730:6735  value */\n      dup1\n        /* \"https://github.com/OpenZeppelin/openzeppelin-contracts/blob/master/contracts/token/ERC20/ERC20.sol\":6714:6726  _totalSupply */\n      0x02\n      0x00\n        /* \"https://github.com/OpenZeppelin/openzeppelin-contracts/blob/master/contracts/token/ERC20/ERC20.sol\":6714:6735  _totalSupply -= value */\n      dup3\n      dup3\n      sload\n      sub\n      swap3\n      pop\n      pop\n      dup2\n      swap1\n      sstore\n      pop\n        /* \"https://github.com/OpenZeppelin/openzeppelin-contracts/blob/master/contracts/token/ERC20/ERC20.sol\":6547:6972  if (to == address(0)) {... */\n      jump(tag_284)\n    tag_283:\n        /* \"https://github.com/OpenZeppelin/openzeppelin-contracts/blob/master/contracts/token/ERC20/ERC20.sol\":6942:6947  value */\n      dup1\n        /* \"https://github.com/OpenZeppelin/openzeppelin-contracts/blob/master/contracts/token/ERC20/ERC20.sol\":6925:6934  _balances */\n      0x00\n        /* \"https://github.com/OpenZeppelin/openzeppelin-contracts/blob/master/contracts/token/ERC20/ERC20.sol\":6925:6938  _balances[to] */\n      0x00\n        /* \"https://github.com/OpenZeppelin/openzeppelin-contracts/blob/master/contracts/token/ERC20/ERC20.sol\":6935:6937  to */\n      dup5\n        /* \"https://github.com/OpenZeppelin/openzeppelin-contracts/blob/master/contracts/token/ERC20/ERC20.sol\":6925:6938  _balances[to] */\n      0xffffffffffffffffffffffffffffffffffffffff\n      and\n      0xffffffffffffffffffffffffffffffffffffffff\n      and\n      dup2\n      mstore\n      0x20\n      add\n      swap1\n      dup2\n      mstore\n      0x20\n      add\n      0x00\n      keccak256\n      0x00\n        /* \"https://github.com/OpenZeppelin/openzeppelin-contracts/blob/master/contracts/token/ERC20/ERC20.sol\":6925:6947  _balances[to] += value */\n      dup3\n      dup3\n      sload\n      add\n      swap3\n      pop\n      pop\n      dup2\n      swap1\n      sstore\n      pop\n        /* \"https://github.com/OpenZeppelin/openzeppelin-contracts/blob/master/contracts/token/ERC20/ERC20.sol\":6547:6972  if (to == address(0)) {... */\n    tag_284:\n        /* \"https://github.com/OpenZeppelin/openzeppelin-contracts/blob/master/contracts/token/ERC20/ERC20.sol\":7002:7004  to */\n      dup2\n        /* \"https://github.com/OpenZeppelin/openzeppelin-contracts/blob/master/contracts/token/ERC20/ERC20.sol\":6987:7012  Transfer(from, to, value) */\n      0xffffffffffffffffffffffffffffffffffffffff\n      and\n        /* \"https://github.com/OpenZeppelin/openzeppelin-contracts/blob/master/contracts/token/ERC20/ERC20.sol\":6996:7000  from */\n      dup4\n        /* \"https://github.com/OpenZeppelin/openzeppelin-contracts/blob/master/contracts/token/ERC20/ERC20.sol\":6987:7012  Transfer(from, to, value) */\n      0xffffffffffffffffffffffffffffffffffffffff\n      and\n      0xddf252ad1be2c89b69c2b068fc378daa952ba7f163c4a11628f55a4df523b3ef\n        /* \"https://github.com/OpenZeppelin/openzeppelin-contracts/blob/master/contracts/token/ERC20/ERC20.sol\":7006:7011  value */\n      dup4\n        /* \"https://github.com/OpenZeppelin/openzeppelin-contracts/blob/master/contracts/token/ERC20/ERC20.sol\":6987:7012  Transfer(from, to, value) */\n      mload(0x40)\n      tag_285\n      swap2\n      swap1\n      tag_37\n      jump\t// in\n    tag_285:\n      mload(0x40)\n      dup1\n      swap2\n      sub\n      swap1\n      log3\n        /* \"https://github.com/OpenZeppelin/openzeppelin-contracts/blob/master/contracts/token/ERC20/ERC20.sol\":5912:7019  function _update(address from, address to, uint256 value) internal virtual {... */\n      pop\n      pop\n      pop\n      jump\t// out\n        /* \"#utility.yul\":7:106   */\n    tag_286:\n        /* \"#utility.yul\":59:65   */\n      0x00\n        /* \"#utility.yul\":93:98   */\n      dup2\n        /* \"#utility.yul\":87:99   */\n      mload\n        /* \"#utility.yul\":77:99   */\n      swap1\n      pop\n        /* \"#utility.yul\":7:106   */\n      swap2\n      swap1\n      pop\n      jump\t// out\n        /* \"#utility.yul\":112:281   */\n    tag_287:\n        /* \"#utility.yul\":196:207   */\n      0x00\n        /* \"#utility.yul\":230:236   */\n      dup3\n        /* \"#utility.yul\":225:228   */\n      dup3\n        /* \"#utility.yul\":218:237   */\n      mstore\n        /* \"#utility.yul\":270:274   */\n      0x20\n        /* \"#utility.yul\":265:268   */\n      dup3\n        /* \"#utility.yul\":261:275   */\n      add\n        /* \"#utility.yul\":246:275   */\n      swap1\n      pop\n        /* \"#utility.yul\":112:281   */\n      swap3\n      swap2\n      pop\n      pop\n      jump\t// out\n        /* \"#utility.yul\":287:426   */\n    tag_288:\n        /* \"#utility.yul\":376:382   */\n      dup3\n        /* \"#utility.yul\":371:374   */\n      dup2\n        /* \"#utility.yul\":366:369   */\n      dup4\n        /* \"#utility.yul\":360:383   */\n      mcopy\n        /* \"#utility.yul\":417:418   */\n      0x00\n        /* \"#utility.yul\":408:414   */\n      dup4\n        /* \"#utility.yul\":403:406   */\n      dup4\n        /* \"#utility.yul\":399:415   */\n      add\n        /* \"#utility.yul\":392:419   */\n      mstore\n        /* \"#utility.yul\":287:426   */\n      pop\n      pop\n      pop\n      jump\t// out\n        /* \"#utility.yul\":432:534   */\n    tag_289:\n        /* \"#utility.yul\":473:479   */\n      0x00\n        /* \"#utility.yul\":524:526   */\n      0x1f\n        /* \"#utility.yul\":520:527   */\n      not\n        /* \"#utility.yul\":515:517   */\n      0x1f\n        /* \"#utility.yul\":508:513   */\n      dup4\n        /* \"#utility.yul\":504:518   */\n      add\n        /* \"#utility.yul\":500:528   */\n      and\n        /* \"#utility.yul\":490:528   */\n      swap1\n      pop\n        /* \"#utility.yul\":432:534   */\n      swap2\n      swap1\n      pop\n      jump\t// out\n        /* \"#utility.yul\":540:917   */\n    tag_290:\n        /* \"#utility.yul\":628:631   */\n      0x00\n        /* \"#utility.yul\":656:695   */\n      tag_394\n        /* \"#utility.yul\":689:694   */\n      dup3\n        /* \"#utility.yul\":656:695   */\n      tag_286\n      jump\t// in\n    tag_394:\n        /* \"#utility.yul\":711:782   */\n      tag_395\n        /* \"#utility.yul\":775:781   */\n      dup2\n        /* \"#utility.yul\":770:773   */\n      dup6\n        /* \"#utility.yul\":711:782   */\n      tag_287\n      jump\t// in\n    tag_395:\n        /* \"#utility.yul\":704:782   */\n      swap4\n      pop\n        /* \"#utility.yul\":791:856   */\n      tag_396\n        /* \"#utility.yul\":849:855   */\n      dup2\n        /* \"#utility.yul\":844:847   */\n      dup6\n        /* \"#utility.yul\":837:841   */\n      0x20\n        /* \"#utility.yul\":830:835   */\n      dup7\n        /* \"#utility.yul\":826:842   */\n      add\n        /* \"#utility.yul\":791:856   */\n      tag_288\n      jump\t// in\n    tag_396:\n        /* \"#utility.yul\":881:910   */\n      tag_397\n        /* \"#utility.yul\":903:909   */\n      dup2\n        /* \"#utility.yul\":881:910   */\n      tag_289\n      jump\t// in\n    tag_397:\n        /* \"#utility.yul\":876:879   */\n      dup5\n        /* \"#utility.yul\":872:911   */\n      add\n        /* \"#utility.yul\":865:911   */\n      swap2\n      pop\n        /* \"#utility.yul\":632:917   */\n      pop\n        /* \"#utility.yul\":540:917   */\n      swap3\n      swap2\n      pop\n      pop\n      jump\t// out\n        /* \"#utility.yul\":923:1236   */\n    tag_27:\n        /* \"#utility.yul\":1036:1040   */\n      0x00\n        /* \"#utility.yul\":1074:1076   */\n      0x20\n        /* \"#utility.yul\":1063:1072   */\n      dup3\n        /* \"#utility.yul\":1059:1077   */\n      add\n        /* \"#utility.yul\":1051:1077   */\n      swap1\n      pop\n        /* \"#utility.yul\":1123:1132   */\n      dup2\n        /* \"#utility.yul\":1117:1121   */\n      dup2\n        /* \"#utility.yul\":1113:1133   */\n      sub\n        /* \"#utility.yul\":1109:1110   */\n      0x00\n        /* \"#utility.yul\":1098:1107   */\n      dup4\n        /* \"#utility.yul\":1094:1111   */\n      add\n        /* \"#utility.yul\":1087:1134   */\n      mstore\n        /* \"#utility.yul\":1151:1229   */\n      tag_399\n        /* \"#utility.yul\":1224:1228   */\n      dup2\n        /* \"#utility.yul\":1215:1221   */\n      dup5\n        /* \"#utility.yul\":1151:1229   */\n      tag_290\n      jump\t// in\n    tag_399:\n        /* \"#utility.yul\":1143:1229   */\n      swap1\n      pop\n        /* \"#utility.yul\":923:1236   */\n      swap3\n      swap2\n      pop\n      pop\n      jump\t// out\n        /* \"#utility.yul\":1242:1317   */\n    tag_291:\n        /* \"#utility.yul\":1275:1281   */\n      0x00\n        /* \"#utility.yul\":1308:1310   */\n      0x40\n        /* \"#utility.yul\":1302:1311   */\n      mload\n        /* \"#utility.yul\":1292:1311   */\n      swap1\n      pop\n        /* \"#utility.yul\":1242:1317   */\n      swap1\n      jump\t// out\n        /* \"#utility.yul\":1323:1440   */\n    tag_292:\n        /* \"#utility.yul\":1432:1433   */\n      0x00\n        /* \"#utility.yul\":1429:1430   */\n      0x00\n        /* \"#utility.yul\":1422:1434   */\n      revert\n        /* \"#utility.yul\":1446:1563   */\n    tag_293:\n        /* \"#utility.yul\":1555:1556   */\n      0x00\n        /* \"#utility.yul\":1552:1553   */\n      0x00\n        /* \"#utility.yul\":1545:1557   */\n      revert\n        /* \"#utility.yul\":1569:1695   */\n    tag_294:\n        /* \"#utility.yul\":1606:1613   */\n      0x00\n        /* \"#utility.yul\":1646:1688   */\n      0xffffffffffffffffffffffffffffffffffffffff\n        /* \"#utility.yul\":1639:1644   */\n      dup3\n        /* \"#utility.yul\":1635:1689   */\n      and\n        /* \"#utility.yul\":1624:1689   */\n      swap1\n      pop\n        /* \"#utility.yul\":1569:1695   */\n      swap2\n      swap1\n      pop\n      jump\t// out\n        /* \"#utility.yul\":1701:1797   */\n    tag_295:\n        /* \"#utility.yul\":1738:1745   */\n      0x00\n        /* \"#utility.yul\":1767:1791   */\n      tag_405\n        /* \"#utility.yul\":1785:1790   */\n      dup3\n        /* \"#utility.yul\":1767:1791   */\n      tag_294\n      jump\t// in\n    tag_405:\n        /* \"#utility.yul\":1756:1791   */\n      swap1\n      pop\n        /* \"#utility.yul\":1701:1797   */\n      swap2\n      swap1\n      pop\n      jump\t// out\n        /* \"#utility.yul\":1803:1925   */\n    tag_296:\n        /* \"#utility.yul\":1876:1900   */\n      tag_407\n        /* \"#utility.yul\":1894:1899   */\n      dup2\n        /* \"#utility.yul\":1876:1900   */\n      tag_295\n      jump\t// in\n    tag_407:\n        /* \"#utility.yul\":1869:1874   */\n      dup2\n        /* \"#utility.yul\":1866:1901   */\n      eq\n        /* \"#utility.yul\":1856:1919   */\n      tag_408\n      jumpi\n        /* \"#utility.yul\":1915:1916   */\n      0x00\n        /* \"#utility.yul\":1912:1913   */\n      0x00\n        /* \"#utility.yul\":1905:1917   */\n      revert\n        /* \"#utility.yul\":1856:1919   */\n    tag_408:\n        /* \"#utility.yul\":1803:1925   */\n      pop\n      jump\t// out\n        /* \"#utility.yul\":1931:2070   */\n    tag_297:\n        /* \"#utility.yul\":1977:1982   */\n      0x00\n        /* \"#utility.yul\":2015:2021   */\n      dup2\n        /* \"#utility.yul\":2002:2022   */\n      calldataload\n        /* \"#utility.yul\":1993:2022   */\n      swap1\n      pop\n        /* \"#utility.yul\":2031:2064   */\n      tag_410\n        /* \"#utility.yul\":2058:2063   */\n      dup2\n        /* \"#utility.yul\":2031:2064   */\n      tag_296\n      jump\t// in\n    tag_410:\n        /* \"#utility.yul\":1931:2070   */\n      swap3\n      swap2\n      pop\n      pop\n      jump\t// out\n        /* \"#utility.yul\":2076:2153   */\n    tag_298:\n        /* \"#utility.yul\":2113:2120   */\n      0x00\n        /* \"#utility.yul\":2142:2147   */\n      dup2\n        /* \"#utility.yul\":2131:2147   */\n      swap1\n      pop\n        /* \"#utility.yul\":2076:2153   */\n      swap2\n      swap1\n      pop\n      jump\t// out\n        /* \"#utility.yul\":2159:2281   */\n    tag_299:\n        /* \"#utility.yul\":2232:2256   */\n      tag_413\n        /* \"#utility.yul\":2250:2255   */\n      dup2\n        /* \"#utility.yul\":2232:2256   */\n      tag_298\n      jump\t// in\n    tag_413:\n        /* \"#utility.yul\":2225:2230   */\n      dup2\n        /* \"#utility.yul\":2222:2257   */\n      eq\n        /* \"#utility.yul\":2212:2275   */\n      tag_414\n      jumpi\n        /* \"#utility.yul\":2271:2272   */\n      0x00\n        /* \"#utility.yul\":2268:2269   */\n      0x00\n        /* \"#utility.yul\":2261:2273   */\n      revert\n        /* \"#utility.yul\":2212:2275   */\n    tag_414:\n        /* \"#utility.yul\":2159:2281   */\n      pop\n      jump\t// out\n        /* \"#utility.yul\":2287:2426   */\n    tag_300:\n        /* \"#utility.yul\":2333:2338   */\n      0x00\n        /* \"#utility.yul\":2371:2377   */\n      dup2\n        /* \"#utility.yul\":2358:2378   */\n      calldataload\n        /* \"#utility.yul\":2349:2378   */\n      swap1\n      pop\n        /* \"#utility.yul\":2387:2420   */\n      tag_416\n        /* \"#utility.yul\":2414:2419   */\n      dup2\n        /* \"#utility.yul\":2387:2420   */\n      tag_299\n      jump\t// in\n    tag_416:\n        /* \"#utility.yul\":2287:2426   */\n      swap3\n      swap2\n      pop\n      pop\n      jump\t// out\n        /* \"#utility.yul\":2432:2906   */\n    tag_30:\n        /* \"#utility.yul\":2500:2506   */\n      0x00\n        /* \"#utility.yul\":2508:2514   */\n      0x00\n        /* \"#utility.yul\":2557:2559   */\n      0x40\n        /* \"#utility.yul\":2545:2554   */\n      dup4\n        /* \"#utility.yul\":2536:2543   */\n      dup6\n        /* \"#utility.yul\":2532:2555   */\n      sub\n        /* \"#utility.yul\":2528:2560   */\n      slt\n        /* \"#utility.yul\":2525:2644   */\n      iszero\n      tag_418\n      jumpi\n        /* \"#utility.yul\":2563:2642   */\n      tag_419\n      tag_292\n      jump\t// in\n    tag_419:\n        /* \"#utility.yul\":2525:2644   */\n    tag_418:\n        /* \"#utility.yul\":2683:2684   */\n      0x00\n        /* \"#utility.yul\":2708:2761   */\n      tag_420\n        /* \"#utility.yul\":2753:2760   */\n      dup6\n        /* \"#utility.yul\":2744:2750   */\n      dup3\n        /* \"#utility.yul\":2733:2742   */\n      dup7\n        /* \"#utility.yul\":2729:2751   */\n      add\n        /* \"#utility.yul\":2708:2761   */\n      tag_297\n      jump\t// in\n    tag_420:\n        /* \"#utility.yul\":2698:2761   */\n      swap3\n      pop\n        /* \"#utility.yul\":2654:2771   */\n      pop\n        /* \"#utility.yul\":2810:2812   */\n      0x20\n        /* \"#utility.yul\":2836:2889   */\n      tag_421\n        /* \"#utility.yul\":2881:2888   */\n      dup6\n        /* \"#utility.yul\":2872:2878   */\n      dup3\n        /* \"#utility.yul\":2861:2870   */\n      dup7\n        /* \"#utility.yul\":2857:2879   */\n      add\n        /* \"#utility.yul\":2836:2889   */\n      tag_300\n      jump\t// in\n    tag_421:\n        /* \"#utility.yul\":2826:2889   */\n      swap2\n      pop\n        /* \"#utility.yul\":2781:2899   */\n      pop\n        /* \"#utility.yul\":2432:2906   */\n      swap3\n      pop\n      swap3\n      swap1\n      pop\n      jump\t// out\n        /* \"#utility.yul\":2912:3002   */\n    tag_301:\n        /* \"#utility.yul\":2946:2953   */\n      0x00\n        /* \"#utility.yul\":2989:2994   */\n      dup2\n        /* \"#utility.yul\":2982:2995   */\n      iszero\n        /* \"#utility.yul\":2975:2996   */\n      iszero\n        /* \"#utility.yul\":2964:2996   */\n      swap1\n      pop\n        /* \"#utility.yul\":2912:3002   */\n      swap2\n      swap1\n      pop\n      jump\t// out\n        /* \"#utility.yul\":3008:3117   */\n    tag_302:\n        /* \"#utility.yul\":3089:3110   */\n      tag_424\n        /* \"#utility.yul\":3104:3109   */\n      dup2\n        /* \"#utility.yul\":3089:3110   */\n      tag_301\n      jump\t// in\n    tag_424:\n        /* \"#utility.yul\":3084:3087   */\n      dup3\n        /* \"#utility.yul\":3077:3111   */\n      mstore\n        /* \"#utility.yul\":3008:3117   */\n      pop\n      pop\n      jump\t// out\n        /* \"#utility.yul\":3123:3333   */\n    tag_33:\n        /* \"#utility.yul\":3210:3214   */\n      0x00\n        /* \"#utility.yul\":3248:3250   */\n      0x20\n        /* \"#utility.yul\":3237:3246   */\n      dup3\n        /* \"#utility.yul\":3233:3251   */\n      add\n        /* \"#utility.yul\":3225:3251   */\n      swap1\n      pop\n        /* \"#utility.yul\":3261:3326   */\n      tag_426\n        /* \"#utility.yul\":3323:3324   */\n      0x00\n        /* \"#utility.yul\":3312:3321   */\n      dup4\n        /* \"#utility.yul\":3308:3325   */\n      add\n        /* \"#utility.yul\":3299:3305   */\n      dup5\n        /* \"#utility.yul\":3261:3326   */\n      tag_302\n      jump\t// in\n    tag_426:\n        /* \"#utility.yul\":3123:3333   */\n      swap3\n      swap2\n      pop\n      pop\n      jump\t// out\n        /* \"#utility.yul\":3339:3457   */\n    tag_303:\n        /* \"#utility.yul\":3426:3450   */\n      tag_428\n        /* \"#utility.yul\":3444:3449   */\n      dup2\n        /* \"#utility.yul\":3426:3450   */\n      tag_298\n      jump\t// in\n    tag_428:\n        /* \"#utility.yul\":3421:3424   */\n      dup3\n        /* \"#utility.yul\":3414:3451   */\n      mstore\n        /* \"#utility.yul\":3339:3457   */\n      pop\n      pop\n      jump\t// out\n        /* \"#utility.yul\":3463:3685   */\n    tag_37:\n        /* \"#utility.yul\":3556:3560   */\n      0x00\n        /* \"#utility.yul\":3594:3596   */\n      0x20\n        /* \"#utility.yul\":3583:3592   */\n      dup3\n        /* \"#utility.yul\":3579:3597   */\n      add\n        /* \"#utility.yul\":3571:3597   */\n      swap1\n      pop\n        /* \"#utility.yul\":3607:3678   */\n      tag_430\n        /* \"#utility.yul\":3675:3676   */\n      0x00\n        /* \"#utility.yul\":3664:3673   */\n      dup4\n        /* \"#utility.yul\":3660:3677   */\n      add\n        /* \"#utility.yul\":3651:3657   */\n      dup5\n        /* \"#utility.yul\":3607:3678   */\n      tag_303\n      jump\t// in\n    tag_430:\n        /* \"#utility.yul\":3463:3685   */\n      swap3\n      swap2\n      pop\n      pop\n      jump\t// out\n        /* \"#utility.yul\":3691:3768   */\n    tag_304:\n        /* \"#utility.yul\":3728:3735   */\n      0x00\n        /* \"#utility.yul\":3757:3762   */\n      dup2\n        /* \"#utility.yul\":3746:3762   */\n      swap1\n      pop\n        /* \"#utility.yul\":3691:3768   */\n      swap2\n      swap1\n      pop\n      jump\t// out\n        /* \"#utility.yul\":3774:3896   */\n    tag_305:\n        /* \"#utility.yul\":3847:3871   */\n      tag_433\n        /* \"#utility.yul\":3865:3870   */\n      dup2\n        /* \"#utility.yul\":3847:3871   */\n      tag_304\n      jump\t// in\n    tag_433:\n        /* \"#utility.yul\":3840:3845   */\n      dup2\n        /* \"#utility.yul\":3837:3872   */\n      eq\n        /* \"#utility.yul\":3827:3890   */\n      tag_434\n      jumpi\n        /* \"#utility.yul\":3886:3887   */\n      0x00\n        /* \"#utility.yul\":3883:3884   */\n      0x00\n        /* \"#utility.yul\":3876:3888   */\n      revert\n        /* \"#utility.yul\":3827:3890   */\n    tag_434:\n        /* \"#utility.yul\":3774:3896   */\n      pop\n      jump\t// out\n        /* \"#utility.yul\":3902:4041   */\n    tag_306:\n        /* \"#utility.yul\":3948:3953   */\n      0x00\n        /* \"#utility.yul\":3986:3992   */\n      dup2\n        /* \"#utility.yul\":3973:3993   */\n      calldataload\n        /* \"#utility.yul\":3964:3993   */\n      swap1\n      pop\n        /* \"#utility.yul\":4002:4035   */\n      tag_436\n        /* \"#utility.yul\":4029:4034   */\n      dup2\n        /* \"#utility.yul\":4002:4035   */\n      tag_305\n      jump\t// in\n    tag_436:\n        /* \"#utility.yul\":3902:4041   */\n      swap3\n      swap2\n      pop\n      pop\n      jump\t// out\n        /* \"#utility.yul\":4047:4164   */\n    tag_307:\n        /* \"#utility.yul\":4156:4157   */\n      0x00\n        /* \"#utility.yul\":4153:4154   */\n      0x00\n        /* \"#utility.yul\":4146:4158   */\n      revert\n        /* \"#utility.yul\":4170:4287   */\n    tag_308:\n        /* \"#utility.yul\":4279:4280   */\n      0x00\n        /* \"#utility.yul\":4276:4277   */\n      0x00\n        /* \"#utility.yul\":4269:4281   */\n      revert\n        /* \"#utility.yul\":4293:4410   */\n    tag_309:\n        /* \"#utility.yul\":4402:4403   */\n      0x00\n        /* \"#utility.yul\":4399:4400   */\n      0x00\n        /* \"#utility.yul\":4392:4404   */\n      revert\n        /* \"#utility.yul\":4429:4981   */\n    tag_310:\n        /* \"#utility.yul\":4486:4494   */\n      0x00\n        /* \"#utility.yul\":4496:4502   */\n      0x00\n        /* \"#utility.yul\":4546:4549   */\n      dup4\n        /* \"#utility.yul\":4539:4543   */\n      0x1f\n        /* \"#utility.yul\":4531:4537   */\n      dup5\n        /* \"#utility.yul\":4527:4544   */\n      add\n        /* \"#utility.yul\":4523:4550   */\n      slt\n        /* \"#utility.yul\":4513:4635   */\n      tag_441\n      jumpi\n        /* \"#utility.yul\":4554:4633   */\n      tag_442\n      tag_307\n      jump\t// in\n    tag_442:\n        /* \"#utility.yul\":4513:4635   */\n    tag_441:\n        /* \"#utility.yul\":4667:4673   */\n      dup3\n        /* \"#utility.yul\":4654:4674   */\n      calldataload\n        /* \"#utility.yul\":4644:4674   */\n      swap1\n      pop\n        /* \"#utility.yul\":4697:4715   */\n      0xffffffffffffffff\n        /* \"#utility.yul\":4689:4695   */\n      dup2\n        /* \"#utility.yul\":4686:4716   */\n      gt\n        /* \"#utility.yul\":4683:4800   */\n      iszero\n      tag_443\n      jumpi\n        /* \"#utility.yul\":4719:4798   */\n      tag_444\n      tag_308\n      jump\t// in\n    tag_444:\n        /* \"#utility.yul\":4683:4800   */\n    tag_443:\n        /* \"#utility.yul\":4833:4837   */\n      0x20\n        /* \"#utility.yul\":4825:4831   */\n      dup4\n        /* \"#utility.yul\":4821:4838   */\n      add\n        /* \"#utility.yul\":4809:4838   */\n      swap2\n      pop\n        /* \"#utility.yul\":4887:4890   */\n      dup4\n        /* \"#utility.yul\":4879:4883   */\n      0x01\n        /* \"#utility.yul\":4871:4877   */\n      dup3\n        /* \"#utility.yul\":4867:4884   */\n      mul\n        /* \"#utility.yul\":4857:4865   */\n      dup4\n        /* \"#utility.yul\":4853:4885   */\n      add\n        /* \"#utility.yul\":4850:4891   */\n      gt\n        /* \"#utility.yul\":4847:4975   */\n      iszero\n      tag_445\n      jumpi\n        /* \"#utility.yul\":4894:4973   */\n      tag_446\n      tag_309\n      jump\t// in\n    tag_446:\n        /* \"#utility.yul\":4847:4975   */\n    tag_445:\n        /* \"#utility.yul\":4429:4981   */\n      swap3\n      pop\n      swap3\n      swap1\n      pop\n      jump\t// out\n        /* \"#utility.yul\":4987:5950   */\n    tag_40:\n        /* \"#utility.yul\":5084:5090   */\n      0x00\n        /* \"#utility.yul\":5092:5098   */\n      0x00\n        /* \"#utility.yul\":5100:5106   */\n      0x00\n        /* \"#utility.yul\":5108:5114   */\n      0x00\n        /* \"#utility.yul\":5116:5122   */\n      0x00\n        /* \"#utility.yul\":5165:5168   */\n      0x80\n        /* \"#utility.yul\":5153:5162   */\n      dup7\n        /* \"#utility.yul\":5144:5151   */\n      dup9\n        /* \"#utility.yul\":5140:5163   */\n      sub\n        /* \"#utility.yul\":5136:5169   */\n      slt\n        /* \"#utility.yul\":5133:5253   */\n      iszero\n      tag_448\n      jumpi\n        /* \"#utility.yul\":5172:5251   */\n      tag_449\n      tag_292\n      jump\t// in\n    tag_449:\n        /* \"#utility.yul\":5133:5253   */\n    tag_448:\n        /* \"#utility.yul\":5292:5293   */\n      0x00\n        /* \"#utility.yul\":5317:5370   */\n      tag_450\n        /* \"#utility.yul\":5362:5369   */\n      dup9\n        /* \"#utility.yul\":5353:5359   */\n      dup3\n        /* \"#utility.yul\":5342:5351   */\n      dup10\n        /* \"#utility.yul\":5338:5360   */\n      add\n        /* \"#utility.yul\":5317:5370   */\n      tag_306\n      jump\t// in\n    tag_450:\n        /* \"#utility.yul\":5307:5370   */\n      swap6\n      pop\n        /* \"#utility.yul\":5263:5380   */\n      pop\n        /* \"#utility.yul\":5419:5421   */\n      0x20\n        /* \"#utility.yul\":5445:5498   */\n      tag_451\n        /* \"#utility.yul\":5490:5497   */\n      dup9\n        /* \"#utility.yul\":5481:5487   */\n      dup3\n        /* \"#utility.yul\":5470:5479   */\n      dup10\n        /* \"#utility.yul\":5466:5488   */\n      add\n        /* \"#utility.yul\":5445:5498   */\n      tag_300\n      jump\t// in\n    tag_451:\n        /* \"#utility.yul\":5435:5498   */\n      swap5\n      pop\n        /* \"#utility.yul\":5390:5508   */\n      pop\n        /* \"#utility.yul\":5547:5549   */\n      0x40\n        /* \"#utility.yul\":5573:5626   */\n      tag_452\n        /* \"#utility.yul\":5618:5625   */\n      dup9\n        /* \"#utility.yul\":5609:5615   */\n      dup3\n        /* \"#utility.yul\":5598:5607   */\n      dup10\n        /* \"#utility.yul\":5594:5616   */\n      add\n        /* \"#utility.yul\":5573:5626   */\n      tag_300\n      jump\t// in\n    tag_452:\n        /* \"#utility.yul\":5563:5626   */\n      swap4\n      pop\n        /* \"#utility.yul\":5518:5636   */\n      pop\n        /* \"#utility.yul\":5703:5705   */\n      0x60\n        /* \"#utility.yul\":5692:5701   */\n      dup7\n        /* \"#utility.yul\":5688:5706   */\n      add\n        /* \"#utility.yul\":5675:5707   */\n      calldataload\n        /* \"#utility.yul\":5734:5752   */\n      0xffffffffffffffff\n        /* \"#utility.yul\":5726:5732   */\n      dup2\n        /* \"#utility.yul\":5723:5753   */\n      gt\n        /* \"#utility.yul\":5720:5837   */\n      iszero\n      tag_453\n      jumpi\n        /* \"#utility.yul\":5756:5835   */\n      tag_454\n      tag_293\n      jump\t// in\n    tag_454:\n        /* \"#utility.yul\":5720:5837   */\n    tag_453:\n        /* \"#utility.yul\":5869:5933   */\n      tag_455\n        /* \"#utility.yul\":5925:5932   */\n      dup9\n        /* \"#utility.yul\":5916:5922   */\n      dup3\n        /* \"#utility.yul\":5905:5914   */\n      dup10\n        /* \"#utility.yul\":5901:5923   */\n      add\n        /* \"#utility.yul\":5869:5933   */\n      tag_310\n      jump\t// in\n    tag_455:\n        /* \"#utility.yul\":5851:5933   */\n      swap3\n      pop\n      swap3\n      pop\n        /* \"#utility.yul\":5646:5943   */\n      pop\n        /* \"#utility.yul\":4987:5950   */\n      swap3\n      swap6\n      pop\n      swap3\n      swap6\n      swap1\n      swap4\n      pop\n      jump\t// out\n        /* \"#utility.yul\":5956:6074   */\n    tag_311:\n        /* \"#utility.yul\":6043:6067   */\n      tag_457\n        /* \"#utility.yul\":6061:6066   */\n      dup2\n        /* \"#utility.yul\":6043:6067   */\n      tag_304\n      jump\t// in\n    tag_457:\n        /* \"#utility.yul\":6038:6041   */\n      dup3\n        /* \"#utility.yul\":6031:6068   */\n      mstore\n        /* \"#utility.yul\":5956:6074   */\n      pop\n      pop\n      jump\t// out\n        /* \"#utility.yul\":6080:6302   */\n    tag_43:\n        /* \"#utility.yul\":6173:6177   */\n      0x00\n        /* \"#utility.yul\":6211:6213   */\n      0x20\n        /* \"#utility.yul\":6200:6209   */\n      dup3\n        /* \"#utility.yul\":6196:6214   */\n      add\n        /* \"#utility.yul\":6188:6214   */\n      swap1\n      pop\n        /* \"#utility.yul\":6224:6295   */\n      tag_459\n        /* \"#utility.yul\":6292:6293   */\n      0x00\n        /* \"#utility.yul\":6281:6290   */\n      dup4\n        /* \"#utility.yul\":6277:6294   */\n      add\n        /* \"#utility.yul\":6268:6274   */\n      dup5\n        /* \"#utility.yul\":6224:6295   */\n      tag_311\n      jump\t// in\n    tag_459:\n        /* \"#utility.yul\":6080:6302   */\n      swap3\n      swap2\n      pop\n      pop\n      jump\t// out\n        /* \"#utility.yul\":6308:6927   */\n    tag_46:\n        /* \"#utility.yul\":6385:6391   */\n      0x00\n        /* \"#utility.yul\":6393:6399   */\n      0x00\n        /* \"#utility.yul\":6401:6407   */\n      0x00\n        /* \"#utility.yul\":6450:6452   */\n      0x60\n        /* \"#utility.yul\":6438:6447   */\n      dup5\n        /* \"#utility.yul\":6429:6436   */\n      dup7\n        /* \"#utility.yul\":6425:6448   */\n      sub\n        /* \"#utility.yul\":6421:6453   */\n      slt\n        /* \"#utility.yul\":6418:6537   */\n      iszero\n      tag_461\n      jumpi\n        /* \"#utility.yul\":6456:6535   */\n      tag_462\n      tag_292\n      jump\t// in\n    tag_462:\n        /* \"#utility.yul\":6418:6537   */\n    tag_461:\n        /* \"#utility.yul\":6576:6577   */\n      0x00\n        /* \"#utility.yul\":6601:6654   */\n      tag_463\n        /* \"#utility.yul\":6646:6653   */\n      dup7\n        /* \"#utility.yul\":6637:6643   */\n      dup3\n        /* \"#utility.yul\":6626:6635   */\n      dup8\n        /* \"#utility.yul\":6622:6644   */\n      add\n        /* \"#utility.yul\":6601:6654   */\n      tag_297\n      jump\t// in\n    tag_463:\n        /* \"#utility.yul\":6591:6654   */\n      swap4\n      pop\n        /* \"#utility.yul\":6547:6664   */\n      pop\n        /* \"#utility.yul\":6703:6705   */\n      0x20\n        /* \"#utility.yul\":6729:6782   */\n      tag_464\n        /* \"#utility.yul\":6774:6781   */\n      dup7\n        /* \"#utility.yul\":6765:6771   */\n      dup3\n        /* \"#utility.yul\":6754:6763   */\n      dup8\n        /* \"#utility.yul\":6750:6772   */\n      add\n        /* \"#utility.yul\":6729:6782   */\n      tag_297\n      jump\t// in\n    tag_464:\n        /* \"#utility.yul\":6719:6782   */\n      swap3\n      pop\n        /* \"#utility.yul\":6674:6792   */\n      pop\n        /* \"#utility.yul\":6831:6833   */\n      0x40\n        /* \"#utility.yul\":6857:6910   */\n      tag_465\n        /* \"#utility.yul\":6902:6909   */\n      dup7\n        /* \"#utility.yul\":6893:6899   */\n      dup3\n        /* \"#utility.yul\":6882:6891   */\n      dup8\n        /* \"#utility.yul\":6878:6900   */\n      add\n        /* \"#utility.yul\":6857:6910   */\n      tag_300\n      jump\t// in\n    tag_465:\n        /* \"#utility.yul\":6847:6910   */\n      swap2\n      pop\n        /* \"#utility.yul\":6802:6920   */\n      pop\n        /* \"#utility.yul\":6308:6927   */\n      swap3\n      pop\n      swap3\n      pop\n      swap3\n      jump\t// out\n        /* \"#utility.yul\":6933:7019   */\n    tag_312:\n        /* \"#utility.yul\":6968:6975   */\n      0x00\n        /* \"#utility.yul\":7008:7012   */\n      0xff\n        /* \"#utility.yul\":7001:7006   */\n      dup3\n        /* \"#utility.yul\":6997:7013   */\n      and\n        /* \"#utility.yul\":6986:7013   */\n      swap1\n      pop\n        /* \"#utility.yul\":6933:7019   */\n      swap2\n      swap1\n      pop\n      jump\t// out\n        /* \"#utility.yul\":7025:7137   */\n    tag_313:\n        /* \"#utility.yul\":7108:7130   */\n      tag_468\n        /* \"#utility.yul\":7124:7129   */\n      dup2\n        /* \"#utility.yul\":7108:7130   */\n      tag_312\n      jump\t// in\n    tag_468:\n        /* \"#utility.yul\":7103:7106   */\n      dup3\n        /* \"#utility.yul\":7096:7131   */\n      mstore\n        /* \"#utility.yul\":7025:7137   */\n      pop\n      pop\n      jump\t// out\n        /* \"#utility.yul\":7143:7357   */\n    tag_56:\n        /* \"#utility.yul\":7232:7236   */\n      0x00\n        /* \"#utility.yul\":7270:7272   */\n      0x20\n        /* \"#utility.yul\":7259:7268   */\n      dup3\n        /* \"#utility.yul\":7255:7273   */\n      add\n        /* \"#utility.yul\":7247:7273   */\n      swap1\n      pop\n        /* \"#utility.yul\":7283:7350   */\n      tag_470\n        /* \"#utility.yul\":7347:7348   */\n      0x00\n        /* \"#utility.yul\":7336:7345   */\n      dup4\n        /* \"#utility.yul\":7332:7349   */\n      add\n        /* \"#utility.yul\":7323:7329   */\n      dup5\n        /* \"#utility.yul\":7283:7350   */\n      tag_313\n      jump\t// in\n    tag_470:\n        /* \"#utility.yul\":7143:7357   */\n      swap3\n      swap2\n      pop\n      pop\n      jump\t// out\n        /* \"#utility.yul\":7363:7692   */\n    tag_59:\n        /* \"#utility.yul\":7422:7428   */\n      0x00\n        /* \"#utility.yul\":7471:7473   */\n      0x20\n        /* \"#utility.yul\":7459:7468   */\n      dup3\n        /* \"#utility.yul\":7450:7457   */\n      dup5\n        /* \"#utility.yul\":7446:7469   */\n      sub\n        /* \"#utility.yul\":7442:7474   */\n      slt\n        /* \"#utility.yul\":7439:7558   */\n      iszero\n      tag_472\n      jumpi\n        /* \"#utility.yul\":7477:7556   */\n      tag_473\n      tag_292\n      jump\t// in\n    tag_473:\n        /* \"#utility.yul\":7439:7558   */\n    tag_472:\n        /* \"#utility.yul\":7597:7598   */\n      0x00\n        /* \"#utility.yul\":7622:7675   */\n      tag_474\n        /* \"#utility.yul\":7667:7674   */\n      dup5\n        /* \"#utility.yul\":7658:7664   */\n      dup3\n        /* \"#utility.yul\":7647:7656   */\n      dup6\n        /* \"#utility.yul\":7643:7665   */\n      add\n        /* \"#utility.yul\":7622:7675   */\n      tag_297\n      jump\t// in\n    tag_474:\n        /* \"#utility.yul\":7612:7675   */\n      swap2\n      pop\n        /* \"#utility.yul\":7568:7685   */\n      pop\n        /* \"#utility.yul\":7363:7692   */\n      swap3\n      swap2\n      pop\n      pop\n      jump\t// out\n        /* \"#utility.yul\":7698:8027   */\n    tag_64:\n        /* \"#utility.yul\":7757:7763   */\n      0x00\n        /* \"#utility.yul\":7806:7808   */\n      0x20\n        /* \"#utility.yul\":7794:7803   */\n      dup3\n        /* \"#utility.yul\":7785:7792   */\n      dup5\n        /* \"#utility.yul\":7781:7804   */\n      sub\n        /* \"#utility.yul\":7777:7809   */\n      slt\n        /* \"#utility.yul\":7774:7893   */\n      iszero\n      tag_476\n      jumpi\n        /* \"#utility.yul\":7812:7891   */\n      tag_477\n      tag_292\n      jump\t// in\n    tag_477:\n        /* \"#utility.yul\":7774:7893   */\n    tag_476:\n        /* \"#utility.yul\":7932:7933   */\n      0x00\n        /* \"#utility.yul\":7957:8010   */\n      tag_478\n        /* \"#utility.yul\":8002:8009   */\n      dup5\n        /* \"#utility.yul\":7993:7999   */\n      dup3\n        /* \"#utility.yul\":7982:7991   */\n      dup6\n        /* \"#utility.yul\":7978:8000   */\n      add\n        /* \"#utility.yul\":7957:8010   */\n      tag_306\n      jump\t// in\n    tag_478:\n        /* \"#utility.yul\":7947:8010   */\n      swap2\n      pop\n        /* \"#utility.yul\":7903:8020   */\n      pop\n        /* \"#utility.yul\":7698:8027   */\n      swap3\n      swap2\n      pop\n      pop\n      jump\t// out\n        /* \"#utility.yul\":8033:9434   */\n    tag_72:\n        /* \"#utility.yul\":8157:8163   */\n      0x00\n        /* \"#utility.yul\":8165:8171   */\n      0x00\n        /* \"#utility.yul\":8173:8179   */\n      0x00\n        /* \"#utility.yul\":8181:8187   */\n      0x00\n        /* \"#utility.yul\":8189:8195   */\n      0x00\n        /* \"#utility.yul\":8197:8203   */\n      0x00\n        /* \"#utility.yul\":8205:8211   */\n      0x00\n        /* \"#utility.yul\":8213:8219   */\n      0x00\n        /* \"#utility.yul\":8262:8265   */\n      0xe0\n        /* \"#utility.yul\":8250:8259   */\n      dup10\n        /* \"#utility.yul\":8241:8248   */\n      dup12\n        /* \"#utility.yul\":8237:8260   */\n      sub\n        /* \"#utility.yul\":8233:8266   */\n      slt\n        /* \"#utility.yul\":8230:8350   */\n      iszero\n      tag_480\n      jumpi\n        /* \"#utility.yul\":8269:8348   */\n      tag_481\n      tag_292\n      jump\t// in\n    tag_481:\n        /* \"#utility.yul\":8230:8350   */\n    tag_480:\n        /* \"#utility.yul\":8389:8390   */\n      0x00\n        /* \"#utility.yul\":8414:8467   */\n      tag_482\n        /* \"#utility.yul\":8459:8466   */\n      dup12\n        /* \"#utility.yul\":8450:8456   */\n      dup3\n        /* \"#utility.yul\":8439:8448   */\n      dup13\n        /* \"#utility.yul\":8435:8457   */\n      add\n        /* \"#utility.yul\":8414:8467   */\n      tag_306\n      jump\t// in\n    tag_482:\n        /* \"#utility.yul\":8404:8467   */\n      swap9\n      pop\n        /* \"#utility.yul\":8360:8477   */\n      pop\n        /* \"#utility.yul\":8516:8518   */\n      0x20\n        /* \"#utility.yul\":8542:8595   */\n      tag_483\n        /* \"#utility.yul\":8587:8594   */\n      dup12\n        /* \"#utility.yul\":8578:8584   */\n      dup3\n        /* \"#utility.yul\":8567:8576   */\n      dup13\n        /* \"#utility.yul\":8563:8585   */\n      add\n        /* \"#utility.yul\":8542:8595   */\n      tag_300\n      jump\t// in\n    tag_483:\n        /* \"#utility.yul\":8532:8595   */\n      swap8\n      pop\n        /* \"#utility.yul\":8487:8605   */\n      pop\n        /* \"#utility.yul\":8644:8646   */\n      0x40\n        /* \"#utility.yul\":8670:8723   */\n      tag_484\n        /* \"#utility.yul\":8715:8722   */\n      dup12\n        /* \"#utility.yul\":8706:8712   */\n      dup3\n        /* \"#utility.yul\":8695:8704   */\n      dup13\n        /* \"#utility.yul\":8691:8713   */\n      add\n        /* \"#utility.yul\":8670:8723   */\n      tag_297\n      jump\t// in\n    tag_484:\n        /* \"#utility.yul\":8660:8723   */\n      swap7\n      pop\n        /* \"#utility.yul\":8615:8733   */\n      pop\n        /* \"#utility.yul\":8772:8774   */\n      0x60\n        /* \"#utility.yul\":8798:8851   */\n      tag_485\n        /* \"#utility.yul\":8843:8850   */\n      dup12\n        /* \"#utility.yul\":8834:8840   */\n      dup3\n        /* \"#utility.yul\":8823:8832   */\n      dup13\n        /* \"#utility.yul\":8819:8841   */\n      add\n        /* \"#utility.yul\":8798:8851   */\n      tag_300\n      jump\t// in\n    tag_485:\n        /* \"#utility.yul\":8788:8851   */\n      swap6\n      pop\n        /* \"#utility.yul\":8743:8861   */\n      pop\n        /* \"#utility.yul\":8900:8903   */\n      0x80\n        /* \"#utility.yul\":8927:8980   */\n      tag_486\n        /* \"#utility.yul\":8972:8979   */\n      dup12\n        /* \"#utility.yul\":8963:8969   */\n      dup3\n        /* \"#utility.yul\":8952:8961   */\n      dup13\n        /* \"#utility.yul\":8948:8970   */\n      add\n        /* \"#utility.yul\":8927:8980   */\n      tag_300\n      jump\t// in\n    tag_486:\n        /* \"#utility.yul\":8917:8980   */\n      swap5\n      pop\n        /* \"#utility.yul\":8871:8990   */\n      pop\n        /* \"#utility.yul\":9029:9032   */\n      0xa0\n        /* \"#utility.yul\":9056:9109   */\n      tag_487\n        /* \"#utility.yul\":9101:9108   */\n      dup12\n        /* \"#utility.yul\":9092:9098   */\n      dup3\n        /* \"#utility.yul\":9081:9090   */\n      dup13\n        /* \"#utility.yul\":9077:9099   */\n      add\n        /* \"#utility.yul\":9056:9109   */\n      tag_306\n      jump\t// in\n    tag_487:\n        /* \"#utility.yul\":9046:9109   */\n      swap4\n      pop\n        /* \"#utility.yul\":9000:9119   */\n      pop\n        /* \"#utility.yul\":9186:9189   */\n      0xc0\n        /* \"#utility.yul\":9175:9184   */\n      dup10\n        /* \"#utility.yul\":9171:9190   */\n      add\n        /* \"#utility.yul\":9158:9191   */\n      calldataload\n        /* \"#utility.yul\":9218:9236   */\n      0xffffffffffffffff\n        /* \"#utility.yul\":9210:9216   */\n      dup2\n        /* \"#utility.yul\":9207:9237   */\n      gt\n        /* \"#utility.yul\":9204:9321   */\n      iszero\n      tag_488\n      jumpi\n        /* \"#utility.yul\":9240:9319   */\n      tag_489\n      tag_293\n      jump\t// in\n    tag_489:\n        /* \"#utility.yul\":9204:9321   */\n    tag_488:\n        /* \"#utility.yul\":9353:9417   */\n      tag_490\n        /* \"#utility.yul\":9409:9416   */\n      dup12\n        /* \"#utility.yul\":9400:9406   */\n      dup3\n        /* \"#utility.yul\":9389:9398   */\n      dup13\n        /* \"#utility.yul\":9385:9407   */\n      add\n        /* \"#utility.yul\":9353:9417   */\n      tag_310\n      jump\t// in\n    tag_490:\n        /* \"#utility.yul\":9335:9417   */\n      swap3\n      pop\n      swap3\n      pop\n        /* \"#utility.yul\":9129:9427   */\n      pop\n        /* \"#utility.yul\":8033:9434   */\n      swap3\n      swap6\n      swap9\n      pop\n      swap3\n      swap6\n      swap9\n      swap1\n      swap4\n      swap7\n      pop\n      jump\t// out\n        /* \"#utility.yul\":9440:9772   */\n    tag_75:\n        /* \"#utility.yul\":9561:9565   */\n      0x00\n        /* \"#utility.yul\":9599:9601   */\n      0x40\n        /* \"#utility.yul\":9588:9597   */\n      dup3\n        /* \"#utility.yul\":9584:9602   */\n      add\n        /* \"#utility.yul\":9576:9602   */\n      swap1\n      pop\n        /* \"#utility.yul\":9612:9683   */\n      tag_492\n        /* \"#utility.yul\":9680:9681   */\n      0x00\n        /* \"#utility.yul\":9669:9678   */\n      dup4\n        /* \"#utility.yul\":9665:9682   */\n      add\n        /* \"#utility.yul\":9656:9662   */\n      dup6\n        /* \"#utility.yul\":9612:9683   */\n      tag_311\n      jump\t// in\n    tag_492:\n        /* \"#utility.yul\":9693:9765   */\n      tag_493\n        /* \"#utility.yul\":9761:9763   */\n      0x20\n        /* \"#utility.yul\":9750:9759   */\n      dup4\n        /* \"#utility.yul\":9746:9764   */\n      add\n        /* \"#utility.yul\":9737:9743   */\n      dup5\n        /* \"#utility.yul\":9693:9765   */\n      tag_311\n      jump\t// in\n    tag_493:\n        /* \"#utility.yul\":9440:9772   */\n      swap4\n      swap3\n      pop\n      pop\n      pop\n      jump\t// out\n        /* \"#utility.yul\":9778:9958   */\n    tag_314:\n        /* \"#utility.yul\":9826:9903   */\n      0x4e487b7100000000000000000000000000000000000000000000000000000000\n        /* \"#utility.yul\":9823:9824   */\n      0x00\n        /* \"#utility.yul\":9816:9904   */\n      mstore\n        /* \"#utility.yul\":9923:9927   */\n      0x41\n        /* \"#utility.yul\":9920:9921   */\n      0x04\n        /* \"#utility.yul\":9913:9928   */\n      mstore\n        /* \"#utility.yul\":9947:9951   */\n      0x24\n        /* \"#utility.yul\":9944:9945   */\n      0x00\n        /* \"#utility.yul\":9937:9952   */\n      revert\n        /* \"#utility.yul\":9964:10245   */\n    tag_315:\n        /* \"#utility.yul\":10047:10074   */\n      tag_496\n        /* \"#utility.yul\":10069:10073   */\n      dup3\n        /* \"#utility.yul\":10047:10074   */\n      tag_289\n      jump\t// in\n    tag_496:\n        /* \"#utility.yul\":10039:10045   */\n      dup2\n        /* \"#utility.yul\":10035:10075   */\n      add\n        /* \"#utility.yul\":10177:10183   */\n      dup2\n        /* \"#utility.yul\":10165:10175   */\n      dup2\n        /* \"#utility.yul\":10162:10184   */\n      lt\n        /* \"#utility.yul\":10141:10159   */\n      0xffffffffffffffff\n        /* \"#utility.yul\":10129:10139   */\n      dup3\n        /* \"#utility.yul\":10126:10160   */\n      gt\n        /* \"#utility.yul\":10123:10185   */\n      or\n        /* \"#utility.yul\":10120:10208   */\n      iszero\n      tag_497\n      jumpi\n        /* \"#utility.yul\":10188:10206   */\n      tag_498\n      tag_314\n      jump\t// in\n    tag_498:\n        /* \"#utility.yul\":10120:10208   */\n    tag_497:\n        /* \"#utility.yul\":10228:10238   */\n      dup1\n        /* \"#utility.yul\":10224:10226   */\n      0x40\n        /* \"#utility.yul\":10217:10239   */\n      mstore\n        /* \"#utility.yul\":10007:10245   */\n      pop\n        /* \"#utility.yul\":9964:10245   */\n      pop\n      pop\n      jump\t// out\n        /* \"#utility.yul\":10251:10380   */\n    tag_316:\n        /* \"#utility.yul\":10285:10291   */\n      0x00\n        /* \"#utility.yul\":10312:10332   */\n      tag_500\n      tag_291\n      jump\t// in\n    tag_500:\n        /* \"#utility.yul\":10302:10332   */\n      swap1\n      pop\n        /* \"#utility.yul\":10341:10374   */\n      tag_501\n        /* \"#utility.yul\":10369:10373   */\n      dup3\n        /* \"#utility.yul\":10361:10367   */\n      dup3\n        /* \"#utility.yul\":10341:10374   */\n      tag_315\n      jump\t// in\n    tag_501:\n        /* \"#utility.yul\":10251:10380   */\n      swap2\n      swap1\n      pop\n      jump\t// out\n        /* \"#utility.yul\":10386:10697   */\n    tag_317:\n        /* \"#utility.yul\":10463:10467   */\n      0x00\n        /* \"#utility.yul\":10553:10571   */\n      0xffffffffffffffff\n        /* \"#utility.yul\":10545:10551   */\n      dup3\n        /* \"#utility.yul\":10542:10572   */\n      gt\n        /* \"#utility.yul\":10539:10595   */\n      iszero\n      tag_503\n      jumpi\n        /* \"#utility.yul\":10575:10593   */\n      tag_504\n      tag_314\n      jump\t// in\n    tag_504:\n        /* \"#utility.yul\":10539:10595   */\n    tag_503:\n        /* \"#utility.yul\":10625:10629   */\n      0x20\n        /* \"#utility.yul\":10617:10623   */\n      dup3\n        /* \"#utility.yul\":10613:10630   */\n      mul\n        /* \"#utility.yul\":10605:10630   */\n      swap1\n      pop\n        /* \"#utility.yul\":10685:10689   */\n      0x20\n        /* \"#utility.yul\":10679:10683   */\n      dup2\n        /* \"#utility.yul\":10675:10690   */\n      add\n        /* \"#utility.yul\":10667:10690   */\n      swap1\n      pop\n        /* \"#utility.yul\":10386:10697   */\n      swap2\n      swap1\n      pop\n      jump\t// out\n        /* \"#utility.yul\":10720:11430   */\n    tag_318:\n        /* \"#utility.yul\":10816:10821   */\n      0x00\n        /* \"#utility.yul\":10841:10922   */\n      tag_506\n        /* \"#utility.yul\":10857:10921   */\n      tag_507\n        /* \"#utility.yul\":10914:10920   */\n      dup5\n        /* \"#utility.yul\":10857:10921   */\n      tag_317\n      jump\t// in\n    tag_507:\n        /* \"#utility.yul\":10841:10922   */\n      tag_316\n      jump\t// in\n    tag_506:\n        /* \"#utility.yul\":10832:10922   */\n      swap1\n      pop\n        /* \"#utility.yul\":10942:10947   */\n      dup1\n        /* \"#utility.yul\":10971:10977   */\n      dup4\n        /* \"#utility.yul\":10964:10969   */\n      dup3\n        /* \"#utility.yul\":10957:10978   */\n      mstore\n        /* \"#utility.yul\":11005:11009   */\n      0x20\n        /* \"#utility.yul\":10998:11003   */\n      dup3\n        /* \"#utility.yul\":10994:11010   */\n      add\n        /* \"#utility.yul\":10987:11010   */\n      swap1\n      pop\n        /* \"#utility.yul\":11058:11062   */\n      0x20\n        /* \"#utility.yul\":11050:11056   */\n      dup5\n        /* \"#utility.yul\":11046:11063   */\n      mul\n        /* \"#utility.yul\":11038:11044   */\n      dup4\n        /* \"#utility.yul\":11034:11064   */\n      add\n        /* \"#utility.yul\":11087:11090   */\n      dup6\n        /* \"#utility.yul\":11079:11085   */\n      dup2\n        /* \"#utility.yul\":11076:11091   */\n      gt\n        /* \"#utility.yul\":11073:11195   */\n      iszero\n      tag_508\n      jumpi\n        /* \"#utility.yul\":11106:11185   */\n      tag_509\n      tag_309\n      jump\t// in\n    tag_509:\n        /* \"#utility.yul\":11073:11195   */\n    tag_508:\n        /* \"#utility.yul\":11221:11227   */\n      dup4\n        /* \"#utility.yul\":11204:11424   */\n    tag_510:\n        /* \"#utility.yul\":11238:11244   */\n      dup2\n        /* \"#utility.yul\":11233:11236   */\n      dup2\n        /* \"#utility.yul\":11230:11245   */\n      lt\n        /* \"#utility.yul\":11204:11424   */\n      iszero\n      tag_512\n      jumpi\n        /* \"#utility.yul\":11313:11316   */\n      dup1\n        /* \"#utility.yul\":11342:11379   */\n      tag_513\n        /* \"#utility.yul\":11375:11378   */\n      dup9\n        /* \"#utility.yul\":11363:11373   */\n      dup3\n        /* \"#utility.yul\":11342:11379   */\n      tag_297\n      jump\t// in\n    tag_513:\n        /* \"#utility.yul\":11337:11340   */\n      dup5\n        /* \"#utility.yul\":11330:11380   */\n      mstore\n        /* \"#utility.yul\":11409:11413   */\n      0x20\n        /* \"#utility.yul\":11404:11407   */\n      dup5\n        /* \"#utility.yul\":11400:11414   */\n      add\n        /* \"#utility.yul\":11393:11414   */\n      swap4\n      pop\n        /* \"#utility.yul\":11280:11424   */\n      pop\n        /* \"#utility.yul\":11264:11268   */\n      0x20\n        /* \"#utility.yul\":11259:11262   */\n      dup2\n        /* \"#utility.yul\":11255:11269   */\n      add\n        /* \"#utility.yul\":11248:11269   */\n      swap1\n      pop\n        /* \"#utility.yul\":11204:11424   */\n      jump(tag_510)\n    tag_512:\n        /* \"#utility.yul\":11208:11229   */\n      pop\n        /* \"#utility.yul\":10822:11430   */\n      pop\n      pop\n        /* \"#utility.yul\":10720:11430   */\n      swap4\n      swap3\n      pop\n      pop\n      pop\n      jump\t// out\n        /* \"#utility.yul\":11453:11823   */\n    tag_319:\n        /* \"#utility.yul\":11524:11529   */\n      0x00\n        /* \"#utility.yul\":11573:11576   */\n      dup3\n        /* \"#utility.yul\":11566:11570   */\n      0x1f\n        /* \"#utility.yul\":11558:11564   */\n      dup4\n        /* \"#utility.yul\":11554:11571   */\n      add\n        /* \"#utility.yul\":11550:11577   */\n      slt\n        /* \"#utility.yul\":11540:11662   */\n      tag_515\n      jumpi\n        /* \"#utility.yul\":11581:11660   */\n      tag_516\n      tag_307\n      jump\t// in\n    tag_516:\n        /* \"#utility.yul\":11540:11662   */\n    tag_515:\n        /* \"#utility.yul\":11698:11704   */\n      dup2\n        /* \"#utility.yul\":11685:11705   */\n      calldataload\n        /* \"#utility.yul\":11723:11817   */\n      tag_517\n        /* \"#utility.yul\":11813:11816   */\n      dup5\n        /* \"#utility.yul\":11805:11811   */\n      dup3\n        /* \"#utility.yul\":11798:11802   */\n      0x20\n        /* \"#utility.yul\":11790:11796   */\n      dup7\n        /* \"#utility.yul\":11786:11803   */\n      add\n        /* \"#utility.yul\":11723:11817   */\n      tag_318\n      jump\t// in\n    tag_517:\n        /* \"#utility.yul\":11714:11817   */\n      swap2\n      pop\n        /* \"#utility.yul\":11530:11823   */\n      pop\n        /* \"#utility.yul\":11453:11823   */\n      swap3\n      swap2\n      pop\n      pop\n      jump\t// out\n        /* \"#utility.yul\":11846:12414   */\n    tag_320:\n        /* \"#utility.yul\":11919:11927   */\n      0x00\n        /* \"#utility.yul\":11929:11935   */\n      0x00\n        /* \"#utility.yul\":11979:11982   */\n      dup4\n        /* \"#utility.yul\":11972:11976   */\n      0x1f\n        /* \"#utility.yul\":11964:11970   */\n      dup5\n        /* \"#utility.yul\":11960:11977   */\n      add\n        /* \"#utility.yul\":11956:11983   */\n      slt\n        /* \"#utility.yul\":11946:12068   */\n      tag_519\n      jumpi\n        /* \"#utility.yul\":11987:12066   */\n      tag_520\n      tag_307\n      jump\t// in\n    tag_520:\n        /* \"#utility.yul\":11946:12068   */\n    tag_519:\n        /* \"#utility.yul\":12100:12106   */\n      dup3\n        /* \"#utility.yul\":12087:12107   */\n      calldataload\n        /* \"#utility.yul\":12077:12107   */\n      swap1\n      pop\n        /* \"#utility.yul\":12130:12148   */\n      0xffffffffffffffff\n        /* \"#utility.yul\":12122:12128   */\n      dup2\n        /* \"#utility.yul\":12119:12149   */\n      gt\n        /* \"#utility.yul\":12116:12233   */\n      iszero\n      tag_521\n      jumpi\n        /* \"#utility.yul\":12152:12231   */\n      tag_522\n      tag_308\n      jump\t// in\n    tag_522:\n        /* \"#utility.yul\":12116:12233   */\n    tag_521:\n        /* \"#utility.yul\":12266:12270   */\n      0x20\n        /* \"#utility.yul\":12258:12264   */\n      dup4\n        /* \"#utility.yul\":12254:12271   */\n      add\n        /* \"#utility.yul\":12242:12271   */\n      swap2\n      pop\n        /* \"#utility.yul\":12320:12323   */\n      dup4\n        /* \"#utility.yul\":12312:12316   */\n      0x20\n        /* \"#utility.yul\":12304:12310   */\n      dup3\n        /* \"#utility.yul\":12300:12317   */\n      mul\n        /* \"#utility.yul\":12290:12298   */\n      dup4\n        /* \"#utility.yul\":12286:12318   */\n      add\n        /* \"#utility.yul\":12283:12324   */\n      gt\n        /* \"#utility.yul\":12280:12408   */\n      iszero\n      tag_523\n      jumpi\n        /* \"#utility.yul\":12327:12406   */\n      tag_524\n      tag_309\n      jump\t// in\n    tag_524:\n        /* \"#utility.yul\":12280:12408   */\n    tag_523:\n        /* \"#utility.yul\":11846:12414   */\n      swap3\n      pop\n      swap3\n      swap1\n      pop\n      jump\t// out\n        /* \"#utility.yul\":12420:13969   */\n    tag_82:\n        /* \"#utility.yul\":12578:12584   */\n      0x00\n        /* \"#utility.yul\":12586:12592   */\n      0x00\n        /* \"#utility.yul\":12594:12600   */\n      0x00\n        /* \"#utility.yul\":12602:12608   */\n      0x00\n        /* \"#utility.yul\":12610:12616   */\n      0x00\n        /* \"#utility.yul\":12618:12624   */\n      0x00\n        /* \"#utility.yul\":12626:12632   */\n      0x00\n        /* \"#utility.yul\":12675:12678   */\n      0xa0\n        /* \"#utility.yul\":12663:12672   */\n      dup9\n        /* \"#utility.yul\":12654:12661   */\n      dup11\n        /* \"#utility.yul\":12650:12673   */\n      sub\n        /* \"#utility.yul\":12646:12679   */\n      slt\n        /* \"#utility.yul\":12643:12763   */\n      iszero\n      tag_526\n      jumpi\n        /* \"#utility.yul\":12682:12761   */\n      tag_527\n      tag_292\n      jump\t// in\n    tag_527:\n        /* \"#utility.yul\":12643:12763   */\n    tag_526:\n        /* \"#utility.yul\":12830:12831   */\n      0x00\n        /* \"#utility.yul\":12819:12828   */\n      dup9\n        /* \"#utility.yul\":12815:12832   */\n      add\n        /* \"#utility.yul\":12802:12833   */\n      calldataload\n        /* \"#utility.yul\":12860:12878   */\n      0xffffffffffffffff\n        /* \"#utility.yul\":12852:12858   */\n      dup2\n        /* \"#utility.yul\":12849:12879   */\n      gt\n        /* \"#utility.yul\":12846:12963   */\n      iszero\n      tag_528\n      jumpi\n        /* \"#utility.yul\":12882:12961   */\n      tag_529\n      tag_293\n      jump\t// in\n    tag_529:\n        /* \"#utility.yul\":12846:12963   */\n    tag_528:\n        /* \"#utility.yul\":12987:13065   */\n      tag_530\n        /* \"#utility.yul\":13057:13064   */\n      dup11\n        /* \"#utility.yul\":13048:13054   */\n      dup3\n        /* \"#utility.yul\":13037:13046   */\n      dup12\n        /* \"#utility.yul\":13033:13055   */\n      add\n        /* \"#utility.yul\":12987:13065   */\n      tag_319\n      jump\t// in\n    tag_530:\n        /* \"#utility.yul\":12977:13065   */\n      swap8\n      pop\n        /* \"#utility.yul\":12773:13075   */\n      pop\n        /* \"#utility.yul\":13142:13144   */\n      0x20\n        /* \"#utility.yul\":13131:13140   */\n      dup9\n        /* \"#utility.yul\":13127:13145   */\n      add\n        /* \"#utility.yul\":13114:13146   */\n      calldataload\n        /* \"#utility.yul\":13173:13191   */\n      0xffffffffffffffff\n        /* \"#utility.yul\":13165:13171   */\n      dup2\n        /* \"#utility.yul\":13162:13192   */\n      gt\n        /* \"#utility.yul\":13159:13276   */\n      iszero\n      tag_531\n      jumpi\n        /* \"#utility.yul\":13195:13274   */\n      tag_532\n      tag_293\n      jump\t// in\n    tag_532:\n        /* \"#utility.yul\":13159:13276   */\n    tag_531:\n        /* \"#utility.yul\":13308:13388   */\n      tag_533\n        /* \"#utility.yul\":13380:13387   */\n      dup11\n        /* \"#utility.yul\":13371:13377   */\n      dup3\n        /* \"#utility.yul\":13360:13369   */\n      dup12\n        /* \"#utility.yul\":13356:13378   */\n      add\n        /* \"#utility.yul\":13308:13388   */\n      tag_320\n      jump\t// in\n    tag_533:\n        /* \"#utility.yul\":13290:13388   */\n      swap7\n      pop\n      swap7\n      pop\n        /* \"#utility.yul\":13085:13398   */\n      pop\n        /* \"#utility.yul\":13437:13439   */\n      0x40\n        /* \"#utility.yul\":13463:13516   */\n      tag_534\n        /* \"#utility.yul\":13508:13515   */\n      dup11\n        /* \"#utility.yul\":13499:13505   */\n      dup3\n        /* \"#utility.yul\":13488:13497   */\n      dup12\n        /* \"#utility.yul\":13484:13506   */\n      add\n        /* \"#utility.yul\":13463:13516   */\n      tag_300\n      jump\t// in\n    tag_534:\n        /* \"#utility.yul\":13453:13516   */\n      swap5\n      pop\n        /* \"#utility.yul\":13408:13526   */\n      pop\n        /* \"#utility.yul\":13565:13567   */\n      0x60\n        /* \"#utility.yul\":13591:13644   */\n      tag_535\n        /* \"#utility.yul\":13636:13643   */\n      dup11\n        /* \"#utility.yul\":13627:13633   */\n      dup3\n        /* \"#utility.yul\":13616:13625   */\n      dup12\n        /* \"#utility.yul\":13612:13634   */\n      add\n        /* \"#utility.yul\":13591:13644   */\n      tag_300\n      jump\t// in\n    tag_535:\n        /* \"#utility.yul\":13581:13644   */\n      swap4\n      pop\n        /* \"#utility.yul\":13536:13654   */\n      pop\n        /* \"#utility.yul\":13721:13724   */\n      0x80\n        /* \"#utility.yul\":13710:13719   */\n      dup9\n        /* \"#utility.yul\":13706:13725   */\n      add\n        /* \"#utility.yul\":13693:13726   */\n      calldataload\n        /* \"#utility.yul\":13753:13771   */\n      0xffffffffffffffff\n        /* \"#utility.yul\":13745:13751   */\n      dup2\n        /* \"#utility.yul\":13742:13772   */\n      gt\n        /* \"#utility.yul\":13739:13856   */\n      iszero\n      tag_536\n      jumpi\n        /* \"#utility.yul\":13775:13854   */\n      tag_537\n      tag_293\n      jump\t// in\n    tag_537:\n        /* \"#utility.yul\":13739:13856   */\n    tag_536:\n        /* \"#utility.yul\":13888:13952   */\n      tag_538\n        /* \"#utility.yul\":13944:13951   */\n      dup11\n        /* \"#utility.yul\":13935:13941   */\n      dup3\n        /* \"#utility.yul\":13924:13933   */\n      dup12\n        /* \"#utility.yul\":13920:13942   */\n      add\n        /* \"#utility.yul\":13888:13952   */\n      tag_310\n      jump\t// in\n    tag_538:\n        /* \"#utility.yul\":13870:13952   */\n      swap3\n      pop\n      swap3\n      pop\n        /* \"#utility.yul\":13664:13962   */\n      pop\n        /* \"#utility.yul\":12420:13969   */\n      swap3\n      swap6\n      swap9\n      swap2\n      swap5\n      swap8\n      pop\n      swap3\n      swap6\n      pop\n      jump\t// out\n        /* \"#utility.yul\":13975:14093   */\n    tag_321:\n        /* \"#utility.yul\":14062:14086   */\n      tag_540\n        /* \"#utility.yul\":14080:14085   */\n      dup2\n        /* \"#utility.yul\":14062:14086   */\n      tag_295\n      jump\t// in\n    tag_540:\n        /* \"#utility.yul\":14057:14060   */\n      dup3\n        /* \"#utility.yul\":14050:14087   */\n      mstore\n        /* \"#utility.yul\":13975:14093   */\n      pop\n      pop\n      jump\t// out\n        /* \"#utility.yul\":14099:14751   */\n    tag_88:\n        /* \"#utility.yul\":14298:14302   */\n      0x00\n        /* \"#utility.yul\":14336:14339   */\n      0xa0\n        /* \"#utility.yul\":14325:14334   */\n      dup3\n        /* \"#utility.yul\":14321:14340   */\n      add\n        /* \"#utility.yul\":14313:14340   */\n      swap1\n      pop\n        /* \"#utility.yul\":14350:14421   */\n      tag_542\n        /* \"#utility.yul\":14418:14419   */\n      0x00\n        /* \"#utility.yul\":14407:14416   */\n      dup4\n        /* \"#utility.yul\":14403:14420   */\n      add\n        /* \"#utility.yul\":14394:14400   */\n      dup9\n        /* \"#utility.yul\":14350:14421   */\n      tag_321\n      jump\t// in\n    tag_542:\n        /* \"#utility.yul\":14431:14503   */\n      tag_543\n        /* \"#utility.yul\":14499:14501   */\n      0x20\n        /* \"#utility.yul\":14488:14497   */\n      dup4\n        /* \"#utility.yul\":14484:14502   */\n      add\n        /* \"#utility.yul\":14475:14481   */\n      dup8\n        /* \"#utility.yul\":14431:14503   */\n      tag_311\n      jump\t// in\n    tag_543:\n        /* \"#utility.yul\":14513:14585   */\n      tag_544\n        /* \"#utility.yul\":14581:14583   */\n      0x40\n        /* \"#utility.yul\":14570:14579   */\n      dup4\n        /* \"#utility.yul\":14566:14584   */\n      add\n        /* \"#utility.yul\":14557:14563   */\n      dup7\n        /* \"#utility.yul\":14513:14585   */\n      tag_303\n      jump\t// in\n    tag_544:\n        /* \"#utility.yul\":14595:14661   */\n      tag_545\n        /* \"#utility.yul\":14657:14659   */\n      0x60\n        /* \"#utility.yul\":14646:14655   */\n      dup4\n        /* \"#utility.yul\":14642:14660   */\n      add\n        /* \"#utility.yul\":14633:14639   */\n      dup6\n        /* \"#utility.yul\":14595:14661   */\n      tag_302\n      jump\t// in\n    tag_545:\n        /* \"#utility.yul\":14671:14744   */\n      tag_546\n        /* \"#utility.yul\":14739:14742   */\n      0x80\n        /* \"#utility.yul\":14728:14737   */\n      dup4\n        /* \"#utility.yul\":14724:14743   */\n      add\n        /* \"#utility.yul\":14715:14721   */\n      dup5\n        /* \"#utility.yul\":14671:14744   */\n      tag_311\n      jump\t// in\n    tag_546:\n        /* \"#utility.yul\":14099:14751   */\n      swap7\n      swap6\n      pop\n      pop\n      pop\n      pop\n      pop\n      pop\n      jump\t// out\n        /* \"#utility.yul\":14757:15231   */\n    tag_94:\n        /* \"#utility.yul\":14825:14831   */\n      0x00\n        /* \"#utility.yul\":14833:14839   */\n      0x00\n        /* \"#utility.yul\":14882:14884   */\n      0x40\n        /* \"#utility.yul\":14870:14879   */\n      dup4\n        /* \"#utility.yul\":14861:14868   */\n      dup6\n        /* \"#utility.yul\":14857:14880   */\n      sub\n        /* \"#utility.yul\":14853:14885   */\n      slt\n        /* \"#utility.yul\":14850:14969   */\n      iszero\n      tag_548\n      jumpi\n        /* \"#utility.yul\":14888:14967   */\n      tag_549\n      tag_292\n      jump\t// in\n    tag_549:\n        /* \"#utility.yul\":14850:14969   */\n    tag_548:\n        /* \"#utility.yul\":15008:15009   */\n      0x00\n        /* \"#utility.yul\":15033:15086   */\n      tag_550\n        /* \"#utility.yul\":15078:15085   */\n      dup6\n        /* \"#utility.yul\":15069:15075   */\n      dup3\n        /* \"#utility.yul\":15058:15067   */\n      dup7\n        /* \"#utility.yul\":15054:15076   */\n      add\n        /* \"#utility.yul\":15033:15086   */\n      tag_297\n      jump\t// in\n    tag_550:\n        /* \"#utility.yul\":15023:15086   */\n      swap3\n      pop\n        /* \"#utility.yul\":14979:15096   */\n      pop\n        /* \"#utility.yul\":15135:15137   */\n      0x20\n        /* \"#utility.yul\":15161:15214   */\n      tag_551\n        /* \"#utility.yul\":15206:15213   */\n      dup6\n        /* \"#utility.yul\":15197:15203   */\n      dup3\n        /* \"#utility.yul\":15186:15195   */\n      dup7\n        /* \"#utility.yul\":15182:15204   */\n      add\n        /* \"#utility.yul\":15161:15214   */\n      tag_297\n      jump\t// in\n    tag_551:\n        /* \"#utility.yul\":15151:15214   */\n      swap2\n      pop\n        /* \"#utility.yul\":15106:15224   */\n      pop\n        /* \"#utility.yul\":14757:15231   */\n      swap3\n      pop\n      swap3\n      swap1\n      pop\n      jump\t// out\n        /* \"#utility.yul\":15237:15417   */\n    tag_194:\n        /* \"#utility.yul\":15285:15362   */\n      0x4e487b7100000000000000000000000000000000000000000000000000000000\n        /* \"#utility.yul\":15282:15283   */\n      0x00\n        /* \"#utility.yul\":15275:15363   */\n      mstore\n        /* \"#utility.yul\":15382:15386   */\n      0x21\n        /* \"#utility.yul\":15379:15380   */\n      0x04\n        /* \"#utility.yul\":15372:15387   */\n      mstore\n        /* \"#utility.yul\":15406:15410   */\n      0x24\n        /* \"#utility.yul\":15403:15404   */\n      0x00\n        /* \"#utility.yul\":15396:15411   */\n      revert\n        /* \"#utility.yul\":15423:15537   */\n    tag_322:\n        /* \"#utility.yul\":15505:15506   */\n      0x04\n        /* \"#utility.yul\":15498:15503   */\n      dup2\n        /* \"#utility.yul\":15495:15507   */\n      lt\n        /* \"#utility.yul\":15485:15531   */\n      tag_554\n      jumpi\n        /* \"#utility.yul\":15511:15529   */\n      tag_555\n      tag_194\n      jump\t// in\n    tag_555:\n        /* \"#utility.yul\":15485:15531   */\n    tag_554:\n        /* \"#utility.yul\":15423:15537   */\n      pop\n      jump\t// out\n        /* \"#utility.yul\":15543:15672   */\n    tag_323:\n        /* \"#utility.yul\":15589:15596   */\n      0x00\n        /* \"#utility.yul\":15618:15623   */\n      dup2\n        /* \"#utility.yul\":15607:15623   */\n      swap1\n      pop\n        /* \"#utility.yul\":15624:15666   */\n      tag_557\n        /* \"#utility.yul\":15660:15665   */\n      dup3\n        /* \"#utility.yul\":15624:15666   */\n      tag_322\n      jump\t// in\n    tag_557:\n        /* \"#utility.yul\":15543:15672   */\n      swap2\n      swap1\n      pop\n      jump\t// out\n        /* \"#utility.yul\":15678:15807   */\n    tag_324:\n        /* \"#utility.yul\":15735:15744   */\n      0x00\n        /* \"#utility.yul\":15768:15801   */\n      tag_559\n        /* \"#utility.yul\":15795:15800   */\n      dup3\n        /* \"#utility.yul\":15768:15801   */\n      tag_323\n      jump\t// in\n    tag_559:\n        /* \"#utility.yul\":15755:15801   */\n      swap1\n      pop\n        /* \"#utility.yul\":15678:15807   */\n      swap2\n      swap1\n      pop\n      jump\t// out\n        /* \"#utility.yul\":15813:15958   */\n    tag_325:\n        /* \"#utility.yul\":15907:15951   */\n      tag_561\n        /* \"#utility.yul\":15945:15950   */\n      dup2\n        /* \"#utility.yul\":15907:15951   */\n      tag_324\n      jump\t// in\n    tag_561:\n        /* \"#utility.yul\":15902:15905   */\n      dup3\n        /* \"#utility.yul\":15895:15952   */\n      mstore\n        /* \"#utility.yul\":15813:15958   */\n      pop\n      pop\n      jump\t// out\n        /* \"#utility.yul\":15964:17310   */\n    tag_101:\n        /* \"#utility.yul\":16345:16349   */\n      0x00\n        /* \"#utility.yul\":16383:16386   */\n      0x0160\n        /* \"#utility.yul\":16372:16381   */\n      dup3\n        /* \"#utility.yul\":16368:16387   */\n      add\n        /* \"#utility.yul\":16360:16387   */\n      swap1\n      pop\n        /* \"#utility.yul\":16397:16468   */\n      tag_563\n        /* \"#utility.yul\":16465:16466   */\n      0x00\n        /* \"#utility.yul\":16454:16463   */\n      dup4\n        /* \"#utility.yul\":16450:16467   */\n      add\n        /* \"#utility.yul\":16441:16447   */\n      dup15\n        /* \"#utility.yul\":16397:16468   */\n      tag_311\n      jump\t// in\n    tag_563:\n        /* \"#utility.yul\":16478:16550   */\n      tag_564\n        /* \"#utility.yul\":16546:16548   */\n      0x20\n        /* \"#utility.yul\":16535:16544   */\n      dup4\n        /* \"#utility.yul\":16531:16549   */\n      add\n        /* \"#utility.yul\":16522:16528   */\n      dup14\n        /* \"#utility.yul\":16478:16550   */\n      tag_321\n      jump\t// in\n    tag_564:\n        /* \"#utility.yul\":16560:16632   */\n      tag_565\n        /* \"#utility.yul\":16628:16630   */\n      0x40\n        /* \"#utility.yul\":16617:16626   */\n      dup4\n        /* \"#utility.yul\":16613:16631   */\n      add\n        /* \"#utility.yul\":16604:16610   */\n      dup13\n        /* \"#utility.yul\":16560:16632   */\n      tag_321\n      jump\t// in\n    tag_565:\n        /* \"#utility.yul\":16642:16714   */\n      tag_566\n        /* \"#utility.yul\":16710:16712   */\n      0x60\n        /* \"#utility.yul\":16699:16708   */\n      dup4\n        /* \"#utility.yul\":16695:16713   */\n      add\n        /* \"#utility.yul\":16686:16692   */\n      dup12\n        /* \"#utility.yul\":16642:16714   */\n      tag_303\n      jump\t// in\n    tag_566:\n        /* \"#utility.yul\":16724:16797   */\n      tag_567\n        /* \"#utility.yul\":16792:16795   */\n      0x80\n        /* \"#utility.yul\":16781:16790   */\n      dup4\n        /* \"#utility.yul\":16777:16796   */\n      add\n        /* \"#utility.yul\":16768:16774   */\n      dup11\n        /* \"#utility.yul\":16724:16797   */\n      tag_311\n      jump\t// in\n    tag_567:\n        /* \"#utility.yul\":16807:16880   */\n      tag_568\n        /* \"#utility.yul\":16875:16878   */\n      0xa0\n        /* \"#utility.yul\":16864:16873   */\n      dup4\n        /* \"#utility.yul\":16860:16879   */\n      add\n        /* \"#utility.yul\":16851:16857   */\n      dup10\n        /* \"#utility.yul\":16807:16880   */\n      tag_311\n      jump\t// in\n    tag_568:\n        /* \"#utility.yul\":16890:16963   */\n      tag_569\n        /* \"#utility.yul\":16958:16961   */\n      0xc0\n        /* \"#utility.yul\":16947:16956   */\n      dup4\n        /* \"#utility.yul\":16943:16962   */\n      add\n        /* \"#utility.yul\":16934:16940   */\n      dup9\n        /* \"#utility.yul\":16890:16963   */\n      tag_311\n      jump\t// in\n    tag_569:\n        /* \"#utility.yul\":16973:17046   */\n      tag_570\n        /* \"#utility.yul\":17041:17044   */\n      0xe0\n        /* \"#utility.yul\":17030:17039   */\n      dup4\n        /* \"#utility.yul\":17026:17045   */\n      add\n        /* \"#utility.yul\":17017:17023   */\n      dup8\n        /* \"#utility.yul\":16973:17046   */\n      tag_303\n      jump\t// in\n    tag_570:\n        /* \"#utility.yul\":17056:17129   */\n      tag_571\n        /* \"#utility.yul\":17124:17127   */\n      0x0100\n        /* \"#utility.yul\":17113:17122   */\n      dup4\n        /* \"#utility.yul\":17109:17128   */\n      add\n        /* \"#utility.yul\":17100:17106   */\n      dup7\n        /* \"#utility.yul\":17056:17129   */\n      tag_303\n      jump\t// in\n    tag_571:\n        /* \"#utility.yul\":17139:17219   */\n      tag_572\n        /* \"#utility.yul\":17214:17217   */\n      0x0120\n        /* \"#utility.yul\":17203:17212   */\n      dup4\n        /* \"#utility.yul\":17199:17218   */\n      add\n        /* \"#utility.yul\":17190:17196   */\n      dup6\n        /* \"#utility.yul\":17139:17219   */\n      tag_325\n      jump\t// in\n    tag_572:\n        /* \"#utility.yul\":17229:17303   */\n      tag_573\n        /* \"#utility.yul\":17298:17301   */\n      0x0140\n        /* \"#utility.yul\":17287:17296   */\n      dup4\n        /* \"#utility.yul\":17283:17302   */\n      add\n        /* \"#utility.yul\":17273:17280   */\n      dup5\n        /* \"#utility.yul\":17229:17303   */\n      tag_311\n      jump\t// in\n    tag_573:\n        /* \"#utility.yul\":15964:17310   */\n      swap13\n      swap12\n      pop\n      pop\n      pop\n      pop\n      pop\n      pop\n      pop\n      pop\n      pop\n      pop\n      pop\n      pop\n      jump\t// out\n        /* \"#utility.yul\":17316:17496   */\n    tag_326:\n        /* \"#utility.yul\":17364:17441   */\n      0x4e487b7100000000000000000000000000000000000000000000000000000000\n        /* \"#utility.yul\":17361:17362   */\n      0x00\n        /* \"#utility.yul\":17354:17442   */\n      mstore\n        /* \"#utility.yul\":17461:17465   */\n      0x22\n        /* \"#utility.yul\":17458:17459   */\n      0x04\n        /* \"#utility.yul\":17451:17466   */\n      mstore\n        /* \"#utility.yul\":17485:17489   */\n      0x24\n        /* \"#utility.yul\":17482:17483   */\n      0x00\n        /* \"#utility.yul\":17475:17490   */\n      revert\n        /* \"#utility.yul\":17502:17822   */\n    tag_107:\n        /* \"#utility.yul\":17546:17552   */\n      0x00\n        /* \"#utility.yul\":17583:17584   */\n      0x02\n        /* \"#utility.yul\":17577:17581   */\n      dup3\n        /* \"#utility.yul\":17573:17585   */\n      div\n        /* \"#utility.yul\":17563:17585   */\n      swap1\n      pop\n        /* \"#utility.yul\":17630:17631   */\n      0x01\n        /* \"#utility.yul\":17624:17628   */\n      dup3\n        /* \"#utility.yul\":17620:17632   */\n      and\n        /* \"#utility.yul\":17651:17669   */\n      dup1\n        /* \"#utility.yul\":17641:17722   */\n      tag_576\n      jumpi\n        /* \"#utility.yul\":17707:17711   */\n      0x7f\n        /* \"#utility.yul\":17699:17705   */\n      dup3\n        /* \"#utility.yul\":17695:17712   */\n      and\n        /* \"#utility.yul\":17685:17712   */\n      swap2\n      pop\n        /* \"#utility.yul\":17641:17722   */\n    tag_576:\n        /* \"#utility.yul\":17769:17771   */\n      0x20\n        /* \"#utility.yul\":17761:17767   */\n      dup3\n        /* \"#utility.yul\":17758:17772   */\n      lt\n        /* \"#utility.yul\":17738:17756   */\n      dup2\n        /* \"#utility.yul\":17735:17773   */\n      sub\n        /* \"#utility.yul\":17732:17816   */\n      tag_577\n      jumpi\n        /* \"#utility.yul\":17788:17806   */\n      tag_578\n      tag_326\n      jump\t// in\n    tag_578:\n        /* \"#utility.yul\":17732:17816   */\n    tag_577:\n        /* \"#utility.yul\":17553:17822   */\n      pop\n        /* \"#utility.yul\":17502:17822   */\n      swap2\n      swap1\n      pop\n      jump\t// out\n        /* \"#utility.yul\":17828:17991   */\n    tag_327:\n        /* \"#utility.yul\":17968:17983   */\n      0x5961207265676973747261646f00000000000000000000000000000000000000\n        /* \"#utility.yul\":17964:17965   */\n      0x00\n        /* \"#utility.yul\":17956:17962   */\n      dup3\n        /* \"#utility.yul\":17952:17966   */\n      add\n        /* \"#utility.yul\":17945:17984   */\n      mstore\n        /* \"#utility.yul\":17828:17991   */\n      pop\n      jump\t// out\n        /* \"#utility.yul\":17997:18363   */\n    tag_328:\n        /* \"#utility.yul\":18139:18142   */\n      0x00\n        /* \"#utility.yul\":18160:18227   */\n      tag_581\n        /* \"#utility.yul\":18224:18226   */\n      0x0d\n        /* \"#utility.yul\":18219:18222   */\n      dup4\n        /* \"#utility.yul\":18160:18227   */\n      tag_287\n      jump\t// in\n    tag_581:\n        /* \"#utility.yul\":18153:18227   */\n      swap2\n      pop\n        /* \"#utility.yul\":18236:18329   */\n      tag_582\n        /* \"#utility.yul\":18325:18328   */\n      dup3\n        /* \"#utility.yul\":18236:18329   */\n      tag_327\n      jump\t// in\n    tag_582:\n        /* \"#utility.yul\":18354:18356   */\n      0x20\n        /* \"#utility.yul\":18349:18352   */\n      dup3\n        /* \"#utility.yul\":18345:18357   */\n      add\n        /* \"#utility.yul\":18338:18357   */\n      swap1\n      pop\n        /* \"#utility.yul\":17997:18363   */\n      swap2\n      swap1\n      pop\n      jump\t// out\n        /* \"#utility.yul\":18369:18788   */\n    tag_121:\n        /* \"#utility.yul\":18535:18539   */\n      0x00\n        /* \"#utility.yul\":18573:18575   */\n      0x20\n        /* \"#utility.yul\":18562:18571   */\n      dup3\n        /* \"#utility.yul\":18558:18576   */\n      add\n        /* \"#utility.yul\":18550:18576   */\n      swap1\n      pop\n        /* \"#utility.yul\":18622:18631   */\n      dup2\n        /* \"#utility.yul\":18616:18620   */\n      dup2\n        /* \"#utility.yul\":18612:18632   */\n      sub\n        /* \"#utility.yul\":18608:18609   */\n      0x00\n        /* \"#utility.yul\":18597:18606   */\n      dup4\n        /* \"#utility.yul\":18593:18610   */\n      add\n        /* \"#utility.yul\":18586:18633   */\n      mstore\n        /* \"#utility.yul\":18650:18781   */\n      tag_584\n        /* \"#utility.yul\":18776:18780   */\n      dup2\n        /* \"#utility.yul\":18650:18781   */\n      tag_328\n      jump\t// in\n    tag_584:\n        /* \"#utility.yul\":18642:18781   */\n      swap1\n      pop\n        /* \"#utility.yul\":18369:18788   */\n      swap2\n      swap1\n      pop\n      jump\t// out\n        /* \"#utility.yul\":18794:18959   */\n    tag_329:\n        /* \"#utility.yul\":18934:18951   */\n      0x44657669636520796120757361646f0000000000000000000000000000000000\n        /* \"#utility.yul\":18930:18931   */\n      0x00\n        /* \"#utility.yul\":18922:18928   */\n      dup3\n        /* \"#utility.yul\":18918:18932   */\n      add\n        /* \"#utility.yul\":18911:18952   */\n      mstore\n        /* \"#utility.yul\":18794:18959   */\n      pop\n      jump\t// out\n        /* \"#utility.yul\":18965:19331   */\n    tag_330:\n        /* \"#utility.yul\":19107:19110   */\n      0x00\n        /* \"#utility.yul\":19128:19195   */\n      tag_587\n        /* \"#utility.yul\":19192:19194   */\n      0x0f\n        /* \"#utility.yul\":19187:19190   */\n      dup4\n        /* \"#utility.yul\":19128:19195   */\n      tag_287\n      jump\t// in\n    tag_587:\n        /* \"#utility.yul\":19121:19195   */\n      swap2\n      pop\n        /* \"#utility.yul\":19204:19297   */\n      tag_588\n        /* \"#utility.yul\":19293:19296   */\n      dup3\n        /* \"#utility.yul\":19204:19297   */\n      tag_329\n      jump\t// in\n    tag_588:\n        /* \"#utility.yul\":19322:19324   */\n      0x20\n        /* \"#utility.yul\":19317:19320   */\n      dup3\n        /* \"#utility.yul\":19313:19325   */\n      add\n        /* \"#utility.yul\":19306:19325   */\n      swap1\n      pop\n        /* \"#utility.yul\":18965:19331   */\n      swap2\n      swap1\n      pop\n      jump\t// out\n        /* \"#utility.yul\":19337:19756   */\n    tag_124:\n        /* \"#utility.yul\":19503:19507   */\n      0x00\n        /* \"#utility.yul\":19541:19543   */\n      0x20\n        /* \"#utility.yul\":19530:19539   */\n      dup3\n        /* \"#utility.yul\":19526:19544   */\n      add\n        /* \"#utility.yul\":19518:19544   */\n      swap1\n      pop\n        /* \"#utility.yul\":19590:19599   */\n      dup2\n        /* \"#utility.yul\":19584:19588   */\n      dup2\n        /* \"#utility.yul\":19580:19600   */\n      sub\n        /* \"#utility.yul\":19576:19577   */\n      0x00\n        /* \"#utility.yul\":19565:19574   */\n      dup4\n        /* \"#utility.yul\":19561:19578   */\n      add\n        /* \"#utility.yul\":19554:19601   */\n      mstore\n        /* \"#utility.yul\":19618:19749   */\n      tag_590\n        /* \"#utility.yul\":19744:19748   */\n      dup2\n        /* \"#utility.yul\":19618:19749   */\n      tag_330\n      jump\t// in\n    tag_590:\n        /* \"#utility.yul\":19610:19749   */\n      swap1\n      pop\n        /* \"#utility.yul\":19337:19756   */\n      swap2\n      swap1\n      pop\n      jump\t// out\n        /* \"#utility.yul\":19762:19942   */\n    tag_331:\n        /* \"#utility.yul\":19810:19887   */\n      0x4e487b7100000000000000000000000000000000000000000000000000000000\n        /* \"#utility.yul\":19807:19808   */\n      0x00\n        /* \"#utility.yul\":19800:19888   */\n      mstore\n        /* \"#utility.yul\":19907:19911   */\n      0x11\n        /* \"#utility.yul\":19904:19905   */\n      0x04\n        /* \"#utility.yul\":19897:19912   */\n      mstore\n        /* \"#utility.yul\":19931:19935   */\n      0x24\n        /* \"#utility.yul\":19928:19929   */\n      0x00\n        /* \"#utility.yul\":19921:19936   */\n      revert\n        /* \"#utility.yul\":19948:20139   */\n    tag_126:\n        /* \"#utility.yul\":19988:19991   */\n      0x00\n        /* \"#utility.yul\":20007:20027   */\n      tag_593\n        /* \"#utility.yul\":20025:20026   */\n      dup3\n        /* \"#utility.yul\":20007:20027   */\n      tag_298\n      jump\t// in\n    tag_593:\n        /* \"#utility.yul\":20002:20027   */\n      swap2\n      pop\n        /* \"#utility.yul\":20041:20061   */\n      tag_594\n        /* \"#utility.yul\":20059:20060   */\n      dup4\n        /* \"#utility.yul\":20041:20061   */\n      tag_298\n      jump\t// in\n    tag_594:\n        /* \"#utility.yul\":20036:20061   */\n      swap3\n      pop\n        /* \"#utility.yul\":20084:20085   */\n      dup3\n        /* \"#utility.yul\":20081:20082   */\n      dup3\n        /* \"#utility.yul\":20077:20086   */\n      add\n        /* \"#utility.yul\":20070:20086   */\n      swap1\n      pop\n        /* \"#utility.yul\":20105:20108   */\n      dup1\n        /* \"#utility.yul\":20102:20103   */\n      dup3\n        /* \"#utility.yul\":20099:20109   */\n      gt\n        /* \"#utility.yul\":20096:20132   */\n      iszero\n      tag_595\n      jumpi\n        /* \"#utility.yul\":20112:20130   */\n      tag_596\n      tag_331\n      jump\t// in\n    tag_596:\n        /* \"#utility.yul\":20096:20132   */\n    tag_595:\n        /* \"#utility.yul\":19948:20139   */\n      swap3\n      swap2\n      pop\n      pop\n      jump\t// out\n        /* \"#utility.yul\":20145:20313   */\n    tag_332:\n        /* \"#utility.yul\":20285:20305   */\n      0x54696d657374616d7020657870697261646f0000000000000000000000000000\n        /* \"#utility.yul\":20281:20282   */\n      0x00\n        /* \"#utility.yul\":20273:20279   */\n      dup3\n        /* \"#utility.yul\":20269:20283   */\n      add\n        /* \"#utility.yul\":20262:20306   */\n      mstore\n        /* \"#utility.yul\":20145:20313   */\n      pop\n      jump\t// out\n        /* \"#utility.yul\":20319:20685   */\n    tag_333:\n        /* \"#utility.yul\":20461:20464   */\n      0x00\n        /* \"#utility.yul\":20482:20549   */\n      tag_599\n        /* \"#utility.yul\":20546:20548   */\n      0x12\n        /* \"#utility.yul\":20541:20544   */\n      dup4\n        /* \"#utility.yul\":20482:20549   */\n      tag_287\n      jump\t// in\n    tag_599:\n        /* \"#utility.yul\":20475:20549   */\n      swap2\n      pop\n        /* \"#utility.yul\":20558:20651   */\n      tag_600\n        /* \"#utility.yul\":20647:20650   */\n      dup3\n        /* \"#utility.yul\":20558:20651   */\n      tag_332\n      jump\t// in\n    tag_600:\n        /* \"#utility.yul\":20676:20678   */\n      0x20\n        /* \"#utility.yul\":20671:20674   */\n      dup3\n        /* \"#utility.yul\":20667:20679   */\n      add\n        /* \"#utility.yul\":20660:20679   */\n      swap1\n      pop\n        /* \"#utility.yul\":20319:20685   */\n      swap2\n      swap1\n      pop\n      jump\t// out\n        /* \"#utility.yul\":20691:21110   */\n    tag_129:\n        /* \"#utility.yul\":20857:20861   */\n      0x00\n        /* \"#utility.yul\":20895:20897   */\n      0x20\n        /* \"#utility.yul\":20884:20893   */\n      dup3\n        /* \"#utility.yul\":20880:20898   */\n      add\n        /* \"#utility.yul\":20872:20898   */\n      swap1\n      pop\n        /* \"#utility.yul\":20944:20953   */\n      dup2\n        /* \"#utility.yul\":20938:20942   */\n      dup2\n        /* \"#utility.yul\":20934:20954   */\n      sub\n        /* \"#utility.yul\":20930:20931   */\n      0x00\n        /* \"#utility.yul\":20919:20928   */\n      dup4\n        /* \"#utility.yul\":20915:20932   */\n      add\n        /* \"#utility.yul\":20908:20955   */\n      mstore\n        /* \"#utility.yul\":20972:21103   */\n      tag_602\n        /* \"#utility.yul\":21098:21102   */\n      dup2\n        /* \"#utility.yul\":20972:21103   */\n      tag_333\n      jump\t// in\n    tag_602:\n        /* \"#utility.yul\":20964:21103   */\n      swap1\n      pop\n        /* \"#utility.yul\":20691:21110   */\n      swap2\n      swap1\n      pop\n      jump\t// out\n        /* \"#utility.yul\":21116:21210   */\n    tag_334:\n        /* \"#utility.yul\":21149:21157   */\n      0x00\n        /* \"#utility.yul\":21197:21202   */\n      dup2\n        /* \"#utility.yul\":21193:21195   */\n      0x60\n        /* \"#utility.yul\":21189:21203   */\n      shl\n        /* \"#utility.yul\":21168:21203   */\n      swap1\n      pop\n        /* \"#utility.yul\":21116:21210   */\n      swap2\n      swap1\n      pop\n      jump\t// out\n        /* \"#utility.yul\":21216:21310   */\n    tag_335:\n        /* \"#utility.yul\":21255:21262   */\n      0x00\n        /* \"#utility.yul\":21284:21304   */\n      tag_605\n        /* \"#utility.yul\":21298:21303   */\n      dup3\n        /* \"#utility.yul\":21284:21304   */\n      tag_334\n      jump\t// in\n    tag_605:\n        /* \"#utility.yul\":21273:21304   */\n      swap1\n      pop\n        /* \"#utility.yul\":21216:21310   */\n      swap2\n      swap1\n      pop\n      jump\t// out\n        /* \"#utility.yul\":21316:21416   */\n    tag_336:\n        /* \"#utility.yul\":21355:21362   */\n      0x00\n        /* \"#utility.yul\":21384:21410   */\n      tag_607\n        /* \"#utility.yul\":21404:21409   */\n      dup3\n        /* \"#utility.yul\":21384:21410   */\n      tag_335\n      jump\t// in\n    tag_607:\n        /* \"#utility.yul\":21373:21410   */\n      swap1\n      pop\n        /* \"#utility.yul\":21316:21416   */\n      swap2\n      swap1\n      pop\n      jump\t// out\n        /* \"#utility.yul\":21422:21579   */\n    tag_337:\n        /* \"#utility.yul\":21527:21572   */\n      tag_609\n        /* \"#utility.yul\":21547:21571   */\n      tag_610\n        /* \"#utility.yul\":21565:21570   */\n      dup3\n        /* \"#utility.yul\":21547:21571   */\n      tag_295\n      jump\t// in\n    tag_610:\n        /* \"#utility.yul\":21527:21572   */\n      tag_336\n      jump\t// in\n    tag_609:\n        /* \"#utility.yul\":21522:21525   */\n      dup3\n        /* \"#utility.yul\":21515:21573   */\n      mstore\n        /* \"#utility.yul\":21422:21579   */\n      pop\n      pop\n      jump\t// out\n        /* \"#utility.yul\":21585:21664   */\n    tag_338:\n        /* \"#utility.yul\":21624:21631   */\n      0x00\n        /* \"#utility.yul\":21653:21658   */\n      dup2\n        /* \"#utility.yul\":21642:21658   */\n      swap1\n      pop\n        /* \"#utility.yul\":21585:21664   */\n      swap2\n      swap1\n      pop\n      jump\t// out\n        /* \"#utility.yul\":21670:21827   */\n    tag_339:\n        /* \"#utility.yul\":21775:21820   */\n      tag_613\n        /* \"#utility.yul\":21795:21819   */\n      tag_614\n        /* \"#utility.yul\":21813:21818   */\n      dup3\n        /* \"#utility.yul\":21795:21819   */\n      tag_304\n      jump\t// in\n    tag_614:\n        /* \"#utility.yul\":21775:21820   */\n      tag_338\n      jump\t// in\n    tag_613:\n        /* \"#utility.yul\":21770:21773   */\n      dup3\n        /* \"#utility.yul\":21763:21821   */\n      mstore\n        /* \"#utility.yul\":21670:21827   */\n      pop\n      pop\n      jump\t// out\n        /* \"#utility.yul\":21833:21912   */\n    tag_340:\n        /* \"#utility.yul\":21872:21879   */\n      0x00\n        /* \"#utility.yul\":21901:21906   */\n      dup2\n        /* \"#utility.yul\":21890:21906   */\n      swap1\n      pop\n        /* \"#utility.yul\":21833:21912   */\n      swap2\n      swap1\n      pop\n      jump\t// out\n        /* \"#utility.yul\":21918:22075   */\n    tag_341:\n        /* \"#utility.yul\":22023:22068   */\n      tag_617\n        /* \"#utility.yul\":22043:22067   */\n      tag_618\n        /* \"#utility.yul\":22061:22066   */\n      dup3\n        /* \"#utility.yul\":22043:22067   */\n      tag_298\n      jump\t// in\n    tag_618:\n        /* \"#utility.yul\":22023:22068   */\n      tag_340\n      jump\t// in\n    tag_617:\n        /* \"#utility.yul\":22018:22021   */\n      dup3\n        /* \"#utility.yul\":22011:22069   */\n      mstore\n        /* \"#utility.yul\":21918:22075   */\n      pop\n      pop\n      jump\t// out\n        /* \"#utility.yul\":22081:22760   */\n    tag_131:\n        /* \"#utility.yul\":22277:22280   */\n      0x00\n        /* \"#utility.yul\":22292:22367   */\n      tag_620\n        /* \"#utility.yul\":22363:22366   */\n      dup3\n        /* \"#utility.yul\":22354:22360   */\n      dup8\n        /* \"#utility.yul\":22292:22367   */\n      tag_337\n      jump\t// in\n    tag_620:\n        /* \"#utility.yul\":22392:22394   */\n      0x14\n        /* \"#utility.yul\":22387:22390   */\n      dup3\n        /* \"#utility.yul\":22383:22395   */\n      add\n        /* \"#utility.yul\":22376:22395   */\n      swap2\n      pop\n        /* \"#utility.yul\":22405:22480   */\n      tag_621\n        /* \"#utility.yul\":22476:22479   */\n      dup3\n        /* \"#utility.yul\":22467:22473   */\n      dup7\n        /* \"#utility.yul\":22405:22480   */\n      tag_339\n      jump\t// in\n    tag_621:\n        /* \"#utility.yul\":22505:22507   */\n      0x20\n        /* \"#utility.yul\":22500:22503   */\n      dup3\n        /* \"#utility.yul\":22496:22508   */\n      add\n        /* \"#utility.yul\":22489:22508   */\n      swap2\n      pop\n        /* \"#utility.yul\":22518:22593   */\n      tag_622\n        /* \"#utility.yul\":22589:22592   */\n      dup3\n        /* \"#utility.yul\":22580:22586   */\n      dup6\n        /* \"#utility.yul\":22518:22593   */\n      tag_341\n      jump\t// in\n    tag_622:\n        /* \"#utility.yul\":22618:22620   */\n      0x20\n        /* \"#utility.yul\":22613:22616   */\n      dup3\n        /* \"#utility.yul\":22609:22621   */\n      add\n        /* \"#utility.yul\":22602:22621   */\n      swap2\n      pop\n        /* \"#utility.yul\":22631:22706   */\n      tag_623\n        /* \"#utility.yul\":22702:22705   */\n      dup3\n        /* \"#utility.yul\":22693:22699   */\n      dup5\n        /* \"#utility.yul\":22631:22706   */\n      tag_341\n      jump\t// in\n    tag_623:\n        /* \"#utility.yul\":22731:22733   */\n      0x20\n        /* \"#utility.yul\":22726:22729   */\n      dup3\n        /* \"#utility.yul\":22722:22734   */\n      add\n        /* \"#utility.yul\":22715:22734   */\n      swap2\n      pop\n        /* \"#utility.yul\":22751:22754   */\n      dup2\n        /* \"#utility.yul\":22744:22754   */\n      swap1\n      pop\n        /* \"#utility.yul\":22081:22760   */\n      swap6\n      swap5\n      pop\n      pop\n      pop\n      pop\n      pop\n      jump\t// out\n        /* \"#utility.yul\":22766:22930   */\n    tag_342:\n        /* \"#utility.yul\":22906:22922   */\n      0x4669726d6120696e76616c696461000000000000000000000000000000000000\n        /* \"#utility.yul\":22902:22903   */\n      0x00\n        /* \"#utility.yul\":22894:22900   */\n      dup3\n        /* \"#utility.yul\":22890:22904   */\n      add\n        /* \"#utility.yul\":22883:22923   */\n      mstore\n        /* \"#utility.yul\":22766:22930   */\n      pop\n      jump\t// out\n        /* \"#utility.yul\":22936:23302   */\n    tag_343:\n        /* \"#utility.yul\":23078:23081   */\n      0x00\n        /* \"#utility.yul\":23099:23166   */\n      tag_626\n        /* \"#utility.yul\":23163:23165   */\n      0x0e\n        /* \"#utility.yul\":23158:23161   */\n      dup4\n        /* \"#utility.yul\":23099:23166   */\n      tag_287\n      jump\t// in\n    tag_626:\n        /* \"#utility.yul\":23092:23166   */\n      swap2\n      pop\n        /* \"#utility.yul\":23175:23268   */\n      tag_627\n        /* \"#utility.yul\":23264:23267   */\n      dup3\n        /* \"#utility.yul\":23175:23268   */\n      tag_342\n      jump\t// in\n    tag_627:\n        /* \"#utility.yul\":23293:23295   */\n      0x20\n        /* \"#utility.yul\":23288:23291   */\n      dup3\n        /* \"#utility.yul\":23284:23296   */\n      add\n        /* \"#utility.yul\":23277:23296   */\n      swap1\n      pop\n        /* \"#utility.yul\":22936:23302   */\n      swap2\n      swap1\n      pop\n      jump\t// out\n        /* \"#utility.yul\":23308:23727   */\n    tag_136:\n        /* \"#utility.yul\":23474:23478   */\n      0x00\n        /* \"#utility.yul\":23512:23514   */\n      0x20\n        /* \"#utility.yul\":23501:23510   */\n      dup3\n        /* \"#utility.yul\":23497:23515   */\n      add\n        /* \"#utility.yul\":23489:23515   */\n      swap1\n      pop\n        /* \"#utility.yul\":23561:23570   */\n      dup2\n        /* \"#utility.yul\":23555:23559   */\n      dup2\n        /* \"#utility.yul\":23551:23571   */\n      sub\n        /* \"#utility.yul\":23547:23548   */\n      0x00\n        /* \"#utility.yul\":23536:23545   */\n      dup4\n        /* \"#utility.yul\":23532:23549   */\n      add\n        /* \"#utility.yul\":23525:23572   */\n      mstore\n        /* \"#utility.yul\":23589:23720   */\n      tag_629\n        /* \"#utility.yul\":23715:23719   */\n      dup2\n        /* \"#utility.yul\":23589:23720   */\n      tag_343\n      jump\t// in\n    tag_629:\n        /* \"#utility.yul\":23581:23720   */\n      swap1\n      pop\n        /* \"#utility.yul\":23308:23727   */\n      swap2\n      swap1\n      pop\n      jump\t// out\n        /* \"#utility.yul\":23733:23881   */\n    tag_344:\n        /* \"#utility.yul\":23835:23846   */\n      0x00\n        /* \"#utility.yul\":23872:23875   */\n      dup2\n        /* \"#utility.yul\":23857:23875   */\n      swap1\n      pop\n        /* \"#utility.yul\":23733:23881   */\n      swap3\n      swap2\n      pop\n      pop\n      jump\t// out\n        /* \"#utility.yul\":23887:24044   */\n    tag_345:\n        /* \"#utility.yul\":24027:24036   */\n      0x67656e6573697300000000000000000000000000000000000000000000000000\n        /* \"#utility.yul\":24023:24024   */\n      0x00\n        /* \"#utility.yul\":24015:24021   */\n      dup3\n        /* \"#utility.yul\":24011:24025   */\n      add\n        /* \"#utility.yul\":24004:24037   */\n      mstore\n        /* \"#utility.yul\":23887:24044   */\n      pop\n      jump\t// out\n        /* \"#utility.yul\":24050:24450   */\n    tag_346:\n        /* \"#utility.yul\":24210:24213   */\n      0x00\n        /* \"#utility.yul\":24231:24315   */\n      tag_633\n        /* \"#utility.yul\":24313:24314   */\n      0x07\n        /* \"#utility.yul\":24308:24311   */\n      dup4\n        /* \"#utility.yul\":24231:24315   */\n      tag_344\n      jump\t// in\n    tag_633:\n        /* \"#utility.yul\":24224:24315   */\n      swap2\n      pop\n        /* \"#utility.yul\":24324:24417   */\n      tag_634\n        /* \"#utility.yul\":24413:24416   */\n      dup3\n        /* \"#utility.yul\":24324:24417   */\n      tag_345\n      jump\t// in\n    tag_634:\n        /* \"#utility.yul\":24442:24443   */\n      0x07\n        /* \"#utility.yul\":24437:24440   */\n      dup3\n        /* \"#utility.yul\":24433:24444   */\n      add\n        /* \"#utility.yul\":24426:24444   */\n      swap1\n      pop\n        /* \"#utility.yul\":24050:24450   */\n      swap2\n      swap1\n      pop\n      jump\t// out\n        /* \"#utility.yul\":24456:25260   */\n    tag_138:\n        /* \"#utility.yul\":24725:24728   */\n      0x00\n        /* \"#utility.yul\":24740:24815   */\n      tag_636\n        /* \"#utility.yul\":24811:24814   */\n      dup3\n        /* \"#utility.yul\":24802:24808   */\n      dup7\n        /* \"#utility.yul\":24740:24815   */\n      tag_337\n      jump\t// in\n    tag_636:\n        /* \"#utility.yul\":24840:24842   */\n      0x14\n        /* \"#utility.yul\":24835:24838   */\n      dup3\n        /* \"#utility.yul\":24831:24843   */\n      add\n        /* \"#utility.yul\":24824:24843   */\n      swap2\n      pop\n        /* \"#utility.yul\":24853:24928   */\n      tag_637\n        /* \"#utility.yul\":24924:24927   */\n      dup3\n        /* \"#utility.yul\":24915:24921   */\n      dup6\n        /* \"#utility.yul\":24853:24928   */\n      tag_339\n      jump\t// in\n    tag_637:\n        /* \"#utility.yul\":24953:24955   */\n      0x20\n        /* \"#utility.yul\":24948:24951   */\n      dup3\n        /* \"#utility.yul\":24944:24956   */\n      add\n        /* \"#utility.yul\":24937:24956   */\n      swap2\n      pop\n        /* \"#utility.yul\":24966:25041   */\n      tag_638\n        /* \"#utility.yul\":25037:25040   */\n      dup3\n        /* \"#utility.yul\":25028:25034   */\n      dup5\n        /* \"#utility.yul\":24966:25041   */\n      tag_341\n      jump\t// in\n    tag_638:\n        /* \"#utility.yul\":25066:25068   */\n      0x20\n        /* \"#utility.yul\":25061:25064   */\n      dup3\n        /* \"#utility.yul\":25057:25069   */\n      add\n        /* \"#utility.yul\":25050:25069   */\n      swap2\n      pop\n        /* \"#utility.yul\":25086:25234   */\n      tag_639\n        /* \"#utility.yul\":25230:25233   */\n      dup3\n        /* \"#utility.yul\":25086:25234   */\n      tag_346\n      jump\t// in\n    tag_639:\n        /* \"#utility.yul\":25079:25234   */\n      swap2\n      pop\n        /* \"#utility.yul\":25251:25254   */\n      dup2\n        /* \"#utility.yul\":25244:25254   */\n      swap1\n      pop\n        /* \"#utility.yul\":24456:25260   */\n      swap5\n      swap4\n      pop\n      pop\n      pop\n      pop\n      jump\t// out\n        /* \"#utility.yul\":25266:25708   */\n    tag_140:\n        /* \"#utility.yul\":25415:25419   */\n      0x00\n        /* \"#utility.yul\":25453:25455   */\n      0x60\n        /* \"#utility.yul\":25442:25451   */\n      dup3\n        /* \"#utility.yul\":25438:25456   */\n      add\n        /* \"#utility.yul\":25430:25456   */\n      swap1\n      pop\n        /* \"#utility.yul\":25466:25537   */\n      tag_641\n        /* \"#utility.yul\":25534:25535   */\n      0x00\n        /* \"#utility.yul\":25523:25532   */\n      dup4\n        /* \"#utility.yul\":25519:25536   */\n      add\n        /* \"#utility.yul\":25510:25516   */\n      dup7\n        /* \"#utility.yul\":25466:25537   */\n      tag_311\n      jump\t// in\n    tag_641:\n        /* \"#utility.yul\":25547:25619   */\n      tag_642\n        /* \"#utility.yul\":25615:25617   */\n      0x20\n        /* \"#utility.yul\":25604:25613   */\n      dup4\n        /* \"#utility.yul\":25600:25618   */\n      add\n        /* \"#utility.yul\":25591:25597   */\n      dup6\n        /* \"#utility.yul\":25547:25619   */\n      tag_311\n      jump\t// in\n    tag_642:\n        /* \"#utility.yul\":25629:25701   */\n      tag_643\n        /* \"#utility.yul\":25697:25699   */\n      0x40\n        /* \"#utility.yul\":25686:25695   */\n      dup4\n        /* \"#utility.yul\":25682:25700   */\n      add\n        /* \"#utility.yul\":25673:25679   */\n      dup5\n        /* \"#utility.yul\":25629:25701   */\n      tag_303\n      jump\t// in\n    tag_643:\n        /* \"#utility.yul\":25266:25708   */\n      swap5\n      swap4\n      pop\n      pop\n      pop\n      pop\n      jump\t// out\n        /* \"#utility.yul\":25714:26675   */\n    tag_157:\n        /* \"#utility.yul\":25966:25969   */\n      0x00\n        /* \"#utility.yul\":25981:26056   */\n      tag_645\n        /* \"#utility.yul\":26052:26055   */\n      dup3\n        /* \"#utility.yul\":26043:26049   */\n      dup10\n        /* \"#utility.yul\":25981:26056   */\n      tag_339\n      jump\t// in\n    tag_645:\n        /* \"#utility.yul\":26081:26083   */\n      0x20\n        /* \"#utility.yul\":26076:26079   */\n      dup3\n        /* \"#utility.yul\":26072:26084   */\n      add\n        /* \"#utility.yul\":26065:26084   */\n      swap2\n      pop\n        /* \"#utility.yul\":26094:26169   */\n      tag_646\n        /* \"#utility.yul\":26165:26168   */\n      dup3\n        /* \"#utility.yul\":26156:26162   */\n      dup9\n        /* \"#utility.yul\":26094:26169   */\n      tag_341\n      jump\t// in\n    tag_646:\n        /* \"#utility.yul\":26194:26196   */\n      0x20\n        /* \"#utility.yul\":26189:26192   */\n      dup3\n        /* \"#utility.yul\":26185:26197   */\n      add\n        /* \"#utility.yul\":26178:26197   */\n      swap2\n      pop\n        /* \"#utility.yul\":26207:26282   */\n      tag_647\n        /* \"#utility.yul\":26278:26281   */\n      dup3\n        /* \"#utility.yul\":26269:26275   */\n      dup8\n        /* \"#utility.yul\":26207:26282   */\n      tag_337\n      jump\t// in\n    tag_647:\n        /* \"#utility.yul\":26307:26309   */\n      0x14\n        /* \"#utility.yul\":26302:26305   */\n      dup3\n        /* \"#utility.yul\":26298:26310   */\n      add\n        /* \"#utility.yul\":26291:26310   */\n      swap2\n      pop\n        /* \"#utility.yul\":26320:26395   */\n      tag_648\n        /* \"#utility.yul\":26391:26394   */\n      dup3\n        /* \"#utility.yul\":26382:26388   */\n      dup7\n        /* \"#utility.yul\":26320:26395   */\n      tag_341\n      jump\t// in\n    tag_648:\n        /* \"#utility.yul\":26420:26422   */\n      0x20\n        /* \"#utility.yul\":26415:26418   */\n      dup3\n        /* \"#utility.yul\":26411:26423   */\n      add\n        /* \"#utility.yul\":26404:26423   */\n      swap2\n      pop\n        /* \"#utility.yul\":26433:26508   */\n      tag_649\n        /* \"#utility.yul\":26504:26507   */\n      dup3\n        /* \"#utility.yul\":26495:26501   */\n      dup6\n        /* \"#utility.yul\":26433:26508   */\n      tag_341\n      jump\t// in\n    tag_649:\n        /* \"#utility.yul\":26533:26535   */\n      0x20\n        /* \"#utility.yul\":26528:26531   */\n      dup3\n        /* \"#utility.yul\":26524:26536   */\n      add\n        /* \"#utility.yul\":26517:26536   */\n      swap2\n      pop\n        /* \"#utility.yul\":26546:26621   */\n      tag_650\n        /* \"#utility.yul\":26617:26620   */\n      dup3\n        /* \"#utility.yul\":26608:26614   */\n      dup5\n        /* \"#utility.yul\":26546:26621   */\n      tag_339\n      jump\t// in\n    tag_650:\n        /* \"#utility.yul\":26646:26648   */\n      0x20\n        /* \"#utility.yul\":26641:26644   */\n      dup3\n        /* \"#utility.yul\":26637:26649   */\n      add\n        /* \"#utility.yul\":26630:26649   */\n      swap2\n      pop\n        /* \"#utility.yul\":26666:26669   */\n      dup2\n        /* \"#utility.yul\":26659:26669   */\n      swap1\n      pop\n        /* \"#utility.yul\":25714:26675   */\n      swap8\n      swap7\n      pop\n      pop\n      pop\n      pop\n      pop\n      pop\n      pop\n      jump\t// out\n        /* \"#utility.yul\":26681:26844   */\n    tag_347:\n        /* \"#utility.yul\":26821:26836   */\n      0x4e6f207265676973747261646f00000000000000000000000000000000000000\n        /* \"#utility.yul\":26817:26818   */\n      0x00\n        /* \"#utility.yul\":26809:26815   */\n      dup3\n        /* \"#utility.yul\":26805:26819   */\n      add\n        /* \"#utility.yul\":26798:26837   */\n      mstore\n        /* \"#utility.yul\":26681:26844   */\n      pop\n      jump\t// out\n        /* \"#utility.yul\":26850:27216   */\n    tag_348:\n        /* \"#utility.yul\":26992:26995   */\n      0x00\n        /* \"#utility.yul\":27013:27080   */\n      tag_653\n        /* \"#utility.yul\":27077:27079   */\n      0x0d\n        /* \"#utility.yul\":27072:27075   */\n      dup4\n        /* \"#utility.yul\":27013:27080   */\n      tag_287\n      jump\t// in\n    tag_653:\n        /* \"#utility.yul\":27006:27080   */\n      swap2\n      pop\n        /* \"#utility.yul\":27089:27182   */\n      tag_654\n        /* \"#utility.yul\":27178:27181   */\n      dup3\n        /* \"#utility.yul\":27089:27182   */\n      tag_347\n      jump\t// in\n    tag_654:\n        /* \"#utility.yul\":27207:27209   */\n      0x20\n        /* \"#utility.yul\":27202:27205   */\n      dup3\n        /* \"#utility.yul\":27198:27210   */\n      add\n        /* \"#utility.yul\":27191:27210   */\n      swap1\n      pop\n        /* \"#utility.yul\":26850:27216   */\n      swap2\n      swap1\n      pop\n      jump\t// out\n        /* \"#utility.yul\":27222:27641   */\n    tag_161:\n        /* \"#utility.yul\":27388:27392   */\n      0x00\n        /* \"#utility.yul\":27426:27428   */\n      0x20\n        /* \"#utility.yul\":27415:27424   */\n      dup3\n        /* \"#utility.yul\":27411:27429   */\n      add\n        /* \"#utility.yul\":27403:27429   */\n      swap1\n      pop\n        /* \"#utility.yul\":27475:27484   */\n      dup2\n        /* \"#utility.yul\":27469:27473   */\n      dup2\n        /* \"#utility.yul\":27465:27485   */\n      sub\n        /* \"#utility.yul\":27461:27462   */\n      0x00\n        /* \"#utility.yul\":27450:27459   */\n      dup4\n        /* \"#utility.yul\":27446:27463   */\n      add\n        /* \"#utility.yul\":27439:27486   */\n      mstore\n        /* \"#utility.yul\":27503:27634   */\n      tag_656\n        /* \"#utility.yul\":27629:27633   */\n      dup2\n        /* \"#utility.yul\":27503:27634   */\n      tag_348\n      jump\t// in\n    tag_656:\n        /* \"#utility.yul\":27495:27634   */\n      swap1\n      pop\n        /* \"#utility.yul\":27222:27641   */\n      swap2\n      swap1\n      pop\n      jump\t// out\n        /* \"#utility.yul\":27647:27810   */\n    tag_349:\n        /* \"#utility.yul\":27787:27802   */\n      0x4861736820696e76616c69646f00000000000000000000000000000000000000\n        /* \"#utility.yul\":27783:27784   */\n      0x00\n        /* \"#utility.yul\":27775:27781   */\n      dup3\n        /* \"#utility.yul\":27771:27785   */\n      add\n        /* \"#utility.yul\":27764:27803   */\n      mstore\n        /* \"#utility.yul\":27647:27810   */\n      pop\n      jump\t// out\n        /* \"#utility.yul\":27816:28182   */\n    tag_350:\n        /* \"#utility.yul\":27958:27961   */\n      0x00\n        /* \"#utility.yul\":27979:28046   */\n      tag_659\n        /* \"#utility.yul\":28043:28045   */\n      0x0d\n        /* \"#utility.yul\":28038:28041   */\n      dup4\n        /* \"#utility.yul\":27979:28046   */\n      tag_287\n      jump\t// in\n    tag_659:\n        /* \"#utility.yul\":27972:28046   */\n      swap2\n      pop\n        /* \"#utility.yul\":28055:28148   */\n      tag_660\n        /* \"#utility.yul\":28144:28147   */\n      dup3\n        /* \"#utility.yul\":28055:28148   */\n      tag_349\n      jump\t// in\n    tag_660:\n        /* \"#utility.yul\":28173:28175   */\n      0x20\n        /* \"#utility.yul\":28168:28171   */\n      dup3\n        /* \"#utility.yul\":28164:28176   */\n      add\n        /* \"#utility.yul\":28157:28176   */\n      swap1\n      pop\n        /* \"#utility.yul\":27816:28182   */\n      swap2\n      swap1\n      pop\n      jump\t// out\n        /* \"#utility.yul\":28188:28607   */\n    tag_164:\n        /* \"#utility.yul\":28354:28358   */\n      0x00\n        /* \"#utility.yul\":28392:28394   */\n      0x20\n        /* \"#utility.yul\":28381:28390   */\n      dup3\n        /* \"#utility.yul\":28377:28395   */\n      add\n        /* \"#utility.yul\":28369:28395   */\n      swap1\n      pop\n        /* \"#utility.yul\":28441:28450   */\n      dup2\n        /* \"#utility.yul\":28435:28439   */\n      dup2\n        /* \"#utility.yul\":28431:28451   */\n      sub\n        /* \"#utility.yul\":28427:28428   */\n      0x00\n        /* \"#utility.yul\":28416:28425   */\n      dup4\n        /* \"#utility.yul\":28412:28429   */\n      add\n        /* \"#utility.yul\":28405:28452   */\n      mstore\n        /* \"#utility.yul\":28469:28600   */\n      tag_662\n        /* \"#utility.yul\":28595:28599   */\n      dup2\n        /* \"#utility.yul\":28469:28600   */\n      tag_350\n      jump\t// in\n    tag_662:\n        /* \"#utility.yul\":28461:28600   */\n      swap1\n      pop\n        /* \"#utility.yul\":28188:28607   */\n      swap2\n      swap1\n      pop\n      jump\t// out\n        /* \"#utility.yul\":28613:28778   */\n    tag_351:\n        /* \"#utility.yul\":28753:28770   */\n      0x44657669636520696e76616c69646f0000000000000000000000000000000000\n        /* \"#utility.yul\":28749:28750   */\n      0x00\n        /* \"#utility.yul\":28741:28747   */\n      dup3\n        /* \"#utility.yul\":28737:28751   */\n      add\n        /* \"#utility.yul\":28730:28771   */\n      mstore\n        /* \"#utility.yul\":28613:28778   */\n      pop\n      jump\t// out\n        /* \"#utility.yul\":28784:29150   */\n    tag_352:\n        /* \"#utility.yul\":28926:28929   */\n      0x00\n        /* \"#utility.yul\":28947:29014   */\n      tag_665\n        /* \"#utility.yul\":29011:29013   */\n      0x0f\n        /* \"#utility.yul\":29006:29009   */\n      dup4\n        /* \"#utility.yul\":28947:29014   */\n      tag_287\n      jump\t// in\n    tag_665:\n        /* \"#utility.yul\":28940:29014   */\n      swap2\n      pop\n        /* \"#utility.yul\":29023:29116   */\n      tag_666\n        /* \"#utility.yul\":29112:29115   */\n      dup3\n        /* \"#utility.yul\":29023:29116   */\n      tag_351\n      jump\t// in\n    tag_666:\n        /* \"#utility.yul\":29141:29143   */\n      0x20\n        /* \"#utility.yul\":29136:29139   */\n      dup3\n        /* \"#utility.yul\":29132:29144   */\n      add\n        /* \"#utility.yul\":29125:29144   */\n      swap1\n      pop\n        /* \"#utility.yul\":28784:29150   */\n      swap2\n      swap1\n      pop\n      jump\t// out\n        /* \"#utility.yul\":29156:29575   */\n    tag_167:\n        /* \"#utility.yul\":29322:29326   */\n      0x00\n        /* \"#utility.yul\":29360:29362   */\n      0x20\n        /* \"#utility.yul\":29349:29358   */\n      dup3\n        /* \"#utility.yul\":29345:29363   */\n      add\n        /* \"#utility.yul\":29337:29363   */\n      swap1\n      pop\n        /* \"#utility.yul\":29409:29418   */\n      dup2\n        /* \"#utility.yul\":29403:29407   */\n      dup2\n        /* \"#utility.yul\":29399:29419   */\n      sub\n        /* \"#utility.yul\":29395:29396   */\n      0x00\n        /* \"#utility.yul\":29384:29393   */\n      dup4\n        /* \"#utility.yul\":29380:29397   */\n      add\n        /* \"#utility.yul\":29373:29420   */\n      mstore\n        /* \"#utility.yul\":29437:29568   */\n      tag_668\n        /* \"#utility.yul\":29563:29567   */\n      dup2\n        /* \"#utility.yul\":29437:29568   */\n      tag_352\n      jump\t// in\n    tag_668:\n        /* \"#utility.yul\":29429:29568   */\n      swap1\n      pop\n        /* \"#utility.yul\":29156:29575   */\n      swap2\n      swap1\n      pop\n      jump\t// out\n        /* \"#utility.yul\":29581:29745   */\n    tag_353:\n        /* \"#utility.yul\":29721:29737   */\n      0x4e6f6e636520796120757361646f000000000000000000000000000000000000\n        /* \"#utility.yul\":29717:29718   */\n      0x00\n        /* \"#utility.yul\":29709:29715   */\n      dup3\n        /* \"#utility.yul\":29705:29719   */\n      add\n        /* \"#utility.yul\":29698:29738   */\n      mstore\n        /* \"#utility.yul\":29581:29745   */\n      pop\n      jump\t// out\n        /* \"#utility.yul\":29751:30117   */\n    tag_354:\n        /* \"#utility.yul\":29893:29896   */\n      0x00\n        /* \"#utility.yul\":29914:29981   */\n      tag_671\n        /* \"#utility.yul\":29978:29980   */\n      0x0e\n        /* \"#utility.yul\":29973:29976   */\n      dup4\n        /* \"#utility.yul\":29914:29981   */\n      tag_287\n      jump\t// in\n    tag_671:\n        /* \"#utility.yul\":29907:29981   */\n      swap2\n      pop\n        /* \"#utility.yul\":29990:30083   */\n      tag_672\n        /* \"#utility.yul\":30079:30082   */\n      dup3\n        /* \"#utility.yul\":29990:30083   */\n      tag_353\n      jump\t// in\n    tag_672:\n        /* \"#utility.yul\":30108:30110   */\n      0x20\n        /* \"#utility.yul\":30103:30106   */\n      dup3\n        /* \"#utility.yul\":30099:30111   */\n      add\n        /* \"#utility.yul\":30092:30111   */\n      swap1\n      pop\n        /* \"#utility.yul\":29751:30117   */\n      swap2\n      swap1\n      pop\n      jump\t// out\n        /* \"#utility.yul\":30123:30542   */\n    tag_173:\n        /* \"#utility.yul\":30289:30293   */\n      0x00\n        /* \"#utility.yul\":30327:30329   */\n      0x20\n        /* \"#utility.yul\":30316:30325   */\n      dup3\n        /* \"#utility.yul\":30312:30330   */\n      add\n        /* \"#utility.yul\":30304:30330   */\n      swap1\n      pop\n        /* \"#utility.yul\":30376:30385   */\n      dup2\n        /* \"#utility.yul\":30370:30374   */\n      dup2\n        /* \"#utility.yul\":30366:30386   */\n      sub\n        /* \"#utility.yul\":30362:30363   */\n      0x00\n        /* \"#utility.yul\":30351:30360   */\n      dup4\n        /* \"#utility.yul\":30347:30364   */\n      add\n        /* \"#utility.yul\":30340:30387   */\n      mstore\n        /* \"#utility.yul\":30404:30535   */\n      tag_674\n        /* \"#utility.yul\":30530:30534   */\n      dup2\n        /* \"#utility.yul\":30404:30535   */\n      tag_354\n      jump\t// in\n    tag_674:\n        /* \"#utility.yul\":30396:30535   */\n      swap1\n      pop\n        /* \"#utility.yul\":30123:30542   */\n      swap2\n      swap1\n      pop\n      jump\t// out\n        /* \"#utility.yul\":30548:30712   */\n    tag_355:\n        /* \"#utility.yul\":30688:30704   */\n      0x457863656465206c696d69746573000000000000000000000000000000000000\n        /* \"#utility.yul\":30684:30685   */\n      0x00\n        /* \"#utility.yul\":30676:30682   */\n      dup3\n        /* \"#utility.yul\":30672:30686   */\n      add\n        /* \"#utility.yul\":30665:30705   */\n      mstore\n        /* \"#utility.yul\":30548:30712   */\n      pop\n      jump\t// out\n        /* \"#utility.yul\":30718:31084   */\n    tag_356:\n        /* \"#utility.yul\":30860:30863   */\n      0x00\n        /* \"#utility.yul\":30881:30948   */\n      tag_677\n        /* \"#utility.yul\":30945:30947   */\n      0x0e\n        /* \"#utility.yul\":30940:30943   */\n      dup4\n        /* \"#utility.yul\":30881:30948   */\n      tag_287\n      jump\t// in\n    tag_677:\n        /* \"#utility.yul\":30874:30948   */\n      swap2\n      pop\n        /* \"#utility.yul\":30957:31050   */\n      tag_678\n        /* \"#utility.yul\":31046:31049   */\n      dup3\n        /* \"#utility.yul\":30957:31050   */\n      tag_355\n      jump\t// in\n    tag_678:\n        /* \"#utility.yul\":31075:31077   */\n      0x20\n        /* \"#utility.yul\":31070:31073   */\n      dup3\n        /* \"#utility.yul\":31066:31078   */\n      add\n        /* \"#utility.yul\":31059:31078   */\n      swap1\n      pop\n        /* \"#utility.yul\":30718:31084   */\n      swap2\n      swap1\n      pop\n      jump\t// out\n        /* \"#utility.yul\":31090:31509   */\n    tag_176:\n        /* \"#utility.yul\":31256:31260   */\n      0x00\n        /* \"#utility.yul\":31294:31296   */\n      0x20\n        /* \"#utility.yul\":31283:31292   */\n      dup3\n        /* \"#utility.yul\":31279:31297   */\n      add\n        /* \"#utility.yul\":31271:31297   */\n      swap1\n      pop\n        /* \"#utility.yul\":31343:31352   */\n      dup2\n        /* \"#utility.yul\":31337:31341   */\n      dup2\n        /* \"#utility.yul\":31333:31353   */\n      sub\n        /* \"#utility.yul\":31329:31330   */\n      0x00\n        /* \"#utility.yul\":31318:31327   */\n      dup4\n        /* \"#utility.yul\":31314:31331   */\n      add\n        /* \"#utility.yul\":31307:31354   */\n      mstore\n        /* \"#utility.yul\":31371:31502   */\n      tag_680\n        /* \"#utility.yul\":31497:31501   */\n      dup2\n        /* \"#utility.yul\":31371:31502   */\n      tag_356\n      jump\t// in\n    tag_680:\n        /* \"#utility.yul\":31363:31502   */\n      swap1\n      pop\n        /* \"#utility.yul\":31090:31509   */\n      swap2\n      swap1\n      pop\n      jump\t// out\n        /* \"#utility.yul\":31515:31687   */\n    tag_357:\n        /* \"#utility.yul\":31655:31679   */\n      0x416c6c6f77616e636520696e737566696369656e746500000000000000000000\n        /* \"#utility.yul\":31651:31652   */\n      0x00\n        /* \"#utility.yul\":31643:31649   */\n      dup3\n        /* \"#utility.yul\":31639:31653   */\n      add\n        /* \"#utility.yul\":31632:31680   */\n      mstore\n        /* \"#utility.yul\":31515:31687   */\n      pop\n      jump\t// out\n        /* \"#utility.yul\":31693:32059   */\n    tag_358:\n        /* \"#utility.yul\":31835:31838   */\n      0x00\n        /* \"#utility.yul\":31856:31923   */\n      tag_683\n        /* \"#utility.yul\":31920:31922   */\n      0x16\n        /* \"#utility.yul\":31915:31918   */\n      dup4\n        /* \"#utility.yul\":31856:31923   */\n      tag_287\n      jump\t// in\n    tag_683:\n        /* \"#utility.yul\":31849:31923   */\n      swap2\n      pop\n        /* \"#utility.yul\":31932:32025   */\n      tag_684\n        /* \"#utility.yul\":32021:32024   */\n      dup3\n        /* \"#utility.yul\":31932:32025   */\n      tag_357\n      jump\t// in\n    tag_684:\n        /* \"#utility.yul\":32050:32052   */\n      0x20\n        /* \"#utility.yul\":32045:32048   */\n      dup3\n        /* \"#utility.yul\":32041:32053   */\n      add\n        /* \"#utility.yul\":32034:32053   */\n      swap1\n      pop\n        /* \"#utility.yul\":31693:32059   */\n      swap2\n      swap1\n      pop\n      jump\t// out\n        /* \"#utility.yul\":32065:32484   */\n    tag_180:\n        /* \"#utility.yul\":32231:32235   */\n      0x00\n        /* \"#utility.yul\":32269:32271   */\n      0x20\n        /* \"#utility.yul\":32258:32267   */\n      dup3\n        /* \"#utility.yul\":32254:32272   */\n      add\n        /* \"#utility.yul\":32246:32272   */\n      swap1\n      pop\n        /* \"#utility.yul\":32318:32327   */\n      dup2\n        /* \"#utility.yul\":32312:32316   */\n      dup2\n        /* \"#utility.yul\":32308:32328   */\n      sub\n        /* \"#utility.yul\":32304:32305   */\n      0x00\n        /* \"#utility.yul\":32293:32302   */\n      dup4\n        /* \"#utility.yul\":32289:32306   */\n      add\n        /* \"#utility.yul\":32282:32329   */\n      mstore\n        /* \"#utility.yul\":32346:32477   */\n      tag_686\n        /* \"#utility.yul\":32472:32476   */\n      dup2\n        /* \"#utility.yul\":32346:32477   */\n      tag_358\n      jump\t// in\n    tag_686:\n        /* \"#utility.yul\":32338:32477   */\n      swap1\n      pop\n        /* \"#utility.yul\":32065:32484   */\n      swap2\n      swap1\n      pop\n      jump\t// out\n        /* \"#utility.yul\":32490:32660   */\n    tag_359:\n        /* \"#utility.yul\":32630:32652   */\n      0x42616c616e636520696e737566696369656e7465000000000000000000000000\n        /* \"#utility.yul\":32626:32627   */\n      0x00\n        /* \"#utility.yul\":32618:32624   */\n      dup3\n        /* \"#utility.yul\":32614:32628   */\n      add\n        /* \"#utility.yul\":32607:32653   */\n      mstore\n        /* \"#utility.yul\":32490:32660   */\n      pop\n      jump\t// out\n        /* \"#utility.yul\":32666:33032   */\n    tag_360:\n        /* \"#utility.yul\":32808:32811   */\n      0x00\n        /* \"#utility.yul\":32829:32896   */\n      tag_689\n        /* \"#utility.yul\":32893:32895   */\n      0x14\n        /* \"#utility.yul\":32888:32891   */\n      dup4\n        /* \"#utility.yul\":32829:32896   */\n      tag_287\n      jump\t// in\n    tag_689:\n        /* \"#utility.yul\":32822:32896   */\n      swap2\n      pop\n        /* \"#utility.yul\":32905:32998   */\n      tag_690\n        /* \"#utility.yul\":32994:32997   */\n      dup3\n        /* \"#utility.yul\":32905:32998   */\n      tag_359\n      jump\t// in\n    tag_690:\n        /* \"#utility.yul\":33023:33025   */\n      0x20\n        /* \"#utility.yul\":33018:33021   */\n      dup3\n        /* \"#utility.yul\":33014:33026   */\n      add\n        /* \"#utility.yul\":33007:33026   */\n      swap1\n      pop\n        /* \"#utility.yul\":32666:33032   */\n      swap2\n      swap1\n      pop\n      jump\t// out\n        /* \"#utility.yul\":33038:33457   */\n    tag_184:\n        /* \"#utility.yul\":33204:33208   */\n      0x00\n        /* \"#utility.yul\":33242:33244   */\n      0x20\n        /* \"#utility.yul\":33231:33240   */\n      dup3\n        /* \"#utility.yul\":33227:33245   */\n      add\n        /* \"#utility.yul\":33219:33245   */\n      swap1\n      pop\n        /* \"#utility.yul\":33291:33300   */\n      dup2\n        /* \"#utility.yul\":33285:33289   */\n      dup2\n        /* \"#utility.yul\":33281:33301   */\n      sub\n        /* \"#utility.yul\":33277:33278   */\n      0x00\n        /* \"#utility.yul\":33266:33275   */\n      dup4\n        /* \"#utility.yul\":33262:33279   */\n      add\n        /* \"#utility.yul\":33255:33302   */\n      mstore\n        /* \"#utility.yul\":33319:33450   */\n      tag_692\n        /* \"#utility.yul\":33445:33449   */\n      dup2\n        /* \"#utility.yul\":33319:33450   */\n      tag_360\n      jump\t// in\n    tag_692:\n        /* \"#utility.yul\":33311:33450   */\n      swap1\n      pop\n        /* \"#utility.yul\":33038:33457   */\n      swap2\n      swap1\n      pop\n      jump\t// out\n        /* \"#utility.yul\":33463:34424   */\n    tag_186:\n        /* \"#utility.yul\":33715:33718   */\n      0x00\n        /* \"#utility.yul\":33730:33805   */\n      tag_694\n        /* \"#utility.yul\":33801:33804   */\n      dup3\n        /* \"#utility.yul\":33792:33798   */\n      dup10\n        /* \"#utility.yul\":33730:33805   */\n      tag_337\n      jump\t// in\n    tag_694:\n        /* \"#utility.yul\":33830:33832   */\n      0x14\n        /* \"#utility.yul\":33825:33828   */\n      dup3\n        /* \"#utility.yul\":33821:33833   */\n      add\n        /* \"#utility.yul\":33814:33833   */\n      swap2\n      pop\n        /* \"#utility.yul\":33843:33918   */\n      tag_695\n        /* \"#utility.yul\":33914:33917   */\n      dup3\n        /* \"#utility.yul\":33905:33911   */\n      dup9\n        /* \"#utility.yul\":33843:33918   */\n      tag_337\n      jump\t// in\n    tag_695:\n        /* \"#utility.yul\":33943:33945   */\n      0x14\n        /* \"#utility.yul\":33938:33941   */\n      dup3\n        /* \"#utility.yul\":33934:33946   */\n      add\n        /* \"#utility.yul\":33927:33946   */\n      swap2\n      pop\n        /* \"#utility.yul\":33956:34031   */\n      tag_696\n        /* \"#utility.yul\":34027:34030   */\n      dup3\n        /* \"#utility.yul\":34018:34024   */\n      dup8\n        /* \"#utility.yul\":33956:34031   */\n      tag_341\n      jump\t// in\n    tag_696:\n        /* \"#utility.yul\":34056:34058   */\n      0x20\n        /* \"#utility.yul\":34051:34054   */\n      dup3\n        /* \"#utility.yul\":34047:34059   */\n      add\n        /* \"#utility.yul\":34040:34059   */\n      swap2\n      pop\n        /* \"#utility.yul\":34069:34144   */\n      tag_697\n        /* \"#utility.yul\":34140:34143   */\n      dup3\n        /* \"#utility.yul\":34131:34137   */\n      dup7\n        /* \"#utility.yul\":34069:34144   */\n      tag_339\n      jump\t// in\n    tag_697:\n        /* \"#utility.yul\":34169:34171   */\n      0x20\n        /* \"#utility.yul\":34164:34167   */\n      dup3\n        /* \"#utility.yul\":34160:34172   */\n      add\n        /* \"#utility.yul\":34153:34172   */\n      swap2\n      pop\n        /* \"#utility.yul\":34182:34257   */\n      tag_698\n        /* \"#utility.yul\":34253:34256   */\n      dup3\n        /* \"#utility.yul\":34244:34250   */\n      dup6\n        /* \"#utility.yul\":34182:34257   */\n      tag_341\n      jump\t// in\n    tag_698:\n        /* \"#utility.yul\":34282:34284   */\n      0x20\n        /* \"#utility.yul\":34277:34280   */\n      dup3\n        /* \"#utility.yul\":34273:34285   */\n      add\n        /* \"#utility.yul\":34266:34285   */\n      swap2\n      pop\n        /* \"#utility.yul\":34295:34370   */\n      tag_699\n        /* \"#utility.yul\":34366:34369   */\n      dup3\n        /* \"#utility.yul\":34357:34363   */\n      dup5\n        /* \"#utility.yul\":34295:34370   */\n      tag_341\n      jump\t// in\n    tag_699:\n        /* \"#utility.yul\":34395:34397   */\n      0x20\n        /* \"#utility.yul\":34390:34393   */\n      dup3\n        /* \"#utility.yul\":34386:34398   */\n      add\n        /* \"#utility.yul\":34379:34398   */\n      swap2\n      pop\n        /* \"#utility.yul\":34415:34418   */\n      dup2\n        /* \"#utility.yul\":34408:34418   */\n      swap1\n      pop\n        /* \"#utility.yul\":33463:34424   */\n      swap8\n      swap7\n      pop\n      pop\n      pop\n      pop\n      pop\n      pop\n      pop\n      jump\t// out\n        /* \"#utility.yul\":34430:34597   */\n    tag_361:\n        /* \"#utility.yul\":34570:34589   */\n      0x5061676f207961206578697374656e7465000000000000000000000000000000\n        /* \"#utility.yul\":34566:34567   */\n      0x00\n        /* \"#utility.yul\":34558:34564   */\n      dup3\n        /* \"#utility.yul\":34554:34568   */\n      add\n        /* \"#utility.yul\":34547:34590   */\n      mstore\n        /* \"#utility.yul\":34430:34597   */\n      pop\n      jump\t// out\n        /* \"#utility.yul\":34603:34969   */\n    tag_362:\n        /* \"#utility.yul\":34745:34748   */\n      0x00\n        /* \"#utility.yul\":34766:34833   */\n      tag_702\n        /* \"#utility.yul\":34830:34832   */\n      0x11\n        /* \"#utility.yul\":34825:34828   */\n      dup4\n        /* \"#utility.yul\":34766:34833   */\n      tag_287\n      jump\t// in\n    tag_702:\n        /* \"#utility.yul\":34759:34833   */\n      swap2\n      pop\n        /* \"#utility.yul\":34842:34935   */\n      tag_703\n        /* \"#utility.yul\":34931:34934   */\n      dup3\n        /* \"#utility.yul\":34842:34935   */\n      tag_361\n      jump\t// in\n    tag_703:\n        /* \"#utility.yul\":34960:34962   */\n      0x20\n        /* \"#utility.yul\":34955:34958   */\n      dup3\n        /* \"#utility.yul\":34951:34963   */\n      add\n        /* \"#utility.yul\":34944:34963   */\n      swap1\n      pop\n        /* \"#utility.yul\":34603:34969   */\n      swap2\n      swap1\n      pop\n      jump\t// out\n        /* \"#utility.yul\":34975:35394   */\n    tag_189:\n        /* \"#utility.yul\":35141:35145   */\n      0x00\n        /* \"#utility.yul\":35179:35181   */\n      0x20\n        /* \"#utility.yul\":35168:35177   */\n      dup3\n        /* \"#utility.yul\":35164:35182   */\n      add\n        /* \"#utility.yul\":35156:35182   */\n      swap1\n      pop\n        /* \"#utility.yul\":35228:35237   */\n      dup2\n        /* \"#utility.yul\":35222:35226   */\n      dup2\n        /* \"#utility.yul\":35218:35238   */\n      sub\n        /* \"#utility.yul\":35214:35215   */\n      0x00\n        /* \"#utility.yul\":35203:35212   */\n      dup4\n        /* \"#utility.yul\":35199:35216   */\n      add\n        /* \"#utility.yul\":35192:35239   */\n      mstore\n        /* \"#utility.yul\":35256:35387   */\n      tag_705\n        /* \"#utility.yul\":35382:35386   */\n      dup2\n        /* \"#utility.yul\":35256:35387   */\n      tag_362\n      jump\t// in\n    tag_705:\n        /* \"#utility.yul\":35248:35387   */\n      swap1\n      pop\n        /* \"#utility.yul\":34975:35394   */\n      swap2\n      swap1\n      pop\n      jump\t// out\n        /* \"#utility.yul\":35400:35559   */\n    tag_363:\n        /* \"#utility.yul\":35540:35551   */\n      0x70726570617261646f0000000000000000000000000000000000000000000000\n        /* \"#utility.yul\":35536:35537   */\n      0x00\n        /* \"#utility.yul\":35528:35534   */\n      dup3\n        /* \"#utility.yul\":35524:35538   */\n      add\n        /* \"#utility.yul\":35517:35552   */\n      mstore\n        /* \"#utility.yul\":35400:35559   */\n      pop\n      jump\t// out\n        /* \"#utility.yul\":35565:35965   */\n    tag_364:\n        /* \"#utility.yul\":35725:35728   */\n      0x00\n        /* \"#utility.yul\":35746:35830   */\n      tag_708\n        /* \"#utility.yul\":35828:35829   */\n      0x09\n        /* \"#utility.yul\":35823:35826   */\n      dup4\n        /* \"#utility.yul\":35746:35830   */\n      tag_344\n      jump\t// in\n    tag_708:\n        /* \"#utility.yul\":35739:35830   */\n      swap2\n      pop\n        /* \"#utility.yul\":35839:35932   */\n      tag_709\n        /* \"#utility.yul\":35928:35931   */\n      dup3\n        /* \"#utility.yul\":35839:35932   */\n      tag_363\n      jump\t// in\n    tag_709:\n        /* \"#utility.yul\":35957:35958   */\n      0x09\n        /* \"#utility.yul\":35952:35955   */\n      dup3\n        /* \"#utility.yul\":35948:35959   */\n      add\n        /* \"#utility.yul\":35941:35959   */\n      swap1\n      pop\n        /* \"#utility.yul\":35565:35965   */\n      swap2\n      swap1\n      pop\n      jump\t// out\n        /* \"#utility.yul\":35971:36775   */\n    tag_191:\n        /* \"#utility.yul\":36240:36243   */\n      0x00\n        /* \"#utility.yul\":36255:36330   */\n      tag_711\n        /* \"#utility.yul\":36326:36329   */\n      dup3\n        /* \"#utility.yul\":36317:36323   */\n      dup7\n        /* \"#utility.yul\":36255:36330   */\n      tag_339\n      jump\t// in\n    tag_711:\n        /* \"#utility.yul\":36355:36357   */\n      0x20\n        /* \"#utility.yul\":36350:36353   */\n      dup3\n        /* \"#utility.yul\":36346:36358   */\n      add\n        /* \"#utility.yul\":36339:36358   */\n      swap2\n      pop\n        /* \"#utility.yul\":36375:36523   */\n      tag_712\n        /* \"#utility.yul\":36519:36522   */\n      dup3\n        /* \"#utility.yul\":36375:36523   */\n      tag_364\n      jump\t// in\n    tag_712:\n        /* \"#utility.yul\":36368:36523   */\n      swap2\n      pop\n        /* \"#utility.yul\":36533:36608   */\n      tag_713\n        /* \"#utility.yul\":36604:36607   */\n      dup3\n        /* \"#utility.yul\":36595:36601   */\n      dup6\n        /* \"#utility.yul\":36533:36608   */\n      tag_339\n      jump\t// in\n    tag_713:\n        /* \"#utility.yul\":36633:36635   */\n      0x20\n        /* \"#utility.yul\":36628:36631   */\n      dup3\n        /* \"#utility.yul\":36624:36636   */\n      add\n        /* \"#utility.yul\":36617:36636   */\n      swap2\n      pop\n        /* \"#utility.yul\":36646:36721   */\n      tag_714\n        /* \"#utility.yul\":36717:36720   */\n      dup3\n        /* \"#utility.yul\":36708:36714   */\n      dup5\n        /* \"#utility.yul\":36646:36721   */\n      tag_341\n      jump\t// in\n    tag_714:\n        /* \"#utility.yul\":36746:36748   */\n      0x20\n        /* \"#utility.yul\":36741:36744   */\n      dup3\n        /* \"#utility.yul\":36737:36749   */\n      add\n        /* \"#utility.yul\":36730:36749   */\n      swap2\n      pop\n        /* \"#utility.yul\":36766:36769   */\n      dup2\n        /* \"#utility.yul\":36759:36769   */\n      swap1\n      pop\n        /* \"#utility.yul\":35971:36775   */\n      swap5\n      swap4\n      pop\n      pop\n      pop\n      pop\n      jump\t// out\n        /* \"#utility.yul\":36781:37223   */\n    tag_196:\n        /* \"#utility.yul\":36930:36934   */\n      0x00\n        /* \"#utility.yul\":36968:36970   */\n      0x60\n        /* \"#utility.yul\":36957:36966   */\n      dup3\n        /* \"#utility.yul\":36953:36971   */\n      add\n        /* \"#utility.yul\":36945:36971   */\n      swap1\n      pop\n        /* \"#utility.yul\":36981:37052   */\n      tag_716\n        /* \"#utility.yul\":37049:37050   */\n      0x00\n        /* \"#utility.yul\":37038:37047   */\n      dup4\n        /* \"#utility.yul\":37034:37051   */\n      add\n        /* \"#utility.yul\":37025:37031   */\n      dup7\n        /* \"#utility.yul\":36981:37052   */\n      tag_303\n      jump\t// in\n    tag_716:\n        /* \"#utility.yul\":37062:37134   */\n      tag_717\n        /* \"#utility.yul\":37130:37132   */\n      0x20\n        /* \"#utility.yul\":37119:37128   */\n      dup4\n        /* \"#utility.yul\":37115:37133   */\n      add\n        /* \"#utility.yul\":37106:37112   */\n      dup6\n        /* \"#utility.yul\":37062:37134   */\n      tag_311\n      jump\t// in\n    tag_717:\n        /* \"#utility.yul\":37144:37216   */\n      tag_718\n        /* \"#utility.yul\":37212:37214   */\n      0x40\n        /* \"#utility.yul\":37201:37210   */\n      dup4\n        /* \"#utility.yul\":37197:37215   */\n      add\n        /* \"#utility.yul\":37188:37194   */\n      dup5\n        /* \"#utility.yul\":37144:37216   */\n      tag_303\n      jump\t// in\n    tag_718:\n        /* \"#utility.yul\":36781:37223   */\n      swap5\n      swap4\n      pop\n      pop\n      pop\n      pop\n      jump\t// out\n        /* \"#utility.yul\":37229:37400   */\n    tag_365:\n        /* \"#utility.yul\":37369:37392   */\n      0x4c6f6e67697475646573206469666572656e7465730000000000000000000000\n        /* \"#utility.yul\":37365:37366   */\n      0x00\n        /* \"#utility.yul\":37357:37363   */\n      dup3\n        /* \"#utility.yul\":37353:37367   */\n      add\n        /* \"#utility.yul\":37346:37393   */\n      mstore\n        /* \"#utility.yul\":37229:37400   */\n      pop\n      jump\t// out\n        /* \"#utility.yul\":37406:37772   */\n    tag_366:\n        /* \"#utility.yul\":37548:37551   */\n      0x00\n        /* \"#utility.yul\":37569:37636   */\n      tag_721\n        /* \"#utility.yul\":37633:37635   */\n      0x15\n        /* \"#utility.yul\":37628:37631   */\n      dup4\n        /* \"#utility.yul\":37569:37636   */\n      tag_287\n      jump\t// in\n    tag_721:\n        /* \"#utility.yul\":37562:37636   */\n      swap2\n      pop\n        /* \"#utility.yul\":37645:37738   */\n      tag_722\n        /* \"#utility.yul\":37734:37737   */\n      dup3\n        /* \"#utility.yul\":37645:37738   */\n      tag_365\n      jump\t// in\n    tag_722:\n        /* \"#utility.yul\":37763:37765   */\n      0x20\n        /* \"#utility.yul\":37758:37761   */\n      dup3\n        /* \"#utility.yul\":37754:37766   */\n      add\n        /* \"#utility.yul\":37747:37766   */\n      swap1\n      pop\n        /* \"#utility.yul\":37406:37772   */\n      swap2\n      swap1\n      pop\n      jump\t// out\n        /* \"#utility.yul\":37778:38197   */\n    tag_205:\n        /* \"#utility.yul\":37944:37948   */\n      0x00\n        /* \"#utility.yul\":37982:37984   */\n      0x20\n        /* \"#utility.yul\":37971:37980   */\n      dup3\n        /* \"#utility.yul\":37967:37985   */\n      add\n        /* \"#utility.yul\":37959:37985   */\n      swap1\n      pop\n        /* \"#utility.yul\":38031:38040   */\n      dup2\n        /* \"#utility.yul\":38025:38029   */\n      dup2\n        /* \"#utility.yul\":38021:38041   */\n      sub\n        /* \"#utility.yul\":38017:38018   */\n      0x00\n        /* \"#utility.yul\":38006:38015   */\n      dup4\n        /* \"#utility.yul\":38002:38019   */\n      add\n        /* \"#utility.yul\":37995:38042   */\n      mstore\n        /* \"#utility.yul\":38059:38190   */\n      tag_724\n        /* \"#utility.yul\":38185:38189   */\n      dup2\n        /* \"#utility.yul\":38059:38190   */\n      tag_366\n      jump\t// in\n    tag_724:\n        /* \"#utility.yul\":38051:38190   */\n      swap1\n      pop\n        /* \"#utility.yul\":37778:38197   */\n      swap2\n      swap1\n      pop\n      jump\t// out\n        /* \"#utility.yul\":38203:38317   */\n    tag_367:\n        /* \"#utility.yul\":38270:38276   */\n      0x00\n        /* \"#utility.yul\":38304:38309   */\n      dup2\n        /* \"#utility.yul\":38298:38310   */\n      mload\n        /* \"#utility.yul\":38288:38310   */\n      swap1\n      pop\n        /* \"#utility.yul\":38203:38317   */\n      swap2\n      swap1\n      pop\n      jump\t// out\n        /* \"#utility.yul\":38323:38486   */\n    tag_368:\n        /* \"#utility.yul\":38440:38451   */\n      0x00\n        /* \"#utility.yul\":38477:38480   */\n      dup2\n        /* \"#utility.yul\":38462:38480   */\n      swap1\n      pop\n        /* \"#utility.yul\":38323:38486   */\n      swap3\n      swap2\n      pop\n      pop\n      jump\t// out\n        /* \"#utility.yul\":38492:38624   */\n    tag_369:\n        /* \"#utility.yul\":38559:38563   */\n      0x00\n        /* \"#utility.yul\":38582:38585   */\n      dup2\n        /* \"#utility.yul\":38574:38585   */\n      swap1\n      pop\n        /* \"#utility.yul\":38612:38616   */\n      0x20\n        /* \"#utility.yul\":38607:38610   */\n      dup3\n        /* \"#utility.yul\":38603:38617   */\n      add\n        /* \"#utility.yul\":38595:38617   */\n      swap1\n      pop\n        /* \"#utility.yul\":38492:38624   */\n      swap2\n      swap1\n      pop\n      jump\t// out\n        /* \"#utility.yul\":38630:38746   */\n    tag_370:\n        /* \"#utility.yul\":38715:38739   */\n      tag_729\n        /* \"#utility.yul\":38733:38738   */\n      dup2\n        /* \"#utility.yul\":38715:38739   */\n      tag_295\n      jump\t// in\n    tag_729:\n        /* \"#utility.yul\":38710:38713   */\n      dup3\n        /* \"#utility.yul\":38703:38740   */\n      mstore\n        /* \"#utility.yul\":38630:38746   */\n      pop\n      pop\n      jump\t// out\n        /* \"#utility.yul\":38752:38947   */\n    tag_371:\n        /* \"#utility.yul\":38829:38839   */\n      0x00\n        /* \"#utility.yul\":38850:38904   */\n      tag_731\n        /* \"#utility.yul\":38900:38903   */\n      dup4\n        /* \"#utility.yul\":38892:38898   */\n      dup4\n        /* \"#utility.yul\":38850:38904   */\n      tag_370\n      jump\t// in\n    tag_731:\n        /* \"#utility.yul\":38936:38940   */\n      0x20\n        /* \"#utility.yul\":38931:38934   */\n      dup4\n        /* \"#utility.yul\":38927:38941   */\n      add\n        /* \"#utility.yul\":38913:38941   */\n      swap1\n      pop\n        /* \"#utility.yul\":38752:38947   */\n      swap3\n      swap2\n      pop\n      pop\n      jump\t// out\n        /* \"#utility.yul\":38953:39066   */\n    tag_372:\n        /* \"#utility.yul\":39023:39027   */\n      0x00\n        /* \"#utility.yul\":39055:39059   */\n      0x20\n        /* \"#utility.yul\":39050:39053   */\n      dup3\n        /* \"#utility.yul\":39046:39060   */\n      add\n        /* \"#utility.yul\":39038:39060   */\n      swap1\n      pop\n        /* \"#utility.yul\":38953:39066   */\n      swap2\n      swap1\n      pop\n      jump\t// out\n        /* \"#utility.yul\":39102:39878   */\n    tag_373:\n        /* \"#utility.yul\":39239:39242   */\n      0x00\n        /* \"#utility.yul\":39268:39322   */\n      tag_734\n        /* \"#utility.yul\":39316:39321   */\n      dup3\n        /* \"#utility.yul\":39268:39322   */\n      tag_367\n      jump\t// in\n    tag_734:\n        /* \"#utility.yul\":39338:39442   */\n      tag_735\n        /* \"#utility.yul\":39435:39441   */\n      dup2\n        /* \"#utility.yul\":39430:39433   */\n      dup6\n        /* \"#utility.yul\":39338:39442   */\n      tag_368\n      jump\t// in\n    tag_735:\n        /* \"#utility.yul\":39331:39442   */\n      swap4\n      pop\n        /* \"#utility.yul\":39466:39522   */\n      tag_736\n        /* \"#utility.yul\":39516:39521   */\n      dup4\n        /* \"#utility.yul\":39466:39522   */\n      tag_369\n      jump\t// in\n    tag_736:\n        /* \"#utility.yul\":39545:39552   */\n      dup1\n        /* \"#utility.yul\":39576:39577   */\n      0x00\n        /* \"#utility.yul\":39561:39853   */\n    tag_737:\n        /* \"#utility.yul\":39586:39592   */\n      dup4\n        /* \"#utility.yul\":39583:39584   */\n      dup2\n        /* \"#utility.yul\":39580:39593   */\n      lt\n        /* \"#utility.yul\":39561:39853   */\n      iszero\n      tag_739\n      jumpi\n        /* \"#utility.yul\":39662:39668   */\n      dup2\n        /* \"#utility.yul\":39656:39669   */\n      mload\n        /* \"#utility.yul\":39689:39760   */\n      tag_740\n        /* \"#utility.yul\":39756:39759   */\n      dup9\n        /* \"#utility.yul\":39741:39754   */\n      dup3\n        /* \"#utility.yul\":39689:39760   */\n      tag_371\n      jump\t// in\n    tag_740:\n        /* \"#utility.yul\":39682:39760   */\n      swap8\n      pop\n        /* \"#utility.yul\":39783:39843   */\n      tag_741\n        /* \"#utility.yul\":39836:39842   */\n      dup4\n        /* \"#utility.yul\":39783:39843   */\n      tag_372\n      jump\t// in\n    tag_741:\n        /* \"#utility.yul\":39773:39843   */\n      swap3\n      pop\n        /* \"#utility.yul\":39621:39853   */\n      pop\n        /* \"#utility.yul\":39608:39609   */\n      0x01\n        /* \"#utility.yul\":39605:39606   */\n      dup2\n        /* \"#utility.yul\":39601:39610   */\n      add\n        /* \"#utility.yul\":39596:39610   */\n      swap1\n      pop\n        /* \"#utility.yul\":39561:39853   */\n      jump(tag_737)\n    tag_739:\n        /* \"#utility.yul\":39565:39579   */\n      pop\n        /* \"#utility.yul\":39869:39872   */\n      dup6\n        /* \"#utility.yul\":39862:39872   */\n      swap4\n      pop\n        /* \"#utility.yul\":39244:39878   */\n      pop\n      pop\n      pop\n        /* \"#utility.yul\":39102:39878   */\n      swap3\n      swap2\n      pop\n      pop\n      jump\t// out\n        /* \"#utility.yul\":39884:40047   */\n    tag_374:\n        /* \"#utility.yul\":40001:40012   */\n      0x00\n        /* \"#utility.yul\":40038:40041   */\n      dup2\n        /* \"#utility.yul\":40023:40041   */\n      swap1\n      pop\n        /* \"#utility.yul\":39884:40047   */\n      swap3\n      swap2\n      pop\n      pop\n      jump\t// out\n        /* \"#utility.yul\":40053:40170   */\n    tag_375:\n        /* \"#utility.yul\":40162:40163   */\n      0x00\n        /* \"#utility.yul\":40159:40160   */\n      0x00\n        /* \"#utility.yul\":40152:40164   */\n      revert\n        /* \"#utility.yul\":40176:40275   */\n    tag_376:\n        /* \"#utility.yul\":40261:40267   */\n      dup3\n        /* \"#utility.yul\":40256:40259   */\n      dup2\n        /* \"#utility.yul\":40251:40254   */\n      dup4\n        /* \"#utility.yul\":40238:40268   */\n      calldatacopy\n        /* \"#utility.yul\":40176:40275   */\n      pop\n      pop\n      pop\n      jump\t// out\n        /* \"#utility.yul\":40311:40884   */\n    tag_377:\n        /* \"#utility.yul\":40457:40460   */\n      0x00\n        /* \"#utility.yul\":40478:40582   */\n      tag_746\n        /* \"#utility.yul\":40575:40581   */\n      dup4\n        /* \"#utility.yul\":40570:40573   */\n      dup6\n        /* \"#utility.yul\":40478:40582   */\n      tag_374\n      jump\t// in\n    tag_746:\n        /* \"#utility.yul\":40471:40582   */\n      swap4\n      pop\n        /* \"#utility.yul\":40606:40672   */\n      0x07ffffffffffffffffffffffffffffffffffffffffffffffffffffffffffffff\n        /* \"#utility.yul\":40598:40604   */\n      dup4\n        /* \"#utility.yul\":40595:40673   */\n      gt\n        /* \"#utility.yul\":40592:40757   */\n      iszero\n      tag_747\n      jumpi\n        /* \"#utility.yul\":40676:40755   */\n      tag_748\n      tag_375\n      jump\t// in\n    tag_748:\n        /* \"#utility.yul\":40592:40757   */\n    tag_747:\n        /* \"#utility.yul\":40788:40792   */\n      0x20\n        /* \"#utility.yul\":40780:40786   */\n      dup4\n        /* \"#utility.yul\":40776:40793   */\n      mul\n        /* \"#utility.yul\":40766:40793   */\n      swap3\n      pop\n        /* \"#utility.yul\":40803:40846   */\n      tag_749\n        /* \"#utility.yul\":40839:40845   */\n      dup4\n        /* \"#utility.yul\":40834:40837   */\n      dup6\n        /* \"#utility.yul\":40827:40832   */\n      dup5\n        /* \"#utility.yul\":40803:40846   */\n      tag_376\n      jump\t// in\n    tag_749:\n        /* \"#utility.yul\":40871:40877   */\n      dup3\n        /* \"#utility.yul\":40866:40869   */\n      dup5\n        /* \"#utility.yul\":40862:40878   */\n      add\n        /* \"#utility.yul\":40855:40878   */\n      swap1\n      pop\n        /* \"#utility.yul\":40311:40884   */\n      swap4\n      swap3\n      pop\n      pop\n      pop\n      jump\t// out\n        /* \"#utility.yul\":40890:41747   */\n    tag_212:\n        /* \"#utility.yul\":41196:41199   */\n      0x00\n        /* \"#utility.yul\":41218:41343   */\n      tag_751\n        /* \"#utility.yul\":41339:41342   */\n      dup3\n        /* \"#utility.yul\":41330:41336   */\n      dup9\n        /* \"#utility.yul\":41218:41343   */\n      tag_373\n      jump\t// in\n    tag_751:\n        /* \"#utility.yul\":41211:41343   */\n      swap2\n      pop\n        /* \"#utility.yul\":41360:41495   */\n      tag_752\n        /* \"#utility.yul\":41491:41494   */\n      dup3\n        /* \"#utility.yul\":41482:41488   */\n      dup7\n        /* \"#utility.yul\":41474:41480   */\n      dup9\n        /* \"#utility.yul\":41360:41495   */\n      tag_377\n      jump\t// in\n    tag_752:\n        /* \"#utility.yul\":41353:41495   */\n      swap2\n      pop\n        /* \"#utility.yul\":41505:41580   */\n      tag_753\n        /* \"#utility.yul\":41576:41579   */\n      dup3\n        /* \"#utility.yul\":41567:41573   */\n      dup6\n        /* \"#utility.yul\":41505:41580   */\n      tag_341\n      jump\t// in\n    tag_753:\n        /* \"#utility.yul\":41605:41607   */\n      0x20\n        /* \"#utility.yul\":41600:41603   */\n      dup3\n        /* \"#utility.yul\":41596:41608   */\n      add\n        /* \"#utility.yul\":41589:41608   */\n      swap2\n      pop\n        /* \"#utility.yul\":41618:41693   */\n      tag_754\n        /* \"#utility.yul\":41689:41692   */\n      dup3\n        /* \"#utility.yul\":41680:41686   */\n      dup5\n        /* \"#utility.yul\":41618:41693   */\n      tag_341\n      jump\t// in\n    tag_754:\n        /* \"#utility.yul\":41718:41720   */\n      0x20\n        /* \"#utility.yul\":41713:41716   */\n      dup3\n        /* \"#utility.yul\":41709:41721   */\n      add\n        /* \"#utility.yul\":41702:41721   */\n      swap2\n      pop\n        /* \"#utility.yul\":41738:41741   */\n      dup2\n        /* \"#utility.yul\":41731:41741   */\n      swap1\n      pop\n        /* \"#utility.yul\":40890:41747   */\n      swap7\n      swap6\n      pop\n      pop\n      pop\n      pop\n      pop\n      pop\n      jump\t// out\n        /* \"#utility.yul\":41753:41933   */\n    tag_221:\n        /* \"#utility.yul\":41801:41878   */\n      0x4e487b7100000000000000000000000000000000000000000000000000000000\n        /* \"#utility.yul\":41798:41799   */\n      0x00\n        /* \"#utility.yul\":41791:41879   */\n      mstore\n        /* \"#utility.yul\":41898:41902   */\n      0x32\n        /* \"#utility.yul\":41895:41896   */\n      0x04\n        /* \"#utility.yul\":41888:41903   */\n      mstore\n        /* \"#utility.yul\":41922:41926   */\n      0x24\n        /* \"#utility.yul\":41919:41920   */\n      0x00\n        /* \"#utility.yul\":41912:41927   */\n      revert\n        /* \"#utility.yul\":41939:42105   */\n    tag_378:\n        /* \"#utility.yul\":42079:42097   */\n      0x53756d61203e20616c6c6f77616e636500000000000000000000000000000000\n        /* \"#utility.yul\":42075:42076   */\n      0x00\n        /* \"#utility.yul\":42067:42073   */\n      dup3\n        /* \"#utility.yul\":42063:42077   */\n      add\n        /* \"#utility.yul\":42056:42098   */\n      mstore\n        /* \"#utility.yul\":41939:42105   */\n      pop\n      jump\t// out\n        /* \"#utility.yul\":42111:42477   */\n    tag_379:\n        /* \"#utility.yul\":42253:42256   */\n      0x00\n        /* \"#utility.yul\":42274:42341   */\n      tag_758\n        /* \"#utility.yul\":42338:42340   */\n      0x10\n        /* \"#utility.yul\":42333:42336   */\n      dup4\n        /* \"#utility.yul\":42274:42341   */\n      tag_287\n      jump\t// in\n    tag_758:\n        /* \"#utility.yul\":42267:42341   */\n      swap2\n      pop\n        /* \"#utility.yul\":42350:42443   */\n      tag_759\n        /* \"#utility.yul\":42439:42442   */\n      dup3\n        /* \"#utility.yul\":42350:42443   */\n      tag_378\n      jump\t// in\n    tag_759:\n        /* \"#utility.yul\":42468:42470   */\n      0x20\n        /* \"#utility.yul\":42463:42466   */\n      dup3\n        /* \"#utility.yul\":42459:42471   */\n      add\n        /* \"#utility.yul\":42452:42471   */\n      swap1\n      pop\n        /* \"#utility.yul\":42111:42477   */\n      swap2\n      swap1\n      pop\n      jump\t// out\n        /* \"#utility.yul\":42483:42902   */\n    tag_226:\n        /* \"#utility.yul\":42649:42653   */\n      0x00\n        /* \"#utility.yul\":42687:42689   */\n      0x20\n        /* \"#utility.yul\":42676:42685   */\n      dup3\n        /* \"#utility.yul\":42672:42690   */\n      add\n        /* \"#utility.yul\":42664:42690   */\n      swap1\n      pop\n        /* \"#utility.yul\":42736:42745   */\n      dup2\n        /* \"#utility.yul\":42730:42734   */\n      dup2\n        /* \"#utility.yul\":42726:42746   */\n      sub\n        /* \"#utility.yul\":42722:42723   */\n      0x00\n        /* \"#utility.yul\":42711:42720   */\n      dup4\n        /* \"#utility.yul\":42707:42724   */\n      add\n        /* \"#utility.yul\":42700:42747   */\n      mstore\n        /* \"#utility.yul\":42764:42895   */\n      tag_761\n        /* \"#utility.yul\":42890:42894   */\n      dup2\n        /* \"#utility.yul\":42764:42895   */\n      tag_379\n      jump\t// in\n    tag_761:\n        /* \"#utility.yul\":42756:42895   */\n      swap1\n      pop\n        /* \"#utility.yul\":42483:42902   */\n      swap2\n      swap1\n      pop\n      jump\t// out\n        /* \"#utility.yul\":42908:43092   */\n    tag_380:\n        /* \"#utility.yul\":43007:43018   */\n      0x00\n        /* \"#utility.yul\":43041:43047   */\n      dup3\n        /* \"#utility.yul\":43036:43039   */\n      dup3\n        /* \"#utility.yul\":43029:43048   */\n      mstore\n        /* \"#utility.yul\":43081:43085   */\n      0x20\n        /* \"#utility.yul\":43076:43079   */\n      dup3\n        /* \"#utility.yul\":43072:43086   */\n      add\n        /* \"#utility.yul\":43057:43086   */\n      swap1\n      pop\n        /* \"#utility.yul\":42908:43092   */\n      swap3\n      swap2\n      pop\n      pop\n      jump\t// out\n        /* \"#utility.yul\":43098:43206   */\n    tag_381:\n        /* \"#utility.yul\":43175:43199   */\n      tag_764\n        /* \"#utility.yul\":43193:43198   */\n      dup2\n        /* \"#utility.yul\":43175:43199   */\n      tag_295\n      jump\t// in\n    tag_764:\n        /* \"#utility.yul\":43170:43173   */\n      dup3\n        /* \"#utility.yul\":43163:43200   */\n      mstore\n        /* \"#utility.yul\":43098:43206   */\n      pop\n      pop\n      jump\t// out\n        /* \"#utility.yul\":43212:43391   */\n    tag_382:\n        /* \"#utility.yul\":43281:43291   */\n      0x00\n        /* \"#utility.yul\":43302:43348   */\n      tag_766\n        /* \"#utility.yul\":43344:43347   */\n      dup4\n        /* \"#utility.yul\":43336:43342   */\n      dup4\n        /* \"#utility.yul\":43302:43348   */\n      tag_381\n      jump\t// in\n    tag_766:\n        /* \"#utility.yul\":43380:43384   */\n      0x20\n        /* \"#utility.yul\":43375:43378   */\n      dup4\n        /* \"#utility.yul\":43371:43385   */\n      add\n        /* \"#utility.yul\":43357:43385   */\n      swap1\n      pop\n        /* \"#utility.yul\":43212:43391   */\n      swap3\n      swap2\n      pop\n      pop\n      jump\t// out\n        /* \"#utility.yul\":43427:44159   */\n    tag_383:\n        /* \"#utility.yul\":43546:43549   */\n      0x00\n        /* \"#utility.yul\":43575:43629   */\n      tag_768\n        /* \"#utility.yul\":43623:43628   */\n      dup3\n        /* \"#utility.yul\":43575:43629   */\n      tag_367\n      jump\t// in\n    tag_768:\n        /* \"#utility.yul\":43645:43731   */\n      tag_769\n        /* \"#utility.yul\":43724:43730   */\n      dup2\n        /* \"#utility.yul\":43719:43722   */\n      dup6\n        /* \"#utility.yul\":43645:43731   */\n      tag_380\n      jump\t// in\n    tag_769:\n        /* \"#utility.yul\":43638:43731   */\n      swap4\n      pop\n        /* \"#utility.yul\":43755:43811   */\n      tag_770\n        /* \"#utility.yul\":43805:43810   */\n      dup4\n        /* \"#utility.yul\":43755:43811   */\n      tag_369\n      jump\t// in\n    tag_770:\n        /* \"#utility.yul\":43834:43841   */\n      dup1\n        /* \"#utility.yul\":43865:43866   */\n      0x00\n        /* \"#utility.yul\":43850:44134   */\n    tag_771:\n        /* \"#utility.yul\":43875:43881   */\n      dup4\n        /* \"#utility.yul\":43872:43873   */\n      dup2\n        /* \"#utility.yul\":43869:43882   */\n      lt\n        /* \"#utility.yul\":43850:44134   */\n      iszero\n      tag_773\n      jumpi\n        /* \"#utility.yul\":43951:43957   */\n      dup2\n        /* \"#utility.yul\":43945:43958   */\n      mload\n        /* \"#utility.yul\":43978:44041   */\n      tag_774\n        /* \"#utility.yul\":44037:44040   */\n      dup9\n        /* \"#utility.yul\":44022:44035   */\n      dup3\n        /* \"#utility.yul\":43978:44041   */\n      tag_382\n      jump\t// in\n    tag_774:\n        /* \"#utility.yul\":43971:44041   */\n      swap8\n      pop\n        /* \"#utility.yul\":44064:44124   */\n      tag_775\n        /* \"#utility.yul\":44117:44123   */\n      dup4\n        /* \"#utility.yul\":44064:44124   */\n      tag_372\n      jump\t// in\n    tag_775:\n        /* \"#utility.yul\":44054:44124   */\n      swap3\n      pop\n        /* \"#utility.yul\":43910:44134   */\n      pop\n        /* \"#utility.yul\":43897:43898   */\n      0x01\n        /* \"#utility.yul\":43894:43895   */\n      dup2\n        /* \"#utility.yul\":43890:43899   */\n      add\n        /* \"#utility.yul\":43885:43899   */\n      swap1\n      pop\n        /* \"#utility.yul\":43850:44134   */\n      jump(tag_771)\n    tag_773:\n        /* \"#utility.yul\":43854:43868   */\n      pop\n        /* \"#utility.yul\":44150:44153   */\n      dup6\n        /* \"#utility.yul\":44143:44153   */\n      swap4\n      pop\n        /* \"#utility.yul\":43551:44159   */\n      pop\n      pop\n      pop\n        /* \"#utility.yul\":43427:44159   */\n      swap3\n      swap2\n      pop\n      pop\n      jump\t// out\n        /* \"#utility.yul\":44165:44349   */\n    tag_384:\n        /* \"#utility.yul\":44264:44275   */\n      0x00\n        /* \"#utility.yul\":44298:44304   */\n      dup3\n        /* \"#utility.yul\":44293:44296   */\n      dup3\n        /* \"#utility.yul\":44286:44305   */\n      mstore\n        /* \"#utility.yul\":44338:44342   */\n      0x20\n        /* \"#utility.yul\":44333:44336   */\n      dup3\n        /* \"#utility.yul\":44329:44343   */\n      add\n        /* \"#utility.yul\":44314:44343   */\n      swap1\n      pop\n        /* \"#utility.yul\":44165:44349   */\n      swap3\n      swap2\n      pop\n      pop\n      jump\t// out\n        /* \"#utility.yul\":44385:44922   */\n    tag_385:\n        /* \"#utility.yul\":44513:44516   */\n      0x00\n        /* \"#utility.yul\":44534:44620   */\n      tag_778\n        /* \"#utility.yul\":44613:44619   */\n      dup4\n        /* \"#utility.yul\":44608:44611   */\n      dup6\n        /* \"#utility.yul\":44534:44620   */\n      tag_384\n      jump\t// in\n    tag_778:\n        /* \"#utility.yul\":44527:44620   */\n      swap4\n      pop\n        /* \"#utility.yul\":44644:44710   */\n      0x07ffffffffffffffffffffffffffffffffffffffffffffffffffffffffffffff\n        /* \"#utility.yul\":44636:44642   */\n      dup4\n        /* \"#utility.yul\":44633:44711   */\n      gt\n        /* \"#utility.yul\":44630:44795   */\n      iszero\n      tag_779\n      jumpi\n        /* \"#utility.yul\":44714:44793   */\n      tag_780\n      tag_375\n      jump\t// in\n    tag_780:\n        /* \"#utility.yul\":44630:44795   */\n    tag_779:\n        /* \"#utility.yul\":44826:44830   */\n      0x20\n        /* \"#utility.yul\":44818:44824   */\n      dup4\n        /* \"#utility.yul\":44814:44831   */\n      mul\n        /* \"#utility.yul\":44804:44831   */\n      swap3\n      pop\n        /* \"#utility.yul\":44841:44884   */\n      tag_781\n        /* \"#utility.yul\":44877:44883   */\n      dup4\n        /* \"#utility.yul\":44872:44875   */\n      dup6\n        /* \"#utility.yul\":44865:44870   */\n      dup5\n        /* \"#utility.yul\":44841:44884   */\n      tag_376\n      jump\t// in\n    tag_781:\n        /* \"#utility.yul\":44909:44915   */\n      dup3\n        /* \"#utility.yul\":44904:44907   */\n      dup5\n        /* \"#utility.yul\":44900:44916   */\n      add\n        /* \"#utility.yul\":44893:44916   */\n      swap1\n      pop\n        /* \"#utility.yul\":44385:44922   */\n      swap4\n      swap3\n      pop\n      pop\n      pop\n      jump\t// out\n        /* \"#utility.yul\":44928:45692   */\n    tag_235:\n        /* \"#utility.yul\":45187:45191   */\n      0x00\n        /* \"#utility.yul\":45225:45227   */\n      0x60\n        /* \"#utility.yul\":45214:45223   */\n      dup3\n        /* \"#utility.yul\":45210:45228   */\n      add\n        /* \"#utility.yul\":45202:45228   */\n      swap1\n      pop\n        /* \"#utility.yul\":45274:45283   */\n      dup2\n        /* \"#utility.yul\":45268:45272   */\n      dup2\n        /* \"#utility.yul\":45264:45284   */\n      sub\n        /* \"#utility.yul\":45260:45261   */\n      0x00\n        /* \"#utility.yul\":45249:45258   */\n      dup4\n        /* \"#utility.yul\":45245:45262   */\n      add\n        /* \"#utility.yul\":45238:45285   */\n      mstore\n        /* \"#utility.yul\":45302:45410   */\n      tag_783\n        /* \"#utility.yul\":45405:45409   */\n      dup2\n        /* \"#utility.yul\":45396:45402   */\n      dup8\n        /* \"#utility.yul\":45302:45410   */\n      tag_383\n      jump\t// in\n    tag_783:\n        /* \"#utility.yul\":45294:45410   */\n      swap1\n      pop\n        /* \"#utility.yul\":45457:45466   */\n      dup2\n        /* \"#utility.yul\":45451:45455   */\n      dup2\n        /* \"#utility.yul\":45447:45467   */\n      sub\n        /* \"#utility.yul\":45442:45444   */\n      0x20\n        /* \"#utility.yul\":45431:45440   */\n      dup4\n        /* \"#utility.yul\":45427:45445   */\n      add\n        /* \"#utility.yul\":45420:45468   */\n      mstore\n        /* \"#utility.yul\":45485:45603   */\n      tag_784\n        /* \"#utility.yul\":45598:45602   */\n      dup2\n        /* \"#utility.yul\":45589:45595   */\n      dup6\n        /* \"#utility.yul\":45581:45587   */\n      dup8\n        /* \"#utility.yul\":45485:45603   */\n      tag_385\n      jump\t// in\n    tag_784:\n        /* \"#utility.yul\":45477:45603   */\n      swap1\n      pop\n        /* \"#utility.yul\":45613:45685   */\n      tag_785\n        /* \"#utility.yul\":45681:45683   */\n      0x40\n        /* \"#utility.yul\":45670:45679   */\n      dup4\n        /* \"#utility.yul\":45666:45684   */\n      add\n        /* \"#utility.yul\":45657:45663   */\n      dup5\n        /* \"#utility.yul\":45613:45685   */\n      tag_303\n      jump\t// in\n    tag_785:\n        /* \"#utility.yul\":44928:45692   */\n      swap6\n      swap5\n      pop\n      pop\n      pop\n      pop\n      pop\n      jump\t// out\n        /* \"#utility.yul\":45698:45886   */\n    tag_246:\n        /* \"#utility.yul\":45736:45739   */\n      0x00\n        /* \"#utility.yul\":45755:45773   */\n      tag_787\n        /* \"#utility.yul\":45771:45772   */\n      dup3\n        /* \"#utility.yul\":45755:45773   */\n      tag_312\n      jump\t// in\n    tag_787:\n        /* \"#utility.yul\":45750:45773   */\n      swap2\n      pop\n        /* \"#utility.yul\":45787:45805   */\n      tag_788\n        /* \"#utility.yul\":45803:45804   */\n      dup4\n        /* \"#utility.yul\":45787:45805   */\n      tag_312\n      jump\t// in\n    tag_788:\n        /* \"#utility.yul\":45782:45805   */\n      swap3\n      pop\n        /* \"#utility.yul\":45828:45829   */\n      dup3\n        /* \"#utility.yul\":45825:45826   */\n      dup3\n        /* \"#utility.yul\":45821:45830   */\n      add\n        /* \"#utility.yul\":45814:45830   */\n      swap1\n      pop\n        /* \"#utility.yul\":45851:45855   */\n      0xff\n        /* \"#utility.yul\":45846:45849   */\n      dup2\n        /* \"#utility.yul\":45843:45856   */\n      gt\n        /* \"#utility.yul\":45840:45879   */\n      iszero\n      tag_789\n      jumpi\n        /* \"#utility.yul\":45859:45877   */\n      tag_790\n      tag_331\n      jump\t// in\n    tag_790:\n        /* \"#utility.yul\":45840:45879   */\n    tag_789:\n        /* \"#utility.yul\":45698:45886   */\n      swap3\n      swap2\n      pop\n      pop\n      jump\t// out\n        /* \"#utility.yul\":45892:46052   */\n    tag_386:\n        /* \"#utility.yul\":46032:46044   */\n      0x7620696e76616c69646f00000000000000000000000000000000000000000000\n        /* \"#utility.yul\":46028:46029   */\n      0x00\n        /* \"#utility.yul\":46020:46026   */\n      dup3\n        /* \"#utility.yul\":46016:46030   */\n      add\n        /* \"#utility.yul\":46009:46045   */\n      mstore\n        /* \"#utility.yul\":45892:46052   */\n      pop\n      jump\t// out\n        /* \"#utility.yul\":46058:46424   */\n    tag_387:\n        /* \"#utility.yul\":46200:46203   */\n      0x00\n        /* \"#utility.yul\":46221:46288   */\n      tag_793\n        /* \"#utility.yul\":46285:46287   */\n      0x0a\n        /* \"#utility.yul\":46280:46283   */\n      dup4\n        /* \"#utility.yul\":46221:46288   */\n      tag_287\n      jump\t// in\n    tag_793:\n        /* \"#utility.yul\":46214:46288   */\n      swap2\n      pop\n        /* \"#utility.yul\":46297:46390   */\n      tag_794\n        /* \"#utility.yul\":46386:46389   */\n      dup3\n        /* \"#utility.yul\":46297:46390   */\n      tag_386\n      jump\t// in\n    tag_794:\n        /* \"#utility.yul\":46415:46417   */\n      0x20\n        /* \"#utility.yul\":46410:46413   */\n      dup3\n        /* \"#utility.yul\":46406:46418   */\n      add\n        /* \"#utility.yul\":46399:46418   */\n      swap1\n      pop\n        /* \"#utility.yul\":46058:46424   */\n      swap2\n      swap1\n      pop\n      jump\t// out\n        /* \"#utility.yul\":46430:46849   */\n    tag_250:\n        /* \"#utility.yul\":46596:46600   */\n      0x00\n        /* \"#utility.yul\":46634:46636   */\n      0x20\n        /* \"#utility.yul\":46623:46632   */\n      dup3\n        /* \"#utility.yul\":46619:46637   */\n      add\n        /* \"#utility.yul\":46611:46637   */\n      swap1\n      pop\n        /* \"#utility.yul\":46683:46692   */\n      dup2\n        /* \"#utility.yul\":46677:46681   */\n      dup2\n        /* \"#utility.yul\":46673:46693   */\n      sub\n        /* \"#utility.yul\":46669:46670   */\n      0x00\n        /* \"#utility.yul\":46658:46667   */\n      dup4\n        /* \"#utility.yul\":46654:46671   */\n      add\n        /* \"#utility.yul\":46647:46694   */\n      mstore\n        /* \"#utility.yul\":46711:46842   */\n      tag_796\n        /* \"#utility.yul\":46837:46841   */\n      dup2\n        /* \"#utility.yul\":46711:46842   */\n      tag_387\n      jump\t// in\n    tag_796:\n        /* \"#utility.yul\":46703:46842   */\n      swap1\n      pop\n        /* \"#utility.yul\":46430:46849   */\n      swap2\n      swap1\n      pop\n      jump\t// out\n        /* \"#utility.yul\":46855:47400   */\n    tag_252:\n        /* \"#utility.yul\":47028:47032   */\n      0x00\n        /* \"#utility.yul\":47066:47069   */\n      0x80\n        /* \"#utility.yul\":47055:47064   */\n      dup3\n        /* \"#utility.yul\":47051:47070   */\n      add\n        /* \"#utility.yul\":47043:47070   */\n      swap1\n      pop\n        /* \"#utility.yul\":47080:47151   */\n      tag_798\n        /* \"#utility.yul\":47148:47149   */\n      0x00\n        /* \"#utility.yul\":47137:47146   */\n      dup4\n        /* \"#utility.yul\":47133:47150   */\n      add\n        /* \"#utility.yul\":47124:47130   */\n      dup8\n        /* \"#utility.yul\":47080:47151   */\n      tag_311\n      jump\t// in\n    tag_798:\n        /* \"#utility.yul\":47161:47229   */\n      tag_799\n        /* \"#utility.yul\":47225:47227   */\n      0x20\n        /* \"#utility.yul\":47214:47223   */\n      dup4\n        /* \"#utility.yul\":47210:47228   */\n      add\n        /* \"#utility.yul\":47201:47207   */\n      dup7\n        /* \"#utility.yul\":47161:47229   */\n      tag_313\n      jump\t// in\n    tag_799:\n        /* \"#utility.yul\":47239:47311   */\n      tag_800\n        /* \"#utility.yul\":47307:47309   */\n      0x40\n        /* \"#utility.yul\":47296:47305   */\n      dup4\n        /* \"#utility.yul\":47292:47310   */\n      add\n        /* \"#utility.yul\":47283:47289   */\n      dup6\n        /* \"#utility.yul\":47239:47311   */\n      tag_311\n      jump\t// in\n    tag_800:\n        /* \"#utility.yul\":47321:47393   */\n      tag_801\n        /* \"#utility.yul\":47389:47391   */\n      0x60\n        /* \"#utility.yul\":47378:47387   */\n      dup4\n        /* \"#utility.yul\":47374:47392   */\n      add\n        /* \"#utility.yul\":47365:47371   */\n      dup5\n        /* \"#utility.yul\":47321:47393   */\n      tag_311\n      jump\t// in\n    tag_801:\n        /* \"#utility.yul\":46855:47400   */\n      swap6\n      swap5\n      pop\n      pop\n      pop\n      pop\n      pop\n      jump\t// out\n        /* \"#utility.yul\":47406:47848   */\n    tag_260:\n        /* \"#utility.yul\":47555:47559   */\n      0x00\n        /* \"#utility.yul\":47593:47595   */\n      0x60\n        /* \"#utility.yul\":47582:47591   */\n      dup3\n        /* \"#utility.yul\":47578:47596   */\n      add\n        /* \"#utility.yul\":47570:47596   */\n      swap1\n      pop\n        /* \"#utility.yul\":47606:47677   */\n      tag_803\n        /* \"#utility.yul\":47674:47675   */\n      0x00\n        /* \"#utility.yul\":47663:47672   */\n      dup4\n        /* \"#utility.yul\":47659:47676   */\n      add\n        /* \"#utility.yul\":47650:47656   */\n      dup7\n        /* \"#utility.yul\":47606:47677   */\n      tag_321\n      jump\t// in\n    tag_803:\n        /* \"#utility.yul\":47687:47759   */\n      tag_804\n        /* \"#utility.yul\":47755:47757   */\n      0x20\n        /* \"#utility.yul\":47744:47753   */\n      dup4\n        /* \"#utility.yul\":47740:47758   */\n      add\n        /* \"#utility.yul\":47731:47737   */\n      dup6\n        /* \"#utility.yul\":47687:47759   */\n      tag_303\n      jump\t// in\n    tag_804:\n        /* \"#utility.yul\":47769:47841   */\n      tag_805\n        /* \"#utility.yul\":47837:47839   */\n      0x40\n        /* \"#utility.yul\":47826:47835   */\n      dup4\n        /* \"#utility.yul\":47822:47840   */\n      add\n        /* \"#utility.yul\":47813:47819   */\n      dup5\n        /* \"#utility.yul\":47769:47841   */\n      tag_303\n      jump\t// in\n    tag_805:\n        /* \"#utility.yul\":47406:47848   */\n      swap5\n      swap4\n      pop\n      pop\n      pop\n      pop\n      jump\t// out\n        /* \"#utility.yul\":47854:48076   */\n    tag_265:\n        /* \"#utility.yul\":47947:47951   */\n      0x00\n        /* \"#utility.yul\":47985:47987   */\n      0x20\n        /* \"#utility.yul\":47974:47983   */\n      dup3\n        /* \"#utility.yul\":47970:47988   */\n      add\n        /* \"#utility.yul\":47962:47988   */\n      swap1\n      pop\n        /* \"#utility.yul\":47998:48069   */\n      tag_807\n        /* \"#utility.yul\":48066:48067   */\n      0x00\n        /* \"#utility.yul\":48055:48064   */\n      dup4\n        /* \"#utility.yul\":48051:48068   */\n      add\n        /* \"#utility.yul\":48042:48048   */\n      dup5\n        /* \"#utility.yul\":47998:48069   */\n      tag_321\n      jump\t// in\n    tag_807:\n        /* \"#utility.yul\":47854:48076   */\n      swap3\n      swap2\n      pop\n      pop\n      jump\t// out\n\n    auxdata: 0xa2646970667358221220ab0689964493de0c173cc6e43778d9c766522fcedb6843f4f477b7aca4247a7f64736f6c634300081e0033\n}\n",
				"bytecode": {
					"linkReferences": {},
					"object": "608060405234801561000f575f5ffd5b506040518060400160405280600b81526020017f4e6170547820546f6b656e0000000000000000000000000000000000000000008152506040518060400160405280600481526020017f4e50545800000000000000000000000000000000000000000000000000000000815250816003908161008b9190610594565b50806004908161009b9190610594565b5050506100b4336509184e72a0006100b960201b60201c565b610778565b5f73ffffffffffffffffffffffffffffffffffffffff168273ffffffffffffffffffffffffffffffffffffffff1603610129575f6040517fec442f0500000000000000000000000000000000000000000000000000000000815260040161012091906106a2565b60405180910390fd5b61013a5f838361013e60201b60201c565b5050565b5f73ffffffffffffffffffffffffffffffffffffffff168373ffffffffffffffffffffffffffffffffffffffff160361018e578060025f82825461018291906106e8565b9250508190555061025c565b5f5f5f8573ffffffffffffffffffffffffffffffffffffffff1673ffffffffffffffffffffffffffffffffffffffff1681526020019081526020015f2054905081811015610217578381836040517fe450d38c00000000000000000000000000000000000000000000000000000000815260040161020e9392919061072a565b60405180910390fd5b8181035f5f8673ffffffffffffffffffffffffffffffffffffffff1673ffffffffffffffffffffffffffffffffffffffff1681526020019081526020015f2081905550505b5f73ffffffffffffffffffffffffffffffffffffffff168273ffffffffffffffffffffffffffffffffffffffff16036102a3578060025f82825403925050819055506102ed565b805f5f8473ffffffffffffffffffffffffffffffffffffffff1673ffffffffffffffffffffffffffffffffffffffff1681526020019081526020015f205f82825401925050819055505b8173ffffffffffffffffffffffffffffffffffffffff168373ffffffffffffffffffffffffffffffffffffffff167fddf252ad1be2c89b69c2b068fc378daa952ba7f163c4a11628f55a4df523b3ef8360405161034a919061075f565b60405180910390a3505050565b5f81519050919050565b7f4e487b71000000000000000000000000000000000000000000000000000000005f52604160045260245ffd5b7f4e487b71000000000000000000000000000000000000000000000000000000005f52602260045260245ffd5b5f60028204905060018216806103d257607f821691505b6020821081036103e5576103e461038e565b5b50919050565b5f819050815f5260205f209050919050565b5f6020601f8301049050919050565b5f82821b905092915050565b5f600883026104477fffffffffffffffffffffffffffffffffffffffffffffffffffffffffffffffff8261040c565b610451868361040c565b95508019841693508086168417925050509392505050565b5f819050919050565b5f819050919050565b5f61049561049061048b84610469565b610472565b610469565b9050919050565b5f819050919050565b6104ae8361047b565b6104c26104ba8261049c565b848454610418565b825550505050565b5f5f905090565b6104d96104ca565b6104e48184846104a5565b505050565b5b81811015610507576104fc5f826104d1565b6001810190506104ea565b5050565b601f82111561054c5761051d816103eb565b610526846103fd565b81016020851015610535578190505b610549610541856103fd565b8301826104e9565b50505b505050565b5f82821c905092915050565b5f61056c5f1984600802610551565b1980831691505092915050565b5f610584838361055d565b9150826002028217905092915050565b61059d82610357565b67ffffffffffffffff8111156105b6576105b5610361565b5b6105c082546103bb565b6105cb82828561050b565b5f60209050601f8311600181146105fc575f84156105ea578287015190505b6105f48582610579565b86555061065b565b601f19841661060a866103eb565b5f5b828110156106315784890151825560018201915060208501945060208101905061060c565b8683101561064e578489015161064a601f89168261055d565b8355505b6001600288020188555050505b505050505050565b5f73ffffffffffffffffffffffffffffffffffffffff82169050919050565b5f61068c82610663565b9050919050565b61069c81610682565b82525050565b5f6020820190506106b55f830184610693565b92915050565b7f4e487b71000000000000000000000000000000000000000000000000000000005f52601160045260245ffd5b5f6106f282610469565b91506106fd83610469565b9250828201905080821115610715576107146106bb565b5b92915050565b61072481610469565b82525050565b5f60608201905061073d5f830186610693565b61074a602083018561071b565b610757604083018461071b565b949350505050565b5f6020820190506107725f83018461071b565b92915050565b61368b806107855f395ff3fe608060405234801561000f575f5ffd5b5060043610610114575f3560e01c806395d89b41116100a0578063c5dc38a31161006f578063c5dc38a31461032d578063cb942a5f14610361578063dd62ed3e1461037f578063e8d7b7fa146103af578063f021cffe146103e957610114565b806395d89b4114610292578063a7b2dcc9146102b0578063a9059cbb146102e1578063c0d1782f1461031157610114565b806323b872dd116100e757806323b872dd146101b457806327386fde146101e4578063313ce5671461021457806370a082311461023257806393004a381461026257610114565b806306fdde0314610118578063095ea7b31461013657806318160ddd146101665780631dedc70e14610184575b5f5ffd5b610120610407565b60405161012d919061202d565b60405180910390f35b610150600480360381019061014b91906120eb565b610497565b60405161015d9190612143565b60405180910390f35b61016e6104b9565b60405161017b919061216b565b60405180910390f35b61019e60048036038101906101999190612218565b6104c2565b6040516101ab91906122ab565b60405180910390f35b6101ce60048036038101906101c991906122c4565b6109ac565b6040516101db9190612143565b60405180910390f35b6101fe60048036038101906101f991906120eb565b6109da565b60405161020b9190612143565b60405180910390f35b61021c610a04565b604051610229919061232f565b60405180910390f35b61024c60048036038101906102479190612348565b610a0c565b604051610259919061216b565b60405180910390f35b61027c60048036038101906102779190612373565b610a51565b6040516102899190612143565b60405180910390f35b61029a610a6e565b6040516102a7919061202d565b60405180910390f35b6102ca60048036038101906102c5919061239e565b610afe565b6040516102d892919061245b565b60405180910390f35b6102fb60048036038101906102f691906120eb565b61128b565b6040516103089190612143565b60405180910390f35b61032b6004803603810190610326919061260f565b6112ad565b005b61034760048036038101906103429190612348565b611788565b6040516103589594939291906126f1565b60405180910390f35b6103696117e5565b604051610376919061216b565b60405180910390f35b61039960048036038101906103949190612742565b6117eb565b6040516103a6919061216b565b60405180910390f35b6103c960048036038101906103c49190612373565b61186d565b6040516103e09b9a999897969594939291906127f3565b60405180910390f35b6103f161190d565b6040516103fe919061216b565b60405180910390f35b606060038054610416906128c9565b80601f0160208091040260200160405190810160405280929190818152602001828054610442906128c9565b801561048d5780601f106104645761010080835404028352916020019161048d565b820191905f5260205f20905b81548152906001019060200180831161047057829003601f168201915b5050505050905090565b5f5f6104a1611913565b90506104ae81858561191a565b600191505092915050565b5f600254905090565b5f5f33905060055f8273ffffffffffffffffffffffffffffffffffffffff1673ffffffffffffffffffffffffffffffffffffffff1681526020019081526020015f206004015f9054906101000a900460ff1615610554576040517f08c379a000000000000000000000000000000000000000000000000000000000815260040161054b90612943565b60405180910390fd5b60085f8881526020019081526020015f205f9054906101000a900460ff16156105b2576040517f08c379a00000000000000000000000000000000000000000000000000000000081526004016105a9906129ab565b60405180910390fd5b61012c866105c091906129f6565b421115610602576040517f08c379a00000000000000000000000000000000000000000000000000000000081526004016105f990612a73565b60405180910390fd5b5f8188888860405160200161061a9493929190612b16565b6040516020818303038152906040528051906020012090505f6106808287878080601f0160208091040260200160405190810160405280939291908181526020018383808284375f81840152601f19601f8201169050808301925050505050505061192c565b90508273ffffffffffffffffffffffffffffffffffffffff168173ffffffffffffffffffffffffffffffffffffffff16146106f0576040517f08c379a00000000000000000000000000000000000000000000000000000000081526004016106e790612bad565b60405180910390fd5b82894260405160200161070593929190612c1f565b6040516020818303038152906040528051906020012093508260055f8573ffffffffffffffffffffffffffffffffffffffff1673ffffffffffffffffffffffffffffffffffffffff1681526020019081526020015f205f015f6101000a81548173ffffffffffffffffffffffffffffffffffffffff021916908373ffffffffffffffffffffffffffffffffffffffff1602179055508360055f8573ffffffffffffffffffffffffffffffffffffffff1673ffffffffffffffffffffffffffffffffffffffff1681526020019081526020015f20600101819055508860055f8573ffffffffffffffffffffffffffffffffffffffff1673ffffffffffffffffffffffffffffffffffffffff1681526020019081526020015f20600501819055505f60055f8573ffffffffffffffffffffffffffffffffffffffff1673ffffffffffffffffffffffffffffffffffffffff1681526020019081526020015f2060030181905550600160055f8573ffffffffffffffffffffffffffffffffffffffff1673ffffffffffffffffffffffffffffffffffffffff1681526020019081526020015f206004015f6101000a81548160ff021916908315150217905550600160085f8b81526020019081526020015f205f6101000a81548160ff021916908315150217905550600160075f8573ffffffffffffffffffffffffffffffffffffffff1673ffffffffffffffffffffffffffffffffffffffff1681526020019081526020015f205f8981526020019081526020015f205f6101000a81548160ff0219169083151502179055508273ffffffffffffffffffffffffffffffffffffffff167f33ee050b57a9d4230ce40c33cffd55a1210af20d6915c2d690b821d8a38223438a864260405161099893929190612c66565b60405180910390a250505095945050505050565b5f5f6109b6611913565b90506109c3858285611a52565b6109ce858585611ae5565b60019150509392505050565b6007602052815f5260405f20602052805f5260405f205f915091509054906101000a900460ff1681565b5f6012905090565b5f5f5f8373ffffffffffffffffffffffffffffffffffffffff1673ffffffffffffffffffffffffffffffffffffffff1681526020019081526020015f20549050919050565b6008602052805f5260405f205f915054906101000a900460ff1681565b606060048054610a7d906128c9565b80601f0160208091040260200160405190810160405280929190818152602001828054610aa9906128c9565b8015610af45780601f10610acb57610100808354040283529160200191610af4565b820191905f5260205f20905b815481529060010190602001808311610ad757829003601f168201915b5050505050905090565b5f5f5f8a8a8a8a8a8a604051602001610b1c96959493929190612c9b565b6040516020818303038152906040528051906020012090505f610b828287878080601f0160208091040260200160405190810160405280939291908181526020018383808284375f81840152601f19601f8201169050808301925050505050505061192c565b905060055f8273ffffffffffffffffffffffffffffffffffffffff1673ffffffffffffffffffffffffffffffffffffffff1681526020019081526020015f206004015f9054906101000a900460ff16610c10576040517f08c379a0000000000000000000000000000000000000000000000000000000008152600401610c0790612d54565b60405180910390fd5b8b60055f8373ffffffffffffffffffffffffffffffffffffffff1673ffffffffffffffffffffffffffffffffffffffff1681526020019081526020015f206001015414610c92576040517f08c379a0000000000000000000000000000000000000000000000000000000008152600401610c8990612dbc565b60405180910390fd5b8660055f8373ffffffffffffffffffffffffffffffffffffffff1673ffffffffffffffffffffffffffffffffffffffff1681526020019081526020015f206005015414610d14576040517f08c379a0000000000000000000000000000000000000000000000000000000008152600401610d0b90612e24565b60405180910390fd5b61012c89610d2291906129f6565b421115610d64576040517f08c379a0000000000000000000000000000000000000000000000000000000008152600401610d5b90612a73565b60405180910390fd5b60075f8273ffffffffffffffffffffffffffffffffffffffff1673ffffffffffffffffffffffffffffffffffffffff1681526020019081526020015f205f8981526020019081526020015f205f9054906101000a900460ff1615610dfd576040517f08c379a0000000000000000000000000000000000000000000000000000000008152600401610df490612e8c565b60405180910390fd5b8a60055f8373ffffffffffffffffffffffffffffffffffffffff1673ffffffffffffffffffffffffffffffffffffffff1681526020019081526020015f206002015f8c73ffffffffffffffffffffffffffffffffffffffff1673ffffffffffffffffffffffffffffffffffffffff1681526020019081526020015f20541015610ebb576040517f08c379a0000000000000000000000000000000000000000000000000000000008152600401610eb290612ef4565b60405180910390fd5b8a610ec682306117eb565b1015610f07576040517f08c379a0000000000000000000000000000000000000000000000000000000008152600401610efe90612f5c565b60405180910390fd5b8a610f1182610a0c565b1015610f52576040517f08c379a0000000000000000000000000000000000000000000000000000000008152600401610f4990612fc4565b60405180910390fd5b808a8c8e428c604051602001610f6d96959493929190612fe2565b6040516020818303038152906040528051906020012093505f73ffffffffffffffffffffffffffffffffffffffff1660065f8681526020019081526020015f206001015f9054906101000a900473ffffffffffffffffffffffffffffffffffffffff1673ffffffffffffffffffffffffffffffffffffffff1614611026576040517f08c379a000000000000000000000000000000000000000000000000000000000815260040161101d9061309b565b60405180910390fd5b8b844260405160200161103b93929190613103565b6040516020818303038152906040528051906020012092508360065f8681526020019081526020015f205f01819055508060065f8681526020019081526020015f206001015f6101000a81548173ffffffffffffffffffffffffffffffffffffffff021916908373ffffffffffffffffffffffffffffffffffffffff1602179055508960065f8681526020019081526020015f206002015f6101000a81548173ffffffffffffffffffffffffffffffffffffffff021916908373ffffffffffffffffffffffffffffffffffffffff1602179055508a60065f8681526020019081526020015f20600301819055508b60065f8681526020019081526020015f20600401819055508260065f8681526020019081526020015f20600501819055504260065f8681526020019081526020015f20600701819055505f60065f8681526020019081526020015f206009015f6101000a81548160ff021916908360038111156111a9576111a8612780565b5b0217905550600160075f8373ffffffffffffffffffffffffffffffffffffffff1673ffffffffffffffffffffffffffffffffffffffff1681526020019081526020015f205f8a81526020019081526020015f205f6101000a81548160ff0219169083151502179055508973ffffffffffffffffffffffffffffffffffffffff168173ffffffffffffffffffffffffffffffffffffffff16857f5a10ea259427b588e51f66ca281a95e7b6a497d7aff40eb19f9ea12f67c4dc4b8e878e6040516112749392919061314a565b60405180910390a450509850989650505050505050565b5f5f611295611913565b90506112a2818585611ae5565b600191505092915050565b5f33905060055f8273ffffffffffffffffffffffffffffffffffffffff1673ffffffffffffffffffffffffffffffffffffffff1681526020019081526020015f206004015f9054906101000a900460ff1661133d576040517f08c379a000000000000000000000000000000000000000000000000000000000815260040161133490612d54565b60405180910390fd5b86869050885114611383576040517f08c379a000000000000000000000000000000000000000000000000000000000815260040161137a906131c9565b60405180910390fd5b61012c8561139191906129f6565b4211156113d3576040517f08c379a00000000000000000000000000000000000000000000000000000000081526004016113ca90612a73565b60405180910390fd5b60075f8273ffffffffffffffffffffffffffffffffffffffff1673ffffffffffffffffffffffffffffffffffffffff1681526020019081526020015f205f8581526020019081526020015f205f9054906101000a900460ff161561146c576040517f08c379a000000000000000000000000000000000000000000000000000000000815260040161146390612e8c565b60405180910390fd5b5f888888888860405160200161148695949392919061330a565b6040516020818303038152906040528051906020012090505f6114ec8286868080601f0160208091040260200160405190810160405280939291908181526020018383808284375f81840152601f19601f8201169050808301925050505050505061192c565b90508273ffffffffffffffffffffffffffffffffffffffff168173ffffffffffffffffffffffffffffffffffffffff161461155c576040517f08c379a000000000000000000000000000000000000000000000000000000000815260040161155390612bad565b60405180910390fd5b5f5f90505f5f90505b8b518110156115a2578a8a8281811061158157611580613351565b5b905060200201358261159391906129f6565b91508080600101915050611565565b505f6115ae85306117eb565b9050808211156115f3576040517f08c379a00000000000000000000000000000000000000000000000000000000081526004016115ea906133c8565b60405180910390fd5b5f5f90505b8c518110156116c1578b8b8281811061161457611613613351565b5b9050602002013560055f8873ffffffffffffffffffffffffffffffffffffffff1673ffffffffffffffffffffffffffffffffffffffff1681526020019081526020015f206002015f8f848151811061166f5761166e613351565b5b602002602001015173ffffffffffffffffffffffffffffffffffffffff1673ffffffffffffffffffffffffffffffffffffffff1681526020019081526020015f208190555080806001019150506115f8565b50600160075f8773ffffffffffffffffffffffffffffffffffffffff1673ffffffffffffffffffffffffffffffffffffffff1681526020019081526020015f205f8a81526020019081526020015f205f6101000a81548160ff0219169083151502179055508473ffffffffffffffffffffffffffffffffffffffff167f1350de0e499b0e4996f5ed7a5beb1c93ec8096be6d7375514726766b5dbd6bfc8d8d8d8d60405161177294939291906134e3565b60405180910390a2505050505050505050505050565b6005602052805f5260405f205f91509050805f015f9054906101000a900473ffffffffffffffffffffffffffffffffffffffff1690806001015490806003015490806004015f9054906101000a900460ff16908060050154905085565b61025881565b5f60015f8473ffffffffffffffffffffffffffffffffffffffff1673ffffffffffffffffffffffffffffffffffffffff1681526020019081526020015f205f8373ffffffffffffffffffffffffffffffffffffffff1673ffffffffffffffffffffffffffffffffffffffff1681526020019081526020015f2054905092915050565b6006602052805f5260405f205f91509050805f015490806001015f9054906101000a900473ffffffffffffffffffffffffffffffffffffffff1690806002015f9054906101000a900473ffffffffffffffffffffffffffffffffffffffff1690806003015490806004015490806005015490806006015490806007015490806008015490806009015f9054906101000a900460ff169080600a015490508b565b61012c81565b5f33905090565b6119278383836001611bd5565b505050565b5f6041825114611971576040517f08c379a000000000000000000000000000000000000000000000000000000000815260040161196890612bad565b60405180910390fd5b5f5f5f602085015192506040850151915060608501515f1a9050601b8160ff1610156119a757601b816119a49190613528565b90505b601b8160ff1614806119bc5750601c8160ff16145b6119fb576040517f08c379a00000000000000000000000000000000000000000000000000000000081526004016119f2906135a6565b60405180910390fd5b6001868285856040515f8152602001604052604051611a1d94939291906135c4565b6020604051602081039080840390855afa158015611a3d573d5f5f3e3d5ffd5b50505060206040510351935050505092915050565b5f611a5d84846117eb565b90507fffffffffffffffffffffffffffffffffffffffffffffffffffffffffffffffff811015611adf5781811015611ad0578281836040517ffb8f41b2000000000000000000000000000000000000000000000000000000008152600401611ac793929190613607565b60405180910390fd5b611ade84848484035f611bd5565b5b50505050565b5f73ffffffffffffffffffffffffffffffffffffffff168373ffffffffffffffffffffffffffffffffffffffff1603611b55575f6040517f96c6fd1e000000000000000000000000000000000000000000000000000000008152600401611b4c919061363c565b60405180910390fd5b5f73ffffffffffffffffffffffffffffffffffffffff168273ffffffffffffffffffffffffffffffffffffffff1603611bc5575f6040517fec442f05000000000000000000000000000000000000000000000000000000008152600401611bbc919061363c565b60405180910390fd5b611bd0838383611da4565b505050565b5f73ffffffffffffffffffffffffffffffffffffffff168473ffffffffffffffffffffffffffffffffffffffff1603611c45575f6040517fe602df05000000000000000000000000000000000000000000000000000000008152600401611c3c919061363c565b60405180910390fd5b5f73ffffffffffffffffffffffffffffffffffffffff168373ffffffffffffffffffffffffffffffffffffffff1603611cb5575f6040517f94280d62000000000000000000000000000000000000000000000000000000008152600401611cac919061363c565b60405180910390fd5b8160015f8673ffffffffffffffffffffffffffffffffffffffff1673ffffffffffffffffffffffffffffffffffffffff1681526020019081526020015f205f8573ffffffffffffffffffffffffffffffffffffffff1673ffffffffffffffffffffffffffffffffffffffff1681526020019081526020015f20819055508015611d9e578273ffffffffffffffffffffffffffffffffffffffff168473ffffffffffffffffffffffffffffffffffffffff167f8c5be1e5ebec7d5bd14f71427d1e84f3dd0314c0f7b2291e5b200ac8c7c3b92584604051611d95919061216b565b60405180910390a35b50505050565b5f73ffffffffffffffffffffffffffffffffffffffff168373ffffffffffffffffffffffffffffffffffffffff1603611df4578060025f828254611de891906129f6565b92505081905550611ec2565b5f5f5f8573ffffffffffffffffffffffffffffffffffffffff1673ffffffffffffffffffffffffffffffffffffffff1681526020019081526020015f2054905081811015611e7d578381836040517fe450d38c000000000000000000000000000000000000000000000000000000008152600401611e7493929190613607565b60405180910390fd5b8181035f5f8673ffffffffffffffffffffffffffffffffffffffff1673ffffffffffffffffffffffffffffffffffffffff1681526020019081526020015f2081905550505b5f73ffffffffffffffffffffffffffffffffffffffff168273ffffffffffffffffffffffffffffffffffffffff1603611f09578060025f8282540392505081905550611f53565b805f5f8473ffffffffffffffffffffffffffffffffffffffff1673ffffffffffffffffffffffffffffffffffffffff1681526020019081526020015f205f82825401925050819055505b8173ffffffffffffffffffffffffffffffffffffffff168373ffffffffffffffffffffffffffffffffffffffff167fddf252ad1be2c89b69c2b068fc378daa952ba7f163c4a11628f55a4df523b3ef83604051611fb0919061216b565b60405180910390a3505050565b5f81519050919050565b5f82825260208201905092915050565b8281835e5f83830152505050565b5f601f19601f8301169050919050565b5f611fff82611fbd565b6120098185611fc7565b9350612019818560208601611fd7565b61202281611fe5565b840191505092915050565b5f6020820190508181035f8301526120458184611ff5565b905092915050565b5f604051905090565b5f5ffd5b5f5ffd5b5f73ffffffffffffffffffffffffffffffffffffffff82169050919050565b5f6120878261205e565b9050919050565b6120978161207d565b81146120a1575f5ffd5b50565b5f813590506120b28161208e565b92915050565b5f819050919050565b6120ca816120b8565b81146120d4575f5ffd5b50565b5f813590506120e5816120c1565b92915050565b5f5f6040838503121561210157612100612056565b5b5f61210e858286016120a4565b925050602061211f858286016120d7565b9150509250929050565b5f8115159050919050565b61213d81612129565b82525050565b5f6020820190506121565f830184612134565b92915050565b612165816120b8565b82525050565b5f60208201905061217e5f83018461215c565b92915050565b5f819050919050565b61219681612184565b81146121a0575f5ffd5b50565b5f813590506121b18161218d565b92915050565b5f5ffd5b5f5ffd5b5f5ffd5b5f5f83601f8401126121d8576121d76121b7565b5b8235905067ffffffffffffffff8111156121f5576121f46121bb565b5b602083019150836001820283011115612211576122106121bf565b5b9250929050565b5f5f5f5f5f6080868803121561223157612230612056565b5b5f61223e888289016121a3565b955050602061224f888289016120d7565b9450506040612260888289016120d7565b935050606086013567ffffffffffffffff8111156122815761228061205a565b5b61228d888289016121c3565b92509250509295509295909350565b6122a581612184565b82525050565b5f6020820190506122be5f83018461229c565b92915050565b5f5f5f606084860312156122db576122da612056565b5b5f6122e8868287016120a4565b93505060206122f9868287016120a4565b925050604061230a868287016120d7565b9150509250925092565b5f60ff82169050919050565b61232981612314565b82525050565b5f6020820190506123425f830184612320565b92915050565b5f6020828403121561235d5761235c612056565b5b5f61236a848285016120a4565b91505092915050565b5f6020828403121561238857612387612056565b5b5f612395848285016121a3565b91505092915050565b5f5f5f5f5f5f5f5f60e0898b0312156123ba576123b9612056565b5b5f6123c78b828c016121a3565b98505060206123d88b828c016120d7565b97505060406123e98b828c016120a4565b96505060606123fa8b828c016120d7565b955050608061240b8b828c016120d7565b94505060a061241c8b828c016121a3565b93505060c089013567ffffffffffffffff81111561243d5761243c61205a565b5b6124498b828c016121c3565b92509250509295985092959890939650565b5f60408201905061246e5f83018561229c565b61247b602083018461229c565b9392505050565b7f4e487b71000000000000000000000000000000000000000000000000000000005f52604160045260245ffd5b6124b882611fe5565b810181811067ffffffffffffffff821117156124d7576124d6612482565b5b80604052505050565b5f6124e961204d565b90506124f582826124af565b919050565b5f67ffffffffffffffff82111561251457612513612482565b5b602082029050602081019050919050565b5f612537612532846124fa565b6124e0565b9050808382526020820190506020840283018581111561255a576125596121bf565b5b835b81811015612583578061256f88826120a4565b84526020840193505060208101905061255c565b5050509392505050565b5f82601f8301126125a1576125a06121b7565b5b81356125b1848260208601612525565b91505092915050565b5f5f83601f8401126125cf576125ce6121b7565b5b8235905067ffffffffffffffff8111156125ec576125eb6121bb565b5b602083019150836020820283011115612608576126076121bf565b5b9250929050565b5f5f5f5f5f5f5f60a0888a03121561262a57612629612056565b5b5f88013567ffffffffffffffff8111156126475761264661205a565b5b6126538a828b0161258d565b975050602088013567ffffffffffffffff8111156126745761267361205a565b5b6126808a828b016125ba565b965096505060406126938a828b016120d7565b94505060606126a48a828b016120d7565b935050608088013567ffffffffffffffff8111156126c5576126c461205a565b5b6126d18a828b016121c3565b925092505092959891949750929550565b6126eb8161207d565b82525050565b5f60a0820190506127045f8301886126e2565b612711602083018761229c565b61271e604083018661215c565b61272b6060830185612134565b612738608083018461229c565b9695505050505050565b5f5f6040838503121561275857612757612056565b5b5f612765858286016120a4565b9250506020612776858286016120a4565b9150509250929050565b7f4e487b71000000000000000000000000000000000000000000000000000000005f52602160045260245ffd5b600481106127be576127bd612780565b5b50565b5f8190506127ce826127ad565b919050565b5f6127dd826127c1565b9050919050565b6127ed816127d3565b82525050565b5f610160820190506128075f83018e61229c565b612814602083018d6126e2565b612821604083018c6126e2565b61282e606083018b61215c565b61283b608083018a61229c565b61284860a083018961229c565b61285560c083018861229c565b61286260e083018761215c565b61287061010083018661215c565b61287e6101208301856127e4565b61288c61014083018461229c565b9c9b505050505050505050505050565b7f4e487b71000000000000000000000000000000000000000000000000000000005f52602260045260245ffd5b5f60028204905060018216806128e057607f821691505b6020821081036128f3576128f261289c565b5b50919050565b7f5961207265676973747261646f000000000000000000000000000000000000005f82015250565b5f61292d600d83611fc7565b9150612938826128f9565b602082019050919050565b5f6020820190508181035f83015261295a81612921565b9050919050565b7f44657669636520796120757361646f00000000000000000000000000000000005f82015250565b5f612995600f83611fc7565b91506129a082612961565b602082019050919050565b5f6020820190508181035f8301526129c281612989565b9050919050565b7f4e487b71000000000000000000000000000000000000000000000000000000005f52601160045260245ffd5b5f612a00826120b8565b9150612a0b836120b8565b9250828201905080821115612a2357612a226129c9565b5b92915050565b7f54696d657374616d7020657870697261646f00000000000000000000000000005f82015250565b5f612a5d601283611fc7565b9150612a6882612a29565b602082019050919050565b5f6020820190508181035f830152612a8a81612a51565b9050919050565b5f8160601b9050919050565b5f612aa782612a91565b9050919050565b5f612ab882612a9d565b9050919050565b612ad0612acb8261207d565b612aae565b82525050565b5f819050919050565b612af0612aeb82612184565b612ad6565b82525050565b5f819050919050565b612b10612b0b826120b8565b612af6565b82525050565b5f612b218287612abf565b601482019150612b318286612adf565b602082019150612b418285612aff565b602082019150612b518284612aff565b60208201915081905095945050505050565b7f4669726d6120696e76616c6964610000000000000000000000000000000000005f82015250565b5f612b97600e83611fc7565b9150612ba282612b63565b602082019050919050565b5f6020820190508181035f830152612bc481612b8b565b9050919050565b5f81905092915050565b7f67656e65736973000000000000000000000000000000000000000000000000005f82015250565b5f612c09600783612bcb565b9150612c1482612bd5565b600782019050919050565b5f612c2a8286612abf565b601482019150612c3a8285612adf565b602082019150612c4a8284612aff565b602082019150612c5982612bfd565b9150819050949350505050565b5f606082019050612c795f83018661229c565b612c86602083018561229c565b612c93604083018461215c565b949350505050565b5f612ca68289612adf565b602082019150612cb68288612aff565b602082019150612cc68287612abf565b601482019150612cd68286612aff565b602082019150612ce68285612aff565b602082019150612cf68284612adf565b602082019150819050979650505050505050565b7f4e6f207265676973747261646f000000000000000000000000000000000000005f82015250565b5f612d3e600d83611fc7565b9150612d4982612d0a565b602082019050919050565b5f6020820190508181035f830152612d6b81612d32565b9050919050565b7f4861736820696e76616c69646f000000000000000000000000000000000000005f82015250565b5f612da6600d83611fc7565b9150612db182612d72565b602082019050919050565b5f6020820190508181035f830152612dd381612d9a565b9050919050565b7f44657669636520696e76616c69646f00000000000000000000000000000000005f82015250565b5f612e0e600f83611fc7565b9150612e1982612dda565b602082019050919050565b5f6020820190508181035f830152612e3b81612e02565b9050919050565b7f4e6f6e636520796120757361646f0000000000000000000000000000000000005f82015250565b5f612e76600e83611fc7565b9150612e8182612e42565b602082019050919050565b5f6020820190508181035f830152612ea381612e6a565b9050919050565b7f457863656465206c696d697465730000000000000000000000000000000000005f82015250565b5f612ede600e83611fc7565b9150612ee982612eaa565b602082019050919050565b5f6020820190508181035f830152612f0b81612ed2565b9050919050565b7f416c6c6f77616e636520696e737566696369656e7465000000000000000000005f82015250565b5f612f46601683611fc7565b9150612f5182612f12565b602082019050919050565b5f6020820190508181035f830152612f7381612f3a565b9050919050565b7f42616c616e636520696e737566696369656e74650000000000000000000000005f82015250565b5f612fae601483611fc7565b9150612fb982612f7a565b602082019050919050565b5f6020820190508181035f830152612fdb81612fa2565b9050919050565b5f612fed8289612abf565b601482019150612ffd8288612abf565b60148201915061300d8287612aff565b60208201915061301d8286612adf565b60208201915061302d8285612aff565b60208201915061303d8284612aff565b602082019150819050979650505050505050565b7f5061676f207961206578697374656e74650000000000000000000000000000005f82015250565b5f613085601183611fc7565b915061309082613051565b602082019050919050565b5f6020820190508181035f8301526130b281613079565b9050919050565b7f70726570617261646f00000000000000000000000000000000000000000000005f82015250565b5f6130ed600983612bcb565b91506130f8826130b9565b600982019050919050565b5f61310e8286612adf565b60208201915061311d826130e1565b91506131298285612adf565b6020820191506131398284612aff565b602082019150819050949350505050565b5f60608201905061315d5f83018661215c565b61316a602083018561229c565b613177604083018461215c565b949350505050565b7f4c6f6e67697475646573206469666572656e74657300000000000000000000005f82015250565b5f6131b3601583611fc7565b91506131be8261317f565b602082019050919050565b5f6020820190508181035f8301526131e0816131a7565b9050919050565b5f81519050919050565b5f81905092915050565b5f819050602082019050919050565b6132138161207d565b82525050565b5f613224838361320a565b60208301905092915050565b5f602082019050919050565b5f613246826131e7565b61325081856131f1565b935061325b836131fb565b805f5b8381101561328b5781516132728882613219565b975061327d83613230565b92505060018101905061325e565b5085935050505092915050565b5f81905092915050565b5f5ffd5b82818337505050565b5f6132ba8385613298565b93507f07ffffffffffffffffffffffffffffffffffffffffffffffffffffffffffffff8311156132ed576132ec6132a2565b5b6020830292506132fe8385846132a6565b82840190509392505050565b5f613315828861323c565b91506133228286886132af565b915061332e8285612aff565b60208201915061333e8284612aff565b6020820191508190509695505050505050565b7f4e487b71000000000000000000000000000000000000000000000000000000005f52603260045260245ffd5b7f53756d61203e20616c6c6f77616e6365000000000000000000000000000000005f82015250565b5f6133b2601083611fc7565b91506133bd8261337e565b602082019050919050565b5f6020820190508181035f8301526133df816133a6565b9050919050565b5f82825260208201905092915050565b6133ff8161207d565b82525050565b5f61341083836133f6565b60208301905092915050565b5f613426826131e7565b61343081856133e6565b935061343b836131fb565b805f5b8381101561346b5781516134528882613405565b975061345d83613230565b92505060018101905061343e565b5085935050505092915050565b5f82825260208201905092915050565b5f6134938385613478565b93507f07ffffffffffffffffffffffffffffffffffffffffffffffffffffffffffffff8311156134c6576134c56132a2565b5b6020830292506134d78385846132a6565b82840190509392505050565b5f6060820190508181035f8301526134fb818761341c565b90508181036020830152613510818587613488565b905061351f604083018461215c565b95945050505050565b5f61353282612314565b915061353d83612314565b9250828201905060ff811115613556576135556129c9565b5b92915050565b7f7620696e76616c69646f000000000000000000000000000000000000000000005f82015250565b5f613590600a83611fc7565b915061359b8261355c565b602082019050919050565b5f6020820190508181035f8301526135bd81613584565b9050919050565b5f6080820190506135d75f83018761229c565b6135e46020830186612320565b6135f1604083018561229c565b6135fe606083018461229c565b95945050505050565b5f60608201905061361a5f8301866126e2565b613627602083018561215c565b613634604083018461215c565b949350505050565b5f60208201905061364f5f8301846126e2565b9291505056fea2646970667358221220ab0689964493de0c173cc6e43778d9c766522fcedb6843f4f477b7aca4247a7f64736f6c634300081e0033",
					"opcodes": "PUSH1 0x80 PUSH1 0x40 MSTORE CALLVALUE DUP1 ISZERO PUSH2 0xF JUMPI PUSH0 PUSH0 REVERT JUMPDEST POP PUSH1 0x40 MLOAD DUP1 PUSH1 0x40 ADD PUSH1 0x40 MSTORE DUP1 PUSH1 0xB DUP2 MSTORE PUSH1 0x20 ADD PUSH32 0x4E6170547820546F6B656E000000000000000000000000000000000000000000 DUP2 MSTORE POP PUSH1 0x40 MLOAD DUP1 PUSH1 0x40 ADD PUSH1 0x40 MSTORE DUP1 PUSH1 0x4 DUP2 MSTORE PUSH1 0x20 ADD PUSH32 0x4E50545800000000000000000000000000000000000000000000000000000000 DUP2 MSTORE POP DUP2 PUSH1 0x3 SWAP1 DUP2 PUSH2 0x8B SWAP2 SWAP1 PUSH2 0x594 JUMP JUMPDEST POP DUP1 PUSH1 0x4 SWAP1 DUP2 PUSH2 0x9B SWAP2 SWAP1 PUSH2 0x594 JUMP JUMPDEST POP POP POP PUSH2 0xB4 CALLER PUSH6 0x9184E72A000 PUSH2 0xB9 PUSH1 0x20 SHL PUSH1 0x20 SHR JUMP JUMPDEST PUSH2 0x778 JUMP JUMPDEST PUSH0 PUSH20 0xFFFFFFFFFFFFFFFFFFFFFFFFFFFFFFFFFFFFFFFF AND DUP3 PUSH20 0xFFFFFFFFFFFFFFFFFFFFFFFFFFFFFFFFFFFFFFFF AND SUB PUSH2 0x129 JUMPI PUSH0 PUSH1 0x40 MLOAD PUSH32 0xEC442F0500000000000000000000000000000000000000000000000000000000 DUP2 MSTORE PUSH1 0x4 ADD PUSH2 0x120 SWAP2 SWAP1 PUSH2 0x6A2 JUMP JUMPDEST PUSH1 0x40 MLOAD DUP1 SWAP2 SUB SWAP1 REVERT JUMPDEST PUSH2 0x13A PUSH0 DUP4 DUP4 PUSH2 0x13E PUSH1 0x20 SHL PUSH1 0x20 SHR JUMP JUMPDEST POP POP JUMP JUMPDEST PUSH0 PUSH20 0xFFFFFFFFFFFFFFFFFFFFFFFFFFFFFFFFFFFFFFFF AND DUP4 PUSH20 0xFFFFFFFFFFFFFFFFFFFFFFFFFFFFFFFFFFFFFFFF AND SUB PUSH2 0x18E JUMPI DUP1 PUSH1 0x2 PUSH0 DUP3 DUP3 SLOAD PUSH2 0x182 SWAP2 SWAP1 PUSH2 0x6E8 JUMP JUMPDEST SWAP3 POP POP DUP2 SWAP1 SSTORE POP PUSH2 0x25C JUMP JUMPDEST PUSH0 PUSH0 PUSH0 DUP6 PUSH20 0xFFFFFFFFFFFFFFFFFFFFFFFFFFFFFFFFFFFFFFFF AND PUSH20 0xFFFFFFFFFFFFFFFFFFFFFFFFFFFFFFFFFFFFFFFF AND DUP2 MSTORE PUSH1 0x20 ADD SWAP1 DUP2 MSTORE PUSH1 0x20 ADD PUSH0 KECCAK256 SLOAD SWAP1 POP DUP2 DUP2 LT ISZERO PUSH2 0x217 JUMPI DUP4 DUP2 DUP4 PUSH1 0x40 MLOAD PUSH32 0xE450D38C00000000000000000000000000000000000000000000000000000000 DUP2 MSTORE PUSH1 0x4 ADD PUSH2 0x20E SWAP4 SWAP3 SWAP2 SWAP1 PUSH2 0x72A JUMP JUMPDEST PUSH1 0x40 MLOAD DUP1 SWAP2 SUB SWAP1 REVERT JUMPDEST DUP2 DUP2 SUB PUSH0 PUSH0 DUP7 PUSH20 0xFFFFFFFFFFFFFFFFFFFFFFFFFFFFFFFFFFFFFFFF AND PUSH20 0xFFFFFFFFFFFFFFFFFFFFFFFFFFFFFFFFFFFFFFFF AND DUP2 MSTORE PUSH1 0x20 ADD SWAP1 DUP2 MSTORE PUSH1 0x20 ADD PUSH0 KECCAK256 DUP2 SWAP1 SSTORE POP POP JUMPDEST PUSH0 PUSH20 0xFFFFFFFFFFFFFFFFFFFFFFFFFFFFFFFFFFFFFFFF AND DUP3 PUSH20 0xFFFFFFFFFFFFFFFFFFFFFFFFFFFFFFFFFFFFFFFF AND SUB PUSH2 0x2A3 JUMPI DUP1 PUSH1 0x2 PUSH0 DUP3 DUP3 SLOAD SUB SWAP3 POP POP DUP2 SWAP1 SSTORE POP PUSH2 0x2ED JUMP JUMPDEST DUP1 PUSH0 PUSH0 DUP5 PUSH20 0xFFFFFFFFFFFFFFFFFFFFFFFFFFFFFFFFFFFFFFFF AND PUSH20 0xFFFFFFFFFFFFFFFFFFFFFFFFFFFFFFFFFFFFFFFF AND DUP2 MSTORE PUSH1 0x20 ADD SWAP1 DUP2 MSTORE PUSH1 0x20 ADD PUSH0 KECCAK256 PUSH0 DUP3 DUP3 SLOAD ADD SWAP3 POP POP DUP2 SWAP1 SSTORE POP JUMPDEST DUP2 PUSH20 0xFFFFFFFFFFFFFFFFFFFFFFFFFFFFFFFFFFFFFFFF AND DUP4 PUSH20 0xFFFFFFFFFFFFFFFFFFFFFFFFFFFFFFFFFFFFFFFF AND PUSH32 0xDDF252AD1BE2C89B69C2B068FC378DAA952BA7F163C4A11628F55A4DF523B3EF DUP4 PUSH1 0x40 MLOAD PUSH2 0x34A SWAP2 SWAP1 PUSH2 0x75F JUMP JUMPDEST PUSH1 0x40 MLOAD DUP1 SWAP2 SUB SWAP1 LOG3 POP POP POP JUMP JUMPDEST PUSH0 DUP2 MLOAD SWAP1 POP SWAP2 SWAP1 POP JUMP JUMPDEST PUSH32 0x4E487B7100000000000000000000000000000000000000000000000000000000 PUSH0 MSTORE PUSH1 0x41 PUSH1 0x4 MSTORE PUSH1 0x24 PUSH0 REVERT JUMPDEST PUSH32 0x4E487B7100000000000000000000000000000000000000000000000000000000 PUSH0 MSTORE PUSH1 0x22 PUSH1 0x4 MSTORE PUSH1 0x24 PUSH0 REVERT JUMPDEST PUSH0 PUSH1 0x2 DUP3 DIV SWAP1 POP PUSH1 0x1 DUP3 AND DUP1 PUSH2 0x3D2 JUMPI PUSH1 0x7F DUP3 AND SWAP2 POP JUMPDEST PUSH1 0x20 DUP3 LT DUP2 SUB PUSH2 0x3E5 JUMPI PUSH2 0x3E4 PUSH2 0x38E JUMP JUMPDEST JUMPDEST POP SWAP2 SWAP1 POP JUMP JUMPDEST PUSH0 DUP2 SWAP1 POP DUP2 PUSH0 MSTORE PUSH1 0x20 PUSH0 KECCAK256 SWAP1 POP SWAP2 SWAP1 POP JUMP JUMPDEST PUSH0 PUSH1 0x20 PUSH1 0x1F DUP4 ADD DIV SWAP1 POP SWAP2 SWAP1 POP JUMP JUMPDEST PUSH0 DUP3 DUP3 SHL SWAP1 POP SWAP3 SWAP2 POP POP JUMP JUMPDEST PUSH0 PUSH1 0x8 DUP4 MUL PUSH2 0x447 PUSH32 0xFFFFFFFFFFFFFFFFFFFFFFFFFFFFFFFFFFFFFFFFFFFFFFFFFFFFFFFFFFFFFFFF DUP3 PUSH2 0x40C JUMP JUMPDEST PUSH2 0x451 DUP7 DUP4 PUSH2 0x40C JUMP JUMPDEST SWAP6 POP DUP1 NOT DUP5 AND SWAP4 POP DUP1 DUP7 AND DUP5 OR SWAP3 POP POP POP SWAP4 SWAP3 POP POP POP JUMP JUMPDEST PUSH0 DUP2 SWAP1 POP SWAP2 SWAP1 POP JUMP JUMPDEST PUSH0 DUP2 SWAP1 POP SWAP2 SWAP1 POP JUMP JUMPDEST PUSH0 PUSH2 0x495 PUSH2 0x490 PUSH2 0x48B DUP5 PUSH2 0x469 JUMP JUMPDEST PUSH2 0x472 JUMP JUMPDEST PUSH2 0x469 JUMP JUMPDEST SWAP1 POP SWAP2 SWAP1 POP JUMP JUMPDEST PUSH0 DUP2 SWAP1 POP SWAP2 SWAP1 POP JUMP JUMPDEST PUSH2 0x4AE DUP4 PUSH2 0x47B JUMP JUMPDEST PUSH2 0x4C2 PUSH2 0x4BA DUP3 PUSH2 0x49C JUMP JUMPDEST DUP5 DUP5 SLOAD PUSH2 0x418 JUMP JUMPDEST DUP3 SSTORE POP POP POP POP JUMP JUMPDEST PUSH0 PUSH0 SWAP1 POP SWAP1 JUMP JUMPDEST PUSH2 0x4D9 PUSH2 0x4CA JUMP JUMPDEST PUSH2 0x4E4 DUP2 DUP5 DUP5 PUSH2 0x4A5 JUMP JUMPDEST POP POP POP JUMP JUMPDEST JUMPDEST DUP2 DUP2 LT ISZERO PUSH2 0x507 JUMPI PUSH2 0x4FC PUSH0 DUP3 PUSH2 0x4D1 JUMP JUMPDEST PUSH1 0x1 DUP2 ADD SWAP1 POP PUSH2 0x4EA JUMP JUMPDEST POP POP JUMP JUMPDEST PUSH1 0x1F DUP3 GT ISZERO PUSH2 0x54C JUMPI PUSH2 0x51D DUP2 PUSH2 0x3EB JUMP JUMPDEST PUSH2 0x526 DUP5 PUSH2 0x3FD JUMP JUMPDEST DUP2 ADD PUSH1 0x20 DUP6 LT ISZERO PUSH2 0x535 JUMPI DUP2 SWAP1 POP JUMPDEST PUSH2 0x549 PUSH2 0x541 DUP6 PUSH2 0x3FD JUMP JUMPDEST DUP4 ADD DUP3 PUSH2 0x4E9 JUMP JUMPDEST POP POP JUMPDEST POP POP POP JUMP JUMPDEST PUSH0 DUP3 DUP3 SHR SWAP1 POP SWAP3 SWAP2 POP POP JUMP JUMPDEST PUSH0 PUSH2 0x56C PUSH0 NOT DUP5 PUSH1 0x8 MUL PUSH2 0x551 JUMP JUMPDEST NOT DUP1 DUP4 AND SWAP2 POP POP SWAP3 SWAP2 POP POP JUMP JUMPDEST PUSH0 PUSH2 0x584 DUP4 DUP4 PUSH2 0x55D JUMP JUMPDEST SWAP2 POP DUP3 PUSH1 0x2 MUL DUP3 OR SWAP1 POP SWAP3 SWAP2 POP POP JUMP JUMPDEST PUSH2 0x59D DUP3 PUSH2 0x357 JUMP JUMPDEST PUSH8 0xFFFFFFFFFFFFFFFF DUP2 GT ISZERO PUSH2 0x5B6 JUMPI PUSH2 0x5B5 PUSH2 0x361 JUMP JUMPDEST JUMPDEST PUSH2 0x5C0 DUP3 SLOAD PUSH2 0x3BB JUMP JUMPDEST PUSH2 0x5CB DUP3 DUP3 DUP6 PUSH2 0x50B JUMP JUMPDEST PUSH0 PUSH1 0x20 SWAP1 POP PUSH1 0x1F DUP4 GT PUSH1 0x1 DUP2 EQ PUSH2 0x5FC JUMPI PUSH0 DUP5 ISZERO PUSH2 0x5EA JUMPI DUP3 DUP8 ADD MLOAD SWAP1 POP JUMPDEST PUSH2 0x5F4 DUP6 DUP3 PUSH2 0x579 JUMP JUMPDEST DUP7 SSTORE POP PUSH2 0x65B JUMP JUMPDEST PUSH1 0x1F NOT DUP5 AND PUSH2 0x60A DUP7 PUSH2 0x3EB JUMP JUMPDEST PUSH0 JUMPDEST DUP3 DUP2 LT ISZERO PUSH2 0x631 JUMPI DUP5 DUP10 ADD MLOAD DUP3 SSTORE PUSH1 0x1 DUP3 ADD SWAP2 POP PUSH1 0x20 DUP6 ADD SWAP5 POP PUSH1 0x20 DUP2 ADD SWAP1 POP PUSH2 0x60C JUMP JUMPDEST DUP7 DUP4 LT ISZERO PUSH2 0x64E JUMPI DUP5 DUP10 ADD MLOAD PUSH2 0x64A PUSH1 0x1F DUP10 AND DUP3 PUSH2 0x55D JUMP JUMPDEST DUP4 SSTORE POP JUMPDEST PUSH1 0x1 PUSH1 0x2 DUP9 MUL ADD DUP9 SSTORE POP POP POP JUMPDEST POP POP POP POP POP POP JUMP JUMPDEST PUSH0 PUSH20 0xFFFFFFFFFFFFFFFFFFFFFFFFFFFFFFFFFFFFFFFF DUP3 AND SWAP1 POP SWAP2 SWAP1 POP JUMP JUMPDEST PUSH0 PUSH2 0x68C DUP3 PUSH2 0x663 JUMP JUMPDEST SWAP1 POP SWAP2 SWAP1 POP JUMP JUMPDEST PUSH2 0x69C DUP2 PUSH2 0x682 JUMP JUMPDEST DUP3 MSTORE POP POP JUMP JUMPDEST PUSH0 PUSH1 0x20 DUP3 ADD SWAP1 POP PUSH2 0x6B5 PUSH0 DUP4 ADD DUP5 PUSH2 0x693 JUMP JUMPDEST SWAP3 SWAP2 POP POP JUMP JUMPDEST PUSH32 0x4E487B7100000000000000000000000000000000000000000000000000000000 PUSH0 MSTORE PUSH1 0x11 PUSH1 0x4 MSTORE PUSH1 0x24 PUSH0 REVERT JUMPDEST PUSH0 PUSH2 0x6F2 DUP3 PUSH2 0x469 JUMP JUMPDEST SWAP2 POP PUSH2 0x6FD DUP4 PUSH2 0x469 JUMP JUMPDEST SWAP3 POP DUP3 DUP3 ADD SWAP1 POP DUP1 DUP3 GT ISZERO PUSH2 0x715 JUMPI PUSH2 0x714 PUSH2 0x6BB JUMP JUMPDEST JUMPDEST SWAP3 SWAP2 POP POP JUMP JUMPDEST PUSH2 0x724 DUP2 PUSH2 0x469 JUMP JUMPDEST DUP3 MSTORE POP POP JUMP JUMPDEST PUSH0 PUSH1 0x60 DUP3 ADD SWAP1 POP PUSH2 0x73D PUSH0 DUP4 ADD DUP7 PUSH2 0x693 JUMP JUMPDEST PUSH2 0x74A PUSH1 0x20 DUP4 ADD DUP6 PUSH2 0x71B JUMP JUMPDEST PUSH2 0x757 PUSH1 0x40 DUP4 ADD DUP5 PUSH2 0x71B JUMP JUMPDEST SWAP5 SWAP4 POP POP POP POP JUMP JUMPDEST PUSH0 PUSH1 0x20 DUP3 ADD SWAP1 POP PUSH2 0x772 PUSH0 DUP4 ADD DUP5 PUSH2 0x71B JUMP JUMPDEST SWAP3 SWAP2 POP POP JUMP JUMPDEST PUSH2 0x368B DUP1 PUSH2 0x785 PUSH0 CODECOPY PUSH0 RETURN INVALID PUSH1 0x80 PUSH1 0x40 MSTORE CALLVALUE DUP1 ISZERO PUSH2 0xF JUMPI PUSH0 PUSH0 REVERT JUMPDEST POP PUSH1 0x4 CALLDATASIZE LT PUSH2 0x114 JUMPI PUSH0 CALLDATALOAD PUSH1 0xE0 SHR DUP1 PUSH4 0x95D89B41 GT PUSH2 0xA0 JUMPI DUP1 PUSH4 0xC5DC38A3 GT PUSH2 0x6F JUMPI DUP1 PUSH4 0xC5DC38A3 EQ PUSH2 0x32D JUMPI DUP1 PUSH4 0xCB942A5F EQ PUSH2 0x361 JUMPI DUP1 PUSH4 0xDD62ED3E EQ PUSH2 0x37F JUMPI DUP1 PUSH4 0xE8D7B7FA EQ PUSH2 0x3AF JUMPI DUP1 PUSH4 0xF021CFFE EQ PUSH2 0x3E9 JUMPI PUSH2 0x114 JUMP JUMPDEST DUP1 PUSH4 0x95D89B41 EQ PUSH2 0x292 JUMPI DUP1 PUSH4 0xA7B2DCC9 EQ PUSH2 0x2B0 JUMPI DUP1 PUSH4 0xA9059CBB EQ PUSH2 0x2E1 JUMPI DUP1 PUSH4 0xC0D1782F EQ PUSH2 0x311 JUMPI PUSH2 0x114 JUMP JUMPDEST DUP1 PUSH4 0x23B872DD GT PUSH2 0xE7 JUMPI DUP1 PUSH4 0x23B872DD EQ PUSH2 0x1B4 JUMPI DUP1 PUSH4 0x27386FDE EQ PUSH2 0x1E4 JUMPI DUP1 PUSH4 0x313CE567 EQ PUSH2 0x214 JUMPI DUP1 PUSH4 0x70A08231 EQ PUSH2 0x232 JUMPI DUP1 PUSH4 0x93004A38 EQ PUSH2 0x262 JUMPI PUSH2 0x114 JUMP JUMPDEST DUP1 PUSH4 0x6FDDE03 EQ PUSH2 0x118 JUMPI DUP1 PUSH4 0x95EA7B3 EQ PUSH2 0x136 JUMPI DUP1 PUSH4 0x18160DDD EQ PUSH2 0x166 JUMPI DUP1 PUSH4 0x1DEDC70E EQ PUSH2 0x184 JUMPI JUMPDEST PUSH0 PUSH0 REVERT JUMPDEST PUSH2 0x120 PUSH2 0x407 JUMP JUMPDEST PUSH1 0x40 MLOAD PUSH2 0x12D SWAP2 SWAP1 PUSH2 0x202D JUMP JUMPDEST PUSH1 0x40 MLOAD DUP1 SWAP2 SUB SWAP1 RETURN JUMPDEST PUSH2 0x150 PUSH1 0x4 DUP1 CALLDATASIZE SUB DUP2 ADD SWAP1 PUSH2 0x14B SWAP2 SWAP1 PUSH2 0x20EB JUMP JUMPDEST PUSH2 0x497 JUMP JUMPDEST PUSH1 0x40 MLOAD PUSH2 0x15D SWAP2 SWAP1 PUSH2 0x2143 JUMP JUMPDEST PUSH1 0x40 MLOAD DUP1 SWAP2 SUB SWAP1 RETURN JUMPDEST PUSH2 0x16E PUSH2 0x4B9 JUMP JUMPDEST PUSH1 0x40 MLOAD PUSH2 0x17B SWAP2 SWAP1 PUSH2 0x216B JUMP JUMPDEST PUSH1 0x40 MLOAD DUP1 SWAP2 SUB SWAP1 RETURN JUMPDEST PUSH2 0x19E PUSH1 0x4 DUP1 CALLDATASIZE SUB DUP2 ADD SWAP1 PUSH2 0x199 SWAP2 SWAP1 PUSH2 0x2218 JUMP JUMPDEST PUSH2 0x4C2 JUMP JUMPDEST PUSH1 0x40 MLOAD PUSH2 0x1AB SWAP2 SWAP1 PUSH2 0x22AB JUMP JUMPDEST PUSH1 0x40 MLOAD DUP1 SWAP2 SUB SWAP1 RETURN JUMPDEST PUSH2 0x1CE PUSH1 0x4 DUP1 CALLDATASIZE SUB DUP2 ADD SWAP1 PUSH2 0x1C9 SWAP2 SWAP1 PUSH2 0x22C4 JUMP JUMPDEST PUSH2 0x9AC JUMP JUMPDEST PUSH1 0x40 MLOAD PUSH2 0x1DB SWAP2 SWAP1 PUSH2 0x2143 JUMP JUMPDEST PUSH1 0x40 MLOAD DUP1 SWAP2 SUB SWAP1 RETURN JUMPDEST PUSH2 0x1FE PUSH1 0x4 DUP1 CALLDATASIZE SUB DUP2 ADD SWAP1 PUSH2 0x1F9 SWAP2 SWAP1 PUSH2 0x20EB JUMP JUMPDEST PUSH2 0x9DA JUMP JUMPDEST PUSH1 0x40 MLOAD PUSH2 0x20B SWAP2 SWAP1 PUSH2 0x2143 JUMP JUMPDEST PUSH1 0x40 MLOAD DUP1 SWAP2 SUB SWAP1 RETURN JUMPDEST PUSH2 0x21C PUSH2 0xA04 JUMP JUMPDEST PUSH1 0x40 MLOAD PUSH2 0x229 SWAP2 SWAP1 PUSH2 0x232F JUMP JUMPDEST PUSH1 0x40 MLOAD DUP1 SWAP2 SUB SWAP1 RETURN JUMPDEST PUSH2 0x24C PUSH1 0x4 DUP1 CALLDATASIZE SUB DUP2 ADD SWAP1 PUSH2 0x247 SWAP2 SWAP1 PUSH2 0x2348 JUMP JUMPDEST PUSH2 0xA0C JUMP JUMPDEST PUSH1 0x40 MLOAD PUSH2 0x259 SWAP2 SWAP1 PUSH2 0x216B JUMP JUMPDEST PUSH1 0x40 MLOAD DUP1 SWAP2 SUB SWAP1 RETURN JUMPDEST PUSH2 0x27C PUSH1 0x4 DUP1 CALLDATASIZE SUB DUP2 ADD SWAP1 PUSH2 0x277 SWAP2 SWAP1 PUSH2 0x2373 JUMP JUMPDEST PUSH2 0xA51 JUMP JUMPDEST PUSH1 0x40 MLOAD PUSH2 0x289 SWAP2 SWAP1 PUSH2 0x2143 JUMP JUMPDEST PUSH1 0x40 MLOAD DUP1 SWAP2 SUB SWAP1 RETURN JUMPDEST PUSH2 0x29A PUSH2 0xA6E JUMP JUMPDEST PUSH1 0x40 MLOAD PUSH2 0x2A7 SWAP2 SWAP1 PUSH2 0x202D JUMP JUMPDEST PUSH1 0x40 MLOAD DUP1 SWAP2 SUB SWAP1 RETURN JUMPDEST PUSH2 0x2CA PUSH1 0x4 DUP1 CALLDATASIZE SUB DUP2 ADD SWAP1 PUSH2 0x2C5 SWAP2 SWAP1 PUSH2 0x239E JUMP JUMPDEST PUSH2 0xAFE JUMP JUMPDEST PUSH1 0x40 MLOAD PUSH2 0x2D8 SWAP3 SWAP2 SWAP1 PUSH2 0x245B JUMP JUMPDEST PUSH1 0x40 MLOAD DUP1 SWAP2 SUB SWAP1 RETURN JUMPDEST PUSH2 0x2FB PUSH1 0x4 DUP1 CALLDATASIZE SUB DUP2 ADD SWAP1 PUSH2 0x2F6 SWAP2 SWAP1 PUSH2 0x20EB JUMP JUMPDEST PUSH2 0x128B JUMP JUMPDEST PUSH1 0x40 MLOAD PUSH2 0x308 SWAP2 SWAP1 PUSH2 0x2143 JUMP JUMPDEST PUSH1 0x40 MLOAD DUP1 SWAP2 SUB SWAP1 RETURN JUMPDEST PUSH2 0x32B PUSH1 0x4 DUP1 CALLDATASIZE SUB DUP2 ADD SWAP1 PUSH2 0x326 SWAP2 SWAP1 PUSH2 0x260F JUMP JUMPDEST PUSH2 0x12AD JUMP JUMPDEST STOP JUMPDEST PUSH2 0x347 PUSH1 0x4 DUP1 CALLDATASIZE SUB DUP2 ADD SWAP1 PUSH2 0x342 SWAP2 SWAP1 PUSH2 0x2348 JUMP JUMPDEST PUSH2 0x1788 JUMP JUMPDEST PUSH1 0x40 MLOAD PUSH2 0x358 SWAP6 SWAP5 SWAP4 SWAP3 SWAP2 SWAP1 PUSH2 0x26F1 JUMP JUMPDEST PUSH1 0x40 MLOAD DUP1 SWAP2 SUB SWAP1 RETURN JUMPDEST PUSH2 0x369 PUSH2 0x17E5 JUMP JUMPDEST PUSH1 0x40 MLOAD PUSH2 0x376 SWAP2 SWAP1 PUSH2 0x216B JUMP JUMPDEST PUSH1 0x40 MLOAD DUP1 SWAP2 SUB SWAP1 RETURN JUMPDEST PUSH2 0x399 PUSH1 0x4 DUP1 CALLDATASIZE SUB DUP2 ADD SWAP1 PUSH2 0x394 SWAP2 SWAP1 PUSH2 0x2742 JUMP JUMPDEST PUSH2 0x17EB JUMP JUMPDEST PUSH1 0x40 MLOAD PUSH2 0x3A6 SWAP2 SWAP1 PUSH2 0x216B JUMP JUMPDEST PUSH1 0x40 MLOAD DUP1 SWAP2 SUB SWAP1 RETURN JUMPDEST PUSH2 0x3C9 PUSH1 0x4 DUP1 CALLDATASIZE SUB DUP2 ADD SWAP1 PUSH2 0x3C4 SWAP2 SWAP1 PUSH2 0x2373 JUMP JUMPDEST PUSH2 0x186D JUMP JUMPDEST PUSH1 0x40 MLOAD PUSH2 0x3E0 SWAP12 SWAP11 SWAP10 SWAP9 SWAP8 SWAP7 SWAP6 SWAP5 SWAP4 SWAP3 SWAP2 SWAP1 PUSH2 0x27F3 JUMP JUMPDEST PUSH1 0x40 MLOAD DUP1 SWAP2 SUB SWAP1 RETURN JUMPDEST PUSH2 0x3F1 PUSH2 0x190D JUMP JUMPDEST PUSH1 0x40 MLOAD PUSH2 0x3FE SWAP2 SWAP1 PUSH2 0x216B JUMP JUMPDEST PUSH1 0x40 MLOAD DUP1 SWAP2 SUB SWAP1 RETURN JUMPDEST PUSH1 0x60 PUSH1 0x3 DUP1 SLOAD PUSH2 0x416 SWAP1 PUSH2 0x28C9 JUMP JUMPDEST DUP1 PUSH1 0x1F ADD PUSH1 0x20 DUP1 SWAP2 DIV MUL PUSH1 0x20 ADD PUSH1 0x40 MLOAD SWAP1 DUP2 ADD PUSH1 0x40 MSTORE DUP1 SWAP3 SWAP2 SWAP1 DUP2 DUP2 MSTORE PUSH1 0x20 ADD DUP3 DUP1 SLOAD PUSH2 0x442 SWAP1 PUSH2 0x28C9 JUMP JUMPDEST DUP1 ISZERO PUSH2 0x48D JUMPI DUP1 PUSH1 0x1F LT PUSH2 0x464 JUMPI PUSH2 0x100 DUP1 DUP4 SLOAD DIV MUL DUP4 MSTORE SWAP2 PUSH1 0x20 ADD SWAP2 PUSH2 0x48D JUMP JUMPDEST DUP3 ADD SWAP2 SWAP1 PUSH0 MSTORE PUSH1 0x20 PUSH0 KECCAK256 SWAP1 JUMPDEST DUP2 SLOAD DUP2 MSTORE SWAP1 PUSH1 0x1 ADD SWAP1 PUSH1 0x20 ADD DUP1 DUP4 GT PUSH2 0x470 JUMPI DUP3 SWAP1 SUB PUSH1 0x1F AND DUP3 ADD SWAP2 JUMPDEST POP POP POP POP POP SWAP1 POP SWAP1 JUMP JUMPDEST PUSH0 PUSH0 PUSH2 0x4A1 PUSH2 0x1913 JUMP JUMPDEST SWAP1 POP PUSH2 0x4AE DUP2 DUP6 DUP6 PUSH2 0x191A JUMP JUMPDEST PUSH1 0x1 SWAP2 POP POP SWAP3 SWAP2 POP POP JUMP JUMPDEST PUSH0 PUSH1 0x2 SLOAD SWAP1 POP SWAP1 JUMP JUMPDEST PUSH0 PUSH0 CALLER SWAP1 POP PUSH1 0x5 PUSH0 DUP3 PUSH20 0xFFFFFFFFFFFFFFFFFFFFFFFFFFFFFFFFFFFFFFFF AND PUSH20 0xFFFFFFFFFFFFFFFFFFFFFFFFFFFFFFFFFFFFFFFF AND DUP2 MSTORE PUSH1 0x20 ADD SWAP1 DUP2 MSTORE PUSH1 0x20 ADD PUSH0 KECCAK256 PUSH1 0x4 ADD PUSH0 SWAP1 SLOAD SWAP1 PUSH2 0x100 EXP SWAP1 DIV PUSH1 0xFF AND ISZERO PUSH2 0x554 JUMPI PUSH1 0x40 MLOAD PUSH32 0x8C379A000000000000000000000000000000000000000000000000000000000 DUP2 MSTORE PUSH1 0x4 ADD PUSH2 0x54B SWAP1 PUSH2 0x2943 JUMP JUMPDEST PUSH1 0x40 MLOAD DUP1 SWAP2 SUB SWAP1 REVERT JUMPDEST PUSH1 0x8 PUSH0 DUP9 DUP2 MSTORE PUSH1 0x20 ADD SWAP1 DUP2 MSTORE PUSH1 0x20 ADD PUSH0 KECCAK256 PUSH0 SWAP1 SLOAD SWAP1 PUSH2 0x100 EXP SWAP1 DIV PUSH1 0xFF AND ISZERO PUSH2 0x5B2 JUMPI PUSH1 0x40 MLOAD PUSH32 0x8C379A000000000000000000000000000000000000000000000000000000000 DUP2 MSTORE PUSH1 0x4 ADD PUSH2 0x5A9 SWAP1 PUSH2 0x29AB JUMP JUMPDEST PUSH1 0x40 MLOAD DUP1 SWAP2 SUB SWAP1 REVERT JUMPDEST PUSH2 0x12C DUP7 PUSH2 0x5C0 SWAP2 SWAP1 PUSH2 0x29F6 JUMP JUMPDEST TIMESTAMP GT ISZERO PUSH2 0x602 JUMPI PUSH1 0x40 MLOAD PUSH32 0x8C379A000000000000000000000000000000000000000000000000000000000 DUP2 MSTORE PUSH1 0x4 ADD PUSH2 0x5F9 SWAP1 PUSH2 0x2A73 JUMP JUMPDEST PUSH1 0x40 MLOAD DUP1 SWAP2 SUB SWAP1 REVERT JUMPDEST PUSH0 DUP2 DUP9 DUP9 DUP9 PUSH1 0x40 MLOAD PUSH1 0x20 ADD PUSH2 0x61A SWAP5 SWAP4 SWAP3 SWAP2 SWAP1 PUSH2 0x2B16 JUMP JUMPDEST PUSH1 0x40 MLOAD PUSH1 0x20 DUP2 DUP4 SUB SUB DUP2 MSTORE SWAP1 PUSH1 0x40 MSTORE DUP1 MLOAD SWAP1 PUSH1 0x20 ADD KECCAK256 SWAP1 POP PUSH0 PUSH2 0x680 DUP3 DUP8 DUP8 DUP1 DUP1 PUSH1 0x1F ADD PUSH1 0x20 DUP1 SWAP2 DIV MUL PUSH1 0x20 ADD PUSH1 0x40 MLOAD SWAP1 DUP2 ADD PUSH1 0x40 MSTORE DUP1 SWAP4 SWAP3 SWAP2 SWAP1 DUP2 DUP2 MSTORE PUSH1 0x20 ADD DUP4 DUP4 DUP1 DUP3 DUP5 CALLDATACOPY PUSH0 DUP2 DUP5 ADD MSTORE PUSH1 0x1F NOT PUSH1 0x1F DUP3 ADD AND SWAP1 POP DUP1 DUP4 ADD SWAP3 POP POP POP POP POP POP POP PUSH2 0x192C JUMP JUMPDEST SWAP1 POP DUP3 PUSH20 0xFFFFFFFFFFFFFFFFFFFFFFFFFFFFFFFFFFFFFFFF AND DUP2 PUSH20 0xFFFFFFFFFFFFFFFFFFFFFFFFFFFFFFFFFFFFFFFF AND EQ PUSH2 0x6F0 JUMPI PUSH1 0x40 MLOAD PUSH32 0x8C379A000000000000000000000000000000000000000000000000000000000 DUP2 MSTORE PUSH1 0x4 ADD PUSH2 0x6E7 SWAP1 PUSH2 0x2BAD JUMP JUMPDEST PUSH1 0x40 MLOAD DUP1 SWAP2 SUB SWAP1 REVERT JUMPDEST DUP3 DUP10 TIMESTAMP PUSH1 0x40 MLOAD PUSH1 0x20 ADD PUSH2 0x705 SWAP4 SWAP3 SWAP2 SWAP1 PUSH2 0x2C1F JUMP JUMPDEST PUSH1 0x40 MLOAD PUSH1 0x20 DUP2 DUP4 SUB SUB DUP2 MSTORE SWAP1 PUSH1 0x40 MSTORE DUP1 MLOAD SWAP1 PUSH1 0x20 ADD KECCAK256 SWAP4 POP DUP3 PUSH1 0x5 PUSH0 DUP6 PUSH20 0xFFFFFFFFFFFFFFFFFFFFFFFFFFFFFFFFFFFFFFFF AND PUSH20 0xFFFFFFFFFFFFFFFFFFFFFFFFFFFFFFFFFFFFFFFF AND DUP2 MSTORE PUSH1 0x20 ADD SWAP1 DUP2 MSTORE PUSH1 0x20 ADD PUSH0 KECCAK256 PUSH0 ADD PUSH0 PUSH2 0x100 EXP DUP2 SLOAD DUP2 PUSH20 0xFFFFFFFFFFFFFFFFFFFFFFFFFFFFFFFFFFFFFFFF MUL NOT AND SWAP1 DUP4 PUSH20 0xFFFFFFFFFFFFFFFFFFFFFFFFFFFFFFFFFFFFFFFF AND MUL OR SWAP1 SSTORE POP DUP4 PUSH1 0x5 PUSH0 DUP6 PUSH20 0xFFFFFFFFFFFFFFFFFFFFFFFFFFFFFFFFFFFFFFFF AND PUSH20 0xFFFFFFFFFFFFFFFFFFFFFFFFFFFFFFFFFFFFFFFF AND DUP2 MSTORE PUSH1 0x20 ADD SWAP1 DUP2 MSTORE PUSH1 0x20 ADD PUSH0 KECCAK256 PUSH1 0x1 ADD DUP2 SWAP1 SSTORE POP DUP9 PUSH1 0x5 PUSH0 DUP6 PUSH20 0xFFFFFFFFFFFFFFFFFFFFFFFFFFFFFFFFFFFFFFFF AND PUSH20 0xFFFFFFFFFFFFFFFFFFFFFFFFFFFFFFFFFFFFFFFF AND DUP2 MSTORE PUSH1 0x20 ADD SWAP1 DUP2 MSTORE PUSH1 0x20 ADD PUSH0 KECCAK256 PUSH1 0x5 ADD DUP2 SWAP1 SSTORE POP PUSH0 PUSH1 0x5 PUSH0 DUP6 PUSH20 0xFFFFFFFFFFFFFFFFFFFFFFFFFFFFFFFFFFFFFFFF AND PUSH20 0xFFFFFFFFFFFFFFFFFFFFFFFFFFFFFFFFFFFFFFFF AND DUP2 MSTORE PUSH1 0x20 ADD SWAP1 DUP2 MSTORE PUSH1 0x20 ADD PUSH0 KECCAK256 PUSH1 0x3 ADD DUP2 SWAP1 SSTORE POP PUSH1 0x1 PUSH1 0x5 PUSH0 DUP6 PUSH20 0xFFFFFFFFFFFFFFFFFFFFFFFFFFFFFFFFFFFFFFFF AND PUSH20 0xFFFFFFFFFFFFFFFFFFFFFFFFFFFFFFFFFFFFFFFF AND DUP2 MSTORE PUSH1 0x20 ADD SWAP1 DUP2 MSTORE PUSH1 0x20 ADD PUSH0 KECCAK256 PUSH1 0x4 ADD PUSH0 PUSH2 0x100 EXP DUP2 SLOAD DUP2 PUSH1 0xFF MUL NOT AND SWAP1 DUP4 ISZERO ISZERO MUL OR SWAP1 SSTORE POP PUSH1 0x1 PUSH1 0x8 PUSH0 DUP12 DUP2 MSTORE PUSH1 0x20 ADD SWAP1 DUP2 MSTORE PUSH1 0x20 ADD PUSH0 KECCAK256 PUSH0 PUSH2 0x100 EXP DUP2 SLOAD DUP2 PUSH1 0xFF MUL NOT AND SWAP1 DUP4 ISZERO ISZERO MUL OR SWAP1 SSTORE POP PUSH1 0x1 PUSH1 0x7 PUSH0 DUP6 PUSH20 0xFFFFFFFFFFFFFFFFFFFFFFFFFFFFFFFFFFFFFFFF AND PUSH20 0xFFFFFFFFFFFFFFFFFFFFFFFFFFFFFFFFFFFFFFFF AND DUP2 MSTORE PUSH1 0x20 ADD SWAP1 DUP2 MSTORE PUSH1 0x20 ADD PUSH0 KECCAK256 PUSH0 DUP10 DUP2 MSTORE PUSH1 0x20 ADD SWAP1 DUP2 MSTORE PUSH1 0x20 ADD PUSH0 KECCAK256 PUSH0 PUSH2 0x100 EXP DUP2 SLOAD DUP2 PUSH1 0xFF MUL NOT AND SWAP1 DUP4 ISZERO ISZERO MUL OR SWAP1 SSTORE POP DUP3 PUSH20 0xFFFFFFFFFFFFFFFFFFFFFFFFFFFFFFFFFFFFFFFF AND PUSH32 0x33EE050B57A9D4230CE40C33CFFD55A1210AF20D6915C2D690B821D8A3822343 DUP11 DUP7 TIMESTAMP PUSH1 0x40 MLOAD PUSH2 0x998 SWAP4 SWAP3 SWAP2 SWAP1 PUSH2 0x2C66 JUMP JUMPDEST PUSH1 0x40 MLOAD DUP1 SWAP2 SUB SWAP1 LOG2 POP POP POP SWAP6 SWAP5 POP POP POP POP POP JUMP JUMPDEST PUSH0 PUSH0 PUSH2 0x9B6 PUSH2 0x1913 JUMP JUMPDEST SWAP1 POP PUSH2 0x9C3 DUP6 DUP3 DUP6 PUSH2 0x1A52 JUMP JUMPDEST PUSH2 0x9CE DUP6 DUP6 DUP6 PUSH2 0x1AE5 JUMP JUMPDEST PUSH1 0x1 SWAP2 POP POP SWAP4 SWAP3 POP POP POP JUMP JUMPDEST PUSH1 0x7 PUSH1 0x20 MSTORE DUP2 PUSH0 MSTORE PUSH1 0x40 PUSH0 KECCAK256 PUSH1 0x20 MSTORE DUP1 PUSH0 MSTORE PUSH1 0x40 PUSH0 KECCAK256 PUSH0 SWAP2 POP SWAP2 POP SWAP1 SLOAD SWAP1 PUSH2 0x100 EXP SWAP1 DIV PUSH1 0xFF AND DUP2 JUMP JUMPDEST PUSH0 PUSH1 0x12 SWAP1 POP SWAP1 JUMP JUMPDEST PUSH0 PUSH0 PUSH0 DUP4 PUSH20 0xFFFFFFFFFFFFFFFFFFFFFFFFFFFFFFFFFFFFFFFF AND PUSH20 0xFFFFFFFFFFFFFFFFFFFFFFFFFFFFFFFFFFFFFFFF AND DUP2 MSTORE PUSH1 0x20 ADD SWAP1 DUP2 MSTORE PUSH1 0x20 ADD PUSH0 KECCAK256 SLOAD SWAP1 POP SWAP2 SWAP1 POP JUMP JUMPDEST PUSH1 0x8 PUSH1 0x20 MSTORE DUP1 PUSH0 MSTORE PUSH1 0x40 PUSH0 KECCAK256 PUSH0 SWAP2 POP SLOAD SWAP1 PUSH2 0x100 EXP SWAP1 DIV PUSH1 0xFF AND DUP2 JUMP JUMPDEST PUSH1 0x60 PUSH1 0x4 DUP1 SLOAD PUSH2 0xA7D SWAP1 PUSH2 0x28C9 JUMP JUMPDEST DUP1 PUSH1 0x1F ADD PUSH1 0x20 DUP1 SWAP2 DIV MUL PUSH1 0x20 ADD PUSH1 0x40 MLOAD SWAP1 DUP2 ADD PUSH1 0x40 MSTORE DUP1 SWAP3 SWAP2 SWAP1 DUP2 DUP2 MSTORE PUSH1 0x20 ADD DUP3 DUP1 SLOAD PUSH2 0xAA9 SWAP1 PUSH2 0x28C9 JUMP JUMPDEST DUP1 ISZERO PUSH2 0xAF4 JUMPI DUP1 PUSH1 0x1F LT PUSH2 0xACB JUMPI PUSH2 0x100 DUP1 DUP4 SLOAD DIV MUL DUP4 MSTORE SWAP2 PUSH1 0x20 ADD SWAP2 PUSH2 0xAF4 JUMP JUMPDEST DUP3 ADD SWAP2 SWAP1 PUSH0 MSTORE PUSH1 0x20 PUSH0 KECCAK256 SWAP1 JUMPDEST DUP2 SLOAD DUP2 MSTORE SWAP1 PUSH1 0x1 ADD SWAP1 PUSH1 0x20 ADD DUP1 DUP4 GT PUSH2 0xAD7 JUMPI DUP3 SWAP1 SUB PUSH1 0x1F AND DUP3 ADD SWAP2 JUMPDEST POP POP POP POP POP SWAP1 POP SWAP1 JUMP JUMPDEST PUSH0 PUSH0 PUSH0 DUP11 DUP11 DUP11 DUP11 DUP11 DUP11 PUSH1 0x40 MLOAD PUSH1 0x20 ADD PUSH2 0xB1C SWAP7 SWAP6 SWAP5 SWAP4 SWAP3 SWAP2 SWAP1 PUSH2 0x2C9B JUMP JUMPDEST PUSH1 0x40 MLOAD PUSH1 0x20 DUP2 DUP4 SUB SUB DUP2 MSTORE SWAP1 PUSH1 0x40 MSTORE DUP1 MLOAD SWAP1 PUSH1 0x20 ADD KECCAK256 SWAP1 POP PUSH0 PUSH2 0xB82 DUP3 DUP8 DUP8 DUP1 DUP1 PUSH1 0x1F ADD PUSH1 0x20 DUP1 SWAP2 DIV MUL PUSH1 0x20 ADD PUSH1 0x40 MLOAD SWAP1 DUP2 ADD PUSH1 0x40 MSTORE DUP1 SWAP4 SWAP3 SWAP2 SWAP1 DUP2 DUP2 MSTORE PUSH1 0x20 ADD DUP4 DUP4 DUP1 DUP3 DUP5 CALLDATACOPY PUSH0 DUP2 DUP5 ADD MSTORE PUSH1 0x1F NOT PUSH1 0x1F DUP3 ADD AND SWAP1 POP DUP1 DUP4 ADD SWAP3 POP POP POP POP POP POP POP PUSH2 0x192C JUMP JUMPDEST SWAP1 POP PUSH1 0x5 PUSH0 DUP3 PUSH20 0xFFFFFFFFFFFFFFFFFFFFFFFFFFFFFFFFFFFFFFFF AND PUSH20 0xFFFFFFFFFFFFFFFFFFFFFFFFFFFFFFFFFFFFFFFF AND DUP2 MSTORE PUSH1 0x20 ADD SWAP1 DUP2 MSTORE PUSH1 0x20 ADD PUSH0 KECCAK256 PUSH1 0x4 ADD PUSH0 SWAP1 SLOAD SWAP1 PUSH2 0x100 EXP SWAP1 DIV PUSH1 0xFF AND PUSH2 0xC10 JUMPI PUSH1 0x40 MLOAD PUSH32 0x8C379A000000000000000000000000000000000000000000000000000000000 DUP2 MSTORE PUSH1 0x4 ADD PUSH2 0xC07 SWAP1 PUSH2 0x2D54 JUMP JUMPDEST PUSH1 0x40 MLOAD DUP1 SWAP2 SUB SWAP1 REVERT JUMPDEST DUP12 PUSH1 0x5 PUSH0 DUP4 PUSH20 0xFFFFFFFFFFFFFFFFFFFFFFFFFFFFFFFFFFFFFFFF AND PUSH20 0xFFFFFFFFFFFFFFFFFFFFFFFFFFFFFFFFFFFFFFFF AND DUP2 MSTORE PUSH1 0x20 ADD SWAP1 DUP2 MSTORE PUSH1 0x20 ADD PUSH0 KECCAK256 PUSH1 0x1 ADD SLOAD EQ PUSH2 0xC92 JUMPI PUSH1 0x40 MLOAD PUSH32 0x8C379A000000000000000000000000000000000000000000000000000000000 DUP2 MSTORE PUSH1 0x4 ADD PUSH2 0xC89 SWAP1 PUSH2 0x2DBC JUMP JUMPDEST PUSH1 0x40 MLOAD DUP1 SWAP2 SUB SWAP1 REVERT JUMPDEST DUP7 PUSH1 0x5 PUSH0 DUP4 PUSH20 0xFFFFFFFFFFFFFFFFFFFFFFFFFFFFFFFFFFFFFFFF AND PUSH20 0xFFFFFFFFFFFFFFFFFFFFFFFFFFFFFFFFFFFFFFFF AND DUP2 MSTORE PUSH1 0x20 ADD SWAP1 DUP2 MSTORE PUSH1 0x20 ADD PUSH0 KECCAK256 PUSH1 0x5 ADD SLOAD EQ PUSH2 0xD14 JUMPI PUSH1 0x40 MLOAD PUSH32 0x8C379A000000000000000000000000000000000000000000000000000000000 DUP2 MSTORE PUSH1 0x4 ADD PUSH2 0xD0B SWAP1 PUSH2 0x2E24 JUMP JUMPDEST PUSH1 0x40 MLOAD DUP1 SWAP2 SUB SWAP1 REVERT JUMPDEST PUSH2 0x12C DUP10 PUSH2 0xD22 SWAP2 SWAP1 PUSH2 0x29F6 JUMP JUMPDEST TIMESTAMP GT ISZERO PUSH2 0xD64 JUMPI PUSH1 0x40 MLOAD PUSH32 0x8C379A000000000000000000000000000000000000000000000000000000000 DUP2 MSTORE PUSH1 0x4 ADD PUSH2 0xD5B SWAP1 PUSH2 0x2A73 JUMP JUMPDEST PUSH1 0x40 MLOAD DUP1 SWAP2 SUB SWAP1 REVERT JUMPDEST PUSH1 0x7 PUSH0 DUP3 PUSH20 0xFFFFFFFFFFFFFFFFFFFFFFFFFFFFFFFFFFFFFFFF AND PUSH20 0xFFFFFFFFFFFFFFFFFFFFFFFFFFFFFFFFFFFFFFFF AND DUP2 MSTORE PUSH1 0x20 ADD SWAP1 DUP2 MSTORE PUSH1 0x20 ADD PUSH0 KECCAK256 PUSH0 DUP10 DUP2 MSTORE PUSH1 0x20 ADD SWAP1 DUP2 MSTORE PUSH1 0x20 ADD PUSH0 KECCAK256 PUSH0 SWAP1 SLOAD SWAP1 PUSH2 0x100 EXP SWAP1 DIV PUSH1 0xFF AND ISZERO PUSH2 0xDFD JUMPI PUSH1 0x40 MLOAD PUSH32 0x8C379A000000000000000000000000000000000000000000000000000000000 DUP2 MSTORE PUSH1 0x4 ADD PUSH2 0xDF4 SWAP1 PUSH2 0x2E8C JUMP JUMPDEST PUSH1 0x40 MLOAD DUP1 SWAP2 SUB SWAP1 REVERT JUMPDEST DUP11 PUSH1 0x5 PUSH0 DUP4 PUSH20 0xFFFFFFFFFFFFFFFFFFFFFFFFFFFFFFFFFFFFFFFF AND PUSH20 0xFFFFFFFFFFFFFFFFFFFFFFFFFFFFFFFFFFFFFFFF AND DUP2 MSTORE PUSH1 0x20 ADD SWAP1 DUP2 MSTORE PUSH1 0x20 ADD PUSH0 KECCAK256 PUSH1 0x2 ADD PUSH0 DUP13 PUSH20 0xFFFFFFFFFFFFFFFFFFFFFFFFFFFFFFFFFFFFFFFF AND PUSH20 0xFFFFFFFFFFFFFFFFFFFFFFFFFFFFFFFFFFFFFFFF AND DUP2 MSTORE PUSH1 0x20 ADD SWAP1 DUP2 MSTORE PUSH1 0x20 ADD PUSH0 KECCAK256 SLOAD LT ISZERO PUSH2 0xEBB JUMPI PUSH1 0x40 MLOAD PUSH32 0x8C379A000000000000000000000000000000000000000000000000000000000 DUP2 MSTORE PUSH1 0x4 ADD PUSH2 0xEB2 SWAP1 PUSH2 0x2EF4 JUMP JUMPDEST PUSH1 0x40 MLOAD DUP1 SWAP2 SUB SWAP1 REVERT JUMPDEST DUP11 PUSH2 0xEC6 DUP3 ADDRESS PUSH2 0x17EB JUMP JUMPDEST LT ISZERO PUSH2 0xF07 JUMPI PUSH1 0x40 MLOAD PUSH32 0x8C379A000000000000000000000000000000000000000000000000000000000 DUP2 MSTORE PUSH1 0x4 ADD PUSH2 0xEFE SWAP1 PUSH2 0x2F5C JUMP JUMPDEST PUSH1 0x40 MLOAD DUP1 SWAP2 SUB SWAP1 REVERT JUMPDEST DUP11 PUSH2 0xF11 DUP3 PUSH2 0xA0C JUMP JUMPDEST LT ISZERO PUSH2 0xF52 JUMPI PUSH1 0x40 MLOAD PUSH32 0x8C379A000000000000000000000000000000000000000000000000000000000 DUP2 MSTORE PUSH1 0x4 ADD PUSH2 0xF49 SWAP1 PUSH2 0x2FC4 JUMP JUMPDEST PUSH1 0x40 MLOAD DUP1 SWAP2 SUB SWAP1 REVERT JUMPDEST DUP1 DUP11 DUP13 DUP15 TIMESTAMP DUP13 PUSH1 0x40 MLOAD PUSH1 0x20 ADD PUSH2 0xF6D SWAP7 SWAP6 SWAP5 SWAP4 SWAP3 SWAP2 SWAP1 PUSH2 0x2FE2 JUMP JUMPDEST PUSH1 0x40 MLOAD PUSH1 0x20 DUP2 DUP4 SUB SUB DUP2 MSTORE SWAP1 PUSH1 0x40 MSTORE DUP1 MLOAD SWAP1 PUSH1 0x20 ADD KECCAK256 SWAP4 POP PUSH0 PUSH20 0xFFFFFFFFFFFFFFFFFFFFFFFFFFFFFFFFFFFFFFFF AND PUSH1 0x6 PUSH0 DUP7 DUP2 MSTORE PUSH1 0x20 ADD SWAP1 DUP2 MSTORE PUSH1 0x20 ADD PUSH0 KECCAK256 PUSH1 0x1 ADD PUSH0 SWAP1 SLOAD SWAP1 PUSH2 0x100 EXP SWAP1 DIV PUSH20 0xFFFFFFFFFFFFFFFFFFFFFFFFFFFFFFFFFFFFFFFF AND PUSH20 0xFFFFFFFFFFFFFFFFFFFFFFFFFFFFFFFFFFFFFFFF AND EQ PUSH2 0x1026 JUMPI PUSH1 0x40 MLOAD PUSH32 0x8C379A000000000000000000000000000000000000000000000000000000000 DUP2 MSTORE PUSH1 0x4 ADD PUSH2 0x101D SWAP1 PUSH2 0x309B JUMP JUMPDEST PUSH1 0x40 MLOAD DUP1 SWAP2 SUB SWAP1 REVERT JUMPDEST DUP12 DUP5 TIMESTAMP PUSH1 0x40 MLOAD PUSH1 0x20 ADD PUSH2 0x103B SWAP4 SWAP3 SWAP2 SWAP1 PUSH2 0x3103 JUMP JUMPDEST PUSH1 0x40 MLOAD PUSH1 0x20 DUP2 DUP4 SUB SUB DUP2 MSTORE SWAP1 PUSH1 0x40 MSTORE DUP1 MLOAD SWAP1 PUSH1 0x20 ADD KECCAK256 SWAP3 POP DUP4 PUSH1 0x6 PUSH0 DUP7 DUP2 MSTORE PUSH1 0x20 ADD SWAP1 DUP2 MSTORE PUSH1 0x20 ADD PUSH0 KECCAK256 PUSH0 ADD DUP2 SWAP1 SSTORE POP DUP1 PUSH1 0x6 PUSH0 DUP7 DUP2 MSTORE PUSH1 0x20 ADD SWAP1 DUP2 MSTORE PUSH1 0x20 ADD PUSH0 KECCAK256 PUSH1 0x1 ADD PUSH0 PUSH2 0x100 EXP DUP2 SLOAD DUP2 PUSH20 0xFFFFFFFFFFFFFFFFFFFFFFFFFFFFFFFFFFFFFFFF MUL NOT AND SWAP1 DUP4 PUSH20 0xFFFFFFFFFFFFFFFFFFFFFFFFFFFFFFFFFFFFFFFF AND MUL OR SWAP1 SSTORE POP DUP10 PUSH1 0x6 PUSH0 DUP7 DUP2 MSTORE PUSH1 0x20 ADD SWAP1 DUP2 MSTORE PUSH1 0x20 ADD PUSH0 KECCAK256 PUSH1 0x2 ADD PUSH0 PUSH2 0x100 EXP DUP2 SLOAD DUP2 PUSH20 0xFFFFFFFFFFFFFFFFFFFFFFFFFFFFFFFFFFFFFFFF MUL NOT AND SWAP1 DUP4 PUSH20 0xFFFFFFFFFFFFFFFFFFFFFFFFFFFFFFFFFFFFFFFF AND MUL OR SWAP1 SSTORE POP DUP11 PUSH1 0x6 PUSH0 DUP7 DUP2 MSTORE PUSH1 0x20 ADD SWAP1 DUP2 MSTORE PUSH1 0x20 ADD PUSH0 KECCAK256 PUSH1 0x3 ADD DUP2 SWAP1 SSTORE POP DUP12 PUSH1 0x6 PUSH0 DUP7 DUP2 MSTORE PUSH1 0x20 ADD SWAP1 DUP2 MSTORE PUSH1 0x20 ADD PUSH0 KECCAK256 PUSH1 0x4 ADD DUP2 SWAP1 SSTORE POP DUP3 PUSH1 0x6 PUSH0 DUP7 DUP2 MSTORE PUSH1 0x20 ADD SWAP1 DUP2 MSTORE PUSH1 0x20 ADD PUSH0 KECCAK256 PUSH1 0x5 ADD DUP2 SWAP1 SSTORE POP TIMESTAMP PUSH1 0x6 PUSH0 DUP7 DUP2 MSTORE PUSH1 0x20 ADD SWAP1 DUP2 MSTORE PUSH1 0x20 ADD PUSH0 KECCAK256 PUSH1 0x7 ADD DUP2 SWAP1 SSTORE POP PUSH0 PUSH1 0x6 PUSH0 DUP7 DUP2 MSTORE PUSH1 0x20 ADD SWAP1 DUP2 MSTORE PUSH1 0x20 ADD PUSH0 KECCAK256 PUSH1 0x9 ADD PUSH0 PUSH2 0x100 EXP DUP2 SLOAD DUP2 PUSH1 0xFF MUL NOT AND SWAP1 DUP4 PUSH1 0x3 DUP2 GT ISZERO PUSH2 0x11A9 JUMPI PUSH2 0x11A8 PUSH2 0x2780 JUMP JUMPDEST JUMPDEST MUL OR SWAP1 SSTORE POP PUSH1 0x1 PUSH1 0x7 PUSH0 DUP4 PUSH20 0xFFFFFFFFFFFFFFFFFFFFFFFFFFFFFFFFFFFFFFFF AND PUSH20 0xFFFFFFFFFFFFFFFFFFFFFFFFFFFFFFFFFFFFFFFF AND DUP2 MSTORE PUSH1 0x20 ADD SWAP1 DUP2 MSTORE PUSH1 0x20 ADD PUSH0 KECCAK256 PUSH0 DUP11 DUP2 MSTORE PUSH1 0x20 ADD SWAP1 DUP2 MSTORE PUSH1 0x20 ADD PUSH0 KECCAK256 PUSH0 PUSH2 0x100 EXP DUP2 SLOAD DUP2 PUSH1 0xFF MUL NOT AND SWAP1 DUP4 ISZERO ISZERO MUL OR SWAP1 SSTORE POP DUP10 PUSH20 0xFFFFFFFFFFFFFFFFFFFFFFFFFFFFFFFFFFFFFFFF AND DUP2 PUSH20 0xFFFFFFFFFFFFFFFFFFFFFFFFFFFFFFFFFFFFFFFF AND DUP6 PUSH32 0x5A10EA259427B588E51F66CA281A95E7B6A497D7AFF40EB19F9EA12F67C4DC4B DUP15 DUP8 DUP15 PUSH1 0x40 MLOAD PUSH2 0x1274 SWAP4 SWAP3 SWAP2 SWAP1 PUSH2 0x314A JUMP JUMPDEST PUSH1 0x40 MLOAD DUP1 SWAP2 SUB SWAP1 LOG4 POP POP SWAP9 POP SWAP9 SWAP7 POP POP POP POP POP POP POP JUMP JUMPDEST PUSH0 PUSH0 PUSH2 0x1295 PUSH2 0x1913 JUMP JUMPDEST SWAP1 POP PUSH2 0x12A2 DUP2 DUP6 DUP6 PUSH2 0x1AE5 JUMP JUMPDEST PUSH1 0x1 SWAP2 POP POP SWAP3 SWAP2 POP POP JUMP JUMPDEST PUSH0 CALLER SWAP1 POP PUSH1 0x5 PUSH0 DUP3 PUSH20 0xFFFFFFFFFFFFFFFFFFFFFFFFFFFFFFFFFFFFFFFF AND PUSH20 0xFFFFFFFFFFFFFFFFFFFFFFFFFFFFFFFFFFFFFFFF AND DUP2 MSTORE PUSH1 0x20 ADD SWAP1 DUP2 MSTORE PUSH1 0x20 ADD PUSH0 KECCAK256 PUSH1 0x4 ADD PUSH0 SWAP1 SLOAD SWAP1 PUSH2 0x100 EXP SWAP1 DIV PUSH1 0xFF AND PUSH2 0x133D JUMPI PUSH1 0x40 MLOAD PUSH32 0x8C379A000000000000000000000000000000000000000000000000000000000 DUP2 MSTORE PUSH1 0x4 ADD PUSH2 0x1334 SWAP1 PUSH2 0x2D54 JUMP JUMPDEST PUSH1 0x40 MLOAD DUP1 SWAP2 SUB SWAP1 REVERT JUMPDEST DUP7 DUP7 SWAP1 POP DUP9 MLOAD EQ PUSH2 0x1383 JUMPI PUSH1 0x40 MLOAD PUSH32 0x8C379A000000000000000000000000000000000000000000000000000000000 DUP2 MSTORE PUSH1 0x4 ADD PUSH2 0x137A SWAP1 PUSH2 0x31C9 JUMP JUMPDEST PUSH1 0x40 MLOAD DUP1 SWAP2 SUB SWAP1 REVERT JUMPDEST PUSH2 0x12C DUP6 PUSH2 0x1391 SWAP2 SWAP1 PUSH2 0x29F6 JUMP JUMPDEST TIMESTAMP GT ISZERO PUSH2 0x13D3 JUMPI PUSH1 0x40 MLOAD PUSH32 0x8C379A000000000000000000000000000000000000000000000000000000000 DUP2 MSTORE PUSH1 0x4 ADD PUSH2 0x13CA SWAP1 PUSH2 0x2A73 JUMP JUMPDEST PUSH1 0x40 MLOAD DUP1 SWAP2 SUB SWAP1 REVERT JUMPDEST PUSH1 0x7 PUSH0 DUP3 PUSH20 0xFFFFFFFFFFFFFFFFFFFFFFFFFFFFFFFFFFFFFFFF AND PUSH20 0xFFFFFFFFFFFFFFFFFFFFFFFFFFFFFFFFFFFFFFFF AND DUP2 MSTORE PUSH1 0x20 ADD SWAP1 DUP2 MSTORE PUSH1 0x20 ADD PUSH0 KECCAK256 PUSH0 DUP6 DUP2 MSTORE PUSH1 0x20 ADD SWAP1 DUP2 MSTORE PUSH1 0x20 ADD PUSH0 KECCAK256 PUSH0 SWAP1 SLOAD SWAP1 PUSH2 0x100 EXP SWAP1 DIV PUSH1 0xFF AND ISZERO PUSH2 0x146C JUMPI PUSH1 0x40 MLOAD PUSH32 0x8C379A000000000000000000000000000000000000000000000000000000000 DUP2 MSTORE PUSH1 0x4 ADD PUSH2 0x1463 SWAP1 PUSH2 0x2E8C JUMP JUMPDEST PUSH1 0x40 MLOAD DUP1 SWAP2 SUB SWAP1 REVERT JUMPDEST PUSH0 DUP9 DUP9 DUP9 DUP9 DUP9 PUSH1 0x40 MLOAD PUSH1 0x20 ADD PUSH2 0x1486 SWAP6 SWAP5 SWAP4 SWAP3 SWAP2 SWAP1 PUSH2 0x330A JUMP JUMPDEST PUSH1 0x40 MLOAD PUSH1 0x20 DUP2 DUP4 SUB SUB DUP2 MSTORE SWAP1 PUSH1 0x40 MSTORE DUP1 MLOAD SWAP1 PUSH1 0x20 ADD KECCAK256 SWAP1 POP PUSH0 PUSH2 0x14EC DUP3 DUP7 DUP7 DUP1 DUP1 PUSH1 0x1F ADD PUSH1 0x20 DUP1 SWAP2 DIV MUL PUSH1 0x20 ADD PUSH1 0x40 MLOAD SWAP1 DUP2 ADD PUSH1 0x40 MSTORE DUP1 SWAP4 SWAP3 SWAP2 SWAP1 DUP2 DUP2 MSTORE PUSH1 0x20 ADD DUP4 DUP4 DUP1 DUP3 DUP5 CALLDATACOPY PUSH0 DUP2 DUP5 ADD MSTORE PUSH1 0x1F NOT PUSH1 0x1F DUP3 ADD AND SWAP1 POP DUP1 DUP4 ADD SWAP3 POP POP POP POP POP POP POP PUSH2 0x192C JUMP JUMPDEST SWAP1 POP DUP3 PUSH20 0xFFFFFFFFFFFFFFFFFFFFFFFFFFFFFFFFFFFFFFFF AND DUP2 PUSH20 0xFFFFFFFFFFFFFFFFFFFFFFFFFFFFFFFFFFFFFFFF AND EQ PUSH2 0x155C JUMPI PUSH1 0x40 MLOAD PUSH32 0x8C379A000000000000000000000000000000000000000000000000000000000 DUP2 MSTORE PUSH1 0x4 ADD PUSH2 0x1553 SWAP1 PUSH2 0x2BAD JUMP JUMPDEST PUSH1 0x40 MLOAD DUP1 SWAP2 SUB SWAP1 REVERT JUMPDEST PUSH0 PUSH0 SWAP1 POP PUSH0 PUSH0 SWAP1 POP JUMPDEST DUP12 MLOAD DUP2 LT ISZERO PUSH2 0x15A2 JUMPI DUP11 DUP11 DUP3 DUP2 DUP2 LT PUSH2 0x1581 JUMPI PUSH2 0x1580 PUSH2 0x3351 JUMP JUMPDEST JUMPDEST SWAP1 POP PUSH1 0x20 MUL ADD CALLDATALOAD DUP3 PUSH2 0x1593 SWAP2 SWAP1 PUSH2 0x29F6 JUMP JUMPDEST SWAP2 POP DUP1 DUP1 PUSH1 0x1 ADD SWAP2 POP POP PUSH2 0x1565 JUMP JUMPDEST POP PUSH0 PUSH2 0x15AE DUP6 ADDRESS PUSH2 0x17EB JUMP JUMPDEST SWAP1 POP DUP1 DUP3 GT ISZERO PUSH2 0x15F3 JUMPI PUSH1 0x40 MLOAD PUSH32 0x8C379A000000000000000000000000000000000000000000000000000000000 DUP2 MSTORE PUSH1 0x4 ADD PUSH2 0x15EA SWAP1 PUSH2 0x33C8 JUMP JUMPDEST PUSH1 0x40 MLOAD DUP1 SWAP2 SUB SWAP1 REVERT JUMPDEST PUSH0 PUSH0 SWAP1 POP JUMPDEST DUP13 MLOAD DUP2 LT ISZERO PUSH2 0x16C1 JUMPI DUP12 DUP12 DUP3 DUP2 DUP2 LT PUSH2 0x1614 JUMPI PUSH2 0x1613 PUSH2 0x3351 JUMP JUMPDEST JUMPDEST SWAP1 POP PUSH1 0x20 MUL ADD CALLDATALOAD PUSH1 0x5 PUSH0 DUP9 PUSH20 0xFFFFFFFFFFFFFFFFFFFFFFFFFFFFFFFFFFFFFFFF AND PUSH20 0xFFFFFFFFFFFFFFFFFFFFFFFFFFFFFFFFFFFFFFFF AND DUP2 MSTORE PUSH1 0x20 ADD SWAP1 DUP2 MSTORE PUSH1 0x20 ADD PUSH0 KECCAK256 PUSH1 0x2 ADD PUSH0 DUP16 DUP5 DUP2 MLOAD DUP2 LT PUSH2 0x166F JUMPI PUSH2 0x166E PUSH2 0x3351 JUMP JUMPDEST JUMPDEST PUSH1 0x20 MUL PUSH1 0x20 ADD ADD MLOAD PUSH20 0xFFFFFFFFFFFFFFFFFFFFFFFFFFFFFFFFFFFFFFFF AND PUSH20 0xFFFFFFFFFFFFFFFFFFFFFFFFFFFFFFFFFFFFFFFF AND DUP2 MSTORE PUSH1 0x20 ADD SWAP1 DUP2 MSTORE PUSH1 0x20 ADD PUSH0 KECCAK256 DUP2 SWAP1 SSTORE POP DUP1 DUP1 PUSH1 0x1 ADD SWAP2 POP POP PUSH2 0x15F8 JUMP JUMPDEST POP PUSH1 0x1 PUSH1 0x7 PUSH0 DUP8 PUSH20 0xFFFFFFFFFFFFFFFFFFFFFFFFFFFFFFFFFFFFFFFF AND PUSH20 0xFFFFFFFFFFFFFFFFFFFFFFFFFFFFFFFFFFFFFFFF AND DUP2 MSTORE PUSH1 0x20 ADD SWAP1 DUP2 MSTORE PUSH1 0x20 ADD PUSH0 KECCAK256 PUSH0 DUP11 DUP2 MSTORE PUSH1 0x20 ADD SWAP1 DUP2 MSTORE PUSH1 0x20 ADD PUSH0 KECCAK256 PUSH0 PUSH2 0x100 EXP DUP2 SLOAD DUP2 PUSH1 0xFF MUL NOT AND SWAP1 DUP4 ISZERO ISZERO MUL OR SWAP1 SSTORE POP DUP5 PUSH20 0xFFFFFFFFFFFFFFFFFFFFFFFFFFFFFFFFFFFFFFFF AND PUSH32 0x1350DE0E499B0E4996F5ED7A5BEB1C93EC8096BE6D7375514726766B5DBD6BFC DUP14 DUP14 DUP14 DUP14 PUSH1 0x40 MLOAD PUSH2 0x1772 SWAP5 SWAP4 SWAP3 SWAP2 SWAP1 PUSH2 0x34E3 JUMP JUMPDEST PUSH1 0x40 MLOAD DUP1 SWAP2 SUB SWAP1 LOG2 POP POP POP POP POP POP POP POP POP POP POP POP JUMP JUMPDEST PUSH1 0x5 PUSH1 0x20 MSTORE DUP1 PUSH0 MSTORE PUSH1 0x40 PUSH0 KECCAK256 PUSH0 SWAP2 POP SWAP1 POP DUP1 PUSH0 ADD PUSH0 SWAP1 SLOAD SWAP1 PUSH2 0x100 EXP SWAP1 DIV PUSH20 0xFFFFFFFFFFFFFFFFFFFFFFFFFFFFFFFFFFFFFFFF AND SWAP1 DUP1 PUSH1 0x1 ADD SLOAD SWAP1 DUP1 PUSH1 0x3 ADD SLOAD SWAP1 DUP1 PUSH1 0x4 ADD PUSH0 SWAP1 SLOAD SWAP1 PUSH2 0x100 EXP SWAP1 DIV PUSH1 0xFF AND SWAP1 DUP1 PUSH1 0x5 ADD SLOAD SWAP1 POP DUP6 JUMP JUMPDEST PUSH2 0x258 DUP2 JUMP JUMPDEST PUSH0 PUSH1 0x1 PUSH0 DUP5 PUSH20 0xFFFFFFFFFFFFFFFFFFFFFFFFFFFFFFFFFFFFFFFF AND PUSH20 0xFFFFFFFFFFFFFFFFFFFFFFFFFFFFFFFFFFFFFFFF AND DUP2 MSTORE PUSH1 0x20 ADD SWAP1 DUP2 MSTORE PUSH1 0x20 ADD PUSH0 KECCAK256 PUSH0 DUP4 PUSH20 0xFFFFFFFFFFFFFFFFFFFFFFFFFFFFFFFFFFFFFFFF AND PUSH20 0xFFFFFFFFFFFFFFFFFFFFFFFFFFFFFFFFFFFFFFFF AND DUP2 MSTORE PUSH1 0x20 ADD SWAP1 DUP2 MSTORE PUSH1 0x20 ADD PUSH0 KECCAK256 SLOAD SWAP1 POP SWAP3 SWAP2 POP POP JUMP JUMPDEST PUSH1 0x6 PUSH1 0x20 MSTORE DUP1 PUSH0 MSTORE PUSH1 0x40 PUSH0 KECCAK256 PUSH0 SWAP2 POP SWAP1 POP DUP1 PUSH0 ADD SLOAD SWAP1 DUP1 PUSH1 0x1 ADD PUSH0 SWAP1 SLOAD SWAP1 PUSH2 0x100 EXP SWAP1 DIV PUSH20 0xFFFFFFFFFFFFFFFFFFFFFFFFFFFFFFFFFFFFFFFF AND SWAP1 DUP1 PUSH1 0x2 ADD PUSH0 SWAP1 SLOAD SWAP1 PUSH2 0x100 EXP SWAP1 DIV PUSH20 0xFFFFFFFFFFFFFFFFFFFFFFFFFFFFFFFFFFFFFFFF AND SWAP1 DUP1 PUSH1 0x3 ADD SLOAD SWAP1 DUP1 PUSH1 0x4 ADD SLOAD SWAP1 DUP1 PUSH1 0x5 ADD SLOAD SWAP1 DUP1 PUSH1 0x6 ADD SLOAD SWAP1 DUP1 PUSH1 0x7 ADD SLOAD SWAP1 DUP1 PUSH1 0x8 ADD SLOAD SWAP1 DUP1 PUSH1 0x9 ADD PUSH0 SWAP1 SLOAD SWAP1 PUSH2 0x100 EXP SWAP1 DIV PUSH1 0xFF AND SWAP1 DUP1 PUSH1 0xA ADD SLOAD SWAP1 POP DUP12 JUMP JUMPDEST PUSH2 0x12C DUP2 JUMP JUMPDEST PUSH0 CALLER SWAP1 POP SWAP1 JUMP JUMPDEST PUSH2 0x1927 DUP4 DUP4 DUP4 PUSH1 0x1 PUSH2 0x1BD5 JUMP JUMPDEST POP POP POP JUMP JUMPDEST PUSH0 PUSH1 0x41 DUP3 MLOAD EQ PUSH2 0x1971 JUMPI PUSH1 0x40 MLOAD PUSH32 0x8C379A000000000000000000000000000000000000000000000000000000000 DUP2 MSTORE PUSH1 0x4 ADD PUSH2 0x1968 SWAP1 PUSH2 0x2BAD JUMP JUMPDEST PUSH1 0x40 MLOAD DUP1 SWAP2 SUB SWAP1 REVERT JUMPDEST PUSH0 PUSH0 PUSH0 PUSH1 0x20 DUP6 ADD MLOAD SWAP3 POP PUSH1 0x40 DUP6 ADD MLOAD SWAP2 POP PUSH1 0x60 DUP6 ADD MLOAD PUSH0 BYTE SWAP1 POP PUSH1 0x1B DUP2 PUSH1 0xFF AND LT ISZERO PUSH2 0x19A7 JUMPI PUSH1 0x1B DUP2 PUSH2 0x19A4 SWAP2 SWAP1 PUSH2 0x3528 JUMP JUMPDEST SWAP1 POP JUMPDEST PUSH1 0x1B DUP2 PUSH1 0xFF AND EQ DUP1 PUSH2 0x19BC JUMPI POP PUSH1 0x1C DUP2 PUSH1 0xFF AND EQ JUMPDEST PUSH2 0x19FB JUMPI PUSH1 0x40 MLOAD PUSH32 0x8C379A000000000000000000000000000000000000000000000000000000000 DUP2 MSTORE PUSH1 0x4 ADD PUSH2 0x19F2 SWAP1 PUSH2 0x35A6 JUMP JUMPDEST PUSH1 0x40 MLOAD DUP1 SWAP2 SUB SWAP1 REVERT JUMPDEST PUSH1 0x1 DUP7 DUP3 DUP6 DUP6 PUSH1 0x40 MLOAD PUSH0 DUP2 MSTORE PUSH1 0x20 ADD PUSH1 0x40 MSTORE PUSH1 0x40 MLOAD PUSH2 0x1A1D SWAP5 SWAP4 SWAP3 SWAP2 SWAP1 PUSH2 0x35C4 JUMP JUMPDEST PUSH1 0x20 PUSH1 0x40 MLOAD PUSH1 0x20 DUP2 SUB SWAP1 DUP1 DUP5 SUB SWAP1 DUP6 GAS STATICCALL ISZERO DUP1 ISZERO PUSH2 0x1A3D JUMPI RETURNDATASIZE PUSH0 PUSH0 RETURNDATACOPY RETURNDATASIZE PUSH0 REVERT JUMPDEST POP POP POP PUSH1 0x20 PUSH1 0x40 MLOAD SUB MLOAD SWAP4 POP POP POP POP SWAP3 SWAP2 POP POP JUMP JUMPDEST PUSH0 PUSH2 0x1A5D DUP5 DUP5 PUSH2 0x17EB JUMP JUMPDEST SWAP1 POP PUSH32 0xFFFFFFFFFFFFFFFFFFFFFFFFFFFFFFFFFFFFFFFFFFFFFFFFFFFFFFFFFFFFFFFF DUP2 LT ISZERO PUSH2 0x1ADF JUMPI DUP2 DUP2 LT ISZERO PUSH2 0x1AD0 JUMPI DUP3 DUP2 DUP4 PUSH1 0x40 MLOAD PUSH32 0xFB8F41B200000000000000000000000000000000000000000000000000000000 DUP2 MSTORE PUSH1 0x4 ADD PUSH2 0x1AC7 SWAP4 SWAP3 SWAP2 SWAP1 PUSH2 0x3607 JUMP JUMPDEST PUSH1 0x40 MLOAD DUP1 SWAP2 SUB SWAP1 REVERT JUMPDEST PUSH2 0x1ADE DUP5 DUP5 DUP5 DUP5 SUB PUSH0 PUSH2 0x1BD5 JUMP JUMPDEST JUMPDEST POP POP POP POP JUMP JUMPDEST PUSH0 PUSH20 0xFFFFFFFFFFFFFFFFFFFFFFFFFFFFFFFFFFFFFFFF AND DUP4 PUSH20 0xFFFFFFFFFFFFFFFFFFFFFFFFFFFFFFFFFFFFFFFF AND SUB PUSH2 0x1B55 JUMPI PUSH0 PUSH1 0x40 MLOAD PUSH32 0x96C6FD1E00000000000000000000000000000000000000000000000000000000 DUP2 MSTORE PUSH1 0x4 ADD PUSH2 0x1B4C SWAP2 SWAP1 PUSH2 0x363C JUMP JUMPDEST PUSH1 0x40 MLOAD DUP1 SWAP2 SUB SWAP1 REVERT JUMPDEST PUSH0 PUSH20 0xFFFFFFFFFFFFFFFFFFFFFFFFFFFFFFFFFFFFFFFF AND DUP3 PUSH20 0xFFFFFFFFFFFFFFFFFFFFFFFFFFFFFFFFFFFFFFFF AND SUB PUSH2 0x1BC5 JUMPI PUSH0 PUSH1 0x40 MLOAD PUSH32 0xEC442F0500000000000000000000000000000000000000000000000000000000 DUP2 MSTORE PUSH1 0x4 ADD PUSH2 0x1BBC SWAP2 SWAP1 PUSH2 0x363C JUMP JUMPDEST PUSH1 0x40 MLOAD DUP1 SWAP2 SUB SWAP1 REVERT JUMPDEST PUSH2 0x1BD0 DUP4 DUP4 DUP4 PUSH2 0x1DA4 JUMP JUMPDEST POP POP POP JUMP JUMPDEST PUSH0 PUSH20 0xFFFFFFFFFFFFFFFFFFFFFFFFFFFFFFFFFFFFFFFF AND DUP5 PUSH20 0xFFFFFFFFFFFFFFFFFFFFFFFFFFFFFFFFFFFFFFFF AND SUB PUSH2 0x1C45 JUMPI PUSH0 PUSH1 0x40 MLOAD PUSH32 0xE602DF0500000000000000000000000000000000000000000000000000000000 DUP2 MSTORE PUSH1 0x4 ADD PUSH2 0x1C3C SWAP2 SWAP1 PUSH2 0x363C JUMP JUMPDEST PUSH1 0x40 MLOAD DUP1 SWAP2 SUB SWAP1 REVERT JUMPDEST PUSH0 PUSH20 0xFFFFFFFFFFFFFFFFFFFFFFFFFFFFFFFFFFFFFFFF AND DUP4 PUSH20 0xFFFFFFFFFFFFFFFFFFFFFFFFFFFFFFFFFFFFFFFF AND SUB PUSH2 0x1CB5 JUMPI PUSH0 PUSH1 0x40 MLOAD PUSH32 0x94280D6200000000000000000000000000000000000000000000000000000000 DUP2 MSTORE PUSH1 0x4 ADD PUSH2 0x1CAC SWAP2 SWAP1 PUSH2 0x363C JUMP JUMPDEST PUSH1 0x40 MLOAD DUP1 SWAP2 SUB SWAP1 REVERT JUMPDEST DUP2 PUSH1 0x1 PUSH0 DUP7 PUSH20 0xFFFFFFFFFFFFFFFFFFFFFFFFFFFFFFFFFFFFFFFF AND PUSH20 0xFFFFFFFFFFFFFFFFFFFFFFFFFFFFFFFFFFFFFFFF AND DUP2 MSTORE PUSH1 0x20 ADD SWAP1 DUP2 MSTORE PUSH1 0x20 ADD PUSH0 KECCAK256 PUSH0 DUP6 PUSH20 0xFFFFFFFFFFFFFFFFFFFFFFFFFFFFFFFFFFFFFFFF AND PUSH20 0xFFFFFFFFFFFFFFFFFFFFFFFFFFFFFFFFFFFFFFFF AND DUP2 MSTORE PUSH1 0x20 ADD SWAP1 DUP2 MSTORE PUSH1 0x20 ADD PUSH0 KECCAK256 DUP2 SWAP1 SSTORE POP DUP1 ISZERO PUSH2 0x1D9E JUMPI DUP3 PUSH20 0xFFFFFFFFFFFFFFFFFFFFFFFFFFFFFFFFFFFFFFFF AND DUP5 PUSH20 0xFFFFFFFFFFFFFFFFFFFFFFFFFFFFFFFFFFFFFFFF AND PUSH32 0x8C5BE1E5EBEC7D5BD14F71427D1E84F3DD0314C0F7B2291E5B200AC8C7C3B925 DUP5 PUSH1 0x40 MLOAD PUSH2 0x1D95 SWAP2 SWAP1 PUSH2 0x216B JUMP JUMPDEST PUSH1 0x40 MLOAD DUP1 SWAP2 SUB SWAP1 LOG3 JUMPDEST POP POP POP POP JUMP JUMPDEST PUSH0 PUSH20 0xFFFFFFFFFFFFFFFFFFFFFFFFFFFFFFFFFFFFFFFF AND DUP4 PUSH20 0xFFFFFFFFFFFFFFFFFFFFFFFFFFFFFFFFFFFFFFFF AND SUB PUSH2 0x1DF4 JUMPI DUP1 PUSH1 0x2 PUSH0 DUP3 DUP3 SLOAD PUSH2 0x1DE8 SWAP2 SWAP1 PUSH2 0x29F6 JUMP JUMPDEST SWAP3 POP POP DUP2 SWAP1 SSTORE POP PUSH2 0x1EC2 JUMP JUMPDEST PUSH0 PUSH0 PUSH0 DUP6 PUSH20 0xFFFFFFFFFFFFFFFFFFFFFFFFFFFFFFFFFFFFFFFF AND PUSH20 0xFFFFFFFFFFFFFFFFFFFFFFFFFFFFFFFFFFFFFFFF AND DUP2 MSTORE PUSH1 0x20 ADD SWAP1 DUP2 MSTORE PUSH1 0x20 ADD PUSH0 KECCAK256 SLOAD SWAP1 POP DUP2 DUP2 LT ISZERO PUSH2 0x1E7D JUMPI DUP4 DUP2 DUP4 PUSH1 0x40 MLOAD PUSH32 0xE450D38C00000000000000000000000000000000000000000000000000000000 DUP2 MSTORE PUSH1 0x4 ADD PUSH2 0x1E74 SWAP4 SWAP3 SWAP2 SWAP1 PUSH2 0x3607 JUMP JUMPDEST PUSH1 0x40 MLOAD DUP1 SWAP2 SUB SWAP1 REVERT JUMPDEST DUP2 DUP2 SUB PUSH0 PUSH0 DUP7 PUSH20 0xFFFFFFFFFFFFFFFFFFFFFFFFFFFFFFFFFFFFFFFF AND PUSH20 0xFFFFFFFFFFFFFFFFFFFFFFFFFFFFFFFFFFFFFFFF AND DUP2 MSTORE PUSH1 0x20 ADD SWAP1 DUP2 MSTORE PUSH1 0x20 ADD PUSH0 KECCAK256 DUP2 SWAP1 SSTORE POP POP JUMPDEST PUSH0 PUSH20 0xFFFFFFFFFFFFFFFFFFFFFFFFFFFFFFFFFFFFFFFF AND DUP3 PUSH20 0xFFFFFFFFFFFFFFFFFFFFFFFFFFFFFFFFFFFFFFFF AND SUB PUSH2 0x1F09 JUMPI DUP1 PUSH1 0x2 PUSH0 DUP3 DUP3 SLOAD SUB SWAP3 POP POP DUP2 SWAP1 SSTORE POP PUSH2 0x1F53 JUMP JUMPDEST DUP1 PUSH0 PUSH0 DUP5 PUSH20 0xFFFFFFFFFFFFFFFFFFFFFFFFFFFFFFFFFFFFFFFF AND PUSH20 0xFFFFFFFFFFFFFFFFFFFFFFFFFFFFFFFFFFFFFFFF AND DUP2 MSTORE PUSH1 0x20 ADD SWAP1 DUP2 MSTORE PUSH1 0x20 ADD PUSH0 KECCAK256 PUSH0 DUP3 DUP3 SLOAD ADD SWAP3 POP POP DUP2 SWAP1 SSTORE POP JUMPDEST DUP2 PUSH20 0xFFFFFFFFFFFFFFFFFFFFFFFFFFFFFFFFFFFFFFFF AND DUP4 PUSH20 0xFFFFFFFFFFFFFFFFFFFFFFFFFFFFFFFFFFFFFFFF AND PUSH32 0xDDF252AD1BE2C89B69C2B068FC378DAA952BA7F163C4A11628F55A4DF523B3EF DUP4 PUSH1 0x40 MLOAD PUSH2 0x1FB0 SWAP2 SWAP1 PUSH2 0x216B JUMP JUMPDEST PUSH1 0x40 MLOAD DUP1 SWAP2 SUB SWAP1 LOG3 POP POP POP JUMP JUMPDEST PUSH0 DUP2 MLOAD SWAP1 POP SWAP2 SWAP1 POP JUMP JUMPDEST PUSH0 DUP3 DUP3 MSTORE PUSH1 0x20 DUP3 ADD SWAP1 POP SWAP3 SWAP2 POP POP JUMP JUMPDEST DUP3 DUP2 DUP4 MCOPY PUSH0 DUP4 DUP4 ADD MSTORE POP POP POP JUMP JUMPDEST PUSH0 PUSH1 0x1F NOT PUSH1 0x1F DUP4 ADD AND SWAP1 POP SWAP2 SWAP1 POP JUMP JUMPDEST PUSH0 PUSH2 0x1FFF DUP3 PUSH2 0x1FBD JUMP JUMPDEST PUSH2 0x2009 DUP2 DUP6 PUSH2 0x1FC7 JUMP JUMPDEST SWAP4 POP PUSH2 0x2019 DUP2 DUP6 PUSH1 0x20 DUP7 ADD PUSH2 0x1FD7 JUMP JUMPDEST PUSH2 0x2022 DUP2 PUSH2 0x1FE5 JUMP JUMPDEST DUP5 ADD SWAP2 POP POP SWAP3 SWAP2 POP POP JUMP JUMPDEST PUSH0 PUSH1 0x20 DUP3 ADD SWAP1 POP DUP2 DUP2 SUB PUSH0 DUP4 ADD MSTORE PUSH2 0x2045 DUP2 DUP5 PUSH2 0x1FF5 JUMP JUMPDEST SWAP1 POP SWAP3 SWAP2 POP POP JUMP JUMPDEST PUSH0 PUSH1 0x40 MLOAD SWAP1 POP SWAP1 JUMP JUMPDEST PUSH0 PUSH0 REVERT JUMPDEST PUSH0 PUSH0 REVERT JUMPDEST PUSH0 PUSH20 0xFFFFFFFFFFFFFFFFFFFFFFFFFFFFFFFFFFFFFFFF DUP3 AND SWAP1 POP SWAP2 SWAP1 POP JUMP JUMPDEST PUSH0 PUSH2 0x2087 DUP3 PUSH2 0x205E JUMP JUMPDEST SWAP1 POP SWAP2 SWAP1 POP JUMP JUMPDEST PUSH2 0x2097 DUP2 PUSH2 0x207D JUMP JUMPDEST DUP2 EQ PUSH2 0x20A1 JUMPI PUSH0 PUSH0 REVERT JUMPDEST POP JUMP JUMPDEST PUSH0 DUP2 CALLDATALOAD SWAP1 POP PUSH2 0x20B2 DUP2 PUSH2 0x208E JUMP JUMPDEST SWAP3 SWAP2 POP POP JUMP JUMPDEST PUSH0 DUP2 SWAP1 POP SWAP2 SWAP1 POP JUMP JUMPDEST PUSH2 0x20CA DUP2 PUSH2 0x20B8 JUMP JUMPDEST DUP2 EQ PUSH2 0x20D4 JUMPI PUSH0 PUSH0 REVERT JUMPDEST POP JUMP JUMPDEST PUSH0 DUP2 CALLDATALOAD SWAP1 POP PUSH2 0x20E5 DUP2 PUSH2 0x20C1 JUMP JUMPDEST SWAP3 SWAP2 POP POP JUMP JUMPDEST PUSH0 PUSH0 PUSH1 0x40 DUP4 DUP6 SUB SLT ISZERO PUSH2 0x2101 JUMPI PUSH2 0x2100 PUSH2 0x2056 JUMP JUMPDEST JUMPDEST PUSH0 PUSH2 0x210E DUP6 DUP3 DUP7 ADD PUSH2 0x20A4 JUMP JUMPDEST SWAP3 POP POP PUSH1 0x20 PUSH2 0x211F DUP6 DUP3 DUP7 ADD PUSH2 0x20D7 JUMP JUMPDEST SWAP2 POP POP SWAP3 POP SWAP3 SWAP1 POP JUMP JUMPDEST PUSH0 DUP2 ISZERO ISZERO SWAP1 POP SWAP2 SWAP1 POP JUMP JUMPDEST PUSH2 0x213D DUP2 PUSH2 0x2129 JUMP JUMPDEST DUP3 MSTORE POP POP JUMP JUMPDEST PUSH0 PUSH1 0x20 DUP3 ADD SWAP1 POP PUSH2 0x2156 PUSH0 DUP4 ADD DUP5 PUSH2 0x2134 JUMP JUMPDEST SWAP3 SWAP2 POP POP JUMP JUMPDEST PUSH2 0x2165 DUP2 PUSH2 0x20B8 JUMP JUMPDEST DUP3 MSTORE POP POP JUMP JUMPDEST PUSH0 PUSH1 0x20 DUP3 ADD SWAP1 POP PUSH2 0x217E PUSH0 DUP4 ADD DUP5 PUSH2 0x215C JUMP JUMPDEST SWAP3 SWAP2 POP POP JUMP JUMPDEST PUSH0 DUP2 SWAP1 POP SWAP2 SWAP1 POP JUMP JUMPDEST PUSH2 0x2196 DUP2 PUSH2 0x2184 JUMP JUMPDEST DUP2 EQ PUSH2 0x21A0 JUMPI PUSH0 PUSH0 REVERT JUMPDEST POP JUMP JUMPDEST PUSH0 DUP2 CALLDATALOAD SWAP1 POP PUSH2 0x21B1 DUP2 PUSH2 0x218D JUMP JUMPDEST SWAP3 SWAP2 POP POP JUMP JUMPDEST PUSH0 PUSH0 REVERT JUMPDEST PUSH0 PUSH0 REVERT JUMPDEST PUSH0 PUSH0 REVERT JUMPDEST PUSH0 PUSH0 DUP4 PUSH1 0x1F DUP5 ADD SLT PUSH2 0x21D8 JUMPI PUSH2 0x21D7 PUSH2 0x21B7 JUMP JUMPDEST JUMPDEST DUP3 CALLDATALOAD SWAP1 POP PUSH8 0xFFFFFFFFFFFFFFFF DUP2 GT ISZERO PUSH2 0x21F5 JUMPI PUSH2 0x21F4 PUSH2 0x21BB JUMP JUMPDEST JUMPDEST PUSH1 0x20 DUP4 ADD SWAP2 POP DUP4 PUSH1 0x1 DUP3 MUL DUP4 ADD GT ISZERO PUSH2 0x2211 JUMPI PUSH2 0x2210 PUSH2 0x21BF JUMP JUMPDEST JUMPDEST SWAP3 POP SWAP3 SWAP1 POP JUMP JUMPDEST PUSH0 PUSH0 PUSH0 PUSH0 PUSH0 PUSH1 0x80 DUP7 DUP9 SUB SLT ISZERO PUSH2 0x2231 JUMPI PUSH2 0x2230 PUSH2 0x2056 JUMP JUMPDEST JUMPDEST PUSH0 PUSH2 0x223E DUP9 DUP3 DUP10 ADD PUSH2 0x21A3 JUMP JUMPDEST SWAP6 POP POP PUSH1 0x20 PUSH2 0x224F DUP9 DUP3 DUP10 ADD PUSH2 0x20D7 JUMP JUMPDEST SWAP5 POP POP PUSH1 0x40 PUSH2 0x2260 DUP9 DUP3 DUP10 ADD PUSH2 0x20D7 JUMP JUMPDEST SWAP4 POP POP PUSH1 0x60 DUP7 ADD CALLDATALOAD PUSH8 0xFFFFFFFFFFFFFFFF DUP2 GT ISZERO PUSH2 0x2281 JUMPI PUSH2 0x2280 PUSH2 0x205A JUMP JUMPDEST JUMPDEST PUSH2 0x228D DUP9 DUP3 DUP10 ADD PUSH2 0x21C3 JUMP JUMPDEST SWAP3 POP SWAP3 POP POP SWAP3 SWAP6 POP SWAP3 SWAP6 SWAP1 SWAP4 POP JUMP JUMPDEST PUSH2 0x22A5 DUP2 PUSH2 0x2184 JUMP JUMPDEST DUP3 MSTORE POP POP JUMP JUMPDEST PUSH0 PUSH1 0x20 DUP3 ADD SWAP1 POP PUSH2 0x22BE PUSH0 DUP4 ADD DUP5 PUSH2 0x229C JUMP JUMPDEST SWAP3 SWAP2 POP POP JUMP JUMPDEST PUSH0 PUSH0 PUSH0 PUSH1 0x60 DUP5 DUP7 SUB SLT ISZERO PUSH2 0x22DB JUMPI PUSH2 0x22DA PUSH2 0x2056 JUMP JUMPDEST JUMPDEST PUSH0 PUSH2 0x22E8 DUP7 DUP3 DUP8 ADD PUSH2 0x20A4 JUMP JUMPDEST SWAP4 POP POP PUSH1 0x20 PUSH2 0x22F9 DUP7 DUP3 DUP8 ADD PUSH2 0x20A4 JUMP JUMPDEST SWAP3 POP POP PUSH1 0x40 PUSH2 0x230A DUP7 DUP3 DUP8 ADD PUSH2 0x20D7 JUMP JUMPDEST SWAP2 POP POP SWAP3 POP SWAP3 POP SWAP3 JUMP JUMPDEST PUSH0 PUSH1 0xFF DUP3 AND SWAP1 POP SWAP2 SWAP1 POP JUMP JUMPDEST PUSH2 0x2329 DUP2 PUSH2 0x2314 JUMP JUMPDEST DUP3 MSTORE POP POP JUMP JUMPDEST PUSH0 PUSH1 0x20 DUP3 ADD SWAP1 POP PUSH2 0x2342 PUSH0 DUP4 ADD DUP5 PUSH2 0x2320 JUMP JUMPDEST SWAP3 SWAP2 POP POP JUMP JUMPDEST PUSH0 PUSH1 0x20 DUP3 DUP5 SUB SLT ISZERO PUSH2 0x235D JUMPI PUSH2 0x235C PUSH2 0x2056 JUMP JUMPDEST JUMPDEST PUSH0 PUSH2 0x236A DUP5 DUP3 DUP6 ADD PUSH2 0x20A4 JUMP JUMPDEST SWAP2 POP POP SWAP3 SWAP2 POP POP JUMP JUMPDEST PUSH0 PUSH1 0x20 DUP3 DUP5 SUB SLT ISZERO PUSH2 0x2388 JUMPI PUSH2 0x2387 PUSH2 0x2056 JUMP JUMPDEST JUMPDEST PUSH0 PUSH2 0x2395 DUP5 DUP3 DUP6 ADD PUSH2 0x21A3 JUMP JUMPDEST SWAP2 POP POP SWAP3 SWAP2 POP POP JUMP JUMPDEST PUSH0 PUSH0 PUSH0 PUSH0 PUSH0 PUSH0 PUSH0 PUSH0 PUSH1 0xE0 DUP10 DUP12 SUB SLT ISZERO PUSH2 0x23BA JUMPI PUSH2 0x23B9 PUSH2 0x2056 JUMP JUMPDEST JUMPDEST PUSH0 PUSH2 0x23C7 DUP12 DUP3 DUP13 ADD PUSH2 0x21A3 JUMP JUMPDEST SWAP9 POP POP PUSH1 0x20 PUSH2 0x23D8 DUP12 DUP3 DUP13 ADD PUSH2 0x20D7 JUMP JUMPDEST SWAP8 POP POP PUSH1 0x40 PUSH2 0x23E9 DUP12 DUP3 DUP13 ADD PUSH2 0x20A4 JUMP JUMPDEST SWAP7 POP POP PUSH1 0x60 PUSH2 0x23FA DUP12 DUP3 DUP13 ADD PUSH2 0x20D7 JUMP JUMPDEST SWAP6 POP POP PUSH1 0x80 PUSH2 0x240B DUP12 DUP3 DUP13 ADD PUSH2 0x20D7 JUMP JUMPDEST SWAP5 POP POP PUSH1 0xA0 PUSH2 0x241C DUP12 DUP3 DUP13 ADD PUSH2 0x21A3 JUMP JUMPDEST SWAP4 POP POP PUSH1 0xC0 DUP10 ADD CALLDATALOAD PUSH8 0xFFFFFFFFFFFFFFFF DUP2 GT ISZERO PUSH2 0x243D JUMPI PUSH2 0x243C PUSH2 0x205A JUMP JUMPDEST JUMPDEST PUSH2 0x2449 DUP12 DUP3 DUP13 ADD PUSH2 0x21C3 JUMP JUMPDEST SWAP3 POP SWAP3 POP POP SWAP3 SWAP6 SWAP9 POP SWAP3 SWAP6 SWAP9 SWAP1 SWAP4 SWAP7 POP JUMP JUMPDEST PUSH0 PUSH1 0x40 DUP3 ADD SWAP1 POP PUSH2 0x246E PUSH0 DUP4 ADD DUP6 PUSH2 0x229C JUMP JUMPDEST PUSH2 0x247B PUSH1 0x20 DUP4 ADD DUP5 PUSH2 0x229C JUMP JUMPDEST SWAP4 SWAP3 POP POP POP JUMP JUMPDEST PUSH32 0x4E487B7100000000000000000000000000000000000000000000000000000000 PUSH0 MSTORE PUSH1 0x41 PUSH1 0x4 MSTORE PUSH1 0x24 PUSH0 REVERT JUMPDEST PUSH2 0x24B8 DUP3 PUSH2 0x1FE5 JUMP JUMPDEST DUP2 ADD DUP2 DUP2 LT PUSH8 0xFFFFFFFFFFFFFFFF DUP3 GT OR ISZERO PUSH2 0x24D7 JUMPI PUSH2 0x24D6 PUSH2 0x2482 JUMP JUMPDEST JUMPDEST DUP1 PUSH1 0x40 MSTORE POP POP POP JUMP JUMPDEST PUSH0 PUSH2 0x24E9 PUSH2 0x204D JUMP JUMPDEST SWAP1 POP PUSH2 0x24F5 DUP3 DUP3 PUSH2 0x24AF JUMP JUMPDEST SWAP2 SWAP1 POP JUMP JUMPDEST PUSH0 PUSH8 0xFFFFFFFFFFFFFFFF DUP3 GT ISZERO PUSH2 0x2514 JUMPI PUSH2 0x2513 PUSH2 0x2482 JUMP JUMPDEST JUMPDEST PUSH1 0x20 DUP3 MUL SWAP1 POP PUSH1 0x20 DUP2 ADD SWAP1 POP SWAP2 SWAP1 POP JUMP JUMPDEST PUSH0 PUSH2 0x2537 PUSH2 0x2532 DUP5 PUSH2 0x24FA JUMP JUMPDEST PUSH2 0x24E0 JUMP JUMPDEST SWAP1 POP DUP1 DUP4 DUP3 MSTORE PUSH1 0x20 DUP3 ADD SWAP1 POP PUSH1 0x20 DUP5 MUL DUP4 ADD DUP6 DUP2 GT ISZERO PUSH2 0x255A JUMPI PUSH2 0x2559 PUSH2 0x21BF JUMP JUMPDEST JUMPDEST DUP4 JUMPDEST DUP2 DUP2 LT ISZERO PUSH2 0x2583 JUMPI DUP1 PUSH2 0x256F DUP9 DUP3 PUSH2 0x20A4 JUMP JUMPDEST DUP5 MSTORE PUSH1 0x20 DUP5 ADD SWAP4 POP POP PUSH1 0x20 DUP2 ADD SWAP1 POP PUSH2 0x255C JUMP JUMPDEST POP POP POP SWAP4 SWAP3 POP POP POP JUMP JUMPDEST PUSH0 DUP3 PUSH1 0x1F DUP4 ADD SLT PUSH2 0x25A1 JUMPI PUSH2 0x25A0 PUSH2 0x21B7 JUMP JUMPDEST JUMPDEST DUP2 CALLDATALOAD PUSH2 0x25B1 DUP5 DUP3 PUSH1 0x20 DUP7 ADD PUSH2 0x2525 JUMP JUMPDEST SWAP2 POP POP SWAP3 SWAP2 POP POP JUMP JUMPDEST PUSH0 PUSH0 DUP4 PUSH1 0x1F DUP5 ADD SLT PUSH2 0x25CF JUMPI PUSH2 0x25CE PUSH2 0x21B7 JUMP JUMPDEST JUMPDEST DUP3 CALLDATALOAD SWAP1 POP PUSH8 0xFFFFFFFFFFFFFFFF DUP2 GT ISZERO PUSH2 0x25EC JUMPI PUSH2 0x25EB PUSH2 0x21BB JUMP JUMPDEST JUMPDEST PUSH1 0x20 DUP4 ADD SWAP2 POP DUP4 PUSH1 0x20 DUP3 MUL DUP4 ADD GT ISZERO PUSH2 0x2608 JUMPI PUSH2 0x2607 PUSH2 0x21BF JUMP JUMPDEST JUMPDEST SWAP3 POP SWAP3 SWAP1 POP JUMP JUMPDEST PUSH0 PUSH0 PUSH0 PUSH0 PUSH0 PUSH0 PUSH0 PUSH1 0xA0 DUP9 DUP11 SUB SLT ISZERO PUSH2 0x262A JUMPI PUSH2 0x2629 PUSH2 0x2056 JUMP JUMPDEST JUMPDEST PUSH0 DUP9 ADD CALLDATALOAD PUSH8 0xFFFFFFFFFFFFFFFF DUP2 GT ISZERO PUSH2 0x2647 JUMPI PUSH2 0x2646 PUSH2 0x205A JUMP JUMPDEST JUMPDEST PUSH2 0x2653 DUP11 DUP3 DUP12 ADD PUSH2 0x258D JUMP JUMPDEST SWAP8 POP POP PUSH1 0x20 DUP9 ADD CALLDATALOAD PUSH8 0xFFFFFFFFFFFFFFFF DUP2 GT ISZERO PUSH2 0x2674 JUMPI PUSH2 0x2673 PUSH2 0x205A JUMP JUMPDEST JUMPDEST PUSH2 0x2680 DUP11 DUP3 DUP12 ADD PUSH2 0x25BA JUMP JUMPDEST SWAP7 POP SWAP7 POP POP PUSH1 0x40 PUSH2 0x2693 DUP11 DUP3 DUP12 ADD PUSH2 0x20D7 JUMP JUMPDEST SWAP5 POP POP PUSH1 0x60 PUSH2 0x26A4 DUP11 DUP3 DUP12 ADD PUSH2 0x20D7 JUMP JUMPDEST SWAP4 POP POP PUSH1 0x80 DUP9 ADD CALLDATALOAD PUSH8 0xFFFFFFFFFFFFFFFF DUP2 GT ISZERO PUSH2 0x26C5 JUMPI PUSH2 0x26C4 PUSH2 0x205A JUMP JUMPDEST JUMPDEST PUSH2 0x26D1 DUP11 DUP3 DUP12 ADD PUSH2 0x21C3 JUMP JUMPDEST SWAP3 POP SWAP3 POP POP SWAP3 SWAP6 SWAP9 SWAP2 SWAP5 SWAP8 POP SWAP3 SWAP6 POP JUMP JUMPDEST PUSH2 0x26EB DUP2 PUSH2 0x207D JUMP JUMPDEST DUP3 MSTORE POP POP JUMP JUMPDEST PUSH0 PUSH1 0xA0 DUP3 ADD SWAP1 POP PUSH2 0x2704 PUSH0 DUP4 ADD DUP9 PUSH2 0x26E2 JUMP JUMPDEST PUSH2 0x2711 PUSH1 0x20 DUP4 ADD DUP8 PUSH2 0x229C JUMP JUMPDEST PUSH2 0x271E PUSH1 0x40 DUP4 ADD DUP7 PUSH2 0x215C JUMP JUMPDEST PUSH2 0x272B PUSH1 0x60 DUP4 ADD DUP6 PUSH2 0x2134 JUMP JUMPDEST PUSH2 0x2738 PUSH1 0x80 DUP4 ADD DUP5 PUSH2 0x229C JUMP JUMPDEST SWAP7 SWAP6 POP POP POP POP POP POP JUMP JUMPDEST PUSH0 PUSH0 PUSH1 0x40 DUP4 DUP6 SUB SLT ISZERO PUSH2 0x2758 JUMPI PUSH2 0x2757 PUSH2 0x2056 JUMP JUMPDEST JUMPDEST PUSH0 PUSH2 0x2765 DUP6 DUP3 DUP7 ADD PUSH2 0x20A4 JUMP JUMPDEST SWAP3 POP POP PUSH1 0x20 PUSH2 0x2776 DUP6 DUP3 DUP7 ADD PUSH2 0x20A4 JUMP JUMPDEST SWAP2 POP POP SWAP3 POP SWAP3 SWAP1 POP JUMP JUMPDEST PUSH32 0x4E487B7100000000000000000000000000000000000000000000000000000000 PUSH0 MSTORE PUSH1 0x21 PUSH1 0x4 MSTORE PUSH1 0x24 PUSH0 REVERT JUMPDEST PUSH1 0x4 DUP2 LT PUSH2 0x27BE JUMPI PUSH2 0x27BD PUSH2 0x2780 JUMP JUMPDEST JUMPDEST POP JUMP JUMPDEST PUSH0 DUP2 SWAP1 POP PUSH2 0x27CE DUP3 PUSH2 0x27AD JUMP JUMPDEST SWAP2 SWAP1 POP JUMP JUMPDEST PUSH0 PUSH2 0x27DD DUP3 PUSH2 0x27C1 JUMP JUMPDEST SWAP1 POP SWAP2 SWAP1 POP JUMP JUMPDEST PUSH2 0x27ED DUP2 PUSH2 0x27D3 JUMP JUMPDEST DUP3 MSTORE POP POP JUMP JUMPDEST PUSH0 PUSH2 0x160 DUP3 ADD SWAP1 POP PUSH2 0x2807 PUSH0 DUP4 ADD DUP15 PUSH2 0x229C JUMP JUMPDEST PUSH2 0x2814 PUSH1 0x20 DUP4 ADD DUP14 PUSH2 0x26E2 JUMP JUMPDEST PUSH2 0x2821 PUSH1 0x40 DUP4 ADD DUP13 PUSH2 0x26E2 JUMP JUMPDEST PUSH2 0x282E PUSH1 0x60 DUP4 ADD DUP12 PUSH2 0x215C JUMP JUMPDEST PUSH2 0x283B PUSH1 0x80 DUP4 ADD DUP11 PUSH2 0x229C JUMP JUMPDEST PUSH2 0x2848 PUSH1 0xA0 DUP4 ADD DUP10 PUSH2 0x229C JUMP JUMPDEST PUSH2 0x2855 PUSH1 0xC0 DUP4 ADD DUP9 PUSH2 0x229C JUMP JUMPDEST PUSH2 0x2862 PUSH1 0xE0 DUP4 ADD DUP8 PUSH2 0x215C JUMP JUMPDEST PUSH2 0x2870 PUSH2 0x100 DUP4 ADD DUP7 PUSH2 0x215C JUMP JUMPDEST PUSH2 0x287E PUSH2 0x120 DUP4 ADD DUP6 PUSH2 0x27E4 JUMP JUMPDEST PUSH2 0x288C PUSH2 0x140 DUP4 ADD DUP5 PUSH2 0x229C JUMP JUMPDEST SWAP13 SWAP12 POP POP POP POP POP POP POP POP POP POP POP POP JUMP JUMPDEST PUSH32 0x4E487B7100000000000000000000000000000000000000000000000000000000 PUSH0 MSTORE PUSH1 0x22 PUSH1 0x4 MSTORE PUSH1 0x24 PUSH0 REVERT JUMPDEST PUSH0 PUSH1 0x2 DUP3 DIV SWAP1 POP PUSH1 0x1 DUP3 AND DUP1 PUSH2 0x28E0 JUMPI PUSH1 0x7F DUP3 AND SWAP2 POP JUMPDEST PUSH1 0x20 DUP3 LT DUP2 SUB PUSH2 0x28F3 JUMPI PUSH2 0x28F2 PUSH2 0x289C JUMP JUMPDEST JUMPDEST POP SWAP2 SWAP1 POP JUMP JUMPDEST PUSH32 0x5961207265676973747261646F00000000000000000000000000000000000000 PUSH0 DUP3 ADD MSTORE POP JUMP JUMPDEST PUSH0 PUSH2 0x292D PUSH1 0xD DUP4 PUSH2 0x1FC7 JUMP JUMPDEST SWAP2 POP PUSH2 0x2938 DUP3 PUSH2 0x28F9 JUMP JUMPDEST PUSH1 0x20 DUP3 ADD SWAP1 POP SWAP2 SWAP1 POP JUMP JUMPDEST PUSH0 PUSH1 0x20 DUP3 ADD SWAP1 POP DUP2 DUP2 SUB PUSH0 DUP4 ADD MSTORE PUSH2 0x295A DUP2 PUSH2 0x2921 JUMP JUMPDEST SWAP1 POP SWAP2 SWAP1 POP JUMP JUMPDEST PUSH32 0x44657669636520796120757361646F0000000000000000000000000000000000 PUSH0 DUP3 ADD MSTORE POP JUMP JUMPDEST PUSH0 PUSH2 0x2995 PUSH1 0xF DUP4 PUSH2 0x1FC7 JUMP JUMPDEST SWAP2 POP PUSH2 0x29A0 DUP3 PUSH2 0x2961 JUMP JUMPDEST PUSH1 0x20 DUP3 ADD SWAP1 POP SWAP2 SWAP1 POP JUMP JUMPDEST PUSH0 PUSH1 0x20 DUP3 ADD SWAP1 POP DUP2 DUP2 SUB PUSH0 DUP4 ADD MSTORE PUSH2 0x29C2 DUP2 PUSH2 0x2989 JUMP JUMPDEST SWAP1 POP SWAP2 SWAP1 POP JUMP JUMPDEST PUSH32 0x4E487B7100000000000000000000000000000000000000000000000000000000 PUSH0 MSTORE PUSH1 0x11 PUSH1 0x4 MSTORE PUSH1 0x24 PUSH0 REVERT JUMPDEST PUSH0 PUSH2 0x2A00 DUP3 PUSH2 0x20B8 JUMP JUMPDEST SWAP2 POP PUSH2 0x2A0B DUP4 PUSH2 0x20B8 JUMP JUMPDEST SWAP3 POP DUP3 DUP3 ADD SWAP1 POP DUP1 DUP3 GT ISZERO PUSH2 0x2A23 JUMPI PUSH2 0x2A22 PUSH2 0x29C9 JUMP JUMPDEST JUMPDEST SWAP3 SWAP2 POP POP JUMP JUMPDEST PUSH32 0x54696D657374616D7020657870697261646F0000000000000000000000000000 PUSH0 DUP3 ADD MSTORE POP JUMP JUMPDEST PUSH0 PUSH2 0x2A5D PUSH1 0x12 DUP4 PUSH2 0x1FC7 JUMP JUMPDEST SWAP2 POP PUSH2 0x2A68 DUP3 PUSH2 0x2A29 JUMP JUMPDEST PUSH1 0x20 DUP3 ADD SWAP1 POP SWAP2 SWAP1 POP JUMP JUMPDEST PUSH0 PUSH1 0x20 DUP3 ADD SWAP1 POP DUP2 DUP2 SUB PUSH0 DUP4 ADD MSTORE PUSH2 0x2A8A DUP2 PUSH2 0x2A51 JUMP JUMPDEST SWAP1 POP SWAP2 SWAP1 POP JUMP JUMPDEST PUSH0 DUP2 PUSH1 0x60 SHL SWAP1 POP SWAP2 SWAP1 POP JUMP JUMPDEST PUSH0 PUSH2 0x2AA7 DUP3 PUSH2 0x2A91 JUMP JUMPDEST SWAP1 POP SWAP2 SWAP1 POP JUMP JUMPDEST PUSH0 PUSH2 0x2AB8 DUP3 PUSH2 0x2A9D JUMP JUMPDEST SWAP1 POP SWAP2 SWAP1 POP JUMP JUMPDEST PUSH2 0x2AD0 PUSH2 0x2ACB DUP3 PUSH2 0x207D JUMP JUMPDEST PUSH2 0x2AAE JUMP JUMPDEST DUP3 MSTORE POP POP JUMP JUMPDEST PUSH0 DUP2 SWAP1 POP SWAP2 SWAP1 POP JUMP JUMPDEST PUSH2 0x2AF0 PUSH2 0x2AEB DUP3 PUSH2 0x2184 JUMP JUMPDEST PUSH2 0x2AD6 JUMP JUMPDEST DUP3 MSTORE POP POP JUMP JUMPDEST PUSH0 DUP2 SWAP1 POP SWAP2 SWAP1 POP JUMP JUMPDEST PUSH2 0x2B10 PUSH2 0x2B0B DUP3 PUSH2 0x20B8 JUMP JUMPDEST PUSH2 0x2AF6 JUMP JUMPDEST DUP3 MSTORE POP POP JUMP JUMPDEST PUSH0 PUSH2 0x2B21 DUP3 DUP8 PUSH2 0x2ABF JUMP JUMPDEST PUSH1 0x14 DUP3 ADD SWAP2 POP PUSH2 0x2B31 DUP3 DUP7 PUSH2 0x2ADF JUMP JUMPDEST PUSH1 0x20 DUP3 ADD SWAP2 POP PUSH2 0x2B41 DUP3 DUP6 PUSH2 0x2AFF JUMP JUMPDEST PUSH1 0x20 DUP3 ADD SWAP2 POP PUSH2 0x2B51 DUP3 DUP5 PUSH2 0x2AFF JUMP JUMPDEST PUSH1 0x20 DUP3 ADD SWAP2 POP DUP2 SWAP1 POP SWAP6 SWAP5 POP POP POP POP POP JUMP JUMPDEST PUSH32 0x4669726D6120696E76616C696461000000000000000000000000000000000000 PUSH0 DUP3 ADD MSTORE POP JUMP JUMPDEST PUSH0 PUSH2 0x2B97 PUSH1 0xE DUP4 PUSH2 0x1FC7 JUMP JUMPDEST SWAP2 POP PUSH2 0x2BA2 DUP3 PUSH2 0x2B63 JUMP JUMPDEST PUSH1 0x20 DUP3 ADD SWAP1 POP SWAP2 SWAP1 POP JUMP JUMPDEST PUSH0 PUSH1 0x20 DUP3 ADD SWAP1 POP DUP2 DUP2 SUB PUSH0 DUP4 ADD MSTORE PUSH2 0x2BC4 DUP2 PUSH2 0x2B8B JUMP JUMPDEST SWAP1 POP SWAP2 SWAP1 POP JUMP JUMPDEST PUSH0 DUP2 SWAP1 POP SWAP3 SWAP2 POP POP JUMP JUMPDEST PUSH32 0x67656E6573697300000000000000000000000000000000000000000000000000 PUSH0 DUP3 ADD MSTORE POP JUMP JUMPDEST PUSH0 PUSH2 0x2C09 PUSH1 0x7 DUP4 PUSH2 0x2BCB JUMP JUMPDEST SWAP2 POP PUSH2 0x2C14 DUP3 PUSH2 0x2BD5 JUMP JUMPDEST PUSH1 0x7 DUP3 ADD SWAP1 POP SWAP2 SWAP1 POP JUMP JUMPDEST PUSH0 PUSH2 0x2C2A DUP3 DUP7 PUSH2 0x2ABF JUMP JUMPDEST PUSH1 0x14 DUP3 ADD SWAP2 POP PUSH2 0x2C3A DUP3 DUP6 PUSH2 0x2ADF JUMP JUMPDEST PUSH1 0x20 DUP3 ADD SWAP2 POP PUSH2 0x2C4A DUP3 DUP5 PUSH2 0x2AFF JUMP JUMPDEST PUSH1 0x20 DUP3 ADD SWAP2 POP PUSH2 0x2C59 DUP3 PUSH2 0x2BFD JUMP JUMPDEST SWAP2 POP DUP2 SWAP1 POP SWAP5 SWAP4 POP POP POP POP JUMP JUMPDEST PUSH0 PUSH1 0x60 DUP3 ADD SWAP1 POP PUSH2 0x2C79 PUSH0 DUP4 ADD DUP7 PUSH2 0x229C JUMP JUMPDEST PUSH2 0x2C86 PUSH1 0x20 DUP4 ADD DUP6 PUSH2 0x229C JUMP JUMPDEST PUSH2 0x2C93 PUSH1 0x40 DUP4 ADD DUP5 PUSH2 0x215C JUMP JUMPDEST SWAP5 SWAP4 POP POP POP POP JUMP JUMPDEST PUSH0 PUSH2 0x2CA6 DUP3 DUP10 PUSH2 0x2ADF JUMP JUMPDEST PUSH1 0x20 DUP3 ADD SWAP2 POP PUSH2 0x2CB6 DUP3 DUP9 PUSH2 0x2AFF JUMP JUMPDEST PUSH1 0x20 DUP3 ADD SWAP2 POP PUSH2 0x2CC6 DUP3 DUP8 PUSH2 0x2ABF JUMP JUMPDEST PUSH1 0x14 DUP3 ADD SWAP2 POP PUSH2 0x2CD6 DUP3 DUP7 PUSH2 0x2AFF JUMP JUMPDEST PUSH1 0x20 DUP3 ADD SWAP2 POP PUSH2 0x2CE6 DUP3 DUP6 PUSH2 0x2AFF JUMP JUMPDEST PUSH1 0x20 DUP3 ADD SWAP2 POP PUSH2 0x2CF6 DUP3 DUP5 PUSH2 0x2ADF JUMP JUMPDEST PUSH1 0x20 DUP3 ADD SWAP2 POP DUP2 SWAP1 POP SWAP8 SWAP7 POP POP POP POP POP POP POP JUMP JUMPDEST PUSH32 0x4E6F207265676973747261646F00000000000000000000000000000000000000 PUSH0 DUP3 ADD MSTORE POP JUMP JUMPDEST PUSH0 PUSH2 0x2D3E PUSH1 0xD DUP4 PUSH2 0x1FC7 JUMP JUMPDEST SWAP2 POP PUSH2 0x2D49 DUP3 PUSH2 0x2D0A JUMP JUMPDEST PUSH1 0x20 DUP3 ADD SWAP1 POP SWAP2 SWAP1 POP JUMP JUMPDEST PUSH0 PUSH1 0x20 DUP3 ADD SWAP1 POP DUP2 DUP2 SUB PUSH0 DUP4 ADD MSTORE PUSH2 0x2D6B DUP2 PUSH2 0x2D32 JUMP JUMPDEST SWAP1 POP SWAP2 SWAP1 POP JUMP JUMPDEST PUSH32 0x4861736820696E76616C69646F00000000000000000000000000000000000000 PUSH0 DUP3 ADD MSTORE POP JUMP JUMPDEST PUSH0 PUSH2 0x2DA6 PUSH1 0xD DUP4 PUSH2 0x1FC7 JUMP JUMPDEST SWAP2 POP PUSH2 0x2DB1 DUP3 PUSH2 0x2D72 JUMP JUMPDEST PUSH1 0x20 DUP3 ADD SWAP1 POP SWAP2 SWAP1 POP JUMP JUMPDEST PUSH0 PUSH1 0x20 DUP3 ADD SWAP1 POP DUP2 DUP2 SUB PUSH0 DUP4 ADD MSTORE PUSH2 0x2DD3 DUP2 PUSH2 0x2D9A JUMP JUMPDEST SWAP1 POP SWAP2 SWAP1 POP JUMP JUMPDEST PUSH32 0x44657669636520696E76616C69646F0000000000000000000000000000000000 PUSH0 DUP3 ADD MSTORE POP JUMP JUMPDEST PUSH0 PUSH2 0x2E0E PUSH1 0xF DUP4 PUSH2 0x1FC7 JUMP JUMPDEST SWAP2 POP PUSH2 0x2E19 DUP3 PUSH2 0x2DDA JUMP JUMPDEST PUSH1 0x20 DUP3 ADD SWAP1 POP SWAP2 SWAP1 POP JUMP JUMPDEST PUSH0 PUSH1 0x20 DUP3 ADD SWAP1 POP DUP2 DUP2 SUB PUSH0 DUP4 ADD MSTORE PUSH2 0x2E3B DUP2 PUSH2 0x2E02 JUMP JUMPDEST SWAP1 POP SWAP2 SWAP1 POP JUMP JUMPDEST PUSH32 0x4E6F6E636520796120757361646F000000000000000000000000000000000000 PUSH0 DUP3 ADD MSTORE POP JUMP JUMPDEST PUSH0 PUSH2 0x2E76 PUSH1 0xE DUP4 PUSH2 0x1FC7 JUMP JUMPDEST SWAP2 POP PUSH2 0x2E81 DUP3 PUSH2 0x2E42 JUMP JUMPDEST PUSH1 0x20 DUP3 ADD SWAP1 POP SWAP2 SWAP1 POP JUMP JUMPDEST PUSH0 PUSH1 0x20 DUP3 ADD SWAP1 POP DUP2 DUP2 SUB PUSH0 DUP4 ADD MSTORE PUSH2 0x2EA3 DUP2 PUSH2 0x2E6A JUMP JUMPDEST SWAP1 POP SWAP2 SWAP1 POP JUMP JUMPDEST PUSH32 0x457863656465206C696D69746573000000000000000000000000000000000000 PUSH0 DUP3 ADD MSTORE POP JUMP JUMPDEST PUSH0 PUSH2 0x2EDE PUSH1 0xE DUP4 PUSH2 0x1FC7 JUMP JUMPDEST SWAP2 POP PUSH2 0x2EE9 DUP3 PUSH2 0x2EAA JUMP JUMPDEST PUSH1 0x20 DUP3 ADD SWAP1 POP SWAP2 SWAP1 POP JUMP JUMPDEST PUSH0 PUSH1 0x20 DUP3 ADD SWAP1 POP DUP2 DUP2 SUB PUSH0 DUP4 ADD MSTORE PUSH2 0x2F0B DUP2 PUSH2 0x2ED2 JUMP JUMPDEST SWAP1 POP SWAP2 SWAP1 POP JUMP JUMPDEST PUSH32 0x416C6C6F77616E636520696E737566696369656E746500000000000000000000 PUSH0 DUP3 ADD MSTORE POP JUMP JUMPDEST PUSH0 PUSH2 0x2F46 PUSH1 0x16 DUP4 PUSH2 0x1FC7 JUMP JUMPDEST SWAP2 POP PUSH2 0x2F51 DUP3 PUSH2 0x2F12 JUMP JUMPDEST PUSH1 0x20 DUP3 ADD SWAP1 POP SWAP2 SWAP1 POP JUMP JUMPDEST PUSH0 PUSH1 0x20 DUP3 ADD SWAP1 POP DUP2 DUP2 SUB PUSH0 DUP4 ADD MSTORE PUSH2 0x2F73 DUP2 PUSH2 0x2F3A JUMP JUMPDEST SWAP1 POP SWAP2 SWAP1 POP JUMP JUMPDEST PUSH32 0x42616C616E636520696E737566696369656E7465000000000000000000000000 PUSH0 DUP3 ADD MSTORE POP JUMP JUMPDEST PUSH0 PUSH2 0x2FAE PUSH1 0x14 DUP4 PUSH2 0x1FC7 JUMP JUMPDEST SWAP2 POP PUSH2 0x2FB9 DUP3 PUSH2 0x2F7A JUMP JUMPDEST PUSH1 0x20 DUP3 ADD SWAP1 POP SWAP2 SWAP1 POP JUMP JUMPDEST PUSH0 PUSH1 0x20 DUP3 ADD SWAP1 POP DUP2 DUP2 SUB PUSH0 DUP4 ADD MSTORE PUSH2 0x2FDB DUP2 PUSH2 0x2FA2 JUMP JUMPDEST SWAP1 POP SWAP2 SWAP1 POP JUMP JUMPDEST PUSH0 PUSH2 0x2FED DUP3 DUP10 PUSH2 0x2ABF JUMP JUMPDEST PUSH1 0x14 DUP3 ADD SWAP2 POP PUSH2 0x2FFD DUP3 DUP9 PUSH2 0x2ABF JUMP JUMPDEST PUSH1 0x14 DUP3 ADD SWAP2 POP PUSH2 0x300D DUP3 DUP8 PUSH2 0x2AFF JUMP JUMPDEST PUSH1 0x20 DUP3 ADD SWAP2 POP PUSH2 0x301D DUP3 DUP7 PUSH2 0x2ADF JUMP JUMPDEST PUSH1 0x20 DUP3 ADD SWAP2 POP PUSH2 0x302D DUP3 DUP6 PUSH2 0x2AFF JUMP JUMPDEST PUSH1 0x20 DUP3 ADD SWAP2 POP PUSH2 0x303D DUP3 DUP5 PUSH2 0x2AFF JUMP JUMPDEST PUSH1 0x20 DUP3 ADD SWAP2 POP DUP2 SWAP1 POP SWAP8 SWAP7 POP POP POP POP POP POP POP JUMP JUMPDEST PUSH32 0x5061676F207961206578697374656E7465000000000000000000000000000000 PUSH0 DUP3 ADD MSTORE POP JUMP JUMPDEST PUSH0 PUSH2 0x3085 PUSH1 0x11 DUP4 PUSH2 0x1FC7 JUMP JUMPDEST SWAP2 POP PUSH2 0x3090 DUP3 PUSH2 0x3051 JUMP JUMPDEST PUSH1 0x20 DUP3 ADD SWAP1 POP SWAP2 SWAP1 POP JUMP JUMPDEST PUSH0 PUSH1 0x20 DUP3 ADD SWAP1 POP DUP2 DUP2 SUB PUSH0 DUP4 ADD MSTORE PUSH2 0x30B2 DUP2 PUSH2 0x3079 JUMP JUMPDEST SWAP1 POP SWAP2 SWAP1 POP JUMP JUMPDEST PUSH32 0x70726570617261646F0000000000000000000000000000000000000000000000 PUSH0 DUP3 ADD MSTORE POP JUMP JUMPDEST PUSH0 PUSH2 0x30ED PUSH1 0x9 DUP4 PUSH2 0x2BCB JUMP JUMPDEST SWAP2 POP PUSH2 0x30F8 DUP3 PUSH2 0x30B9 JUMP JUMPDEST PUSH1 0x9 DUP3 ADD SWAP1 POP SWAP2 SWAP1 POP JUMP JUMPDEST PUSH0 PUSH2 0x310E DUP3 DUP7 PUSH2 0x2ADF JUMP JUMPDEST PUSH1 0x20 DUP3 ADD SWAP2 POP PUSH2 0x311D DUP3 PUSH2 0x30E1 JUMP JUMPDEST SWAP2 POP PUSH2 0x3129 DUP3 DUP6 PUSH2 0x2ADF JUMP JUMPDEST PUSH1 0x20 DUP3 ADD SWAP2 POP PUSH2 0x3139 DUP3 DUP5 PUSH2 0x2AFF JUMP JUMPDEST PUSH1 0x20 DUP3 ADD SWAP2 POP DUP2 SWAP1 POP SWAP5 SWAP4 POP POP POP POP JUMP JUMPDEST PUSH0 PUSH1 0x60 DUP3 ADD SWAP1 POP PUSH2 0x315D PUSH0 DUP4 ADD DUP7 PUSH2 0x215C JUMP JUMPDEST PUSH2 0x316A PUSH1 0x20 DUP4 ADD DUP6 PUSH2 0x229C JUMP JUMPDEST PUSH2 0x3177 PUSH1 0x40 DUP4 ADD DUP5 PUSH2 0x215C JUMP JUMPDEST SWAP5 SWAP4 POP POP POP POP JUMP JUMPDEST PUSH32 0x4C6F6E67697475646573206469666572656E7465730000000000000000000000 PUSH0 DUP3 ADD MSTORE POP JUMP JUMPDEST PUSH0 PUSH2 0x31B3 PUSH1 0x15 DUP4 PUSH2 0x1FC7 JUMP JUMPDEST SWAP2 POP PUSH2 0x31BE DUP3 PUSH2 0x317F JUMP JUMPDEST PUSH1 0x20 DUP3 ADD SWAP1 POP SWAP2 SWAP1 POP JUMP JUMPDEST PUSH0 PUSH1 0x20 DUP3 ADD SWAP1 POP DUP2 DUP2 SUB PUSH0 DUP4 ADD MSTORE PUSH2 0x31E0 DUP2 PUSH2 0x31A7 JUMP JUMPDEST SWAP1 POP SWAP2 SWAP1 POP JUMP JUMPDEST PUSH0 DUP2 MLOAD SWAP1 POP SWAP2 SWAP1 POP JUMP JUMPDEST PUSH0 DUP2 SWAP1 POP SWAP3 SWAP2 POP POP JUMP JUMPDEST PUSH0 DUP2 SWAP1 POP PUSH1 0x20 DUP3 ADD SWAP1 POP SWAP2 SWAP1 POP JUMP JUMPDEST PUSH2 0x3213 DUP2 PUSH2 0x207D JUMP JUMPDEST DUP3 MSTORE POP POP JUMP JUMPDEST PUSH0 PUSH2 0x3224 DUP4 DUP4 PUSH2 0x320A JUMP JUMPDEST PUSH1 0x20 DUP4 ADD SWAP1 POP SWAP3 SWAP2 POP POP JUMP JUMPDEST PUSH0 PUSH1 0x20 DUP3 ADD SWAP1 POP SWAP2 SWAP1 POP JUMP JUMPDEST PUSH0 PUSH2 0x3246 DUP3 PUSH2 0x31E7 JUMP JUMPDEST PUSH2 0x3250 DUP2 DUP6 PUSH2 0x31F1 JUMP JUMPDEST SWAP4 POP PUSH2 0x325B DUP4 PUSH2 0x31FB JUMP JUMPDEST DUP1 PUSH0 JUMPDEST DUP4 DUP2 LT ISZERO PUSH2 0x328B JUMPI DUP2 MLOAD PUSH2 0x3272 DUP9 DUP3 PUSH2 0x3219 JUMP JUMPDEST SWAP8 POP PUSH2 0x327D DUP4 PUSH2 0x3230 JUMP JUMPDEST SWAP3 POP POP PUSH1 0x1 DUP2 ADD SWAP1 POP PUSH2 0x325E JUMP JUMPDEST POP DUP6 SWAP4 POP POP POP POP SWAP3 SWAP2 POP POP JUMP JUMPDEST PUSH0 DUP2 SWAP1 POP SWAP3 SWAP2 POP POP JUMP JUMPDEST PUSH0 PUSH0 REVERT JUMPDEST DUP3 DUP2 DUP4 CALLDATACOPY POP POP POP JUMP JUMPDEST PUSH0 PUSH2 0x32BA DUP4 DUP6 PUSH2 0x3298 JUMP JUMPDEST SWAP4 POP PUSH32 0x7FFFFFFFFFFFFFFFFFFFFFFFFFFFFFFFFFFFFFFFFFFFFFFFFFFFFFFFFFFFFFF DUP4 GT ISZERO PUSH2 0x32ED JUMPI PUSH2 0x32EC PUSH2 0x32A2 JUMP JUMPDEST JUMPDEST PUSH1 0x20 DUP4 MUL SWAP3 POP PUSH2 0x32FE DUP4 DUP6 DUP5 PUSH2 0x32A6 JUMP JUMPDEST DUP3 DUP5 ADD SWAP1 POP SWAP4 SWAP3 POP POP POP JUMP JUMPDEST PUSH0 PUSH2 0x3315 DUP3 DUP9 PUSH2 0x323C JUMP JUMPDEST SWAP2 POP PUSH2 0x3322 DUP3 DUP7 DUP9 PUSH2 0x32AF JUMP JUMPDEST SWAP2 POP PUSH2 0x332E DUP3 DUP6 PUSH2 0x2AFF JUMP JUMPDEST PUSH1 0x20 DUP3 ADD SWAP2 POP PUSH2 0x333E DUP3 DUP5 PUSH2 0x2AFF JUMP JUMPDEST PUSH1 0x20 DUP3 ADD SWAP2 POP DUP2 SWAP1 POP SWAP7 SWAP6 POP POP POP POP POP POP JUMP JUMPDEST PUSH32 0x4E487B7100000000000000000000000000000000000000000000000000000000 PUSH0 MSTORE PUSH1 0x32 PUSH1 0x4 MSTORE PUSH1 0x24 PUSH0 REVERT JUMPDEST PUSH32 0x53756D61203E20616C6C6F77616E636500000000000000000000000000000000 PUSH0 DUP3 ADD MSTORE POP JUMP JUMPDEST PUSH0 PUSH2 0x33B2 PUSH1 0x10 DUP4 PUSH2 0x1FC7 JUMP JUMPDEST SWAP2 POP PUSH2 0x33BD DUP3 PUSH2 0x337E JUMP JUMPDEST PUSH1 0x20 DUP3 ADD SWAP1 POP SWAP2 SWAP1 POP JUMP JUMPDEST PUSH0 PUSH1 0x20 DUP3 ADD SWAP1 POP DUP2 DUP2 SUB PUSH0 DUP4 ADD MSTORE PUSH2 0x33DF DUP2 PUSH2 0x33A6 JUMP JUMPDEST SWAP1 POP SWAP2 SWAP1 POP JUMP JUMPDEST PUSH0 DUP3 DUP3 MSTORE PUSH1 0x20 DUP3 ADD SWAP1 POP SWAP3 SWAP2 POP POP JUMP JUMPDEST PUSH2 0x33FF DUP2 PUSH2 0x207D JUMP JUMPDEST DUP3 MSTORE POP POP JUMP JUMPDEST PUSH0 PUSH2 0x3410 DUP4 DUP4 PUSH2 0x33F6 JUMP JUMPDEST PUSH1 0x20 DUP4 ADD SWAP1 POP SWAP3 SWAP2 POP POP JUMP JUMPDEST PUSH0 PUSH2 0x3426 DUP3 PUSH2 0x31E7 JUMP JUMPDEST PUSH2 0x3430 DUP2 DUP6 PUSH2 0x33E6 JUMP JUMPDEST SWAP4 POP PUSH2 0x343B DUP4 PUSH2 0x31FB JUMP JUMPDEST DUP1 PUSH0 JUMPDEST DUP4 DUP2 LT ISZERO PUSH2 0x346B JUMPI DUP2 MLOAD PUSH2 0x3452 DUP9 DUP3 PUSH2 0x3405 JUMP JUMPDEST SWAP8 POP PUSH2 0x345D DUP4 PUSH2 0x3230 JUMP JUMPDEST SWAP3 POP POP PUSH1 0x1 DUP2 ADD SWAP1 POP PUSH2 0x343E JUMP JUMPDEST POP DUP6 SWAP4 POP POP POP POP SWAP3 SWAP2 POP POP JUMP JUMPDEST PUSH0 DUP3 DUP3 MSTORE PUSH1 0x20 DUP3 ADD SWAP1 POP SWAP3 SWAP2 POP POP JUMP JUMPDEST PUSH0 PUSH2 0x3493 DUP4 DUP6 PUSH2 0x3478 JUMP JUMPDEST SWAP4 POP PUSH32 0x7FFFFFFFFFFFFFFFFFFFFFFFFFFFFFFFFFFFFFFFFFFFFFFFFFFFFFFFFFFFFFF DUP4 GT ISZERO PUSH2 0x34C6 JUMPI PUSH2 0x34C5 PUSH2 0x32A2 JUMP JUMPDEST JUMPDEST PUSH1 0x20 DUP4 MUL SWAP3 POP PUSH2 0x34D7 DUP4 DUP6 DUP5 PUSH2 0x32A6 JUMP JUMPDEST DUP3 DUP5 ADD SWAP1 POP SWAP4 SWAP3 POP POP POP JUMP JUMPDEST PUSH0 PUSH1 0x60 DUP3 ADD SWAP1 POP DUP2 DUP2 SUB PUSH0 DUP4 ADD MSTORE PUSH2 0x34FB DUP2 DUP8 PUSH2 0x341C JUMP JUMPDEST SWAP1 POP DUP2 DUP2 SUB PUSH1 0x20 DUP4 ADD MSTORE PUSH2 0x3510 DUP2 DUP6 DUP8 PUSH2 0x3488 JUMP JUMPDEST SWAP1 POP PUSH2 0x351F PUSH1 0x40 DUP4 ADD DUP5 PUSH2 0x215C JUMP JUMPDEST SWAP6 SWAP5 POP POP POP POP POP JUMP JUMPDEST PUSH0 PUSH2 0x3532 DUP3 PUSH2 0x2314 JUMP JUMPDEST SWAP2 POP PUSH2 0x353D DUP4 PUSH2 0x2314 JUMP JUMPDEST SWAP3 POP DUP3 DUP3 ADD SWAP1 POP PUSH1 0xFF DUP2 GT ISZERO PUSH2 0x3556 JUMPI PUSH2 0x3555 PUSH2 0x29C9 JUMP JUMPDEST JUMPDEST SWAP3 SWAP2 POP POP JUMP JUMPDEST PUSH32 0x7620696E76616C69646F00000000000000000000000000000000000000000000 PUSH0 DUP3 ADD MSTORE POP JUMP JUMPDEST PUSH0 PUSH2 0x3590 PUSH1 0xA DUP4 PUSH2 0x1FC7 JUMP JUMPDEST SWAP2 POP PUSH2 0x359B DUP3 PUSH2 0x355C JUMP JUMPDEST PUSH1 0x20 DUP3 ADD SWAP1 POP SWAP2 SWAP1 POP JUMP JUMPDEST PUSH0 PUSH1 0x20 DUP3 ADD SWAP1 POP DUP2 DUP2 SUB PUSH0 DUP4 ADD MSTORE PUSH2 0x35BD DUP2 PUSH2 0x3584 JUMP JUMPDEST SWAP1 POP SWAP2 SWAP1 POP JUMP JUMPDEST PUSH0 PUSH1 0x80 DUP3 ADD SWAP1 POP PUSH2 0x35D7 PUSH0 DUP4 ADD DUP8 PUSH2 0x229C JUMP JUMPDEST PUSH2 0x35E4 PUSH1 0x20 DUP4 ADD DUP7 PUSH2 0x2320 JUMP JUMPDEST PUSH2 0x35F1 PUSH1 0x40 DUP4 ADD DUP6 PUSH2 0x229C JUMP JUMPDEST PUSH2 0x35FE PUSH1 0x60 DUP4 ADD DUP5 PUSH2 0x229C JUMP JUMPDEST SWAP6 SWAP5 POP POP POP POP POP JUMP JUMPDEST PUSH0 PUSH1 0x60 DUP3 ADD SWAP1 POP PUSH2 0x361A PUSH0 DUP4 ADD DUP7 PUSH2 0x26E2 JUMP JUMPDEST PUSH2 0x3627 PUSH1 0x20 DUP4 ADD DUP6 PUSH2 0x215C JUMP JUMPDEST PUSH2 0x3634 PUSH1 0x40 DUP4 ADD DUP5 PUSH2 0x215C JUMP JUMPDEST SWAP5 SWAP4 POP POP POP POP JUMP JUMPDEST PUSH0 PUSH1 0x20 DUP3 ADD SWAP1 POP PUSH2 0x364F PUSH0 DUP4 ADD DUP5 PUSH2 0x26E2 JUMP JUMPDEST SWAP3 SWAP2 POP POP JUMP INVALID LOG2 PUSH5 0x6970667358 0x22 SLT KECCAK256 0xAB MOD DUP10 SWAP7 PREVRANDAO SWAP4 0xDE 0xC OR EXTCODECOPY 0xC6 RETF CALLDATACOPY PUSH25 0xD9C766522FCEDB6843F4F477B7ACA4247A7F64736F6C634300 ADDMOD 0x1E STOP CALLER "
				},
				"gasEstimates": {
					"creation": {
						"codeDepositCost": "2792600",
						"executionCost": "infinite",
						"totalCost": "infinite"
					},
					"external": {
						"TIMEOUT_PAGO()": "369",
						"TIMESTAMP_TOLERANCE()": "435",
						"allowance(address,address)": "infinite",
						"approve(address,uint256)": "infinite",
						"balanceOf(address)": "2917",
						"configurarWhitelist(address[],uint256[],uint256,uint256,bytes)": "infinite",
						"decimals()": "405",
						"deviceIdsUsados(bytes32)": "2896",
						"emisores(address)": "infinite",
						"name()": "infinite",
						"noncesUsados(address,uint256)": "3115",
						"pagosPendientes(bytes32)": "infinite",
						"prepararPago(bytes32,uint256,address,uint256,uint256,bytes32,bytes)": "infinite",
						"registrar(bytes32,uint256,uint256,bytes)": "infinite",
						"symbol()": "infinite",
						"totalSupply()": "2500",
						"transfer(address,uint256)": "infinite",
						"transferFrom(address,address,uint256)": "infinite"
					},
					"internal": {
						"recuperarFirmante(bytes32,bytes memory)": "infinite"
					}
				},
				"methodIdentifiers": {
					"TIMEOUT_PAGO()": "cb942a5f",
					"TIMESTAMP_TOLERANCE()": "f021cffe",
					"allowance(address,address)": "dd62ed3e",
					"approve(address,uint256)": "095ea7b3",
					"balanceOf(address)": "70a08231",
					"configurarWhitelist(address[],uint256[],uint256,uint256,bytes)": "c0d1782f",
					"decimals()": "313ce567",
					"deviceIdsUsados(bytes32)": "93004a38",
					"emisores(address)": "c5dc38a3",
					"name()": "06fdde03",
					"noncesUsados(address,uint256)": "27386fde",
					"pagosPendientes(bytes32)": "e8d7b7fa",
					"prepararPago(bytes32,uint256,address,uint256,uint256,bytes32,bytes)": "a7b2dcc9",
					"registrar(bytes32,uint256,uint256,bytes)": "1dedc70e",
					"symbol()": "95d89b41",
					"totalSupply()": "18160ddd",
					"transfer(address,uint256)": "a9059cbb",
					"transferFrom(address,address,uint256)": "23b872dd"
				}
			},
			"storageLayout": {
				"storage": [
					{
						"astId": 924,
						"contract": "NapTx.sol:OfflinePaymentSystem",
						"label": "_balances",
						"offset": 0,
						"slot": "0",
						"type": "t_mapping(t_address,t_uint256)"
					},
					{
						"astId": 930,
						"contract": "NapTx.sol:OfflinePaymentSystem",
						"label": "_allowances",
						"offset": 0,
						"slot": "1",
						"type": "t_mapping(t_address,t_mapping(t_address,t_uint256))"
					},
					{
						"astId": 932,
						"contract": "NapTx.sol:OfflinePaymentSystem",
						"label": "_totalSupply",
						"offset": 0,
						"slot": "2",
						"type": "t_uint256"
					},
					{
						"astId": 934,
						"contract": "NapTx.sol:OfflinePaymentSystem",
						"label": "_name",
						"offset": 0,
						"slot": "3",
						"type": "t_string_storage"
					},
					{
						"astId": 936,
						"contract": "NapTx.sol:OfflinePaymentSystem",
						"label": "_symbol",
						"offset": 0,
						"slot": "4",
						"type": "t_string_storage"
					},
					{
						"astId": 59,
						"contract": "NapTx.sol:OfflinePaymentSystem",
						"label": "emisores",
						"offset": 0,
						"slot": "5",
						"type": "t_mapping(t_address,t_struct(Emisor)30_storage)"
					},
					{
						"astId": 64,
						"contract": "NapTx.sol:OfflinePaymentSystem",
						"label": "pagosPendientes",
						"offset": 0,
						"slot": "6",
						"type": "t_mapping(t_bytes32,t_struct(PagoPendiente)54_storage)"
					},
					{
						"astId": 70,
						"contract": "NapTx.sol:OfflinePaymentSystem",
						"label": "noncesUsados",
						"offset": 0,
						"slot": "7",
						"type": "t_mapping(t_address,t_mapping(t_uint256,t_bool))"
					},
					{
						"astId": 74,
						"contract": "NapTx.sol:OfflinePaymentSystem",
						"label": "deviceIdsUsados",
						"offset": 0,
						"slot": "8",
						"type": "t_mapping(t_bytes32,t_bool)"
					}
				],
				"types": {
					"t_address": {
						"encoding": "inplace",
						"label": "address",
						"numberOfBytes": "20"
					},
					"t_bool": {
						"encoding": "inplace",
						"label": "bool",
						"numberOfBytes": "1"
					},
					"t_bytes32": {
						"encoding": "inplace",
						"label": "bytes32",
						"numberOfBytes": "32"
					},
					"t_enum(Estado)15": {
						"encoding": "inplace",
						"label": "enum OfflinePaymentSystem.Estado",
						"numberOfBytes": "1"
					},
					"t_mapping(t_address,t_mapping(t_address,t_uint256))": {
						"encoding": "mapping",
						"key": "t_address",
						"label": "mapping(address => mapping(address => uint256))",
						"numberOfBytes": "32",
						"value": "t_mapping(t_address,t_uint256)"
					},
					"t_mapping(t_address,t_mapping(t_uint256,t_bool))": {
						"encoding": "mapping",
						"key": "t_address",
						"label": "mapping(address => mapping(uint256 => bool))",
						"numberOfBytes": "32",
						"value": "t_mapping(t_uint256,t_bool)"
					},
					"t_mapping(t_address,t_struct(Emisor)30_storage)": {
						"encoding": "mapping",
						"key": "t_address",
						"label": "mapping(address => struct OfflinePaymentSystem.Emisor)",
						"numberOfBytes": "32",
						"value": "t_struct(Emisor)30_storage"
					},
					"t_mapping(t_address,t_uint256)": {
						"encoding": "mapping",
						"key": "t_address",
						"label": "mapping(address => uint256)",
						"numberOfBytes": "32",
						"value": "t_uint256"
					},
					"t_mapping(t_bytes32,t_bool)": {
						"encoding": "mapping",
						"key": "t_bytes32",
						"label": "mapping(bytes32 => bool)",
						"numberOfBytes": "32",
						"value": "t_bool"
					},
					"t_mapping(t_bytes32,t_struct(PagoPendiente)54_storage)": {
						"encoding": "mapping",
						"key": "t_bytes32",
						"label": "mapping(bytes32 => struct OfflinePaymentSystem.PagoPendiente)",
						"numberOfBytes": "32",
						"value": "t_struct(PagoPendiente)54_storage"
					},
					"t_mapping(t_uint256,t_bool)": {
						"encoding": "mapping",
						"key": "t_uint256",
						"label": "mapping(uint256 => bool)",
						"numberOfBytes": "32",
						"value": "t_bool"
					},
					"t_string_storage": {
						"encoding": "bytes",
						"label": "string",
						"numberOfBytes": "32"
					},
					"t_struct(Emisor)30_storage": {
						"encoding": "inplace",
						"label": "struct OfflinePaymentSystem.Emisor",
						"members": [
							{
								"astId": 17,
								"contract": "NapTx.sol:OfflinePaymentSystem",
								"label": "walletAddress",
								"offset": 0,
								"slot": "0",
								"type": "t_address"
							},
							{
								"astId": 19,
								"contract": "NapTx.sol:OfflinePaymentSystem",
								"label": "hashActual",
								"offset": 0,
								"slot": "1",
								"type": "t_bytes32"
							},
							{
								"astId": 23,
								"contract": "NapTx.sol:OfflinePaymentSystem",
								"label": "whitelist",
								"offset": 0,
								"slot": "2",
								"type": "t_mapping(t_address,t_uint256)"
							},
							{
								"astId": 25,
								"contract": "NapTx.sol:OfflinePaymentSystem",
								"label": "timestampUltimoPago",
								"offset": 0,
								"slot": "3",
								"type": "t_uint256"
							},
							{
								"astId": 27,
								"contract": "NapTx.sol:OfflinePaymentSystem",
								"label": "registrado",
								"offset": 0,
								"slot": "4",
								"type": "t_bool"
							},
							{
								"astId": 29,
								"contract": "NapTx.sol:OfflinePaymentSystem",
								"label": "deviceId",
								"offset": 0,
								"slot": "5",
								"type": "t_bytes32"
							}
						],
						"numberOfBytes": "192"
					},
					"t_struct(PagoPendiente)54_storage": {
						"encoding": "inplace",
						"label": "struct OfflinePaymentSystem.PagoPendiente",
						"members": [
							{
								"astId": 32,
								"contract": "NapTx.sol:OfflinePaymentSystem",
								"label": "pagoId",
								"offset": 0,
								"slot": "0",
								"type": "t_bytes32"
							},
							{
								"astId": 34,
								"contract": "NapTx.sol:OfflinePaymentSystem",
								"label": "emisor",
								"offset": 0,
								"slot": "1",
								"type": "t_address"
							},
							{
								"astId": 36,
								"contract": "NapTx.sol:OfflinePaymentSystem",
								"label": "receptor",
								"offset": 0,
								"slot": "2",
								"type": "t_address"
							},
							{
								"astId": 38,
								"contract": "NapTx.sol:OfflinePaymentSystem",
								"label": "amount",
								"offset": 0,
								"slot": "3",
								"type": "t_uint256"
							},
							{
								"astId": 40,
								"contract": "NapTx.sol:OfflinePaymentSystem",
								"label": "hashUsado",
								"offset": 0,
								"slot": "4",
								"type": "t_bytes32"
							},
							{
								"astId": 42,
								"contract": "NapTx.sol:OfflinePaymentSystem",
								"label": "hashPreparado",
								"offset": 0,
								"slot": "5",
								"type": "t_bytes32"
							},
							{
								"astId": 44,
								"contract": "NapTx.sol:OfflinePaymentSystem",
								"label": "hashFinal",
								"offset": 0,
								"slot": "6",
								"type": "t_bytes32"
							},
							{
								"astId": 46,
								"contract": "NapTx.sol:OfflinePaymentSystem",
								"label": "timestampPreparacion",
								"offset": 0,
								"slot": "7",
								"type": "t_uint256"
							},
							{
								"astId": 48,
								"contract": "NapTx.sol:OfflinePaymentSystem",
								"label": "timestampConfirmacion",
								"offset": 0,
								"slot": "8",
								"type": "t_uint256"
							},
							{
								"astId": 51,
								"contract": "NapTx.sol:OfflinePaymentSystem",
								"label": "estado",
								"offset": 0,
								"slot": "9",
								"type": "t_enum(Estado)15"
							},
							{
								"astId": 53,
								"contract": "NapTx.sol:OfflinePaymentSystem",
								"label": "txId",
								"offset": 0,
								"slot": "10",
								"type": "t_bytes32"
							}
						],
						"numberOfBytes": "352"
					},
					"t_uint256": {
						"encoding": "inplace",
						"label": "uint256",
						"numberOfBytes": "32"
					}
				}
			},
			"userdoc": {
				"kind": "user",
				"methods": {},
				"version": 1
			}
		}
	}
}