{
	"NapTx.sol": {
		"OfflinePaymentSystem": {
			"abi": [
				{
					"inputs": [],
					"stateMutability": "nonpayable",
					"type": "constructor"
				},
				{
					"inputs": [
						{
							"internalType": "address",
							"name": "spender",
							"type": "address"
						},
						{
							"internalType": "uint256",
							"name": "allowance",
							"type": "uint256"
						},
						{
							"internalType": "uint256",
							"name": "needed",
							"type": "uint256"
						}
					],
					"name": "ERC20InsufficientAllowance",
					"type": "error"
				},
				{
					"inputs": [
						{
							"internalType": "address",
							"name": "sender",
							"type": "address"
						},
						{
							"internalType": "uint256",
							"name": "balance",
							"type": "uint256"
						},
						{
							"internalType": "uint256",
							"name": "needed",
							"type": "uint256"
						}
					],
					"name": "ERC20InsufficientBalance",
					"type": "error"
				},
				{
					"inputs": [
						{
							"internalType": "address",
							"name": "approver",
							"type": "address"
						}
					],
					"name": "ERC20InvalidApprover",
					"type": "error"
				},
				{
					"inputs": [
						{
							"internalType": "address",
							"name": "receiver",
							"type": "address"
						}
					],
					"name": "ERC20InvalidReceiver",
					"type": "error"
				},
				{
					"inputs": [
						{
							"internalType": "address",
							"name": "sender",
							"type": "address"
						}
					],
					"name": "ERC20InvalidSender",
					"type": "error"
				},
				{
					"inputs": [
						{
							"internalType": "address",
							"name": "spender",
							"type": "address"
						}
					],
					"name": "ERC20InvalidSpender",
					"type": "error"
				},
				{
					"anonymous": false,
					"inputs": [
						{
							"indexed": true,
							"internalType": "address",
							"name": "owner",
							"type": "address"
						},
						{
							"indexed": true,
							"internalType": "address",
							"name": "spender",
							"type": "address"
						},
						{
							"indexed": false,
							"internalType": "uint256",
							"name": "value",
							"type": "uint256"
						}
					],
					"name": "Approval",
					"type": "event"
				},
				{
					"anonymous": false,
					"inputs": [
						{
							"indexed": true,
							"internalType": "address",
							"name": "emisor",
							"type": "address"
						},
						{
							"indexed": false,
							"internalType": "bytes32",
							"name": "deviceId",
							"type": "bytes32"
						},
						{
							"indexed": false,
							"internalType": "bytes32",
							"name": "hashInicial",
							"type": "bytes32"
						},
						{
							"indexed": false,
							"internalType": "uint256",
							"name": "timestamp",
							"type": "uint256"
						}
					],
					"name": "EmisorRegistrado",
					"type": "event"
				},
				{
					"anonymous": false,
					"inputs": [
						{
							"indexed": true,
							"internalType": "bytes32",
							"name": "pagoId",
							"type": "bytes32"
						},
						{
							"indexed": true,
							"internalType": "address",
							"name": "emisor",
							"type": "address"
						},
						{
							"indexed": true,
							"internalType": "address",
							"name": "receptor",
							"type": "address"
						},
						{
							"indexed": false,
							"internalType": "uint256",
							"name": "amount",
							"type": "uint256"
						},
						{
							"indexed": false,
							"internalType": "bytes32",
							"name": "hashFinal",
							"type": "bytes32"
						},
						{
							"indexed": false,
							"internalType": "uint256",
							"name": "timestamp",
							"type": "uint256"
						}
					],
					"name": "PagoConfirmado",
					"type": "event"
				},
				{
					"anonymous": false,
					"inputs": [
						{
							"indexed": true,
							"internalType": "bytes32",
							"name": "pagoId",
							"type": "bytes32"
						},
						{
							"indexed": true,
							"internalType": "address",
							"name": "emisor",
							"type": "address"
						},
						{
							"indexed": true,
							"internalType": "address",
							"name": "receptor",
							"type": "address"
						},
						{
							"indexed": false,
							"internalType": "uint256",
							"name": "amount",
							"type": "uint256"
						},
						{
							"indexed": false,
							"internalType": "bytes32",
							"name": "hashPreparado",
							"type": "bytes32"
						},
						{
							"indexed": false,
							"internalType": "uint256",
							"name": "timestamp",
							"type": "uint256"
						}
					],
					"name": "PagoPreparado",
					"type": "event"
				},
				{
					"anonymous": false,
					"inputs": [
						{
							"indexed": true,
							"internalType": "bytes32",
							"name": "pagoId",
							"type": "bytes32"
						},
						{
							"indexed": true,
							"internalType": "address",
							"name": "emisor",
							"type": "address"
						},
						{
							"indexed": true,
							"internalType": "address",
							"name": "receptor",
							"type": "address"
						},
						{
							"indexed": false,
							"internalType": "uint256",
							"name": "amount",
							"type": "uint256"
						},
						{
							"indexed": false,
							"internalType": "uint256",
							"name": "timestamp",
							"type": "uint256"
						}
					],
					"name": "PagoRevertido",
					"type": "event"
				},
				{
					"anonymous": false,
					"inputs": [
						{
							"indexed": true,
							"internalType": "address",
							"name": "from",
							"type": "address"
						},
						{
							"indexed": true,
							"internalType": "address",
							"name": "to",
							"type": "address"
						},
						{
							"indexed": false,
							"internalType": "uint256",
							"name": "value",
							"type": "uint256"
						}
					],
					"name": "Transfer",
					"type": "event"
				},
				{
					"anonymous": false,
					"inputs": [
						{
							"indexed": true,
							"internalType": "address",
							"name": "emisor",
							"type": "address"
						},
						{
							"indexed": false,
							"internalType": "address[]",
							"name": "receptores",
							"type": "address[]"
						},
						{
							"indexed": false,
							"internalType": "uint256[]",
							"name": "limites",
							"type": "uint256[]"
						},
						{
							"indexed": false,
							"internalType": "uint256",
							"name": "timestamp",
							"type": "uint256"
						}
					],
					"name": "WhitelistConfigurada",
					"type": "event"
				},
				{
					"inputs": [],
					"name": "TIMEOUT_PAGO",
					"outputs": [
						{
							"internalType": "uint256",
							"name": "",
							"type": "uint256"
						}
					],
					"stateMutability": "view",
					"type": "function"
				},
				{
					"inputs": [],
					"name": "TIMESTAMP_TOLERANCE",
					"outputs": [
						{
							"internalType": "uint256",
							"name": "",
							"type": "uint256"
						}
					],
					"stateMutability": "view",
					"type": "function"
				},
				{
					"inputs": [
						{
							"internalType": "address",
							"name": "owner",
							"type": "address"
						},
						{
							"internalType": "address",
							"name": "spender",
							"type": "address"
						}
					],
					"name": "allowance",
					"outputs": [
						{
							"internalType": "uint256",
							"name": "",
							"type": "uint256"
						}
					],
					"stateMutability": "view",
					"type": "function"
				},
				{
					"inputs": [
						{
							"internalType": "address",
							"name": "spender",
							"type": "address"
						},
						{
							"internalType": "uint256",
							"name": "value",
							"type": "uint256"
						}
					],
					"name": "approve",
					"outputs": [
						{
							"internalType": "bool",
							"name": "",
							"type": "bool"
						}
					],
					"stateMutability": "nonpayable",
					"type": "function"
				},
				{
					"inputs": [
						{
							"internalType": "address",
							"name": "account",
							"type": "address"
						}
					],
					"name": "balanceOf",
					"outputs": [
						{
							"internalType": "uint256",
							"name": "",
							"type": "uint256"
						}
					],
					"stateMutability": "view",
					"type": "function"
				},
				{
					"inputs": [
						{
							"internalType": "address[]",
							"name": "receptores",
							"type": "address[]"
						},
						{
							"internalType": "uint256[]",
							"name": "limites",
							"type": "uint256[]"
						},
						{
							"internalType": "uint256",
							"name": "timestamp",
							"type": "uint256"
						},
						{
							"internalType": "uint256",
							"name": "nonce",
							"type": "uint256"
						},
						{
							"internalType": "bytes",
							"name": "firma",
							"type": "bytes"
						}
					],
					"name": "configurarWhitelist",
					"outputs": [],
					"stateMutability": "nonpayable",
					"type": "function"
				},
				{
					"inputs": [],
					"name": "decimals",
					"outputs": [
						{
							"internalType": "uint8",
							"name": "",
							"type": "uint8"
						}
					],
					"stateMutability": "view",
					"type": "function"
				},
				{
					"inputs": [
						{
							"internalType": "bytes32",
							"name": "",
							"type": "bytes32"
						}
					],
					"name": "deviceIdsUsados",
					"outputs": [
						{
							"internalType": "bool",
							"name": "",
							"type": "bool"
						}
					],
					"stateMutability": "view",
					"type": "function"
				},
				{
					"inputs": [
						{
							"internalType": "address",
							"name": "",
							"type": "address"
						}
					],
					"name": "emisores",
					"outputs": [
						{
							"internalType": "address",
							"name": "walletAddress",
							"type": "address"
						},
						{
							"internalType": "bytes32",
							"name": "hashActual",
							"type": "bytes32"
						},
						{
							"internalType": "uint256",
							"name": "timestampUltimoPago",
							"type": "uint256"
						},
						{
							"internalType": "bool",
							"name": "registrado",
							"type": "bool"
						},
						{
							"internalType": "bytes32",
							"name": "deviceId",
							"type": "bytes32"
						}
					],
					"stateMutability": "view",
					"type": "function"
				},
				{
					"inputs": [],
					"name": "name",
					"outputs": [
						{
							"internalType": "string",
							"name": "",
							"type": "string"
						}
					],
					"stateMutability": "view",
					"type": "function"
				},
				{
					"inputs": [
						{
							"internalType": "address",
							"name": "",
							"type": "address"
						},
						{
							"internalType": "uint256",
							"name": "",
							"type": "uint256"
						}
					],
					"name": "noncesUsados",
					"outputs": [
						{
							"internalType": "bool",
							"name": "",
							"type": "bool"
						}
					],
					"stateMutability": "view",
					"type": "function"
				},
				{
					"inputs": [
						{
							"internalType": "bytes32",
							"name": "",
							"type": "bytes32"
						}
					],
					"name": "pagosPendientes",
					"outputs": [
						{
							"internalType": "bytes32",
							"name": "idPago",
							"type": "bytes32"
						},
						{
							"internalType": "address",
							"name": "emisor",
							"type": "address"
						},
						{
							"internalType": "address",
							"name": "receptor",
							"type": "address"
						},
						{
							"internalType": "uint256",
							"name": "amount",
							"type": "uint256"
						},
						{
							"internalType": "bytes32",
							"name": "hashUsado",
							"type": "bytes32"
						},
						{
							"internalType": "bytes32",
							"name": "hashPreparado",
							"type": "bytes32"
						},
						{
							"internalType": "bytes32",
							"name": "hashFinal",
							"type": "bytes32"
						},
						{
							"internalType": "uint256",
							"name": "timestampPreparacion",
							"type": "uint256"
						},
						{
							"internalType": "uint256",
							"name": "timestampConfirmacion",
							"type": "uint256"
						},
						{
							"internalType": "enum OfflinePaymentSystem.Estado",
							"name": "estado",
							"type": "uint8"
						},
						{
							"internalType": "bytes32",
							"name": "transaccionId",
							"type": "bytes32"
						}
					],
					"stateMutability": "view",
					"type": "function"
				},
				{
					"inputs": [
						{
							"internalType": "bytes32",
							"name": "deviceId",
							"type": "bytes32"
						},
						{
							"internalType": "uint256",
							"name": "timestamp",
							"type": "uint256"
						},
						{
							"internalType": "uint256",
							"name": "nonce",
							"type": "uint256"
						},
						{
							"internalType": "bytes",
							"name": "firma",
							"type": "bytes"
						}
					],
					"name": "registrar",
					"outputs": [
						{
							"internalType": "bytes32",
							"name": "hashInicial",
							"type": "bytes32"
						}
					],
					"stateMutability": "nonpayable",
					"type": "function"
				},
				{
					"inputs": [],
					"name": "symbol",
					"outputs": [
						{
							"internalType": "string",
							"name": "",
							"type": "string"
						}
					],
					"stateMutability": "view",
					"type": "function"
				},
				{
					"inputs": [],
					"name": "totalSupply",
					"outputs": [
						{
							"internalType": "uint256",
							"name": "",
							"type": "uint256"
						}
					],
					"stateMutability": "view",
					"type": "function"
				},
				{
					"inputs": [
						{
							"internalType": "address",
							"name": "to",
							"type": "address"
						},
						{
							"internalType": "uint256",
							"name": "value",
							"type": "uint256"
						}
					],
					"name": "transfer",
					"outputs": [
						{
							"internalType": "bool",
							"name": "",
							"type": "bool"
						}
					],
					"stateMutability": "nonpayable",
					"type": "function"
				},
				{
					"inputs": [
						{
							"internalType": "address",
							"name": "from",
							"type": "address"
						},
						{
							"internalType": "address",
							"name": "to",
							"type": "address"
						},
						{
							"internalType": "uint256",
							"name": "value",
							"type": "uint256"
						}
					],
					"name": "transferFrom",
					"outputs": [
						{
							"internalType": "bool",
							"name": "",
							"type": "bool"
						}
					],
					"stateMutability": "nonpayable",
					"type": "function"
				}
			],
			"devdoc": {
				"errors": {
					"ERC20InsufficientAllowance(address,uint256,uint256)": [
						{
							"details": "Indicates a failure with the `spender`’s `allowance`. Used in transfers.",
							"params": {
								"allowance": "Amount of tokens a `spender` is allowed to operate with.",
								"needed": "Minimum amount required to perform a transfer.",
								"spender": "Address that may be allowed to operate on tokens without being their owner."
							}
						}
					],
					"ERC20InsufficientBalance(address,uint256,uint256)": [
						{
							"details": "Indicates an error related to the current `balance` of a `sender`. Used in transfers.",
							"params": {
								"balance": "Current balance for the interacting account.",
								"needed": "Minimum amount required to perform a transfer.",
								"sender": "Address whose tokens are being transferred."
							}
						}
					],
					"ERC20InvalidApprover(address)": [
						{
							"details": "Indicates a failure with the `approver` of a token to be approved. Used in approvals.",
							"params": {
								"approver": "Address initiating an approval operation."
							}
						}
					],
					"ERC20InvalidReceiver(address)": [
						{
							"details": "Indicates a failure with the token `receiver`. Used in transfers.",
							"params": {
								"receiver": "Address to which tokens are being transferred."
							}
						}
					],
					"ERC20InvalidSender(address)": [
						{
							"details": "Indicates a failure with the token `sender`. Used in transfers.",
							"params": {
								"sender": "Address whose tokens are being transferred."
							}
						}
					],
					"ERC20InvalidSpender(address)": [
						{
							"details": "Indicates a failure with the `spender` to be approved. Used in approvals.",
							"params": {
								"spender": "Address that may be allowed to operate on tokens without being their owner."
							}
						}
					]
				},
				"events": {
					"Approval(address,address,uint256)": {
						"details": "Emitted when the allowance of a `spender` for an `owner` is set by a call to {approve}. `value` is the new allowance."
					},
					"Transfer(address,address,uint256)": {
						"details": "Emitted when `value` tokens are moved from one account (`from`) to another (`to`). Note that `value` may be zero."
					}
				},
				"kind": "dev",
				"methods": {
					"allowance(address,address)": {
						"details": "Returns the remaining number of tokens that `spender` will be allowed to spend on behalf of `owner` through {transferFrom}. This is zero by default. This value changes when {approve} or {transferFrom} are called."
					},
					"approve(address,uint256)": {
						"details": "See {IERC20-approve}. NOTE: If `value` is the maximum `uint256`, the allowance is not updated on `transferFrom`. This is semantically equivalent to an infinite approval. Requirements: - `spender` cannot be the zero address."
					},
					"balanceOf(address)": {
						"details": "Returns the value of tokens owned by `account`."
					},
					"decimals()": {
						"details": "Returns the number of decimals used to get its user representation. For example, if `decimals` equals `2`, a balance of `505` tokens should be displayed to a user as `5.05` (`505 / 10 ** 2`). Tokens usually opt for a value of 18, imitating the relationship between Ether and Wei. This is the default value returned by this function, unless it's overridden. NOTE: This information is only used for _display_ purposes: it in no way affects any of the arithmetic of the contract, including {IERC20-balanceOf} and {IERC20-transfer}."
					},
					"name()": {
						"details": "Returns the name of the token."
					},
					"symbol()": {
						"details": "Returns the symbol of the token, usually a shorter version of the name."
					},
					"totalSupply()": {
						"details": "Returns the value of tokens in existence."
					},
					"transfer(address,uint256)": {
						"details": "See {IERC20-transfer}. Requirements: - `to` cannot be the zero address. - the caller must have a balance of at least `value`."
					},
					"transferFrom(address,address,uint256)": {
						"details": "See {IERC20-transferFrom}. Skips emitting an {Approval} event indicating an allowance update. This is not required by the ERC. See {xref-ERC20-_approve-address-address-uint256-bool-}[_approve]. NOTE: Does not update the allowance if the current allowance is the maximum `uint256`. Requirements: - `from` and `to` cannot be the zero address. - `from` must have a balance of at least `value`. - the caller must have allowance for ``from``'s tokens of at least `value`."
					}
				},
				"version": 1
			},
			"evm": {
				"assembly": "    /* \"NapTx.sol\":170:6020  contract OfflinePaymentSystem is ERC20 {... */\n  mstore(0x40, 0x80)\n    /* \"NapTx.sol\":1204:1296  constructor () ERC20(\"NapTx Token\", \"NPTX\"){... */\n  callvalue\n  dup1\n  iszero\n  tag_1\n  jumpi\n  revert(0x00, 0x00)\ntag_1:\n  pop\n    /* \"https://github.com/OpenZeppelin/openzeppelin-contracts/blob/master/contracts/token/ERC20/ERC20.sol\":1582:1695  constructor(string memory name_, string memory symbol_) {... */\n  mload(0x40)\n  dup1\n  0x40\n  add\n  0x40\n  mstore\n  dup1\n  0x0b\n  dup2\n  mstore\n  0x20\n  add\n  0x4e6170547820546f6b656e000000000000000000000000000000000000000000\n  dup2\n  mstore\n  pop\n  mload(0x40)\n  dup1\n  0x40\n  add\n  0x40\n  mstore\n  dup1\n  0x04\n  dup2\n  mstore\n  0x20\n  add\n  0x4e50545800000000000000000000000000000000000000000000000000000000\n  dup2\n  mstore\n  pop\n    /* \"https://github.com/OpenZeppelin/openzeppelin-contracts/blob/master/contracts/token/ERC20/ERC20.sol\":1656:1661  name_ */\n  dup2\n    /* \"https://github.com/OpenZeppelin/openzeppelin-contracts/blob/master/contracts/token/ERC20/ERC20.sol\":1648:1653  _name */\n  0x03\n    /* \"https://github.com/OpenZeppelin/openzeppelin-contracts/blob/master/contracts/token/ERC20/ERC20.sol\":1648:1661  _name = name_ */\n  swap1\n  dup2\n  tag_5\n  swap2\n  swap1\n  tag_6\n  jump\t// in\ntag_5:\n  pop\n    /* \"https://github.com/OpenZeppelin/openzeppelin-contracts/blob/master/contracts/token/ERC20/ERC20.sol\":1681:1688  symbol_ */\n  dup1\n    /* \"https://github.com/OpenZeppelin/openzeppelin-contracts/blob/master/contracts/token/ERC20/ERC20.sol\":1671:1678  _symbol */\n  0x04\n    /* \"https://github.com/OpenZeppelin/openzeppelin-contracts/blob/master/contracts/token/ERC20/ERC20.sol\":1671:1688  _symbol = symbol_ */\n  swap1\n  dup2\n  tag_7\n  swap2\n  swap1\n  tag_6\n  jump\t// in\ntag_7:\n  pop\n    /* \"https://github.com/OpenZeppelin/openzeppelin-contracts/blob/master/contracts/token/ERC20/ERC20.sol\":1582:1695  constructor(string memory name_, string memory symbol_) {... */\n  pop\n  pop\n    /* \"NapTx.sol\":1257:1289  _mint(msg.sender, 1000 * 10**10) */\n  tag_9\n    /* \"NapTx.sol\":1263:1273  msg.sender */\n  caller\n    /* \"NapTx.sol\":1275:1288  1000 * 10**10 */\n  0x09184e72a000\n    /* \"NapTx.sol\":1257:1262  _mint */\n  shl(0x20, tag_10)\n    /* \"NapTx.sol\":1257:1289  _mint(msg.sender, 1000 * 10**10) */\n  0x20\n  shr\n  jump\t// in\ntag_9:\n    /* \"NapTx.sol\":170:6020  contract OfflinePaymentSystem is ERC20 {... */\n  jump(tag_11)\n    /* \"https://github.com/OpenZeppelin/openzeppelin-contracts/blob/master/contracts/token/ERC20/ERC20.sol\":7362:7570  function _mint(address account, uint256 value) internal {... */\ntag_10:\n    /* \"https://github.com/OpenZeppelin/openzeppelin-contracts/blob/master/contracts/token/ERC20/ERC20.sol\":7451:7452  0 */\n  0x00\n    /* \"https://github.com/OpenZeppelin/openzeppelin-contracts/blob/master/contracts/token/ERC20/ERC20.sol\":7432:7453  account == address(0) */\n  0xffffffffffffffffffffffffffffffffffffffff\n  and\n    /* \"https://github.com/OpenZeppelin/openzeppelin-contracts/blob/master/contracts/token/ERC20/ERC20.sol\":7432:7439  account */\n  dup3\n    /* \"https://github.com/OpenZeppelin/openzeppelin-contracts/blob/master/contracts/token/ERC20/ERC20.sol\":7432:7453  account == address(0) */\n  0xffffffffffffffffffffffffffffffffffffffff\n  and\n  sub\n    /* \"https://github.com/OpenZeppelin/openzeppelin-contracts/blob/master/contracts/token/ERC20/ERC20.sol\":7428:7519  if (account == address(0)) {... */\n  tag_13\n  jumpi\n    /* \"https://github.com/OpenZeppelin/openzeppelin-contracts/blob/master/contracts/token/ERC20/ERC20.sol\":7505:7506  0 */\n  0x00\n    /* \"https://github.com/OpenZeppelin/openzeppelin-contracts/blob/master/contracts/token/ERC20/ERC20.sol\":7476:7508  ERC20InvalidReceiver(address(0)) */\n  mload(0x40)\n  0xec442f0500000000000000000000000000000000000000000000000000000000\n  dup2\n  mstore\n  0x04\n  add\n  tag_14\n  swap2\n  swap1\n  tag_15\n  jump\t// in\ntag_14:\n  mload(0x40)\n  dup1\n  swap2\n  sub\n  swap1\n  revert\n    /* \"https://github.com/OpenZeppelin/openzeppelin-contracts/blob/master/contracts/token/ERC20/ERC20.sol\":7428:7519  if (account == address(0)) {... */\ntag_13:\n    /* \"https://github.com/OpenZeppelin/openzeppelin-contracts/blob/master/contracts/token/ERC20/ERC20.sol\":7528:7563  _update(address(0), account, value) */\n  tag_16\n    /* \"https://github.com/OpenZeppelin/openzeppelin-contracts/blob/master/contracts/token/ERC20/ERC20.sol\":7544:7545  0 */\n  0x00\n    /* \"https://github.com/OpenZeppelin/openzeppelin-contracts/blob/master/contracts/token/ERC20/ERC20.sol\":7548:7555  account */\n  dup4\n    /* \"https://github.com/OpenZeppelin/openzeppelin-contracts/blob/master/contracts/token/ERC20/ERC20.sol\":7557:7562  value */\n  dup4\n    /* \"https://github.com/OpenZeppelin/openzeppelin-contracts/blob/master/contracts/token/ERC20/ERC20.sol\":7528:7535  _update */\n  shl(0x20, tag_17)\n    /* \"https://github.com/OpenZeppelin/openzeppelin-contracts/blob/master/contracts/token/ERC20/ERC20.sol\":7528:7563  _update(address(0), account, value) */\n  0x20\n  shr\n  jump\t// in\ntag_16:\n    /* \"https://github.com/OpenZeppelin/openzeppelin-contracts/blob/master/contracts/token/ERC20/ERC20.sol\":7362:7570  function _mint(address account, uint256 value) internal {... */\n  pop\n  pop\n  jump\t// out\n    /* \"https://github.com/OpenZeppelin/openzeppelin-contracts/blob/master/contracts/token/ERC20/ERC20.sol\":5912:7019  function _update(address from, address to, uint256 value) internal virtual {... */\ntag_17:\n    /* \"https://github.com/OpenZeppelin/openzeppelin-contracts/blob/master/contracts/token/ERC20/ERC20.sol\":6017:6018  0 */\n  0x00\n    /* \"https://github.com/OpenZeppelin/openzeppelin-contracts/blob/master/contracts/token/ERC20/ERC20.sol\":6001:6019  from == address(0) */\n  0xffffffffffffffffffffffffffffffffffffffff\n  and\n    /* \"https://github.com/OpenZeppelin/openzeppelin-contracts/blob/master/contracts/token/ERC20/ERC20.sol\":6001:6005  from */\n  dup4\n    /* \"https://github.com/OpenZeppelin/openzeppelin-contracts/blob/master/contracts/token/ERC20/ERC20.sol\":6001:6019  from == address(0) */\n  0xffffffffffffffffffffffffffffffffffffffff\n  and\n  sub\n    /* \"https://github.com/OpenZeppelin/openzeppelin-contracts/blob/master/contracts/token/ERC20/ERC20.sol\":5997:6537  if (from == address(0)) {... */\n  tag_19\n  jumpi\n    /* \"https://github.com/OpenZeppelin/openzeppelin-contracts/blob/master/contracts/token/ERC20/ERC20.sol\":6153:6158  value */\n  dup1\n    /* \"https://github.com/OpenZeppelin/openzeppelin-contracts/blob/master/contracts/token/ERC20/ERC20.sol\":6137:6149  _totalSupply */\n  0x02\n  0x00\n    /* \"https://github.com/OpenZeppelin/openzeppelin-contracts/blob/master/contracts/token/ERC20/ERC20.sol\":6137:6158  _totalSupply += value */\n  dup3\n  dup3\n  sload\n  tag_20\n  swap2\n  swap1\n  tag_21\n  jump\t// in\ntag_20:\n  swap3\n  pop\n  pop\n  dup2\n  swap1\n  sstore\n  pop\n    /* \"https://github.com/OpenZeppelin/openzeppelin-contracts/blob/master/contracts/token/ERC20/ERC20.sol\":5997:6537  if (from == address(0)) {... */\n  jump(tag_22)\ntag_19:\n    /* \"https://github.com/OpenZeppelin/openzeppelin-contracts/blob/master/contracts/token/ERC20/ERC20.sol\":6189:6208  uint256 fromBalance */\n  0x00\n    /* \"https://github.com/OpenZeppelin/openzeppelin-contracts/blob/master/contracts/token/ERC20/ERC20.sol\":6211:6220  _balances */\n  0x00\n    /* \"https://github.com/OpenZeppelin/openzeppelin-contracts/blob/master/contracts/token/ERC20/ERC20.sol\":6211:6226  _balances[from] */\n  0x00\n    /* \"https://github.com/OpenZeppelin/openzeppelin-contracts/blob/master/contracts/token/ERC20/ERC20.sol\":6221:6225  from */\n  dup6\n    /* \"https://github.com/OpenZeppelin/openzeppelin-contracts/blob/master/contracts/token/ERC20/ERC20.sol\":6211:6226  _balances[from] */\n  0xffffffffffffffffffffffffffffffffffffffff\n  and\n  0xffffffffffffffffffffffffffffffffffffffff\n  and\n  dup2\n  mstore\n  0x20\n  add\n  swap1\n  dup2\n  mstore\n  0x20\n  add\n  0x00\n  keccak256\n  sload\n    /* \"https://github.com/OpenZeppelin/openzeppelin-contracts/blob/master/contracts/token/ERC20/ERC20.sol\":6189:6226  uint256 fromBalance = _balances[from] */\n  swap1\n  pop\n    /* \"https://github.com/OpenZeppelin/openzeppelin-contracts/blob/master/contracts/token/ERC20/ERC20.sol\":6258:6263  value */\n  dup2\n    /* \"https://github.com/OpenZeppelin/openzeppelin-contracts/blob/master/contracts/token/ERC20/ERC20.sol\":6244:6255  fromBalance */\n  dup2\n    /* \"https://github.com/OpenZeppelin/openzeppelin-contracts/blob/master/contracts/token/ERC20/ERC20.sol\":6244:6263  fromBalance < value */\n  lt\n    /* \"https://github.com/OpenZeppelin/openzeppelin-contracts/blob/master/contracts/token/ERC20/ERC20.sol\":6240:6355  if (fromBalance < value) {... */\n  iszero\n  tag_23\n  jumpi\n    /* \"https://github.com/OpenZeppelin/openzeppelin-contracts/blob/master/contracts/token/ERC20/ERC20.sol\":6315:6319  from */\n  dup4\n    /* \"https://github.com/OpenZeppelin/openzeppelin-contracts/blob/master/contracts/token/ERC20/ERC20.sol\":6321:6332  fromBalance */\n  dup2\n    /* \"https://github.com/OpenZeppelin/openzeppelin-contracts/blob/master/contracts/token/ERC20/ERC20.sol\":6334:6339  value */\n  dup4\n    /* \"https://github.com/OpenZeppelin/openzeppelin-contracts/blob/master/contracts/token/ERC20/ERC20.sol\":6290:6340  ERC20InsufficientBalance(from, fromBalance, value) */\n  mload(0x40)\n  0xe450d38c00000000000000000000000000000000000000000000000000000000\n  dup2\n  mstore\n  0x04\n  add\n  tag_24\n  swap4\n  swap3\n  swap2\n  swap1\n  tag_25\n  jump\t// in\ntag_24:\n  mload(0x40)\n  dup1\n  swap2\n  sub\n  swap1\n  revert\n    /* \"https://github.com/OpenZeppelin/openzeppelin-contracts/blob/master/contracts/token/ERC20/ERC20.sol\":6240:6355  if (fromBalance < value) {... */\ntag_23:\n    /* \"https://github.com/OpenZeppelin/openzeppelin-contracts/blob/master/contracts/token/ERC20/ERC20.sol\":6507:6512  value */\n  dup2\n    /* \"https://github.com/OpenZeppelin/openzeppelin-contracts/blob/master/contracts/token/ERC20/ERC20.sol\":6493:6504  fromBalance */\n  dup2\n    /* \"https://github.com/OpenZeppelin/openzeppelin-contracts/blob/master/contracts/token/ERC20/ERC20.sol\":6493:6512  fromBalance - value */\n  sub\n    /* \"https://github.com/OpenZeppelin/openzeppelin-contracts/blob/master/contracts/token/ERC20/ERC20.sol\":6475:6484  _balances */\n  0x00\n    /* \"https://github.com/OpenZeppelin/openzeppelin-contracts/blob/master/contracts/token/ERC20/ERC20.sol\":6475:6490  _balances[from] */\n  0x00\n    /* \"https://github.com/OpenZeppelin/openzeppelin-contracts/blob/master/contracts/token/ERC20/ERC20.sol\":6485:6489  from */\n  dup7\n    /* \"https://github.com/OpenZeppelin/openzeppelin-contracts/blob/master/contracts/token/ERC20/ERC20.sol\":6475:6490  _balances[from] */\n  0xffffffffffffffffffffffffffffffffffffffff\n  and\n  0xffffffffffffffffffffffffffffffffffffffff\n  and\n  dup2\n  mstore\n  0x20\n  add\n  swap1\n  dup2\n  mstore\n  0x20\n  add\n  0x00\n  keccak256\n    /* \"https://github.com/OpenZeppelin/openzeppelin-contracts/blob/master/contracts/token/ERC20/ERC20.sol\":6475:6512  _balances[from] = fromBalance - value */\n  dup2\n  swap1\n  sstore\n  pop\n    /* \"https://github.com/OpenZeppelin/openzeppelin-contracts/blob/master/contracts/token/ERC20/ERC20.sol\":6175:6537  {... */\n  pop\n    /* \"https://github.com/OpenZeppelin/openzeppelin-contracts/blob/master/contracts/token/ERC20/ERC20.sol\":5997:6537  if (from == address(0)) {... */\ntag_22:\n    /* \"https://github.com/OpenZeppelin/openzeppelin-contracts/blob/master/contracts/token/ERC20/ERC20.sol\":6565:6566  0 */\n  0x00\n    /* \"https://github.com/OpenZeppelin/openzeppelin-contracts/blob/master/contracts/token/ERC20/ERC20.sol\":6551:6567  to == address(0) */\n  0xffffffffffffffffffffffffffffffffffffffff\n  and\n    /* \"https://github.com/OpenZeppelin/openzeppelin-contracts/blob/master/contracts/token/ERC20/ERC20.sol\":6551:6553  to */\n  dup3\n    /* \"https://github.com/OpenZeppelin/openzeppelin-contracts/blob/master/contracts/token/ERC20/ERC20.sol\":6551:6567  to == address(0) */\n  0xffffffffffffffffffffffffffffffffffffffff\n  and\n  sub\n    /* \"https://github.com/OpenZeppelin/openzeppelin-contracts/blob/master/contracts/token/ERC20/ERC20.sol\":6547:6972  if (to == address(0)) {... */\n  tag_26\n  jumpi\n    /* \"https://github.com/OpenZeppelin/openzeppelin-contracts/blob/master/contracts/token/ERC20/ERC20.sol\":6730:6735  value */\n  dup1\n    /* \"https://github.com/OpenZeppelin/openzeppelin-contracts/blob/master/contracts/token/ERC20/ERC20.sol\":6714:6726  _totalSupply */\n  0x02\n  0x00\n    /* \"https://github.com/OpenZeppelin/openzeppelin-contracts/blob/master/contracts/token/ERC20/ERC20.sol\":6714:6735  _totalSupply -= value */\n  dup3\n  dup3\n  sload\n  sub\n  swap3\n  pop\n  pop\n  dup2\n  swap1\n  sstore\n  pop\n    /* \"https://github.com/OpenZeppelin/openzeppelin-contracts/blob/master/contracts/token/ERC20/ERC20.sol\":6547:6972  if (to == address(0)) {... */\n  jump(tag_27)\ntag_26:\n    /* \"https://github.com/OpenZeppelin/openzeppelin-contracts/blob/master/contracts/token/ERC20/ERC20.sol\":6942:6947  value */\n  dup1\n    /* \"https://github.com/OpenZeppelin/openzeppelin-contracts/blob/master/contracts/token/ERC20/ERC20.sol\":6925:6934  _balances */\n  0x00\n    /* \"https://github.com/OpenZeppelin/openzeppelin-contracts/blob/master/contracts/token/ERC20/ERC20.sol\":6925:6938  _balances[to] */\n  0x00\n    /* \"https://github.com/OpenZeppelin/openzeppelin-contracts/blob/master/contracts/token/ERC20/ERC20.sol\":6935:6937  to */\n  dup5\n    /* \"https://github.com/OpenZeppelin/openzeppelin-contracts/blob/master/contracts/token/ERC20/ERC20.sol\":6925:6938  _balances[to] */\n  0xffffffffffffffffffffffffffffffffffffffff\n  and\n  0xffffffffffffffffffffffffffffffffffffffff\n  and\n  dup2\n  mstore\n  0x20\n  add\n  swap1\n  dup2\n  mstore\n  0x20\n  add\n  0x00\n  keccak256\n  0x00\n    /* \"https://github.com/OpenZeppelin/openzeppelin-contracts/blob/master/contracts/token/ERC20/ERC20.sol\":6925:6947  _balances[to] += value */\n  dup3\n  dup3\n  sload\n  add\n  swap3\n  pop\n  pop\n  dup2\n  swap1\n  sstore\n  pop\n    /* \"https://github.com/OpenZeppelin/openzeppelin-contracts/blob/master/contracts/token/ERC20/ERC20.sol\":6547:6972  if (to == address(0)) {... */\ntag_27:\n    /* \"https://github.com/OpenZeppelin/openzeppelin-contracts/blob/master/contracts/token/ERC20/ERC20.sol\":7002:7004  to */\n  dup2\n    /* \"https://github.com/OpenZeppelin/openzeppelin-contracts/blob/master/contracts/token/ERC20/ERC20.sol\":6987:7012  Transfer(from, to, value) */\n  0xffffffffffffffffffffffffffffffffffffffff\n  and\n    /* \"https://github.com/OpenZeppelin/openzeppelin-contracts/blob/master/contracts/token/ERC20/ERC20.sol\":6996:7000  from */\n  dup4\n    /* \"https://github.com/OpenZeppelin/openzeppelin-contracts/blob/master/contracts/token/ERC20/ERC20.sol\":6987:7012  Transfer(from, to, value) */\n  0xffffffffffffffffffffffffffffffffffffffff\n  and\n  0xddf252ad1be2c89b69c2b068fc378daa952ba7f163c4a11628f55a4df523b3ef\n    /* \"https://github.com/OpenZeppelin/openzeppelin-contracts/blob/master/contracts/token/ERC20/ERC20.sol\":7006:7011  value */\n  dup4\n    /* \"https://github.com/OpenZeppelin/openzeppelin-contracts/blob/master/contracts/token/ERC20/ERC20.sol\":6987:7012  Transfer(from, to, value) */\n  mload(0x40)\n  tag_28\n  swap2\n  swap1\n  tag_29\n  jump\t// in\ntag_28:\n  mload(0x40)\n  dup1\n  swap2\n  sub\n  swap1\n  log3\n    /* \"https://github.com/OpenZeppelin/openzeppelin-contracts/blob/master/contracts/token/ERC20/ERC20.sol\":5912:7019  function _update(address from, address to, uint256 value) internal virtual {... */\n  pop\n  pop\n  pop\n  jump\t// out\n    /* \"#utility.yul\":7:106   */\ntag_30:\n    /* \"#utility.yul\":59:65   */\n  0x00\n    /* \"#utility.yul\":93:98   */\n  dup2\n    /* \"#utility.yul\":87:99   */\n  mload\n    /* \"#utility.yul\":77:99   */\n  swap1\n  pop\n    /* \"#utility.yul\":7:106   */\n  swap2\n  swap1\n  pop\n  jump\t// out\n    /* \"#utility.yul\":112:292   */\ntag_31:\n    /* \"#utility.yul\":160:237   */\n  0x4e487b7100000000000000000000000000000000000000000000000000000000\n    /* \"#utility.yul\":157:158   */\n  0x00\n    /* \"#utility.yul\":150:238   */\n  mstore\n    /* \"#utility.yul\":257:261   */\n  0x41\n    /* \"#utility.yul\":254:255   */\n  0x04\n    /* \"#utility.yul\":247:262   */\n  mstore\n    /* \"#utility.yul\":281:285   */\n  0x24\n    /* \"#utility.yul\":278:279   */\n  0x00\n    /* \"#utility.yul\":271:286   */\n  revert\n    /* \"#utility.yul\":298:478   */\ntag_32:\n    /* \"#utility.yul\":346:423   */\n  0x4e487b7100000000000000000000000000000000000000000000000000000000\n    /* \"#utility.yul\":343:344   */\n  0x00\n    /* \"#utility.yul\":336:424   */\n  mstore\n    /* \"#utility.yul\":443:447   */\n  0x22\n    /* \"#utility.yul\":440:441   */\n  0x04\n    /* \"#utility.yul\":433:448   */\n  mstore\n    /* \"#utility.yul\":467:471   */\n  0x24\n    /* \"#utility.yul\":464:465   */\n  0x00\n    /* \"#utility.yul\":457:472   */\n  revert\n    /* \"#utility.yul\":484:804   */\ntag_33:\n    /* \"#utility.yul\":528:534   */\n  0x00\n    /* \"#utility.yul\":565:566   */\n  0x02\n    /* \"#utility.yul\":559:563   */\n  dup3\n    /* \"#utility.yul\":555:567   */\n  div\n    /* \"#utility.yul\":545:567   */\n  swap1\n  pop\n    /* \"#utility.yul\":612:613   */\n  0x01\n    /* \"#utility.yul\":606:610   */\n  dup3\n    /* \"#utility.yul\":602:614   */\n  and\n    /* \"#utility.yul\":633:651   */\n  dup1\n    /* \"#utility.yul\":623:704   */\n  tag_60\n  jumpi\n    /* \"#utility.yul\":689:693   */\n  0x7f\n    /* \"#utility.yul\":681:687   */\n  dup3\n    /* \"#utility.yul\":677:694   */\n  and\n    /* \"#utility.yul\":667:694   */\n  swap2\n  pop\n    /* \"#utility.yul\":623:704   */\ntag_60:\n    /* \"#utility.yul\":751:753   */\n  0x20\n    /* \"#utility.yul\":743:749   */\n  dup3\n    /* \"#utility.yul\":740:754   */\n  lt\n    /* \"#utility.yul\":720:738   */\n  dup2\n    /* \"#utility.yul\":717:755   */\n  sub\n    /* \"#utility.yul\":714:798   */\n  tag_61\n  jumpi\n    /* \"#utility.yul\":770:788   */\n  tag_62\n  tag_32\n  jump\t// in\ntag_62:\n    /* \"#utility.yul\":714:798   */\ntag_61:\n    /* \"#utility.yul\":535:804   */\n  pop\n    /* \"#utility.yul\":484:804   */\n  swap2\n  swap1\n  pop\n  jump\t// out\n    /* \"#utility.yul\":810:951   */\ntag_34:\n    /* \"#utility.yul\":859:863   */\n  0x00\n    /* \"#utility.yul\":882:885   */\n  dup2\n    /* \"#utility.yul\":874:885   */\n  swap1\n  pop\n    /* \"#utility.yul\":905:908   */\n  dup2\n    /* \"#utility.yul\":902:903   */\n  0x00\n    /* \"#utility.yul\":895:909   */\n  mstore\n    /* \"#utility.yul\":939:943   */\n  0x20\n    /* \"#utility.yul\":936:937   */\n  0x00\n    /* \"#utility.yul\":926:944   */\n  keccak256\n    /* \"#utility.yul\":918:944   */\n  swap1\n  pop\n    /* \"#utility.yul\":810:951   */\n  swap2\n  swap1\n  pop\n  jump\t// out\n    /* \"#utility.yul\":957:1050   */\ntag_35:\n    /* \"#utility.yul\":994:1000   */\n  0x00\n    /* \"#utility.yul\":1041:1043   */\n  0x20\n    /* \"#utility.yul\":1036:1038   */\n  0x1f\n    /* \"#utility.yul\":1029:1034   */\n  dup4\n    /* \"#utility.yul\":1025:1039   */\n  add\n    /* \"#utility.yul\":1021:1044   */\n  div\n    /* \"#utility.yul\":1011:1044   */\n  swap1\n  pop\n    /* \"#utility.yul\":957:1050   */\n  swap2\n  swap1\n  pop\n  jump\t// out\n    /* \"#utility.yul\":1056:1163   */\ntag_36:\n    /* \"#utility.yul\":1100:1108   */\n  0x00\n    /* \"#utility.yul\":1150:1155   */\n  dup3\n    /* \"#utility.yul\":1144:1148   */\n  dup3\n    /* \"#utility.yul\":1140:1156   */\n  shl\n    /* \"#utility.yul\":1119:1156   */\n  swap1\n  pop\n    /* \"#utility.yul\":1056:1163   */\n  swap3\n  swap2\n  pop\n  pop\n  jump\t// out\n    /* \"#utility.yul\":1169:1562   */\ntag_37:\n    /* \"#utility.yul\":1238:1244   */\n  0x00\n    /* \"#utility.yul\":1288:1289   */\n  0x08\n    /* \"#utility.yul\":1276:1286   */\n  dup4\n    /* \"#utility.yul\":1272:1290   */\n  mul\n    /* \"#utility.yul\":1311:1408   */\n  tag_67\n    /* \"#utility.yul\":1341:1407   */\n  0xffffffffffffffffffffffffffffffffffffffffffffffffffffffffffffffff\n    /* \"#utility.yul\":1330:1339   */\n  dup3\n    /* \"#utility.yul\":1311:1408   */\n  tag_36\n  jump\t// in\ntag_67:\n    /* \"#utility.yul\":1429:1468   */\n  tag_68\n    /* \"#utility.yul\":1459:1467   */\n  dup7\n    /* \"#utility.yul\":1448:1457   */\n  dup4\n    /* \"#utility.yul\":1429:1468   */\n  tag_36\n  jump\t// in\ntag_68:\n    /* \"#utility.yul\":1417:1468   */\n  swap6\n  pop\n    /* \"#utility.yul\":1501:1505   */\n  dup1\n    /* \"#utility.yul\":1497:1506   */\n  not\n    /* \"#utility.yul\":1490:1495   */\n  dup5\n    /* \"#utility.yul\":1486:1507   */\n  and\n    /* \"#utility.yul\":1477:1507   */\n  swap4\n  pop\n    /* \"#utility.yul\":1550:1554   */\n  dup1\n    /* \"#utility.yul\":1540:1548   */\n  dup7\n    /* \"#utility.yul\":1536:1555   */\n  and\n    /* \"#utility.yul\":1529:1534   */\n  dup5\n    /* \"#utility.yul\":1526:1556   */\n  or\n    /* \"#utility.yul\":1516:1556   */\n  swap3\n  pop\n    /* \"#utility.yul\":1245:1562   */\n  pop\n  pop\n    /* \"#utility.yul\":1169:1562   */\n  swap4\n  swap3\n  pop\n  pop\n  pop\n  jump\t// out\n    /* \"#utility.yul\":1568:1645   */\ntag_38:\n    /* \"#utility.yul\":1605:1612   */\n  0x00\n    /* \"#utility.yul\":1634:1639   */\n  dup2\n    /* \"#utility.yul\":1623:1639   */\n  swap1\n  pop\n    /* \"#utility.yul\":1568:1645   */\n  swap2\n  swap1\n  pop\n  jump\t// out\n    /* \"#utility.yul\":1651:1711   */\ntag_39:\n    /* \"#utility.yul\":1679:1682   */\n  0x00\n    /* \"#utility.yul\":1700:1705   */\n  dup2\n    /* \"#utility.yul\":1693:1705   */\n  swap1\n  pop\n    /* \"#utility.yul\":1651:1711   */\n  swap2\n  swap1\n  pop\n  jump\t// out\n    /* \"#utility.yul\":1717:1859   */\ntag_40:\n    /* \"#utility.yul\":1767:1776   */\n  0x00\n    /* \"#utility.yul\":1800:1853   */\n  tag_72\n    /* \"#utility.yul\":1818:1852   */\n  tag_73\n    /* \"#utility.yul\":1827:1851   */\n  tag_74\n    /* \"#utility.yul\":1845:1850   */\n  dup5\n    /* \"#utility.yul\":1827:1851   */\n  tag_38\n  jump\t// in\ntag_74:\n    /* \"#utility.yul\":1818:1852   */\n  tag_39\n  jump\t// in\ntag_73:\n    /* \"#utility.yul\":1800:1853   */\n  tag_38\n  jump\t// in\ntag_72:\n    /* \"#utility.yul\":1787:1853   */\n  swap1\n  pop\n    /* \"#utility.yul\":1717:1859   */\n  swap2\n  swap1\n  pop\n  jump\t// out\n    /* \"#utility.yul\":1865:1940   */\ntag_41:\n    /* \"#utility.yul\":1908:1911   */\n  0x00\n    /* \"#utility.yul\":1929:1934   */\n  dup2\n    /* \"#utility.yul\":1922:1934   */\n  swap1\n  pop\n    /* \"#utility.yul\":1865:1940   */\n  swap2\n  swap1\n  pop\n  jump\t// out\n    /* \"#utility.yul\":1946:2215   */\ntag_42:\n    /* \"#utility.yul\":2056:2095   */\n  tag_77\n    /* \"#utility.yul\":2087:2094   */\n  dup4\n    /* \"#utility.yul\":2056:2095   */\n  tag_40\n  jump\t// in\ntag_77:\n    /* \"#utility.yul\":2117:2208   */\n  tag_78\n    /* \"#utility.yul\":2166:2207   */\n  tag_79\n    /* \"#utility.yul\":2190:2206   */\n  dup3\n    /* \"#utility.yul\":2166:2207   */\n  tag_41\n  jump\t// in\ntag_79:\n    /* \"#utility.yul\":2158:2164   */\n  dup5\n    /* \"#utility.yul\":2151:2155   */\n  dup5\n    /* \"#utility.yul\":2145:2156   */\n  sload\n    /* \"#utility.yul\":2117:2208   */\n  tag_37\n  jump\t// in\ntag_78:\n    /* \"#utility.yul\":2111:2115   */\n  dup3\n    /* \"#utility.yul\":2104:2209   */\n  sstore\n    /* \"#utility.yul\":2022:2215   */\n  pop\n    /* \"#utility.yul\":1946:2215   */\n  pop\n  pop\n  pop\n  jump\t// out\n    /* \"#utility.yul\":2221:2294   */\ntag_43:\n    /* \"#utility.yul\":2266:2269   */\n  0x00\n    /* \"#utility.yul\":2287:2288   */\n  0x00\n    /* \"#utility.yul\":2280:2288   */\n  swap1\n  pop\n    /* \"#utility.yul\":2221:2294   */\n  swap1\n  jump\t// out\n    /* \"#utility.yul\":2300:2489   */\ntag_44:\n    /* \"#utility.yul\":2377:2409   */\n  tag_82\n  tag_43\n  jump\t// in\ntag_82:\n    /* \"#utility.yul\":2418:2483   */\n  tag_83\n    /* \"#utility.yul\":2476:2482   */\n  dup2\n    /* \"#utility.yul\":2468:2474   */\n  dup5\n    /* \"#utility.yul\":2462:2466   */\n  dup5\n    /* \"#utility.yul\":2418:2483   */\n  tag_42\n  jump\t// in\ntag_83:\n    /* \"#utility.yul\":2353:2489   */\n  pop\n    /* \"#utility.yul\":2300:2489   */\n  pop\n  pop\n  jump\t// out\n    /* \"#utility.yul\":2495:2681   */\ntag_45:\n    /* \"#utility.yul\":2555:2675   */\ntag_85:\n    /* \"#utility.yul\":2572:2575   */\n  dup2\n    /* \"#utility.yul\":2565:2570   */\n  dup2\n    /* \"#utility.yul\":2562:2576   */\n  lt\n    /* \"#utility.yul\":2555:2675   */\n  iszero\n  tag_87\n  jumpi\n    /* \"#utility.yul\":2626:2665   */\n  tag_88\n    /* \"#utility.yul\":2663:2664   */\n  0x00\n    /* \"#utility.yul\":2656:2661   */\n  dup3\n    /* \"#utility.yul\":2626:2665   */\n  tag_44\n  jump\t// in\ntag_88:\n    /* \"#utility.yul\":2599:2600   */\n  0x01\n    /* \"#utility.yul\":2592:2597   */\n  dup2\n    /* \"#utility.yul\":2588:2601   */\n  add\n    /* \"#utility.yul\":2579:2601   */\n  swap1\n  pop\n    /* \"#utility.yul\":2555:2675   */\n  jump(tag_85)\ntag_87:\n    /* \"#utility.yul\":2495:2681   */\n  pop\n  pop\n  jump\t// out\n    /* \"#utility.yul\":2687:3230   */\ntag_46:\n    /* \"#utility.yul\":2788:2790   */\n  0x1f\n    /* \"#utility.yul\":2783:2786   */\n  dup3\n    /* \"#utility.yul\":2780:2791   */\n  gt\n    /* \"#utility.yul\":2777:3223   */\n  iszero\n  tag_90\n  jumpi\n    /* \"#utility.yul\":2822:2860   */\n  tag_91\n    /* \"#utility.yul\":2854:2859   */\n  dup2\n    /* \"#utility.yul\":2822:2860   */\n  tag_34\n  jump\t// in\ntag_91:\n    /* \"#utility.yul\":2906:2935   */\n  tag_92\n    /* \"#utility.yul\":2924:2934   */\n  dup5\n    /* \"#utility.yul\":2906:2935   */\n  tag_35\n  jump\t// in\ntag_92:\n    /* \"#utility.yul\":2896:2904   */\n  dup2\n    /* \"#utility.yul\":2892:2936   */\n  add\n    /* \"#utility.yul\":3089:3091   */\n  0x20\n    /* \"#utility.yul\":3077:3087   */\n  dup6\n    /* \"#utility.yul\":3074:3092   */\n  lt\n    /* \"#utility.yul\":3071:3120   */\n  iszero\n  tag_93\n  jumpi\n    /* \"#utility.yul\":3110:3118   */\n  dup2\n    /* \"#utility.yul\":3095:3118   */\n  swap1\n  pop\n    /* \"#utility.yul\":3071:3120   */\ntag_93:\n    /* \"#utility.yul\":3133:3213   */\n  tag_94\n    /* \"#utility.yul\":3189:3211   */\n  tag_95\n    /* \"#utility.yul\":3207:3210   */\n  dup6\n    /* \"#utility.yul\":3189:3211   */\n  tag_35\n  jump\t// in\ntag_95:\n    /* \"#utility.yul\":3179:3187   */\n  dup4\n    /* \"#utility.yul\":3175:3212   */\n  add\n    /* \"#utility.yul\":3162:3173   */\n  dup3\n    /* \"#utility.yul\":3133:3213   */\n  tag_45\n  jump\t// in\ntag_94:\n    /* \"#utility.yul\":2792:3223   */\n  pop\n  pop\n    /* \"#utility.yul\":2777:3223   */\ntag_90:\n    /* \"#utility.yul\":2687:3230   */\n  pop\n  pop\n  pop\n  jump\t// out\n    /* \"#utility.yul\":3236:3353   */\ntag_47:\n    /* \"#utility.yul\":3290:3298   */\n  0x00\n    /* \"#utility.yul\":3340:3345   */\n  dup3\n    /* \"#utility.yul\":3334:3338   */\n  dup3\n    /* \"#utility.yul\":3330:3346   */\n  shr\n    /* \"#utility.yul\":3309:3346   */\n  swap1\n  pop\n    /* \"#utility.yul\":3236:3353   */\n  swap3\n  swap2\n  pop\n  pop\n  jump\t// out\n    /* \"#utility.yul\":3359:3528   */\ntag_48:\n    /* \"#utility.yul\":3403:3409   */\n  0x00\n    /* \"#utility.yul\":3436:3487   */\n  tag_98\n    /* \"#utility.yul\":3484:3485   */\n  0x00\n    /* \"#utility.yul\":3480:3486   */\n  not\n    /* \"#utility.yul\":3472:3477   */\n  dup5\n    /* \"#utility.yul\":3469:3470   */\n  0x08\n    /* \"#utility.yul\":3465:3478   */\n  mul\n    /* \"#utility.yul\":3436:3487   */\n  tag_47\n  jump\t// in\ntag_98:\n    /* \"#utility.yul\":3432:3488   */\n  not\n    /* \"#utility.yul\":3517:3521   */\n  dup1\n    /* \"#utility.yul\":3511:3515   */\n  dup4\n    /* \"#utility.yul\":3507:3522   */\n  and\n    /* \"#utility.yul\":3497:3522   */\n  swap2\n  pop\n    /* \"#utility.yul\":3410:3528   */\n  pop\n    /* \"#utility.yul\":3359:3528   */\n  swap3\n  swap2\n  pop\n  pop\n  jump\t// out\n    /* \"#utility.yul\":3533:3828   */\ntag_49:\n    /* \"#utility.yul\":3609:3613   */\n  0x00\n    /* \"#utility.yul\":3755:3784   */\n  tag_100\n    /* \"#utility.yul\":3780:3783   */\n  dup4\n    /* \"#utility.yul\":3774:3778   */\n  dup4\n    /* \"#utility.yul\":3755:3784   */\n  tag_48\n  jump\t// in\ntag_100:\n    /* \"#utility.yul\":3747:3784   */\n  swap2\n  pop\n    /* \"#utility.yul\":3817:3820   */\n  dup3\n    /* \"#utility.yul\":3814:3815   */\n  0x02\n    /* \"#utility.yul\":3810:3821   */\n  mul\n    /* \"#utility.yul\":3804:3808   */\n  dup3\n    /* \"#utility.yul\":3801:3822   */\n  or\n    /* \"#utility.yul\":3793:3822   */\n  swap1\n  pop\n    /* \"#utility.yul\":3533:3828   */\n  swap3\n  swap2\n  pop\n  pop\n  jump\t// out\n    /* \"#utility.yul\":3833:5228   */\ntag_6:\n    /* \"#utility.yul\":3950:3987   */\n  tag_102\n    /* \"#utility.yul\":3983:3986   */\n  dup3\n    /* \"#utility.yul\":3950:3987   */\n  tag_30\n  jump\t// in\ntag_102:\n    /* \"#utility.yul\":4052:4070   */\n  0xffffffffffffffff\n    /* \"#utility.yul\":4044:4050   */\n  dup2\n    /* \"#utility.yul\":4041:4071   */\n  gt\n    /* \"#utility.yul\":4038:4094   */\n  iszero\n  tag_103\n  jumpi\n    /* \"#utility.yul\":4074:4092   */\n  tag_104\n  tag_31\n  jump\t// in\ntag_104:\n    /* \"#utility.yul\":4038:4094   */\ntag_103:\n    /* \"#utility.yul\":4118:4156   */\n  tag_105\n    /* \"#utility.yul\":4150:4154   */\n  dup3\n    /* \"#utility.yul\":4144:4155   */\n  sload\n    /* \"#utility.yul\":4118:4156   */\n  tag_33\n  jump\t// in\ntag_105:\n    /* \"#utility.yul\":4203:4270   */\n  tag_106\n    /* \"#utility.yul\":4263:4269   */\n  dup3\n    /* \"#utility.yul\":4255:4261   */\n  dup3\n    /* \"#utility.yul\":4249:4253   */\n  dup6\n    /* \"#utility.yul\":4203:4270   */\n  tag_46\n  jump\t// in\ntag_106:\n    /* \"#utility.yul\":4297:4298   */\n  0x00\n    /* \"#utility.yul\":4321:4325   */\n  0x20\n    /* \"#utility.yul\":4308:4325   */\n  swap1\n  pop\n    /* \"#utility.yul\":4353:4355   */\n  0x1f\n    /* \"#utility.yul\":4345:4351   */\n  dup4\n    /* \"#utility.yul\":4342:4356   */\n  gt\n    /* \"#utility.yul\":4370:4371   */\n  0x01\n    /* \"#utility.yul\":4365:4983   */\n  dup2\n  eq\n  tag_108\n  jumpi\n    /* \"#utility.yul\":5027:5028   */\n  0x00\n    /* \"#utility.yul\":5044:5050   */\n  dup5\n    /* \"#utility.yul\":5041:5118   */\n  iszero\n  tag_109\n  jumpi\n    /* \"#utility.yul\":5093:5102   */\n  dup3\n    /* \"#utility.yul\":5088:5091   */\n  dup8\n    /* \"#utility.yul\":5084:5103   */\n  add\n    /* \"#utility.yul\":5078:5104   */\n  mload\n    /* \"#utility.yul\":5069:5104   */\n  swap1\n  pop\n    /* \"#utility.yul\":5041:5118   */\ntag_109:\n    /* \"#utility.yul\":5144:5211   */\n  tag_110\n    /* \"#utility.yul\":5204:5210   */\n  dup6\n    /* \"#utility.yul\":5197:5202   */\n  dup3\n    /* \"#utility.yul\":5144:5211   */\n  tag_49\n  jump\t// in\ntag_110:\n    /* \"#utility.yul\":5138:5142   */\n  dup7\n    /* \"#utility.yul\":5131:5212   */\n  sstore\n    /* \"#utility.yul\":5000:5222   */\n  pop\n    /* \"#utility.yul\":4335:5222   */\n  jump(tag_107)\n    /* \"#utility.yul\":4365:4983   */\ntag_108:\n    /* \"#utility.yul\":4417:4421   */\n  0x1f\n    /* \"#utility.yul\":4413:4422   */\n  not\n    /* \"#utility.yul\":4405:4411   */\n  dup5\n    /* \"#utility.yul\":4401:4423   */\n  and\n    /* \"#utility.yul\":4451:4488   */\n  tag_111\n    /* \"#utility.yul\":4483:4487   */\n  dup7\n    /* \"#utility.yul\":4451:4488   */\n  tag_34\n  jump\t// in\ntag_111:\n    /* \"#utility.yul\":4510:4511   */\n  0x00\n    /* \"#utility.yul\":4524:4732   */\ntag_112:\n    /* \"#utility.yul\":4538:4545   */\n  dup3\n    /* \"#utility.yul\":4535:4536   */\n  dup2\n    /* \"#utility.yul\":4532:4546   */\n  lt\n    /* \"#utility.yul\":4524:4732   */\n  iszero\n  tag_114\n  jumpi\n    /* \"#utility.yul\":4617:4626   */\n  dup5\n    /* \"#utility.yul\":4612:4615   */\n  dup10\n    /* \"#utility.yul\":4608:4627   */\n  add\n    /* \"#utility.yul\":4602:4628   */\n  mload\n    /* \"#utility.yul\":4594:4600   */\n  dup3\n    /* \"#utility.yul\":4587:4629   */\n  sstore\n    /* \"#utility.yul\":4668:4669   */\n  0x01\n    /* \"#utility.yul\":4660:4666   */\n  dup3\n    /* \"#utility.yul\":4656:4670   */\n  add\n    /* \"#utility.yul\":4646:4670   */\n  swap2\n  pop\n    /* \"#utility.yul\":4715:4717   */\n  0x20\n    /* \"#utility.yul\":4704:4713   */\n  dup6\n    /* \"#utility.yul\":4700:4718   */\n  add\n    /* \"#utility.yul\":4687:4718   */\n  swap5\n  pop\n    /* \"#utility.yul\":4561:4565   */\n  0x20\n    /* \"#utility.yul\":4558:4559   */\n  dup2\n    /* \"#utility.yul\":4554:4566   */\n  add\n    /* \"#utility.yul\":4549:4566   */\n  swap1\n  pop\n    /* \"#utility.yul\":4524:4732   */\n  jump(tag_112)\ntag_114:\n    /* \"#utility.yul\":4760:4766   */\n  dup7\n    /* \"#utility.yul\":4751:4758   */\n  dup4\n    /* \"#utility.yul\":4748:4767   */\n  lt\n    /* \"#utility.yul\":4745:4924   */\n  iszero\n  tag_115\n  jumpi\n    /* \"#utility.yul\":4818:4827   */\n  dup5\n    /* \"#utility.yul\":4813:4816   */\n  dup10\n    /* \"#utility.yul\":4809:4828   */\n  add\n    /* \"#utility.yul\":4803:4829   */\n  mload\n    /* \"#utility.yul\":4861:4909   */\n  tag_116\n    /* \"#utility.yul\":4903:4907   */\n  0x1f\n    /* \"#utility.yul\":4895:4901   */\n  dup10\n    /* \"#utility.yul\":4891:4908   */\n  and\n    /* \"#utility.yul\":4880:4889   */\n  dup3\n    /* \"#utility.yul\":4861:4909   */\n  tag_48\n  jump\t// in\ntag_116:\n    /* \"#utility.yul\":4853:4859   */\n  dup4\n    /* \"#utility.yul\":4846:4910   */\n  sstore\n    /* \"#utility.yul\":4768:4924   */\n  pop\n    /* \"#utility.yul\":4745:4924   */\ntag_115:\n    /* \"#utility.yul\":4970:4971   */\n  0x01\n    /* \"#utility.yul\":4966:4967   */\n  0x02\n    /* \"#utility.yul\":4958:4964   */\n  dup9\n    /* \"#utility.yul\":4954:4968   */\n  mul\n    /* \"#utility.yul\":4950:4972   */\n  add\n    /* \"#utility.yul\":4944:4948   */\n  dup9\n    /* \"#utility.yul\":4937:4973   */\n  sstore\n    /* \"#utility.yul\":4372:4983   */\n  pop\n  pop\n  pop\n    /* \"#utility.yul\":4335:5222   */\ntag_107:\n  pop\n    /* \"#utility.yul\":3925:5228   */\n  pop\n  pop\n  pop\n    /* \"#utility.yul\":3833:5228   */\n  pop\n  pop\n  jump\t// out\n    /* \"#utility.yul\":5234:5360   */\ntag_50:\n    /* \"#utility.yul\":5271:5278   */\n  0x00\n    /* \"#utility.yul\":5311:5353   */\n  0xffffffffffffffffffffffffffffffffffffffff\n    /* \"#utility.yul\":5304:5309   */\n  dup3\n    /* \"#utility.yul\":5300:5354   */\n  and\n    /* \"#utility.yul\":5289:5354   */\n  swap1\n  pop\n    /* \"#utility.yul\":5234:5360   */\n  swap2\n  swap1\n  pop\n  jump\t// out\n    /* \"#utility.yul\":5366:5462   */\ntag_51:\n    /* \"#utility.yul\":5403:5410   */\n  0x00\n    /* \"#utility.yul\":5432:5456   */\n  tag_119\n    /* \"#utility.yul\":5450:5455   */\n  dup3\n    /* \"#utility.yul\":5432:5456   */\n  tag_50\n  jump\t// in\ntag_119:\n    /* \"#utility.yul\":5421:5456   */\n  swap1\n  pop\n    /* \"#utility.yul\":5366:5462   */\n  swap2\n  swap1\n  pop\n  jump\t// out\n    /* \"#utility.yul\":5468:5586   */\ntag_52:\n    /* \"#utility.yul\":5555:5579   */\n  tag_121\n    /* \"#utility.yul\":5573:5578   */\n  dup2\n    /* \"#utility.yul\":5555:5579   */\n  tag_51\n  jump\t// in\ntag_121:\n    /* \"#utility.yul\":5550:5553   */\n  dup3\n    /* \"#utility.yul\":5543:5580   */\n  mstore\n    /* \"#utility.yul\":5468:5586   */\n  pop\n  pop\n  jump\t// out\n    /* \"#utility.yul\":5592:5814   */\ntag_15:\n    /* \"#utility.yul\":5685:5689   */\n  0x00\n    /* \"#utility.yul\":5723:5725   */\n  0x20\n    /* \"#utility.yul\":5712:5721   */\n  dup3\n    /* \"#utility.yul\":5708:5726   */\n  add\n    /* \"#utility.yul\":5700:5726   */\n  swap1\n  pop\n    /* \"#utility.yul\":5736:5807   */\n  tag_123\n    /* \"#utility.yul\":5804:5805   */\n  0x00\n    /* \"#utility.yul\":5793:5802   */\n  dup4\n    /* \"#utility.yul\":5789:5806   */\n  add\n    /* \"#utility.yul\":5780:5786   */\n  dup5\n    /* \"#utility.yul\":5736:5807   */\n  tag_52\n  jump\t// in\ntag_123:\n    /* \"#utility.yul\":5592:5814   */\n  swap3\n  swap2\n  pop\n  pop\n  jump\t// out\n    /* \"#utility.yul\":5820:6000   */\ntag_53:\n    /* \"#utility.yul\":5868:5945   */\n  0x4e487b7100000000000000000000000000000000000000000000000000000000\n    /* \"#utility.yul\":5865:5866   */\n  0x00\n    /* \"#utility.yul\":5858:5946   */\n  mstore\n    /* \"#utility.yul\":5965:5969   */\n  0x11\n    /* \"#utility.yul\":5962:5963   */\n  0x04\n    /* \"#utility.yul\":5955:5970   */\n  mstore\n    /* \"#utility.yul\":5989:5993   */\n  0x24\n    /* \"#utility.yul\":5986:5987   */\n  0x00\n    /* \"#utility.yul\":5979:5994   */\n  revert\n    /* \"#utility.yul\":6006:6197   */\ntag_21:\n    /* \"#utility.yul\":6046:6049   */\n  0x00\n    /* \"#utility.yul\":6065:6085   */\n  tag_126\n    /* \"#utility.yul\":6083:6084   */\n  dup3\n    /* \"#utility.yul\":6065:6085   */\n  tag_38\n  jump\t// in\ntag_126:\n    /* \"#utility.yul\":6060:6085   */\n  swap2\n  pop\n    /* \"#utility.yul\":6099:6119   */\n  tag_127\n    /* \"#utility.yul\":6117:6118   */\n  dup4\n    /* \"#utility.yul\":6099:6119   */\n  tag_38\n  jump\t// in\ntag_127:\n    /* \"#utility.yul\":6094:6119   */\n  swap3\n  pop\n    /* \"#utility.yul\":6142:6143   */\n  dup3\n    /* \"#utility.yul\":6139:6140   */\n  dup3\n    /* \"#utility.yul\":6135:6144   */\n  add\n    /* \"#utility.yul\":6128:6144   */\n  swap1\n  pop\n    /* \"#utility.yul\":6163:6166   */\n  dup1\n    /* \"#utility.yul\":6160:6161   */\n  dup3\n    /* \"#utility.yul\":6157:6167   */\n  gt\n    /* \"#utility.yul\":6154:6190   */\n  iszero\n  tag_128\n  jumpi\n    /* \"#utility.yul\":6170:6188   */\n  tag_129\n  tag_53\n  jump\t// in\ntag_129:\n    /* \"#utility.yul\":6154:6190   */\ntag_128:\n    /* \"#utility.yul\":6006:6197   */\n  swap3\n  swap2\n  pop\n  pop\n  jump\t// out\n    /* \"#utility.yul\":6203:6321   */\ntag_54:\n    /* \"#utility.yul\":6290:6314   */\n  tag_131\n    /* \"#utility.yul\":6308:6313   */\n  dup2\n    /* \"#utility.yul\":6290:6314   */\n  tag_38\n  jump\t// in\ntag_131:\n    /* \"#utility.yul\":6285:6288   */\n  dup3\n    /* \"#utility.yul\":6278:6315   */\n  mstore\n    /* \"#utility.yul\":6203:6321   */\n  pop\n  pop\n  jump\t// out\n    /* \"#utility.yul\":6327:6769   */\ntag_25:\n    /* \"#utility.yul\":6476:6480   */\n  0x00\n    /* \"#utility.yul\":6514:6516   */\n  0x60\n    /* \"#utility.yul\":6503:6512   */\n  dup3\n    /* \"#utility.yul\":6499:6517   */\n  add\n    /* \"#utility.yul\":6491:6517   */\n  swap1\n  pop\n    /* \"#utility.yul\":6527:6598   */\n  tag_133\n    /* \"#utility.yul\":6595:6596   */\n  0x00\n    /* \"#utility.yul\":6584:6593   */\n  dup4\n    /* \"#utility.yul\":6580:6597   */\n  add\n    /* \"#utility.yul\":6571:6577   */\n  dup7\n    /* \"#utility.yul\":6527:6598   */\n  tag_52\n  jump\t// in\ntag_133:\n    /* \"#utility.yul\":6608:6680   */\n  tag_134\n    /* \"#utility.yul\":6676:6678   */\n  0x20\n    /* \"#utility.yul\":6665:6674   */\n  dup4\n    /* \"#utility.yul\":6661:6679   */\n  add\n    /* \"#utility.yul\":6652:6658   */\n  dup6\n    /* \"#utility.yul\":6608:6680   */\n  tag_54\n  jump\t// in\ntag_134:\n    /* \"#utility.yul\":6690:6762   */\n  tag_135\n    /* \"#utility.yul\":6758:6760   */\n  0x40\n    /* \"#utility.yul\":6747:6756   */\n  dup4\n    /* \"#utility.yul\":6743:6761   */\n  add\n    /* \"#utility.yul\":6734:6740   */\n  dup5\n    /* \"#utility.yul\":6690:6762   */\n  tag_54\n  jump\t// in\ntag_135:\n    /* \"#utility.yul\":6327:6769   */\n  swap5\n  swap4\n  pop\n  pop\n  pop\n  pop\n  jump\t// out\n    /* \"#utility.yul\":6775:6997   */\ntag_29:\n    /* \"#utility.yul\":6868:6872   */\n  0x00\n    /* \"#utility.yul\":6906:6908   */\n  0x20\n    /* \"#utility.yul\":6895:6904   */\n  dup3\n    /* \"#utility.yul\":6891:6909   */\n  add\n    /* \"#utility.yul\":6883:6909   */\n  swap1\n  pop\n    /* \"#utility.yul\":6919:6990   */\n  tag_137\n    /* \"#utility.yul\":6987:6988   */\n  0x00\n    /* \"#utility.yul\":6976:6985   */\n  dup4\n    /* \"#utility.yul\":6972:6989   */\n  add\n    /* \"#utility.yul\":6963:6969   */\n  dup5\n    /* \"#utility.yul\":6919:6990   */\n  tag_54\n  jump\t// in\ntag_137:\n    /* \"#utility.yul\":6775:6997   */\n  swap3\n  swap2\n  pop\n  pop\n  jump\t// out\n    /* \"NapTx.sol\":170:6020  contract OfflinePaymentSystem is ERC20 {... */\ntag_11:\n  dataSize(sub_0)\n  dup1\n  dataOffset(sub_0)\n  0x00\n  codecopy\n  0x00\n  return\nstop\n\nsub_0: assembly {\n        /* \"NapTx.sol\":170:6020  contract OfflinePaymentSystem is ERC20 {... */\n      mstore(0x40, 0x80)\n      callvalue\n      dup1\n      iszero\n      tag_1\n      jumpi\n      revert(0x00, 0x00)\n    tag_1:\n      pop\n      jumpi(tag_2, lt(calldatasize, 0x04))\n      shr(0xe0, calldataload(0x00))\n      dup1\n      0x93004a38\n      gt\n      tag_20\n      jumpi\n      dup1\n      0xc5dc38a3\n      gt\n      tag_21\n      jumpi\n      dup1\n      0xc5dc38a3\n      eq\n      tag_15\n      jumpi\n      dup1\n      0xcb942a5f\n      eq\n      tag_16\n      jumpi\n      dup1\n      0xdd62ed3e\n      eq\n      tag_17\n      jumpi\n      dup1\n      0xe8d7b7fa\n      eq\n      tag_18\n      jumpi\n      dup1\n      0xf021cffe\n      eq\n      tag_19\n      jumpi\n      jump(tag_2)\n    tag_21:\n      dup1\n      0x93004a38\n      eq\n      tag_11\n      jumpi\n      dup1\n      0x95d89b41\n      eq\n      tag_12\n      jumpi\n      dup1\n      0xa9059cbb\n      eq\n      tag_13\n      jumpi\n      dup1\n      0xc0d1782f\n      eq\n      tag_14\n      jumpi\n      jump(tag_2)\n    tag_20:\n      dup1\n      0x23b872dd\n      gt\n      tag_22\n      jumpi\n      dup1\n      0x23b872dd\n      eq\n      tag_7\n      jumpi\n      dup1\n      0x27386fde\n      eq\n      tag_8\n      jumpi\n      dup1\n      0x313ce567\n      eq\n      tag_9\n      jumpi\n      dup1\n      0x70a08231\n      eq\n      tag_10\n      jumpi\n      jump(tag_2)\n    tag_22:\n      dup1\n      0x06fdde03\n      eq\n      tag_3\n      jumpi\n      dup1\n      0x095ea7b3\n      eq\n      tag_4\n      jumpi\n      dup1\n      0x18160ddd\n      eq\n      tag_5\n      jumpi\n      dup1\n      0x1dedc70e\n      eq\n      tag_6\n      jumpi\n    tag_2:\n      revert(0x00, 0x00)\n        /* \"https://github.com/OpenZeppelin/openzeppelin-contracts/blob/master/contracts/token/ERC20/ERC20.sol\":1760:1849  function name() public view virtual returns (string memory) {... */\n    tag_3:\n      tag_23\n      tag_24\n      jump\t// in\n    tag_23:\n      mload(0x40)\n      tag_25\n      swap2\n      swap1\n      tag_26\n      jump\t// in\n    tag_25:\n      mload(0x40)\n      dup1\n      swap2\n      sub\n      swap1\n      return\n        /* \"https://github.com/OpenZeppelin/openzeppelin-contracts/blob/master/contracts/token/ERC20/ERC20.sol\":3902:4088  function approve(address spender, uint256 value) public virtual returns (bool) {... */\n    tag_4:\n      tag_27\n      0x04\n      dup1\n      calldatasize\n      sub\n      dup2\n      add\n      swap1\n      tag_28\n      swap2\n      swap1\n      tag_29\n      jump\t// in\n    tag_28:\n      tag_30\n      jump\t// in\n    tag_27:\n      mload(0x40)\n      tag_31\n      swap2\n      swap1\n      tag_32\n      jump\t// in\n    tag_31:\n      mload(0x40)\n      dup1\n      swap2\n      sub\n      swap1\n      return\n        /* \"https://github.com/OpenZeppelin/openzeppelin-contracts/blob/master/contracts/token/ERC20/ERC20.sol\":2803:2900  function totalSupply() public view virtual returns (uint256) {... */\n    tag_5:\n      tag_33\n      tag_34\n      jump\t// in\n    tag_33:\n      mload(0x40)\n      tag_35\n      swap2\n      swap1\n      tag_36\n      jump\t// in\n    tag_35:\n      mload(0x40)\n      dup1\n      swap2\n      sub\n      swap1\n      return\n        /* \"NapTx.sol\":1463:2841  function registrar(bytes32 deviceId, uint256 timestamp, uint256 nonce, bytes calldata firma) external returns (bytes32 hashInicial){... */\n    tag_6:\n      tag_37\n      0x04\n      dup1\n      calldatasize\n      sub\n      dup2\n      add\n      swap1\n      tag_38\n      swap2\n      swap1\n      tag_39\n      jump\t// in\n    tag_38:\n      tag_40\n      jump\t// in\n    tag_37:\n      mload(0x40)\n      tag_41\n      swap2\n      swap1\n      tag_42\n      jump\t// in\n    tag_41:\n      mload(0x40)\n      dup1\n      swap2\n      sub\n      swap1\n      return\n        /* \"https://github.com/OpenZeppelin/openzeppelin-contracts/blob/master/contracts/token/ERC20/ERC20.sol\":4680:4924  function transferFrom(address from, address to, uint256 value) public virtual returns (bool) {... */\n    tag_7:\n      tag_43\n      0x04\n      dup1\n      calldatasize\n      sub\n      dup2\n      add\n      swap1\n      tag_44\n      swap2\n      swap1\n      tag_45\n      jump\t// in\n    tag_44:\n      tag_46\n      jump\t// in\n    tag_43:\n      mload(0x40)\n      tag_47\n      swap2\n      swap1\n      tag_32\n      jump\t// in\n    tag_47:\n      mload(0x40)\n      dup1\n      swap2\n      sub\n      swap1\n      return\n        /* \"NapTx.sol\":1075:1139  mapping(address => mapping(uint256 => bool)) public noncesUsados */\n    tag_8:\n      tag_48\n      0x04\n      dup1\n      calldatasize\n      sub\n      dup2\n      add\n      swap1\n      tag_49\n      swap2\n      swap1\n      tag_29\n      jump\t// in\n    tag_49:\n      tag_50\n      jump\t// in\n    tag_48:\n      mload(0x40)\n      tag_51\n      swap2\n      swap1\n      tag_32\n      jump\t// in\n    tag_51:\n      mload(0x40)\n      dup1\n      swap2\n      sub\n      swap1\n      return\n        /* \"https://github.com/OpenZeppelin/openzeppelin-contracts/blob/master/contracts/token/ERC20/ERC20.sol\":2688:2770  function decimals() public view virtual returns (uint8) {... */\n    tag_9:\n      tag_52\n      tag_53\n      jump\t// in\n    tag_52:\n      mload(0x40)\n      tag_54\n      swap2\n      swap1\n      tag_55\n      jump\t// in\n    tag_54:\n      mload(0x40)\n      dup1\n      swap2\n      sub\n      swap1\n      return\n        /* \"https://github.com/OpenZeppelin/openzeppelin-contracts/blob/master/contracts/token/ERC20/ERC20.sol\":2933:3049  function balanceOf(address account) public view virtual returns (uint256) {... */\n    tag_10:\n      tag_56\n      0x04\n      dup1\n      calldatasize\n      sub\n      dup2\n      add\n      swap1\n      tag_57\n      swap2\n      swap1\n      tag_58\n      jump\t// in\n    tag_57:\n      tag_59\n      jump\t// in\n    tag_56:\n      mload(0x40)\n      tag_60\n      swap2\n      swap1\n      tag_36\n      jump\t// in\n    tag_60:\n      mload(0x40)\n      dup1\n      swap2\n      sub\n      swap1\n      return\n        /* \"NapTx.sol\":1145:1192  mapping(bytes32 => bool) public deviceIdsUsados */\n    tag_11:\n      tag_61\n      0x04\n      dup1\n      calldatasize\n      sub\n      dup2\n      add\n      swap1\n      tag_62\n      swap2\n      swap1\n      tag_63\n      jump\t// in\n    tag_62:\n      tag_64\n      jump\t// in\n    tag_61:\n      mload(0x40)\n      tag_65\n      swap2\n      swap1\n      tag_32\n      jump\t// in\n    tag_65:\n      mload(0x40)\n      dup1\n      swap2\n      sub\n      swap1\n      return\n        /* \"https://github.com/OpenZeppelin/openzeppelin-contracts/blob/master/contracts/token/ERC20/ERC20.sol\":1962:2055  function symbol() public view virtual returns (string memory) {... */\n    tag_12:\n      tag_66\n      tag_67\n      jump\t// in\n    tag_66:\n      mload(0x40)\n      tag_68\n      swap2\n      swap1\n      tag_26\n      jump\t// in\n    tag_68:\n      mload(0x40)\n      dup1\n      swap2\n      sub\n      swap1\n      return\n        /* \"https://github.com/OpenZeppelin/openzeppelin-contracts/blob/master/contracts/token/ERC20/ERC20.sol\":3244:3422  function transfer(address to, uint256 value) public virtual returns (bool) {... */\n    tag_13:\n      tag_69\n      0x04\n      dup1\n      calldatasize\n      sub\n      dup2\n      add\n      swap1\n      tag_70\n      swap2\n      swap1\n      tag_29\n      jump\t// in\n    tag_70:\n      tag_71\n      jump\t// in\n    tag_69:\n      mload(0x40)\n      tag_72\n      swap2\n      swap1\n      tag_32\n      jump\t// in\n    tag_72:\n      mload(0x40)\n      dup1\n      swap2\n      sub\n      swap1\n      return\n        /* \"NapTx.sol\":3963:5267  function configurarWhitelist(address[] memory receptores, uint256[] calldata limites,uint256 timestamp, uint256 nonce, bytes calldata firma) external {... */\n    tag_14:\n      tag_73\n      0x04\n      dup1\n      calldatasize\n      sub\n      dup2\n      add\n      swap1\n      tag_74\n      swap2\n      swap1\n      tag_75\n      jump\t// in\n    tag_74:\n      tag_76\n      jump\t// in\n    tag_73:\n      stop\n        /* \"NapTx.sol\":965:1007  mapping(address => Emisor) public emisores */\n    tag_15:\n      tag_77\n      0x04\n      dup1\n      calldatasize\n      sub\n      dup2\n      add\n      swap1\n      tag_78\n      swap2\n      swap1\n      tag_58\n      jump\t// in\n    tag_78:\n      tag_79\n      jump\t// in\n    tag_77:\n      mload(0x40)\n      tag_80\n      swap6\n      swap5\n      swap4\n      swap3\n      swap2\n      swap1\n      tag_81\n      jump\t// in\n    tag_80:\n      mload(0x40)\n      dup1\n      swap2\n      sub\n      swap1\n      return\n        /* \"NapTx.sol\":216:265  uint256 public constant TIMEOUT_PAGO = 10 minutes */\n    tag_16:\n      tag_82\n      tag_83\n      jump\t// in\n    tag_82:\n      mload(0x40)\n      tag_84\n      swap2\n      swap1\n      tag_36\n      jump\t// in\n    tag_84:\n      mload(0x40)\n      dup1\n      swap2\n      sub\n      swap1\n      return\n        /* \"https://github.com/OpenZeppelin/openzeppelin-contracts/blob/master/contracts/token/ERC20/ERC20.sol\":3455:3595  function allowance(address owner, address spender) public view virtual returns (uint256) {... */\n    tag_17:\n      tag_85\n      0x04\n      dup1\n      calldatasize\n      sub\n      dup2\n      add\n      swap1\n      tag_86\n      swap2\n      swap1\n      tag_87\n      jump\t// in\n    tag_86:\n      tag_88\n      jump\t// in\n    tag_85:\n      mload(0x40)\n      tag_89\n      swap2\n      swap1\n      tag_36\n      jump\t// in\n    tag_89:\n      mload(0x40)\n      dup1\n      swap2\n      sub\n      swap1\n      return\n        /* \"NapTx.sol\":1013:1069  mapping(bytes32 => PagoPendiente) public pagosPendientes */\n    tag_18:\n      tag_90\n      0x04\n      dup1\n      calldatasize\n      sub\n      dup2\n      add\n      swap1\n      tag_91\n      swap2\n      swap1\n      tag_63\n      jump\t// in\n    tag_91:\n      tag_92\n      jump\t// in\n    tag_90:\n      mload(0x40)\n      tag_93\n      swap12\n      swap11\n      swap10\n      swap9\n      swap8\n      swap7\n      swap6\n      swap5\n      swap4\n      swap3\n      swap2\n      swap1\n      tag_94\n      jump\t// in\n    tag_93:\n      mload(0x40)\n      dup1\n      swap2\n      sub\n      swap1\n      return\n        /* \"NapTx.sol\":271:326  uint256 public constant TIMESTAMP_TOLERANCE = 5 minutes */\n    tag_19:\n      tag_95\n      tag_96\n      jump\t// in\n    tag_95:\n      mload(0x40)\n      tag_97\n      swap2\n      swap1\n      tag_36\n      jump\t// in\n    tag_97:\n      mload(0x40)\n      dup1\n      swap2\n      sub\n      swap1\n      return\n        /* \"https://github.com/OpenZeppelin/openzeppelin-contracts/blob/master/contracts/token/ERC20/ERC20.sol\":1760:1849  function name() public view virtual returns (string memory) {... */\n    tag_24:\n        /* \"https://github.com/OpenZeppelin/openzeppelin-contracts/blob/master/contracts/token/ERC20/ERC20.sol\":1805:1818  string memory */\n      0x60\n        /* \"https://github.com/OpenZeppelin/openzeppelin-contracts/blob/master/contracts/token/ERC20/ERC20.sol\":1837:1842  _name */\n      0x03\n        /* \"https://github.com/OpenZeppelin/openzeppelin-contracts/blob/master/contracts/token/ERC20/ERC20.sol\":1830:1842  return _name */\n      dup1\n      sload\n      tag_99\n      swap1\n      tag_100\n      jump\t// in\n    tag_99:\n      dup1\n      0x1f\n      add\n      0x20\n      dup1\n      swap2\n      div\n      mul\n      0x20\n      add\n      mload(0x40)\n      swap1\n      dup2\n      add\n      0x40\n      mstore\n      dup1\n      swap3\n      swap2\n      swap1\n      dup2\n      dup2\n      mstore\n      0x20\n      add\n      dup3\n      dup1\n      sload\n      tag_101\n      swap1\n      tag_100\n      jump\t// in\n    tag_101:\n      dup1\n      iszero\n      tag_102\n      jumpi\n      dup1\n      0x1f\n      lt\n      tag_103\n      jumpi\n      0x0100\n      dup1\n      dup4\n      sload\n      div\n      mul\n      dup4\n      mstore\n      swap2\n      0x20\n      add\n      swap2\n      jump(tag_102)\n    tag_103:\n      dup3\n      add\n      swap2\n      swap1\n      0x00\n      mstore\n      keccak256(0x00, 0x20)\n      swap1\n    tag_104:\n      dup2\n      sload\n      dup2\n      mstore\n      swap1\n      0x01\n      add\n      swap1\n      0x20\n      add\n      dup1\n      dup4\n      gt\n      tag_104\n      jumpi\n      dup3\n      swap1\n      sub\n      0x1f\n      and\n      dup3\n      add\n      swap2\n    tag_102:\n      pop\n      pop\n      pop\n      pop\n      pop\n      swap1\n      pop\n        /* \"https://github.com/OpenZeppelin/openzeppelin-contracts/blob/master/contracts/token/ERC20/ERC20.sol\":1760:1849  function name() public view virtual returns (string memory) {... */\n      swap1\n      jump\t// out\n        /* \"https://github.com/OpenZeppelin/openzeppelin-contracts/blob/master/contracts/token/ERC20/ERC20.sol\":3902:4088  function approve(address spender, uint256 value) public virtual returns (bool) {... */\n    tag_30:\n        /* \"https://github.com/OpenZeppelin/openzeppelin-contracts/blob/master/contracts/token/ERC20/ERC20.sol\":3975:3979  bool */\n      0x00\n        /* \"https://github.com/OpenZeppelin/openzeppelin-contracts/blob/master/contracts/token/ERC20/ERC20.sol\":3991:4004  address owner */\n      0x00\n        /* \"https://github.com/OpenZeppelin/openzeppelin-contracts/blob/master/contracts/token/ERC20/ERC20.sol\":4007:4019  _msgSender() */\n      tag_106\n        /* \"https://github.com/OpenZeppelin/openzeppelin-contracts/blob/master/contracts/token/ERC20/ERC20.sol\":4007:4017  _msgSender */\n      tag_107\n        /* \"https://github.com/OpenZeppelin/openzeppelin-contracts/blob/master/contracts/token/ERC20/ERC20.sol\":4007:4019  _msgSender() */\n      jump\t// in\n    tag_106:\n        /* \"https://github.com/OpenZeppelin/openzeppelin-contracts/blob/master/contracts/token/ERC20/ERC20.sol\":3991:4019  address owner = _msgSender() */\n      swap1\n      pop\n        /* \"https://github.com/OpenZeppelin/openzeppelin-contracts/blob/master/contracts/token/ERC20/ERC20.sol\":4029:4060  _approve(owner, spender, value) */\n      tag_108\n        /* \"https://github.com/OpenZeppelin/openzeppelin-contracts/blob/master/contracts/token/ERC20/ERC20.sol\":4038:4043  owner */\n      dup2\n        /* \"https://github.com/OpenZeppelin/openzeppelin-contracts/blob/master/contracts/token/ERC20/ERC20.sol\":4045:4052  spender */\n      dup6\n        /* \"https://github.com/OpenZeppelin/openzeppelin-contracts/blob/master/contracts/token/ERC20/ERC20.sol\":4054:4059  value */\n      dup6\n        /* \"https://github.com/OpenZeppelin/openzeppelin-contracts/blob/master/contracts/token/ERC20/ERC20.sol\":4029:4037  _approve */\n      tag_109\n        /* \"https://github.com/OpenZeppelin/openzeppelin-contracts/blob/master/contracts/token/ERC20/ERC20.sol\":4029:4060  _approve(owner, spender, value) */\n      jump\t// in\n    tag_108:\n        /* \"https://github.com/OpenZeppelin/openzeppelin-contracts/blob/master/contracts/token/ERC20/ERC20.sol\":4077:4081  true */\n      0x01\n        /* \"https://github.com/OpenZeppelin/openzeppelin-contracts/blob/master/contracts/token/ERC20/ERC20.sol\":4070:4081  return true */\n      swap2\n      pop\n      pop\n        /* \"https://github.com/OpenZeppelin/openzeppelin-contracts/blob/master/contracts/token/ERC20/ERC20.sol\":3902:4088  function approve(address spender, uint256 value) public virtual returns (bool) {... */\n      swap3\n      swap2\n      pop\n      pop\n      jump\t// out\n        /* \"https://github.com/OpenZeppelin/openzeppelin-contracts/blob/master/contracts/token/ERC20/ERC20.sol\":2803:2900  function totalSupply() public view virtual returns (uint256) {... */\n    tag_34:\n        /* \"https://github.com/OpenZeppelin/openzeppelin-contracts/blob/master/contracts/token/ERC20/ERC20.sol\":2855:2862  uint256 */\n      0x00\n        /* \"https://github.com/OpenZeppelin/openzeppelin-contracts/blob/master/contracts/token/ERC20/ERC20.sol\":2881:2893  _totalSupply */\n      sload(0x02)\n        /* \"https://github.com/OpenZeppelin/openzeppelin-contracts/blob/master/contracts/token/ERC20/ERC20.sol\":2874:2893  return _totalSupply */\n      swap1\n      pop\n        /* \"https://github.com/OpenZeppelin/openzeppelin-contracts/blob/master/contracts/token/ERC20/ERC20.sol\":2803:2900  function totalSupply() public view virtual returns (uint256) {... */\n      swap1\n      jump\t// out\n        /* \"NapTx.sol\":1463:2841  function registrar(bytes32 deviceId, uint256 timestamp, uint256 nonce, bytes calldata firma) external returns (bytes32 hashInicial){... */\n    tag_40:\n        /* \"NapTx.sol\":1574:1593  bytes32 hashInicial */\n      0x00\n        /* \"NapTx.sol\":1604:1618  address emisor */\n      0x00\n        /* \"NapTx.sol\":1621:1631  msg.sender */\n      caller\n        /* \"NapTx.sol\":1604:1631  address emisor = msg.sender */\n      swap1\n      pop\n        /* \"NapTx.sol\":1650:1658  emisores */\n      0x05\n        /* \"NapTx.sol\":1650:1666  emisores[emisor] */\n      0x00\n        /* \"NapTx.sol\":1659:1665  emisor */\n      dup3\n        /* \"NapTx.sol\":1650:1666  emisores[emisor] */\n      0xffffffffffffffffffffffffffffffffffffffff\n      and\n      0xffffffffffffffffffffffffffffffffffffffff\n      and\n      dup2\n      mstore\n      0x20\n      add\n      swap1\n      dup2\n      mstore\n      0x20\n      add\n      0x00\n      keccak256\n        /* \"NapTx.sol\":1650:1677  emisores[emisor].registrado */\n      0x04\n      add\n      0x00\n      swap1\n      sload\n      swap1\n      0x0100\n      exp\n      swap1\n      div\n      0xff\n      and\n        /* \"NapTx.sol\":1649:1677  !emisores[emisor].registrado */\n      iszero\n        /* \"NapTx.sol\":1641:1695  require(!emisores[emisor].registrado, \"Ya registrado\") */\n      tag_112\n      jumpi\n      mload(0x40)\n      0x08c379a000000000000000000000000000000000000000000000000000000000\n      dup2\n      mstore\n      0x04\n      add\n      tag_113\n      swap1\n      tag_114\n      jump\t// in\n    tag_113:\n      mload(0x40)\n      dup1\n      swap2\n      sub\n      swap1\n      revert\n    tag_112:\n        /* \"NapTx.sol\":1714:1729  deviceIdsUsados */\n      0x08\n        /* \"NapTx.sol\":1714:1739  deviceIdsUsados[deviceId] */\n      0x00\n        /* \"NapTx.sol\":1730:1738  deviceId */\n      dup9\n        /* \"NapTx.sol\":1714:1739  deviceIdsUsados[deviceId] */\n      dup2\n      mstore\n      0x20\n      add\n      swap1\n      dup2\n      mstore\n      0x20\n      add\n      0x00\n      keccak256\n      0x00\n      swap1\n      sload\n      swap1\n      0x0100\n      exp\n      swap1\n      div\n      0xff\n      and\n        /* \"NapTx.sol\":1713:1739  !deviceIdsUsados[deviceId] */\n      iszero\n        /* \"NapTx.sol\":1705:1759  require(!deviceIdsUsados[deviceId], \"Device ya usado\") */\n      tag_115\n      jumpi\n      mload(0x40)\n      0x08c379a000000000000000000000000000000000000000000000000000000000\n      dup2\n      mstore\n      0x04\n      add\n      tag_116\n      swap1\n      tag_117\n      jump\t// in\n    tag_116:\n      mload(0x40)\n      dup1\n      swap2\n      sub\n      swap1\n      revert\n    tag_115:\n        /* \"NapTx.sol\":317:326  5 minutes */\n      0x012c\n        /* \"NapTx.sol\":1796:1805  timestamp */\n      dup7\n        /* \"NapTx.sol\":1796:1826  timestamp +TIMESTAMP_TOLERANCE */\n      tag_118\n      swap2\n      swap1\n      tag_119\n      jump\t// in\n    tag_118:\n        /* \"NapTx.sol\":1777:1792  block.timestamp */\n      timestamp\n        /* \"NapTx.sol\":1777:1826  block.timestamp <= timestamp +TIMESTAMP_TOLERANCE */\n      gt\n      iszero\n        /* \"NapTx.sol\":1769:1849  require(block.timestamp <= timestamp +TIMESTAMP_TOLERANCE, \"Timestamp expirado\") */\n      tag_120\n      jumpi\n      mload(0x40)\n      0x08c379a000000000000000000000000000000000000000000000000000000000\n      dup2\n      mstore\n      0x04\n      add\n      tag_121\n      swap1\n      tag_122\n      jump\t// in\n    tag_121:\n      mload(0x40)\n      dup1\n      swap2\n      sub\n      swap1\n      revert\n    tag_120:\n        /* \"NapTx.sol\":1891:1906  bytes32 mensaje */\n      0x00\n        /* \"NapTx.sol\":1949:1955  emisor */\n      dup2\n        /* \"NapTx.sol\":1969:1977  deviceId */\n      dup9\n        /* \"NapTx.sol\":1991:2000  timestamp */\n      dup9\n        /* \"NapTx.sol\":2014:2019  nonce */\n      dup9\n        /* \"NapTx.sol\":1919:2029  abi.encodePacked(... */\n      add(0x20, mload(0x40))\n      tag_123\n      swap5\n      swap4\n      swap3\n      swap2\n      swap1\n      tag_124\n      jump\t// in\n    tag_123:\n      mload(0x40)\n      0x20\n      dup2\n      dup4\n      sub\n      sub\n      dup2\n      mstore\n      swap1\n      0x40\n      mstore\n        /* \"NapTx.sol\":1909:2030  keccak256(abi.encodePacked(... */\n      dup1\n      mload\n      swap1\n      0x20\n      add\n      keccak256\n        /* \"NapTx.sol\":1891:2030  bytes32 mensaje = keccak256(abi.encodePacked(... */\n      swap1\n      pop\n        /* \"NapTx.sol\":2041:2057  address firmante */\n      0x00\n        /* \"NapTx.sol\":2060:2093  recuperarFirmante(mensaje, firma) */\n      tag_125\n        /* \"NapTx.sol\":2078:2085  mensaje */\n      dup3\n        /* \"NapTx.sol\":2087:2092  firma */\n      dup8\n      dup8\n        /* \"NapTx.sol\":2060:2093  recuperarFirmante(mensaje, firma) */\n      dup1\n      dup1\n      0x1f\n      add\n      0x20\n      dup1\n      swap2\n      div\n      mul\n      0x20\n      add\n      mload(0x40)\n      swap1\n      dup2\n      add\n      0x40\n      mstore\n      dup1\n      swap4\n      swap3\n      swap2\n      swap1\n      dup2\n      dup2\n      mstore\n      0x20\n      add\n      dup4\n      dup4\n      dup1\n      dup3\n      dup5\n      calldatacopy\n      0x00\n      dup2\n      dup5\n      add\n      mstore\n      not(0x1f)\n      0x1f\n      dup3\n      add\n      and\n      swap1\n      pop\n      dup1\n      dup4\n      add\n      swap3\n      pop\n      pop\n      pop\n      pop\n      pop\n      pop\n      pop\n        /* \"NapTx.sol\":2060:2077  recuperarFirmante */\n      tag_126\n        /* \"NapTx.sol\":2060:2093  recuperarFirmante(mensaje, firma) */\n      jump\t// in\n    tag_125:\n        /* \"NapTx.sol\":2041:2093  address firmante = recuperarFirmante(mensaje, firma) */\n      swap1\n      pop\n        /* \"NapTx.sol\":2123:2129  emisor */\n      dup3\n        /* \"NapTx.sol\":2111:2129  firmante == emisor */\n      0xffffffffffffffffffffffffffffffffffffffff\n      and\n        /* \"NapTx.sol\":2111:2119  firmante */\n      dup2\n        /* \"NapTx.sol\":2111:2129  firmante == emisor */\n      0xffffffffffffffffffffffffffffffffffffffff\n      and\n      eq\n        /* \"NapTx.sol\":2103:2148  require(firmante == emisor, \"Firma invalida\") */\n      tag_127\n      jumpi\n      mload(0x40)\n      0x08c379a000000000000000000000000000000000000000000000000000000000\n      dup2\n      mstore\n      0x04\n      add\n      tag_128\n      swap1\n      tag_129\n      jump\t// in\n    tag_128:\n      mload(0x40)\n      dup1\n      swap2\n      sub\n      swap1\n      revert\n    tag_127:\n        /* \"NapTx.sol\":2244:2250  emisor */\n      dup3\n        /* \"NapTx.sol\":2264:2272  deviceId */\n      dup10\n        /* \"NapTx.sol\":2286:2301  block.timestamp */\n      timestamp\n        /* \"NapTx.sol\":2214:2334  abi.encodePacked(... */\n      add(0x20, mload(0x40))\n      tag_130\n      swap4\n      swap3\n      swap2\n      swap1\n      tag_131\n      jump\t// in\n    tag_130:\n      mload(0x40)\n      0x20\n      dup2\n      dup4\n      sub\n      sub\n      dup2\n      mstore\n      swap1\n      0x40\n      mstore\n        /* \"NapTx.sol\":2204:2335  keccak256(abi.encodePacked(... */\n      dup1\n      mload\n      swap1\n      0x20\n      add\n      keccak256\n        /* \"NapTx.sol\":2190:2335  hashInicial = keccak256(abi.encodePacked(... */\n      swap4\n      pop\n        /* \"NapTx.sol\":2404:2410  emisor */\n      dup3\n        /* \"NapTx.sol\":2371:2379  emisores */\n      0x05\n        /* \"NapTx.sol\":2371:2387  emisores[emisor] */\n      0x00\n        /* \"NapTx.sol\":2380:2386  emisor */\n      dup6\n        /* \"NapTx.sol\":2371:2387  emisores[emisor] */\n      0xffffffffffffffffffffffffffffffffffffffff\n      and\n      0xffffffffffffffffffffffffffffffffffffffff\n      and\n      dup2\n      mstore\n      0x20\n      add\n      swap1\n      dup2\n      mstore\n      0x20\n      add\n      0x00\n      keccak256\n        /* \"NapTx.sol\":2371:2401  emisores[emisor].walletAddress */\n      0x00\n      add\n      0x00\n        /* \"NapTx.sol\":2371:2410  emisores[emisor].walletAddress = emisor */\n      0x0100\n      exp\n      dup2\n      sload\n      dup2\n      0xffffffffffffffffffffffffffffffffffffffff\n      mul\n      not\n      and\n      swap1\n      dup4\n      0xffffffffffffffffffffffffffffffffffffffff\n      and\n      mul\n      or\n      swap1\n      sstore\n      pop\n        /* \"NapTx.sol\":2450:2461  hashInicial */\n      dup4\n        /* \"NapTx.sol\":2420:2428  emisores */\n      0x05\n        /* \"NapTx.sol\":2420:2436  emisores[emisor] */\n      0x00\n        /* \"NapTx.sol\":2429:2435  emisor */\n      dup6\n        /* \"NapTx.sol\":2420:2436  emisores[emisor] */\n      0xffffffffffffffffffffffffffffffffffffffff\n      and\n      0xffffffffffffffffffffffffffffffffffffffff\n      and\n      dup2\n      mstore\n      0x20\n      add\n      swap1\n      dup2\n      mstore\n      0x20\n      add\n      0x00\n      keccak256\n        /* \"NapTx.sol\":2420:2447  emisores[emisor].hashActual */\n      0x01\n      add\n        /* \"NapTx.sol\":2420:2461  emisores[emisor].hashActual = hashInicial */\n      dup2\n      swap1\n      sstore\n      pop\n        /* \"NapTx.sol\":2499:2507  deviceId */\n      dup9\n        /* \"NapTx.sol\":2471:2479  emisores */\n      0x05\n        /* \"NapTx.sol\":2471:2487  emisores[emisor] */\n      0x00\n        /* \"NapTx.sol\":2480:2486  emisor */\n      dup6\n        /* \"NapTx.sol\":2471:2487  emisores[emisor] */\n      0xffffffffffffffffffffffffffffffffffffffff\n      and\n      0xffffffffffffffffffffffffffffffffffffffff\n      and\n      dup2\n      mstore\n      0x20\n      add\n      swap1\n      dup2\n      mstore\n      0x20\n      add\n      0x00\n      keccak256\n        /* \"NapTx.sol\":2471:2496  emisores[emisor].deviceId */\n      0x05\n      add\n        /* \"NapTx.sol\":2471:2507  emisores[emisor].deviceId = deviceId */\n      dup2\n      swap1\n      sstore\n      pop\n        /* \"NapTx.sol\":2556:2557  0 */\n      0x00\n        /* \"NapTx.sol\":2517:2525  emisores */\n      0x05\n        /* \"NapTx.sol\":2517:2533  emisores[emisor] */\n      0x00\n        /* \"NapTx.sol\":2526:2532  emisor */\n      dup6\n        /* \"NapTx.sol\":2517:2533  emisores[emisor] */\n      0xffffffffffffffffffffffffffffffffffffffff\n      and\n      0xffffffffffffffffffffffffffffffffffffffff\n      and\n      dup2\n      mstore\n      0x20\n      add\n      swap1\n      dup2\n      mstore\n      0x20\n      add\n      0x00\n      keccak256\n        /* \"NapTx.sol\":2517:2553  emisores[emisor].timestampUltimoPago */\n      0x03\n      add\n        /* \"NapTx.sol\":2517:2557  emisores[emisor].timestampUltimoPago = 0 */\n      dup2\n      swap1\n      sstore\n      pop\n        /* \"NapTx.sol\":2597:2601  true */\n      0x01\n        /* \"NapTx.sol\":2567:2575  emisores */\n      0x05\n        /* \"NapTx.sol\":2567:2583  emisores[emisor] */\n      0x00\n        /* \"NapTx.sol\":2576:2582  emisor */\n      dup6\n        /* \"NapTx.sol\":2567:2583  emisores[emisor] */\n      0xffffffffffffffffffffffffffffffffffffffff\n      and\n      0xffffffffffffffffffffffffffffffffffffffff\n      and\n      dup2\n      mstore\n      0x20\n      add\n      swap1\n      dup2\n      mstore\n      0x20\n      add\n      0x00\n      keccak256\n        /* \"NapTx.sol\":2567:2594  emisores[emisor].registrado */\n      0x04\n      add\n      0x00\n        /* \"NapTx.sol\":2567:2601  emisores[emisor].registrado = true */\n      0x0100\n      exp\n      dup2\n      sload\n      dup2\n      0xff\n      mul\n      not\n      and\n      swap1\n      dup4\n      iszero\n      iszero\n      mul\n      or\n      swap1\n      sstore\n      pop\n        /* \"NapTx.sol\":2669:2673  true */\n      0x01\n        /* \"NapTx.sol\":2641:2656  deviceIdsUsados */\n      0x08\n        /* \"NapTx.sol\":2641:2666  deviceIdsUsados[deviceId] */\n      0x00\n        /* \"NapTx.sol\":2657:2665  deviceId */\n      dup12\n        /* \"NapTx.sol\":2641:2666  deviceIdsUsados[deviceId] */\n      dup2\n      mstore\n      0x20\n      add\n      swap1\n      dup2\n      mstore\n      0x20\n      add\n      0x00\n      keccak256\n      0x00\n        /* \"NapTx.sol\":2641:2673  deviceIdsUsados[deviceId] = true */\n      0x0100\n      exp\n      dup2\n      sload\n      dup2\n      0xff\n      mul\n      not\n      and\n      swap1\n      dup4\n      iszero\n      iszero\n      mul\n      or\n      swap1\n      sstore\n      pop\n        /* \"NapTx.sol\":2713:2717  true */\n      0x01\n        /* \"NapTx.sol\":2683:2695  noncesUsados */\n      0x07\n        /* \"NapTx.sol\":2683:2703  noncesUsados[emisor] */\n      0x00\n        /* \"NapTx.sol\":2696:2702  emisor */\n      dup6\n        /* \"NapTx.sol\":2683:2703  noncesUsados[emisor] */\n      0xffffffffffffffffffffffffffffffffffffffff\n      and\n      0xffffffffffffffffffffffffffffffffffffffff\n      and\n      dup2\n      mstore\n      0x20\n      add\n      swap1\n      dup2\n      mstore\n      0x20\n      add\n      0x00\n      keccak256\n        /* \"NapTx.sol\":2683:2710  noncesUsados[emisor][nonce] */\n      0x00\n        /* \"NapTx.sol\":2704:2709  nonce */\n      dup10\n        /* \"NapTx.sol\":2683:2710  noncesUsados[emisor][nonce] */\n      dup2\n      mstore\n      0x20\n      add\n      swap1\n      dup2\n      mstore\n      0x20\n      add\n      0x00\n      keccak256\n      0x00\n        /* \"NapTx.sol\":2683:2717  noncesUsados[emisor][nonce] = true */\n      0x0100\n      exp\n      dup2\n      sload\n      dup2\n      0xff\n      mul\n      not\n      and\n      swap1\n      dup4\n      iszero\n      iszero\n      mul\n      or\n      swap1\n      sstore\n      pop\n        /* \"NapTx.sol\":2750:2756  emisor */\n      dup3\n        /* \"NapTx.sol\":2733:2797  EmisorRegistrado(emisor, deviceId, hashInicial, block.timestamp) */\n      0xffffffffffffffffffffffffffffffffffffffff\n      and\n      0x33ee050b57a9d4230ce40c33cffd55a1210af20d6915c2d690b821d8a3822343\n        /* \"NapTx.sol\":2758:2766  deviceId */\n      dup11\n        /* \"NapTx.sol\":2768:2779  hashInicial */\n      dup7\n        /* \"NapTx.sol\":2781:2796  block.timestamp */\n      timestamp\n        /* \"NapTx.sol\":2733:2797  EmisorRegistrado(emisor, deviceId, hashInicial, block.timestamp) */\n      mload(0x40)\n      tag_132\n      swap4\n      swap3\n      swap2\n      swap1\n      tag_133\n      jump\t// in\n    tag_132:\n      mload(0x40)\n      dup1\n      swap2\n      sub\n      swap1\n      log2\n        /* \"NapTx.sol\":2810:2828  return hashInicial */\n      pop\n      pop\n      pop\n        /* \"NapTx.sol\":1463:2841  function registrar(bytes32 deviceId, uint256 timestamp, uint256 nonce, bytes calldata firma) external returns (bytes32 hashInicial){... */\n      swap6\n      swap5\n      pop\n      pop\n      pop\n      pop\n      pop\n      jump\t// out\n        /* \"https://github.com/OpenZeppelin/openzeppelin-contracts/blob/master/contracts/token/ERC20/ERC20.sol\":4680:4924  function transferFrom(address from, address to, uint256 value) public virtual returns (bool) {... */\n    tag_46:\n        /* \"https://github.com/OpenZeppelin/openzeppelin-contracts/blob/master/contracts/token/ERC20/ERC20.sol\":4767:4771  bool */\n      0x00\n        /* \"https://github.com/OpenZeppelin/openzeppelin-contracts/blob/master/contracts/token/ERC20/ERC20.sol\":4783:4798  address spender */\n      0x00\n        /* \"https://github.com/OpenZeppelin/openzeppelin-contracts/blob/master/contracts/token/ERC20/ERC20.sol\":4801:4813  _msgSender() */\n      tag_135\n        /* \"https://github.com/OpenZeppelin/openzeppelin-contracts/blob/master/contracts/token/ERC20/ERC20.sol\":4801:4811  _msgSender */\n      tag_107\n        /* \"https://github.com/OpenZeppelin/openzeppelin-contracts/blob/master/contracts/token/ERC20/ERC20.sol\":4801:4813  _msgSender() */\n      jump\t// in\n    tag_135:\n        /* \"https://github.com/OpenZeppelin/openzeppelin-contracts/blob/master/contracts/token/ERC20/ERC20.sol\":4783:4813  address spender = _msgSender() */\n      swap1\n      pop\n        /* \"https://github.com/OpenZeppelin/openzeppelin-contracts/blob/master/contracts/token/ERC20/ERC20.sol\":4823:4860  _spendAllowance(from, spender, value) */\n      tag_136\n        /* \"https://github.com/OpenZeppelin/openzeppelin-contracts/blob/master/contracts/token/ERC20/ERC20.sol\":4839:4843  from */\n      dup6\n        /* \"https://github.com/OpenZeppelin/openzeppelin-contracts/blob/master/contracts/token/ERC20/ERC20.sol\":4845:4852  spender */\n      dup3\n        /* \"https://github.com/OpenZeppelin/openzeppelin-contracts/blob/master/contracts/token/ERC20/ERC20.sol\":4854:4859  value */\n      dup6\n        /* \"https://github.com/OpenZeppelin/openzeppelin-contracts/blob/master/contracts/token/ERC20/ERC20.sol\":4823:4838  _spendAllowance */\n      tag_137\n        /* \"https://github.com/OpenZeppelin/openzeppelin-contracts/blob/master/contracts/token/ERC20/ERC20.sol\":4823:4860  _spendAllowance(from, spender, value) */\n      jump\t// in\n    tag_136:\n        /* \"https://github.com/OpenZeppelin/openzeppelin-contracts/blob/master/contracts/token/ERC20/ERC20.sol\":4870:4896  _transfer(from, to, value) */\n      tag_138\n        /* \"https://github.com/OpenZeppelin/openzeppelin-contracts/blob/master/contracts/token/ERC20/ERC20.sol\":4880:4884  from */\n      dup6\n        /* \"https://github.com/OpenZeppelin/openzeppelin-contracts/blob/master/contracts/token/ERC20/ERC20.sol\":4886:4888  to */\n      dup6\n        /* \"https://github.com/OpenZeppelin/openzeppelin-contracts/blob/master/contracts/token/ERC20/ERC20.sol\":4890:4895  value */\n      dup6\n        /* \"https://github.com/OpenZeppelin/openzeppelin-contracts/blob/master/contracts/token/ERC20/ERC20.sol\":4870:4879  _transfer */\n      tag_139\n        /* \"https://github.com/OpenZeppelin/openzeppelin-contracts/blob/master/contracts/token/ERC20/ERC20.sol\":4870:4896  _transfer(from, to, value) */\n      jump\t// in\n    tag_138:\n        /* \"https://github.com/OpenZeppelin/openzeppelin-contracts/blob/master/contracts/token/ERC20/ERC20.sol\":4913:4917  true */\n      0x01\n        /* \"https://github.com/OpenZeppelin/openzeppelin-contracts/blob/master/contracts/token/ERC20/ERC20.sol\":4906:4917  return true */\n      swap2\n      pop\n      pop\n        /* \"https://github.com/OpenZeppelin/openzeppelin-contracts/blob/master/contracts/token/ERC20/ERC20.sol\":4680:4924  function transferFrom(address from, address to, uint256 value) public virtual returns (bool) {... */\n      swap4\n      swap3\n      pop\n      pop\n      pop\n      jump\t// out\n        /* \"NapTx.sol\":1075:1139  mapping(address => mapping(uint256 => bool)) public noncesUsados */\n    tag_50:\n      mstore(0x20, 0x07)\n      dup2\n      0x00\n      mstore\n      mstore(0x20, keccak256(0x00, 0x40))\n      dup1\n      0x00\n      mstore\n      keccak256(0x00, 0x40)\n      0x00\n      swap2\n      pop\n      swap2\n      pop\n      swap1\n      sload\n      swap1\n      0x0100\n      exp\n      swap1\n      div\n      0xff\n      and\n      dup2\n      jump\t// out\n        /* \"https://github.com/OpenZeppelin/openzeppelin-contracts/blob/master/contracts/token/ERC20/ERC20.sol\":2688:2770  function decimals() public view virtual returns (uint8) {... */\n    tag_53:\n        /* \"https://github.com/OpenZeppelin/openzeppelin-contracts/blob/master/contracts/token/ERC20/ERC20.sol\":2737:2742  uint8 */\n      0x00\n        /* \"https://github.com/OpenZeppelin/openzeppelin-contracts/blob/master/contracts/token/ERC20/ERC20.sol\":2761:2763  18 */\n      0x12\n        /* \"https://github.com/OpenZeppelin/openzeppelin-contracts/blob/master/contracts/token/ERC20/ERC20.sol\":2754:2763  return 18 */\n      swap1\n      pop\n        /* \"https://github.com/OpenZeppelin/openzeppelin-contracts/blob/master/contracts/token/ERC20/ERC20.sol\":2688:2770  function decimals() public view virtual returns (uint8) {... */\n      swap1\n      jump\t// out\n        /* \"https://github.com/OpenZeppelin/openzeppelin-contracts/blob/master/contracts/token/ERC20/ERC20.sol\":2933:3049  function balanceOf(address account) public view virtual returns (uint256) {... */\n    tag_59:\n        /* \"https://github.com/OpenZeppelin/openzeppelin-contracts/blob/master/contracts/token/ERC20/ERC20.sol\":2998:3005  uint256 */\n      0x00\n        /* \"https://github.com/OpenZeppelin/openzeppelin-contracts/blob/master/contracts/token/ERC20/ERC20.sol\":3024:3033  _balances */\n      0x00\n        /* \"https://github.com/OpenZeppelin/openzeppelin-contracts/blob/master/contracts/token/ERC20/ERC20.sol\":3024:3042  _balances[account] */\n      0x00\n        /* \"https://github.com/OpenZeppelin/openzeppelin-contracts/blob/master/contracts/token/ERC20/ERC20.sol\":3034:3041  account */\n      dup4\n        /* \"https://github.com/OpenZeppelin/openzeppelin-contracts/blob/master/contracts/token/ERC20/ERC20.sol\":3024:3042  _balances[account] */\n      0xffffffffffffffffffffffffffffffffffffffff\n      and\n      0xffffffffffffffffffffffffffffffffffffffff\n      and\n      dup2\n      mstore\n      0x20\n      add\n      swap1\n      dup2\n      mstore\n      0x20\n      add\n      0x00\n      keccak256\n      sload\n        /* \"https://github.com/OpenZeppelin/openzeppelin-contracts/blob/master/contracts/token/ERC20/ERC20.sol\":3017:3042  return _balances[account] */\n      swap1\n      pop\n        /* \"https://github.com/OpenZeppelin/openzeppelin-contracts/blob/master/contracts/token/ERC20/ERC20.sol\":2933:3049  function balanceOf(address account) public view virtual returns (uint256) {... */\n      swap2\n      swap1\n      pop\n      jump\t// out\n        /* \"NapTx.sol\":1145:1192  mapping(bytes32 => bool) public deviceIdsUsados */\n    tag_64:\n      mstore(0x20, 0x08)\n      dup1\n      0x00\n      mstore\n      keccak256(0x00, 0x40)\n      0x00\n      swap2\n      pop\n      sload\n      swap1\n      0x0100\n      exp\n      swap1\n      div\n      0xff\n      and\n      dup2\n      jump\t// out\n        /* \"https://github.com/OpenZeppelin/openzeppelin-contracts/blob/master/contracts/token/ERC20/ERC20.sol\":1962:2055  function symbol() public view virtual returns (string memory) {... */\n    tag_67:\n        /* \"https://github.com/OpenZeppelin/openzeppelin-contracts/blob/master/contracts/token/ERC20/ERC20.sol\":2009:2022  string memory */\n      0x60\n        /* \"https://github.com/OpenZeppelin/openzeppelin-contracts/blob/master/contracts/token/ERC20/ERC20.sol\":2041:2048  _symbol */\n      0x04\n        /* \"https://github.com/OpenZeppelin/openzeppelin-contracts/blob/master/contracts/token/ERC20/ERC20.sol\":2034:2048  return _symbol */\n      dup1\n      sload\n      tag_143\n      swap1\n      tag_100\n      jump\t// in\n    tag_143:\n      dup1\n      0x1f\n      add\n      0x20\n      dup1\n      swap2\n      div\n      mul\n      0x20\n      add\n      mload(0x40)\n      swap1\n      dup2\n      add\n      0x40\n      mstore\n      dup1\n      swap3\n      swap2\n      swap1\n      dup2\n      dup2\n      mstore\n      0x20\n      add\n      dup3\n      dup1\n      sload\n      tag_144\n      swap1\n      tag_100\n      jump\t// in\n    tag_144:\n      dup1\n      iszero\n      tag_145\n      jumpi\n      dup1\n      0x1f\n      lt\n      tag_146\n      jumpi\n      0x0100\n      dup1\n      dup4\n      sload\n      div\n      mul\n      dup4\n      mstore\n      swap2\n      0x20\n      add\n      swap2\n      jump(tag_145)\n    tag_146:\n      dup3\n      add\n      swap2\n      swap1\n      0x00\n      mstore\n      keccak256(0x00, 0x20)\n      swap1\n    tag_147:\n      dup2\n      sload\n      dup2\n      mstore\n      swap1\n      0x01\n      add\n      swap1\n      0x20\n      add\n      dup1\n      dup4\n      gt\n      tag_147\n      jumpi\n      dup3\n      swap1\n      sub\n      0x1f\n      and\n      dup3\n      add\n      swap2\n    tag_145:\n      pop\n      pop\n      pop\n      pop\n      pop\n      swap1\n      pop\n        /* \"https://github.com/OpenZeppelin/openzeppelin-contracts/blob/master/contracts/token/ERC20/ERC20.sol\":1962:2055  function symbol() public view virtual returns (string memory) {... */\n      swap1\n      jump\t// out\n        /* \"https://github.com/OpenZeppelin/openzeppelin-contracts/blob/master/contracts/token/ERC20/ERC20.sol\":3244:3422  function transfer(address to, uint256 value) public virtual returns (bool) {... */\n    tag_71:\n        /* \"https://github.com/OpenZeppelin/openzeppelin-contracts/blob/master/contracts/token/ERC20/ERC20.sol\":3313:3317  bool */\n      0x00\n        /* \"https://github.com/OpenZeppelin/openzeppelin-contracts/blob/master/contracts/token/ERC20/ERC20.sol\":3329:3342  address owner */\n      0x00\n        /* \"https://github.com/OpenZeppelin/openzeppelin-contracts/blob/master/contracts/token/ERC20/ERC20.sol\":3345:3357  _msgSender() */\n      tag_149\n        /* \"https://github.com/OpenZeppelin/openzeppelin-contracts/blob/master/contracts/token/ERC20/ERC20.sol\":3345:3355  _msgSender */\n      tag_107\n        /* \"https://github.com/OpenZeppelin/openzeppelin-contracts/blob/master/contracts/token/ERC20/ERC20.sol\":3345:3357  _msgSender() */\n      jump\t// in\n    tag_149:\n        /* \"https://github.com/OpenZeppelin/openzeppelin-contracts/blob/master/contracts/token/ERC20/ERC20.sol\":3329:3357  address owner = _msgSender() */\n      swap1\n      pop\n        /* \"https://github.com/OpenZeppelin/openzeppelin-contracts/blob/master/contracts/token/ERC20/ERC20.sol\":3367:3394  _transfer(owner, to, value) */\n      tag_150\n        /* \"https://github.com/OpenZeppelin/openzeppelin-contracts/blob/master/contracts/token/ERC20/ERC20.sol\":3377:3382  owner */\n      dup2\n        /* \"https://github.com/OpenZeppelin/openzeppelin-contracts/blob/master/contracts/token/ERC20/ERC20.sol\":3384:3386  to */\n      dup6\n        /* \"https://github.com/OpenZeppelin/openzeppelin-contracts/blob/master/contracts/token/ERC20/ERC20.sol\":3388:3393  value */\n      dup6\n        /* \"https://github.com/OpenZeppelin/openzeppelin-contracts/blob/master/contracts/token/ERC20/ERC20.sol\":3367:3376  _transfer */\n      tag_139\n        /* \"https://github.com/OpenZeppelin/openzeppelin-contracts/blob/master/contracts/token/ERC20/ERC20.sol\":3367:3394  _transfer(owner, to, value) */\n      jump\t// in\n    tag_150:\n        /* \"https://github.com/OpenZeppelin/openzeppelin-contracts/blob/master/contracts/token/ERC20/ERC20.sol\":3411:3415  true */\n      0x01\n        /* \"https://github.com/OpenZeppelin/openzeppelin-contracts/blob/master/contracts/token/ERC20/ERC20.sol\":3404:3415  return true */\n      swap2\n      pop\n      pop\n        /* \"https://github.com/OpenZeppelin/openzeppelin-contracts/blob/master/contracts/token/ERC20/ERC20.sol\":3244:3422  function transfer(address to, uint256 value) public virtual returns (bool) {... */\n      swap3\n      swap2\n      pop\n      pop\n      jump\t// out\n        /* \"NapTx.sol\":3963:5267  function configurarWhitelist(address[] memory receptores, uint256[] calldata limites,uint256 timestamp, uint256 nonce, bytes calldata firma) external {... */\n    tag_76:\n        /* \"NapTx.sol\":4123:4137  address emisor */\n      0x00\n        /* \"NapTx.sol\":4140:4150  msg.sender */\n      caller\n        /* \"NapTx.sol\":4123:4150  address emisor = msg.sender */\n      swap1\n      pop\n        /* \"NapTx.sol\":4169:4177  emisores */\n      0x05\n        /* \"NapTx.sol\":4169:4185  emisores[emisor] */\n      0x00\n        /* \"NapTx.sol\":4178:4184  emisor */\n      dup3\n        /* \"NapTx.sol\":4169:4185  emisores[emisor] */\n      0xffffffffffffffffffffffffffffffffffffffff\n      and\n      0xffffffffffffffffffffffffffffffffffffffff\n      and\n      dup2\n      mstore\n      0x20\n      add\n      swap1\n      dup2\n      mstore\n      0x20\n      add\n      0x00\n      keccak256\n        /* \"NapTx.sol\":4169:4196  emisores[emisor].registrado */\n      0x04\n      add\n      0x00\n      swap1\n      sload\n      swap1\n      0x0100\n      exp\n      swap1\n      div\n      0xff\n      and\n        /* \"NapTx.sol\":4161:4214  require(emisores[emisor].registrado, \"No registrado\") */\n      tag_152\n      jumpi\n      mload(0x40)\n      0x08c379a000000000000000000000000000000000000000000000000000000000\n      dup2\n      mstore\n      0x04\n      add\n      tag_153\n      swap1\n      tag_154\n      jump\t// in\n    tag_153:\n      mload(0x40)\n      dup1\n      swap2\n      sub\n      swap1\n      revert\n    tag_152:\n        /* \"NapTx.sol\":4253:4260  limites */\n      dup7\n      dup7\n        /* \"NapTx.sol\":4253:4267  limites.length */\n      swap1\n      pop\n        /* \"NapTx.sol\":4232:4242  receptores */\n      dup9\n        /* \"NapTx.sol\":4232:4249  receptores.length */\n      mload\n        /* \"NapTx.sol\":4232:4267  receptores.length == limites.length */\n      eq\n        /* \"NapTx.sol\":4224:4293  require(receptores.length == limites.length, \"Longitudes diferentes\") */\n      tag_155\n      jumpi\n      mload(0x40)\n      0x08c379a000000000000000000000000000000000000000000000000000000000\n      dup2\n      mstore\n      0x04\n      add\n      tag_156\n      swap1\n      tag_157\n      jump\t// in\n    tag_156:\n      mload(0x40)\n      dup1\n      swap2\n      sub\n      swap1\n      revert\n    tag_155:\n        /* \"NapTx.sol\":317:326  5 minutes */\n      0x012c\n        /* \"NapTx.sol\":4330:4339  timestamp */\n      dup6\n        /* \"NapTx.sol\":4330:4361  timestamp + TIMESTAMP_TOLERANCE */\n      tag_158\n      swap2\n      swap1\n      tag_119\n      jump\t// in\n    tag_158:\n        /* \"NapTx.sol\":4311:4326  block.timestamp */\n      timestamp\n        /* \"NapTx.sol\":4311:4361  block.timestamp <= timestamp + TIMESTAMP_TOLERANCE */\n      gt\n      iszero\n        /* \"NapTx.sol\":4303:4384  require(block.timestamp <= timestamp + TIMESTAMP_TOLERANCE, \"Timestamp expirado\") */\n      tag_159\n      jumpi\n      mload(0x40)\n      0x08c379a000000000000000000000000000000000000000000000000000000000\n      dup2\n      mstore\n      0x04\n      add\n      tag_160\n      swap1\n      tag_122\n      jump\t// in\n    tag_160:\n      mload(0x40)\n      dup1\n      swap2\n      sub\n      swap1\n      revert\n    tag_159:\n        /* \"NapTx.sol\":4403:4415  noncesUsados */\n      0x07\n        /* \"NapTx.sol\":4403:4423  noncesUsados[emisor] */\n      0x00\n        /* \"NapTx.sol\":4416:4422  emisor */\n      dup3\n        /* \"NapTx.sol\":4403:4423  noncesUsados[emisor] */\n      0xffffffffffffffffffffffffffffffffffffffff\n      and\n      0xffffffffffffffffffffffffffffffffffffffff\n      and\n      dup2\n      mstore\n      0x20\n      add\n      swap1\n      dup2\n      mstore\n      0x20\n      add\n      0x00\n      keccak256\n        /* \"NapTx.sol\":4403:4430  noncesUsados[emisor][nonce] */\n      0x00\n        /* \"NapTx.sol\":4424:4429  nonce */\n      dup6\n        /* \"NapTx.sol\":4403:4430  noncesUsados[emisor][nonce] */\n      dup2\n      mstore\n      0x20\n      add\n      swap1\n      dup2\n      mstore\n      0x20\n      add\n      0x00\n      keccak256\n      0x00\n      swap1\n      sload\n      swap1\n      0x0100\n      exp\n      swap1\n      div\n      0xff\n      and\n        /* \"NapTx.sol\":4402:4430  !noncesUsados[emisor][nonce] */\n      iszero\n        /* \"NapTx.sol\":4394:4449  require(!noncesUsados[emisor][nonce], \"Nonce ya usado\") */\n      tag_161\n      jumpi\n      mload(0x40)\n      0x08c379a000000000000000000000000000000000000000000000000000000000\n      dup2\n      mstore\n      0x04\n      add\n      tag_162\n      swap1\n      tag_163\n      jump\t// in\n    tag_162:\n      mload(0x40)\n      dup1\n      swap2\n      sub\n      swap1\n      revert\n    tag_161:\n        /* \"NapTx.sol\":4460:4475  bytes32 mensaje */\n      0x00\n        /* \"NapTx.sol\":4518:4528  receptores */\n      dup9\n        /* \"NapTx.sol\":4542:4549  limites */\n      dup9\n      dup9\n        /* \"NapTx.sol\":4563:4572  timestamp */\n      dup9\n        /* \"NapTx.sol\":4586:4591  nonce */\n      dup9\n        /* \"NapTx.sol\":4488:4601  abi.encodePacked(... */\n      add(0x20, mload(0x40))\n      tag_164\n      swap6\n      swap5\n      swap4\n      swap3\n      swap2\n      swap1\n      tag_165\n      jump\t// in\n    tag_164:\n      mload(0x40)\n      0x20\n      dup2\n      dup4\n      sub\n      sub\n      dup2\n      mstore\n      swap1\n      0x40\n      mstore\n        /* \"NapTx.sol\":4478:4602  keccak256(abi.encodePacked(... */\n      dup1\n      mload\n      swap1\n      0x20\n      add\n      keccak256\n        /* \"NapTx.sol\":4460:4602  bytes32 mensaje = keccak256(abi.encodePacked(... */\n      swap1\n      pop\n        /* \"NapTx.sol\":4613:4629  address firmante */\n      0x00\n        /* \"NapTx.sol\":4632:4665  recuperarFirmante(mensaje, firma) */\n      tag_166\n        /* \"NapTx.sol\":4650:4657  mensaje */\n      dup3\n        /* \"NapTx.sol\":4659:4664  firma */\n      dup7\n      dup7\n        /* \"NapTx.sol\":4632:4665  recuperarFirmante(mensaje, firma) */\n      dup1\n      dup1\n      0x1f\n      add\n      0x20\n      dup1\n      swap2\n      div\n      mul\n      0x20\n      add\n      mload(0x40)\n      swap1\n      dup2\n      add\n      0x40\n      mstore\n      dup1\n      swap4\n      swap3\n      swap2\n      swap1\n      dup2\n      dup2\n      mstore\n      0x20\n      add\n      dup4\n      dup4\n      dup1\n      dup3\n      dup5\n      calldatacopy\n      0x00\n      dup2\n      dup5\n      add\n      mstore\n      not(0x1f)\n      0x1f\n      dup3\n      add\n      and\n      swap1\n      pop\n      dup1\n      dup4\n      add\n      swap3\n      pop\n      pop\n      pop\n      pop\n      pop\n      pop\n      pop\n        /* \"NapTx.sol\":4632:4649  recuperarFirmante */\n      tag_126\n        /* \"NapTx.sol\":4632:4665  recuperarFirmante(mensaje, firma) */\n      jump\t// in\n    tag_166:\n        /* \"NapTx.sol\":4613:4665  address firmante = recuperarFirmante(mensaje, firma) */\n      swap1\n      pop\n        /* \"NapTx.sol\":4695:4701  emisor */\n      dup3\n        /* \"NapTx.sol\":4683:4701  firmante == emisor */\n      0xffffffffffffffffffffffffffffffffffffffff\n      and\n        /* \"NapTx.sol\":4683:4691  firmante */\n      dup2\n        /* \"NapTx.sol\":4683:4701  firmante == emisor */\n      0xffffffffffffffffffffffffffffffffffffffff\n      and\n      eq\n        /* \"NapTx.sol\":4675:4720  require(firmante == emisor, \"Firma invalida\") */\n      tag_167\n      jumpi\n      mload(0x40)\n      0x08c379a000000000000000000000000000000000000000000000000000000000\n      dup2\n      mstore\n      0x04\n      add\n      tag_168\n      swap1\n      tag_129\n      jump\t// in\n    tag_168:\n      mload(0x40)\n      dup1\n      swap2\n      sub\n      swap1\n      revert\n    tag_167:\n        /* \"NapTx.sol\":4731:4748  uint256 sumaTotal */\n      0x00\n        /* \"NapTx.sol\":4750:4751  0 */\n      0x00\n        /* \"NapTx.sol\":4731:4751  uint256 sumaTotal =0 */\n      swap1\n      pop\n        /* \"NapTx.sol\":4766:4772  uint i */\n      0x00\n        /* \"NapTx.sol\":4774:4775  0 */\n      0x00\n        /* \"NapTx.sol\":4766:4775  uint i =0 */\n      swap1\n      pop\n        /* \"NapTx.sol\":4761:4862  for (uint i =0; i < receptores.length; i++) ... */\n    tag_169:\n        /* \"NapTx.sol\":4781:4791  receptores */\n      dup12\n        /* \"NapTx.sol\":4781:4798  receptores.length */\n      mload\n        /* \"NapTx.sol\":4777:4778  i */\n      dup2\n        /* \"NapTx.sol\":4777:4798  i < receptores.length */\n      lt\n        /* \"NapTx.sol\":4761:4862  for (uint i =0; i < receptores.length; i++) ... */\n      iszero\n      tag_170\n      jumpi\n        /* \"NapTx.sol\":4841:4848  limites */\n      dup11\n      dup11\n        /* \"NapTx.sol\":4849:4850  i */\n      dup3\n        /* \"NapTx.sol\":4841:4851  limites[i] */\n      dup2\n      dup2\n      lt\n      tag_172\n      jumpi\n      tag_173\n      tag_174\n      jump\t// in\n    tag_173:\n    tag_172:\n      swap1\n      pop\n      0x20\n      mul\n      add\n      calldataload\n        /* \"NapTx.sol\":4828:4851  sumaTotal += limites[i] */\n      dup3\n      tag_175\n      swap2\n      swap1\n      tag_119\n      jump\t// in\n    tag_175:\n      swap2\n      pop\n        /* \"NapTx.sol\":4800:4803  i++ */\n      dup1\n      dup1\n      0x01\n      add\n      swap2\n      pop\n      pop\n        /* \"NapTx.sol\":4761:4862  for (uint i =0; i < receptores.length; i++) ... */\n      jump(tag_169)\n    tag_170:\n      pop\n        /* \"NapTx.sol\":4872:4895  uint256 allowanceActual */\n      0x00\n        /* \"NapTx.sol\":4898:4930  allowance(emisor, address(this)) */\n      tag_176\n        /* \"NapTx.sol\":4908:4914  emisor */\n      dup6\n        /* \"NapTx.sol\":4924:4928  this */\n      address\n        /* \"NapTx.sol\":4898:4907  allowance */\n      tag_88\n        /* \"NapTx.sol\":4898:4930  allowance(emisor, address(this)) */\n      jump\t// in\n    tag_176:\n        /* \"NapTx.sol\":4872:4930  uint256 allowanceActual = allowance(emisor, address(this)) */\n      swap1\n      pop\n        /* \"NapTx.sol\":4961:4976  allowanceActual */\n      dup1\n        /* \"NapTx.sol\":4948:4957  sumaTotal */\n      dup3\n        /* \"NapTx.sol\":4948:4976  sumaTotal <= allowanceActual */\n      gt\n      iszero\n        /* \"NapTx.sol\":4940:4997  require(sumaTotal <= allowanceActual, \"Suma > allowance\") */\n      tag_177\n      jumpi\n      mload(0x40)\n      0x08c379a000000000000000000000000000000000000000000000000000000000\n      dup2\n      mstore\n      0x04\n      add\n      tag_178\n      swap1\n      tag_179\n      jump\t// in\n    tag_178:\n      mload(0x40)\n      dup1\n      swap2\n      sub\n      swap1\n      revert\n    tag_177:\n        /* \"NapTx.sol\":5013:5019  uint i */\n      0x00\n        /* \"NapTx.sol\":5021:5022  0 */\n      0x00\n        /* \"NapTx.sol\":5013:5022  uint i =0 */\n      swap1\n      pop\n        /* \"NapTx.sol\":5008:5140  for (uint i =0; i < receptores.length; i++) ... */\n    tag_180:\n        /* \"NapTx.sol\":5028:5038  receptores */\n      dup13\n        /* \"NapTx.sol\":5028:5045  receptores.length */\n      mload\n        /* \"NapTx.sol\":5024:5025  i */\n      dup2\n        /* \"NapTx.sol\":5024:5045  i < receptores.length */\n      lt\n        /* \"NapTx.sol\":5008:5140  for (uint i =0; i < receptores.length; i++) ... */\n      iszero\n      tag_181\n      jumpi\n        /* \"NapTx.sol\":5119:5126  limites */\n      dup12\n      dup12\n        /* \"NapTx.sol\":5127:5128  i */\n      dup3\n        /* \"NapTx.sol\":5119:5129  limites[i] */\n      dup2\n      dup2\n      lt\n      tag_183\n      jumpi\n      tag_184\n      tag_174\n      jump\t// in\n    tag_184:\n    tag_183:\n      swap1\n      pop\n      0x20\n      mul\n      add\n      calldataload\n        /* \"NapTx.sol\":5075:5083  emisores */\n      0x05\n        /* \"NapTx.sol\":5075:5091  emisores[emisor] */\n      0x00\n        /* \"NapTx.sol\":5084:5090  emisor */\n      dup9\n        /* \"NapTx.sol\":5075:5091  emisores[emisor] */\n      0xffffffffffffffffffffffffffffffffffffffff\n      and\n      0xffffffffffffffffffffffffffffffffffffffff\n      and\n      dup2\n      mstore\n      0x20\n      add\n      swap1\n      dup2\n      mstore\n      0x20\n      add\n      0x00\n      keccak256\n        /* \"NapTx.sol\":5075:5101  emisores[emisor].whitelist */\n      0x02\n      add\n        /* \"NapTx.sol\":5075:5116  emisores[emisor].whitelist[receptores[i]] */\n      0x00\n        /* \"NapTx.sol\":5102:5112  receptores */\n      dup16\n        /* \"NapTx.sol\":5113:5114  i */\n      dup5\n        /* \"NapTx.sol\":5102:5115  receptores[i] */\n      dup2\n      mload\n      dup2\n      lt\n      tag_185\n      jumpi\n      tag_186\n      tag_174\n      jump\t// in\n    tag_186:\n    tag_185:\n      0x20\n      mul\n      0x20\n      add\n      add\n      mload\n        /* \"NapTx.sol\":5075:5116  emisores[emisor].whitelist[receptores[i]] */\n      0xffffffffffffffffffffffffffffffffffffffff\n      and\n      0xffffffffffffffffffffffffffffffffffffffff\n      and\n      dup2\n      mstore\n      0x20\n      add\n      swap1\n      dup2\n      mstore\n      0x20\n      add\n      0x00\n      keccak256\n        /* \"NapTx.sol\":5075:5129  emisores[emisor].whitelist[receptores[i]] = limites[i] */\n      dup2\n      swap1\n      sstore\n      pop\n        /* \"NapTx.sol\":5047:5050  i++ */\n      dup1\n      dup1\n      0x01\n      add\n      swap2\n      pop\n      pop\n        /* \"NapTx.sol\":5008:5140  for (uint i =0; i < receptores.length; i++) ... */\n      jump(tag_180)\n    tag_181:\n      pop\n        /* \"NapTx.sol\":5180:5184  true */\n      0x01\n        /* \"NapTx.sol\":5150:5162  noncesUsados */\n      0x07\n        /* \"NapTx.sol\":5150:5170  noncesUsados[emisor] */\n      0x00\n        /* \"NapTx.sol\":5163:5169  emisor */\n      dup8\n        /* \"NapTx.sol\":5150:5170  noncesUsados[emisor] */\n      0xffffffffffffffffffffffffffffffffffffffff\n      and\n      0xffffffffffffffffffffffffffffffffffffffff\n      and\n      dup2\n      mstore\n      0x20\n      add\n      swap1\n      dup2\n      mstore\n      0x20\n      add\n      0x00\n      keccak256\n        /* \"NapTx.sol\":5150:5177  noncesUsados[emisor][nonce] */\n      0x00\n        /* \"NapTx.sol\":5171:5176  nonce */\n      dup11\n        /* \"NapTx.sol\":5150:5177  noncesUsados[emisor][nonce] */\n      dup2\n      mstore\n      0x20\n      add\n      swap1\n      dup2\n      mstore\n      0x20\n      add\n      0x00\n      keccak256\n      0x00\n        /* \"NapTx.sol\":5150:5184  noncesUsados[emisor][nonce] = true */\n      0x0100\n      exp\n      dup2\n      sload\n      dup2\n      0xff\n      mul\n      not\n      and\n      swap1\n      dup4\n      iszero\n      iszero\n      mul\n      or\n      swap1\n      sstore\n      pop\n        /* \"NapTx.sol\":5221:5227  emisor */\n      dup5\n        /* \"NapTx.sol\":5200:5260  WhitelistConfigurada(emisor, receptores, limites, timestamp) */\n      0xffffffffffffffffffffffffffffffffffffffff\n      and\n      0x1350de0e499b0e4996f5ed7a5beb1c93ec8096be6d7375514726766b5dbd6bfc\n        /* \"NapTx.sol\":5229:5239  receptores */\n      dup14\n        /* \"NapTx.sol\":5241:5248  limites */\n      dup14\n      dup14\n        /* \"NapTx.sol\":5250:5259  timestamp */\n      dup14\n        /* \"NapTx.sol\":5200:5260  WhitelistConfigurada(emisor, receptores, limites, timestamp) */\n      mload(0x40)\n      tag_187\n      swap5\n      swap4\n      swap3\n      swap2\n      swap1\n      tag_188\n      jump\t// in\n    tag_187:\n      mload(0x40)\n      dup1\n      swap2\n      sub\n      swap1\n      log2\n        /* \"NapTx.sol\":4113:5267  {... */\n      pop\n      pop\n      pop\n      pop\n      pop\n        /* \"NapTx.sol\":3963:5267  function configurarWhitelist(address[] memory receptores, uint256[] calldata limites,uint256 timestamp, uint256 nonce, bytes calldata firma) external {... */\n      pop\n      pop\n      pop\n      pop\n      pop\n      pop\n      pop\n      jump\t// out\n        /* \"NapTx.sol\":965:1007  mapping(address => Emisor) public emisores */\n    tag_79:\n      mstore(0x20, 0x05)\n      dup1\n      0x00\n      mstore\n      keccak256(0x00, 0x40)\n      0x00\n      swap2\n      pop\n      swap1\n      pop\n      dup1\n      0x00\n      add\n      0x00\n      swap1\n      sload\n      swap1\n      0x0100\n      exp\n      swap1\n      div\n      0xffffffffffffffffffffffffffffffffffffffff\n      and\n      swap1\n      dup1\n      0x01\n      add\n      sload\n      swap1\n      dup1\n      0x03\n      add\n      sload\n      swap1\n      dup1\n      0x04\n      add\n      0x00\n      swap1\n      sload\n      swap1\n      0x0100\n      exp\n      swap1\n      div\n      0xff\n      and\n      swap1\n      dup1\n      0x05\n      add\n      sload\n      swap1\n      pop\n      dup6\n      jump\t// out\n        /* \"NapTx.sol\":216:265  uint256 public constant TIMEOUT_PAGO = 10 minutes */\n    tag_83:\n        /* \"NapTx.sol\":255:265  10 minutes */\n      0x0258\n        /* \"NapTx.sol\":216:265  uint256 public constant TIMEOUT_PAGO = 10 minutes */\n      dup2\n      jump\t// out\n        /* \"https://github.com/OpenZeppelin/openzeppelin-contracts/blob/master/contracts/token/ERC20/ERC20.sol\":3455:3595  function allowance(address owner, address spender) public view virtual returns (uint256) {... */\n    tag_88:\n        /* \"https://github.com/OpenZeppelin/openzeppelin-contracts/blob/master/contracts/token/ERC20/ERC20.sol\":3535:3542  uint256 */\n      0x00\n        /* \"https://github.com/OpenZeppelin/openzeppelin-contracts/blob/master/contracts/token/ERC20/ERC20.sol\":3561:3572  _allowances */\n      0x01\n        /* \"https://github.com/OpenZeppelin/openzeppelin-contracts/blob/master/contracts/token/ERC20/ERC20.sol\":3561:3579  _allowances[owner] */\n      0x00\n        /* \"https://github.com/OpenZeppelin/openzeppelin-contracts/blob/master/contracts/token/ERC20/ERC20.sol\":3573:3578  owner */\n      dup5\n        /* \"https://github.com/OpenZeppelin/openzeppelin-contracts/blob/master/contracts/token/ERC20/ERC20.sol\":3561:3579  _allowances[owner] */\n      0xffffffffffffffffffffffffffffffffffffffff\n      and\n      0xffffffffffffffffffffffffffffffffffffffff\n      and\n      dup2\n      mstore\n      0x20\n      add\n      swap1\n      dup2\n      mstore\n      0x20\n      add\n      0x00\n      keccak256\n        /* \"https://github.com/OpenZeppelin/openzeppelin-contracts/blob/master/contracts/token/ERC20/ERC20.sol\":3561:3588  _allowances[owner][spender] */\n      0x00\n        /* \"https://github.com/OpenZeppelin/openzeppelin-contracts/blob/master/contracts/token/ERC20/ERC20.sol\":3580:3587  spender */\n      dup4\n        /* \"https://github.com/OpenZeppelin/openzeppelin-contracts/blob/master/contracts/token/ERC20/ERC20.sol\":3561:3588  _allowances[owner][spender] */\n      0xffffffffffffffffffffffffffffffffffffffff\n      and\n      0xffffffffffffffffffffffffffffffffffffffff\n      and\n      dup2\n      mstore\n      0x20\n      add\n      swap1\n      dup2\n      mstore\n      0x20\n      add\n      0x00\n      keccak256\n      sload\n        /* \"https://github.com/OpenZeppelin/openzeppelin-contracts/blob/master/contracts/token/ERC20/ERC20.sol\":3554:3588  return _allowances[owner][spender] */\n      swap1\n      pop\n        /* \"https://github.com/OpenZeppelin/openzeppelin-contracts/blob/master/contracts/token/ERC20/ERC20.sol\":3455:3595  function allowance(address owner, address spender) public view virtual returns (uint256) {... */\n      swap3\n      swap2\n      pop\n      pop\n      jump\t// out\n        /* \"NapTx.sol\":1013:1069  mapping(bytes32 => PagoPendiente) public pagosPendientes */\n    tag_92:\n      mstore(0x20, 0x06)\n      dup1\n      0x00\n      mstore\n      keccak256(0x00, 0x40)\n      0x00\n      swap2\n      pop\n      swap1\n      pop\n      dup1\n      0x00\n      add\n      sload\n      swap1\n      dup1\n      0x01\n      add\n      0x00\n      swap1\n      sload\n      swap1\n      0x0100\n      exp\n      swap1\n      div\n      0xffffffffffffffffffffffffffffffffffffffff\n      and\n      swap1\n      dup1\n      0x02\n      add\n      0x00\n      swap1\n      sload\n      swap1\n      0x0100\n      exp\n      swap1\n      div\n      0xffffffffffffffffffffffffffffffffffffffff\n      and\n      swap1\n      dup1\n      0x03\n      add\n      sload\n      swap1\n      dup1\n      0x04\n      add\n      sload\n      swap1\n      dup1\n      0x05\n      add\n      sload\n      swap1\n      dup1\n      0x06\n      add\n      sload\n      swap1\n      dup1\n      0x07\n      add\n      sload\n      swap1\n      dup1\n      0x08\n      add\n      sload\n      swap1\n      dup1\n      0x09\n      add\n      0x00\n      swap1\n      sload\n      swap1\n      0x0100\n      exp\n      swap1\n      div\n      0xff\n      and\n      swap1\n      dup1\n      0x0a\n      add\n      sload\n      swap1\n      pop\n      dup12\n      jump\t// out\n        /* \"NapTx.sol\":271:326  uint256 public constant TIMESTAMP_TOLERANCE = 5 minutes */\n    tag_96:\n        /* \"NapTx.sol\":317:326  5 minutes */\n      0x012c\n        /* \"NapTx.sol\":271:326  uint256 public constant TIMESTAMP_TOLERANCE = 5 minutes */\n      dup2\n      jump\t// out\n        /* \"https://github.com/OpenZeppelin/openzeppelin-contracts/blob/master/contracts/utils/Context.sol\":656:752  function _msgSender() internal view virtual returns (address) {... */\n    tag_107:\n        /* \"https://github.com/OpenZeppelin/openzeppelin-contracts/blob/master/contracts/utils/Context.sol\":709:716  address */\n      0x00\n        /* \"https://github.com/OpenZeppelin/openzeppelin-contracts/blob/master/contracts/utils/Context.sol\":735:745  msg.sender */\n      caller\n        /* \"https://github.com/OpenZeppelin/openzeppelin-contracts/blob/master/contracts/utils/Context.sol\":728:745  return msg.sender */\n      swap1\n      pop\n        /* \"https://github.com/OpenZeppelin/openzeppelin-contracts/blob/master/contracts/utils/Context.sol\":656:752  function _msgSender() internal view virtual returns (address) {... */\n      swap1\n      jump\t// out\n        /* \"https://github.com/OpenZeppelin/openzeppelin-contracts/blob/master/contracts/token/ERC20/ERC20.sol\":8630:8758  function _approve(address owner, address spender, uint256 value) internal {... */\n    tag_109:\n        /* \"https://github.com/OpenZeppelin/openzeppelin-contracts/blob/master/contracts/token/ERC20/ERC20.sol\":8714:8751  _approve(owner, spender, value, true) */\n      tag_192\n        /* \"https://github.com/OpenZeppelin/openzeppelin-contracts/blob/master/contracts/token/ERC20/ERC20.sol\":8723:8728  owner */\n      dup4\n        /* \"https://github.com/OpenZeppelin/openzeppelin-contracts/blob/master/contracts/token/ERC20/ERC20.sol\":8730:8737  spender */\n      dup4\n        /* \"https://github.com/OpenZeppelin/openzeppelin-contracts/blob/master/contracts/token/ERC20/ERC20.sol\":8739:8744  value */\n      dup4\n        /* \"https://github.com/OpenZeppelin/openzeppelin-contracts/blob/master/contracts/token/ERC20/ERC20.sol\":8746:8750  true */\n      0x01\n        /* \"https://github.com/OpenZeppelin/openzeppelin-contracts/blob/master/contracts/token/ERC20/ERC20.sol\":8714:8722  _approve */\n      tag_193\n        /* \"https://github.com/OpenZeppelin/openzeppelin-contracts/blob/master/contracts/token/ERC20/ERC20.sol\":8714:8751  _approve(owner, spender, value, true) */\n      jump\t// in\n    tag_192:\n        /* \"https://github.com/OpenZeppelin/openzeppelin-contracts/blob/master/contracts/token/ERC20/ERC20.sol\":8630:8758  function _approve(address owner, address spender, uint256 value) internal {... */\n      pop\n      pop\n      pop\n      jump\t// out\n        /* \"NapTx.sol\":2937:3957  function recuperarFirmante(bytes32 mensaje, bytes memory firma) internal pure returns (address)... */\n    tag_126:\n        /* \"NapTx.sol\":3024:3031  address */\n      0x00\n        /* \"NapTx.sol\":3071:3073  65 */\n      0x41\n        /* \"NapTx.sol\":3055:3060  firma */\n      dup3\n        /* \"NapTx.sol\":3055:3067  firma.length */\n      mload\n        /* \"NapTx.sol\":3055:3073  firma.length == 65 */\n      eq\n        /* \"NapTx.sol\":3047:3092  require(firma.length == 65, \"Firma invalida\") */\n      tag_195\n      jumpi\n      mload(0x40)\n      0x08c379a000000000000000000000000000000000000000000000000000000000\n      dup2\n      mstore\n      0x04\n      add\n      tag_196\n      swap1\n      tag_129\n      jump\t// in\n    tag_196:\n      mload(0x40)\n      dup1\n      swap2\n      sub\n      swap1\n      revert\n    tag_195:\n        /* \"NapTx.sol\":3103:3112  bytes32 r */\n      0x00\n        /* \"NapTx.sol\":3122:3131  bytes32 s */\n      0x00\n        /* \"NapTx.sol\":3141:3148  uint8 v */\n      0x00\n        /* \"NapTx.sol\":3203:3205  32 */\n      0x20\n        /* \"NapTx.sol\":3197:3202  firma */\n      dup6\n        /* \"NapTx.sol\":3193:3206  add(firma,32) */\n      add\n        /* \"NapTx.sol\":3187:3207  mload(add(firma,32)) */\n      mload\n        /* \"NapTx.sol\":3182:3207  r := mload(add(firma,32)) */\n      swap3\n      pop\n        /* \"NapTx.sol\":3321:3323  64 */\n      0x40\n        /* \"NapTx.sol\":3315:3320  firma */\n      dup6\n        /* \"NapTx.sol\":3311:3324  add(firma,64) */\n      add\n        /* \"NapTx.sol\":3305:3325  mload(add(firma,64)) */\n      mload\n        /* \"NapTx.sol\":3300:3325  s := mload(add(firma,64)) */\n      swap2\n      pop\n        /* \"NapTx.sol\":3404:3406  96 */\n      0x60\n        /* \"NapTx.sol\":3397:3402  firma */\n      dup6\n        /* \"NapTx.sol\":3393:3407  add(firma, 96) */\n      add\n        /* \"NapTx.sol\":3387:3408  mload(add(firma, 96)) */\n      mload\n        /* \"NapTx.sol\":3385:3386  0 */\n      0x00\n        /* \"NapTx.sol\":3380:3409  byte(0,mload(add(firma, 96))) */\n      byte\n        /* \"NapTx.sol\":3375:3409  v := byte(0,mload(add(firma, 96))) */\n      swap1\n      pop\n        /* \"NapTx.sol\":3773:3775  27 */\n      0x1b\n        /* \"NapTx.sol\":3769:3770  v */\n      dup2\n        /* \"NapTx.sol\":3769:3775  v < 27 */\n      0xff\n      and\n      lt\n        /* \"NapTx.sol\":3765:3809  if (v < 27) {... */\n      iszero\n      tag_197\n      jumpi\n        /* \"NapTx.sol\":3796:3798  27 */\n      0x1b\n        /* \"NapTx.sol\":3791:3798  v += 27 */\n      dup2\n      tag_198\n      swap2\n      swap1\n      tag_199\n      jump\t// in\n    tag_198:\n      swap1\n      pop\n        /* \"NapTx.sol\":3765:3809  if (v < 27) {... */\n    tag_197:\n        /* \"NapTx.sol\":3832:3834  27 */\n      0x1b\n        /* \"NapTx.sol\":3827:3828  v */\n      dup2\n        /* \"NapTx.sol\":3827:3834  v == 27 */\n      0xff\n      and\n      eq\n        /* \"NapTx.sol\":3827:3845  v == 27 || v == 28 */\n      dup1\n      tag_200\n      jumpi\n      pop\n        /* \"NapTx.sol\":3843:3845  28 */\n      0x1c\n        /* \"NapTx.sol\":3838:3839  v */\n      dup2\n        /* \"NapTx.sol\":3838:3845  v == 28 */\n      0xff\n      and\n      eq\n        /* \"NapTx.sol\":3827:3845  v == 27 || v == 28 */\n    tag_200:\n        /* \"NapTx.sol\":3819:3860  require(v == 27 || v == 28, \"v invalido\") */\n      tag_201\n      jumpi\n      mload(0x40)\n      0x08c379a000000000000000000000000000000000000000000000000000000000\n      dup2\n      mstore\n      0x04\n      add\n      tag_202\n      swap1\n      tag_203\n      jump\t// in\n    tag_202:\n      mload(0x40)\n      dup1\n      swap2\n      sub\n      swap1\n      revert\n    tag_201:\n        /* \"NapTx.sol\":3923:3950  ecrecover(mensaje, v, r, s) */\n      0x01\n        /* \"NapTx.sol\":3933:3940  mensaje */\n      dup7\n        /* \"NapTx.sol\":3942:3943  v */\n      dup3\n        /* \"NapTx.sol\":3945:3946  r */\n      dup6\n        /* \"NapTx.sol\":3948:3949  s */\n      dup6\n        /* \"NapTx.sol\":3923:3950  ecrecover(mensaje, v, r, s) */\n      mload(0x40)\n      0x00\n      dup2\n      mstore\n      0x20\n      add\n      0x40\n      mstore\n      mload(0x40)\n      tag_204\n      swap5\n      swap4\n      swap3\n      swap2\n      swap1\n      tag_205\n      jump\t// in\n    tag_204:\n      0x20\n      mload(0x40)\n      0x20\n      dup2\n      sub\n      swap1\n      dup1\n      dup5\n      sub\n      swap1\n      dup6\n      gas\n      staticcall\n      iszero\n      dup1\n      iszero\n      tag_207\n      jumpi\n      returndatacopy(0x00, 0x00, returndatasize)\n      revert(0x00, returndatasize)\n    tag_207:\n      pop\n      pop\n      pop\n      mload(sub(mload(0x40), 0x20))\n        /* \"NapTx.sol\":3916:3950  return ecrecover(mensaje, v, r, s) */\n      swap4\n      pop\n      pop\n      pop\n      pop\n        /* \"NapTx.sol\":2937:3957  function recuperarFirmante(bytes32 mensaje, bytes memory firma) internal pure returns (address)... */\n      swap3\n      swap2\n      pop\n      pop\n      jump\t// out\n        /* \"https://github.com/OpenZeppelin/openzeppelin-contracts/blob/master/contracts/token/ERC20/ERC20.sol\":10321:10797  function _spendAllowance(address owner, address spender, uint256 value) internal virtual {... */\n    tag_137:\n        /* \"https://github.com/OpenZeppelin/openzeppelin-contracts/blob/master/contracts/token/ERC20/ERC20.sol\":10420:10444  uint256 currentAllowance */\n      0x00\n        /* \"https://github.com/OpenZeppelin/openzeppelin-contracts/blob/master/contracts/token/ERC20/ERC20.sol\":10447:10472  allowance(owner, spender) */\n      tag_209\n        /* \"https://github.com/OpenZeppelin/openzeppelin-contracts/blob/master/contracts/token/ERC20/ERC20.sol\":10457:10462  owner */\n      dup5\n        /* \"https://github.com/OpenZeppelin/openzeppelin-contracts/blob/master/contracts/token/ERC20/ERC20.sol\":10464:10471  spender */\n      dup5\n        /* \"https://github.com/OpenZeppelin/openzeppelin-contracts/blob/master/contracts/token/ERC20/ERC20.sol\":10447:10456  allowance */\n      tag_88\n        /* \"https://github.com/OpenZeppelin/openzeppelin-contracts/blob/master/contracts/token/ERC20/ERC20.sol\":10447:10472  allowance(owner, spender) */\n      jump\t// in\n    tag_209:\n        /* \"https://github.com/OpenZeppelin/openzeppelin-contracts/blob/master/contracts/token/ERC20/ERC20.sol\":10420:10472  uint256 currentAllowance = allowance(owner, spender) */\n      swap1\n      pop\n        /* \"https://github.com/OpenZeppelin/openzeppelin-contracts/blob/master/contracts/token/ERC20/ERC20.sol\":10505:10522  type(uint256).max */\n      0xffffffffffffffffffffffffffffffffffffffffffffffffffffffffffffffff\n        /* \"https://github.com/OpenZeppelin/openzeppelin-contracts/blob/master/contracts/token/ERC20/ERC20.sol\":10486:10502  currentAllowance */\n      dup2\n        /* \"https://github.com/OpenZeppelin/openzeppelin-contracts/blob/master/contracts/token/ERC20/ERC20.sol\":10486:10522  currentAllowance < type(uint256).max */\n      lt\n        /* \"https://github.com/OpenZeppelin/openzeppelin-contracts/blob/master/contracts/token/ERC20/ERC20.sol\":10482:10791  if (currentAllowance < type(uint256).max) {... */\n      iszero\n      tag_210\n      jumpi\n        /* \"https://github.com/OpenZeppelin/openzeppelin-contracts/blob/master/contracts/token/ERC20/ERC20.sol\":10561:10566  value */\n      dup2\n        /* \"https://github.com/OpenZeppelin/openzeppelin-contracts/blob/master/contracts/token/ERC20/ERC20.sol\":10542:10558  currentAllowance */\n      dup2\n        /* \"https://github.com/OpenZeppelin/openzeppelin-contracts/blob/master/contracts/token/ERC20/ERC20.sol\":10542:10566  currentAllowance < value */\n      lt\n        /* \"https://github.com/OpenZeppelin/openzeppelin-contracts/blob/master/contracts/token/ERC20/ERC20.sol\":10538:10668  if (currentAllowance < value) {... */\n      iszero\n      tag_211\n      jumpi\n        /* \"https://github.com/OpenZeppelin/openzeppelin-contracts/blob/master/contracts/token/ERC20/ERC20.sol\":10620:10627  spender */\n      dup3\n        /* \"https://github.com/OpenZeppelin/openzeppelin-contracts/blob/master/contracts/token/ERC20/ERC20.sol\":10629:10645  currentAllowance */\n      dup2\n        /* \"https://github.com/OpenZeppelin/openzeppelin-contracts/blob/master/contracts/token/ERC20/ERC20.sol\":10647:10652  value */\n      dup4\n        /* \"https://github.com/OpenZeppelin/openzeppelin-contracts/blob/master/contracts/token/ERC20/ERC20.sol\":10593:10653  ERC20InsufficientAllowance(spender, currentAllowance, value) */\n      mload(0x40)\n      0xfb8f41b200000000000000000000000000000000000000000000000000000000\n      dup2\n      mstore\n      0x04\n      add\n      tag_212\n      swap4\n      swap3\n      swap2\n      swap1\n      tag_213\n      jump\t// in\n    tag_212:\n      mload(0x40)\n      dup1\n      swap2\n      sub\n      swap1\n      revert\n        /* \"https://github.com/OpenZeppelin/openzeppelin-contracts/blob/master/contracts/token/ERC20/ERC20.sol\":10538:10668  if (currentAllowance < value) {... */\n    tag_211:\n        /* \"https://github.com/OpenZeppelin/openzeppelin-contracts/blob/master/contracts/token/ERC20/ERC20.sol\":10709:10766  _approve(owner, spender, currentAllowance - value, false) */\n      tag_214\n        /* \"https://github.com/OpenZeppelin/openzeppelin-contracts/blob/master/contracts/token/ERC20/ERC20.sol\":10718:10723  owner */\n      dup5\n        /* \"https://github.com/OpenZeppelin/openzeppelin-contracts/blob/master/contracts/token/ERC20/ERC20.sol\":10725:10732  spender */\n      dup5\n        /* \"https://github.com/OpenZeppelin/openzeppelin-contracts/blob/master/contracts/token/ERC20/ERC20.sol\":10753:10758  value */\n      dup5\n        /* \"https://github.com/OpenZeppelin/openzeppelin-contracts/blob/master/contracts/token/ERC20/ERC20.sol\":10734:10750  currentAllowance */\n      dup5\n        /* \"https://github.com/OpenZeppelin/openzeppelin-contracts/blob/master/contracts/token/ERC20/ERC20.sol\":10734:10758  currentAllowance - value */\n      sub\n        /* \"https://github.com/OpenZeppelin/openzeppelin-contracts/blob/master/contracts/token/ERC20/ERC20.sol\":10760:10765  false */\n      0x00\n        /* \"https://github.com/OpenZeppelin/openzeppelin-contracts/blob/master/contracts/token/ERC20/ERC20.sol\":10709:10717  _approve */\n      tag_193\n        /* \"https://github.com/OpenZeppelin/openzeppelin-contracts/blob/master/contracts/token/ERC20/ERC20.sol\":10709:10766  _approve(owner, spender, currentAllowance - value, false) */\n      jump\t// in\n    tag_214:\n        /* \"https://github.com/OpenZeppelin/openzeppelin-contracts/blob/master/contracts/token/ERC20/ERC20.sol\":10482:10791  if (currentAllowance < type(uint256).max) {... */\n    tag_210:\n        /* \"https://github.com/OpenZeppelin/openzeppelin-contracts/blob/master/contracts/token/ERC20/ERC20.sol\":10410:10797  {... */\n      pop\n        /* \"https://github.com/OpenZeppelin/openzeppelin-contracts/blob/master/contracts/token/ERC20/ERC20.sol\":10321:10797  function _spendAllowance(address owner, address spender, uint256 value) internal virtual {... */\n      pop\n      pop\n      pop\n      jump\t// out\n        /* \"https://github.com/OpenZeppelin/openzeppelin-contracts/blob/master/contracts/token/ERC20/ERC20.sol\":5297:5597  function _transfer(address from, address to, uint256 value) internal {... */\n    tag_139:\n        /* \"https://github.com/OpenZeppelin/openzeppelin-contracts/blob/master/contracts/token/ERC20/ERC20.sol\":5396:5397  0 */\n      0x00\n        /* \"https://github.com/OpenZeppelin/openzeppelin-contracts/blob/master/contracts/token/ERC20/ERC20.sol\":5380:5398  from == address(0) */\n      0xffffffffffffffffffffffffffffffffffffffff\n      and\n        /* \"https://github.com/OpenZeppelin/openzeppelin-contracts/blob/master/contracts/token/ERC20/ERC20.sol\":5380:5384  from */\n      dup4\n        /* \"https://github.com/OpenZeppelin/openzeppelin-contracts/blob/master/contracts/token/ERC20/ERC20.sol\":5380:5398  from == address(0) */\n      0xffffffffffffffffffffffffffffffffffffffff\n      and\n      sub\n        /* \"https://github.com/OpenZeppelin/openzeppelin-contracts/blob/master/contracts/token/ERC20/ERC20.sol\":5376:5462  if (from == address(0)) {... */\n      tag_216\n      jumpi\n        /* \"https://github.com/OpenZeppelin/openzeppelin-contracts/blob/master/contracts/token/ERC20/ERC20.sol\":5448:5449  0 */\n      0x00\n        /* \"https://github.com/OpenZeppelin/openzeppelin-contracts/blob/master/contracts/token/ERC20/ERC20.sol\":5421:5451  ERC20InvalidSender(address(0)) */\n      mload(0x40)\n      0x96c6fd1e00000000000000000000000000000000000000000000000000000000\n      dup2\n      mstore\n      0x04\n      add\n      tag_217\n      swap2\n      swap1\n      tag_218\n      jump\t// in\n    tag_217:\n      mload(0x40)\n      dup1\n      swap2\n      sub\n      swap1\n      revert\n        /* \"https://github.com/OpenZeppelin/openzeppelin-contracts/blob/master/contracts/token/ERC20/ERC20.sol\":5376:5462  if (from == address(0)) {... */\n    tag_216:\n        /* \"https://github.com/OpenZeppelin/openzeppelin-contracts/blob/master/contracts/token/ERC20/ERC20.sol\":5489:5490  0 */\n      0x00\n        /* \"https://github.com/OpenZeppelin/openzeppelin-contracts/blob/master/contracts/token/ERC20/ERC20.sol\":5475:5491  to == address(0) */\n      0xffffffffffffffffffffffffffffffffffffffff\n      and\n        /* \"https://github.com/OpenZeppelin/openzeppelin-contracts/blob/master/contracts/token/ERC20/ERC20.sol\":5475:5477  to */\n      dup3\n        /* \"https://github.com/OpenZeppelin/openzeppelin-contracts/blob/master/contracts/token/ERC20/ERC20.sol\":5475:5491  to == address(0) */\n      0xffffffffffffffffffffffffffffffffffffffff\n      and\n      sub\n        /* \"https://github.com/OpenZeppelin/openzeppelin-contracts/blob/master/contracts/token/ERC20/ERC20.sol\":5471:5557  if (to == address(0)) {... */\n      tag_219\n      jumpi\n        /* \"https://github.com/OpenZeppelin/openzeppelin-contracts/blob/master/contracts/token/ERC20/ERC20.sol\":5543:5544  0 */\n      0x00\n        /* \"https://github.com/OpenZeppelin/openzeppelin-contracts/blob/master/contracts/token/ERC20/ERC20.sol\":5514:5546  ERC20InvalidReceiver(address(0)) */\n      mload(0x40)\n      0xec442f0500000000000000000000000000000000000000000000000000000000\n      dup2\n      mstore\n      0x04\n      add\n      tag_220\n      swap2\n      swap1\n      tag_218\n      jump\t// in\n    tag_220:\n      mload(0x40)\n      dup1\n      swap2\n      sub\n      swap1\n      revert\n        /* \"https://github.com/OpenZeppelin/openzeppelin-contracts/blob/master/contracts/token/ERC20/ERC20.sol\":5471:5557  if (to == address(0)) {... */\n    tag_219:\n        /* \"https://github.com/OpenZeppelin/openzeppelin-contracts/blob/master/contracts/token/ERC20/ERC20.sol\":5566:5590  _update(from, to, value) */\n      tag_221\n        /* \"https://github.com/OpenZeppelin/openzeppelin-contracts/blob/master/contracts/token/ERC20/ERC20.sol\":5574:5578  from */\n      dup4\n        /* \"https://github.com/OpenZeppelin/openzeppelin-contracts/blob/master/contracts/token/ERC20/ERC20.sol\":5580:5582  to */\n      dup4\n        /* \"https://github.com/OpenZeppelin/openzeppelin-contracts/blob/master/contracts/token/ERC20/ERC20.sol\":5584:5589  value */\n      dup4\n        /* \"https://github.com/OpenZeppelin/openzeppelin-contracts/blob/master/contracts/token/ERC20/ERC20.sol\":5566:5573  _update */\n      tag_222\n        /* \"https://github.com/OpenZeppelin/openzeppelin-contracts/blob/master/contracts/token/ERC20/ERC20.sol\":5566:5590  _update(from, to, value) */\n      jump\t// in\n    tag_221:\n        /* \"https://github.com/OpenZeppelin/openzeppelin-contracts/blob/master/contracts/token/ERC20/ERC20.sol\":5297:5597  function _transfer(address from, address to, uint256 value) internal {... */\n      pop\n      pop\n      pop\n      jump\t// out\n        /* \"https://github.com/OpenZeppelin/openzeppelin-contracts/blob/master/contracts/token/ERC20/ERC20.sol\":9607:10039  function _approve(address owner, address spender, uint256 value, bool emitEvent) internal virtual {... */\n    tag_193:\n        /* \"https://github.com/OpenZeppelin/openzeppelin-contracts/blob/master/contracts/token/ERC20/ERC20.sol\":9736:9737  0 */\n      0x00\n        /* \"https://github.com/OpenZeppelin/openzeppelin-contracts/blob/master/contracts/token/ERC20/ERC20.sol\":9719:9738  owner == address(0) */\n      0xffffffffffffffffffffffffffffffffffffffff\n      and\n        /* \"https://github.com/OpenZeppelin/openzeppelin-contracts/blob/master/contracts/token/ERC20/ERC20.sol\":9719:9724  owner */\n      dup5\n        /* \"https://github.com/OpenZeppelin/openzeppelin-contracts/blob/master/contracts/token/ERC20/ERC20.sol\":9719:9738  owner == address(0) */\n      0xffffffffffffffffffffffffffffffffffffffff\n      and\n      sub\n        /* \"https://github.com/OpenZeppelin/openzeppelin-contracts/blob/master/contracts/token/ERC20/ERC20.sol\":9715:9804  if (owner == address(0)) {... */\n      tag_224\n      jumpi\n        /* \"https://github.com/OpenZeppelin/openzeppelin-contracts/blob/master/contracts/token/ERC20/ERC20.sol\":9790:9791  0 */\n      0x00\n        /* \"https://github.com/OpenZeppelin/openzeppelin-contracts/blob/master/contracts/token/ERC20/ERC20.sol\":9761:9793  ERC20InvalidApprover(address(0)) */\n      mload(0x40)\n      0xe602df0500000000000000000000000000000000000000000000000000000000\n      dup2\n      mstore\n      0x04\n      add\n      tag_225\n      swap2\n      swap1\n      tag_218\n      jump\t// in\n    tag_225:\n      mload(0x40)\n      dup1\n      swap2\n      sub\n      swap1\n      revert\n        /* \"https://github.com/OpenZeppelin/openzeppelin-contracts/blob/master/contracts/token/ERC20/ERC20.sol\":9715:9804  if (owner == address(0)) {... */\n    tag_224:\n        /* \"https://github.com/OpenZeppelin/openzeppelin-contracts/blob/master/contracts/token/ERC20/ERC20.sol\":9836:9837  0 */\n      0x00\n        /* \"https://github.com/OpenZeppelin/openzeppelin-contracts/blob/master/contracts/token/ERC20/ERC20.sol\":9817:9838  spender == address(0) */\n      0xffffffffffffffffffffffffffffffffffffffff\n      and\n        /* \"https://github.com/OpenZeppelin/openzeppelin-contracts/blob/master/contracts/token/ERC20/ERC20.sol\":9817:9824  spender */\n      dup4\n        /* \"https://github.com/OpenZeppelin/openzeppelin-contracts/blob/master/contracts/token/ERC20/ERC20.sol\":9817:9838  spender == address(0) */\n      0xffffffffffffffffffffffffffffffffffffffff\n      and\n      sub\n        /* \"https://github.com/OpenZeppelin/openzeppelin-contracts/blob/master/contracts/token/ERC20/ERC20.sol\":9813:9903  if (spender == address(0)) {... */\n      tag_226\n      jumpi\n        /* \"https://github.com/OpenZeppelin/openzeppelin-contracts/blob/master/contracts/token/ERC20/ERC20.sol\":9889:9890  0 */\n      0x00\n        /* \"https://github.com/OpenZeppelin/openzeppelin-contracts/blob/master/contracts/token/ERC20/ERC20.sol\":9861:9892  ERC20InvalidSpender(address(0)) */\n      mload(0x40)\n      0x94280d6200000000000000000000000000000000000000000000000000000000\n      dup2\n      mstore\n      0x04\n      add\n      tag_227\n      swap2\n      swap1\n      tag_218\n      jump\t// in\n    tag_227:\n      mload(0x40)\n      dup1\n      swap2\n      sub\n      swap1\n      revert\n        /* \"https://github.com/OpenZeppelin/openzeppelin-contracts/blob/master/contracts/token/ERC20/ERC20.sol\":9813:9903  if (spender == address(0)) {... */\n    tag_226:\n        /* \"https://github.com/OpenZeppelin/openzeppelin-contracts/blob/master/contracts/token/ERC20/ERC20.sol\":9942:9947  value */\n      dup2\n        /* \"https://github.com/OpenZeppelin/openzeppelin-contracts/blob/master/contracts/token/ERC20/ERC20.sol\":9912:9923  _allowances */\n      0x01\n        /* \"https://github.com/OpenZeppelin/openzeppelin-contracts/blob/master/contracts/token/ERC20/ERC20.sol\":9912:9930  _allowances[owner] */\n      0x00\n        /* \"https://github.com/OpenZeppelin/openzeppelin-contracts/blob/master/contracts/token/ERC20/ERC20.sol\":9924:9929  owner */\n      dup7\n        /* \"https://github.com/OpenZeppelin/openzeppelin-contracts/blob/master/contracts/token/ERC20/ERC20.sol\":9912:9930  _allowances[owner] */\n      0xffffffffffffffffffffffffffffffffffffffff\n      and\n      0xffffffffffffffffffffffffffffffffffffffff\n      and\n      dup2\n      mstore\n      0x20\n      add\n      swap1\n      dup2\n      mstore\n      0x20\n      add\n      0x00\n      keccak256\n        /* \"https://github.com/OpenZeppelin/openzeppelin-contracts/blob/master/contracts/token/ERC20/ERC20.sol\":9912:9939  _allowances[owner][spender] */\n      0x00\n        /* \"https://github.com/OpenZeppelin/openzeppelin-contracts/blob/master/contracts/token/ERC20/ERC20.sol\":9931:9938  spender */\n      dup6\n        /* \"https://github.com/OpenZeppelin/openzeppelin-contracts/blob/master/contracts/token/ERC20/ERC20.sol\":9912:9939  _allowances[owner][spender] */\n      0xffffffffffffffffffffffffffffffffffffffff\n      and\n      0xffffffffffffffffffffffffffffffffffffffff\n      and\n      dup2\n      mstore\n      0x20\n      add\n      swap1\n      dup2\n      mstore\n      0x20\n      add\n      0x00\n      keccak256\n        /* \"https://github.com/OpenZeppelin/openzeppelin-contracts/blob/master/contracts/token/ERC20/ERC20.sol\":9912:9947  _allowances[owner][spender] = value */\n      dup2\n      swap1\n      sstore\n      pop\n        /* \"https://github.com/OpenZeppelin/openzeppelin-contracts/blob/master/contracts/token/ERC20/ERC20.sol\":9961:9970  emitEvent */\n      dup1\n        /* \"https://github.com/OpenZeppelin/openzeppelin-contracts/blob/master/contracts/token/ERC20/ERC20.sol\":9957:10033  if (emitEvent) {... */\n      iszero\n      tag_228\n      jumpi\n        /* \"https://github.com/OpenZeppelin/openzeppelin-contracts/blob/master/contracts/token/ERC20/ERC20.sol\":10007:10014  spender */\n      dup3\n        /* \"https://github.com/OpenZeppelin/openzeppelin-contracts/blob/master/contracts/token/ERC20/ERC20.sol\":9991:10022  Approval(owner, spender, value) */\n      0xffffffffffffffffffffffffffffffffffffffff\n      and\n        /* \"https://github.com/OpenZeppelin/openzeppelin-contracts/blob/master/contracts/token/ERC20/ERC20.sol\":10000:10005  owner */\n      dup5\n        /* \"https://github.com/OpenZeppelin/openzeppelin-contracts/blob/master/contracts/token/ERC20/ERC20.sol\":9991:10022  Approval(owner, spender, value) */\n      0xffffffffffffffffffffffffffffffffffffffff\n      and\n      0x8c5be1e5ebec7d5bd14f71427d1e84f3dd0314c0f7b2291e5b200ac8c7c3b925\n        /* \"https://github.com/OpenZeppelin/openzeppelin-contracts/blob/master/contracts/token/ERC20/ERC20.sol\":10016:10021  value */\n      dup5\n        /* \"https://github.com/OpenZeppelin/openzeppelin-contracts/blob/master/contracts/token/ERC20/ERC20.sol\":9991:10022  Approval(owner, spender, value) */\n      mload(0x40)\n      tag_229\n      swap2\n      swap1\n      tag_36\n      jump\t// in\n    tag_229:\n      mload(0x40)\n      dup1\n      swap2\n      sub\n      swap1\n      log3\n        /* \"https://github.com/OpenZeppelin/openzeppelin-contracts/blob/master/contracts/token/ERC20/ERC20.sol\":9957:10033  if (emitEvent) {... */\n    tag_228:\n        /* \"https://github.com/OpenZeppelin/openzeppelin-contracts/blob/master/contracts/token/ERC20/ERC20.sol\":9607:10039  function _approve(address owner, address spender, uint256 value, bool emitEvent) internal virtual {... */\n      pop\n      pop\n      pop\n      pop\n      jump\t// out\n        /* \"https://github.com/OpenZeppelin/openzeppelin-contracts/blob/master/contracts/token/ERC20/ERC20.sol\":5912:7019  function _update(address from, address to, uint256 value) internal virtual {... */\n    tag_222:\n        /* \"https://github.com/OpenZeppelin/openzeppelin-contracts/blob/master/contracts/token/ERC20/ERC20.sol\":6017:6018  0 */\n      0x00\n        /* \"https://github.com/OpenZeppelin/openzeppelin-contracts/blob/master/contracts/token/ERC20/ERC20.sol\":6001:6019  from == address(0) */\n      0xffffffffffffffffffffffffffffffffffffffff\n      and\n        /* \"https://github.com/OpenZeppelin/openzeppelin-contracts/blob/master/contracts/token/ERC20/ERC20.sol\":6001:6005  from */\n      dup4\n        /* \"https://github.com/OpenZeppelin/openzeppelin-contracts/blob/master/contracts/token/ERC20/ERC20.sol\":6001:6019  from == address(0) */\n      0xffffffffffffffffffffffffffffffffffffffff\n      and\n      sub\n        /* \"https://github.com/OpenZeppelin/openzeppelin-contracts/blob/master/contracts/token/ERC20/ERC20.sol\":5997:6537  if (from == address(0)) {... */\n      tag_231\n      jumpi\n        /* \"https://github.com/OpenZeppelin/openzeppelin-contracts/blob/master/contracts/token/ERC20/ERC20.sol\":6153:6158  value */\n      dup1\n        /* \"https://github.com/OpenZeppelin/openzeppelin-contracts/blob/master/contracts/token/ERC20/ERC20.sol\":6137:6149  _totalSupply */\n      0x02\n      0x00\n        /* \"https://github.com/OpenZeppelin/openzeppelin-contracts/blob/master/contracts/token/ERC20/ERC20.sol\":6137:6158  _totalSupply += value */\n      dup3\n      dup3\n      sload\n      tag_232\n      swap2\n      swap1\n      tag_119\n      jump\t// in\n    tag_232:\n      swap3\n      pop\n      pop\n      dup2\n      swap1\n      sstore\n      pop\n        /* \"https://github.com/OpenZeppelin/openzeppelin-contracts/blob/master/contracts/token/ERC20/ERC20.sol\":5997:6537  if (from == address(0)) {... */\n      jump(tag_233)\n    tag_231:\n        /* \"https://github.com/OpenZeppelin/openzeppelin-contracts/blob/master/contracts/token/ERC20/ERC20.sol\":6189:6208  uint256 fromBalance */\n      0x00\n        /* \"https://github.com/OpenZeppelin/openzeppelin-contracts/blob/master/contracts/token/ERC20/ERC20.sol\":6211:6220  _balances */\n      0x00\n        /* \"https://github.com/OpenZeppelin/openzeppelin-contracts/blob/master/contracts/token/ERC20/ERC20.sol\":6211:6226  _balances[from] */\n      0x00\n        /* \"https://github.com/OpenZeppelin/openzeppelin-contracts/blob/master/contracts/token/ERC20/ERC20.sol\":6221:6225  from */\n      dup6\n        /* \"https://github.com/OpenZeppelin/openzeppelin-contracts/blob/master/contracts/token/ERC20/ERC20.sol\":6211:6226  _balances[from] */\n      0xffffffffffffffffffffffffffffffffffffffff\n      and\n      0xffffffffffffffffffffffffffffffffffffffff\n      and\n      dup2\n      mstore\n      0x20\n      add\n      swap1\n      dup2\n      mstore\n      0x20\n      add\n      0x00\n      keccak256\n      sload\n        /* \"https://github.com/OpenZeppelin/openzeppelin-contracts/blob/master/contracts/token/ERC20/ERC20.sol\":6189:6226  uint256 fromBalance = _balances[from] */\n      swap1\n      pop\n        /* \"https://github.com/OpenZeppelin/openzeppelin-contracts/blob/master/contracts/token/ERC20/ERC20.sol\":6258:6263  value */\n      dup2\n        /* \"https://github.com/OpenZeppelin/openzeppelin-contracts/blob/master/contracts/token/ERC20/ERC20.sol\":6244:6255  fromBalance */\n      dup2\n        /* \"https://github.com/OpenZeppelin/openzeppelin-contracts/blob/master/contracts/token/ERC20/ERC20.sol\":6244:6263  fromBalance < value */\n      lt\n        /* \"https://github.com/OpenZeppelin/openzeppelin-contracts/blob/master/contracts/token/ERC20/ERC20.sol\":6240:6355  if (fromBalance < value) {... */\n      iszero\n      tag_234\n      jumpi\n        /* \"https://github.com/OpenZeppelin/openzeppelin-contracts/blob/master/contracts/token/ERC20/ERC20.sol\":6315:6319  from */\n      dup4\n        /* \"https://github.com/OpenZeppelin/openzeppelin-contracts/blob/master/contracts/token/ERC20/ERC20.sol\":6321:6332  fromBalance */\n      dup2\n        /* \"https://github.com/OpenZeppelin/openzeppelin-contracts/blob/master/contracts/token/ERC20/ERC20.sol\":6334:6339  value */\n      dup4\n        /* \"https://github.com/OpenZeppelin/openzeppelin-contracts/blob/master/contracts/token/ERC20/ERC20.sol\":6290:6340  ERC20InsufficientBalance(from, fromBalance, value) */\n      mload(0x40)\n      0xe450d38c00000000000000000000000000000000000000000000000000000000\n      dup2\n      mstore\n      0x04\n      add\n      tag_235\n      swap4\n      swap3\n      swap2\n      swap1\n      tag_213\n      jump\t// in\n    tag_235:\n      mload(0x40)\n      dup1\n      swap2\n      sub\n      swap1\n      revert\n        /* \"https://github.com/OpenZeppelin/openzeppelin-contracts/blob/master/contracts/token/ERC20/ERC20.sol\":6240:6355  if (fromBalance < value) {... */\n    tag_234:\n        /* \"https://github.com/OpenZeppelin/openzeppelin-contracts/blob/master/contracts/token/ERC20/ERC20.sol\":6507:6512  value */\n      dup2\n        /* \"https://github.com/OpenZeppelin/openzeppelin-contracts/blob/master/contracts/token/ERC20/ERC20.sol\":6493:6504  fromBalance */\n      dup2\n        /* \"https://github.com/OpenZeppelin/openzeppelin-contracts/blob/master/contracts/token/ERC20/ERC20.sol\":6493:6512  fromBalance - value */\n      sub\n        /* \"https://github.com/OpenZeppelin/openzeppelin-contracts/blob/master/contracts/token/ERC20/ERC20.sol\":6475:6484  _balances */\n      0x00\n        /* \"https://github.com/OpenZeppelin/openzeppelin-contracts/blob/master/contracts/token/ERC20/ERC20.sol\":6475:6490  _balances[from] */\n      0x00\n        /* \"https://github.com/OpenZeppelin/openzeppelin-contracts/blob/master/contracts/token/ERC20/ERC20.sol\":6485:6489  from */\n      dup7\n        /* \"https://github.com/OpenZeppelin/openzeppelin-contracts/blob/master/contracts/token/ERC20/ERC20.sol\":6475:6490  _balances[from] */\n      0xffffffffffffffffffffffffffffffffffffffff\n      and\n      0xffffffffffffffffffffffffffffffffffffffff\n      and\n      dup2\n      mstore\n      0x20\n      add\n      swap1\n      dup2\n      mstore\n      0x20\n      add\n      0x00\n      keccak256\n        /* \"https://github.com/OpenZeppelin/openzeppelin-contracts/blob/master/contracts/token/ERC20/ERC20.sol\":6475:6512  _balances[from] = fromBalance - value */\n      dup2\n      swap1\n      sstore\n      pop\n        /* \"https://github.com/OpenZeppelin/openzeppelin-contracts/blob/master/contracts/token/ERC20/ERC20.sol\":6175:6537  {... */\n      pop\n        /* \"https://github.com/OpenZeppelin/openzeppelin-contracts/blob/master/contracts/token/ERC20/ERC20.sol\":5997:6537  if (from == address(0)) {... */\n    tag_233:\n        /* \"https://github.com/OpenZeppelin/openzeppelin-contracts/blob/master/contracts/token/ERC20/ERC20.sol\":6565:6566  0 */\n      0x00\n        /* \"https://github.com/OpenZeppelin/openzeppelin-contracts/blob/master/contracts/token/ERC20/ERC20.sol\":6551:6567  to == address(0) */\n      0xffffffffffffffffffffffffffffffffffffffff\n      and\n        /* \"https://github.com/OpenZeppelin/openzeppelin-contracts/blob/master/contracts/token/ERC20/ERC20.sol\":6551:6553  to */\n      dup3\n        /* \"https://github.com/OpenZeppelin/openzeppelin-contracts/blob/master/contracts/token/ERC20/ERC20.sol\":6551:6567  to == address(0) */\n      0xffffffffffffffffffffffffffffffffffffffff\n      and\n      sub\n        /* \"https://github.com/OpenZeppelin/openzeppelin-contracts/blob/master/contracts/token/ERC20/ERC20.sol\":6547:6972  if (to == address(0)) {... */\n      tag_236\n      jumpi\n        /* \"https://github.com/OpenZeppelin/openzeppelin-contracts/blob/master/contracts/token/ERC20/ERC20.sol\":6730:6735  value */\n      dup1\n        /* \"https://github.com/OpenZeppelin/openzeppelin-contracts/blob/master/contracts/token/ERC20/ERC20.sol\":6714:6726  _totalSupply */\n      0x02\n      0x00\n        /* \"https://github.com/OpenZeppelin/openzeppelin-contracts/blob/master/contracts/token/ERC20/ERC20.sol\":6714:6735  _totalSupply -= value */\n      dup3\n      dup3\n      sload\n      sub\n      swap3\n      pop\n      pop\n      dup2\n      swap1\n      sstore\n      pop\n        /* \"https://github.com/OpenZeppelin/openzeppelin-contracts/blob/master/contracts/token/ERC20/ERC20.sol\":6547:6972  if (to == address(0)) {... */\n      jump(tag_237)\n    tag_236:\n        /* \"https://github.com/OpenZeppelin/openzeppelin-contracts/blob/master/contracts/token/ERC20/ERC20.sol\":6942:6947  value */\n      dup1\n        /* \"https://github.com/OpenZeppelin/openzeppelin-contracts/blob/master/contracts/token/ERC20/ERC20.sol\":6925:6934  _balances */\n      0x00\n        /* \"https://github.com/OpenZeppelin/openzeppelin-contracts/blob/master/contracts/token/ERC20/ERC20.sol\":6925:6938  _balances[to] */\n      0x00\n        /* \"https://github.com/OpenZeppelin/openzeppelin-contracts/blob/master/contracts/token/ERC20/ERC20.sol\":6935:6937  to */\n      dup5\n        /* \"https://github.com/OpenZeppelin/openzeppelin-contracts/blob/master/contracts/token/ERC20/ERC20.sol\":6925:6938  _balances[to] */\n      0xffffffffffffffffffffffffffffffffffffffff\n      and\n      0xffffffffffffffffffffffffffffffffffffffff\n      and\n      dup2\n      mstore\n      0x20\n      add\n      swap1\n      dup2\n      mstore\n      0x20\n      add\n      0x00\n      keccak256\n      0x00\n        /* \"https://github.com/OpenZeppelin/openzeppelin-contracts/blob/master/contracts/token/ERC20/ERC20.sol\":6925:6947  _balances[to] += value */\n      dup3\n      dup3\n      sload\n      add\n      swap3\n      pop\n      pop\n      dup2\n      swap1\n      sstore\n      pop\n        /* \"https://github.com/OpenZeppelin/openzeppelin-contracts/blob/master/contracts/token/ERC20/ERC20.sol\":6547:6972  if (to == address(0)) {... */\n    tag_237:\n        /* \"https://github.com/OpenZeppelin/openzeppelin-contracts/blob/master/contracts/token/ERC20/ERC20.sol\":7002:7004  to */\n      dup2\n        /* \"https://github.com/OpenZeppelin/openzeppelin-contracts/blob/master/contracts/token/ERC20/ERC20.sol\":6987:7012  Transfer(from, to, value) */\n      0xffffffffffffffffffffffffffffffffffffffff\n      and\n        /* \"https://github.com/OpenZeppelin/openzeppelin-contracts/blob/master/contracts/token/ERC20/ERC20.sol\":6996:7000  from */\n      dup4\n        /* \"https://github.com/OpenZeppelin/openzeppelin-contracts/blob/master/contracts/token/ERC20/ERC20.sol\":6987:7012  Transfer(from, to, value) */\n      0xffffffffffffffffffffffffffffffffffffffff\n      and\n      0xddf252ad1be2c89b69c2b068fc378daa952ba7f163c4a11628f55a4df523b3ef\n        /* \"https://github.com/OpenZeppelin/openzeppelin-contracts/blob/master/contracts/token/ERC20/ERC20.sol\":7006:7011  value */\n      dup4\n        /* \"https://github.com/OpenZeppelin/openzeppelin-contracts/blob/master/contracts/token/ERC20/ERC20.sol\":6987:7012  Transfer(from, to, value) */\n      mload(0x40)\n      tag_238\n      swap2\n      swap1\n      tag_36\n      jump\t// in\n    tag_238:\n      mload(0x40)\n      dup1\n      swap2\n      sub\n      swap1\n      log3\n        /* \"https://github.com/OpenZeppelin/openzeppelin-contracts/blob/master/contracts/token/ERC20/ERC20.sol\":5912:7019  function _update(address from, address to, uint256 value) internal virtual {... */\n      pop\n      pop\n      pop\n      jump\t// out\n        /* \"#utility.yul\":7:106   */\n    tag_239:\n        /* \"#utility.yul\":59:65   */\n      0x00\n        /* \"#utility.yul\":93:98   */\n      dup2\n        /* \"#utility.yul\":87:99   */\n      mload\n        /* \"#utility.yul\":77:99   */\n      swap1\n      pop\n        /* \"#utility.yul\":7:106   */\n      swap2\n      swap1\n      pop\n      jump\t// out\n        /* \"#utility.yul\":112:281   */\n    tag_240:\n        /* \"#utility.yul\":196:207   */\n      0x00\n        /* \"#utility.yul\":230:236   */\n      dup3\n        /* \"#utility.yul\":225:228   */\n      dup3\n        /* \"#utility.yul\":218:237   */\n      mstore\n        /* \"#utility.yul\":270:274   */\n      0x20\n        /* \"#utility.yul\":265:268   */\n      dup3\n        /* \"#utility.yul\":261:275   */\n      add\n        /* \"#utility.yul\":246:275   */\n      swap1\n      pop\n        /* \"#utility.yul\":112:281   */\n      swap3\n      swap2\n      pop\n      pop\n      jump\t// out\n        /* \"#utility.yul\":287:426   */\n    tag_241:\n        /* \"#utility.yul\":376:382   */\n      dup3\n        /* \"#utility.yul\":371:374   */\n      dup2\n        /* \"#utility.yul\":366:369   */\n      dup4\n        /* \"#utility.yul\":360:383   */\n      mcopy\n        /* \"#utility.yul\":417:418   */\n      0x00\n        /* \"#utility.yul\":408:414   */\n      dup4\n        /* \"#utility.yul\":403:406   */\n      dup4\n        /* \"#utility.yul\":399:415   */\n      add\n        /* \"#utility.yul\":392:419   */\n      mstore\n        /* \"#utility.yul\":287:426   */\n      pop\n      pop\n      pop\n      jump\t// out\n        /* \"#utility.yul\":432:534   */\n    tag_242:\n        /* \"#utility.yul\":473:479   */\n      0x00\n        /* \"#utility.yul\":524:526   */\n      0x1f\n        /* \"#utility.yul\":520:527   */\n      not\n        /* \"#utility.yul\":515:517   */\n      0x1f\n        /* \"#utility.yul\":508:513   */\n      dup4\n        /* \"#utility.yul\":504:518   */\n      add\n        /* \"#utility.yul\":500:528   */\n      and\n        /* \"#utility.yul\":490:528   */\n      swap1\n      pop\n        /* \"#utility.yul\":432:534   */\n      swap2\n      swap1\n      pop\n      jump\t// out\n        /* \"#utility.yul\":540:917   */\n    tag_243:\n        /* \"#utility.yul\":628:631   */\n      0x00\n        /* \"#utility.yul\":656:695   */\n      tag_334\n        /* \"#utility.yul\":689:694   */\n      dup3\n        /* \"#utility.yul\":656:695   */\n      tag_239\n      jump\t// in\n    tag_334:\n        /* \"#utility.yul\":711:782   */\n      tag_335\n        /* \"#utility.yul\":775:781   */\n      dup2\n        /* \"#utility.yul\":770:773   */\n      dup6\n        /* \"#utility.yul\":711:782   */\n      tag_240\n      jump\t// in\n    tag_335:\n        /* \"#utility.yul\":704:782   */\n      swap4\n      pop\n        /* \"#utility.yul\":791:856   */\n      tag_336\n        /* \"#utility.yul\":849:855   */\n      dup2\n        /* \"#utility.yul\":844:847   */\n      dup6\n        /* \"#utility.yul\":837:841   */\n      0x20\n        /* \"#utility.yul\":830:835   */\n      dup7\n        /* \"#utility.yul\":826:842   */\n      add\n        /* \"#utility.yul\":791:856   */\n      tag_241\n      jump\t// in\n    tag_336:\n        /* \"#utility.yul\":881:910   */\n      tag_337\n        /* \"#utility.yul\":903:909   */\n      dup2\n        /* \"#utility.yul\":881:910   */\n      tag_242\n      jump\t// in\n    tag_337:\n        /* \"#utility.yul\":876:879   */\n      dup5\n        /* \"#utility.yul\":872:911   */\n      add\n        /* \"#utility.yul\":865:911   */\n      swap2\n      pop\n        /* \"#utility.yul\":632:917   */\n      pop\n        /* \"#utility.yul\":540:917   */\n      swap3\n      swap2\n      pop\n      pop\n      jump\t// out\n        /* \"#utility.yul\":923:1236   */\n    tag_26:\n        /* \"#utility.yul\":1036:1040   */\n      0x00\n        /* \"#utility.yul\":1074:1076   */\n      0x20\n        /* \"#utility.yul\":1063:1072   */\n      dup3\n        /* \"#utility.yul\":1059:1077   */\n      add\n        /* \"#utility.yul\":1051:1077   */\n      swap1\n      pop\n        /* \"#utility.yul\":1123:1132   */\n      dup2\n        /* \"#utility.yul\":1117:1121   */\n      dup2\n        /* \"#utility.yul\":1113:1133   */\n      sub\n        /* \"#utility.yul\":1109:1110   */\n      0x00\n        /* \"#utility.yul\":1098:1107   */\n      dup4\n        /* \"#utility.yul\":1094:1111   */\n      add\n        /* \"#utility.yul\":1087:1134   */\n      mstore\n        /* \"#utility.yul\":1151:1229   */\n      tag_339\n        /* \"#utility.yul\":1224:1228   */\n      dup2\n        /* \"#utility.yul\":1215:1221   */\n      dup5\n        /* \"#utility.yul\":1151:1229   */\n      tag_243\n      jump\t// in\n    tag_339:\n        /* \"#utility.yul\":1143:1229   */\n      swap1\n      pop\n        /* \"#utility.yul\":923:1236   */\n      swap3\n      swap2\n      pop\n      pop\n      jump\t// out\n        /* \"#utility.yul\":1242:1317   */\n    tag_244:\n        /* \"#utility.yul\":1275:1281   */\n      0x00\n        /* \"#utility.yul\":1308:1310   */\n      0x40\n        /* \"#utility.yul\":1302:1311   */\n      mload\n        /* \"#utility.yul\":1292:1311   */\n      swap1\n      pop\n        /* \"#utility.yul\":1242:1317   */\n      swap1\n      jump\t// out\n        /* \"#utility.yul\":1323:1440   */\n    tag_245:\n        /* \"#utility.yul\":1432:1433   */\n      0x00\n        /* \"#utility.yul\":1429:1430   */\n      0x00\n        /* \"#utility.yul\":1422:1434   */\n      revert\n        /* \"#utility.yul\":1446:1563   */\n    tag_246:\n        /* \"#utility.yul\":1555:1556   */\n      0x00\n        /* \"#utility.yul\":1552:1553   */\n      0x00\n        /* \"#utility.yul\":1545:1557   */\n      revert\n        /* \"#utility.yul\":1569:1695   */\n    tag_247:\n        /* \"#utility.yul\":1606:1613   */\n      0x00\n        /* \"#utility.yul\":1646:1688   */\n      0xffffffffffffffffffffffffffffffffffffffff\n        /* \"#utility.yul\":1639:1644   */\n      dup3\n        /* \"#utility.yul\":1635:1689   */\n      and\n        /* \"#utility.yul\":1624:1689   */\n      swap1\n      pop\n        /* \"#utility.yul\":1569:1695   */\n      swap2\n      swap1\n      pop\n      jump\t// out\n        /* \"#utility.yul\":1701:1797   */\n    tag_248:\n        /* \"#utility.yul\":1738:1745   */\n      0x00\n        /* \"#utility.yul\":1767:1791   */\n      tag_345\n        /* \"#utility.yul\":1785:1790   */\n      dup3\n        /* \"#utility.yul\":1767:1791   */\n      tag_247\n      jump\t// in\n    tag_345:\n        /* \"#utility.yul\":1756:1791   */\n      swap1\n      pop\n        /* \"#utility.yul\":1701:1797   */\n      swap2\n      swap1\n      pop\n      jump\t// out\n        /* \"#utility.yul\":1803:1925   */\n    tag_249:\n        /* \"#utility.yul\":1876:1900   */\n      tag_347\n        /* \"#utility.yul\":1894:1899   */\n      dup2\n        /* \"#utility.yul\":1876:1900   */\n      tag_248\n      jump\t// in\n    tag_347:\n        /* \"#utility.yul\":1869:1874   */\n      dup2\n        /* \"#utility.yul\":1866:1901   */\n      eq\n        /* \"#utility.yul\":1856:1919   */\n      tag_348\n      jumpi\n        /* \"#utility.yul\":1915:1916   */\n      0x00\n        /* \"#utility.yul\":1912:1913   */\n      0x00\n        /* \"#utility.yul\":1905:1917   */\n      revert\n        /* \"#utility.yul\":1856:1919   */\n    tag_348:\n        /* \"#utility.yul\":1803:1925   */\n      pop\n      jump\t// out\n        /* \"#utility.yul\":1931:2070   */\n    tag_250:\n        /* \"#utility.yul\":1977:1982   */\n      0x00\n        /* \"#utility.yul\":2015:2021   */\n      dup2\n        /* \"#utility.yul\":2002:2022   */\n      calldataload\n        /* \"#utility.yul\":1993:2022   */\n      swap1\n      pop\n        /* \"#utility.yul\":2031:2064   */\n      tag_350\n        /* \"#utility.yul\":2058:2063   */\n      dup2\n        /* \"#utility.yul\":2031:2064   */\n      tag_249\n      jump\t// in\n    tag_350:\n        /* \"#utility.yul\":1931:2070   */\n      swap3\n      swap2\n      pop\n      pop\n      jump\t// out\n        /* \"#utility.yul\":2076:2153   */\n    tag_251:\n        /* \"#utility.yul\":2113:2120   */\n      0x00\n        /* \"#utility.yul\":2142:2147   */\n      dup2\n        /* \"#utility.yul\":2131:2147   */\n      swap1\n      pop\n        /* \"#utility.yul\":2076:2153   */\n      swap2\n      swap1\n      pop\n      jump\t// out\n        /* \"#utility.yul\":2159:2281   */\n    tag_252:\n        /* \"#utility.yul\":2232:2256   */\n      tag_353\n        /* \"#utility.yul\":2250:2255   */\n      dup2\n        /* \"#utility.yul\":2232:2256   */\n      tag_251\n      jump\t// in\n    tag_353:\n        /* \"#utility.yul\":2225:2230   */\n      dup2\n        /* \"#utility.yul\":2222:2257   */\n      eq\n        /* \"#utility.yul\":2212:2275   */\n      tag_354\n      jumpi\n        /* \"#utility.yul\":2271:2272   */\n      0x00\n        /* \"#utility.yul\":2268:2269   */\n      0x00\n        /* \"#utility.yul\":2261:2273   */\n      revert\n        /* \"#utility.yul\":2212:2275   */\n    tag_354:\n        /* \"#utility.yul\":2159:2281   */\n      pop\n      jump\t// out\n        /* \"#utility.yul\":2287:2426   */\n    tag_253:\n        /* \"#utility.yul\":2333:2338   */\n      0x00\n        /* \"#utility.yul\":2371:2377   */\n      dup2\n        /* \"#utility.yul\":2358:2378   */\n      calldataload\n        /* \"#utility.yul\":2349:2378   */\n      swap1\n      pop\n        /* \"#utility.yul\":2387:2420   */\n      tag_356\n        /* \"#utility.yul\":2414:2419   */\n      dup2\n        /* \"#utility.yul\":2387:2420   */\n      tag_252\n      jump\t// in\n    tag_356:\n        /* \"#utility.yul\":2287:2426   */\n      swap3\n      swap2\n      pop\n      pop\n      jump\t// out\n        /* \"#utility.yul\":2432:2906   */\n    tag_29:\n        /* \"#utility.yul\":2500:2506   */\n      0x00\n        /* \"#utility.yul\":2508:2514   */\n      0x00\n        /* \"#utility.yul\":2557:2559   */\n      0x40\n        /* \"#utility.yul\":2545:2554   */\n      dup4\n        /* \"#utility.yul\":2536:2543   */\n      dup6\n        /* \"#utility.yul\":2532:2555   */\n      sub\n        /* \"#utility.yul\":2528:2560   */\n      slt\n        /* \"#utility.yul\":2525:2644   */\n      iszero\n      tag_358\n      jumpi\n        /* \"#utility.yul\":2563:2642   */\n      tag_359\n      tag_245\n      jump\t// in\n    tag_359:\n        /* \"#utility.yul\":2525:2644   */\n    tag_358:\n        /* \"#utility.yul\":2683:2684   */\n      0x00\n        /* \"#utility.yul\":2708:2761   */\n      tag_360\n        /* \"#utility.yul\":2753:2760   */\n      dup6\n        /* \"#utility.yul\":2744:2750   */\n      dup3\n        /* \"#utility.yul\":2733:2742   */\n      dup7\n        /* \"#utility.yul\":2729:2751   */\n      add\n        /* \"#utility.yul\":2708:2761   */\n      tag_250\n      jump\t// in\n    tag_360:\n        /* \"#utility.yul\":2698:2761   */\n      swap3\n      pop\n        /* \"#utility.yul\":2654:2771   */\n      pop\n        /* \"#utility.yul\":2810:2812   */\n      0x20\n        /* \"#utility.yul\":2836:2889   */\n      tag_361\n        /* \"#utility.yul\":2881:2888   */\n      dup6\n        /* \"#utility.yul\":2872:2878   */\n      dup3\n        /* \"#utility.yul\":2861:2870   */\n      dup7\n        /* \"#utility.yul\":2857:2879   */\n      add\n        /* \"#utility.yul\":2836:2889   */\n      tag_253\n      jump\t// in\n    tag_361:\n        /* \"#utility.yul\":2826:2889   */\n      swap2\n      pop\n        /* \"#utility.yul\":2781:2899   */\n      pop\n        /* \"#utility.yul\":2432:2906   */\n      swap3\n      pop\n      swap3\n      swap1\n      pop\n      jump\t// out\n        /* \"#utility.yul\":2912:3002   */\n    tag_254:\n        /* \"#utility.yul\":2946:2953   */\n      0x00\n        /* \"#utility.yul\":2989:2994   */\n      dup2\n        /* \"#utility.yul\":2982:2995   */\n      iszero\n        /* \"#utility.yul\":2975:2996   */\n      iszero\n        /* \"#utility.yul\":2964:2996   */\n      swap1\n      pop\n        /* \"#utility.yul\":2912:3002   */\n      swap2\n      swap1\n      pop\n      jump\t// out\n        /* \"#utility.yul\":3008:3117   */\n    tag_255:\n        /* \"#utility.yul\":3089:3110   */\n      tag_364\n        /* \"#utility.yul\":3104:3109   */\n      dup2\n        /* \"#utility.yul\":3089:3110   */\n      tag_254\n      jump\t// in\n    tag_364:\n        /* \"#utility.yul\":3084:3087   */\n      dup3\n        /* \"#utility.yul\":3077:3111   */\n      mstore\n        /* \"#utility.yul\":3008:3117   */\n      pop\n      pop\n      jump\t// out\n        /* \"#utility.yul\":3123:3333   */\n    tag_32:\n        /* \"#utility.yul\":3210:3214   */\n      0x00\n        /* \"#utility.yul\":3248:3250   */\n      0x20\n        /* \"#utility.yul\":3237:3246   */\n      dup3\n        /* \"#utility.yul\":3233:3251   */\n      add\n        /* \"#utility.yul\":3225:3251   */\n      swap1\n      pop\n        /* \"#utility.yul\":3261:3326   */\n      tag_366\n        /* \"#utility.yul\":3323:3324   */\n      0x00\n        /* \"#utility.yul\":3312:3321   */\n      dup4\n        /* \"#utility.yul\":3308:3325   */\n      add\n        /* \"#utility.yul\":3299:3305   */\n      dup5\n        /* \"#utility.yul\":3261:3326   */\n      tag_255\n      jump\t// in\n    tag_366:\n        /* \"#utility.yul\":3123:3333   */\n      swap3\n      swap2\n      pop\n      pop\n      jump\t// out\n        /* \"#utility.yul\":3339:3457   */\n    tag_256:\n        /* \"#utility.yul\":3426:3450   */\n      tag_368\n        /* \"#utility.yul\":3444:3449   */\n      dup2\n        /* \"#utility.yul\":3426:3450   */\n      tag_251\n      jump\t// in\n    tag_368:\n        /* \"#utility.yul\":3421:3424   */\n      dup3\n        /* \"#utility.yul\":3414:3451   */\n      mstore\n        /* \"#utility.yul\":3339:3457   */\n      pop\n      pop\n      jump\t// out\n        /* \"#utility.yul\":3463:3685   */\n    tag_36:\n        /* \"#utility.yul\":3556:3560   */\n      0x00\n        /* \"#utility.yul\":3594:3596   */\n      0x20\n        /* \"#utility.yul\":3583:3592   */\n      dup3\n        /* \"#utility.yul\":3579:3597   */\n      add\n        /* \"#utility.yul\":3571:3597   */\n      swap1\n      pop\n        /* \"#utility.yul\":3607:3678   */\n      tag_370\n        /* \"#utility.yul\":3675:3676   */\n      0x00\n        /* \"#utility.yul\":3664:3673   */\n      dup4\n        /* \"#utility.yul\":3660:3677   */\n      add\n        /* \"#utility.yul\":3651:3657   */\n      dup5\n        /* \"#utility.yul\":3607:3678   */\n      tag_256\n      jump\t// in\n    tag_370:\n        /* \"#utility.yul\":3463:3685   */\n      swap3\n      swap2\n      pop\n      pop\n      jump\t// out\n        /* \"#utility.yul\":3691:3768   */\n    tag_257:\n        /* \"#utility.yul\":3728:3735   */\n      0x00\n        /* \"#utility.yul\":3757:3762   */\n      dup2\n        /* \"#utility.yul\":3746:3762   */\n      swap1\n      pop\n        /* \"#utility.yul\":3691:3768   */\n      swap2\n      swap1\n      pop\n      jump\t// out\n        /* \"#utility.yul\":3774:3896   */\n    tag_258:\n        /* \"#utility.yul\":3847:3871   */\n      tag_373\n        /* \"#utility.yul\":3865:3870   */\n      dup2\n        /* \"#utility.yul\":3847:3871   */\n      tag_257\n      jump\t// in\n    tag_373:\n        /* \"#utility.yul\":3840:3845   */\n      dup2\n        /* \"#utility.yul\":3837:3872   */\n      eq\n        /* \"#utility.yul\":3827:3890   */\n      tag_374\n      jumpi\n        /* \"#utility.yul\":3886:3887   */\n      0x00\n        /* \"#utility.yul\":3883:3884   */\n      0x00\n        /* \"#utility.yul\":3876:3888   */\n      revert\n        /* \"#utility.yul\":3827:3890   */\n    tag_374:\n        /* \"#utility.yul\":3774:3896   */\n      pop\n      jump\t// out\n        /* \"#utility.yul\":3902:4041   */\n    tag_259:\n        /* \"#utility.yul\":3948:3953   */\n      0x00\n        /* \"#utility.yul\":3986:3992   */\n      dup2\n        /* \"#utility.yul\":3973:3993   */\n      calldataload\n        /* \"#utility.yul\":3964:3993   */\n      swap1\n      pop\n        /* \"#utility.yul\":4002:4035   */\n      tag_376\n        /* \"#utility.yul\":4029:4034   */\n      dup2\n        /* \"#utility.yul\":4002:4035   */\n      tag_258\n      jump\t// in\n    tag_376:\n        /* \"#utility.yul\":3902:4041   */\n      swap3\n      swap2\n      pop\n      pop\n      jump\t// out\n        /* \"#utility.yul\":4047:4164   */\n    tag_260:\n        /* \"#utility.yul\":4156:4157   */\n      0x00\n        /* \"#utility.yul\":4153:4154   */\n      0x00\n        /* \"#utility.yul\":4146:4158   */\n      revert\n        /* \"#utility.yul\":4170:4287   */\n    tag_261:\n        /* \"#utility.yul\":4279:4280   */\n      0x00\n        /* \"#utility.yul\":4276:4277   */\n      0x00\n        /* \"#utility.yul\":4269:4281   */\n      revert\n        /* \"#utility.yul\":4293:4410   */\n    tag_262:\n        /* \"#utility.yul\":4402:4403   */\n      0x00\n        /* \"#utility.yul\":4399:4400   */\n      0x00\n        /* \"#utility.yul\":4392:4404   */\n      revert\n        /* \"#utility.yul\":4429:4981   */\n    tag_263:\n        /* \"#utility.yul\":4486:4494   */\n      0x00\n        /* \"#utility.yul\":4496:4502   */\n      0x00\n        /* \"#utility.yul\":4546:4549   */\n      dup4\n        /* \"#utility.yul\":4539:4543   */\n      0x1f\n        /* \"#utility.yul\":4531:4537   */\n      dup5\n        /* \"#utility.yul\":4527:4544   */\n      add\n        /* \"#utility.yul\":4523:4550   */\n      slt\n        /* \"#utility.yul\":4513:4635   */\n      tag_381\n      jumpi\n        /* \"#utility.yul\":4554:4633   */\n      tag_382\n      tag_260\n      jump\t// in\n    tag_382:\n        /* \"#utility.yul\":4513:4635   */\n    tag_381:\n        /* \"#utility.yul\":4667:4673   */\n      dup3\n        /* \"#utility.yul\":4654:4674   */\n      calldataload\n        /* \"#utility.yul\":4644:4674   */\n      swap1\n      pop\n        /* \"#utility.yul\":4697:4715   */\n      0xffffffffffffffff\n        /* \"#utility.yul\":4689:4695   */\n      dup2\n        /* \"#utility.yul\":4686:4716   */\n      gt\n        /* \"#utility.yul\":4683:4800   */\n      iszero\n      tag_383\n      jumpi\n        /* \"#utility.yul\":4719:4798   */\n      tag_384\n      tag_261\n      jump\t// in\n    tag_384:\n        /* \"#utility.yul\":4683:4800   */\n    tag_383:\n        /* \"#utility.yul\":4833:4837   */\n      0x20\n        /* \"#utility.yul\":4825:4831   */\n      dup4\n        /* \"#utility.yul\":4821:4838   */\n      add\n        /* \"#utility.yul\":4809:4838   */\n      swap2\n      pop\n        /* \"#utility.yul\":4887:4890   */\n      dup4\n        /* \"#utility.yul\":4879:4883   */\n      0x01\n        /* \"#utility.yul\":4871:4877   */\n      dup3\n        /* \"#utility.yul\":4867:4884   */\n      mul\n        /* \"#utility.yul\":4857:4865   */\n      dup4\n        /* \"#utility.yul\":4853:4885   */\n      add\n        /* \"#utility.yul\":4850:4891   */\n      gt\n        /* \"#utility.yul\":4847:4975   */\n      iszero\n      tag_385\n      jumpi\n        /* \"#utility.yul\":4894:4973   */\n      tag_386\n      tag_262\n      jump\t// in\n    tag_386:\n        /* \"#utility.yul\":4847:4975   */\n    tag_385:\n        /* \"#utility.yul\":4429:4981   */\n      swap3\n      pop\n      swap3\n      swap1\n      pop\n      jump\t// out\n        /* \"#utility.yul\":4987:5950   */\n    tag_39:\n        /* \"#utility.yul\":5084:5090   */\n      0x00\n        /* \"#utility.yul\":5092:5098   */\n      0x00\n        /* \"#utility.yul\":5100:5106   */\n      0x00\n        /* \"#utility.yul\":5108:5114   */\n      0x00\n        /* \"#utility.yul\":5116:5122   */\n      0x00\n        /* \"#utility.yul\":5165:5168   */\n      0x80\n        /* \"#utility.yul\":5153:5162   */\n      dup7\n        /* \"#utility.yul\":5144:5151   */\n      dup9\n        /* \"#utility.yul\":5140:5163   */\n      sub\n        /* \"#utility.yul\":5136:5169   */\n      slt\n        /* \"#utility.yul\":5133:5253   */\n      iszero\n      tag_388\n      jumpi\n        /* \"#utility.yul\":5172:5251   */\n      tag_389\n      tag_245\n      jump\t// in\n    tag_389:\n        /* \"#utility.yul\":5133:5253   */\n    tag_388:\n        /* \"#utility.yul\":5292:5293   */\n      0x00\n        /* \"#utility.yul\":5317:5370   */\n      tag_390\n        /* \"#utility.yul\":5362:5369   */\n      dup9\n        /* \"#utility.yul\":5353:5359   */\n      dup3\n        /* \"#utility.yul\":5342:5351   */\n      dup10\n        /* \"#utility.yul\":5338:5360   */\n      add\n        /* \"#utility.yul\":5317:5370   */\n      tag_259\n      jump\t// in\n    tag_390:\n        /* \"#utility.yul\":5307:5370   */\n      swap6\n      pop\n        /* \"#utility.yul\":5263:5380   */\n      pop\n        /* \"#utility.yul\":5419:5421   */\n      0x20\n        /* \"#utility.yul\":5445:5498   */\n      tag_391\n        /* \"#utility.yul\":5490:5497   */\n      dup9\n        /* \"#utility.yul\":5481:5487   */\n      dup3\n        /* \"#utility.yul\":5470:5479   */\n      dup10\n        /* \"#utility.yul\":5466:5488   */\n      add\n        /* \"#utility.yul\":5445:5498   */\n      tag_253\n      jump\t// in\n    tag_391:\n        /* \"#utility.yul\":5435:5498   */\n      swap5\n      pop\n        /* \"#utility.yul\":5390:5508   */\n      pop\n        /* \"#utility.yul\":5547:5549   */\n      0x40\n        /* \"#utility.yul\":5573:5626   */\n      tag_392\n        /* \"#utility.yul\":5618:5625   */\n      dup9\n        /* \"#utility.yul\":5609:5615   */\n      dup3\n        /* \"#utility.yul\":5598:5607   */\n      dup10\n        /* \"#utility.yul\":5594:5616   */\n      add\n        /* \"#utility.yul\":5573:5626   */\n      tag_253\n      jump\t// in\n    tag_392:\n        /* \"#utility.yul\":5563:5626   */\n      swap4\n      pop\n        /* \"#utility.yul\":5518:5636   */\n      pop\n        /* \"#utility.yul\":5703:5705   */\n      0x60\n        /* \"#utility.yul\":5692:5701   */\n      dup7\n        /* \"#utility.yul\":5688:5706   */\n      add\n        /* \"#utility.yul\":5675:5707   */\n      calldataload\n        /* \"#utility.yul\":5734:5752   */\n      0xffffffffffffffff\n        /* \"#utility.yul\":5726:5732   */\n      dup2\n        /* \"#utility.yul\":5723:5753   */\n      gt\n        /* \"#utility.yul\":5720:5837   */\n      iszero\n      tag_393\n      jumpi\n        /* \"#utility.yul\":5756:5835   */\n      tag_394\n      tag_246\n      jump\t// in\n    tag_394:\n        /* \"#utility.yul\":5720:5837   */\n    tag_393:\n        /* \"#utility.yul\":5869:5933   */\n      tag_395\n        /* \"#utility.yul\":5925:5932   */\n      dup9\n        /* \"#utility.yul\":5916:5922   */\n      dup3\n        /* \"#utility.yul\":5905:5914   */\n      dup10\n        /* \"#utility.yul\":5901:5923   */\n      add\n        /* \"#utility.yul\":5869:5933   */\n      tag_263\n      jump\t// in\n    tag_395:\n        /* \"#utility.yul\":5851:5933   */\n      swap3\n      pop\n      swap3\n      pop\n        /* \"#utility.yul\":5646:5943   */\n      pop\n        /* \"#utility.yul\":4987:5950   */\n      swap3\n      swap6\n      pop\n      swap3\n      swap6\n      swap1\n      swap4\n      pop\n      jump\t// out\n        /* \"#utility.yul\":5956:6074   */\n    tag_264:\n        /* \"#utility.yul\":6043:6067   */\n      tag_397\n        /* \"#utility.yul\":6061:6066   */\n      dup2\n        /* \"#utility.yul\":6043:6067   */\n      tag_257\n      jump\t// in\n    tag_397:\n        /* \"#utility.yul\":6038:6041   */\n      dup3\n        /* \"#utility.yul\":6031:6068   */\n      mstore\n        /* \"#utility.yul\":5956:6074   */\n      pop\n      pop\n      jump\t// out\n        /* \"#utility.yul\":6080:6302   */\n    tag_42:\n        /* \"#utility.yul\":6173:6177   */\n      0x00\n        /* \"#utility.yul\":6211:6213   */\n      0x20\n        /* \"#utility.yul\":6200:6209   */\n      dup3\n        /* \"#utility.yul\":6196:6214   */\n      add\n        /* \"#utility.yul\":6188:6214   */\n      swap1\n      pop\n        /* \"#utility.yul\":6224:6295   */\n      tag_399\n        /* \"#utility.yul\":6292:6293   */\n      0x00\n        /* \"#utility.yul\":6281:6290   */\n      dup4\n        /* \"#utility.yul\":6277:6294   */\n      add\n        /* \"#utility.yul\":6268:6274   */\n      dup5\n        /* \"#utility.yul\":6224:6295   */\n      tag_264\n      jump\t// in\n    tag_399:\n        /* \"#utility.yul\":6080:6302   */\n      swap3\n      swap2\n      pop\n      pop\n      jump\t// out\n        /* \"#utility.yul\":6308:6927   */\n    tag_45:\n        /* \"#utility.yul\":6385:6391   */\n      0x00\n        /* \"#utility.yul\":6393:6399   */\n      0x00\n        /* \"#utility.yul\":6401:6407   */\n      0x00\n        /* \"#utility.yul\":6450:6452   */\n      0x60\n        /* \"#utility.yul\":6438:6447   */\n      dup5\n        /* \"#utility.yul\":6429:6436   */\n      dup7\n        /* \"#utility.yul\":6425:6448   */\n      sub\n        /* \"#utility.yul\":6421:6453   */\n      slt\n        /* \"#utility.yul\":6418:6537   */\n      iszero\n      tag_401\n      jumpi\n        /* \"#utility.yul\":6456:6535   */\n      tag_402\n      tag_245\n      jump\t// in\n    tag_402:\n        /* \"#utility.yul\":6418:6537   */\n    tag_401:\n        /* \"#utility.yul\":6576:6577   */\n      0x00\n        /* \"#utility.yul\":6601:6654   */\n      tag_403\n        /* \"#utility.yul\":6646:6653   */\n      dup7\n        /* \"#utility.yul\":6637:6643   */\n      dup3\n        /* \"#utility.yul\":6626:6635   */\n      dup8\n        /* \"#utility.yul\":6622:6644   */\n      add\n        /* \"#utility.yul\":6601:6654   */\n      tag_250\n      jump\t// in\n    tag_403:\n        /* \"#utility.yul\":6591:6654   */\n      swap4\n      pop\n        /* \"#utility.yul\":6547:6664   */\n      pop\n        /* \"#utility.yul\":6703:6705   */\n      0x20\n        /* \"#utility.yul\":6729:6782   */\n      tag_404\n        /* \"#utility.yul\":6774:6781   */\n      dup7\n        /* \"#utility.yul\":6765:6771   */\n      dup3\n        /* \"#utility.yul\":6754:6763   */\n      dup8\n        /* \"#utility.yul\":6750:6772   */\n      add\n        /* \"#utility.yul\":6729:6782   */\n      tag_250\n      jump\t// in\n    tag_404:\n        /* \"#utility.yul\":6719:6782   */\n      swap3\n      pop\n        /* \"#utility.yul\":6674:6792   */\n      pop\n        /* \"#utility.yul\":6831:6833   */\n      0x40\n        /* \"#utility.yul\":6857:6910   */\n      tag_405\n        /* \"#utility.yul\":6902:6909   */\n      dup7\n        /* \"#utility.yul\":6893:6899   */\n      dup3\n        /* \"#utility.yul\":6882:6891   */\n      dup8\n        /* \"#utility.yul\":6878:6900   */\n      add\n        /* \"#utility.yul\":6857:6910   */\n      tag_253\n      jump\t// in\n    tag_405:\n        /* \"#utility.yul\":6847:6910   */\n      swap2\n      pop\n        /* \"#utility.yul\":6802:6920   */\n      pop\n        /* \"#utility.yul\":6308:6927   */\n      swap3\n      pop\n      swap3\n      pop\n      swap3\n      jump\t// out\n        /* \"#utility.yul\":6933:7019   */\n    tag_265:\n        /* \"#utility.yul\":6968:6975   */\n      0x00\n        /* \"#utility.yul\":7008:7012   */\n      0xff\n        /* \"#utility.yul\":7001:7006   */\n      dup3\n        /* \"#utility.yul\":6997:7013   */\n      and\n        /* \"#utility.yul\":6986:7013   */\n      swap1\n      pop\n        /* \"#utility.yul\":6933:7019   */\n      swap2\n      swap1\n      pop\n      jump\t// out\n        /* \"#utility.yul\":7025:7137   */\n    tag_266:\n        /* \"#utility.yul\":7108:7130   */\n      tag_408\n        /* \"#utility.yul\":7124:7129   */\n      dup2\n        /* \"#utility.yul\":7108:7130   */\n      tag_265\n      jump\t// in\n    tag_408:\n        /* \"#utility.yul\":7103:7106   */\n      dup3\n        /* \"#utility.yul\":7096:7131   */\n      mstore\n        /* \"#utility.yul\":7025:7137   */\n      pop\n      pop\n      jump\t// out\n        /* \"#utility.yul\":7143:7357   */\n    tag_55:\n        /* \"#utility.yul\":7232:7236   */\n      0x00\n        /* \"#utility.yul\":7270:7272   */\n      0x20\n        /* \"#utility.yul\":7259:7268   */\n      dup3\n        /* \"#utility.yul\":7255:7273   */\n      add\n        /* \"#utility.yul\":7247:7273   */\n      swap1\n      pop\n        /* \"#utility.yul\":7283:7350   */\n      tag_410\n        /* \"#utility.yul\":7347:7348   */\n      0x00\n        /* \"#utility.yul\":7336:7345   */\n      dup4\n        /* \"#utility.yul\":7332:7349   */\n      add\n        /* \"#utility.yul\":7323:7329   */\n      dup5\n        /* \"#utility.yul\":7283:7350   */\n      tag_266\n      jump\t// in\n    tag_410:\n        /* \"#utility.yul\":7143:7357   */\n      swap3\n      swap2\n      pop\n      pop\n      jump\t// out\n        /* \"#utility.yul\":7363:7692   */\n    tag_58:\n        /* \"#utility.yul\":7422:7428   */\n      0x00\n        /* \"#utility.yul\":7471:7473   */\n      0x20\n        /* \"#utility.yul\":7459:7468   */\n      dup3\n        /* \"#utility.yul\":7450:7457   */\n      dup5\n        /* \"#utility.yul\":7446:7469   */\n      sub\n        /* \"#utility.yul\":7442:7474   */\n      slt\n        /* \"#utility.yul\":7439:7558   */\n      iszero\n      tag_412\n      jumpi\n        /* \"#utility.yul\":7477:7556   */\n      tag_413\n      tag_245\n      jump\t// in\n    tag_413:\n        /* \"#utility.yul\":7439:7558   */\n    tag_412:\n        /* \"#utility.yul\":7597:7598   */\n      0x00\n        /* \"#utility.yul\":7622:7675   */\n      tag_414\n        /* \"#utility.yul\":7667:7674   */\n      dup5\n        /* \"#utility.yul\":7658:7664   */\n      dup3\n        /* \"#utility.yul\":7647:7656   */\n      dup6\n        /* \"#utility.yul\":7643:7665   */\n      add\n        /* \"#utility.yul\":7622:7675   */\n      tag_250\n      jump\t// in\n    tag_414:\n        /* \"#utility.yul\":7612:7675   */\n      swap2\n      pop\n        /* \"#utility.yul\":7568:7685   */\n      pop\n        /* \"#utility.yul\":7363:7692   */\n      swap3\n      swap2\n      pop\n      pop\n      jump\t// out\n        /* \"#utility.yul\":7698:8027   */\n    tag_63:\n        /* \"#utility.yul\":7757:7763   */\n      0x00\n        /* \"#utility.yul\":7806:7808   */\n      0x20\n        /* \"#utility.yul\":7794:7803   */\n      dup3\n        /* \"#utility.yul\":7785:7792   */\n      dup5\n        /* \"#utility.yul\":7781:7804   */\n      sub\n        /* \"#utility.yul\":7777:7809   */\n      slt\n        /* \"#utility.yul\":7774:7893   */\n      iszero\n      tag_416\n      jumpi\n        /* \"#utility.yul\":7812:7891   */\n      tag_417\n      tag_245\n      jump\t// in\n    tag_417:\n        /* \"#utility.yul\":7774:7893   */\n    tag_416:\n        /* \"#utility.yul\":7932:7933   */\n      0x00\n        /* \"#utility.yul\":7957:8010   */\n      tag_418\n        /* \"#utility.yul\":8002:8009   */\n      dup5\n        /* \"#utility.yul\":7993:7999   */\n      dup3\n        /* \"#utility.yul\":7982:7991   */\n      dup6\n        /* \"#utility.yul\":7978:8000   */\n      add\n        /* \"#utility.yul\":7957:8010   */\n      tag_259\n      jump\t// in\n    tag_418:\n        /* \"#utility.yul\":7947:8010   */\n      swap2\n      pop\n        /* \"#utility.yul\":7903:8020   */\n      pop\n        /* \"#utility.yul\":7698:8027   */\n      swap3\n      swap2\n      pop\n      pop\n      jump\t// out\n        /* \"#utility.yul\":8033:8213   */\n    tag_267:\n        /* \"#utility.yul\":8081:8158   */\n      0x4e487b7100000000000000000000000000000000000000000000000000000000\n        /* \"#utility.yul\":8078:8079   */\n      0x00\n        /* \"#utility.yul\":8071:8159   */\n      mstore\n        /* \"#utility.yul\":8178:8182   */\n      0x41\n        /* \"#utility.yul\":8175:8176   */\n      0x04\n        /* \"#utility.yul\":8168:8183   */\n      mstore\n        /* \"#utility.yul\":8202:8206   */\n      0x24\n        /* \"#utility.yul\":8199:8200   */\n      0x00\n        /* \"#utility.yul\":8192:8207   */\n      revert\n        /* \"#utility.yul\":8219:8500   */\n    tag_268:\n        /* \"#utility.yul\":8302:8329   */\n      tag_421\n        /* \"#utility.yul\":8324:8328   */\n      dup3\n        /* \"#utility.yul\":8302:8329   */\n      tag_242\n      jump\t// in\n    tag_421:\n        /* \"#utility.yul\":8294:8300   */\n      dup2\n        /* \"#utility.yul\":8290:8330   */\n      add\n        /* \"#utility.yul\":8432:8438   */\n      dup2\n        /* \"#utility.yul\":8420:8430   */\n      dup2\n        /* \"#utility.yul\":8417:8439   */\n      lt\n        /* \"#utility.yul\":8396:8414   */\n      0xffffffffffffffff\n        /* \"#utility.yul\":8384:8394   */\n      dup3\n        /* \"#utility.yul\":8381:8415   */\n      gt\n        /* \"#utility.yul\":8378:8440   */\n      or\n        /* \"#utility.yul\":8375:8463   */\n      iszero\n      tag_422\n      jumpi\n        /* \"#utility.yul\":8443:8461   */\n      tag_423\n      tag_267\n      jump\t// in\n    tag_423:\n        /* \"#utility.yul\":8375:8463   */\n    tag_422:\n        /* \"#utility.yul\":8483:8493   */\n      dup1\n        /* \"#utility.yul\":8479:8481   */\n      0x40\n        /* \"#utility.yul\":8472:8494   */\n      mstore\n        /* \"#utility.yul\":8262:8500   */\n      pop\n        /* \"#utility.yul\":8219:8500   */\n      pop\n      pop\n      jump\t// out\n        /* \"#utility.yul\":8506:8635   */\n    tag_269:\n        /* \"#utility.yul\":8540:8546   */\n      0x00\n        /* \"#utility.yul\":8567:8587   */\n      tag_425\n      tag_244\n      jump\t// in\n    tag_425:\n        /* \"#utility.yul\":8557:8587   */\n      swap1\n      pop\n        /* \"#utility.yul\":8596:8629   */\n      tag_426\n        /* \"#utility.yul\":8624:8628   */\n      dup3\n        /* \"#utility.yul\":8616:8622   */\n      dup3\n        /* \"#utility.yul\":8596:8629   */\n      tag_268\n      jump\t// in\n    tag_426:\n        /* \"#utility.yul\":8506:8635   */\n      swap2\n      swap1\n      pop\n      jump\t// out\n        /* \"#utility.yul\":8641:8952   */\n    tag_270:\n        /* \"#utility.yul\":8718:8722   */\n      0x00\n        /* \"#utility.yul\":8808:8826   */\n      0xffffffffffffffff\n        /* \"#utility.yul\":8800:8806   */\n      dup3\n        /* \"#utility.yul\":8797:8827   */\n      gt\n        /* \"#utility.yul\":8794:8850   */\n      iszero\n      tag_428\n      jumpi\n        /* \"#utility.yul\":8830:8848   */\n      tag_429\n      tag_267\n      jump\t// in\n    tag_429:\n        /* \"#utility.yul\":8794:8850   */\n    tag_428:\n        /* \"#utility.yul\":8880:8884   */\n      0x20\n        /* \"#utility.yul\":8872:8878   */\n      dup3\n        /* \"#utility.yul\":8868:8885   */\n      mul\n        /* \"#utility.yul\":8860:8885   */\n      swap1\n      pop\n        /* \"#utility.yul\":8940:8944   */\n      0x20\n        /* \"#utility.yul\":8934:8938   */\n      dup2\n        /* \"#utility.yul\":8930:8945   */\n      add\n        /* \"#utility.yul\":8922:8945   */\n      swap1\n      pop\n        /* \"#utility.yul\":8641:8952   */\n      swap2\n      swap1\n      pop\n      jump\t// out\n        /* \"#utility.yul\":8975:9685   */\n    tag_271:\n        /* \"#utility.yul\":9071:9076   */\n      0x00\n        /* \"#utility.yul\":9096:9177   */\n      tag_431\n        /* \"#utility.yul\":9112:9176   */\n      tag_432\n        /* \"#utility.yul\":9169:9175   */\n      dup5\n        /* \"#utility.yul\":9112:9176   */\n      tag_270\n      jump\t// in\n    tag_432:\n        /* \"#utility.yul\":9096:9177   */\n      tag_269\n      jump\t// in\n    tag_431:\n        /* \"#utility.yul\":9087:9177   */\n      swap1\n      pop\n        /* \"#utility.yul\":9197:9202   */\n      dup1\n        /* \"#utility.yul\":9226:9232   */\n      dup4\n        /* \"#utility.yul\":9219:9224   */\n      dup3\n        /* \"#utility.yul\":9212:9233   */\n      mstore\n        /* \"#utility.yul\":9260:9264   */\n      0x20\n        /* \"#utility.yul\":9253:9258   */\n      dup3\n        /* \"#utility.yul\":9249:9265   */\n      add\n        /* \"#utility.yul\":9242:9265   */\n      swap1\n      pop\n        /* \"#utility.yul\":9313:9317   */\n      0x20\n        /* \"#utility.yul\":9305:9311   */\n      dup5\n        /* \"#utility.yul\":9301:9318   */\n      mul\n        /* \"#utility.yul\":9293:9299   */\n      dup4\n        /* \"#utility.yul\":9289:9319   */\n      add\n        /* \"#utility.yul\":9342:9345   */\n      dup6\n        /* \"#utility.yul\":9334:9340   */\n      dup2\n        /* \"#utility.yul\":9331:9346   */\n      gt\n        /* \"#utility.yul\":9328:9450   */\n      iszero\n      tag_433\n      jumpi\n        /* \"#utility.yul\":9361:9440   */\n      tag_434\n      tag_262\n      jump\t// in\n    tag_434:\n        /* \"#utility.yul\":9328:9450   */\n    tag_433:\n        /* \"#utility.yul\":9476:9482   */\n      dup4\n        /* \"#utility.yul\":9459:9679   */\n    tag_435:\n        /* \"#utility.yul\":9493:9499   */\n      dup2\n        /* \"#utility.yul\":9488:9491   */\n      dup2\n        /* \"#utility.yul\":9485:9500   */\n      lt\n        /* \"#utility.yul\":9459:9679   */\n      iszero\n      tag_437\n      jumpi\n        /* \"#utility.yul\":9568:9571   */\n      dup1\n        /* \"#utility.yul\":9597:9634   */\n      tag_438\n        /* \"#utility.yul\":9630:9633   */\n      dup9\n        /* \"#utility.yul\":9618:9628   */\n      dup3\n        /* \"#utility.yul\":9597:9634   */\n      tag_250\n      jump\t// in\n    tag_438:\n        /* \"#utility.yul\":9592:9595   */\n      dup5\n        /* \"#utility.yul\":9585:9635   */\n      mstore\n        /* \"#utility.yul\":9664:9668   */\n      0x20\n        /* \"#utility.yul\":9659:9662   */\n      dup5\n        /* \"#utility.yul\":9655:9669   */\n      add\n        /* \"#utility.yul\":9648:9669   */\n      swap4\n      pop\n        /* \"#utility.yul\":9535:9679   */\n      pop\n        /* \"#utility.yul\":9519:9523   */\n      0x20\n        /* \"#utility.yul\":9514:9517   */\n      dup2\n        /* \"#utility.yul\":9510:9524   */\n      add\n        /* \"#utility.yul\":9503:9524   */\n      swap1\n      pop\n        /* \"#utility.yul\":9459:9679   */\n      jump(tag_435)\n    tag_437:\n        /* \"#utility.yul\":9463:9484   */\n      pop\n        /* \"#utility.yul\":9077:9685   */\n      pop\n      pop\n        /* \"#utility.yul\":8975:9685   */\n      swap4\n      swap3\n      pop\n      pop\n      pop\n      jump\t// out\n        /* \"#utility.yul\":9708:10078   */\n    tag_272:\n        /* \"#utility.yul\":9779:9784   */\n      0x00\n        /* \"#utility.yul\":9828:9831   */\n      dup3\n        /* \"#utility.yul\":9821:9825   */\n      0x1f\n        /* \"#utility.yul\":9813:9819   */\n      dup4\n        /* \"#utility.yul\":9809:9826   */\n      add\n        /* \"#utility.yul\":9805:9832   */\n      slt\n        /* \"#utility.yul\":9795:9917   */\n      tag_440\n      jumpi\n        /* \"#utility.yul\":9836:9915   */\n      tag_441\n      tag_260\n      jump\t// in\n    tag_441:\n        /* \"#utility.yul\":9795:9917   */\n    tag_440:\n        /* \"#utility.yul\":9953:9959   */\n      dup2\n        /* \"#utility.yul\":9940:9960   */\n      calldataload\n        /* \"#utility.yul\":9978:10072   */\n      tag_442\n        /* \"#utility.yul\":10068:10071   */\n      dup5\n        /* \"#utility.yul\":10060:10066   */\n      dup3\n        /* \"#utility.yul\":10053:10057   */\n      0x20\n        /* \"#utility.yul\":10045:10051   */\n      dup7\n        /* \"#utility.yul\":10041:10058   */\n      add\n        /* \"#utility.yul\":9978:10072   */\n      tag_271\n      jump\t// in\n    tag_442:\n        /* \"#utility.yul\":9969:10072   */\n      swap2\n      pop\n        /* \"#utility.yul\":9785:10078   */\n      pop\n        /* \"#utility.yul\":9708:10078   */\n      swap3\n      swap2\n      pop\n      pop\n      jump\t// out\n        /* \"#utility.yul\":10101:10669   */\n    tag_273:\n        /* \"#utility.yul\":10174:10182   */\n      0x00\n        /* \"#utility.yul\":10184:10190   */\n      0x00\n        /* \"#utility.yul\":10234:10237   */\n      dup4\n        /* \"#utility.yul\":10227:10231   */\n      0x1f\n        /* \"#utility.yul\":10219:10225   */\n      dup5\n        /* \"#utility.yul\":10215:10232   */\n      add\n        /* \"#utility.yul\":10211:10238   */\n      slt\n        /* \"#utility.yul\":10201:10323   */\n      tag_444\n      jumpi\n        /* \"#utility.yul\":10242:10321   */\n      tag_445\n      tag_260\n      jump\t// in\n    tag_445:\n        /* \"#utility.yul\":10201:10323   */\n    tag_444:\n        /* \"#utility.yul\":10355:10361   */\n      dup3\n        /* \"#utility.yul\":10342:10362   */\n      calldataload\n        /* \"#utility.yul\":10332:10362   */\n      swap1\n      pop\n        /* \"#utility.yul\":10385:10403   */\n      0xffffffffffffffff\n        /* \"#utility.yul\":10377:10383   */\n      dup2\n        /* \"#utility.yul\":10374:10404   */\n      gt\n        /* \"#utility.yul\":10371:10488   */\n      iszero\n      tag_446\n      jumpi\n        /* \"#utility.yul\":10407:10486   */\n      tag_447\n      tag_261\n      jump\t// in\n    tag_447:\n        /* \"#utility.yul\":10371:10488   */\n    tag_446:\n        /* \"#utility.yul\":10521:10525   */\n      0x20\n        /* \"#utility.yul\":10513:10519   */\n      dup4\n        /* \"#utility.yul\":10509:10526   */\n      add\n        /* \"#utility.yul\":10497:10526   */\n      swap2\n      pop\n        /* \"#utility.yul\":10575:10578   */\n      dup4\n        /* \"#utility.yul\":10567:10571   */\n      0x20\n        /* \"#utility.yul\":10559:10565   */\n      dup3\n        /* \"#utility.yul\":10555:10572   */\n      mul\n        /* \"#utility.yul\":10545:10553   */\n      dup4\n        /* \"#utility.yul\":10541:10573   */\n      add\n        /* \"#utility.yul\":10538:10579   */\n      gt\n        /* \"#utility.yul\":10535:10663   */\n      iszero\n      tag_448\n      jumpi\n        /* \"#utility.yul\":10582:10661   */\n      tag_449\n      tag_262\n      jump\t// in\n    tag_449:\n        /* \"#utility.yul\":10535:10663   */\n    tag_448:\n        /* \"#utility.yul\":10101:10669   */\n      swap3\n      pop\n      swap3\n      swap1\n      pop\n      jump\t// out\n        /* \"#utility.yul\":10675:12224   */\n    tag_75:\n        /* \"#utility.yul\":10833:10839   */\n      0x00\n        /* \"#utility.yul\":10841:10847   */\n      0x00\n        /* \"#utility.yul\":10849:10855   */\n      0x00\n        /* \"#utility.yul\":10857:10863   */\n      0x00\n        /* \"#utility.yul\":10865:10871   */\n      0x00\n        /* \"#utility.yul\":10873:10879   */\n      0x00\n        /* \"#utility.yul\":10881:10887   */\n      0x00\n        /* \"#utility.yul\":10930:10933   */\n      0xa0\n        /* \"#utility.yul\":10918:10927   */\n      dup9\n        /* \"#utility.yul\":10909:10916   */\n      dup11\n        /* \"#utility.yul\":10905:10928   */\n      sub\n        /* \"#utility.yul\":10901:10934   */\n      slt\n        /* \"#utility.yul\":10898:11018   */\n      iszero\n      tag_451\n      jumpi\n        /* \"#utility.yul\":10937:11016   */\n      tag_452\n      tag_245\n      jump\t// in\n    tag_452:\n        /* \"#utility.yul\":10898:11018   */\n    tag_451:\n        /* \"#utility.yul\":11085:11086   */\n      0x00\n        /* \"#utility.yul\":11074:11083   */\n      dup9\n        /* \"#utility.yul\":11070:11087   */\n      add\n        /* \"#utility.yul\":11057:11088   */\n      calldataload\n        /* \"#utility.yul\":11115:11133   */\n      0xffffffffffffffff\n        /* \"#utility.yul\":11107:11113   */\n      dup2\n        /* \"#utility.yul\":11104:11134   */\n      gt\n        /* \"#utility.yul\":11101:11218   */\n      iszero\n      tag_453\n      jumpi\n        /* \"#utility.yul\":11137:11216   */\n      tag_454\n      tag_246\n      jump\t// in\n    tag_454:\n        /* \"#utility.yul\":11101:11218   */\n    tag_453:\n        /* \"#utility.yul\":11242:11320   */\n      tag_455\n        /* \"#utility.yul\":11312:11319   */\n      dup11\n        /* \"#utility.yul\":11303:11309   */\n      dup3\n        /* \"#utility.yul\":11292:11301   */\n      dup12\n        /* \"#utility.yul\":11288:11310   */\n      add\n        /* \"#utility.yul\":11242:11320   */\n      tag_272\n      jump\t// in\n    tag_455:\n        /* \"#utility.yul\":11232:11320   */\n      swap8\n      pop\n        /* \"#utility.yul\":11028:11330   */\n      pop\n        /* \"#utility.yul\":11397:11399   */\n      0x20\n        /* \"#utility.yul\":11386:11395   */\n      dup9\n        /* \"#utility.yul\":11382:11400   */\n      add\n        /* \"#utility.yul\":11369:11401   */\n      calldataload\n        /* \"#utility.yul\":11428:11446   */\n      0xffffffffffffffff\n        /* \"#utility.yul\":11420:11426   */\n      dup2\n        /* \"#utility.yul\":11417:11447   */\n      gt\n        /* \"#utility.yul\":11414:11531   */\n      iszero\n      tag_456\n      jumpi\n        /* \"#utility.yul\":11450:11529   */\n      tag_457\n      tag_246\n      jump\t// in\n    tag_457:\n        /* \"#utility.yul\":11414:11531   */\n    tag_456:\n        /* \"#utility.yul\":11563:11643   */\n      tag_458\n        /* \"#utility.yul\":11635:11642   */\n      dup11\n        /* \"#utility.yul\":11626:11632   */\n      dup3\n        /* \"#utility.yul\":11615:11624   */\n      dup12\n        /* \"#utility.yul\":11611:11633   */\n      add\n        /* \"#utility.yul\":11563:11643   */\n      tag_273\n      jump\t// in\n    tag_458:\n        /* \"#utility.yul\":11545:11643   */\n      swap7\n      pop\n      swap7\n      pop\n        /* \"#utility.yul\":11340:11653   */\n      pop\n        /* \"#utility.yul\":11692:11694   */\n      0x40\n        /* \"#utility.yul\":11718:11771   */\n      tag_459\n        /* \"#utility.yul\":11763:11770   */\n      dup11\n        /* \"#utility.yul\":11754:11760   */\n      dup3\n        /* \"#utility.yul\":11743:11752   */\n      dup12\n        /* \"#utility.yul\":11739:11761   */\n      add\n        /* \"#utility.yul\":11718:11771   */\n      tag_253\n      jump\t// in\n    tag_459:\n        /* \"#utility.yul\":11708:11771   */\n      swap5\n      pop\n        /* \"#utility.yul\":11663:11781   */\n      pop\n        /* \"#utility.yul\":11820:11822   */\n      0x60\n        /* \"#utility.yul\":11846:11899   */\n      tag_460\n        /* \"#utility.yul\":11891:11898   */\n      dup11\n        /* \"#utility.yul\":11882:11888   */\n      dup3\n        /* \"#utility.yul\":11871:11880   */\n      dup12\n        /* \"#utility.yul\":11867:11889   */\n      add\n        /* \"#utility.yul\":11846:11899   */\n      tag_253\n      jump\t// in\n    tag_460:\n        /* \"#utility.yul\":11836:11899   */\n      swap4\n      pop\n        /* \"#utility.yul\":11791:11909   */\n      pop\n        /* \"#utility.yul\":11976:11979   */\n      0x80\n        /* \"#utility.yul\":11965:11974   */\n      dup9\n        /* \"#utility.yul\":11961:11980   */\n      add\n        /* \"#utility.yul\":11948:11981   */\n      calldataload\n        /* \"#utility.yul\":12008:12026   */\n      0xffffffffffffffff\n        /* \"#utility.yul\":12000:12006   */\n      dup2\n        /* \"#utility.yul\":11997:12027   */\n      gt\n        /* \"#utility.yul\":11994:12111   */\n      iszero\n      tag_461\n      jumpi\n        /* \"#utility.yul\":12030:12109   */\n      tag_462\n      tag_246\n      jump\t// in\n    tag_462:\n        /* \"#utility.yul\":11994:12111   */\n    tag_461:\n        /* \"#utility.yul\":12143:12207   */\n      tag_463\n        /* \"#utility.yul\":12199:12206   */\n      dup11\n        /* \"#utility.yul\":12190:12196   */\n      dup3\n        /* \"#utility.yul\":12179:12188   */\n      dup12\n        /* \"#utility.yul\":12175:12197   */\n      add\n        /* \"#utility.yul\":12143:12207   */\n      tag_263\n      jump\t// in\n    tag_463:\n        /* \"#utility.yul\":12125:12207   */\n      swap3\n      pop\n      swap3\n      pop\n        /* \"#utility.yul\":11919:12217   */\n      pop\n        /* \"#utility.yul\":10675:12224   */\n      swap3\n      swap6\n      swap9\n      swap2\n      swap5\n      swap8\n      pop\n      swap3\n      swap6\n      pop\n      jump\t// out\n        /* \"#utility.yul\":12230:12348   */\n    tag_274:\n        /* \"#utility.yul\":12317:12341   */\n      tag_465\n        /* \"#utility.yul\":12335:12340   */\n      dup2\n        /* \"#utility.yul\":12317:12341   */\n      tag_248\n      jump\t// in\n    tag_465:\n        /* \"#utility.yul\":12312:12315   */\n      dup3\n        /* \"#utility.yul\":12305:12342   */\n      mstore\n        /* \"#utility.yul\":12230:12348   */\n      pop\n      pop\n      jump\t// out\n        /* \"#utility.yul\":12354:13006   */\n    tag_81:\n        /* \"#utility.yul\":12553:12557   */\n      0x00\n        /* \"#utility.yul\":12591:12594   */\n      0xa0\n        /* \"#utility.yul\":12580:12589   */\n      dup3\n        /* \"#utility.yul\":12576:12595   */\n      add\n        /* \"#utility.yul\":12568:12595   */\n      swap1\n      pop\n        /* \"#utility.yul\":12605:12676   */\n      tag_467\n        /* \"#utility.yul\":12673:12674   */\n      0x00\n        /* \"#utility.yul\":12662:12671   */\n      dup4\n        /* \"#utility.yul\":12658:12675   */\n      add\n        /* \"#utility.yul\":12649:12655   */\n      dup9\n        /* \"#utility.yul\":12605:12676   */\n      tag_274\n      jump\t// in\n    tag_467:\n        /* \"#utility.yul\":12686:12758   */\n      tag_468\n        /* \"#utility.yul\":12754:12756   */\n      0x20\n        /* \"#utility.yul\":12743:12752   */\n      dup4\n        /* \"#utility.yul\":12739:12757   */\n      add\n        /* \"#utility.yul\":12730:12736   */\n      dup8\n        /* \"#utility.yul\":12686:12758   */\n      tag_264\n      jump\t// in\n    tag_468:\n        /* \"#utility.yul\":12768:12840   */\n      tag_469\n        /* \"#utility.yul\":12836:12838   */\n      0x40\n        /* \"#utility.yul\":12825:12834   */\n      dup4\n        /* \"#utility.yul\":12821:12839   */\n      add\n        /* \"#utility.yul\":12812:12818   */\n      dup7\n        /* \"#utility.yul\":12768:12840   */\n      tag_256\n      jump\t// in\n    tag_469:\n        /* \"#utility.yul\":12850:12916   */\n      tag_470\n        /* \"#utility.yul\":12912:12914   */\n      0x60\n        /* \"#utility.yul\":12901:12910   */\n      dup4\n        /* \"#utility.yul\":12897:12915   */\n      add\n        /* \"#utility.yul\":12888:12894   */\n      dup6\n        /* \"#utility.yul\":12850:12916   */\n      tag_255\n      jump\t// in\n    tag_470:\n        /* \"#utility.yul\":12926:12999   */\n      tag_471\n        /* \"#utility.yul\":12994:12997   */\n      0x80\n        /* \"#utility.yul\":12983:12992   */\n      dup4\n        /* \"#utility.yul\":12979:12998   */\n      add\n        /* \"#utility.yul\":12970:12976   */\n      dup5\n        /* \"#utility.yul\":12926:12999   */\n      tag_264\n      jump\t// in\n    tag_471:\n        /* \"#utility.yul\":12354:13006   */\n      swap7\n      swap6\n      pop\n      pop\n      pop\n      pop\n      pop\n      pop\n      jump\t// out\n        /* \"#utility.yul\":13012:13486   */\n    tag_87:\n        /* \"#utility.yul\":13080:13086   */\n      0x00\n        /* \"#utility.yul\":13088:13094   */\n      0x00\n        /* \"#utility.yul\":13137:13139   */\n      0x40\n        /* \"#utility.yul\":13125:13134   */\n      dup4\n        /* \"#utility.yul\":13116:13123   */\n      dup6\n        /* \"#utility.yul\":13112:13135   */\n      sub\n        /* \"#utility.yul\":13108:13140   */\n      slt\n        /* \"#utility.yul\":13105:13224   */\n      iszero\n      tag_473\n      jumpi\n        /* \"#utility.yul\":13143:13222   */\n      tag_474\n      tag_245\n      jump\t// in\n    tag_474:\n        /* \"#utility.yul\":13105:13224   */\n    tag_473:\n        /* \"#utility.yul\":13263:13264   */\n      0x00\n        /* \"#utility.yul\":13288:13341   */\n      tag_475\n        /* \"#utility.yul\":13333:13340   */\n      dup6\n        /* \"#utility.yul\":13324:13330   */\n      dup3\n        /* \"#utility.yul\":13313:13322   */\n      dup7\n        /* \"#utility.yul\":13309:13331   */\n      add\n        /* \"#utility.yul\":13288:13341   */\n      tag_250\n      jump\t// in\n    tag_475:\n        /* \"#utility.yul\":13278:13341   */\n      swap3\n      pop\n        /* \"#utility.yul\":13234:13351   */\n      pop\n        /* \"#utility.yul\":13390:13392   */\n      0x20\n        /* \"#utility.yul\":13416:13469   */\n      tag_476\n        /* \"#utility.yul\":13461:13468   */\n      dup6\n        /* \"#utility.yul\":13452:13458   */\n      dup3\n        /* \"#utility.yul\":13441:13450   */\n      dup7\n        /* \"#utility.yul\":13437:13459   */\n      add\n        /* \"#utility.yul\":13416:13469   */\n      tag_250\n      jump\t// in\n    tag_476:\n        /* \"#utility.yul\":13406:13469   */\n      swap2\n      pop\n        /* \"#utility.yul\":13361:13479   */\n      pop\n        /* \"#utility.yul\":13012:13486   */\n      swap3\n      pop\n      swap3\n      swap1\n      pop\n      jump\t// out\n        /* \"#utility.yul\":13492:13672   */\n    tag_275:\n        /* \"#utility.yul\":13540:13617   */\n      0x4e487b7100000000000000000000000000000000000000000000000000000000\n        /* \"#utility.yul\":13537:13538   */\n      0x00\n        /* \"#utility.yul\":13530:13618   */\n      mstore\n        /* \"#utility.yul\":13637:13641   */\n      0x21\n        /* \"#utility.yul\":13634:13635   */\n      0x04\n        /* \"#utility.yul\":13627:13642   */\n      mstore\n        /* \"#utility.yul\":13661:13665   */\n      0x24\n        /* \"#utility.yul\":13658:13659   */\n      0x00\n        /* \"#utility.yul\":13651:13666   */\n      revert\n        /* \"#utility.yul\":13678:13792   */\n    tag_276:\n        /* \"#utility.yul\":13760:13761   */\n      0x04\n        /* \"#utility.yul\":13753:13758   */\n      dup2\n        /* \"#utility.yul\":13750:13762   */\n      lt\n        /* \"#utility.yul\":13740:13786   */\n      tag_479\n      jumpi\n        /* \"#utility.yul\":13766:13784   */\n      tag_480\n      tag_275\n      jump\t// in\n    tag_480:\n        /* \"#utility.yul\":13740:13786   */\n    tag_479:\n        /* \"#utility.yul\":13678:13792   */\n      pop\n      jump\t// out\n        /* \"#utility.yul\":13798:13927   */\n    tag_277:\n        /* \"#utility.yul\":13844:13851   */\n      0x00\n        /* \"#utility.yul\":13873:13878   */\n      dup2\n        /* \"#utility.yul\":13862:13878   */\n      swap1\n      pop\n        /* \"#utility.yul\":13879:13921   */\n      tag_482\n        /* \"#utility.yul\":13915:13920   */\n      dup3\n        /* \"#utility.yul\":13879:13921   */\n      tag_276\n      jump\t// in\n    tag_482:\n        /* \"#utility.yul\":13798:13927   */\n      swap2\n      swap1\n      pop\n      jump\t// out\n        /* \"#utility.yul\":13933:14062   */\n    tag_278:\n        /* \"#utility.yul\":13990:13999   */\n      0x00\n        /* \"#utility.yul\":14023:14056   */\n      tag_484\n        /* \"#utility.yul\":14050:14055   */\n      dup3\n        /* \"#utility.yul\":14023:14056   */\n      tag_277\n      jump\t// in\n    tag_484:\n        /* \"#utility.yul\":14010:14056   */\n      swap1\n      pop\n        /* \"#utility.yul\":13933:14062   */\n      swap2\n      swap1\n      pop\n      jump\t// out\n        /* \"#utility.yul\":14068:14213   */\n    tag_279:\n        /* \"#utility.yul\":14162:14206   */\n      tag_486\n        /* \"#utility.yul\":14200:14205   */\n      dup2\n        /* \"#utility.yul\":14162:14206   */\n      tag_278\n      jump\t// in\n    tag_486:\n        /* \"#utility.yul\":14157:14160   */\n      dup3\n        /* \"#utility.yul\":14150:14207   */\n      mstore\n        /* \"#utility.yul\":14068:14213   */\n      pop\n      pop\n      jump\t// out\n        /* \"#utility.yul\":14219:15565   */\n    tag_94:\n        /* \"#utility.yul\":14600:14604   */\n      0x00\n        /* \"#utility.yul\":14638:14641   */\n      0x0160\n        /* \"#utility.yul\":14627:14636   */\n      dup3\n        /* \"#utility.yul\":14623:14642   */\n      add\n        /* \"#utility.yul\":14615:14642   */\n      swap1\n      pop\n        /* \"#utility.yul\":14652:14723   */\n      tag_488\n        /* \"#utility.yul\":14720:14721   */\n      0x00\n        /* \"#utility.yul\":14709:14718   */\n      dup4\n        /* \"#utility.yul\":14705:14722   */\n      add\n        /* \"#utility.yul\":14696:14702   */\n      dup15\n        /* \"#utility.yul\":14652:14723   */\n      tag_264\n      jump\t// in\n    tag_488:\n        /* \"#utility.yul\":14733:14805   */\n      tag_489\n        /* \"#utility.yul\":14801:14803   */\n      0x20\n        /* \"#utility.yul\":14790:14799   */\n      dup4\n        /* \"#utility.yul\":14786:14804   */\n      add\n        /* \"#utility.yul\":14777:14783   */\n      dup14\n        /* \"#utility.yul\":14733:14805   */\n      tag_274\n      jump\t// in\n    tag_489:\n        /* \"#utility.yul\":14815:14887   */\n      tag_490\n        /* \"#utility.yul\":14883:14885   */\n      0x40\n        /* \"#utility.yul\":14872:14881   */\n      dup4\n        /* \"#utility.yul\":14868:14886   */\n      add\n        /* \"#utility.yul\":14859:14865   */\n      dup13\n        /* \"#utility.yul\":14815:14887   */\n      tag_274\n      jump\t// in\n    tag_490:\n        /* \"#utility.yul\":14897:14969   */\n      tag_491\n        /* \"#utility.yul\":14965:14967   */\n      0x60\n        /* \"#utility.yul\":14954:14963   */\n      dup4\n        /* \"#utility.yul\":14950:14968   */\n      add\n        /* \"#utility.yul\":14941:14947   */\n      dup12\n        /* \"#utility.yul\":14897:14969   */\n      tag_256\n      jump\t// in\n    tag_491:\n        /* \"#utility.yul\":14979:15052   */\n      tag_492\n        /* \"#utility.yul\":15047:15050   */\n      0x80\n        /* \"#utility.yul\":15036:15045   */\n      dup4\n        /* \"#utility.yul\":15032:15051   */\n      add\n        /* \"#utility.yul\":15023:15029   */\n      dup11\n        /* \"#utility.yul\":14979:15052   */\n      tag_264\n      jump\t// in\n    tag_492:\n        /* \"#utility.yul\":15062:15135   */\n      tag_493\n        /* \"#utility.yul\":15130:15133   */\n      0xa0\n        /* \"#utility.yul\":15119:15128   */\n      dup4\n        /* \"#utility.yul\":15115:15134   */\n      add\n        /* \"#utility.yul\":15106:15112   */\n      dup10\n        /* \"#utility.yul\":15062:15135   */\n      tag_264\n      jump\t// in\n    tag_493:\n        /* \"#utility.yul\":15145:15218   */\n      tag_494\n        /* \"#utility.yul\":15213:15216   */\n      0xc0\n        /* \"#utility.yul\":15202:15211   */\n      dup4\n        /* \"#utility.yul\":15198:15217   */\n      add\n        /* \"#utility.yul\":15189:15195   */\n      dup9\n        /* \"#utility.yul\":15145:15218   */\n      tag_264\n      jump\t// in\n    tag_494:\n        /* \"#utility.yul\":15228:15301   */\n      tag_495\n        /* \"#utility.yul\":15296:15299   */\n      0xe0\n        /* \"#utility.yul\":15285:15294   */\n      dup4\n        /* \"#utility.yul\":15281:15300   */\n      add\n        /* \"#utility.yul\":15272:15278   */\n      dup8\n        /* \"#utility.yul\":15228:15301   */\n      tag_256\n      jump\t// in\n    tag_495:\n        /* \"#utility.yul\":15311:15384   */\n      tag_496\n        /* \"#utility.yul\":15379:15382   */\n      0x0100\n        /* \"#utility.yul\":15368:15377   */\n      dup4\n        /* \"#utility.yul\":15364:15383   */\n      add\n        /* \"#utility.yul\":15355:15361   */\n      dup7\n        /* \"#utility.yul\":15311:15384   */\n      tag_256\n      jump\t// in\n    tag_496:\n        /* \"#utility.yul\":15394:15474   */\n      tag_497\n        /* \"#utility.yul\":15469:15472   */\n      0x0120\n        /* \"#utility.yul\":15458:15467   */\n      dup4\n        /* \"#utility.yul\":15454:15473   */\n      add\n        /* \"#utility.yul\":15445:15451   */\n      dup6\n        /* \"#utility.yul\":15394:15474   */\n      tag_279\n      jump\t// in\n    tag_497:\n        /* \"#utility.yul\":15484:15558   */\n      tag_498\n        /* \"#utility.yul\":15553:15556   */\n      0x0140\n        /* \"#utility.yul\":15542:15551   */\n      dup4\n        /* \"#utility.yul\":15538:15557   */\n      add\n        /* \"#utility.yul\":15528:15535   */\n      dup5\n        /* \"#utility.yul\":15484:15558   */\n      tag_264\n      jump\t// in\n    tag_498:\n        /* \"#utility.yul\":14219:15565   */\n      swap13\n      swap12\n      pop\n      pop\n      pop\n      pop\n      pop\n      pop\n      pop\n      pop\n      pop\n      pop\n      pop\n      pop\n      jump\t// out\n        /* \"#utility.yul\":15571:15751   */\n    tag_280:\n        /* \"#utility.yul\":15619:15696   */\n      0x4e487b7100000000000000000000000000000000000000000000000000000000\n        /* \"#utility.yul\":15616:15617   */\n      0x00\n        /* \"#utility.yul\":15609:15697   */\n      mstore\n        /* \"#utility.yul\":15716:15720   */\n      0x22\n        /* \"#utility.yul\":15713:15714   */\n      0x04\n        /* \"#utility.yul\":15706:15721   */\n      mstore\n        /* \"#utility.yul\":15740:15744   */\n      0x24\n        /* \"#utility.yul\":15737:15738   */\n      0x00\n        /* \"#utility.yul\":15730:15745   */\n      revert\n        /* \"#utility.yul\":15757:16077   */\n    tag_100:\n        /* \"#utility.yul\":15801:15807   */\n      0x00\n        /* \"#utility.yul\":15838:15839   */\n      0x02\n        /* \"#utility.yul\":15832:15836   */\n      dup3\n        /* \"#utility.yul\":15828:15840   */\n      div\n        /* \"#utility.yul\":15818:15840   */\n      swap1\n      pop\n        /* \"#utility.yul\":15885:15886   */\n      0x01\n        /* \"#utility.yul\":15879:15883   */\n      dup3\n        /* \"#utility.yul\":15875:15887   */\n      and\n        /* \"#utility.yul\":15906:15924   */\n      dup1\n        /* \"#utility.yul\":15896:15977   */\n      tag_501\n      jumpi\n        /* \"#utility.yul\":15962:15966   */\n      0x7f\n        /* \"#utility.yul\":15954:15960   */\n      dup3\n        /* \"#utility.yul\":15950:15967   */\n      and\n        /* \"#utility.yul\":15940:15967   */\n      swap2\n      pop\n        /* \"#utility.yul\":15896:15977   */\n    tag_501:\n        /* \"#utility.yul\":16024:16026   */\n      0x20\n        /* \"#utility.yul\":16016:16022   */\n      dup3\n        /* \"#utility.yul\":16013:16027   */\n      lt\n        /* \"#utility.yul\":15993:16011   */\n      dup2\n        /* \"#utility.yul\":15990:16028   */\n      sub\n        /* \"#utility.yul\":15987:16071   */\n      tag_502\n      jumpi\n        /* \"#utility.yul\":16043:16061   */\n      tag_503\n      tag_280\n      jump\t// in\n    tag_503:\n        /* \"#utility.yul\":15987:16071   */\n    tag_502:\n        /* \"#utility.yul\":15808:16077   */\n      pop\n        /* \"#utility.yul\":15757:16077   */\n      swap2\n      swap1\n      pop\n      jump\t// out\n        /* \"#utility.yul\":16083:16246   */\n    tag_281:\n        /* \"#utility.yul\":16223:16238   */\n      0x5961207265676973747261646f00000000000000000000000000000000000000\n        /* \"#utility.yul\":16219:16220   */\n      0x00\n        /* \"#utility.yul\":16211:16217   */\n      dup3\n        /* \"#utility.yul\":16207:16221   */\n      add\n        /* \"#utility.yul\":16200:16239   */\n      mstore\n        /* \"#utility.yul\":16083:16246   */\n      pop\n      jump\t// out\n        /* \"#utility.yul\":16252:16618   */\n    tag_282:\n        /* \"#utility.yul\":16394:16397   */\n      0x00\n        /* \"#utility.yul\":16415:16482   */\n      tag_506\n        /* \"#utility.yul\":16479:16481   */\n      0x0d\n        /* \"#utility.yul\":16474:16477   */\n      dup4\n        /* \"#utility.yul\":16415:16482   */\n      tag_240\n      jump\t// in\n    tag_506:\n        /* \"#utility.yul\":16408:16482   */\n      swap2\n      pop\n        /* \"#utility.yul\":16491:16584   */\n      tag_507\n        /* \"#utility.yul\":16580:16583   */\n      dup3\n        /* \"#utility.yul\":16491:16584   */\n      tag_281\n      jump\t// in\n    tag_507:\n        /* \"#utility.yul\":16609:16611   */\n      0x20\n        /* \"#utility.yul\":16604:16607   */\n      dup3\n        /* \"#utility.yul\":16600:16612   */\n      add\n        /* \"#utility.yul\":16593:16612   */\n      swap1\n      pop\n        /* \"#utility.yul\":16252:16618   */\n      swap2\n      swap1\n      pop\n      jump\t// out\n        /* \"#utility.yul\":16624:17043   */\n    tag_114:\n        /* \"#utility.yul\":16790:16794   */\n      0x00\n        /* \"#utility.yul\":16828:16830   */\n      0x20\n        /* \"#utility.yul\":16817:16826   */\n      dup3\n        /* \"#utility.yul\":16813:16831   */\n      add\n        /* \"#utility.yul\":16805:16831   */\n      swap1\n      pop\n        /* \"#utility.yul\":16877:16886   */\n      dup2\n        /* \"#utility.yul\":16871:16875   */\n      dup2\n        /* \"#utility.yul\":16867:16887   */\n      sub\n        /* \"#utility.yul\":16863:16864   */\n      0x00\n        /* \"#utility.yul\":16852:16861   */\n      dup4\n        /* \"#utility.yul\":16848:16865   */\n      add\n        /* \"#utility.yul\":16841:16888   */\n      mstore\n        /* \"#utility.yul\":16905:17036   */\n      tag_509\n        /* \"#utility.yul\":17031:17035   */\n      dup2\n        /* \"#utility.yul\":16905:17036   */\n      tag_282\n      jump\t// in\n    tag_509:\n        /* \"#utility.yul\":16897:17036   */\n      swap1\n      pop\n        /* \"#utility.yul\":16624:17043   */\n      swap2\n      swap1\n      pop\n      jump\t// out\n        /* \"#utility.yul\":17049:17214   */\n    tag_283:\n        /* \"#utility.yul\":17189:17206   */\n      0x44657669636520796120757361646f0000000000000000000000000000000000\n        /* \"#utility.yul\":17185:17186   */\n      0x00\n        /* \"#utility.yul\":17177:17183   */\n      dup3\n        /* \"#utility.yul\":17173:17187   */\n      add\n        /* \"#utility.yul\":17166:17207   */\n      mstore\n        /* \"#utility.yul\":17049:17214   */\n      pop\n      jump\t// out\n        /* \"#utility.yul\":17220:17586   */\n    tag_284:\n        /* \"#utility.yul\":17362:17365   */\n      0x00\n        /* \"#utility.yul\":17383:17450   */\n      tag_512\n        /* \"#utility.yul\":17447:17449   */\n      0x0f\n        /* \"#utility.yul\":17442:17445   */\n      dup4\n        /* \"#utility.yul\":17383:17450   */\n      tag_240\n      jump\t// in\n    tag_512:\n        /* \"#utility.yul\":17376:17450   */\n      swap2\n      pop\n        /* \"#utility.yul\":17459:17552   */\n      tag_513\n        /* \"#utility.yul\":17548:17551   */\n      dup3\n        /* \"#utility.yul\":17459:17552   */\n      tag_283\n      jump\t// in\n    tag_513:\n        /* \"#utility.yul\":17577:17579   */\n      0x20\n        /* \"#utility.yul\":17572:17575   */\n      dup3\n        /* \"#utility.yul\":17568:17580   */\n      add\n        /* \"#utility.yul\":17561:17580   */\n      swap1\n      pop\n        /* \"#utility.yul\":17220:17586   */\n      swap2\n      swap1\n      pop\n      jump\t// out\n        /* \"#utility.yul\":17592:18011   */\n    tag_117:\n        /* \"#utility.yul\":17758:17762   */\n      0x00\n        /* \"#utility.yul\":17796:17798   */\n      0x20\n        /* \"#utility.yul\":17785:17794   */\n      dup3\n        /* \"#utility.yul\":17781:17799   */\n      add\n        /* \"#utility.yul\":17773:17799   */\n      swap1\n      pop\n        /* \"#utility.yul\":17845:17854   */\n      dup2\n        /* \"#utility.yul\":17839:17843   */\n      dup2\n        /* \"#utility.yul\":17835:17855   */\n      sub\n        /* \"#utility.yul\":17831:17832   */\n      0x00\n        /* \"#utility.yul\":17820:17829   */\n      dup4\n        /* \"#utility.yul\":17816:17833   */\n      add\n        /* \"#utility.yul\":17809:17856   */\n      mstore\n        /* \"#utility.yul\":17873:18004   */\n      tag_515\n        /* \"#utility.yul\":17999:18003   */\n      dup2\n        /* \"#utility.yul\":17873:18004   */\n      tag_284\n      jump\t// in\n    tag_515:\n        /* \"#utility.yul\":17865:18004   */\n      swap1\n      pop\n        /* \"#utility.yul\":17592:18011   */\n      swap2\n      swap1\n      pop\n      jump\t// out\n        /* \"#utility.yul\":18017:18197   */\n    tag_285:\n        /* \"#utility.yul\":18065:18142   */\n      0x4e487b7100000000000000000000000000000000000000000000000000000000\n        /* \"#utility.yul\":18062:18063   */\n      0x00\n        /* \"#utility.yul\":18055:18143   */\n      mstore\n        /* \"#utility.yul\":18162:18166   */\n      0x11\n        /* \"#utility.yul\":18159:18160   */\n      0x04\n        /* \"#utility.yul\":18152:18167   */\n      mstore\n        /* \"#utility.yul\":18186:18190   */\n      0x24\n        /* \"#utility.yul\":18183:18184   */\n      0x00\n        /* \"#utility.yul\":18176:18191   */\n      revert\n        /* \"#utility.yul\":18203:18394   */\n    tag_119:\n        /* \"#utility.yul\":18243:18246   */\n      0x00\n        /* \"#utility.yul\":18262:18282   */\n      tag_518\n        /* \"#utility.yul\":18280:18281   */\n      dup3\n        /* \"#utility.yul\":18262:18282   */\n      tag_251\n      jump\t// in\n    tag_518:\n        /* \"#utility.yul\":18257:18282   */\n      swap2\n      pop\n        /* \"#utility.yul\":18296:18316   */\n      tag_519\n        /* \"#utility.yul\":18314:18315   */\n      dup4\n        /* \"#utility.yul\":18296:18316   */\n      tag_251\n      jump\t// in\n    tag_519:\n        /* \"#utility.yul\":18291:18316   */\n      swap3\n      pop\n        /* \"#utility.yul\":18339:18340   */\n      dup3\n        /* \"#utility.yul\":18336:18337   */\n      dup3\n        /* \"#utility.yul\":18332:18341   */\n      add\n        /* \"#utility.yul\":18325:18341   */\n      swap1\n      pop\n        /* \"#utility.yul\":18360:18363   */\n      dup1\n        /* \"#utility.yul\":18357:18358   */\n      dup3\n        /* \"#utility.yul\":18354:18364   */\n      gt\n        /* \"#utility.yul\":18351:18387   */\n      iszero\n      tag_520\n      jumpi\n        /* \"#utility.yul\":18367:18385   */\n      tag_521\n      tag_285\n      jump\t// in\n    tag_521:\n        /* \"#utility.yul\":18351:18387   */\n    tag_520:\n        /* \"#utility.yul\":18203:18394   */\n      swap3\n      swap2\n      pop\n      pop\n      jump\t// out\n        /* \"#utility.yul\":18400:18568   */\n    tag_286:\n        /* \"#utility.yul\":18540:18560   */\n      0x54696d657374616d7020657870697261646f0000000000000000000000000000\n        /* \"#utility.yul\":18536:18537   */\n      0x00\n        /* \"#utility.yul\":18528:18534   */\n      dup3\n        /* \"#utility.yul\":18524:18538   */\n      add\n        /* \"#utility.yul\":18517:18561   */\n      mstore\n        /* \"#utility.yul\":18400:18568   */\n      pop\n      jump\t// out\n        /* \"#utility.yul\":18574:18940   */\n    tag_287:\n        /* \"#utility.yul\":18716:18719   */\n      0x00\n        /* \"#utility.yul\":18737:18804   */\n      tag_524\n        /* \"#utility.yul\":18801:18803   */\n      0x12\n        /* \"#utility.yul\":18796:18799   */\n      dup4\n        /* \"#utility.yul\":18737:18804   */\n      tag_240\n      jump\t// in\n    tag_524:\n        /* \"#utility.yul\":18730:18804   */\n      swap2\n      pop\n        /* \"#utility.yul\":18813:18906   */\n      tag_525\n        /* \"#utility.yul\":18902:18905   */\n      dup3\n        /* \"#utility.yul\":18813:18906   */\n      tag_286\n      jump\t// in\n    tag_525:\n        /* \"#utility.yul\":18931:18933   */\n      0x20\n        /* \"#utility.yul\":18926:18929   */\n      dup3\n        /* \"#utility.yul\":18922:18934   */\n      add\n        /* \"#utility.yul\":18915:18934   */\n      swap1\n      pop\n        /* \"#utility.yul\":18574:18940   */\n      swap2\n      swap1\n      pop\n      jump\t// out\n        /* \"#utility.yul\":18946:19365   */\n    tag_122:\n        /* \"#utility.yul\":19112:19116   */\n      0x00\n        /* \"#utility.yul\":19150:19152   */\n      0x20\n        /* \"#utility.yul\":19139:19148   */\n      dup3\n        /* \"#utility.yul\":19135:19153   */\n      add\n        /* \"#utility.yul\":19127:19153   */\n      swap1\n      pop\n        /* \"#utility.yul\":19199:19208   */\n      dup2\n        /* \"#utility.yul\":19193:19197   */\n      dup2\n        /* \"#utility.yul\":19189:19209   */\n      sub\n        /* \"#utility.yul\":19185:19186   */\n      0x00\n        /* \"#utility.yul\":19174:19183   */\n      dup4\n        /* \"#utility.yul\":19170:19187   */\n      add\n        /* \"#utility.yul\":19163:19210   */\n      mstore\n        /* \"#utility.yul\":19227:19358   */\n      tag_527\n        /* \"#utility.yul\":19353:19357   */\n      dup2\n        /* \"#utility.yul\":19227:19358   */\n      tag_287\n      jump\t// in\n    tag_527:\n        /* \"#utility.yul\":19219:19358   */\n      swap1\n      pop\n        /* \"#utility.yul\":18946:19365   */\n      swap2\n      swap1\n      pop\n      jump\t// out\n        /* \"#utility.yul\":19371:19465   */\n    tag_288:\n        /* \"#utility.yul\":19404:19412   */\n      0x00\n        /* \"#utility.yul\":19452:19457   */\n      dup2\n        /* \"#utility.yul\":19448:19450   */\n      0x60\n        /* \"#utility.yul\":19444:19458   */\n      shl\n        /* \"#utility.yul\":19423:19458   */\n      swap1\n      pop\n        /* \"#utility.yul\":19371:19465   */\n      swap2\n      swap1\n      pop\n      jump\t// out\n        /* \"#utility.yul\":19471:19565   */\n    tag_289:\n        /* \"#utility.yul\":19510:19517   */\n      0x00\n        /* \"#utility.yul\":19539:19559   */\n      tag_530\n        /* \"#utility.yul\":19553:19558   */\n      dup3\n        /* \"#utility.yul\":19539:19559   */\n      tag_288\n      jump\t// in\n    tag_530:\n        /* \"#utility.yul\":19528:19559   */\n      swap1\n      pop\n        /* \"#utility.yul\":19471:19565   */\n      swap2\n      swap1\n      pop\n      jump\t// out\n        /* \"#utility.yul\":19571:19671   */\n    tag_290:\n        /* \"#utility.yul\":19610:19617   */\n      0x00\n        /* \"#utility.yul\":19639:19665   */\n      tag_532\n        /* \"#utility.yul\":19659:19664   */\n      dup3\n        /* \"#utility.yul\":19639:19665   */\n      tag_289\n      jump\t// in\n    tag_532:\n        /* \"#utility.yul\":19628:19665   */\n      swap1\n      pop\n        /* \"#utility.yul\":19571:19671   */\n      swap2\n      swap1\n      pop\n      jump\t// out\n        /* \"#utility.yul\":19677:19834   */\n    tag_291:\n        /* \"#utility.yul\":19782:19827   */\n      tag_534\n        /* \"#utility.yul\":19802:19826   */\n      tag_535\n        /* \"#utility.yul\":19820:19825   */\n      dup3\n        /* \"#utility.yul\":19802:19826   */\n      tag_248\n      jump\t// in\n    tag_535:\n        /* \"#utility.yul\":19782:19827   */\n      tag_290\n      jump\t// in\n    tag_534:\n        /* \"#utility.yul\":19777:19780   */\n      dup3\n        /* \"#utility.yul\":19770:19828   */\n      mstore\n        /* \"#utility.yul\":19677:19834   */\n      pop\n      pop\n      jump\t// out\n        /* \"#utility.yul\":19840:19919   */\n    tag_292:\n        /* \"#utility.yul\":19879:19886   */\n      0x00\n        /* \"#utility.yul\":19908:19913   */\n      dup2\n        /* \"#utility.yul\":19897:19913   */\n      swap1\n      pop\n        /* \"#utility.yul\":19840:19919   */\n      swap2\n      swap1\n      pop\n      jump\t// out\n        /* \"#utility.yul\":19925:20082   */\n    tag_293:\n        /* \"#utility.yul\":20030:20075   */\n      tag_538\n        /* \"#utility.yul\":20050:20074   */\n      tag_539\n        /* \"#utility.yul\":20068:20073   */\n      dup3\n        /* \"#utility.yul\":20050:20074   */\n      tag_257\n      jump\t// in\n    tag_539:\n        /* \"#utility.yul\":20030:20075   */\n      tag_292\n      jump\t// in\n    tag_538:\n        /* \"#utility.yul\":20025:20028   */\n      dup3\n        /* \"#utility.yul\":20018:20076   */\n      mstore\n        /* \"#utility.yul\":19925:20082   */\n      pop\n      pop\n      jump\t// out\n        /* \"#utility.yul\":20088:20167   */\n    tag_294:\n        /* \"#utility.yul\":20127:20134   */\n      0x00\n        /* \"#utility.yul\":20156:20161   */\n      dup2\n        /* \"#utility.yul\":20145:20161   */\n      swap1\n      pop\n        /* \"#utility.yul\":20088:20167   */\n      swap2\n      swap1\n      pop\n      jump\t// out\n        /* \"#utility.yul\":20173:20330   */\n    tag_295:\n        /* \"#utility.yul\":20278:20323   */\n      tag_542\n        /* \"#utility.yul\":20298:20322   */\n      tag_543\n        /* \"#utility.yul\":20316:20321   */\n      dup3\n        /* \"#utility.yul\":20298:20322   */\n      tag_251\n      jump\t// in\n    tag_543:\n        /* \"#utility.yul\":20278:20323   */\n      tag_294\n      jump\t// in\n    tag_542:\n        /* \"#utility.yul\":20273:20276   */\n      dup3\n        /* \"#utility.yul\":20266:20324   */\n      mstore\n        /* \"#utility.yul\":20173:20330   */\n      pop\n      pop\n      jump\t// out\n        /* \"#utility.yul\":20336:21015   */\n    tag_124:\n        /* \"#utility.yul\":20532:20535   */\n      0x00\n        /* \"#utility.yul\":20547:20622   */\n      tag_545\n        /* \"#utility.yul\":20618:20621   */\n      dup3\n        /* \"#utility.yul\":20609:20615   */\n      dup8\n        /* \"#utility.yul\":20547:20622   */\n      tag_291\n      jump\t// in\n    tag_545:\n        /* \"#utility.yul\":20647:20649   */\n      0x14\n        /* \"#utility.yul\":20642:20645   */\n      dup3\n        /* \"#utility.yul\":20638:20650   */\n      add\n        /* \"#utility.yul\":20631:20650   */\n      swap2\n      pop\n        /* \"#utility.yul\":20660:20735   */\n      tag_546\n        /* \"#utility.yul\":20731:20734   */\n      dup3\n        /* \"#utility.yul\":20722:20728   */\n      dup7\n        /* \"#utility.yul\":20660:20735   */\n      tag_293\n      jump\t// in\n    tag_546:\n        /* \"#utility.yul\":20760:20762   */\n      0x20\n        /* \"#utility.yul\":20755:20758   */\n      dup3\n        /* \"#utility.yul\":20751:20763   */\n      add\n        /* \"#utility.yul\":20744:20763   */\n      swap2\n      pop\n        /* \"#utility.yul\":20773:20848   */\n      tag_547\n        /* \"#utility.yul\":20844:20847   */\n      dup3\n        /* \"#utility.yul\":20835:20841   */\n      dup6\n        /* \"#utility.yul\":20773:20848   */\n      tag_295\n      jump\t// in\n    tag_547:\n        /* \"#utility.yul\":20873:20875   */\n      0x20\n        /* \"#utility.yul\":20868:20871   */\n      dup3\n        /* \"#utility.yul\":20864:20876   */\n      add\n        /* \"#utility.yul\":20857:20876   */\n      swap2\n      pop\n        /* \"#utility.yul\":20886:20961   */\n      tag_548\n        /* \"#utility.yul\":20957:20960   */\n      dup3\n        /* \"#utility.yul\":20948:20954   */\n      dup5\n        /* \"#utility.yul\":20886:20961   */\n      tag_295\n      jump\t// in\n    tag_548:\n        /* \"#utility.yul\":20986:20988   */\n      0x20\n        /* \"#utility.yul\":20981:20984   */\n      dup3\n        /* \"#utility.yul\":20977:20989   */\n      add\n        /* \"#utility.yul\":20970:20989   */\n      swap2\n      pop\n        /* \"#utility.yul\":21006:21009   */\n      dup2\n        /* \"#utility.yul\":20999:21009   */\n      swap1\n      pop\n        /* \"#utility.yul\":20336:21015   */\n      swap6\n      swap5\n      pop\n      pop\n      pop\n      pop\n      pop\n      jump\t// out\n        /* \"#utility.yul\":21021:21185   */\n    tag_296:\n        /* \"#utility.yul\":21161:21177   */\n      0x4669726d6120696e76616c696461000000000000000000000000000000000000\n        /* \"#utility.yul\":21157:21158   */\n      0x00\n        /* \"#utility.yul\":21149:21155   */\n      dup3\n        /* \"#utility.yul\":21145:21159   */\n      add\n        /* \"#utility.yul\":21138:21178   */\n      mstore\n        /* \"#utility.yul\":21021:21185   */\n      pop\n      jump\t// out\n        /* \"#utility.yul\":21191:21557   */\n    tag_297:\n        /* \"#utility.yul\":21333:21336   */\n      0x00\n        /* \"#utility.yul\":21354:21421   */\n      tag_551\n        /* \"#utility.yul\":21418:21420   */\n      0x0e\n        /* \"#utility.yul\":21413:21416   */\n      dup4\n        /* \"#utility.yul\":21354:21421   */\n      tag_240\n      jump\t// in\n    tag_551:\n        /* \"#utility.yul\":21347:21421   */\n      swap2\n      pop\n        /* \"#utility.yul\":21430:21523   */\n      tag_552\n        /* \"#utility.yul\":21519:21522   */\n      dup3\n        /* \"#utility.yul\":21430:21523   */\n      tag_296\n      jump\t// in\n    tag_552:\n        /* \"#utility.yul\":21548:21550   */\n      0x20\n        /* \"#utility.yul\":21543:21546   */\n      dup3\n        /* \"#utility.yul\":21539:21551   */\n      add\n        /* \"#utility.yul\":21532:21551   */\n      swap1\n      pop\n        /* \"#utility.yul\":21191:21557   */\n      swap2\n      swap1\n      pop\n      jump\t// out\n        /* \"#utility.yul\":21563:21982   */\n    tag_129:\n        /* \"#utility.yul\":21729:21733   */\n      0x00\n        /* \"#utility.yul\":21767:21769   */\n      0x20\n        /* \"#utility.yul\":21756:21765   */\n      dup3\n        /* \"#utility.yul\":21752:21770   */\n      add\n        /* \"#utility.yul\":21744:21770   */\n      swap1\n      pop\n        /* \"#utility.yul\":21816:21825   */\n      dup2\n        /* \"#utility.yul\":21810:21814   */\n      dup2\n        /* \"#utility.yul\":21806:21826   */\n      sub\n        /* \"#utility.yul\":21802:21803   */\n      0x00\n        /* \"#utility.yul\":21791:21800   */\n      dup4\n        /* \"#utility.yul\":21787:21804   */\n      add\n        /* \"#utility.yul\":21780:21827   */\n      mstore\n        /* \"#utility.yul\":21844:21975   */\n      tag_554\n        /* \"#utility.yul\":21970:21974   */\n      dup2\n        /* \"#utility.yul\":21844:21975   */\n      tag_297\n      jump\t// in\n    tag_554:\n        /* \"#utility.yul\":21836:21975   */\n      swap1\n      pop\n        /* \"#utility.yul\":21563:21982   */\n      swap2\n      swap1\n      pop\n      jump\t// out\n        /* \"#utility.yul\":21988:22136   */\n    tag_298:\n        /* \"#utility.yul\":22090:22101   */\n      0x00\n        /* \"#utility.yul\":22127:22130   */\n      dup2\n        /* \"#utility.yul\":22112:22130   */\n      swap1\n      pop\n        /* \"#utility.yul\":21988:22136   */\n      swap3\n      swap2\n      pop\n      pop\n      jump\t// out\n        /* \"#utility.yul\":22142:22299   */\n    tag_299:\n        /* \"#utility.yul\":22282:22291   */\n      0x67656e6573697300000000000000000000000000000000000000000000000000\n        /* \"#utility.yul\":22278:22279   */\n      0x00\n        /* \"#utility.yul\":22270:22276   */\n      dup3\n        /* \"#utility.yul\":22266:22280   */\n      add\n        /* \"#utility.yul\":22259:22292   */\n      mstore\n        /* \"#utility.yul\":22142:22299   */\n      pop\n      jump\t// out\n        /* \"#utility.yul\":22305:22705   */\n    tag_300:\n        /* \"#utility.yul\":22465:22468   */\n      0x00\n        /* \"#utility.yul\":22486:22570   */\n      tag_558\n        /* \"#utility.yul\":22568:22569   */\n      0x07\n        /* \"#utility.yul\":22563:22566   */\n      dup4\n        /* \"#utility.yul\":22486:22570   */\n      tag_298\n      jump\t// in\n    tag_558:\n        /* \"#utility.yul\":22479:22570   */\n      swap2\n      pop\n        /* \"#utility.yul\":22579:22672   */\n      tag_559\n        /* \"#utility.yul\":22668:22671   */\n      dup3\n        /* \"#utility.yul\":22579:22672   */\n      tag_299\n      jump\t// in\n    tag_559:\n        /* \"#utility.yul\":22697:22698   */\n      0x07\n        /* \"#utility.yul\":22692:22695   */\n      dup3\n        /* \"#utility.yul\":22688:22699   */\n      add\n        /* \"#utility.yul\":22681:22699   */\n      swap1\n      pop\n        /* \"#utility.yul\":22305:22705   */\n      swap2\n      swap1\n      pop\n      jump\t// out\n        /* \"#utility.yul\":22711:23515   */\n    tag_131:\n        /* \"#utility.yul\":22980:22983   */\n      0x00\n        /* \"#utility.yul\":22995:23070   */\n      tag_561\n        /* \"#utility.yul\":23066:23069   */\n      dup3\n        /* \"#utility.yul\":23057:23063   */\n      dup7\n        /* \"#utility.yul\":22995:23070   */\n      tag_291\n      jump\t// in\n    tag_561:\n        /* \"#utility.yul\":23095:23097   */\n      0x14\n        /* \"#utility.yul\":23090:23093   */\n      dup3\n        /* \"#utility.yul\":23086:23098   */\n      add\n        /* \"#utility.yul\":23079:23098   */\n      swap2\n      pop\n        /* \"#utility.yul\":23108:23183   */\n      tag_562\n        /* \"#utility.yul\":23179:23182   */\n      dup3\n        /* \"#utility.yul\":23170:23176   */\n      dup6\n        /* \"#utility.yul\":23108:23183   */\n      tag_293\n      jump\t// in\n    tag_562:\n        /* \"#utility.yul\":23208:23210   */\n      0x20\n        /* \"#utility.yul\":23203:23206   */\n      dup3\n        /* \"#utility.yul\":23199:23211   */\n      add\n        /* \"#utility.yul\":23192:23211   */\n      swap2\n      pop\n        /* \"#utility.yul\":23221:23296   */\n      tag_563\n        /* \"#utility.yul\":23292:23295   */\n      dup3\n        /* \"#utility.yul\":23283:23289   */\n      dup5\n        /* \"#utility.yul\":23221:23296   */\n      tag_295\n      jump\t// in\n    tag_563:\n        /* \"#utility.yul\":23321:23323   */\n      0x20\n        /* \"#utility.yul\":23316:23319   */\n      dup3\n        /* \"#utility.yul\":23312:23324   */\n      add\n        /* \"#utility.yul\":23305:23324   */\n      swap2\n      pop\n        /* \"#utility.yul\":23341:23489   */\n      tag_564\n        /* \"#utility.yul\":23485:23488   */\n      dup3\n        /* \"#utility.yul\":23341:23489   */\n      tag_300\n      jump\t// in\n    tag_564:\n        /* \"#utility.yul\":23334:23489   */\n      swap2\n      pop\n        /* \"#utility.yul\":23506:23509   */\n      dup2\n        /* \"#utility.yul\":23499:23509   */\n      swap1\n      pop\n        /* \"#utility.yul\":22711:23515   */\n      swap5\n      swap4\n      pop\n      pop\n      pop\n      pop\n      jump\t// out\n        /* \"#utility.yul\":23521:23963   */\n    tag_133:\n        /* \"#utility.yul\":23670:23674   */\n      0x00\n        /* \"#utility.yul\":23708:23710   */\n      0x60\n        /* \"#utility.yul\":23697:23706   */\n      dup3\n        /* \"#utility.yul\":23693:23711   */\n      add\n        /* \"#utility.yul\":23685:23711   */\n      swap1\n      pop\n        /* \"#utility.yul\":23721:23792   */\n      tag_566\n        /* \"#utility.yul\":23789:23790   */\n      0x00\n        /* \"#utility.yul\":23778:23787   */\n      dup4\n        /* \"#utility.yul\":23774:23791   */\n      add\n        /* \"#utility.yul\":23765:23771   */\n      dup7\n        /* \"#utility.yul\":23721:23792   */\n      tag_264\n      jump\t// in\n    tag_566:\n        /* \"#utility.yul\":23802:23874   */\n      tag_567\n        /* \"#utility.yul\":23870:23872   */\n      0x20\n        /* \"#utility.yul\":23859:23868   */\n      dup4\n        /* \"#utility.yul\":23855:23873   */\n      add\n        /* \"#utility.yul\":23846:23852   */\n      dup6\n        /* \"#utility.yul\":23802:23874   */\n      tag_264\n      jump\t// in\n    tag_567:\n        /* \"#utility.yul\":23884:23956   */\n      tag_568\n        /* \"#utility.yul\":23952:23954   */\n      0x40\n        /* \"#utility.yul\":23941:23950   */\n      dup4\n        /* \"#utility.yul\":23937:23955   */\n      add\n        /* \"#utility.yul\":23928:23934   */\n      dup5\n        /* \"#utility.yul\":23884:23956   */\n      tag_256\n      jump\t// in\n    tag_568:\n        /* \"#utility.yul\":23521:23963   */\n      swap5\n      swap4\n      pop\n      pop\n      pop\n      pop\n      jump\t// out\n        /* \"#utility.yul\":23969:24132   */\n    tag_301:\n        /* \"#utility.yul\":24109:24124   */\n      0x4e6f207265676973747261646f00000000000000000000000000000000000000\n        /* \"#utility.yul\":24105:24106   */\n      0x00\n        /* \"#utility.yul\":24097:24103   */\n      dup3\n        /* \"#utility.yul\":24093:24107   */\n      add\n        /* \"#utility.yul\":24086:24125   */\n      mstore\n        /* \"#utility.yul\":23969:24132   */\n      pop\n      jump\t// out\n        /* \"#utility.yul\":24138:24504   */\n    tag_302:\n        /* \"#utility.yul\":24280:24283   */\n      0x00\n        /* \"#utility.yul\":24301:24368   */\n      tag_571\n        /* \"#utility.yul\":24365:24367   */\n      0x0d\n        /* \"#utility.yul\":24360:24363   */\n      dup4\n        /* \"#utility.yul\":24301:24368   */\n      tag_240\n      jump\t// in\n    tag_571:\n        /* \"#utility.yul\":24294:24368   */\n      swap2\n      pop\n        /* \"#utility.yul\":24377:24470   */\n      tag_572\n        /* \"#utility.yul\":24466:24469   */\n      dup3\n        /* \"#utility.yul\":24377:24470   */\n      tag_301\n      jump\t// in\n    tag_572:\n        /* \"#utility.yul\":24495:24497   */\n      0x20\n        /* \"#utility.yul\":24490:24493   */\n      dup3\n        /* \"#utility.yul\":24486:24498   */\n      add\n        /* \"#utility.yul\":24479:24498   */\n      swap1\n      pop\n        /* \"#utility.yul\":24138:24504   */\n      swap2\n      swap1\n      pop\n      jump\t// out\n        /* \"#utility.yul\":24510:24929   */\n    tag_154:\n        /* \"#utility.yul\":24676:24680   */\n      0x00\n        /* \"#utility.yul\":24714:24716   */\n      0x20\n        /* \"#utility.yul\":24703:24712   */\n      dup3\n        /* \"#utility.yul\":24699:24717   */\n      add\n        /* \"#utility.yul\":24691:24717   */\n      swap1\n      pop\n        /* \"#utility.yul\":24763:24772   */\n      dup2\n        /* \"#utility.yul\":24757:24761   */\n      dup2\n        /* \"#utility.yul\":24753:24773   */\n      sub\n        /* \"#utility.yul\":24749:24750   */\n      0x00\n        /* \"#utility.yul\":24738:24747   */\n      dup4\n        /* \"#utility.yul\":24734:24751   */\n      add\n        /* \"#utility.yul\":24727:24774   */\n      mstore\n        /* \"#utility.yul\":24791:24922   */\n      tag_574\n        /* \"#utility.yul\":24917:24921   */\n      dup2\n        /* \"#utility.yul\":24791:24922   */\n      tag_302\n      jump\t// in\n    tag_574:\n        /* \"#utility.yul\":24783:24922   */\n      swap1\n      pop\n        /* \"#utility.yul\":24510:24929   */\n      swap2\n      swap1\n      pop\n      jump\t// out\n        /* \"#utility.yul\":24935:25106   */\n    tag_303:\n        /* \"#utility.yul\":25075:25098   */\n      0x4c6f6e67697475646573206469666572656e7465730000000000000000000000\n        /* \"#utility.yul\":25071:25072   */\n      0x00\n        /* \"#utility.yul\":25063:25069   */\n      dup3\n        /* \"#utility.yul\":25059:25073   */\n      add\n        /* \"#utility.yul\":25052:25099   */\n      mstore\n        /* \"#utility.yul\":24935:25106   */\n      pop\n      jump\t// out\n        /* \"#utility.yul\":25112:25478   */\n    tag_304:\n        /* \"#utility.yul\":25254:25257   */\n      0x00\n        /* \"#utility.yul\":25275:25342   */\n      tag_577\n        /* \"#utility.yul\":25339:25341   */\n      0x15\n        /* \"#utility.yul\":25334:25337   */\n      dup4\n        /* \"#utility.yul\":25275:25342   */\n      tag_240\n      jump\t// in\n    tag_577:\n        /* \"#utility.yul\":25268:25342   */\n      swap2\n      pop\n        /* \"#utility.yul\":25351:25444   */\n      tag_578\n        /* \"#utility.yul\":25440:25443   */\n      dup3\n        /* \"#utility.yul\":25351:25444   */\n      tag_303\n      jump\t// in\n    tag_578:\n        /* \"#utility.yul\":25469:25471   */\n      0x20\n        /* \"#utility.yul\":25464:25467   */\n      dup3\n        /* \"#utility.yul\":25460:25472   */\n      add\n        /* \"#utility.yul\":25453:25472   */\n      swap1\n      pop\n        /* \"#utility.yul\":25112:25478   */\n      swap2\n      swap1\n      pop\n      jump\t// out\n        /* \"#utility.yul\":25484:25903   */\n    tag_157:\n        /* \"#utility.yul\":25650:25654   */\n      0x00\n        /* \"#utility.yul\":25688:25690   */\n      0x20\n        /* \"#utility.yul\":25677:25686   */\n      dup3\n        /* \"#utility.yul\":25673:25691   */\n      add\n        /* \"#utility.yul\":25665:25691   */\n      swap1\n      pop\n        /* \"#utility.yul\":25737:25746   */\n      dup2\n        /* \"#utility.yul\":25731:25735   */\n      dup2\n        /* \"#utility.yul\":25727:25747   */\n      sub\n        /* \"#utility.yul\":25723:25724   */\n      0x00\n        /* \"#utility.yul\":25712:25721   */\n      dup4\n        /* \"#utility.yul\":25708:25725   */\n      add\n        /* \"#utility.yul\":25701:25748   */\n      mstore\n        /* \"#utility.yul\":25765:25896   */\n      tag_580\n        /* \"#utility.yul\":25891:25895   */\n      dup2\n        /* \"#utility.yul\":25765:25896   */\n      tag_304\n      jump\t// in\n    tag_580:\n        /* \"#utility.yul\":25757:25896   */\n      swap1\n      pop\n        /* \"#utility.yul\":25484:25903   */\n      swap2\n      swap1\n      pop\n      jump\t// out\n        /* \"#utility.yul\":25909:26073   */\n    tag_305:\n        /* \"#utility.yul\":26049:26065   */\n      0x4e6f6e636520796120757361646f000000000000000000000000000000000000\n        /* \"#utility.yul\":26045:26046   */\n      0x00\n        /* \"#utility.yul\":26037:26043   */\n      dup3\n        /* \"#utility.yul\":26033:26047   */\n      add\n        /* \"#utility.yul\":26026:26066   */\n      mstore\n        /* \"#utility.yul\":25909:26073   */\n      pop\n      jump\t// out\n        /* \"#utility.yul\":26079:26445   */\n    tag_306:\n        /* \"#utility.yul\":26221:26224   */\n      0x00\n        /* \"#utility.yul\":26242:26309   */\n      tag_583\n        /* \"#utility.yul\":26306:26308   */\n      0x0e\n        /* \"#utility.yul\":26301:26304   */\n      dup4\n        /* \"#utility.yul\":26242:26309   */\n      tag_240\n      jump\t// in\n    tag_583:\n        /* \"#utility.yul\":26235:26309   */\n      swap2\n      pop\n        /* \"#utility.yul\":26318:26411   */\n      tag_584\n        /* \"#utility.yul\":26407:26410   */\n      dup3\n        /* \"#utility.yul\":26318:26411   */\n      tag_305\n      jump\t// in\n    tag_584:\n        /* \"#utility.yul\":26436:26438   */\n      0x20\n        /* \"#utility.yul\":26431:26434   */\n      dup3\n        /* \"#utility.yul\":26427:26439   */\n      add\n        /* \"#utility.yul\":26420:26439   */\n      swap1\n      pop\n        /* \"#utility.yul\":26079:26445   */\n      swap2\n      swap1\n      pop\n      jump\t// out\n        /* \"#utility.yul\":26451:26870   */\n    tag_163:\n        /* \"#utility.yul\":26617:26621   */\n      0x00\n        /* \"#utility.yul\":26655:26657   */\n      0x20\n        /* \"#utility.yul\":26644:26653   */\n      dup3\n        /* \"#utility.yul\":26640:26658   */\n      add\n        /* \"#utility.yul\":26632:26658   */\n      swap1\n      pop\n        /* \"#utility.yul\":26704:26713   */\n      dup2\n        /* \"#utility.yul\":26698:26702   */\n      dup2\n        /* \"#utility.yul\":26694:26714   */\n      sub\n        /* \"#utility.yul\":26690:26691   */\n      0x00\n        /* \"#utility.yul\":26679:26688   */\n      dup4\n        /* \"#utility.yul\":26675:26692   */\n      add\n        /* \"#utility.yul\":26668:26715   */\n      mstore\n        /* \"#utility.yul\":26732:26863   */\n      tag_586\n        /* \"#utility.yul\":26858:26862   */\n      dup2\n        /* \"#utility.yul\":26732:26863   */\n      tag_306\n      jump\t// in\n    tag_586:\n        /* \"#utility.yul\":26724:26863   */\n      swap1\n      pop\n        /* \"#utility.yul\":26451:26870   */\n      swap2\n      swap1\n      pop\n      jump\t// out\n        /* \"#utility.yul\":26876:26990   */\n    tag_307:\n        /* \"#utility.yul\":26943:26949   */\n      0x00\n        /* \"#utility.yul\":26977:26982   */\n      dup2\n        /* \"#utility.yul\":26971:26983   */\n      mload\n        /* \"#utility.yul\":26961:26983   */\n      swap1\n      pop\n        /* \"#utility.yul\":26876:26990   */\n      swap2\n      swap1\n      pop\n      jump\t// out\n        /* \"#utility.yul\":26996:27159   */\n    tag_308:\n        /* \"#utility.yul\":27113:27124   */\n      0x00\n        /* \"#utility.yul\":27150:27153   */\n      dup2\n        /* \"#utility.yul\":27135:27153   */\n      swap1\n      pop\n        /* \"#utility.yul\":26996:27159   */\n      swap3\n      swap2\n      pop\n      pop\n      jump\t// out\n        /* \"#utility.yul\":27165:27297   */\n    tag_309:\n        /* \"#utility.yul\":27232:27236   */\n      0x00\n        /* \"#utility.yul\":27255:27258   */\n      dup2\n        /* \"#utility.yul\":27247:27258   */\n      swap1\n      pop\n        /* \"#utility.yul\":27285:27289   */\n      0x20\n        /* \"#utility.yul\":27280:27283   */\n      dup3\n        /* \"#utility.yul\":27276:27290   */\n      add\n        /* \"#utility.yul\":27268:27290   */\n      swap1\n      pop\n        /* \"#utility.yul\":27165:27297   */\n      swap2\n      swap1\n      pop\n      jump\t// out\n        /* \"#utility.yul\":27303:27419   */\n    tag_310:\n        /* \"#utility.yul\":27388:27412   */\n      tag_591\n        /* \"#utility.yul\":27406:27411   */\n      dup2\n        /* \"#utility.yul\":27388:27412   */\n      tag_248\n      jump\t// in\n    tag_591:\n        /* \"#utility.yul\":27383:27386   */\n      dup3\n        /* \"#utility.yul\":27376:27413   */\n      mstore\n        /* \"#utility.yul\":27303:27419   */\n      pop\n      pop\n      jump\t// out\n        /* \"#utility.yul\":27425:27620   */\n    tag_311:\n        /* \"#utility.yul\":27502:27512   */\n      0x00\n        /* \"#utility.yul\":27523:27577   */\n      tag_593\n        /* \"#utility.yul\":27573:27576   */\n      dup4\n        /* \"#utility.yul\":27565:27571   */\n      dup4\n        /* \"#utility.yul\":27523:27577   */\n      tag_310\n      jump\t// in\n    tag_593:\n        /* \"#utility.yul\":27609:27613   */\n      0x20\n        /* \"#utility.yul\":27604:27607   */\n      dup4\n        /* \"#utility.yul\":27600:27614   */\n      add\n        /* \"#utility.yul\":27586:27614   */\n      swap1\n      pop\n        /* \"#utility.yul\":27425:27620   */\n      swap3\n      swap2\n      pop\n      pop\n      jump\t// out\n        /* \"#utility.yul\":27626:27739   */\n    tag_312:\n        /* \"#utility.yul\":27696:27700   */\n      0x00\n        /* \"#utility.yul\":27728:27732   */\n      0x20\n        /* \"#utility.yul\":27723:27726   */\n      dup3\n        /* \"#utility.yul\":27719:27733   */\n      add\n        /* \"#utility.yul\":27711:27733   */\n      swap1\n      pop\n        /* \"#utility.yul\":27626:27739   */\n      swap2\n      swap1\n      pop\n      jump\t// out\n        /* \"#utility.yul\":27775:28551   */\n    tag_313:\n        /* \"#utility.yul\":27912:27915   */\n      0x00\n        /* \"#utility.yul\":27941:27995   */\n      tag_596\n        /* \"#utility.yul\":27989:27994   */\n      dup3\n        /* \"#utility.yul\":27941:27995   */\n      tag_307\n      jump\t// in\n    tag_596:\n        /* \"#utility.yul\":28011:28115   */\n      tag_597\n        /* \"#utility.yul\":28108:28114   */\n      dup2\n        /* \"#utility.yul\":28103:28106   */\n      dup6\n        /* \"#utility.yul\":28011:28115   */\n      tag_308\n      jump\t// in\n    tag_597:\n        /* \"#utility.yul\":28004:28115   */\n      swap4\n      pop\n        /* \"#utility.yul\":28139:28195   */\n      tag_598\n        /* \"#utility.yul\":28189:28194   */\n      dup4\n        /* \"#utility.yul\":28139:28195   */\n      tag_309\n      jump\t// in\n    tag_598:\n        /* \"#utility.yul\":28218:28225   */\n      dup1\n        /* \"#utility.yul\":28249:28250   */\n      0x00\n        /* \"#utility.yul\":28234:28526   */\n    tag_599:\n        /* \"#utility.yul\":28259:28265   */\n      dup4\n        /* \"#utility.yul\":28256:28257   */\n      dup2\n        /* \"#utility.yul\":28253:28266   */\n      lt\n        /* \"#utility.yul\":28234:28526   */\n      iszero\n      tag_601\n      jumpi\n        /* \"#utility.yul\":28335:28341   */\n      dup2\n        /* \"#utility.yul\":28329:28342   */\n      mload\n        /* \"#utility.yul\":28362:28433   */\n      tag_602\n        /* \"#utility.yul\":28429:28432   */\n      dup9\n        /* \"#utility.yul\":28414:28427   */\n      dup3\n        /* \"#utility.yul\":28362:28433   */\n      tag_311\n      jump\t// in\n    tag_602:\n        /* \"#utility.yul\":28355:28433   */\n      swap8\n      pop\n        /* \"#utility.yul\":28456:28516   */\n      tag_603\n        /* \"#utility.yul\":28509:28515   */\n      dup4\n        /* \"#utility.yul\":28456:28516   */\n      tag_312\n      jump\t// in\n    tag_603:\n        /* \"#utility.yul\":28446:28516   */\n      swap3\n      pop\n        /* \"#utility.yul\":28294:28526   */\n      pop\n        /* \"#utility.yul\":28281:28282   */\n      0x01\n        /* \"#utility.yul\":28278:28279   */\n      dup2\n        /* \"#utility.yul\":28274:28283   */\n      add\n        /* \"#utility.yul\":28269:28283   */\n      swap1\n      pop\n        /* \"#utility.yul\":28234:28526   */\n      jump(tag_599)\n    tag_601:\n        /* \"#utility.yul\":28238:28252   */\n      pop\n        /* \"#utility.yul\":28542:28545   */\n      dup6\n        /* \"#utility.yul\":28535:28545   */\n      swap4\n      pop\n        /* \"#utility.yul\":27917:28551   */\n      pop\n      pop\n      pop\n        /* \"#utility.yul\":27775:28551   */\n      swap3\n      swap2\n      pop\n      pop\n      jump\t// out\n        /* \"#utility.yul\":28557:28720   */\n    tag_314:\n        /* \"#utility.yul\":28674:28685   */\n      0x00\n        /* \"#utility.yul\":28711:28714   */\n      dup2\n        /* \"#utility.yul\":28696:28714   */\n      swap1\n      pop\n        /* \"#utility.yul\":28557:28720   */\n      swap3\n      swap2\n      pop\n      pop\n      jump\t// out\n        /* \"#utility.yul\":28726:28843   */\n    tag_315:\n        /* \"#utility.yul\":28835:28836   */\n      0x00\n        /* \"#utility.yul\":28832:28833   */\n      0x00\n        /* \"#utility.yul\":28825:28837   */\n      revert\n        /* \"#utility.yul\":28849:28948   */\n    tag_316:\n        /* \"#utility.yul\":28934:28940   */\n      dup3\n        /* \"#utility.yul\":28929:28932   */\n      dup2\n        /* \"#utility.yul\":28924:28927   */\n      dup4\n        /* \"#utility.yul\":28911:28941   */\n      calldatacopy\n        /* \"#utility.yul\":28849:28948   */\n      pop\n      pop\n      pop\n      jump\t// out\n        /* \"#utility.yul\":28984:29557   */\n    tag_317:\n        /* \"#utility.yul\":29130:29133   */\n      0x00\n        /* \"#utility.yul\":29151:29255   */\n      tag_608\n        /* \"#utility.yul\":29248:29254   */\n      dup4\n        /* \"#utility.yul\":29243:29246   */\n      dup6\n        /* \"#utility.yul\":29151:29255   */\n      tag_314\n      jump\t// in\n    tag_608:\n        /* \"#utility.yul\":29144:29255   */\n      swap4\n      pop\n        /* \"#utility.yul\":29279:29345   */\n      0x07ffffffffffffffffffffffffffffffffffffffffffffffffffffffffffffff\n        /* \"#utility.yul\":29271:29277   */\n      dup4\n        /* \"#utility.yul\":29268:29346   */\n      gt\n        /* \"#utility.yul\":29265:29430   */\n      iszero\n      tag_609\n      jumpi\n        /* \"#utility.yul\":29349:29428   */\n      tag_610\n      tag_315\n      jump\t// in\n    tag_610:\n        /* \"#utility.yul\":29265:29430   */\n    tag_609:\n        /* \"#utility.yul\":29461:29465   */\n      0x20\n        /* \"#utility.yul\":29453:29459   */\n      dup4\n        /* \"#utility.yul\":29449:29466   */\n      mul\n        /* \"#utility.yul\":29439:29466   */\n      swap3\n      pop\n        /* \"#utility.yul\":29476:29519   */\n      tag_611\n        /* \"#utility.yul\":29512:29518   */\n      dup4\n        /* \"#utility.yul\":29507:29510   */\n      dup6\n        /* \"#utility.yul\":29500:29505   */\n      dup5\n        /* \"#utility.yul\":29476:29519   */\n      tag_316\n      jump\t// in\n    tag_611:\n        /* \"#utility.yul\":29544:29550   */\n      dup3\n        /* \"#utility.yul\":29539:29542   */\n      dup5\n        /* \"#utility.yul\":29535:29551   */\n      add\n        /* \"#utility.yul\":29528:29551   */\n      swap1\n      pop\n        /* \"#utility.yul\":28984:29557   */\n      swap4\n      swap3\n      pop\n      pop\n      pop\n      jump\t// out\n        /* \"#utility.yul\":29563:30420   */\n    tag_165:\n        /* \"#utility.yul\":29869:29872   */\n      0x00\n        /* \"#utility.yul\":29891:30016   */\n      tag_613\n        /* \"#utility.yul\":30012:30015   */\n      dup3\n        /* \"#utility.yul\":30003:30009   */\n      dup9\n        /* \"#utility.yul\":29891:30016   */\n      tag_313\n      jump\t// in\n    tag_613:\n        /* \"#utility.yul\":29884:30016   */\n      swap2\n      pop\n        /* \"#utility.yul\":30033:30168   */\n      tag_614\n        /* \"#utility.yul\":30164:30167   */\n      dup3\n        /* \"#utility.yul\":30155:30161   */\n      dup7\n        /* \"#utility.yul\":30147:30153   */\n      dup9\n        /* \"#utility.yul\":30033:30168   */\n      tag_317\n      jump\t// in\n    tag_614:\n        /* \"#utility.yul\":30026:30168   */\n      swap2\n      pop\n        /* \"#utility.yul\":30178:30253   */\n      tag_615\n        /* \"#utility.yul\":30249:30252   */\n      dup3\n        /* \"#utility.yul\":30240:30246   */\n      dup6\n        /* \"#utility.yul\":30178:30253   */\n      tag_295\n      jump\t// in\n    tag_615:\n        /* \"#utility.yul\":30278:30280   */\n      0x20\n        /* \"#utility.yul\":30273:30276   */\n      dup3\n        /* \"#utility.yul\":30269:30281   */\n      add\n        /* \"#utility.yul\":30262:30281   */\n      swap2\n      pop\n        /* \"#utility.yul\":30291:30366   */\n      tag_616\n        /* \"#utility.yul\":30362:30365   */\n      dup3\n        /* \"#utility.yul\":30353:30359   */\n      dup5\n        /* \"#utility.yul\":30291:30366   */\n      tag_295\n      jump\t// in\n    tag_616:\n        /* \"#utility.yul\":30391:30393   */\n      0x20\n        /* \"#utility.yul\":30386:30389   */\n      dup3\n        /* \"#utility.yul\":30382:30394   */\n      add\n        /* \"#utility.yul\":30375:30394   */\n      swap2\n      pop\n        /* \"#utility.yul\":30411:30414   */\n      dup2\n        /* \"#utility.yul\":30404:30414   */\n      swap1\n      pop\n        /* \"#utility.yul\":29563:30420   */\n      swap7\n      swap6\n      pop\n      pop\n      pop\n      pop\n      pop\n      pop\n      jump\t// out\n        /* \"#utility.yul\":30426:30606   */\n    tag_174:\n        /* \"#utility.yul\":30474:30551   */\n      0x4e487b7100000000000000000000000000000000000000000000000000000000\n        /* \"#utility.yul\":30471:30472   */\n      0x00\n        /* \"#utility.yul\":30464:30552   */\n      mstore\n        /* \"#utility.yul\":30571:30575   */\n      0x32\n        /* \"#utility.yul\":30568:30569   */\n      0x04\n        /* \"#utility.yul\":30561:30576   */\n      mstore\n        /* \"#utility.yul\":30595:30599   */\n      0x24\n        /* \"#utility.yul\":30592:30593   */\n      0x00\n        /* \"#utility.yul\":30585:30600   */\n      revert\n        /* \"#utility.yul\":30612:30778   */\n    tag_318:\n        /* \"#utility.yul\":30752:30770   */\n      0x53756d61203e20616c6c6f77616e636500000000000000000000000000000000\n        /* \"#utility.yul\":30748:30749   */\n      0x00\n        /* \"#utility.yul\":30740:30746   */\n      dup3\n        /* \"#utility.yul\":30736:30750   */\n      add\n        /* \"#utility.yul\":30729:30771   */\n      mstore\n        /* \"#utility.yul\":30612:30778   */\n      pop\n      jump\t// out\n        /* \"#utility.yul\":30784:31150   */\n    tag_319:\n        /* \"#utility.yul\":30926:30929   */\n      0x00\n        /* \"#utility.yul\":30947:31014   */\n      tag_620\n        /* \"#utility.yul\":31011:31013   */\n      0x10\n        /* \"#utility.yul\":31006:31009   */\n      dup4\n        /* \"#utility.yul\":30947:31014   */\n      tag_240\n      jump\t// in\n    tag_620:\n        /* \"#utility.yul\":30940:31014   */\n      swap2\n      pop\n        /* \"#utility.yul\":31023:31116   */\n      tag_621\n        /* \"#utility.yul\":31112:31115   */\n      dup3\n        /* \"#utility.yul\":31023:31116   */\n      tag_318\n      jump\t// in\n    tag_621:\n        /* \"#utility.yul\":31141:31143   */\n      0x20\n        /* \"#utility.yul\":31136:31139   */\n      dup3\n        /* \"#utility.yul\":31132:31144   */\n      add\n        /* \"#utility.yul\":31125:31144   */\n      swap1\n      pop\n        /* \"#utility.yul\":30784:31150   */\n      swap2\n      swap1\n      pop\n      jump\t// out\n        /* \"#utility.yul\":31156:31575   */\n    tag_179:\n        /* \"#utility.yul\":31322:31326   */\n      0x00\n        /* \"#utility.yul\":31360:31362   */\n      0x20\n        /* \"#utility.yul\":31349:31358   */\n      dup3\n        /* \"#utility.yul\":31345:31363   */\n      add\n        /* \"#utility.yul\":31337:31363   */\n      swap1\n      pop\n        /* \"#utility.yul\":31409:31418   */\n      dup2\n        /* \"#utility.yul\":31403:31407   */\n      dup2\n        /* \"#utility.yul\":31399:31419   */\n      sub\n        /* \"#utility.yul\":31395:31396   */\n      0x00\n        /* \"#utility.yul\":31384:31393   */\n      dup4\n        /* \"#utility.yul\":31380:31397   */\n      add\n        /* \"#utility.yul\":31373:31420   */\n      mstore\n        /* \"#utility.yul\":31437:31568   */\n      tag_623\n        /* \"#utility.yul\":31563:31567   */\n      dup2\n        /* \"#utility.yul\":31437:31568   */\n      tag_319\n      jump\t// in\n    tag_623:\n        /* \"#utility.yul\":31429:31568   */\n      swap1\n      pop\n        /* \"#utility.yul\":31156:31575   */\n      swap2\n      swap1\n      pop\n      jump\t// out\n        /* \"#utility.yul\":31581:31765   */\n    tag_320:\n        /* \"#utility.yul\":31680:31691   */\n      0x00\n        /* \"#utility.yul\":31714:31720   */\n      dup3\n        /* \"#utility.yul\":31709:31712   */\n      dup3\n        /* \"#utility.yul\":31702:31721   */\n      mstore\n        /* \"#utility.yul\":31754:31758   */\n      0x20\n        /* \"#utility.yul\":31749:31752   */\n      dup3\n        /* \"#utility.yul\":31745:31759   */\n      add\n        /* \"#utility.yul\":31730:31759   */\n      swap1\n      pop\n        /* \"#utility.yul\":31581:31765   */\n      swap3\n      swap2\n      pop\n      pop\n      jump\t// out\n        /* \"#utility.yul\":31771:31879   */\n    tag_321:\n        /* \"#utility.yul\":31848:31872   */\n      tag_626\n        /* \"#utility.yul\":31866:31871   */\n      dup2\n        /* \"#utility.yul\":31848:31872   */\n      tag_248\n      jump\t// in\n    tag_626:\n        /* \"#utility.yul\":31843:31846   */\n      dup3\n        /* \"#utility.yul\":31836:31873   */\n      mstore\n        /* \"#utility.yul\":31771:31879   */\n      pop\n      pop\n      jump\t// out\n        /* \"#utility.yul\":31885:32064   */\n    tag_322:\n        /* \"#utility.yul\":31954:31964   */\n      0x00\n        /* \"#utility.yul\":31975:32021   */\n      tag_628\n        /* \"#utility.yul\":32017:32020   */\n      dup4\n        /* \"#utility.yul\":32009:32015   */\n      dup4\n        /* \"#utility.yul\":31975:32021   */\n      tag_321\n      jump\t// in\n    tag_628:\n        /* \"#utility.yul\":32053:32057   */\n      0x20\n        /* \"#utility.yul\":32048:32051   */\n      dup4\n        /* \"#utility.yul\":32044:32058   */\n      add\n        /* \"#utility.yul\":32030:32058   */\n      swap1\n      pop\n        /* \"#utility.yul\":31885:32064   */\n      swap3\n      swap2\n      pop\n      pop\n      jump\t// out\n        /* \"#utility.yul\":32100:32832   */\n    tag_323:\n        /* \"#utility.yul\":32219:32222   */\n      0x00\n        /* \"#utility.yul\":32248:32302   */\n      tag_630\n        /* \"#utility.yul\":32296:32301   */\n      dup3\n        /* \"#utility.yul\":32248:32302   */\n      tag_307\n      jump\t// in\n    tag_630:\n        /* \"#utility.yul\":32318:32404   */\n      tag_631\n        /* \"#utility.yul\":32397:32403   */\n      dup2\n        /* \"#utility.yul\":32392:32395   */\n      dup6\n        /* \"#utility.yul\":32318:32404   */\n      tag_320\n      jump\t// in\n    tag_631:\n        /* \"#utility.yul\":32311:32404   */\n      swap4\n      pop\n        /* \"#utility.yul\":32428:32484   */\n      tag_632\n        /* \"#utility.yul\":32478:32483   */\n      dup4\n        /* \"#utility.yul\":32428:32484   */\n      tag_309\n      jump\t// in\n    tag_632:\n        /* \"#utility.yul\":32507:32514   */\n      dup1\n        /* \"#utility.yul\":32538:32539   */\n      0x00\n        /* \"#utility.yul\":32523:32807   */\n    tag_633:\n        /* \"#utility.yul\":32548:32554   */\n      dup4\n        /* \"#utility.yul\":32545:32546   */\n      dup2\n        /* \"#utility.yul\":32542:32555   */\n      lt\n        /* \"#utility.yul\":32523:32807   */\n      iszero\n      tag_635\n      jumpi\n        /* \"#utility.yul\":32624:32630   */\n      dup2\n        /* \"#utility.yul\":32618:32631   */\n      mload\n        /* \"#utility.yul\":32651:32714   */\n      tag_636\n        /* \"#utility.yul\":32710:32713   */\n      dup9\n        /* \"#utility.yul\":32695:32708   */\n      dup3\n        /* \"#utility.yul\":32651:32714   */\n      tag_322\n      jump\t// in\n    tag_636:\n        /* \"#utility.yul\":32644:32714   */\n      swap8\n      pop\n        /* \"#utility.yul\":32737:32797   */\n      tag_637\n        /* \"#utility.yul\":32790:32796   */\n      dup4\n        /* \"#utility.yul\":32737:32797   */\n      tag_312\n      jump\t// in\n    tag_637:\n        /* \"#utility.yul\":32727:32797   */\n      swap3\n      pop\n        /* \"#utility.yul\":32583:32807   */\n      pop\n        /* \"#utility.yul\":32570:32571   */\n      0x01\n        /* \"#utility.yul\":32567:32568   */\n      dup2\n        /* \"#utility.yul\":32563:32572   */\n      add\n        /* \"#utility.yul\":32558:32572   */\n      swap1\n      pop\n        /* \"#utility.yul\":32523:32807   */\n      jump(tag_633)\n    tag_635:\n        /* \"#utility.yul\":32527:32541   */\n      pop\n        /* \"#utility.yul\":32823:32826   */\n      dup6\n        /* \"#utility.yul\":32816:32826   */\n      swap4\n      pop\n        /* \"#utility.yul\":32224:32832   */\n      pop\n      pop\n      pop\n        /* \"#utility.yul\":32100:32832   */\n      swap3\n      swap2\n      pop\n      pop\n      jump\t// out\n        /* \"#utility.yul\":32838:33022   */\n    tag_324:\n        /* \"#utility.yul\":32937:32948   */\n      0x00\n        /* \"#utility.yul\":32971:32977   */\n      dup3\n        /* \"#utility.yul\":32966:32969   */\n      dup3\n        /* \"#utility.yul\":32959:32978   */\n      mstore\n        /* \"#utility.yul\":33011:33015   */\n      0x20\n        /* \"#utility.yul\":33006:33009   */\n      dup3\n        /* \"#utility.yul\":33002:33016   */\n      add\n        /* \"#utility.yul\":32987:33016   */\n      swap1\n      pop\n        /* \"#utility.yul\":32838:33022   */\n      swap3\n      swap2\n      pop\n      pop\n      jump\t// out\n        /* \"#utility.yul\":33058:33595   */\n    tag_325:\n        /* \"#utility.yul\":33186:33189   */\n      0x00\n        /* \"#utility.yul\":33207:33293   */\n      tag_640\n        /* \"#utility.yul\":33286:33292   */\n      dup4\n        /* \"#utility.yul\":33281:33284   */\n      dup6\n        /* \"#utility.yul\":33207:33293   */\n      tag_324\n      jump\t// in\n    tag_640:\n        /* \"#utility.yul\":33200:33293   */\n      swap4\n      pop\n        /* \"#utility.yul\":33317:33383   */\n      0x07ffffffffffffffffffffffffffffffffffffffffffffffffffffffffffffff\n        /* \"#utility.yul\":33309:33315   */\n      dup4\n        /* \"#utility.yul\":33306:33384   */\n      gt\n        /* \"#utility.yul\":33303:33468   */\n      iszero\n      tag_641\n      jumpi\n        /* \"#utility.yul\":33387:33466   */\n      tag_642\n      tag_315\n      jump\t// in\n    tag_642:\n        /* \"#utility.yul\":33303:33468   */\n    tag_641:\n        /* \"#utility.yul\":33499:33503   */\n      0x20\n        /* \"#utility.yul\":33491:33497   */\n      dup4\n        /* \"#utility.yul\":33487:33504   */\n      mul\n        /* \"#utility.yul\":33477:33504   */\n      swap3\n      pop\n        /* \"#utility.yul\":33514:33557   */\n      tag_643\n        /* \"#utility.yul\":33550:33556   */\n      dup4\n        /* \"#utility.yul\":33545:33548   */\n      dup6\n        /* \"#utility.yul\":33538:33543   */\n      dup5\n        /* \"#utility.yul\":33514:33557   */\n      tag_316\n      jump\t// in\n    tag_643:\n        /* \"#utility.yul\":33582:33588   */\n      dup3\n        /* \"#utility.yul\":33577:33580   */\n      dup5\n        /* \"#utility.yul\":33573:33589   */\n      add\n        /* \"#utility.yul\":33566:33589   */\n      swap1\n      pop\n        /* \"#utility.yul\":33058:33595   */\n      swap4\n      swap3\n      pop\n      pop\n      pop\n      jump\t// out\n        /* \"#utility.yul\":33601:34365   */\n    tag_188:\n        /* \"#utility.yul\":33860:33864   */\n      0x00\n        /* \"#utility.yul\":33898:33900   */\n      0x60\n        /* \"#utility.yul\":33887:33896   */\n      dup3\n        /* \"#utility.yul\":33883:33901   */\n      add\n        /* \"#utility.yul\":33875:33901   */\n      swap1\n      pop\n        /* \"#utility.yul\":33947:33956   */\n      dup2\n        /* \"#utility.yul\":33941:33945   */\n      dup2\n        /* \"#utility.yul\":33937:33957   */\n      sub\n        /* \"#utility.yul\":33933:33934   */\n      0x00\n        /* \"#utility.yul\":33922:33931   */\n      dup4\n        /* \"#utility.yul\":33918:33935   */\n      add\n        /* \"#utility.yul\":33911:33958   */\n      mstore\n        /* \"#utility.yul\":33975:34083   */\n      tag_645\n        /* \"#utility.yul\":34078:34082   */\n      dup2\n        /* \"#utility.yul\":34069:34075   */\n      dup8\n        /* \"#utility.yul\":33975:34083   */\n      tag_323\n      jump\t// in\n    tag_645:\n        /* \"#utility.yul\":33967:34083   */\n      swap1\n      pop\n        /* \"#utility.yul\":34130:34139   */\n      dup2\n        /* \"#utility.yul\":34124:34128   */\n      dup2\n        /* \"#utility.yul\":34120:34140   */\n      sub\n        /* \"#utility.yul\":34115:34117   */\n      0x20\n        /* \"#utility.yul\":34104:34113   */\n      dup4\n        /* \"#utility.yul\":34100:34118   */\n      add\n        /* \"#utility.yul\":34093:34141   */\n      mstore\n        /* \"#utility.yul\":34158:34276   */\n      tag_646\n        /* \"#utility.yul\":34271:34275   */\n      dup2\n        /* \"#utility.yul\":34262:34268   */\n      dup6\n        /* \"#utility.yul\":34254:34260   */\n      dup8\n        /* \"#utility.yul\":34158:34276   */\n      tag_325\n      jump\t// in\n    tag_646:\n        /* \"#utility.yul\":34150:34276   */\n      swap1\n      pop\n        /* \"#utility.yul\":34286:34358   */\n      tag_647\n        /* \"#utility.yul\":34354:34356   */\n      0x40\n        /* \"#utility.yul\":34343:34352   */\n      dup4\n        /* \"#utility.yul\":34339:34357   */\n      add\n        /* \"#utility.yul\":34330:34336   */\n      dup5\n        /* \"#utility.yul\":34286:34358   */\n      tag_256\n      jump\t// in\n    tag_647:\n        /* \"#utility.yul\":33601:34365   */\n      swap6\n      swap5\n      pop\n      pop\n      pop\n      pop\n      pop\n      jump\t// out\n        /* \"#utility.yul\":34371:34559   */\n    tag_199:\n        /* \"#utility.yul\":34409:34412   */\n      0x00\n        /* \"#utility.yul\":34428:34446   */\n      tag_649\n        /* \"#utility.yul\":34444:34445   */\n      dup3\n        /* \"#utility.yul\":34428:34446   */\n      tag_265\n      jump\t// in\n    tag_649:\n        /* \"#utility.yul\":34423:34446   */\n      swap2\n      pop\n        /* \"#utility.yul\":34460:34478   */\n      tag_650\n        /* \"#utility.yul\":34476:34477   */\n      dup4\n        /* \"#utility.yul\":34460:34478   */\n      tag_265\n      jump\t// in\n    tag_650:\n        /* \"#utility.yul\":34455:34478   */\n      swap3\n      pop\n        /* \"#utility.yul\":34501:34502   */\n      dup3\n        /* \"#utility.yul\":34498:34499   */\n      dup3\n        /* \"#utility.yul\":34494:34503   */\n      add\n        /* \"#utility.yul\":34487:34503   */\n      swap1\n      pop\n        /* \"#utility.yul\":34524:34528   */\n      0xff\n        /* \"#utility.yul\":34519:34522   */\n      dup2\n        /* \"#utility.yul\":34516:34529   */\n      gt\n        /* \"#utility.yul\":34513:34552   */\n      iszero\n      tag_651\n      jumpi\n        /* \"#utility.yul\":34532:34550   */\n      tag_652\n      tag_285\n      jump\t// in\n    tag_652:\n        /* \"#utility.yul\":34513:34552   */\n    tag_651:\n        /* \"#utility.yul\":34371:34559   */\n      swap3\n      swap2\n      pop\n      pop\n      jump\t// out\n        /* \"#utility.yul\":34565:34725   */\n    tag_326:\n        /* \"#utility.yul\":34705:34717   */\n      0x7620696e76616c69646f00000000000000000000000000000000000000000000\n        /* \"#utility.yul\":34701:34702   */\n      0x00\n        /* \"#utility.yul\":34693:34699   */\n      dup3\n        /* \"#utility.yul\":34689:34703   */\n      add\n        /* \"#utility.yul\":34682:34718   */\n      mstore\n        /* \"#utility.yul\":34565:34725   */\n      pop\n      jump\t// out\n        /* \"#utility.yul\":34731:35097   */\n    tag_327:\n        /* \"#utility.yul\":34873:34876   */\n      0x00\n        /* \"#utility.yul\":34894:34961   */\n      tag_655\n        /* \"#utility.yul\":34958:34960   */\n      0x0a\n        /* \"#utility.yul\":34953:34956   */\n      dup4\n        /* \"#utility.yul\":34894:34961   */\n      tag_240\n      jump\t// in\n    tag_655:\n        /* \"#utility.yul\":34887:34961   */\n      swap2\n      pop\n        /* \"#utility.yul\":34970:35063   */\n      tag_656\n        /* \"#utility.yul\":35059:35062   */\n      dup3\n        /* \"#utility.yul\":34970:35063   */\n      tag_326\n      jump\t// in\n    tag_656:\n        /* \"#utility.yul\":35088:35090   */\n      0x20\n        /* \"#utility.yul\":35083:35086   */\n      dup3\n        /* \"#utility.yul\":35079:35091   */\n      add\n        /* \"#utility.yul\":35072:35091   */\n      swap1\n      pop\n        /* \"#utility.yul\":34731:35097   */\n      swap2\n      swap1\n      pop\n      jump\t// out\n        /* \"#utility.yul\":35103:35522   */\n    tag_203:\n        /* \"#utility.yul\":35269:35273   */\n      0x00\n        /* \"#utility.yul\":35307:35309   */\n      0x20\n        /* \"#utility.yul\":35296:35305   */\n      dup3\n        /* \"#utility.yul\":35292:35310   */\n      add\n        /* \"#utility.yul\":35284:35310   */\n      swap1\n      pop\n        /* \"#utility.yul\":35356:35365   */\n      dup2\n        /* \"#utility.yul\":35350:35354   */\n      dup2\n        /* \"#utility.yul\":35346:35366   */\n      sub\n        /* \"#utility.yul\":35342:35343   */\n      0x00\n        /* \"#utility.yul\":35331:35340   */\n      dup4\n        /* \"#utility.yul\":35327:35344   */\n      add\n        /* \"#utility.yul\":35320:35367   */\n      mstore\n        /* \"#utility.yul\":35384:35515   */\n      tag_658\n        /* \"#utility.yul\":35510:35514   */\n      dup2\n        /* \"#utility.yul\":35384:35515   */\n      tag_327\n      jump\t// in\n    tag_658:\n        /* \"#utility.yul\":35376:35515   */\n      swap1\n      pop\n        /* \"#utility.yul\":35103:35522   */\n      swap2\n      swap1\n      pop\n      jump\t// out\n        /* \"#utility.yul\":35528:36073   */\n    tag_205:\n        /* \"#utility.yul\":35701:35705   */\n      0x00\n        /* \"#utility.yul\":35739:35742   */\n      0x80\n        /* \"#utility.yul\":35728:35737   */\n      dup3\n        /* \"#utility.yul\":35724:35743   */\n      add\n        /* \"#utility.yul\":35716:35743   */\n      swap1\n      pop\n        /* \"#utility.yul\":35753:35824   */\n      tag_660\n        /* \"#utility.yul\":35821:35822   */\n      0x00\n        /* \"#utility.yul\":35810:35819   */\n      dup4\n        /* \"#utility.yul\":35806:35823   */\n      add\n        /* \"#utility.yul\":35797:35803   */\n      dup8\n        /* \"#utility.yul\":35753:35824   */\n      tag_264\n      jump\t// in\n    tag_660:\n        /* \"#utility.yul\":35834:35902   */\n      tag_661\n        /* \"#utility.yul\":35898:35900   */\n      0x20\n        /* \"#utility.yul\":35887:35896   */\n      dup4\n        /* \"#utility.yul\":35883:35901   */\n      add\n        /* \"#utility.yul\":35874:35880   */\n      dup7\n        /* \"#utility.yul\":35834:35902   */\n      tag_266\n      jump\t// in\n    tag_661:\n        /* \"#utility.yul\":35912:35984   */\n      tag_662\n        /* \"#utility.yul\":35980:35982   */\n      0x40\n        /* \"#utility.yul\":35969:35978   */\n      dup4\n        /* \"#utility.yul\":35965:35983   */\n      add\n        /* \"#utility.yul\":35956:35962   */\n      dup6\n        /* \"#utility.yul\":35912:35984   */\n      tag_264\n      jump\t// in\n    tag_662:\n        /* \"#utility.yul\":35994:36066   */\n      tag_663\n        /* \"#utility.yul\":36062:36064   */\n      0x60\n        /* \"#utility.yul\":36051:36060   */\n      dup4\n        /* \"#utility.yul\":36047:36065   */\n      add\n        /* \"#utility.yul\":36038:36044   */\n      dup5\n        /* \"#utility.yul\":35994:36066   */\n      tag_264\n      jump\t// in\n    tag_663:\n        /* \"#utility.yul\":35528:36073   */\n      swap6\n      swap5\n      pop\n      pop\n      pop\n      pop\n      pop\n      jump\t// out\n        /* \"#utility.yul\":36079:36521   */\n    tag_213:\n        /* \"#utility.yul\":36228:36232   */\n      0x00\n        /* \"#utility.yul\":36266:36268   */\n      0x60\n        /* \"#utility.yul\":36255:36264   */\n      dup3\n        /* \"#utility.yul\":36251:36269   */\n      add\n        /* \"#utility.yul\":36243:36269   */\n      swap1\n      pop\n        /* \"#utility.yul\":36279:36350   */\n      tag_665\n        /* \"#utility.yul\":36347:36348   */\n      0x00\n        /* \"#utility.yul\":36336:36345   */\n      dup4\n        /* \"#utility.yul\":36332:36349   */\n      add\n        /* \"#utility.yul\":36323:36329   */\n      dup7\n        /* \"#utility.yul\":36279:36350   */\n      tag_274\n      jump\t// in\n    tag_665:\n        /* \"#utility.yul\":36360:36432   */\n      tag_666\n        /* \"#utility.yul\":36428:36430   */\n      0x20\n        /* \"#utility.yul\":36417:36426   */\n      dup4\n        /* \"#utility.yul\":36413:36431   */\n      add\n        /* \"#utility.yul\":36404:36410   */\n      dup6\n        /* \"#utility.yul\":36360:36432   */\n      tag_256\n      jump\t// in\n    tag_666:\n        /* \"#utility.yul\":36442:36514   */\n      tag_667\n        /* \"#utility.yul\":36510:36512   */\n      0x40\n        /* \"#utility.yul\":36499:36508   */\n      dup4\n        /* \"#utility.yul\":36495:36513   */\n      add\n        /* \"#utility.yul\":36486:36492   */\n      dup5\n        /* \"#utility.yul\":36442:36514   */\n      tag_256\n      jump\t// in\n    tag_667:\n        /* \"#utility.yul\":36079:36521   */\n      swap5\n      swap4\n      pop\n      pop\n      pop\n      pop\n      jump\t// out\n        /* \"#utility.yul\":36527:36749   */\n    tag_218:\n        /* \"#utility.yul\":36620:36624   */\n      0x00\n        /* \"#utility.yul\":36658:36660   */\n      0x20\n        /* \"#utility.yul\":36647:36656   */\n      dup3\n        /* \"#utility.yul\":36643:36661   */\n      add\n        /* \"#utility.yul\":36635:36661   */\n      swap1\n      pop\n        /* \"#utility.yul\":36671:36742   */\n      tag_669\n        /* \"#utility.yul\":36739:36740   */\n      0x00\n        /* \"#utility.yul\":36728:36737   */\n      dup4\n        /* \"#utility.yul\":36724:36741   */\n      add\n        /* \"#utility.yul\":36715:36721   */\n      dup5\n        /* \"#utility.yul\":36671:36742   */\n      tag_274\n      jump\t// in\n    tag_669:\n        /* \"#utility.yul\":36527:36749   */\n      swap3\n      swap2\n      pop\n      pop\n      jump\t// out\n\n    auxdata: 0xa26469706673582212208df492f22880f2922b01b11939aed46d2cf068c32746525726cd1e13ecf3d32b64736f6c634300081e0033\n}\n",
				"bytecode": {
					"linkReferences": {},
					"object": "608060405234801561000f575f5ffd5b506040518060400160405280600b81526020017f4e6170547820546f6b656e0000000000000000000000000000000000000000008152506040518060400160405280600481526020017f4e50545800000000000000000000000000000000000000000000000000000000815250816003908161008b9190610594565b50806004908161009b9190610594565b5050506100b4336509184e72a0006100b960201b60201c565b610778565b5f73ffffffffffffffffffffffffffffffffffffffff168273ffffffffffffffffffffffffffffffffffffffff1603610129575f6040517fec442f0500000000000000000000000000000000000000000000000000000000815260040161012091906106a2565b60405180910390fd5b61013a5f838361013e60201b60201c565b5050565b5f73ffffffffffffffffffffffffffffffffffffffff168373ffffffffffffffffffffffffffffffffffffffff160361018e578060025f82825461018291906106e8565b9250508190555061025c565b5f5f5f8573ffffffffffffffffffffffffffffffffffffffff1673ffffffffffffffffffffffffffffffffffffffff1681526020019081526020015f2054905081811015610217578381836040517fe450d38c00000000000000000000000000000000000000000000000000000000815260040161020e9392919061072a565b60405180910390fd5b8181035f5f8673ffffffffffffffffffffffffffffffffffffffff1673ffffffffffffffffffffffffffffffffffffffff1681526020019081526020015f2081905550505b5f73ffffffffffffffffffffffffffffffffffffffff168273ffffffffffffffffffffffffffffffffffffffff16036102a3578060025f82825403925050819055506102ed565b805f5f8473ffffffffffffffffffffffffffffffffffffffff1673ffffffffffffffffffffffffffffffffffffffff1681526020019081526020015f205f82825401925050819055505b8173ffffffffffffffffffffffffffffffffffffffff168373ffffffffffffffffffffffffffffffffffffffff167fddf252ad1be2c89b69c2b068fc378daa952ba7f163c4a11628f55a4df523b3ef8360405161034a919061075f565b60405180910390a3505050565b5f81519050919050565b7f4e487b71000000000000000000000000000000000000000000000000000000005f52604160045260245ffd5b7f4e487b71000000000000000000000000000000000000000000000000000000005f52602260045260245ffd5b5f60028204905060018216806103d257607f821691505b6020821081036103e5576103e461038e565b5b50919050565b5f819050815f5260205f209050919050565b5f6020601f8301049050919050565b5f82821b905092915050565b5f600883026104477fffffffffffffffffffffffffffffffffffffffffffffffffffffffffffffffff8261040c565b610451868361040c565b95508019841693508086168417925050509392505050565b5f819050919050565b5f819050919050565b5f61049561049061048b84610469565b610472565b610469565b9050919050565b5f819050919050565b6104ae8361047b565b6104c26104ba8261049c565b848454610418565b825550505050565b5f5f905090565b6104d96104ca565b6104e48184846104a5565b505050565b5b81811015610507576104fc5f826104d1565b6001810190506104ea565b5050565b601f82111561054c5761051d816103eb565b610526846103fd565b81016020851015610535578190505b610549610541856103fd565b8301826104e9565b50505b505050565b5f82821c905092915050565b5f61056c5f1984600802610551565b1980831691505092915050565b5f610584838361055d565b9150826002028217905092915050565b61059d82610357565b67ffffffffffffffff8111156105b6576105b5610361565b5b6105c082546103bb565b6105cb82828561050b565b5f60209050601f8311600181146105fc575f84156105ea578287015190505b6105f48582610579565b86555061065b565b601f19841661060a866103eb565b5f5b828110156106315784890151825560018201915060208501945060208101905061060c565b8683101561064e578489015161064a601f89168261055d565b8355505b6001600288020188555050505b505050505050565b5f73ffffffffffffffffffffffffffffffffffffffff82169050919050565b5f61068c82610663565b9050919050565b61069c81610682565b82525050565b5f6020820190506106b55f830184610693565b92915050565b7f4e487b71000000000000000000000000000000000000000000000000000000005f52601160045260245ffd5b5f6106f282610469565b91506106fd83610469565b9250828201905080821115610715576107146106bb565b5b92915050565b61072481610469565b82525050565b5f60608201905061073d5f830186610693565b61074a602083018561071b565b610757604083018461071b565b949350505050565b5f6020820190506107725f83018461071b565b92915050565b6129ca806107855f395ff3fe608060405234801561000f575f5ffd5b5060043610610109575f3560e01c806393004a38116100a0578063c5dc38a31161006f578063c5dc38a3146102f1578063cb942a5f14610325578063dd62ed3e14610343578063e8d7b7fa14610373578063f021cffe146103ad57610109565b806393004a381461025757806395d89b4114610287578063a9059cbb146102a5578063c0d1782f146102d557610109565b806323b872dd116100dc57806323b872dd146101a957806327386fde146101d9578063313ce5671461020957806370a082311461022757610109565b806306fdde031461010d578063095ea7b31461012b57806318160ddd1461015b5780631dedc70e14610179575b5f5ffd5b6101156103cb565b6040516101229190611864565b60405180910390f35b61014560048036038101906101409190611922565b61045b565b604051610152919061197a565b60405180910390f35b61016361047d565b60405161017091906119a2565b60405180910390f35b610193600480360381019061018e9190611a4f565b610486565b6040516101a09190611ae2565b60405180910390f35b6101c360048036038101906101be9190611afb565b610970565b6040516101d0919061197a565b60405180910390f35b6101f360048036038101906101ee9190611922565b61099e565b604051610200919061197a565b60405180910390f35b6102116109c8565b60405161021e9190611b66565b60405180910390f35b610241600480360381019061023c9190611b7f565b6109d0565b60405161024e91906119a2565b60405180910390f35b610271600480360381019061026c9190611baa565b610a15565b60405161027e919061197a565b60405180910390f35b61028f610a32565b60405161029c9190611864565b60405180910390f35b6102bf60048036038101906102ba9190611922565b610ac2565b6040516102cc919061197a565b60405180910390f35b6102ef60048036038101906102ea9190611d62565b610ae4565b005b61030b60048036038101906103069190611b7f565b610fbf565b60405161031c959493929190611e44565b60405180910390f35b61032d61101c565b60405161033a91906119a2565b60405180910390f35b61035d60048036038101906103589190611e95565b611022565b60405161036a91906119a2565b60405180910390f35b61038d60048036038101906103889190611baa565b6110a4565b6040516103a49b9a99989796959493929190611f46565b60405180910390f35b6103b5611144565b6040516103c291906119a2565b60405180910390f35b6060600380546103da9061201c565b80601f01602080910402602001604051908101604052809291908181526020018280546104069061201c565b80156104515780601f1061042857610100808354040283529160200191610451565b820191905f5260205f20905b81548152906001019060200180831161043457829003601f168201915b5050505050905090565b5f5f61046561114a565b9050610472818585611151565b600191505092915050565b5f600254905090565b5f5f33905060055f8273ffffffffffffffffffffffffffffffffffffffff1673ffffffffffffffffffffffffffffffffffffffff1681526020019081526020015f206004015f9054906101000a900460ff1615610518576040517f08c379a000000000000000000000000000000000000000000000000000000000815260040161050f90612096565b60405180910390fd5b60085f8881526020019081526020015f205f9054906101000a900460ff1615610576576040517f08c379a000000000000000000000000000000000000000000000000000000000815260040161056d906120fe565b60405180910390fd5b61012c866105849190612149565b4211156105c6576040517f08c379a00000000000000000000000000000000000000000000000000000000081526004016105bd906121c6565b60405180910390fd5b5f818888886040516020016105de9493929190612269565b6040516020818303038152906040528051906020012090505f6106448287878080601f0160208091040260200160405190810160405280939291908181526020018383808284375f81840152601f19601f82011690508083019250505050505050611163565b90508273ffffffffffffffffffffffffffffffffffffffff168173ffffffffffffffffffffffffffffffffffffffff16146106b4576040517f08c379a00000000000000000000000000000000000000000000000000000000081526004016106ab90612300565b60405180910390fd5b8289426040516020016106c993929190612372565b6040516020818303038152906040528051906020012093508260055f8573ffffffffffffffffffffffffffffffffffffffff1673ffffffffffffffffffffffffffffffffffffffff1681526020019081526020015f205f015f6101000a81548173ffffffffffffffffffffffffffffffffffffffff021916908373ffffffffffffffffffffffffffffffffffffffff1602179055508360055f8573ffffffffffffffffffffffffffffffffffffffff1673ffffffffffffffffffffffffffffffffffffffff1681526020019081526020015f20600101819055508860055f8573ffffffffffffffffffffffffffffffffffffffff1673ffffffffffffffffffffffffffffffffffffffff1681526020019081526020015f20600501819055505f60055f8573ffffffffffffffffffffffffffffffffffffffff1673ffffffffffffffffffffffffffffffffffffffff1681526020019081526020015f2060030181905550600160055f8573ffffffffffffffffffffffffffffffffffffffff1673ffffffffffffffffffffffffffffffffffffffff1681526020019081526020015f206004015f6101000a81548160ff021916908315150217905550600160085f8b81526020019081526020015f205f6101000a81548160ff021916908315150217905550600160075f8573ffffffffffffffffffffffffffffffffffffffff1673ffffffffffffffffffffffffffffffffffffffff1681526020019081526020015f205f8981526020019081526020015f205f6101000a81548160ff0219169083151502179055508273ffffffffffffffffffffffffffffffffffffffff167f33ee050b57a9d4230ce40c33cffd55a1210af20d6915c2d690b821d8a38223438a864260405161095c939291906123b9565b60405180910390a250505095945050505050565b5f5f61097a61114a565b9050610987858285611289565b61099285858561131c565b60019150509392505050565b6007602052815f5260405f20602052805f5260405f205f915091509054906101000a900460ff1681565b5f6012905090565b5f5f5f8373ffffffffffffffffffffffffffffffffffffffff1673ffffffffffffffffffffffffffffffffffffffff1681526020019081526020015f20549050919050565b6008602052805f5260405f205f915054906101000a900460ff1681565b606060048054610a419061201c565b80601f0160208091040260200160405190810160405280929190818152602001828054610a6d9061201c565b8015610ab85780601f10610a8f57610100808354040283529160200191610ab8565b820191905f5260205f20905b815481529060010190602001808311610a9b57829003601f168201915b5050505050905090565b5f5f610acc61114a565b9050610ad981858561131c565b600191505092915050565b5f33905060055f8273ffffffffffffffffffffffffffffffffffffffff1673ffffffffffffffffffffffffffffffffffffffff1681526020019081526020015f206004015f9054906101000a900460ff16610b74576040517f08c379a0000000000000000000000000000000000000000000000000000000008152600401610b6b90612438565b60405180910390fd5b86869050885114610bba576040517f08c379a0000000000000000000000000000000000000000000000000000000008152600401610bb1906124a0565b60405180910390fd5b61012c85610bc89190612149565b421115610c0a576040517f08c379a0000000000000000000000000000000000000000000000000000000008152600401610c01906121c6565b60405180910390fd5b60075f8273ffffffffffffffffffffffffffffffffffffffff1673ffffffffffffffffffffffffffffffffffffffff1681526020019081526020015f205f8581526020019081526020015f205f9054906101000a900460ff1615610ca3576040517f08c379a0000000000000000000000000000000000000000000000000000000008152600401610c9a90612508565b60405180910390fd5b5f8888888888604051602001610cbd959493929190612649565b6040516020818303038152906040528051906020012090505f610d238286868080601f0160208091040260200160405190810160405280939291908181526020018383808284375f81840152601f19601f82011690508083019250505050505050611163565b90508273ffffffffffffffffffffffffffffffffffffffff168173ffffffffffffffffffffffffffffffffffffffff1614610d93576040517f08c379a0000000000000000000000000000000000000000000000000000000008152600401610d8a90612300565b60405180910390fd5b5f5f90505f5f90505b8b51811015610dd9578a8a82818110610db857610db7612690565b5b9050602002013582610dca9190612149565b91508080600101915050610d9c565b505f610de58530611022565b905080821115610e2a576040517f08c379a0000000000000000000000000000000000000000000000000000000008152600401610e2190612707565b60405180910390fd5b5f5f90505b8c51811015610ef8578b8b82818110610e4b57610e4a612690565b5b9050602002013560055f8873ffffffffffffffffffffffffffffffffffffffff1673ffffffffffffffffffffffffffffffffffffffff1681526020019081526020015f206002015f8f8481518110610ea657610ea5612690565b5b602002602001015173ffffffffffffffffffffffffffffffffffffffff1673ffffffffffffffffffffffffffffffffffffffff1681526020019081526020015f20819055508080600101915050610e2f565b50600160075f8773ffffffffffffffffffffffffffffffffffffffff1673ffffffffffffffffffffffffffffffffffffffff1681526020019081526020015f205f8a81526020019081526020015f205f6101000a81548160ff0219169083151502179055508473ffffffffffffffffffffffffffffffffffffffff167f1350de0e499b0e4996f5ed7a5beb1c93ec8096be6d7375514726766b5dbd6bfc8d8d8d8d604051610fa99493929190612822565b60405180910390a2505050505050505050505050565b6005602052805f5260405f205f91509050805f015f9054906101000a900473ffffffffffffffffffffffffffffffffffffffff1690806001015490806003015490806004015f9054906101000a900460ff16908060050154905085565b61025881565b5f60015f8473ffffffffffffffffffffffffffffffffffffffff1673ffffffffffffffffffffffffffffffffffffffff1681526020019081526020015f205f8373ffffffffffffffffffffffffffffffffffffffff1673ffffffffffffffffffffffffffffffffffffffff1681526020019081526020015f2054905092915050565b6006602052805f5260405f205f91509050805f015490806001015f9054906101000a900473ffffffffffffffffffffffffffffffffffffffff1690806002015f9054906101000a900473ffffffffffffffffffffffffffffffffffffffff1690806003015490806004015490806005015490806006015490806007015490806008015490806009015f9054906101000a900460ff169080600a015490508b565b61012c81565b5f33905090565b61115e838383600161140c565b505050565b5f60418251146111a8576040517f08c379a000000000000000000000000000000000000000000000000000000000815260040161119f90612300565b60405180910390fd5b5f5f5f602085015192506040850151915060608501515f1a9050601b8160ff1610156111de57601b816111db9190612867565b90505b601b8160ff1614806111f35750601c8160ff16145b611232576040517f08c379a0000000000000000000000000000000000000000000000000000000008152600401611229906128e5565b60405180910390fd5b6001868285856040515f81526020016040526040516112549493929190612903565b6020604051602081039080840390855afa158015611274573d5f5f3e3d5ffd5b50505060206040510351935050505092915050565b5f6112948484611022565b90507fffffffffffffffffffffffffffffffffffffffffffffffffffffffffffffffff8110156113165781811015611307578281836040517ffb8f41b20000000000000000000000000000000000000000000000000000000081526004016112fe93929190612946565b60405180910390fd5b61131584848484035f61140c565b5b50505050565b5f73ffffffffffffffffffffffffffffffffffffffff168373ffffffffffffffffffffffffffffffffffffffff160361138c575f6040517f96c6fd1e000000000000000000000000000000000000000000000000000000008152600401611383919061297b565b60405180910390fd5b5f73ffffffffffffffffffffffffffffffffffffffff168273ffffffffffffffffffffffffffffffffffffffff16036113fc575f6040517fec442f050000000000000000000000000000000000000000000000000000000081526004016113f3919061297b565b60405180910390fd5b6114078383836115db565b505050565b5f73ffffffffffffffffffffffffffffffffffffffff168473ffffffffffffffffffffffffffffffffffffffff160361147c575f6040517fe602df05000000000000000000000000000000000000000000000000000000008152600401611473919061297b565b60405180910390fd5b5f73ffffffffffffffffffffffffffffffffffffffff168373ffffffffffffffffffffffffffffffffffffffff16036114ec575f6040517f94280d620000000000000000000000000000000000000000000000000000000081526004016114e3919061297b565b60405180910390fd5b8160015f8673ffffffffffffffffffffffffffffffffffffffff1673ffffffffffffffffffffffffffffffffffffffff1681526020019081526020015f205f8573ffffffffffffffffffffffffffffffffffffffff1673ffffffffffffffffffffffffffffffffffffffff1681526020019081526020015f208190555080156115d5578273ffffffffffffffffffffffffffffffffffffffff168473ffffffffffffffffffffffffffffffffffffffff167f8c5be1e5ebec7d5bd14f71427d1e84f3dd0314c0f7b2291e5b200ac8c7c3b925846040516115cc91906119a2565b60405180910390a35b50505050565b5f73ffffffffffffffffffffffffffffffffffffffff168373ffffffffffffffffffffffffffffffffffffffff160361162b578060025f82825461161f9190612149565b925050819055506116f9565b5f5f5f8573ffffffffffffffffffffffffffffffffffffffff1673ffffffffffffffffffffffffffffffffffffffff1681526020019081526020015f20549050818110156116b4578381836040517fe450d38c0000000000000000000000000000000000000000000000000000000081526004016116ab93929190612946565b60405180910390fd5b8181035f5f8673ffffffffffffffffffffffffffffffffffffffff1673ffffffffffffffffffffffffffffffffffffffff1681526020019081526020015f2081905550505b5f73ffffffffffffffffffffffffffffffffffffffff168273ffffffffffffffffffffffffffffffffffffffff1603611740578060025f828254039250508190555061178a565b805f5f8473ffffffffffffffffffffffffffffffffffffffff1673ffffffffffffffffffffffffffffffffffffffff1681526020019081526020015f205f82825401925050819055505b8173ffffffffffffffffffffffffffffffffffffffff168373ffffffffffffffffffffffffffffffffffffffff167fddf252ad1be2c89b69c2b068fc378daa952ba7f163c4a11628f55a4df523b3ef836040516117e791906119a2565b60405180910390a3505050565b5f81519050919050565b5f82825260208201905092915050565b8281835e5f83830152505050565b5f601f19601f8301169050919050565b5f611836826117f4565b61184081856117fe565b935061185081856020860161180e565b6118598161181c565b840191505092915050565b5f6020820190508181035f83015261187c818461182c565b905092915050565b5f604051905090565b5f5ffd5b5f5ffd5b5f73ffffffffffffffffffffffffffffffffffffffff82169050919050565b5f6118be82611895565b9050919050565b6118ce816118b4565b81146118d8575f5ffd5b50565b5f813590506118e9816118c5565b92915050565b5f819050919050565b611901816118ef565b811461190b575f5ffd5b50565b5f8135905061191c816118f8565b92915050565b5f5f604083850312156119385761193761188d565b5b5f611945858286016118db565b92505060206119568582860161190e565b9150509250929050565b5f8115159050919050565b61197481611960565b82525050565b5f60208201905061198d5f83018461196b565b92915050565b61199c816118ef565b82525050565b5f6020820190506119b55f830184611993565b92915050565b5f819050919050565b6119cd816119bb565b81146119d7575f5ffd5b50565b5f813590506119e8816119c4565b92915050565b5f5ffd5b5f5ffd5b5f5ffd5b5f5f83601f840112611a0f57611a0e6119ee565b5b8235905067ffffffffffffffff811115611a2c57611a2b6119f2565b5b602083019150836001820283011115611a4857611a476119f6565b5b9250929050565b5f5f5f5f5f60808688031215611a6857611a6761188d565b5b5f611a75888289016119da565b9550506020611a868882890161190e565b9450506040611a978882890161190e565b935050606086013567ffffffffffffffff811115611ab857611ab7611891565b5b611ac4888289016119fa565b92509250509295509295909350565b611adc816119bb565b82525050565b5f602082019050611af55f830184611ad3565b92915050565b5f5f5f60608486031215611b1257611b1161188d565b5b5f611b1f868287016118db565b9350506020611b30868287016118db565b9250506040611b418682870161190e565b9150509250925092565b5f60ff82169050919050565b611b6081611b4b565b82525050565b5f602082019050611b795f830184611b57565b92915050565b5f60208284031215611b9457611b9361188d565b5b5f611ba1848285016118db565b91505092915050565b5f60208284031215611bbf57611bbe61188d565b5b5f611bcc848285016119da565b91505092915050565b7f4e487b71000000000000000000000000000000000000000000000000000000005f52604160045260245ffd5b611c0b8261181c565b810181811067ffffffffffffffff82111715611c2a57611c29611bd5565b5b80604052505050565b5f611c3c611884565b9050611c488282611c02565b919050565b5f67ffffffffffffffff821115611c6757611c66611bd5565b5b602082029050602081019050919050565b5f611c8a611c8584611c4d565b611c33565b90508083825260208201905060208402830185811115611cad57611cac6119f6565b5b835b81811015611cd65780611cc288826118db565b845260208401935050602081019050611caf565b5050509392505050565b5f82601f830112611cf457611cf36119ee565b5b8135611d04848260208601611c78565b91505092915050565b5f5f83601f840112611d2257611d216119ee565b5b8235905067ffffffffffffffff811115611d3f57611d3e6119f2565b5b602083019150836020820283011115611d5b57611d5a6119f6565b5b9250929050565b5f5f5f5f5f5f5f60a0888a031215611d7d57611d7c61188d565b5b5f88013567ffffffffffffffff811115611d9a57611d99611891565b5b611da68a828b01611ce0565b975050602088013567ffffffffffffffff811115611dc757611dc6611891565b5b611dd38a828b01611d0d565b96509650506040611de68a828b0161190e565b9450506060611df78a828b0161190e565b935050608088013567ffffffffffffffff811115611e1857611e17611891565b5b611e248a828b016119fa565b925092505092959891949750929550565b611e3e816118b4565b82525050565b5f60a082019050611e575f830188611e35565b611e646020830187611ad3565b611e716040830186611993565b611e7e606083018561196b565b611e8b6080830184611ad3565b9695505050505050565b5f5f60408385031215611eab57611eaa61188d565b5b5f611eb8858286016118db565b9250506020611ec9858286016118db565b9150509250929050565b7f4e487b71000000000000000000000000000000000000000000000000000000005f52602160045260245ffd5b60048110611f1157611f10611ed3565b5b50565b5f819050611f2182611f00565b919050565b5f611f3082611f14565b9050919050565b611f4081611f26565b82525050565b5f61016082019050611f5a5f83018e611ad3565b611f67602083018d611e35565b611f74604083018c611e35565b611f81606083018b611993565b611f8e608083018a611ad3565b611f9b60a0830189611ad3565b611fa860c0830188611ad3565b611fb560e0830187611993565b611fc3610100830186611993565b611fd1610120830185611f37565b611fdf610140830184611ad3565b9c9b505050505050505050505050565b7f4e487b71000000000000000000000000000000000000000000000000000000005f52602260045260245ffd5b5f600282049050600182168061203357607f821691505b60208210810361204657612045611fef565b5b50919050565b7f5961207265676973747261646f000000000000000000000000000000000000005f82015250565b5f612080600d836117fe565b915061208b8261204c565b602082019050919050565b5f6020820190508181035f8301526120ad81612074565b9050919050565b7f44657669636520796120757361646f00000000000000000000000000000000005f82015250565b5f6120e8600f836117fe565b91506120f3826120b4565b602082019050919050565b5f6020820190508181035f830152612115816120dc565b9050919050565b7f4e487b71000000000000000000000000000000000000000000000000000000005f52601160045260245ffd5b5f612153826118ef565b915061215e836118ef565b92508282019050808211156121765761217561211c565b5b92915050565b7f54696d657374616d7020657870697261646f00000000000000000000000000005f82015250565b5f6121b06012836117fe565b91506121bb8261217c565b602082019050919050565b5f6020820190508181035f8301526121dd816121a4565b9050919050565b5f8160601b9050919050565b5f6121fa826121e4565b9050919050565b5f61220b826121f0565b9050919050565b61222361221e826118b4565b612201565b82525050565b5f819050919050565b61224361223e826119bb565b612229565b82525050565b5f819050919050565b61226361225e826118ef565b612249565b82525050565b5f6122748287612212565b6014820191506122848286612232565b6020820191506122948285612252565b6020820191506122a48284612252565b60208201915081905095945050505050565b7f4669726d6120696e76616c6964610000000000000000000000000000000000005f82015250565b5f6122ea600e836117fe565b91506122f5826122b6565b602082019050919050565b5f6020820190508181035f830152612317816122de565b9050919050565b5f81905092915050565b7f67656e65736973000000000000000000000000000000000000000000000000005f82015250565b5f61235c60078361231e565b915061236782612328565b600782019050919050565b5f61237d8286612212565b60148201915061238d8285612232565b60208201915061239d8284612252565b6020820191506123ac82612350565b9150819050949350505050565b5f6060820190506123cc5f830186611ad3565b6123d96020830185611ad3565b6123e66040830184611993565b949350505050565b7f4e6f207265676973747261646f000000000000000000000000000000000000005f82015250565b5f612422600d836117fe565b915061242d826123ee565b602082019050919050565b5f6020820190508181035f83015261244f81612416565b9050919050565b7f4c6f6e67697475646573206469666572656e74657300000000000000000000005f82015250565b5f61248a6015836117fe565b915061249582612456565b602082019050919050565b5f6020820190508181035f8301526124b78161247e565b9050919050565b7f4e6f6e636520796120757361646f0000000000000000000000000000000000005f82015250565b5f6124f2600e836117fe565b91506124fd826124be565b602082019050919050565b5f6020820190508181035f83015261251f816124e6565b9050919050565b5f81519050919050565b5f81905092915050565b5f819050602082019050919050565b612552816118b4565b82525050565b5f6125638383612549565b60208301905092915050565b5f602082019050919050565b5f61258582612526565b61258f8185612530565b935061259a8361253a565b805f5b838110156125ca5781516125b18882612558565b97506125bc8361256f565b92505060018101905061259d565b5085935050505092915050565b5f81905092915050565b5f5ffd5b82818337505050565b5f6125f983856125d7565b93507f07ffffffffffffffffffffffffffffffffffffffffffffffffffffffffffffff83111561262c5761262b6125e1565b5b60208302925061263d8385846125e5565b82840190509392505050565b5f612654828861257b565b91506126618286886125ee565b915061266d8285612252565b60208201915061267d8284612252565b6020820191508190509695505050505050565b7f4e487b71000000000000000000000000000000000000000000000000000000005f52603260045260245ffd5b7f53756d61203e20616c6c6f77616e6365000000000000000000000000000000005f82015250565b5f6126f16010836117fe565b91506126fc826126bd565b602082019050919050565b5f6020820190508181035f83015261271e816126e5565b9050919050565b5f82825260208201905092915050565b61273e816118b4565b82525050565b5f61274f8383612735565b60208301905092915050565b5f61276582612526565b61276f8185612725565b935061277a8361253a565b805f5b838110156127aa5781516127918882612744565b975061279c8361256f565b92505060018101905061277d565b5085935050505092915050565b5f82825260208201905092915050565b5f6127d283856127b7565b93507f07ffffffffffffffffffffffffffffffffffffffffffffffffffffffffffffff831115612805576128046125e1565b5b6020830292506128168385846125e5565b82840190509392505050565b5f6060820190508181035f83015261283a818761275b565b9050818103602083015261284f8185876127c7565b905061285e6040830184611993565b95945050505050565b5f61287182611b4b565b915061287c83611b4b565b9250828201905060ff8111156128955761289461211c565b5b92915050565b7f7620696e76616c69646f000000000000000000000000000000000000000000005f82015250565b5f6128cf600a836117fe565b91506128da8261289b565b602082019050919050565b5f6020820190508181035f8301526128fc816128c3565b9050919050565b5f6080820190506129165f830187611ad3565b6129236020830186611b57565b6129306040830185611ad3565b61293d6060830184611ad3565b95945050505050565b5f6060820190506129595f830186611e35565b6129666020830185611993565b6129736040830184611993565b949350505050565b5f60208201905061298e5f830184611e35565b9291505056fea26469706673582212208df492f22880f2922b01b11939aed46d2cf068c32746525726cd1e13ecf3d32b64736f6c634300081e0033",
					"opcodes": "PUSH1 0x80 PUSH1 0x40 MSTORE CALLVALUE DUP1 ISZERO PUSH2 0xF JUMPI PUSH0 PUSH0 REVERT JUMPDEST POP PUSH1 0x40 MLOAD DUP1 PUSH1 0x40 ADD PUSH1 0x40 MSTORE DUP1 PUSH1 0xB DUP2 MSTORE PUSH1 0x20 ADD PUSH32 0x4E6170547820546F6B656E000000000000000000000000000000000000000000 DUP2 MSTORE POP PUSH1 0x40 MLOAD DUP1 PUSH1 0x40 ADD PUSH1 0x40 MSTORE DUP1 PUSH1 0x4 DUP2 MSTORE PUSH1 0x20 ADD PUSH32 0x4E50545800000000000000000000000000000000000000000000000000000000 DUP2 MSTORE POP DUP2 PUSH1 0x3 SWAP1 DUP2 PUSH2 0x8B SWAP2 SWAP1 PUSH2 0x594 JUMP JUMPDEST POP DUP1 PUSH1 0x4 SWAP1 DUP2 PUSH2 0x9B SWAP2 SWAP1 PUSH2 0x594 JUMP JUMPDEST POP POP POP PUSH2 0xB4 CALLER PUSH6 0x9184E72A000 PUSH2 0xB9 PUSH1 0x20 SHL PUSH1 0x20 SHR JUMP JUMPDEST PUSH2 0x778 JUMP JUMPDEST PUSH0 PUSH20 0xFFFFFFFFFFFFFFFFFFFFFFFFFFFFFFFFFFFFFFFF AND DUP3 PUSH20 0xFFFFFFFFFFFFFFFFFFFFFFFFFFFFFFFFFFFFFFFF AND SUB PUSH2 0x129 JUMPI PUSH0 PUSH1 0x40 MLOAD PUSH32 0xEC442F0500000000000000000000000000000000000000000000000000000000 DUP2 MSTORE PUSH1 0x4 ADD PUSH2 0x120 SWAP2 SWAP1 PUSH2 0x6A2 JUMP JUMPDEST PUSH1 0x40 MLOAD DUP1 SWAP2 SUB SWAP1 REVERT JUMPDEST PUSH2 0x13A PUSH0 DUP4 DUP4 PUSH2 0x13E PUSH1 0x20 SHL PUSH1 0x20 SHR JUMP JUMPDEST POP POP JUMP JUMPDEST PUSH0 PUSH20 0xFFFFFFFFFFFFFFFFFFFFFFFFFFFFFFFFFFFFFFFF AND DUP4 PUSH20 0xFFFFFFFFFFFFFFFFFFFFFFFFFFFFFFFFFFFFFFFF AND SUB PUSH2 0x18E JUMPI DUP1 PUSH1 0x2 PUSH0 DUP3 DUP3 SLOAD PUSH2 0x182 SWAP2 SWAP1 PUSH2 0x6E8 JUMP JUMPDEST SWAP3 POP POP DUP2 SWAP1 SSTORE POP PUSH2 0x25C JUMP JUMPDEST PUSH0 PUSH0 PUSH0 DUP6 PUSH20 0xFFFFFFFFFFFFFFFFFFFFFFFFFFFFFFFFFFFFFFFF AND PUSH20 0xFFFFFFFFFFFFFFFFFFFFFFFFFFFFFFFFFFFFFFFF AND DUP2 MSTORE PUSH1 0x20 ADD SWAP1 DUP2 MSTORE PUSH1 0x20 ADD PUSH0 KECCAK256 SLOAD SWAP1 POP DUP2 DUP2 LT ISZERO PUSH2 0x217 JUMPI DUP4 DUP2 DUP4 PUSH1 0x40 MLOAD PUSH32 0xE450D38C00000000000000000000000000000000000000000000000000000000 DUP2 MSTORE PUSH1 0x4 ADD PUSH2 0x20E SWAP4 SWAP3 SWAP2 SWAP1 PUSH2 0x72A JUMP JUMPDEST PUSH1 0x40 MLOAD DUP1 SWAP2 SUB SWAP1 REVERT JUMPDEST DUP2 DUP2 SUB PUSH0 PUSH0 DUP7 PUSH20 0xFFFFFFFFFFFFFFFFFFFFFFFFFFFFFFFFFFFFFFFF AND PUSH20 0xFFFFFFFFFFFFFFFFFFFFFFFFFFFFFFFFFFFFFFFF AND DUP2 MSTORE PUSH1 0x20 ADD SWAP1 DUP2 MSTORE PUSH1 0x20 ADD PUSH0 KECCAK256 DUP2 SWAP1 SSTORE POP POP JUMPDEST PUSH0 PUSH20 0xFFFFFFFFFFFFFFFFFFFFFFFFFFFFFFFFFFFFFFFF AND DUP3 PUSH20 0xFFFFFFFFFFFFFFFFFFFFFFFFFFFFFFFFFFFFFFFF AND SUB PUSH2 0x2A3 JUMPI DUP1 PUSH1 0x2 PUSH0 DUP3 DUP3 SLOAD SUB SWAP3 POP POP DUP2 SWAP1 SSTORE POP PUSH2 0x2ED JUMP JUMPDEST DUP1 PUSH0 PUSH0 DUP5 PUSH20 0xFFFFFFFFFFFFFFFFFFFFFFFFFFFFFFFFFFFFFFFF AND PUSH20 0xFFFFFFFFFFFFFFFFFFFFFFFFFFFFFFFFFFFFFFFF AND DUP2 MSTORE PUSH1 0x20 ADD SWAP1 DUP2 MSTORE PUSH1 0x20 ADD PUSH0 KECCAK256 PUSH0 DUP3 DUP3 SLOAD ADD SWAP3 POP POP DUP2 SWAP1 SSTORE POP JUMPDEST DUP2 PUSH20 0xFFFFFFFFFFFFFFFFFFFFFFFFFFFFFFFFFFFFFFFF AND DUP4 PUSH20 0xFFFFFFFFFFFFFFFFFFFFFFFFFFFFFFFFFFFFFFFF AND PUSH32 0xDDF252AD1BE2C89B69C2B068FC378DAA952BA7F163C4A11628F55A4DF523B3EF DUP4 PUSH1 0x40 MLOAD PUSH2 0x34A SWAP2 SWAP1 PUSH2 0x75F JUMP JUMPDEST PUSH1 0x40 MLOAD DUP1 SWAP2 SUB SWAP1 LOG3 POP POP POP JUMP JUMPDEST PUSH0 DUP2 MLOAD SWAP1 POP SWAP2 SWAP1 POP JUMP JUMPDEST PUSH32 0x4E487B7100000000000000000000000000000000000000000000000000000000 PUSH0 MSTORE PUSH1 0x41 PUSH1 0x4 MSTORE PUSH1 0x24 PUSH0 REVERT JUMPDEST PUSH32 0x4E487B7100000000000000000000000000000000000000000000000000000000 PUSH0 MSTORE PUSH1 0x22 PUSH1 0x4 MSTORE PUSH1 0x24 PUSH0 REVERT JUMPDEST PUSH0 PUSH1 0x2 DUP3 DIV SWAP1 POP PUSH1 0x1 DUP3 AND DUP1 PUSH2 0x3D2 JUMPI PUSH1 0x7F DUP3 AND SWAP2 POP JUMPDEST PUSH1 0x20 DUP3 LT DUP2 SUB PUSH2 0x3E5 JUMPI PUSH2 0x3E4 PUSH2 0x38E JUMP JUMPDEST JUMPDEST POP SWAP2 SWAP1 POP JUMP JUMPDEST PUSH0 DUP2 SWAP1 POP DUP2 PUSH0 MSTORE PUSH1 0x20 PUSH0 KECCAK256 SWAP1 POP SWAP2 SWAP1 POP JUMP JUMPDEST PUSH0 PUSH1 0x20 PUSH1 0x1F DUP4 ADD DIV SWAP1 POP SWAP2 SWAP1 POP JUMP JUMPDEST PUSH0 DUP3 DUP3 SHL SWAP1 POP SWAP3 SWAP2 POP POP JUMP JUMPDEST PUSH0 PUSH1 0x8 DUP4 MUL PUSH2 0x447 PUSH32 0xFFFFFFFFFFFFFFFFFFFFFFFFFFFFFFFFFFFFFFFFFFFFFFFFFFFFFFFFFFFFFFFF DUP3 PUSH2 0x40C JUMP JUMPDEST PUSH2 0x451 DUP7 DUP4 PUSH2 0x40C JUMP JUMPDEST SWAP6 POP DUP1 NOT DUP5 AND SWAP4 POP DUP1 DUP7 AND DUP5 OR SWAP3 POP POP POP SWAP4 SWAP3 POP POP POP JUMP JUMPDEST PUSH0 DUP2 SWAP1 POP SWAP2 SWAP1 POP JUMP JUMPDEST PUSH0 DUP2 SWAP1 POP SWAP2 SWAP1 POP JUMP JUMPDEST PUSH0 PUSH2 0x495 PUSH2 0x490 PUSH2 0x48B DUP5 PUSH2 0x469 JUMP JUMPDEST PUSH2 0x472 JUMP JUMPDEST PUSH2 0x469 JUMP JUMPDEST SWAP1 POP SWAP2 SWAP1 POP JUMP JUMPDEST PUSH0 DUP2 SWAP1 POP SWAP2 SWAP1 POP JUMP JUMPDEST PUSH2 0x4AE DUP4 PUSH2 0x47B JUMP JUMPDEST PUSH2 0x4C2 PUSH2 0x4BA DUP3 PUSH2 0x49C JUMP JUMPDEST DUP5 DUP5 SLOAD PUSH2 0x418 JUMP JUMPDEST DUP3 SSTORE POP POP POP POP JUMP JUMPDEST PUSH0 PUSH0 SWAP1 POP SWAP1 JUMP JUMPDEST PUSH2 0x4D9 PUSH2 0x4CA JUMP JUMPDEST PUSH2 0x4E4 DUP2 DUP5 DUP5 PUSH2 0x4A5 JUMP JUMPDEST POP POP POP JUMP JUMPDEST JUMPDEST DUP2 DUP2 LT ISZERO PUSH2 0x507 JUMPI PUSH2 0x4FC PUSH0 DUP3 PUSH2 0x4D1 JUMP JUMPDEST PUSH1 0x1 DUP2 ADD SWAP1 POP PUSH2 0x4EA JUMP JUMPDEST POP POP JUMP JUMPDEST PUSH1 0x1F DUP3 GT ISZERO PUSH2 0x54C JUMPI PUSH2 0x51D DUP2 PUSH2 0x3EB JUMP JUMPDEST PUSH2 0x526 DUP5 PUSH2 0x3FD JUMP JUMPDEST DUP2 ADD PUSH1 0x20 DUP6 LT ISZERO PUSH2 0x535 JUMPI DUP2 SWAP1 POP JUMPDEST PUSH2 0x549 PUSH2 0x541 DUP6 PUSH2 0x3FD JUMP JUMPDEST DUP4 ADD DUP3 PUSH2 0x4E9 JUMP JUMPDEST POP POP JUMPDEST POP POP POP JUMP JUMPDEST PUSH0 DUP3 DUP3 SHR SWAP1 POP SWAP3 SWAP2 POP POP JUMP JUMPDEST PUSH0 PUSH2 0x56C PUSH0 NOT DUP5 PUSH1 0x8 MUL PUSH2 0x551 JUMP JUMPDEST NOT DUP1 DUP4 AND SWAP2 POP POP SWAP3 SWAP2 POP POP JUMP JUMPDEST PUSH0 PUSH2 0x584 DUP4 DUP4 PUSH2 0x55D JUMP JUMPDEST SWAP2 POP DUP3 PUSH1 0x2 MUL DUP3 OR SWAP1 POP SWAP3 SWAP2 POP POP JUMP JUMPDEST PUSH2 0x59D DUP3 PUSH2 0x357 JUMP JUMPDEST PUSH8 0xFFFFFFFFFFFFFFFF DUP2 GT ISZERO PUSH2 0x5B6 JUMPI PUSH2 0x5B5 PUSH2 0x361 JUMP JUMPDEST JUMPDEST PUSH2 0x5C0 DUP3 SLOAD PUSH2 0x3BB JUMP JUMPDEST PUSH2 0x5CB DUP3 DUP3 DUP6 PUSH2 0x50B JUMP JUMPDEST PUSH0 PUSH1 0x20 SWAP1 POP PUSH1 0x1F DUP4 GT PUSH1 0x1 DUP2 EQ PUSH2 0x5FC JUMPI PUSH0 DUP5 ISZERO PUSH2 0x5EA JUMPI DUP3 DUP8 ADD MLOAD SWAP1 POP JUMPDEST PUSH2 0x5F4 DUP6 DUP3 PUSH2 0x579 JUMP JUMPDEST DUP7 SSTORE POP PUSH2 0x65B JUMP JUMPDEST PUSH1 0x1F NOT DUP5 AND PUSH2 0x60A DUP7 PUSH2 0x3EB JUMP JUMPDEST PUSH0 JUMPDEST DUP3 DUP2 LT ISZERO PUSH2 0x631 JUMPI DUP5 DUP10 ADD MLOAD DUP3 SSTORE PUSH1 0x1 DUP3 ADD SWAP2 POP PUSH1 0x20 DUP6 ADD SWAP5 POP PUSH1 0x20 DUP2 ADD SWAP1 POP PUSH2 0x60C JUMP JUMPDEST DUP7 DUP4 LT ISZERO PUSH2 0x64E JUMPI DUP5 DUP10 ADD MLOAD PUSH2 0x64A PUSH1 0x1F DUP10 AND DUP3 PUSH2 0x55D JUMP JUMPDEST DUP4 SSTORE POP JUMPDEST PUSH1 0x1 PUSH1 0x2 DUP9 MUL ADD DUP9 SSTORE POP POP POP JUMPDEST POP POP POP POP POP POP JUMP JUMPDEST PUSH0 PUSH20 0xFFFFFFFFFFFFFFFFFFFFFFFFFFFFFFFFFFFFFFFF DUP3 AND SWAP1 POP SWAP2 SWAP1 POP JUMP JUMPDEST PUSH0 PUSH2 0x68C DUP3 PUSH2 0x663 JUMP JUMPDEST SWAP1 POP SWAP2 SWAP1 POP JUMP JUMPDEST PUSH2 0x69C DUP2 PUSH2 0x682 JUMP JUMPDEST DUP3 MSTORE POP POP JUMP JUMPDEST PUSH0 PUSH1 0x20 DUP3 ADD SWAP1 POP PUSH2 0x6B5 PUSH0 DUP4 ADD DUP5 PUSH2 0x693 JUMP JUMPDEST SWAP3 SWAP2 POP POP JUMP JUMPDEST PUSH32 0x4E487B7100000000000000000000000000000000000000000000000000000000 PUSH0 MSTORE PUSH1 0x11 PUSH1 0x4 MSTORE PUSH1 0x24 PUSH0 REVERT JUMPDEST PUSH0 PUSH2 0x6F2 DUP3 PUSH2 0x469 JUMP JUMPDEST SWAP2 POP PUSH2 0x6FD DUP4 PUSH2 0x469 JUMP JUMPDEST SWAP3 POP DUP3 DUP3 ADD SWAP1 POP DUP1 DUP3 GT ISZERO PUSH2 0x715 JUMPI PUSH2 0x714 PUSH2 0x6BB JUMP JUMPDEST JUMPDEST SWAP3 SWAP2 POP POP JUMP JUMPDEST PUSH2 0x724 DUP2 PUSH2 0x469 JUMP JUMPDEST DUP3 MSTORE POP POP JUMP JUMPDEST PUSH0 PUSH1 0x60 DUP3 ADD SWAP1 POP PUSH2 0x73D PUSH0 DUP4 ADD DUP7 PUSH2 0x693 JUMP JUMPDEST PUSH2 0x74A PUSH1 0x20 DUP4 ADD DUP6 PUSH2 0x71B JUMP JUMPDEST PUSH2 0x757 PUSH1 0x40 DUP4 ADD DUP5 PUSH2 0x71B JUMP JUMPDEST SWAP5 SWAP4 POP POP POP POP JUMP JUMPDEST PUSH0 PUSH1 0x20 DUP3 ADD SWAP1 POP PUSH2 0x772 PUSH0 DUP4 ADD DUP5 PUSH2 0x71B JUMP JUMPDEST SWAP3 SWAP2 POP POP JUMP JUMPDEST PUSH2 0x29CA DUP1 PUSH2 0x785 PUSH0 CODECOPY PUSH0 RETURN INVALID PUSH1 0x80 PUSH1 0x40 MSTORE CALLVALUE DUP1 ISZERO PUSH2 0xF JUMPI PUSH0 PUSH0 REVERT JUMPDEST POP PUSH1 0x4 CALLDATASIZE LT PUSH2 0x109 JUMPI PUSH0 CALLDATALOAD PUSH1 0xE0 SHR DUP1 PUSH4 0x93004A38 GT PUSH2 0xA0 JUMPI DUP1 PUSH4 0xC5DC38A3 GT PUSH2 0x6F JUMPI DUP1 PUSH4 0xC5DC38A3 EQ PUSH2 0x2F1 JUMPI DUP1 PUSH4 0xCB942A5F EQ PUSH2 0x325 JUMPI DUP1 PUSH4 0xDD62ED3E EQ PUSH2 0x343 JUMPI DUP1 PUSH4 0xE8D7B7FA EQ PUSH2 0x373 JUMPI DUP1 PUSH4 0xF021CFFE EQ PUSH2 0x3AD JUMPI PUSH2 0x109 JUMP JUMPDEST DUP1 PUSH4 0x93004A38 EQ PUSH2 0x257 JUMPI DUP1 PUSH4 0x95D89B41 EQ PUSH2 0x287 JUMPI DUP1 PUSH4 0xA9059CBB EQ PUSH2 0x2A5 JUMPI DUP1 PUSH4 0xC0D1782F EQ PUSH2 0x2D5 JUMPI PUSH2 0x109 JUMP JUMPDEST DUP1 PUSH4 0x23B872DD GT PUSH2 0xDC JUMPI DUP1 PUSH4 0x23B872DD EQ PUSH2 0x1A9 JUMPI DUP1 PUSH4 0x27386FDE EQ PUSH2 0x1D9 JUMPI DUP1 PUSH4 0x313CE567 EQ PUSH2 0x209 JUMPI DUP1 PUSH4 0x70A08231 EQ PUSH2 0x227 JUMPI PUSH2 0x109 JUMP JUMPDEST DUP1 PUSH4 0x6FDDE03 EQ PUSH2 0x10D JUMPI DUP1 PUSH4 0x95EA7B3 EQ PUSH2 0x12B JUMPI DUP1 PUSH4 0x18160DDD EQ PUSH2 0x15B JUMPI DUP1 PUSH4 0x1DEDC70E EQ PUSH2 0x179 JUMPI JUMPDEST PUSH0 PUSH0 REVERT JUMPDEST PUSH2 0x115 PUSH2 0x3CB JUMP JUMPDEST PUSH1 0x40 MLOAD PUSH2 0x122 SWAP2 SWAP1 PUSH2 0x1864 JUMP JUMPDEST PUSH1 0x40 MLOAD DUP1 SWAP2 SUB SWAP1 RETURN JUMPDEST PUSH2 0x145 PUSH1 0x4 DUP1 CALLDATASIZE SUB DUP2 ADD SWAP1 PUSH2 0x140 SWAP2 SWAP1 PUSH2 0x1922 JUMP JUMPDEST PUSH2 0x45B JUMP JUMPDEST PUSH1 0x40 MLOAD PUSH2 0x152 SWAP2 SWAP1 PUSH2 0x197A JUMP JUMPDEST PUSH1 0x40 MLOAD DUP1 SWAP2 SUB SWAP1 RETURN JUMPDEST PUSH2 0x163 PUSH2 0x47D JUMP JUMPDEST PUSH1 0x40 MLOAD PUSH2 0x170 SWAP2 SWAP1 PUSH2 0x19A2 JUMP JUMPDEST PUSH1 0x40 MLOAD DUP1 SWAP2 SUB SWAP1 RETURN JUMPDEST PUSH2 0x193 PUSH1 0x4 DUP1 CALLDATASIZE SUB DUP2 ADD SWAP1 PUSH2 0x18E SWAP2 SWAP1 PUSH2 0x1A4F JUMP JUMPDEST PUSH2 0x486 JUMP JUMPDEST PUSH1 0x40 MLOAD PUSH2 0x1A0 SWAP2 SWAP1 PUSH2 0x1AE2 JUMP JUMPDEST PUSH1 0x40 MLOAD DUP1 SWAP2 SUB SWAP1 RETURN JUMPDEST PUSH2 0x1C3 PUSH1 0x4 DUP1 CALLDATASIZE SUB DUP2 ADD SWAP1 PUSH2 0x1BE SWAP2 SWAP1 PUSH2 0x1AFB JUMP JUMPDEST PUSH2 0x970 JUMP JUMPDEST PUSH1 0x40 MLOAD PUSH2 0x1D0 SWAP2 SWAP1 PUSH2 0x197A JUMP JUMPDEST PUSH1 0x40 MLOAD DUP1 SWAP2 SUB SWAP1 RETURN JUMPDEST PUSH2 0x1F3 PUSH1 0x4 DUP1 CALLDATASIZE SUB DUP2 ADD SWAP1 PUSH2 0x1EE SWAP2 SWAP1 PUSH2 0x1922 JUMP JUMPDEST PUSH2 0x99E JUMP JUMPDEST PUSH1 0x40 MLOAD PUSH2 0x200 SWAP2 SWAP1 PUSH2 0x197A JUMP JUMPDEST PUSH1 0x40 MLOAD DUP1 SWAP2 SUB SWAP1 RETURN JUMPDEST PUSH2 0x211 PUSH2 0x9C8 JUMP JUMPDEST PUSH1 0x40 MLOAD PUSH2 0x21E SWAP2 SWAP1 PUSH2 0x1B66 JUMP JUMPDEST PUSH1 0x40 MLOAD DUP1 SWAP2 SUB SWAP1 RETURN JUMPDEST PUSH2 0x241 PUSH1 0x4 DUP1 CALLDATASIZE SUB DUP2 ADD SWAP1 PUSH2 0x23C SWAP2 SWAP1 PUSH2 0x1B7F JUMP JUMPDEST PUSH2 0x9D0 JUMP JUMPDEST PUSH1 0x40 MLOAD PUSH2 0x24E SWAP2 SWAP1 PUSH2 0x19A2 JUMP JUMPDEST PUSH1 0x40 MLOAD DUP1 SWAP2 SUB SWAP1 RETURN JUMPDEST PUSH2 0x271 PUSH1 0x4 DUP1 CALLDATASIZE SUB DUP2 ADD SWAP1 PUSH2 0x26C SWAP2 SWAP1 PUSH2 0x1BAA JUMP JUMPDEST PUSH2 0xA15 JUMP JUMPDEST PUSH1 0x40 MLOAD PUSH2 0x27E SWAP2 SWAP1 PUSH2 0x197A JUMP JUMPDEST PUSH1 0x40 MLOAD DUP1 SWAP2 SUB SWAP1 RETURN JUMPDEST PUSH2 0x28F PUSH2 0xA32 JUMP JUMPDEST PUSH1 0x40 MLOAD PUSH2 0x29C SWAP2 SWAP1 PUSH2 0x1864 JUMP JUMPDEST PUSH1 0x40 MLOAD DUP1 SWAP2 SUB SWAP1 RETURN JUMPDEST PUSH2 0x2BF PUSH1 0x4 DUP1 CALLDATASIZE SUB DUP2 ADD SWAP1 PUSH2 0x2BA SWAP2 SWAP1 PUSH2 0x1922 JUMP JUMPDEST PUSH2 0xAC2 JUMP JUMPDEST PUSH1 0x40 MLOAD PUSH2 0x2CC SWAP2 SWAP1 PUSH2 0x197A JUMP JUMPDEST PUSH1 0x40 MLOAD DUP1 SWAP2 SUB SWAP1 RETURN JUMPDEST PUSH2 0x2EF PUSH1 0x4 DUP1 CALLDATASIZE SUB DUP2 ADD SWAP1 PUSH2 0x2EA SWAP2 SWAP1 PUSH2 0x1D62 JUMP JUMPDEST PUSH2 0xAE4 JUMP JUMPDEST STOP JUMPDEST PUSH2 0x30B PUSH1 0x4 DUP1 CALLDATASIZE SUB DUP2 ADD SWAP1 PUSH2 0x306 SWAP2 SWAP1 PUSH2 0x1B7F JUMP JUMPDEST PUSH2 0xFBF JUMP JUMPDEST PUSH1 0x40 MLOAD PUSH2 0x31C SWAP6 SWAP5 SWAP4 SWAP3 SWAP2 SWAP1 PUSH2 0x1E44 JUMP JUMPDEST PUSH1 0x40 MLOAD DUP1 SWAP2 SUB SWAP1 RETURN JUMPDEST PUSH2 0x32D PUSH2 0x101C JUMP JUMPDEST PUSH1 0x40 MLOAD PUSH2 0x33A SWAP2 SWAP1 PUSH2 0x19A2 JUMP JUMPDEST PUSH1 0x40 MLOAD DUP1 SWAP2 SUB SWAP1 RETURN JUMPDEST PUSH2 0x35D PUSH1 0x4 DUP1 CALLDATASIZE SUB DUP2 ADD SWAP1 PUSH2 0x358 SWAP2 SWAP1 PUSH2 0x1E95 JUMP JUMPDEST PUSH2 0x1022 JUMP JUMPDEST PUSH1 0x40 MLOAD PUSH2 0x36A SWAP2 SWAP1 PUSH2 0x19A2 JUMP JUMPDEST PUSH1 0x40 MLOAD DUP1 SWAP2 SUB SWAP1 RETURN JUMPDEST PUSH2 0x38D PUSH1 0x4 DUP1 CALLDATASIZE SUB DUP2 ADD SWAP1 PUSH2 0x388 SWAP2 SWAP1 PUSH2 0x1BAA JUMP JUMPDEST PUSH2 0x10A4 JUMP JUMPDEST PUSH1 0x40 MLOAD PUSH2 0x3A4 SWAP12 SWAP11 SWAP10 SWAP9 SWAP8 SWAP7 SWAP6 SWAP5 SWAP4 SWAP3 SWAP2 SWAP1 PUSH2 0x1F46 JUMP JUMPDEST PUSH1 0x40 MLOAD DUP1 SWAP2 SUB SWAP1 RETURN JUMPDEST PUSH2 0x3B5 PUSH2 0x1144 JUMP JUMPDEST PUSH1 0x40 MLOAD PUSH2 0x3C2 SWAP2 SWAP1 PUSH2 0x19A2 JUMP JUMPDEST PUSH1 0x40 MLOAD DUP1 SWAP2 SUB SWAP1 RETURN JUMPDEST PUSH1 0x60 PUSH1 0x3 DUP1 SLOAD PUSH2 0x3DA SWAP1 PUSH2 0x201C JUMP JUMPDEST DUP1 PUSH1 0x1F ADD PUSH1 0x20 DUP1 SWAP2 DIV MUL PUSH1 0x20 ADD PUSH1 0x40 MLOAD SWAP1 DUP2 ADD PUSH1 0x40 MSTORE DUP1 SWAP3 SWAP2 SWAP1 DUP2 DUP2 MSTORE PUSH1 0x20 ADD DUP3 DUP1 SLOAD PUSH2 0x406 SWAP1 PUSH2 0x201C JUMP JUMPDEST DUP1 ISZERO PUSH2 0x451 JUMPI DUP1 PUSH1 0x1F LT PUSH2 0x428 JUMPI PUSH2 0x100 DUP1 DUP4 SLOAD DIV MUL DUP4 MSTORE SWAP2 PUSH1 0x20 ADD SWAP2 PUSH2 0x451 JUMP JUMPDEST DUP3 ADD SWAP2 SWAP1 PUSH0 MSTORE PUSH1 0x20 PUSH0 KECCAK256 SWAP1 JUMPDEST DUP2 SLOAD DUP2 MSTORE SWAP1 PUSH1 0x1 ADD SWAP1 PUSH1 0x20 ADD DUP1 DUP4 GT PUSH2 0x434 JUMPI DUP3 SWAP1 SUB PUSH1 0x1F AND DUP3 ADD SWAP2 JUMPDEST POP POP POP POP POP SWAP1 POP SWAP1 JUMP JUMPDEST PUSH0 PUSH0 PUSH2 0x465 PUSH2 0x114A JUMP JUMPDEST SWAP1 POP PUSH2 0x472 DUP2 DUP6 DUP6 PUSH2 0x1151 JUMP JUMPDEST PUSH1 0x1 SWAP2 POP POP SWAP3 SWAP2 POP POP JUMP JUMPDEST PUSH0 PUSH1 0x2 SLOAD SWAP1 POP SWAP1 JUMP JUMPDEST PUSH0 PUSH0 CALLER SWAP1 POP PUSH1 0x5 PUSH0 DUP3 PUSH20 0xFFFFFFFFFFFFFFFFFFFFFFFFFFFFFFFFFFFFFFFF AND PUSH20 0xFFFFFFFFFFFFFFFFFFFFFFFFFFFFFFFFFFFFFFFF AND DUP2 MSTORE PUSH1 0x20 ADD SWAP1 DUP2 MSTORE PUSH1 0x20 ADD PUSH0 KECCAK256 PUSH1 0x4 ADD PUSH0 SWAP1 SLOAD SWAP1 PUSH2 0x100 EXP SWAP1 DIV PUSH1 0xFF AND ISZERO PUSH2 0x518 JUMPI PUSH1 0x40 MLOAD PUSH32 0x8C379A000000000000000000000000000000000000000000000000000000000 DUP2 MSTORE PUSH1 0x4 ADD PUSH2 0x50F SWAP1 PUSH2 0x2096 JUMP JUMPDEST PUSH1 0x40 MLOAD DUP1 SWAP2 SUB SWAP1 REVERT JUMPDEST PUSH1 0x8 PUSH0 DUP9 DUP2 MSTORE PUSH1 0x20 ADD SWAP1 DUP2 MSTORE PUSH1 0x20 ADD PUSH0 KECCAK256 PUSH0 SWAP1 SLOAD SWAP1 PUSH2 0x100 EXP SWAP1 DIV PUSH1 0xFF AND ISZERO PUSH2 0x576 JUMPI PUSH1 0x40 MLOAD PUSH32 0x8C379A000000000000000000000000000000000000000000000000000000000 DUP2 MSTORE PUSH1 0x4 ADD PUSH2 0x56D SWAP1 PUSH2 0x20FE JUMP JUMPDEST PUSH1 0x40 MLOAD DUP1 SWAP2 SUB SWAP1 REVERT JUMPDEST PUSH2 0x12C DUP7 PUSH2 0x584 SWAP2 SWAP1 PUSH2 0x2149 JUMP JUMPDEST TIMESTAMP GT ISZERO PUSH2 0x5C6 JUMPI PUSH1 0x40 MLOAD PUSH32 0x8C379A000000000000000000000000000000000000000000000000000000000 DUP2 MSTORE PUSH1 0x4 ADD PUSH2 0x5BD SWAP1 PUSH2 0x21C6 JUMP JUMPDEST PUSH1 0x40 MLOAD DUP1 SWAP2 SUB SWAP1 REVERT JUMPDEST PUSH0 DUP2 DUP9 DUP9 DUP9 PUSH1 0x40 MLOAD PUSH1 0x20 ADD PUSH2 0x5DE SWAP5 SWAP4 SWAP3 SWAP2 SWAP1 PUSH2 0x2269 JUMP JUMPDEST PUSH1 0x40 MLOAD PUSH1 0x20 DUP2 DUP4 SUB SUB DUP2 MSTORE SWAP1 PUSH1 0x40 MSTORE DUP1 MLOAD SWAP1 PUSH1 0x20 ADD KECCAK256 SWAP1 POP PUSH0 PUSH2 0x644 DUP3 DUP8 DUP8 DUP1 DUP1 PUSH1 0x1F ADD PUSH1 0x20 DUP1 SWAP2 DIV MUL PUSH1 0x20 ADD PUSH1 0x40 MLOAD SWAP1 DUP2 ADD PUSH1 0x40 MSTORE DUP1 SWAP4 SWAP3 SWAP2 SWAP1 DUP2 DUP2 MSTORE PUSH1 0x20 ADD DUP4 DUP4 DUP1 DUP3 DUP5 CALLDATACOPY PUSH0 DUP2 DUP5 ADD MSTORE PUSH1 0x1F NOT PUSH1 0x1F DUP3 ADD AND SWAP1 POP DUP1 DUP4 ADD SWAP3 POP POP POP POP POP POP POP PUSH2 0x1163 JUMP JUMPDEST SWAP1 POP DUP3 PUSH20 0xFFFFFFFFFFFFFFFFFFFFFFFFFFFFFFFFFFFFFFFF AND DUP2 PUSH20 0xFFFFFFFFFFFFFFFFFFFFFFFFFFFFFFFFFFFFFFFF AND EQ PUSH2 0x6B4 JUMPI PUSH1 0x40 MLOAD PUSH32 0x8C379A000000000000000000000000000000000000000000000000000000000 DUP2 MSTORE PUSH1 0x4 ADD PUSH2 0x6AB SWAP1 PUSH2 0x2300 JUMP JUMPDEST PUSH1 0x40 MLOAD DUP1 SWAP2 SUB SWAP1 REVERT JUMPDEST DUP3 DUP10 TIMESTAMP PUSH1 0x40 MLOAD PUSH1 0x20 ADD PUSH2 0x6C9 SWAP4 SWAP3 SWAP2 SWAP1 PUSH2 0x2372 JUMP JUMPDEST PUSH1 0x40 MLOAD PUSH1 0x20 DUP2 DUP4 SUB SUB DUP2 MSTORE SWAP1 PUSH1 0x40 MSTORE DUP1 MLOAD SWAP1 PUSH1 0x20 ADD KECCAK256 SWAP4 POP DUP3 PUSH1 0x5 PUSH0 DUP6 PUSH20 0xFFFFFFFFFFFFFFFFFFFFFFFFFFFFFFFFFFFFFFFF AND PUSH20 0xFFFFFFFFFFFFFFFFFFFFFFFFFFFFFFFFFFFFFFFF AND DUP2 MSTORE PUSH1 0x20 ADD SWAP1 DUP2 MSTORE PUSH1 0x20 ADD PUSH0 KECCAK256 PUSH0 ADD PUSH0 PUSH2 0x100 EXP DUP2 SLOAD DUP2 PUSH20 0xFFFFFFFFFFFFFFFFFFFFFFFFFFFFFFFFFFFFFFFF MUL NOT AND SWAP1 DUP4 PUSH20 0xFFFFFFFFFFFFFFFFFFFFFFFFFFFFFFFFFFFFFFFF AND MUL OR SWAP1 SSTORE POP DUP4 PUSH1 0x5 PUSH0 DUP6 PUSH20 0xFFFFFFFFFFFFFFFFFFFFFFFFFFFFFFFFFFFFFFFF AND PUSH20 0xFFFFFFFFFFFFFFFFFFFFFFFFFFFFFFFFFFFFFFFF AND DUP2 MSTORE PUSH1 0x20 ADD SWAP1 DUP2 MSTORE PUSH1 0x20 ADD PUSH0 KECCAK256 PUSH1 0x1 ADD DUP2 SWAP1 SSTORE POP DUP9 PUSH1 0x5 PUSH0 DUP6 PUSH20 0xFFFFFFFFFFFFFFFFFFFFFFFFFFFFFFFFFFFFFFFF AND PUSH20 0xFFFFFFFFFFFFFFFFFFFFFFFFFFFFFFFFFFFFFFFF AND DUP2 MSTORE PUSH1 0x20 ADD SWAP1 DUP2 MSTORE PUSH1 0x20 ADD PUSH0 KECCAK256 PUSH1 0x5 ADD DUP2 SWAP1 SSTORE POP PUSH0 PUSH1 0x5 PUSH0 DUP6 PUSH20 0xFFFFFFFFFFFFFFFFFFFFFFFFFFFFFFFFFFFFFFFF AND PUSH20 0xFFFFFFFFFFFFFFFFFFFFFFFFFFFFFFFFFFFFFFFF AND DUP2 MSTORE PUSH1 0x20 ADD SWAP1 DUP2 MSTORE PUSH1 0x20 ADD PUSH0 KECCAK256 PUSH1 0x3 ADD DUP2 SWAP1 SSTORE POP PUSH1 0x1 PUSH1 0x5 PUSH0 DUP6 PUSH20 0xFFFFFFFFFFFFFFFFFFFFFFFFFFFFFFFFFFFFFFFF AND PUSH20 0xFFFFFFFFFFFFFFFFFFFFFFFFFFFFFFFFFFFFFFFF AND DUP2 MSTORE PUSH1 0x20 ADD SWAP1 DUP2 MSTORE PUSH1 0x20 ADD PUSH0 KECCAK256 PUSH1 0x4 ADD PUSH0 PUSH2 0x100 EXP DUP2 SLOAD DUP2 PUSH1 0xFF MUL NOT AND SWAP1 DUP4 ISZERO ISZERO MUL OR SWAP1 SSTORE POP PUSH1 0x1 PUSH1 0x8 PUSH0 DUP12 DUP2 MSTORE PUSH1 0x20 ADD SWAP1 DUP2 MSTORE PUSH1 0x20 ADD PUSH0 KECCAK256 PUSH0 PUSH2 0x100 EXP DUP2 SLOAD DUP2 PUSH1 0xFF MUL NOT AND SWAP1 DUP4 ISZERO ISZERO MUL OR SWAP1 SSTORE POP PUSH1 0x1 PUSH1 0x7 PUSH0 DUP6 PUSH20 0xFFFFFFFFFFFFFFFFFFFFFFFFFFFFFFFFFFFFFFFF AND PUSH20 0xFFFFFFFFFFFFFFFFFFFFFFFFFFFFFFFFFFFFFFFF AND DUP2 MSTORE PUSH1 0x20 ADD SWAP1 DUP2 MSTORE PUSH1 0x20 ADD PUSH0 KECCAK256 PUSH0 DUP10 DUP2 MSTORE PUSH1 0x20 ADD SWAP1 DUP2 MSTORE PUSH1 0x20 ADD PUSH0 KECCAK256 PUSH0 PUSH2 0x100 EXP DUP2 SLOAD DUP2 PUSH1 0xFF MUL NOT AND SWAP1 DUP4 ISZERO ISZERO MUL OR SWAP1 SSTORE POP DUP3 PUSH20 0xFFFFFFFFFFFFFFFFFFFFFFFFFFFFFFFFFFFFFFFF AND PUSH32 0x33EE050B57A9D4230CE40C33CFFD55A1210AF20D6915C2D690B821D8A3822343 DUP11 DUP7 TIMESTAMP PUSH1 0x40 MLOAD PUSH2 0x95C SWAP4 SWAP3 SWAP2 SWAP1 PUSH2 0x23B9 JUMP JUMPDEST PUSH1 0x40 MLOAD DUP1 SWAP2 SUB SWAP1 LOG2 POP POP POP SWAP6 SWAP5 POP POP POP POP POP JUMP JUMPDEST PUSH0 PUSH0 PUSH2 0x97A PUSH2 0x114A JUMP JUMPDEST SWAP1 POP PUSH2 0x987 DUP6 DUP3 DUP6 PUSH2 0x1289 JUMP JUMPDEST PUSH2 0x992 DUP6 DUP6 DUP6 PUSH2 0x131C JUMP JUMPDEST PUSH1 0x1 SWAP2 POP POP SWAP4 SWAP3 POP POP POP JUMP JUMPDEST PUSH1 0x7 PUSH1 0x20 MSTORE DUP2 PUSH0 MSTORE PUSH1 0x40 PUSH0 KECCAK256 PUSH1 0x20 MSTORE DUP1 PUSH0 MSTORE PUSH1 0x40 PUSH0 KECCAK256 PUSH0 SWAP2 POP SWAP2 POP SWAP1 SLOAD SWAP1 PUSH2 0x100 EXP SWAP1 DIV PUSH1 0xFF AND DUP2 JUMP JUMPDEST PUSH0 PUSH1 0x12 SWAP1 POP SWAP1 JUMP JUMPDEST PUSH0 PUSH0 PUSH0 DUP4 PUSH20 0xFFFFFFFFFFFFFFFFFFFFFFFFFFFFFFFFFFFFFFFF AND PUSH20 0xFFFFFFFFFFFFFFFFFFFFFFFFFFFFFFFFFFFFFFFF AND DUP2 MSTORE PUSH1 0x20 ADD SWAP1 DUP2 MSTORE PUSH1 0x20 ADD PUSH0 KECCAK256 SLOAD SWAP1 POP SWAP2 SWAP1 POP JUMP JUMPDEST PUSH1 0x8 PUSH1 0x20 MSTORE DUP1 PUSH0 MSTORE PUSH1 0x40 PUSH0 KECCAK256 PUSH0 SWAP2 POP SLOAD SWAP1 PUSH2 0x100 EXP SWAP1 DIV PUSH1 0xFF AND DUP2 JUMP JUMPDEST PUSH1 0x60 PUSH1 0x4 DUP1 SLOAD PUSH2 0xA41 SWAP1 PUSH2 0x201C JUMP JUMPDEST DUP1 PUSH1 0x1F ADD PUSH1 0x20 DUP1 SWAP2 DIV MUL PUSH1 0x20 ADD PUSH1 0x40 MLOAD SWAP1 DUP2 ADD PUSH1 0x40 MSTORE DUP1 SWAP3 SWAP2 SWAP1 DUP2 DUP2 MSTORE PUSH1 0x20 ADD DUP3 DUP1 SLOAD PUSH2 0xA6D SWAP1 PUSH2 0x201C JUMP JUMPDEST DUP1 ISZERO PUSH2 0xAB8 JUMPI DUP1 PUSH1 0x1F LT PUSH2 0xA8F JUMPI PUSH2 0x100 DUP1 DUP4 SLOAD DIV MUL DUP4 MSTORE SWAP2 PUSH1 0x20 ADD SWAP2 PUSH2 0xAB8 JUMP JUMPDEST DUP3 ADD SWAP2 SWAP1 PUSH0 MSTORE PUSH1 0x20 PUSH0 KECCAK256 SWAP1 JUMPDEST DUP2 SLOAD DUP2 MSTORE SWAP1 PUSH1 0x1 ADD SWAP1 PUSH1 0x20 ADD DUP1 DUP4 GT PUSH2 0xA9B JUMPI DUP3 SWAP1 SUB PUSH1 0x1F AND DUP3 ADD SWAP2 JUMPDEST POP POP POP POP POP SWAP1 POP SWAP1 JUMP JUMPDEST PUSH0 PUSH0 PUSH2 0xACC PUSH2 0x114A JUMP JUMPDEST SWAP1 POP PUSH2 0xAD9 DUP2 DUP6 DUP6 PUSH2 0x131C JUMP JUMPDEST PUSH1 0x1 SWAP2 POP POP SWAP3 SWAP2 POP POP JUMP JUMPDEST PUSH0 CALLER SWAP1 POP PUSH1 0x5 PUSH0 DUP3 PUSH20 0xFFFFFFFFFFFFFFFFFFFFFFFFFFFFFFFFFFFFFFFF AND PUSH20 0xFFFFFFFFFFFFFFFFFFFFFFFFFFFFFFFFFFFFFFFF AND DUP2 MSTORE PUSH1 0x20 ADD SWAP1 DUP2 MSTORE PUSH1 0x20 ADD PUSH0 KECCAK256 PUSH1 0x4 ADD PUSH0 SWAP1 SLOAD SWAP1 PUSH2 0x100 EXP SWAP1 DIV PUSH1 0xFF AND PUSH2 0xB74 JUMPI PUSH1 0x40 MLOAD PUSH32 0x8C379A000000000000000000000000000000000000000000000000000000000 DUP2 MSTORE PUSH1 0x4 ADD PUSH2 0xB6B SWAP1 PUSH2 0x2438 JUMP JUMPDEST PUSH1 0x40 MLOAD DUP1 SWAP2 SUB SWAP1 REVERT JUMPDEST DUP7 DUP7 SWAP1 POP DUP9 MLOAD EQ PUSH2 0xBBA JUMPI PUSH1 0x40 MLOAD PUSH32 0x8C379A000000000000000000000000000000000000000000000000000000000 DUP2 MSTORE PUSH1 0x4 ADD PUSH2 0xBB1 SWAP1 PUSH2 0x24A0 JUMP JUMPDEST PUSH1 0x40 MLOAD DUP1 SWAP2 SUB SWAP1 REVERT JUMPDEST PUSH2 0x12C DUP6 PUSH2 0xBC8 SWAP2 SWAP1 PUSH2 0x2149 JUMP JUMPDEST TIMESTAMP GT ISZERO PUSH2 0xC0A JUMPI PUSH1 0x40 MLOAD PUSH32 0x8C379A000000000000000000000000000000000000000000000000000000000 DUP2 MSTORE PUSH1 0x4 ADD PUSH2 0xC01 SWAP1 PUSH2 0x21C6 JUMP JUMPDEST PUSH1 0x40 MLOAD DUP1 SWAP2 SUB SWAP1 REVERT JUMPDEST PUSH1 0x7 PUSH0 DUP3 PUSH20 0xFFFFFFFFFFFFFFFFFFFFFFFFFFFFFFFFFFFFFFFF AND PUSH20 0xFFFFFFFFFFFFFFFFFFFFFFFFFFFFFFFFFFFFFFFF AND DUP2 MSTORE PUSH1 0x20 ADD SWAP1 DUP2 MSTORE PUSH1 0x20 ADD PUSH0 KECCAK256 PUSH0 DUP6 DUP2 MSTORE PUSH1 0x20 ADD SWAP1 DUP2 MSTORE PUSH1 0x20 ADD PUSH0 KECCAK256 PUSH0 SWAP1 SLOAD SWAP1 PUSH2 0x100 EXP SWAP1 DIV PUSH1 0xFF AND ISZERO PUSH2 0xCA3 JUMPI PUSH1 0x40 MLOAD PUSH32 0x8C379A000000000000000000000000000000000000000000000000000000000 DUP2 MSTORE PUSH1 0x4 ADD PUSH2 0xC9A SWAP1 PUSH2 0x2508 JUMP JUMPDEST PUSH1 0x40 MLOAD DUP1 SWAP2 SUB SWAP1 REVERT JUMPDEST PUSH0 DUP9 DUP9 DUP9 DUP9 DUP9 PUSH1 0x40 MLOAD PUSH1 0x20 ADD PUSH2 0xCBD SWAP6 SWAP5 SWAP4 SWAP3 SWAP2 SWAP1 PUSH2 0x2649 JUMP JUMPDEST PUSH1 0x40 MLOAD PUSH1 0x20 DUP2 DUP4 SUB SUB DUP2 MSTORE SWAP1 PUSH1 0x40 MSTORE DUP1 MLOAD SWAP1 PUSH1 0x20 ADD KECCAK256 SWAP1 POP PUSH0 PUSH2 0xD23 DUP3 DUP7 DUP7 DUP1 DUP1 PUSH1 0x1F ADD PUSH1 0x20 DUP1 SWAP2 DIV MUL PUSH1 0x20 ADD PUSH1 0x40 MLOAD SWAP1 DUP2 ADD PUSH1 0x40 MSTORE DUP1 SWAP4 SWAP3 SWAP2 SWAP1 DUP2 DUP2 MSTORE PUSH1 0x20 ADD DUP4 DUP4 DUP1 DUP3 DUP5 CALLDATACOPY PUSH0 DUP2 DUP5 ADD MSTORE PUSH1 0x1F NOT PUSH1 0x1F DUP3 ADD AND SWAP1 POP DUP1 DUP4 ADD SWAP3 POP POP POP POP POP POP POP PUSH2 0x1163 JUMP JUMPDEST SWAP1 POP DUP3 PUSH20 0xFFFFFFFFFFFFFFFFFFFFFFFFFFFFFFFFFFFFFFFF AND DUP2 PUSH20 0xFFFFFFFFFFFFFFFFFFFFFFFFFFFFFFFFFFFFFFFF AND EQ PUSH2 0xD93 JUMPI PUSH1 0x40 MLOAD PUSH32 0x8C379A000000000000000000000000000000000000000000000000000000000 DUP2 MSTORE PUSH1 0x4 ADD PUSH2 0xD8A SWAP1 PUSH2 0x2300 JUMP JUMPDEST PUSH1 0x40 MLOAD DUP1 SWAP2 SUB SWAP1 REVERT JUMPDEST PUSH0 PUSH0 SWAP1 POP PUSH0 PUSH0 SWAP1 POP JUMPDEST DUP12 MLOAD DUP2 LT ISZERO PUSH2 0xDD9 JUMPI DUP11 DUP11 DUP3 DUP2 DUP2 LT PUSH2 0xDB8 JUMPI PUSH2 0xDB7 PUSH2 0x2690 JUMP JUMPDEST JUMPDEST SWAP1 POP PUSH1 0x20 MUL ADD CALLDATALOAD DUP3 PUSH2 0xDCA SWAP2 SWAP1 PUSH2 0x2149 JUMP JUMPDEST SWAP2 POP DUP1 DUP1 PUSH1 0x1 ADD SWAP2 POP POP PUSH2 0xD9C JUMP JUMPDEST POP PUSH0 PUSH2 0xDE5 DUP6 ADDRESS PUSH2 0x1022 JUMP JUMPDEST SWAP1 POP DUP1 DUP3 GT ISZERO PUSH2 0xE2A JUMPI PUSH1 0x40 MLOAD PUSH32 0x8C379A000000000000000000000000000000000000000000000000000000000 DUP2 MSTORE PUSH1 0x4 ADD PUSH2 0xE21 SWAP1 PUSH2 0x2707 JUMP JUMPDEST PUSH1 0x40 MLOAD DUP1 SWAP2 SUB SWAP1 REVERT JUMPDEST PUSH0 PUSH0 SWAP1 POP JUMPDEST DUP13 MLOAD DUP2 LT ISZERO PUSH2 0xEF8 JUMPI DUP12 DUP12 DUP3 DUP2 DUP2 LT PUSH2 0xE4B JUMPI PUSH2 0xE4A PUSH2 0x2690 JUMP JUMPDEST JUMPDEST SWAP1 POP PUSH1 0x20 MUL ADD CALLDATALOAD PUSH1 0x5 PUSH0 DUP9 PUSH20 0xFFFFFFFFFFFFFFFFFFFFFFFFFFFFFFFFFFFFFFFF AND PUSH20 0xFFFFFFFFFFFFFFFFFFFFFFFFFFFFFFFFFFFFFFFF AND DUP2 MSTORE PUSH1 0x20 ADD SWAP1 DUP2 MSTORE PUSH1 0x20 ADD PUSH0 KECCAK256 PUSH1 0x2 ADD PUSH0 DUP16 DUP5 DUP2 MLOAD DUP2 LT PUSH2 0xEA6 JUMPI PUSH2 0xEA5 PUSH2 0x2690 JUMP JUMPDEST JUMPDEST PUSH1 0x20 MUL PUSH1 0x20 ADD ADD MLOAD PUSH20 0xFFFFFFFFFFFFFFFFFFFFFFFFFFFFFFFFFFFFFFFF AND PUSH20 0xFFFFFFFFFFFFFFFFFFFFFFFFFFFFFFFFFFFFFFFF AND DUP2 MSTORE PUSH1 0x20 ADD SWAP1 DUP2 MSTORE PUSH1 0x20 ADD PUSH0 KECCAK256 DUP2 SWAP1 SSTORE POP DUP1 DUP1 PUSH1 0x1 ADD SWAP2 POP POP PUSH2 0xE2F JUMP JUMPDEST POP PUSH1 0x1 PUSH1 0x7 PUSH0 DUP8 PUSH20 0xFFFFFFFFFFFFFFFFFFFFFFFFFFFFFFFFFFFFFFFF AND PUSH20 0xFFFFFFFFFFFFFFFFFFFFFFFFFFFFFFFFFFFFFFFF AND DUP2 MSTORE PUSH1 0x20 ADD SWAP1 DUP2 MSTORE PUSH1 0x20 ADD PUSH0 KECCAK256 PUSH0 DUP11 DUP2 MSTORE PUSH1 0x20 ADD SWAP1 DUP2 MSTORE PUSH1 0x20 ADD PUSH0 KECCAK256 PUSH0 PUSH2 0x100 EXP DUP2 SLOAD DUP2 PUSH1 0xFF MUL NOT AND SWAP1 DUP4 ISZERO ISZERO MUL OR SWAP1 SSTORE POP DUP5 PUSH20 0xFFFFFFFFFFFFFFFFFFFFFFFFFFFFFFFFFFFFFFFF AND PUSH32 0x1350DE0E499B0E4996F5ED7A5BEB1C93EC8096BE6D7375514726766B5DBD6BFC DUP14 DUP14 DUP14 DUP14 PUSH1 0x40 MLOAD PUSH2 0xFA9 SWAP5 SWAP4 SWAP3 SWAP2 SWAP1 PUSH2 0x2822 JUMP JUMPDEST PUSH1 0x40 MLOAD DUP1 SWAP2 SUB SWAP1 LOG2 POP POP POP POP POP POP POP POP POP POP POP POP JUMP JUMPDEST PUSH1 0x5 PUSH1 0x20 MSTORE DUP1 PUSH0 MSTORE PUSH1 0x40 PUSH0 KECCAK256 PUSH0 SWAP2 POP SWAP1 POP DUP1 PUSH0 ADD PUSH0 SWAP1 SLOAD SWAP1 PUSH2 0x100 EXP SWAP1 DIV PUSH20 0xFFFFFFFFFFFFFFFFFFFFFFFFFFFFFFFFFFFFFFFF AND SWAP1 DUP1 PUSH1 0x1 ADD SLOAD SWAP1 DUP1 PUSH1 0x3 ADD SLOAD SWAP1 DUP1 PUSH1 0x4 ADD PUSH0 SWAP1 SLOAD SWAP1 PUSH2 0x100 EXP SWAP1 DIV PUSH1 0xFF AND SWAP1 DUP1 PUSH1 0x5 ADD SLOAD SWAP1 POP DUP6 JUMP JUMPDEST PUSH2 0x258 DUP2 JUMP JUMPDEST PUSH0 PUSH1 0x1 PUSH0 DUP5 PUSH20 0xFFFFFFFFFFFFFFFFFFFFFFFFFFFFFFFFFFFFFFFF AND PUSH20 0xFFFFFFFFFFFFFFFFFFFFFFFFFFFFFFFFFFFFFFFF AND DUP2 MSTORE PUSH1 0x20 ADD SWAP1 DUP2 MSTORE PUSH1 0x20 ADD PUSH0 KECCAK256 PUSH0 DUP4 PUSH20 0xFFFFFFFFFFFFFFFFFFFFFFFFFFFFFFFFFFFFFFFF AND PUSH20 0xFFFFFFFFFFFFFFFFFFFFFFFFFFFFFFFFFFFFFFFF AND DUP2 MSTORE PUSH1 0x20 ADD SWAP1 DUP2 MSTORE PUSH1 0x20 ADD PUSH0 KECCAK256 SLOAD SWAP1 POP SWAP3 SWAP2 POP POP JUMP JUMPDEST PUSH1 0x6 PUSH1 0x20 MSTORE DUP1 PUSH0 MSTORE PUSH1 0x40 PUSH0 KECCAK256 PUSH0 SWAP2 POP SWAP1 POP DUP1 PUSH0 ADD SLOAD SWAP1 DUP1 PUSH1 0x1 ADD PUSH0 SWAP1 SLOAD SWAP1 PUSH2 0x100 EXP SWAP1 DIV PUSH20 0xFFFFFFFFFFFFFFFFFFFFFFFFFFFFFFFFFFFFFFFF AND SWAP1 DUP1 PUSH1 0x2 ADD PUSH0 SWAP1 SLOAD SWAP1 PUSH2 0x100 EXP SWAP1 DIV PUSH20 0xFFFFFFFFFFFFFFFFFFFFFFFFFFFFFFFFFFFFFFFF AND SWAP1 DUP1 PUSH1 0x3 ADD SLOAD SWAP1 DUP1 PUSH1 0x4 ADD SLOAD SWAP1 DUP1 PUSH1 0x5 ADD SLOAD SWAP1 DUP1 PUSH1 0x6 ADD SLOAD SWAP1 DUP1 PUSH1 0x7 ADD SLOAD SWAP1 DUP1 PUSH1 0x8 ADD SLOAD SWAP1 DUP1 PUSH1 0x9 ADD PUSH0 SWAP1 SLOAD SWAP1 PUSH2 0x100 EXP SWAP1 DIV PUSH1 0xFF AND SWAP1 DUP1 PUSH1 0xA ADD SLOAD SWAP1 POP DUP12 JUMP JUMPDEST PUSH2 0x12C DUP2 JUMP JUMPDEST PUSH0 CALLER SWAP1 POP SWAP1 JUMP JUMPDEST PUSH2 0x115E DUP4 DUP4 DUP4 PUSH1 0x1 PUSH2 0x140C JUMP JUMPDEST POP POP POP JUMP JUMPDEST PUSH0 PUSH1 0x41 DUP3 MLOAD EQ PUSH2 0x11A8 JUMPI PUSH1 0x40 MLOAD PUSH32 0x8C379A000000000000000000000000000000000000000000000000000000000 DUP2 MSTORE PUSH1 0x4 ADD PUSH2 0x119F SWAP1 PUSH2 0x2300 JUMP JUMPDEST PUSH1 0x40 MLOAD DUP1 SWAP2 SUB SWAP1 REVERT JUMPDEST PUSH0 PUSH0 PUSH0 PUSH1 0x20 DUP6 ADD MLOAD SWAP3 POP PUSH1 0x40 DUP6 ADD MLOAD SWAP2 POP PUSH1 0x60 DUP6 ADD MLOAD PUSH0 BYTE SWAP1 POP PUSH1 0x1B DUP2 PUSH1 0xFF AND LT ISZERO PUSH2 0x11DE JUMPI PUSH1 0x1B DUP2 PUSH2 0x11DB SWAP2 SWAP1 PUSH2 0x2867 JUMP JUMPDEST SWAP1 POP JUMPDEST PUSH1 0x1B DUP2 PUSH1 0xFF AND EQ DUP1 PUSH2 0x11F3 JUMPI POP PUSH1 0x1C DUP2 PUSH1 0xFF AND EQ JUMPDEST PUSH2 0x1232 JUMPI PUSH1 0x40 MLOAD PUSH32 0x8C379A000000000000000000000000000000000000000000000000000000000 DUP2 MSTORE PUSH1 0x4 ADD PUSH2 0x1229 SWAP1 PUSH2 0x28E5 JUMP JUMPDEST PUSH1 0x40 MLOAD DUP1 SWAP2 SUB SWAP1 REVERT JUMPDEST PUSH1 0x1 DUP7 DUP3 DUP6 DUP6 PUSH1 0x40 MLOAD PUSH0 DUP2 MSTORE PUSH1 0x20 ADD PUSH1 0x40 MSTORE PUSH1 0x40 MLOAD PUSH2 0x1254 SWAP5 SWAP4 SWAP3 SWAP2 SWAP1 PUSH2 0x2903 JUMP JUMPDEST PUSH1 0x20 PUSH1 0x40 MLOAD PUSH1 0x20 DUP2 SUB SWAP1 DUP1 DUP5 SUB SWAP1 DUP6 GAS STATICCALL ISZERO DUP1 ISZERO PUSH2 0x1274 JUMPI RETURNDATASIZE PUSH0 PUSH0 RETURNDATACOPY RETURNDATASIZE PUSH0 REVERT JUMPDEST POP POP POP PUSH1 0x20 PUSH1 0x40 MLOAD SUB MLOAD SWAP4 POP POP POP POP SWAP3 SWAP2 POP POP JUMP JUMPDEST PUSH0 PUSH2 0x1294 DUP5 DUP5 PUSH2 0x1022 JUMP JUMPDEST SWAP1 POP PUSH32 0xFFFFFFFFFFFFFFFFFFFFFFFFFFFFFFFFFFFFFFFFFFFFFFFFFFFFFFFFFFFFFFFF DUP2 LT ISZERO PUSH2 0x1316 JUMPI DUP2 DUP2 LT ISZERO PUSH2 0x1307 JUMPI DUP3 DUP2 DUP4 PUSH1 0x40 MLOAD PUSH32 0xFB8F41B200000000000000000000000000000000000000000000000000000000 DUP2 MSTORE PUSH1 0x4 ADD PUSH2 0x12FE SWAP4 SWAP3 SWAP2 SWAP1 PUSH2 0x2946 JUMP JUMPDEST PUSH1 0x40 MLOAD DUP1 SWAP2 SUB SWAP1 REVERT JUMPDEST PUSH2 0x1315 DUP5 DUP5 DUP5 DUP5 SUB PUSH0 PUSH2 0x140C JUMP JUMPDEST JUMPDEST POP POP POP POP JUMP JUMPDEST PUSH0 PUSH20 0xFFFFFFFFFFFFFFFFFFFFFFFFFFFFFFFFFFFFFFFF AND DUP4 PUSH20 0xFFFFFFFFFFFFFFFFFFFFFFFFFFFFFFFFFFFFFFFF AND SUB PUSH2 0x138C JUMPI PUSH0 PUSH1 0x40 MLOAD PUSH32 0x96C6FD1E00000000000000000000000000000000000000000000000000000000 DUP2 MSTORE PUSH1 0x4 ADD PUSH2 0x1383 SWAP2 SWAP1 PUSH2 0x297B JUMP JUMPDEST PUSH1 0x40 MLOAD DUP1 SWAP2 SUB SWAP1 REVERT JUMPDEST PUSH0 PUSH20 0xFFFFFFFFFFFFFFFFFFFFFFFFFFFFFFFFFFFFFFFF AND DUP3 PUSH20 0xFFFFFFFFFFFFFFFFFFFFFFFFFFFFFFFFFFFFFFFF AND SUB PUSH2 0x13FC JUMPI PUSH0 PUSH1 0x40 MLOAD PUSH32 0xEC442F0500000000000000000000000000000000000000000000000000000000 DUP2 MSTORE PUSH1 0x4 ADD PUSH2 0x13F3 SWAP2 SWAP1 PUSH2 0x297B JUMP JUMPDEST PUSH1 0x40 MLOAD DUP1 SWAP2 SUB SWAP1 REVERT JUMPDEST PUSH2 0x1407 DUP4 DUP4 DUP4 PUSH2 0x15DB JUMP JUMPDEST POP POP POP JUMP JUMPDEST PUSH0 PUSH20 0xFFFFFFFFFFFFFFFFFFFFFFFFFFFFFFFFFFFFFFFF AND DUP5 PUSH20 0xFFFFFFFFFFFFFFFFFFFFFFFFFFFFFFFFFFFFFFFF AND SUB PUSH2 0x147C JUMPI PUSH0 PUSH1 0x40 MLOAD PUSH32 0xE602DF0500000000000000000000000000000000000000000000000000000000 DUP2 MSTORE PUSH1 0x4 ADD PUSH2 0x1473 SWAP2 SWAP1 PUSH2 0x297B JUMP JUMPDEST PUSH1 0x40 MLOAD DUP1 SWAP2 SUB SWAP1 REVERT JUMPDEST PUSH0 PUSH20 0xFFFFFFFFFFFFFFFFFFFFFFFFFFFFFFFFFFFFFFFF AND DUP4 PUSH20 0xFFFFFFFFFFFFFFFFFFFFFFFFFFFFFFFFFFFFFFFF AND SUB PUSH2 0x14EC JUMPI PUSH0 PUSH1 0x40 MLOAD PUSH32 0x94280D6200000000000000000000000000000000000000000000000000000000 DUP2 MSTORE PUSH1 0x4 ADD PUSH2 0x14E3 SWAP2 SWAP1 PUSH2 0x297B JUMP JUMPDEST PUSH1 0x40 MLOAD DUP1 SWAP2 SUB SWAP1 REVERT JUMPDEST DUP2 PUSH1 0x1 PUSH0 DUP7 PUSH20 0xFFFFFFFFFFFFFFFFFFFFFFFFFFFFFFFFFFFFFFFF AND PUSH20 0xFFFFFFFFFFFFFFFFFFFFFFFFFFFFFFFFFFFFFFFF AND DUP2 MSTORE PUSH1 0x20 ADD SWAP1 DUP2 MSTORE PUSH1 0x20 ADD PUSH0 KECCAK256 PUSH0 DUP6 PUSH20 0xFFFFFFFFFFFFFFFFFFFFFFFFFFFFFFFFFFFFFFFF AND PUSH20 0xFFFFFFFFFFFFFFFFFFFFFFFFFFFFFFFFFFFFFFFF AND DUP2 MSTORE PUSH1 0x20 ADD SWAP1 DUP2 MSTORE PUSH1 0x20 ADD PUSH0 KECCAK256 DUP2 SWAP1 SSTORE POP DUP1 ISZERO PUSH2 0x15D5 JUMPI DUP3 PUSH20 0xFFFFFFFFFFFFFFFFFFFFFFFFFFFFFFFFFFFFFFFF AND DUP5 PUSH20 0xFFFFFFFFFFFFFFFFFFFFFFFFFFFFFFFFFFFFFFFF AND PUSH32 0x8C5BE1E5EBEC7D5BD14F71427D1E84F3DD0314C0F7B2291E5B200AC8C7C3B925 DUP5 PUSH1 0x40 MLOAD PUSH2 0x15CC SWAP2 SWAP1 PUSH2 0x19A2 JUMP JUMPDEST PUSH1 0x40 MLOAD DUP1 SWAP2 SUB SWAP1 LOG3 JUMPDEST POP POP POP POP JUMP JUMPDEST PUSH0 PUSH20 0xFFFFFFFFFFFFFFFFFFFFFFFFFFFFFFFFFFFFFFFF AND DUP4 PUSH20 0xFFFFFFFFFFFFFFFFFFFFFFFFFFFFFFFFFFFFFFFF AND SUB PUSH2 0x162B JUMPI DUP1 PUSH1 0x2 PUSH0 DUP3 DUP3 SLOAD PUSH2 0x161F SWAP2 SWAP1 PUSH2 0x2149 JUMP JUMPDEST SWAP3 POP POP DUP2 SWAP1 SSTORE POP PUSH2 0x16F9 JUMP JUMPDEST PUSH0 PUSH0 PUSH0 DUP6 PUSH20 0xFFFFFFFFFFFFFFFFFFFFFFFFFFFFFFFFFFFFFFFF AND PUSH20 0xFFFFFFFFFFFFFFFFFFFFFFFFFFFFFFFFFFFFFFFF AND DUP2 MSTORE PUSH1 0x20 ADD SWAP1 DUP2 MSTORE PUSH1 0x20 ADD PUSH0 KECCAK256 SLOAD SWAP1 POP DUP2 DUP2 LT ISZERO PUSH2 0x16B4 JUMPI DUP4 DUP2 DUP4 PUSH1 0x40 MLOAD PUSH32 0xE450D38C00000000000000000000000000000000000000000000000000000000 DUP2 MSTORE PUSH1 0x4 ADD PUSH2 0x16AB SWAP4 SWAP3 SWAP2 SWAP1 PUSH2 0x2946 JUMP JUMPDEST PUSH1 0x40 MLOAD DUP1 SWAP2 SUB SWAP1 REVERT JUMPDEST DUP2 DUP2 SUB PUSH0 PUSH0 DUP7 PUSH20 0xFFFFFFFFFFFFFFFFFFFFFFFFFFFFFFFFFFFFFFFF AND PUSH20 0xFFFFFFFFFFFFFFFFFFFFFFFFFFFFFFFFFFFFFFFF AND DUP2 MSTORE PUSH1 0x20 ADD SWAP1 DUP2 MSTORE PUSH1 0x20 ADD PUSH0 KECCAK256 DUP2 SWAP1 SSTORE POP POP JUMPDEST PUSH0 PUSH20 0xFFFFFFFFFFFFFFFFFFFFFFFFFFFFFFFFFFFFFFFF AND DUP3 PUSH20 0xFFFFFFFFFFFFFFFFFFFFFFFFFFFFFFFFFFFFFFFF AND SUB PUSH2 0x1740 JUMPI DUP1 PUSH1 0x2 PUSH0 DUP3 DUP3 SLOAD SUB SWAP3 POP POP DUP2 SWAP1 SSTORE POP PUSH2 0x178A JUMP JUMPDEST DUP1 PUSH0 PUSH0 DUP5 PUSH20 0xFFFFFFFFFFFFFFFFFFFFFFFFFFFFFFFFFFFFFFFF AND PUSH20 0xFFFFFFFFFFFFFFFFFFFFFFFFFFFFFFFFFFFFFFFF AND DUP2 MSTORE PUSH1 0x20 ADD SWAP1 DUP2 MSTORE PUSH1 0x20 ADD PUSH0 KECCAK256 PUSH0 DUP3 DUP3 SLOAD ADD SWAP3 POP POP DUP2 SWAP1 SSTORE POP JUMPDEST DUP2 PUSH20 0xFFFFFFFFFFFFFFFFFFFFFFFFFFFFFFFFFFFFFFFF AND DUP4 PUSH20 0xFFFFFFFFFFFFFFFFFFFFFFFFFFFFFFFFFFFFFFFF AND PUSH32 0xDDF252AD1BE2C89B69C2B068FC378DAA952BA7F163C4A11628F55A4DF523B3EF DUP4 PUSH1 0x40 MLOAD PUSH2 0x17E7 SWAP2 SWAP1 PUSH2 0x19A2 JUMP JUMPDEST PUSH1 0x40 MLOAD DUP1 SWAP2 SUB SWAP1 LOG3 POP POP POP JUMP JUMPDEST PUSH0 DUP2 MLOAD SWAP1 POP SWAP2 SWAP1 POP JUMP JUMPDEST PUSH0 DUP3 DUP3 MSTORE PUSH1 0x20 DUP3 ADD SWAP1 POP SWAP3 SWAP2 POP POP JUMP JUMPDEST DUP3 DUP2 DUP4 MCOPY PUSH0 DUP4 DUP4 ADD MSTORE POP POP POP JUMP JUMPDEST PUSH0 PUSH1 0x1F NOT PUSH1 0x1F DUP4 ADD AND SWAP1 POP SWAP2 SWAP1 POP JUMP JUMPDEST PUSH0 PUSH2 0x1836 DUP3 PUSH2 0x17F4 JUMP JUMPDEST PUSH2 0x1840 DUP2 DUP6 PUSH2 0x17FE JUMP JUMPDEST SWAP4 POP PUSH2 0x1850 DUP2 DUP6 PUSH1 0x20 DUP7 ADD PUSH2 0x180E JUMP JUMPDEST PUSH2 0x1859 DUP2 PUSH2 0x181C JUMP JUMPDEST DUP5 ADD SWAP2 POP POP SWAP3 SWAP2 POP POP JUMP JUMPDEST PUSH0 PUSH1 0x20 DUP3 ADD SWAP1 POP DUP2 DUP2 SUB PUSH0 DUP4 ADD MSTORE PUSH2 0x187C DUP2 DUP5 PUSH2 0x182C JUMP JUMPDEST SWAP1 POP SWAP3 SWAP2 POP POP JUMP JUMPDEST PUSH0 PUSH1 0x40 MLOAD SWAP1 POP SWAP1 JUMP JUMPDEST PUSH0 PUSH0 REVERT JUMPDEST PUSH0 PUSH0 REVERT JUMPDEST PUSH0 PUSH20 0xFFFFFFFFFFFFFFFFFFFFFFFFFFFFFFFFFFFFFFFF DUP3 AND SWAP1 POP SWAP2 SWAP1 POP JUMP JUMPDEST PUSH0 PUSH2 0x18BE DUP3 PUSH2 0x1895 JUMP JUMPDEST SWAP1 POP SWAP2 SWAP1 POP JUMP JUMPDEST PUSH2 0x18CE DUP2 PUSH2 0x18B4 JUMP JUMPDEST DUP2 EQ PUSH2 0x18D8 JUMPI PUSH0 PUSH0 REVERT JUMPDEST POP JUMP JUMPDEST PUSH0 DUP2 CALLDATALOAD SWAP1 POP PUSH2 0x18E9 DUP2 PUSH2 0x18C5 JUMP JUMPDEST SWAP3 SWAP2 POP POP JUMP JUMPDEST PUSH0 DUP2 SWAP1 POP SWAP2 SWAP1 POP JUMP JUMPDEST PUSH2 0x1901 DUP2 PUSH2 0x18EF JUMP JUMPDEST DUP2 EQ PUSH2 0x190B JUMPI PUSH0 PUSH0 REVERT JUMPDEST POP JUMP JUMPDEST PUSH0 DUP2 CALLDATALOAD SWAP1 POP PUSH2 0x191C DUP2 PUSH2 0x18F8 JUMP JUMPDEST SWAP3 SWAP2 POP POP JUMP JUMPDEST PUSH0 PUSH0 PUSH1 0x40 DUP4 DUP6 SUB SLT ISZERO PUSH2 0x1938 JUMPI PUSH2 0x1937 PUSH2 0x188D JUMP JUMPDEST JUMPDEST PUSH0 PUSH2 0x1945 DUP6 DUP3 DUP7 ADD PUSH2 0x18DB JUMP JUMPDEST SWAP3 POP POP PUSH1 0x20 PUSH2 0x1956 DUP6 DUP3 DUP7 ADD PUSH2 0x190E JUMP JUMPDEST SWAP2 POP POP SWAP3 POP SWAP3 SWAP1 POP JUMP JUMPDEST PUSH0 DUP2 ISZERO ISZERO SWAP1 POP SWAP2 SWAP1 POP JUMP JUMPDEST PUSH2 0x1974 DUP2 PUSH2 0x1960 JUMP JUMPDEST DUP3 MSTORE POP POP JUMP JUMPDEST PUSH0 PUSH1 0x20 DUP3 ADD SWAP1 POP PUSH2 0x198D PUSH0 DUP4 ADD DUP5 PUSH2 0x196B JUMP JUMPDEST SWAP3 SWAP2 POP POP JUMP JUMPDEST PUSH2 0x199C DUP2 PUSH2 0x18EF JUMP JUMPDEST DUP3 MSTORE POP POP JUMP JUMPDEST PUSH0 PUSH1 0x20 DUP3 ADD SWAP1 POP PUSH2 0x19B5 PUSH0 DUP4 ADD DUP5 PUSH2 0x1993 JUMP JUMPDEST SWAP3 SWAP2 POP POP JUMP JUMPDEST PUSH0 DUP2 SWAP1 POP SWAP2 SWAP1 POP JUMP JUMPDEST PUSH2 0x19CD DUP2 PUSH2 0x19BB JUMP JUMPDEST DUP2 EQ PUSH2 0x19D7 JUMPI PUSH0 PUSH0 REVERT JUMPDEST POP JUMP JUMPDEST PUSH0 DUP2 CALLDATALOAD SWAP1 POP PUSH2 0x19E8 DUP2 PUSH2 0x19C4 JUMP JUMPDEST SWAP3 SWAP2 POP POP JUMP JUMPDEST PUSH0 PUSH0 REVERT JUMPDEST PUSH0 PUSH0 REVERT JUMPDEST PUSH0 PUSH0 REVERT JUMPDEST PUSH0 PUSH0 DUP4 PUSH1 0x1F DUP5 ADD SLT PUSH2 0x1A0F JUMPI PUSH2 0x1A0E PUSH2 0x19EE JUMP JUMPDEST JUMPDEST DUP3 CALLDATALOAD SWAP1 POP PUSH8 0xFFFFFFFFFFFFFFFF DUP2 GT ISZERO PUSH2 0x1A2C JUMPI PUSH2 0x1A2B PUSH2 0x19F2 JUMP JUMPDEST JUMPDEST PUSH1 0x20 DUP4 ADD SWAP2 POP DUP4 PUSH1 0x1 DUP3 MUL DUP4 ADD GT ISZERO PUSH2 0x1A48 JUMPI PUSH2 0x1A47 PUSH2 0x19F6 JUMP JUMPDEST JUMPDEST SWAP3 POP SWAP3 SWAP1 POP JUMP JUMPDEST PUSH0 PUSH0 PUSH0 PUSH0 PUSH0 PUSH1 0x80 DUP7 DUP9 SUB SLT ISZERO PUSH2 0x1A68 JUMPI PUSH2 0x1A67 PUSH2 0x188D JUMP JUMPDEST JUMPDEST PUSH0 PUSH2 0x1A75 DUP9 DUP3 DUP10 ADD PUSH2 0x19DA JUMP JUMPDEST SWAP6 POP POP PUSH1 0x20 PUSH2 0x1A86 DUP9 DUP3 DUP10 ADD PUSH2 0x190E JUMP JUMPDEST SWAP5 POP POP PUSH1 0x40 PUSH2 0x1A97 DUP9 DUP3 DUP10 ADD PUSH2 0x190E JUMP JUMPDEST SWAP4 POP POP PUSH1 0x60 DUP7 ADD CALLDATALOAD PUSH8 0xFFFFFFFFFFFFFFFF DUP2 GT ISZERO PUSH2 0x1AB8 JUMPI PUSH2 0x1AB7 PUSH2 0x1891 JUMP JUMPDEST JUMPDEST PUSH2 0x1AC4 DUP9 DUP3 DUP10 ADD PUSH2 0x19FA JUMP JUMPDEST SWAP3 POP SWAP3 POP POP SWAP3 SWAP6 POP SWAP3 SWAP6 SWAP1 SWAP4 POP JUMP JUMPDEST PUSH2 0x1ADC DUP2 PUSH2 0x19BB JUMP JUMPDEST DUP3 MSTORE POP POP JUMP JUMPDEST PUSH0 PUSH1 0x20 DUP3 ADD SWAP1 POP PUSH2 0x1AF5 PUSH0 DUP4 ADD DUP5 PUSH2 0x1AD3 JUMP JUMPDEST SWAP3 SWAP2 POP POP JUMP JUMPDEST PUSH0 PUSH0 PUSH0 PUSH1 0x60 DUP5 DUP7 SUB SLT ISZERO PUSH2 0x1B12 JUMPI PUSH2 0x1B11 PUSH2 0x188D JUMP JUMPDEST JUMPDEST PUSH0 PUSH2 0x1B1F DUP7 DUP3 DUP8 ADD PUSH2 0x18DB JUMP JUMPDEST SWAP4 POP POP PUSH1 0x20 PUSH2 0x1B30 DUP7 DUP3 DUP8 ADD PUSH2 0x18DB JUMP JUMPDEST SWAP3 POP POP PUSH1 0x40 PUSH2 0x1B41 DUP7 DUP3 DUP8 ADD PUSH2 0x190E JUMP JUMPDEST SWAP2 POP POP SWAP3 POP SWAP3 POP SWAP3 JUMP JUMPDEST PUSH0 PUSH1 0xFF DUP3 AND SWAP1 POP SWAP2 SWAP1 POP JUMP JUMPDEST PUSH2 0x1B60 DUP2 PUSH2 0x1B4B JUMP JUMPDEST DUP3 MSTORE POP POP JUMP JUMPDEST PUSH0 PUSH1 0x20 DUP3 ADD SWAP1 POP PUSH2 0x1B79 PUSH0 DUP4 ADD DUP5 PUSH2 0x1B57 JUMP JUMPDEST SWAP3 SWAP2 POP POP JUMP JUMPDEST PUSH0 PUSH1 0x20 DUP3 DUP5 SUB SLT ISZERO PUSH2 0x1B94 JUMPI PUSH2 0x1B93 PUSH2 0x188D JUMP JUMPDEST JUMPDEST PUSH0 PUSH2 0x1BA1 DUP5 DUP3 DUP6 ADD PUSH2 0x18DB JUMP JUMPDEST SWAP2 POP POP SWAP3 SWAP2 POP POP JUMP JUMPDEST PUSH0 PUSH1 0x20 DUP3 DUP5 SUB SLT ISZERO PUSH2 0x1BBF JUMPI PUSH2 0x1BBE PUSH2 0x188D JUMP JUMPDEST JUMPDEST PUSH0 PUSH2 0x1BCC DUP5 DUP3 DUP6 ADD PUSH2 0x19DA JUMP JUMPDEST SWAP2 POP POP SWAP3 SWAP2 POP POP JUMP JUMPDEST PUSH32 0x4E487B7100000000000000000000000000000000000000000000000000000000 PUSH0 MSTORE PUSH1 0x41 PUSH1 0x4 MSTORE PUSH1 0x24 PUSH0 REVERT JUMPDEST PUSH2 0x1C0B DUP3 PUSH2 0x181C JUMP JUMPDEST DUP2 ADD DUP2 DUP2 LT PUSH8 0xFFFFFFFFFFFFFFFF DUP3 GT OR ISZERO PUSH2 0x1C2A JUMPI PUSH2 0x1C29 PUSH2 0x1BD5 JUMP JUMPDEST JUMPDEST DUP1 PUSH1 0x40 MSTORE POP POP POP JUMP JUMPDEST PUSH0 PUSH2 0x1C3C PUSH2 0x1884 JUMP JUMPDEST SWAP1 POP PUSH2 0x1C48 DUP3 DUP3 PUSH2 0x1C02 JUMP JUMPDEST SWAP2 SWAP1 POP JUMP JUMPDEST PUSH0 PUSH8 0xFFFFFFFFFFFFFFFF DUP3 GT ISZERO PUSH2 0x1C67 JUMPI PUSH2 0x1C66 PUSH2 0x1BD5 JUMP JUMPDEST JUMPDEST PUSH1 0x20 DUP3 MUL SWAP1 POP PUSH1 0x20 DUP2 ADD SWAP1 POP SWAP2 SWAP1 POP JUMP JUMPDEST PUSH0 PUSH2 0x1C8A PUSH2 0x1C85 DUP5 PUSH2 0x1C4D JUMP JUMPDEST PUSH2 0x1C33 JUMP JUMPDEST SWAP1 POP DUP1 DUP4 DUP3 MSTORE PUSH1 0x20 DUP3 ADD SWAP1 POP PUSH1 0x20 DUP5 MUL DUP4 ADD DUP6 DUP2 GT ISZERO PUSH2 0x1CAD JUMPI PUSH2 0x1CAC PUSH2 0x19F6 JUMP JUMPDEST JUMPDEST DUP4 JUMPDEST DUP2 DUP2 LT ISZERO PUSH2 0x1CD6 JUMPI DUP1 PUSH2 0x1CC2 DUP9 DUP3 PUSH2 0x18DB JUMP JUMPDEST DUP5 MSTORE PUSH1 0x20 DUP5 ADD SWAP4 POP POP PUSH1 0x20 DUP2 ADD SWAP1 POP PUSH2 0x1CAF JUMP JUMPDEST POP POP POP SWAP4 SWAP3 POP POP POP JUMP JUMPDEST PUSH0 DUP3 PUSH1 0x1F DUP4 ADD SLT PUSH2 0x1CF4 JUMPI PUSH2 0x1CF3 PUSH2 0x19EE JUMP JUMPDEST JUMPDEST DUP2 CALLDATALOAD PUSH2 0x1D04 DUP5 DUP3 PUSH1 0x20 DUP7 ADD PUSH2 0x1C78 JUMP JUMPDEST SWAP2 POP POP SWAP3 SWAP2 POP POP JUMP JUMPDEST PUSH0 PUSH0 DUP4 PUSH1 0x1F DUP5 ADD SLT PUSH2 0x1D22 JUMPI PUSH2 0x1D21 PUSH2 0x19EE JUMP JUMPDEST JUMPDEST DUP3 CALLDATALOAD SWAP1 POP PUSH8 0xFFFFFFFFFFFFFFFF DUP2 GT ISZERO PUSH2 0x1D3F JUMPI PUSH2 0x1D3E PUSH2 0x19F2 JUMP JUMPDEST JUMPDEST PUSH1 0x20 DUP4 ADD SWAP2 POP DUP4 PUSH1 0x20 DUP3 MUL DUP4 ADD GT ISZERO PUSH2 0x1D5B JUMPI PUSH2 0x1D5A PUSH2 0x19F6 JUMP JUMPDEST JUMPDEST SWAP3 POP SWAP3 SWAP1 POP JUMP JUMPDEST PUSH0 PUSH0 PUSH0 PUSH0 PUSH0 PUSH0 PUSH0 PUSH1 0xA0 DUP9 DUP11 SUB SLT ISZERO PUSH2 0x1D7D JUMPI PUSH2 0x1D7C PUSH2 0x188D JUMP JUMPDEST JUMPDEST PUSH0 DUP9 ADD CALLDATALOAD PUSH8 0xFFFFFFFFFFFFFFFF DUP2 GT ISZERO PUSH2 0x1D9A JUMPI PUSH2 0x1D99 PUSH2 0x1891 JUMP JUMPDEST JUMPDEST PUSH2 0x1DA6 DUP11 DUP3 DUP12 ADD PUSH2 0x1CE0 JUMP JUMPDEST SWAP8 POP POP PUSH1 0x20 DUP9 ADD CALLDATALOAD PUSH8 0xFFFFFFFFFFFFFFFF DUP2 GT ISZERO PUSH2 0x1DC7 JUMPI PUSH2 0x1DC6 PUSH2 0x1891 JUMP JUMPDEST JUMPDEST PUSH2 0x1DD3 DUP11 DUP3 DUP12 ADD PUSH2 0x1D0D JUMP JUMPDEST SWAP7 POP SWAP7 POP POP PUSH1 0x40 PUSH2 0x1DE6 DUP11 DUP3 DUP12 ADD PUSH2 0x190E JUMP JUMPDEST SWAP5 POP POP PUSH1 0x60 PUSH2 0x1DF7 DUP11 DUP3 DUP12 ADD PUSH2 0x190E JUMP JUMPDEST SWAP4 POP POP PUSH1 0x80 DUP9 ADD CALLDATALOAD PUSH8 0xFFFFFFFFFFFFFFFF DUP2 GT ISZERO PUSH2 0x1E18 JUMPI PUSH2 0x1E17 PUSH2 0x1891 JUMP JUMPDEST JUMPDEST PUSH2 0x1E24 DUP11 DUP3 DUP12 ADD PUSH2 0x19FA JUMP JUMPDEST SWAP3 POP SWAP3 POP POP SWAP3 SWAP6 SWAP9 SWAP2 SWAP5 SWAP8 POP SWAP3 SWAP6 POP JUMP JUMPDEST PUSH2 0x1E3E DUP2 PUSH2 0x18B4 JUMP JUMPDEST DUP3 MSTORE POP POP JUMP JUMPDEST PUSH0 PUSH1 0xA0 DUP3 ADD SWAP1 POP PUSH2 0x1E57 PUSH0 DUP4 ADD DUP9 PUSH2 0x1E35 JUMP JUMPDEST PUSH2 0x1E64 PUSH1 0x20 DUP4 ADD DUP8 PUSH2 0x1AD3 JUMP JUMPDEST PUSH2 0x1E71 PUSH1 0x40 DUP4 ADD DUP7 PUSH2 0x1993 JUMP JUMPDEST PUSH2 0x1E7E PUSH1 0x60 DUP4 ADD DUP6 PUSH2 0x196B JUMP JUMPDEST PUSH2 0x1E8B PUSH1 0x80 DUP4 ADD DUP5 PUSH2 0x1AD3 JUMP JUMPDEST SWAP7 SWAP6 POP POP POP POP POP POP JUMP JUMPDEST PUSH0 PUSH0 PUSH1 0x40 DUP4 DUP6 SUB SLT ISZERO PUSH2 0x1EAB JUMPI PUSH2 0x1EAA PUSH2 0x188D JUMP JUMPDEST JUMPDEST PUSH0 PUSH2 0x1EB8 DUP6 DUP3 DUP7 ADD PUSH2 0x18DB JUMP JUMPDEST SWAP3 POP POP PUSH1 0x20 PUSH2 0x1EC9 DUP6 DUP3 DUP7 ADD PUSH2 0x18DB JUMP JUMPDEST SWAP2 POP POP SWAP3 POP SWAP3 SWAP1 POP JUMP JUMPDEST PUSH32 0x4E487B7100000000000000000000000000000000000000000000000000000000 PUSH0 MSTORE PUSH1 0x21 PUSH1 0x4 MSTORE PUSH1 0x24 PUSH0 REVERT JUMPDEST PUSH1 0x4 DUP2 LT PUSH2 0x1F11 JUMPI PUSH2 0x1F10 PUSH2 0x1ED3 JUMP JUMPDEST JUMPDEST POP JUMP JUMPDEST PUSH0 DUP2 SWAP1 POP PUSH2 0x1F21 DUP3 PUSH2 0x1F00 JUMP JUMPDEST SWAP2 SWAP1 POP JUMP JUMPDEST PUSH0 PUSH2 0x1F30 DUP3 PUSH2 0x1F14 JUMP JUMPDEST SWAP1 POP SWAP2 SWAP1 POP JUMP JUMPDEST PUSH2 0x1F40 DUP2 PUSH2 0x1F26 JUMP JUMPDEST DUP3 MSTORE POP POP JUMP JUMPDEST PUSH0 PUSH2 0x160 DUP3 ADD SWAP1 POP PUSH2 0x1F5A PUSH0 DUP4 ADD DUP15 PUSH2 0x1AD3 JUMP JUMPDEST PUSH2 0x1F67 PUSH1 0x20 DUP4 ADD DUP14 PUSH2 0x1E35 JUMP JUMPDEST PUSH2 0x1F74 PUSH1 0x40 DUP4 ADD DUP13 PUSH2 0x1E35 JUMP JUMPDEST PUSH2 0x1F81 PUSH1 0x60 DUP4 ADD DUP12 PUSH2 0x1993 JUMP JUMPDEST PUSH2 0x1F8E PUSH1 0x80 DUP4 ADD DUP11 PUSH2 0x1AD3 JUMP JUMPDEST PUSH2 0x1F9B PUSH1 0xA0 DUP4 ADD DUP10 PUSH2 0x1AD3 JUMP JUMPDEST PUSH2 0x1FA8 PUSH1 0xC0 DUP4 ADD DUP9 PUSH2 0x1AD3 JUMP JUMPDEST PUSH2 0x1FB5 PUSH1 0xE0 DUP4 ADD DUP8 PUSH2 0x1993 JUMP JUMPDEST PUSH2 0x1FC3 PUSH2 0x100 DUP4 ADD DUP7 PUSH2 0x1993 JUMP JUMPDEST PUSH2 0x1FD1 PUSH2 0x120 DUP4 ADD DUP6 PUSH2 0x1F37 JUMP JUMPDEST PUSH2 0x1FDF PUSH2 0x140 DUP4 ADD DUP5 PUSH2 0x1AD3 JUMP JUMPDEST SWAP13 SWAP12 POP POP POP POP POP POP POP POP POP POP POP POP JUMP JUMPDEST PUSH32 0x4E487B7100000000000000000000000000000000000000000000000000000000 PUSH0 MSTORE PUSH1 0x22 PUSH1 0x4 MSTORE PUSH1 0x24 PUSH0 REVERT JUMPDEST PUSH0 PUSH1 0x2 DUP3 DIV SWAP1 POP PUSH1 0x1 DUP3 AND DUP1 PUSH2 0x2033 JUMPI PUSH1 0x7F DUP3 AND SWAP2 POP JUMPDEST PUSH1 0x20 DUP3 LT DUP2 SUB PUSH2 0x2046 JUMPI PUSH2 0x2045 PUSH2 0x1FEF JUMP JUMPDEST JUMPDEST POP SWAP2 SWAP1 POP JUMP JUMPDEST PUSH32 0x5961207265676973747261646F00000000000000000000000000000000000000 PUSH0 DUP3 ADD MSTORE POP JUMP JUMPDEST PUSH0 PUSH2 0x2080 PUSH1 0xD DUP4 PUSH2 0x17FE JUMP JUMPDEST SWAP2 POP PUSH2 0x208B DUP3 PUSH2 0x204C JUMP JUMPDEST PUSH1 0x20 DUP3 ADD SWAP1 POP SWAP2 SWAP1 POP JUMP JUMPDEST PUSH0 PUSH1 0x20 DUP3 ADD SWAP1 POP DUP2 DUP2 SUB PUSH0 DUP4 ADD MSTORE PUSH2 0x20AD DUP2 PUSH2 0x2074 JUMP JUMPDEST SWAP1 POP SWAP2 SWAP1 POP JUMP JUMPDEST PUSH32 0x44657669636520796120757361646F0000000000000000000000000000000000 PUSH0 DUP3 ADD MSTORE POP JUMP JUMPDEST PUSH0 PUSH2 0x20E8 PUSH1 0xF DUP4 PUSH2 0x17FE JUMP JUMPDEST SWAP2 POP PUSH2 0x20F3 DUP3 PUSH2 0x20B4 JUMP JUMPDEST PUSH1 0x20 DUP3 ADD SWAP1 POP SWAP2 SWAP1 POP JUMP JUMPDEST PUSH0 PUSH1 0x20 DUP3 ADD SWAP1 POP DUP2 DUP2 SUB PUSH0 DUP4 ADD MSTORE PUSH2 0x2115 DUP2 PUSH2 0x20DC JUMP JUMPDEST SWAP1 POP SWAP2 SWAP1 POP JUMP JUMPDEST PUSH32 0x4E487B7100000000000000000000000000000000000000000000000000000000 PUSH0 MSTORE PUSH1 0x11 PUSH1 0x4 MSTORE PUSH1 0x24 PUSH0 REVERT JUMPDEST PUSH0 PUSH2 0x2153 DUP3 PUSH2 0x18EF JUMP JUMPDEST SWAP2 POP PUSH2 0x215E DUP4 PUSH2 0x18EF JUMP JUMPDEST SWAP3 POP DUP3 DUP3 ADD SWAP1 POP DUP1 DUP3 GT ISZERO PUSH2 0x2176 JUMPI PUSH2 0x2175 PUSH2 0x211C JUMP JUMPDEST JUMPDEST SWAP3 SWAP2 POP POP JUMP JUMPDEST PUSH32 0x54696D657374616D7020657870697261646F0000000000000000000000000000 PUSH0 DUP3 ADD MSTORE POP JUMP JUMPDEST PUSH0 PUSH2 0x21B0 PUSH1 0x12 DUP4 PUSH2 0x17FE JUMP JUMPDEST SWAP2 POP PUSH2 0x21BB DUP3 PUSH2 0x217C JUMP JUMPDEST PUSH1 0x20 DUP3 ADD SWAP1 POP SWAP2 SWAP1 POP JUMP JUMPDEST PUSH0 PUSH1 0x20 DUP3 ADD SWAP1 POP DUP2 DUP2 SUB PUSH0 DUP4 ADD MSTORE PUSH2 0x21DD DUP2 PUSH2 0x21A4 JUMP JUMPDEST SWAP1 POP SWAP2 SWAP1 POP JUMP JUMPDEST PUSH0 DUP2 PUSH1 0x60 SHL SWAP1 POP SWAP2 SWAP1 POP JUMP JUMPDEST PUSH0 PUSH2 0x21FA DUP3 PUSH2 0x21E4 JUMP JUMPDEST SWAP1 POP SWAP2 SWAP1 POP JUMP JUMPDEST PUSH0 PUSH2 0x220B DUP3 PUSH2 0x21F0 JUMP JUMPDEST SWAP1 POP SWAP2 SWAP1 POP JUMP JUMPDEST PUSH2 0x2223 PUSH2 0x221E DUP3 PUSH2 0x18B4 JUMP JUMPDEST PUSH2 0x2201 JUMP JUMPDEST DUP3 MSTORE POP POP JUMP JUMPDEST PUSH0 DUP2 SWAP1 POP SWAP2 SWAP1 POP JUMP JUMPDEST PUSH2 0x2243 PUSH2 0x223E DUP3 PUSH2 0x19BB JUMP JUMPDEST PUSH2 0x2229 JUMP JUMPDEST DUP3 MSTORE POP POP JUMP JUMPDEST PUSH0 DUP2 SWAP1 POP SWAP2 SWAP1 POP JUMP JUMPDEST PUSH2 0x2263 PUSH2 0x225E DUP3 PUSH2 0x18EF JUMP JUMPDEST PUSH2 0x2249 JUMP JUMPDEST DUP3 MSTORE POP POP JUMP JUMPDEST PUSH0 PUSH2 0x2274 DUP3 DUP8 PUSH2 0x2212 JUMP JUMPDEST PUSH1 0x14 DUP3 ADD SWAP2 POP PUSH2 0x2284 DUP3 DUP7 PUSH2 0x2232 JUMP JUMPDEST PUSH1 0x20 DUP3 ADD SWAP2 POP PUSH2 0x2294 DUP3 DUP6 PUSH2 0x2252 JUMP JUMPDEST PUSH1 0x20 DUP3 ADD SWAP2 POP PUSH2 0x22A4 DUP3 DUP5 PUSH2 0x2252 JUMP JUMPDEST PUSH1 0x20 DUP3 ADD SWAP2 POP DUP2 SWAP1 POP SWAP6 SWAP5 POP POP POP POP POP JUMP JUMPDEST PUSH32 0x4669726D6120696E76616C696461000000000000000000000000000000000000 PUSH0 DUP3 ADD MSTORE POP JUMP JUMPDEST PUSH0 PUSH2 0x22EA PUSH1 0xE DUP4 PUSH2 0x17FE JUMP JUMPDEST SWAP2 POP PUSH2 0x22F5 DUP3 PUSH2 0x22B6 JUMP JUMPDEST PUSH1 0x20 DUP3 ADD SWAP1 POP SWAP2 SWAP1 POP JUMP JUMPDEST PUSH0 PUSH1 0x20 DUP3 ADD SWAP1 POP DUP2 DUP2 SUB PUSH0 DUP4 ADD MSTORE PUSH2 0x2317 DUP2 PUSH2 0x22DE JUMP JUMPDEST SWAP1 POP SWAP2 SWAP1 POP JUMP JUMPDEST PUSH0 DUP2 SWAP1 POP SWAP3 SWAP2 POP POP JUMP JUMPDEST PUSH32 0x67656E6573697300000000000000000000000000000000000000000000000000 PUSH0 DUP3 ADD MSTORE POP JUMP JUMPDEST PUSH0 PUSH2 0x235C PUSH1 0x7 DUP4 PUSH2 0x231E JUMP JUMPDEST SWAP2 POP PUSH2 0x2367 DUP3 PUSH2 0x2328 JUMP JUMPDEST PUSH1 0x7 DUP3 ADD SWAP1 POP SWAP2 SWAP1 POP JUMP JUMPDEST PUSH0 PUSH2 0x237D DUP3 DUP7 PUSH2 0x2212 JUMP JUMPDEST PUSH1 0x14 DUP3 ADD SWAP2 POP PUSH2 0x238D DUP3 DUP6 PUSH2 0x2232 JUMP JUMPDEST PUSH1 0x20 DUP3 ADD SWAP2 POP PUSH2 0x239D DUP3 DUP5 PUSH2 0x2252 JUMP JUMPDEST PUSH1 0x20 DUP3 ADD SWAP2 POP PUSH2 0x23AC DUP3 PUSH2 0x2350 JUMP JUMPDEST SWAP2 POP DUP2 SWAP1 POP SWAP5 SWAP4 POP POP POP POP JUMP JUMPDEST PUSH0 PUSH1 0x60 DUP3 ADD SWAP1 POP PUSH2 0x23CC PUSH0 DUP4 ADD DUP7 PUSH2 0x1AD3 JUMP JUMPDEST PUSH2 0x23D9 PUSH1 0x20 DUP4 ADD DUP6 PUSH2 0x1AD3 JUMP JUMPDEST PUSH2 0x23E6 PUSH1 0x40 DUP4 ADD DUP5 PUSH2 0x1993 JUMP JUMPDEST SWAP5 SWAP4 POP POP POP POP JUMP JUMPDEST PUSH32 0x4E6F207265676973747261646F00000000000000000000000000000000000000 PUSH0 DUP3 ADD MSTORE POP JUMP JUMPDEST PUSH0 PUSH2 0x2422 PUSH1 0xD DUP4 PUSH2 0x17FE JUMP JUMPDEST SWAP2 POP PUSH2 0x242D DUP3 PUSH2 0x23EE JUMP JUMPDEST PUSH1 0x20 DUP3 ADD SWAP1 POP SWAP2 SWAP1 POP JUMP JUMPDEST PUSH0 PUSH1 0x20 DUP3 ADD SWAP1 POP DUP2 DUP2 SUB PUSH0 DUP4 ADD MSTORE PUSH2 0x244F DUP2 PUSH2 0x2416 JUMP JUMPDEST SWAP1 POP SWAP2 SWAP1 POP JUMP JUMPDEST PUSH32 0x4C6F6E67697475646573206469666572656E7465730000000000000000000000 PUSH0 DUP3 ADD MSTORE POP JUMP JUMPDEST PUSH0 PUSH2 0x248A PUSH1 0x15 DUP4 PUSH2 0x17FE JUMP JUMPDEST SWAP2 POP PUSH2 0x2495 DUP3 PUSH2 0x2456 JUMP JUMPDEST PUSH1 0x20 DUP3 ADD SWAP1 POP SWAP2 SWAP1 POP JUMP JUMPDEST PUSH0 PUSH1 0x20 DUP3 ADD SWAP1 POP DUP2 DUP2 SUB PUSH0 DUP4 ADD MSTORE PUSH2 0x24B7 DUP2 PUSH2 0x247E JUMP JUMPDEST SWAP1 POP SWAP2 SWAP1 POP JUMP JUMPDEST PUSH32 0x4E6F6E636520796120757361646F000000000000000000000000000000000000 PUSH0 DUP3 ADD MSTORE POP JUMP JUMPDEST PUSH0 PUSH2 0x24F2 PUSH1 0xE DUP4 PUSH2 0x17FE JUMP JUMPDEST SWAP2 POP PUSH2 0x24FD DUP3 PUSH2 0x24BE JUMP JUMPDEST PUSH1 0x20 DUP3 ADD SWAP1 POP SWAP2 SWAP1 POP JUMP JUMPDEST PUSH0 PUSH1 0x20 DUP3 ADD SWAP1 POP DUP2 DUP2 SUB PUSH0 DUP4 ADD MSTORE PUSH2 0x251F DUP2 PUSH2 0x24E6 JUMP JUMPDEST SWAP1 POP SWAP2 SWAP1 POP JUMP JUMPDEST PUSH0 DUP2 MLOAD SWAP1 POP SWAP2 SWAP1 POP JUMP JUMPDEST PUSH0 DUP2 SWAP1 POP SWAP3 SWAP2 POP POP JUMP JUMPDEST PUSH0 DUP2 SWAP1 POP PUSH1 0x20 DUP3 ADD SWAP1 POP SWAP2 SWAP1 POP JUMP JUMPDEST PUSH2 0x2552 DUP2 PUSH2 0x18B4 JUMP JUMPDEST DUP3 MSTORE POP POP JUMP JUMPDEST PUSH0 PUSH2 0x2563 DUP4 DUP4 PUSH2 0x2549 JUMP JUMPDEST PUSH1 0x20 DUP4 ADD SWAP1 POP SWAP3 SWAP2 POP POP JUMP JUMPDEST PUSH0 PUSH1 0x20 DUP3 ADD SWAP1 POP SWAP2 SWAP1 POP JUMP JUMPDEST PUSH0 PUSH2 0x2585 DUP3 PUSH2 0x2526 JUMP JUMPDEST PUSH2 0x258F DUP2 DUP6 PUSH2 0x2530 JUMP JUMPDEST SWAP4 POP PUSH2 0x259A DUP4 PUSH2 0x253A JUMP JUMPDEST DUP1 PUSH0 JUMPDEST DUP4 DUP2 LT ISZERO PUSH2 0x25CA JUMPI DUP2 MLOAD PUSH2 0x25B1 DUP9 DUP3 PUSH2 0x2558 JUMP JUMPDEST SWAP8 POP PUSH2 0x25BC DUP4 PUSH2 0x256F JUMP JUMPDEST SWAP3 POP POP PUSH1 0x1 DUP2 ADD SWAP1 POP PUSH2 0x259D JUMP JUMPDEST POP DUP6 SWAP4 POP POP POP POP SWAP3 SWAP2 POP POP JUMP JUMPDEST PUSH0 DUP2 SWAP1 POP SWAP3 SWAP2 POP POP JUMP JUMPDEST PUSH0 PUSH0 REVERT JUMPDEST DUP3 DUP2 DUP4 CALLDATACOPY POP POP POP JUMP JUMPDEST PUSH0 PUSH2 0x25F9 DUP4 DUP6 PUSH2 0x25D7 JUMP JUMPDEST SWAP4 POP PUSH32 0x7FFFFFFFFFFFFFFFFFFFFFFFFFFFFFFFFFFFFFFFFFFFFFFFFFFFFFFFFFFFFFF DUP4 GT ISZERO PUSH2 0x262C JUMPI PUSH2 0x262B PUSH2 0x25E1 JUMP JUMPDEST JUMPDEST PUSH1 0x20 DUP4 MUL SWAP3 POP PUSH2 0x263D DUP4 DUP6 DUP5 PUSH2 0x25E5 JUMP JUMPDEST DUP3 DUP5 ADD SWAP1 POP SWAP4 SWAP3 POP POP POP JUMP JUMPDEST PUSH0 PUSH2 0x2654 DUP3 DUP9 PUSH2 0x257B JUMP JUMPDEST SWAP2 POP PUSH2 0x2661 DUP3 DUP7 DUP9 PUSH2 0x25EE JUMP JUMPDEST SWAP2 POP PUSH2 0x266D DUP3 DUP6 PUSH2 0x2252 JUMP JUMPDEST PUSH1 0x20 DUP3 ADD SWAP2 POP PUSH2 0x267D DUP3 DUP5 PUSH2 0x2252 JUMP JUMPDEST PUSH1 0x20 DUP3 ADD SWAP2 POP DUP2 SWAP1 POP SWAP7 SWAP6 POP POP POP POP POP POP JUMP JUMPDEST PUSH32 0x4E487B7100000000000000000000000000000000000000000000000000000000 PUSH0 MSTORE PUSH1 0x32 PUSH1 0x4 MSTORE PUSH1 0x24 PUSH0 REVERT JUMPDEST PUSH32 0x53756D61203E20616C6C6F77616E636500000000000000000000000000000000 PUSH0 DUP3 ADD MSTORE POP JUMP JUMPDEST PUSH0 PUSH2 0x26F1 PUSH1 0x10 DUP4 PUSH2 0x17FE JUMP JUMPDEST SWAP2 POP PUSH2 0x26FC DUP3 PUSH2 0x26BD JUMP JUMPDEST PUSH1 0x20 DUP3 ADD SWAP1 POP SWAP2 SWAP1 POP JUMP JUMPDEST PUSH0 PUSH1 0x20 DUP3 ADD SWAP1 POP DUP2 DUP2 SUB PUSH0 DUP4 ADD MSTORE PUSH2 0x271E DUP2 PUSH2 0x26E5 JUMP JUMPDEST SWAP1 POP SWAP2 SWAP1 POP JUMP JUMPDEST PUSH0 DUP3 DUP3 MSTORE PUSH1 0x20 DUP3 ADD SWAP1 POP SWAP3 SWAP2 POP POP JUMP JUMPDEST PUSH2 0x273E DUP2 PUSH2 0x18B4 JUMP JUMPDEST DUP3 MSTORE POP POP JUMP JUMPDEST PUSH0 PUSH2 0x274F DUP4 DUP4 PUSH2 0x2735 JUMP JUMPDEST PUSH1 0x20 DUP4 ADD SWAP1 POP SWAP3 SWAP2 POP POP JUMP JUMPDEST PUSH0 PUSH2 0x2765 DUP3 PUSH2 0x2526 JUMP JUMPDEST PUSH2 0x276F DUP2 DUP6 PUSH2 0x2725 JUMP JUMPDEST SWAP4 POP PUSH2 0x277A DUP4 PUSH2 0x253A JUMP JUMPDEST DUP1 PUSH0 JUMPDEST DUP4 DUP2 LT ISZERO PUSH2 0x27AA JUMPI DUP2 MLOAD PUSH2 0x2791 DUP9 DUP3 PUSH2 0x2744 JUMP JUMPDEST SWAP8 POP PUSH2 0x279C DUP4 PUSH2 0x256F JUMP JUMPDEST SWAP3 POP POP PUSH1 0x1 DUP2 ADD SWAP1 POP PUSH2 0x277D JUMP JUMPDEST POP DUP6 SWAP4 POP POP POP POP SWAP3 SWAP2 POP POP JUMP JUMPDEST PUSH0 DUP3 DUP3 MSTORE PUSH1 0x20 DUP3 ADD SWAP1 POP SWAP3 SWAP2 POP POP JUMP JUMPDEST PUSH0 PUSH2 0x27D2 DUP4 DUP6 PUSH2 0x27B7 JUMP JUMPDEST SWAP4 POP PUSH32 0x7FFFFFFFFFFFFFFFFFFFFFFFFFFFFFFFFFFFFFFFFFFFFFFFFFFFFFFFFFFFFFF DUP4 GT ISZERO PUSH2 0x2805 JUMPI PUSH2 0x2804 PUSH2 0x25E1 JUMP JUMPDEST JUMPDEST PUSH1 0x20 DUP4 MUL SWAP3 POP PUSH2 0x2816 DUP4 DUP6 DUP5 PUSH2 0x25E5 JUMP JUMPDEST DUP3 DUP5 ADD SWAP1 POP SWAP4 SWAP3 POP POP POP JUMP JUMPDEST PUSH0 PUSH1 0x60 DUP3 ADD SWAP1 POP DUP2 DUP2 SUB PUSH0 DUP4 ADD MSTORE PUSH2 0x283A DUP2 DUP8 PUSH2 0x275B JUMP JUMPDEST SWAP1 POP DUP2 DUP2 SUB PUSH1 0x20 DUP4 ADD MSTORE PUSH2 0x284F DUP2 DUP6 DUP8 PUSH2 0x27C7 JUMP JUMPDEST SWAP1 POP PUSH2 0x285E PUSH1 0x40 DUP4 ADD DUP5 PUSH2 0x1993 JUMP JUMPDEST SWAP6 SWAP5 POP POP POP POP POP JUMP JUMPDEST PUSH0 PUSH2 0x2871 DUP3 PUSH2 0x1B4B JUMP JUMPDEST SWAP2 POP PUSH2 0x287C DUP4 PUSH2 0x1B4B JUMP JUMPDEST SWAP3 POP DUP3 DUP3 ADD SWAP1 POP PUSH1 0xFF DUP2 GT ISZERO PUSH2 0x2895 JUMPI PUSH2 0x2894 PUSH2 0x211C JUMP JUMPDEST JUMPDEST SWAP3 SWAP2 POP POP JUMP JUMPDEST PUSH32 0x7620696E76616C69646F00000000000000000000000000000000000000000000 PUSH0 DUP3 ADD MSTORE POP JUMP JUMPDEST PUSH0 PUSH2 0x28CF PUSH1 0xA DUP4 PUSH2 0x17FE JUMP JUMPDEST SWAP2 POP PUSH2 0x28DA DUP3 PUSH2 0x289B JUMP JUMPDEST PUSH1 0x20 DUP3 ADD SWAP1 POP SWAP2 SWAP1 POP JUMP JUMPDEST PUSH0 PUSH1 0x20 DUP3 ADD SWAP1 POP DUP2 DUP2 SUB PUSH0 DUP4 ADD MSTORE PUSH2 0x28FC DUP2 PUSH2 0x28C3 JUMP JUMPDEST SWAP1 POP SWAP2 SWAP1 POP JUMP JUMPDEST PUSH0 PUSH1 0x80 DUP3 ADD SWAP1 POP PUSH2 0x2916 PUSH0 DUP4 ADD DUP8 PUSH2 0x1AD3 JUMP JUMPDEST PUSH2 0x2923 PUSH1 0x20 DUP4 ADD DUP7 PUSH2 0x1B57 JUMP JUMPDEST PUSH2 0x2930 PUSH1 0x40 DUP4 ADD DUP6 PUSH2 0x1AD3 JUMP JUMPDEST PUSH2 0x293D PUSH1 0x60 DUP4 ADD DUP5 PUSH2 0x1AD3 JUMP JUMPDEST SWAP6 SWAP5 POP POP POP POP POP JUMP JUMPDEST PUSH0 PUSH1 0x60 DUP3 ADD SWAP1 POP PUSH2 0x2959 PUSH0 DUP4 ADD DUP7 PUSH2 0x1E35 JUMP JUMPDEST PUSH2 0x2966 PUSH1 0x20 DUP4 ADD DUP6 PUSH2 0x1993 JUMP JUMPDEST PUSH2 0x2973 PUSH1 0x40 DUP4 ADD DUP5 PUSH2 0x1993 JUMP JUMPDEST SWAP5 SWAP4 POP POP POP POP JUMP JUMPDEST PUSH0 PUSH1 0x20 DUP3 ADD SWAP1 POP PUSH2 0x298E PUSH0 DUP4 ADD DUP5 PUSH2 0x1E35 JUMP JUMPDEST SWAP3 SWAP2 POP POP JUMP INVALID LOG2 PUSH5 0x6970667358 0x22 SLT KECCAK256 DUP14 DELEGATECALL SWAP3 CALLCODE 0x28 DUP1 CALLCODE SWAP3 0x2B ADD 0xB1 NOT CODECOPY 0xAE 0xD4 PUSH14 0x2CF068C32746525726CD1E13ECF3 0xD3 0x2B PUSH5 0x736F6C6343 STOP ADDMOD 0x1E STOP CALLER "
				},
				"gasEstimates": {
					"creation": {
						"codeDepositCost": "2139600",
						"executionCost": "infinite",
						"totalCost": "infinite"
					},
					"external": {
						"TIMEOUT_PAGO()": "369",
						"TIMESTAMP_TOLERANCE()": "435",
						"allowance(address,address)": "infinite",
						"approve(address,uint256)": "infinite",
						"balanceOf(address)": "2917",
						"configurarWhitelist(address[],uint256[],uint256,uint256,bytes)": "infinite",
						"decimals()": "405",
						"deviceIdsUsados(bytes32)": "2808",
						"emisores(address)": "infinite",
						"name()": "infinite",
						"noncesUsados(address,uint256)": "3115",
						"pagosPendientes(bytes32)": "infinite",
						"registrar(bytes32,uint256,uint256,bytes)": "infinite",
						"symbol()": "infinite",
						"totalSupply()": "2500",
						"transfer(address,uint256)": "infinite",
						"transferFrom(address,address,uint256)": "infinite"
					},
					"internal": {
						"recuperarFirmante(bytes32,bytes memory)": "infinite"
					}
				},
				"methodIdentifiers": {
					"TIMEOUT_PAGO()": "cb942a5f",
					"TIMESTAMP_TOLERANCE()": "f021cffe",
					"allowance(address,address)": "dd62ed3e",
					"approve(address,uint256)": "095ea7b3",
					"balanceOf(address)": "70a08231",
					"configurarWhitelist(address[],uint256[],uint256,uint256,bytes)": "c0d1782f",
					"decimals()": "313ce567",
					"deviceIdsUsados(bytes32)": "93004a38",
					"emisores(address)": "c5dc38a3",
					"name()": "06fdde03",
					"noncesUsados(address,uint256)": "27386fde",
					"pagosPendientes(bytes32)": "e8d7b7fa",
					"registrar(bytes32,uint256,uint256,bytes)": "1dedc70e",
					"symbol()": "95d89b41",
					"totalSupply()": "18160ddd",
					"transfer(address,uint256)": "a9059cbb",
					"transferFrom(address,address,uint256)": "23b872dd"
				}
			},
			"storageLayout": {
				"storage": [
					{
						"astId": 679,
						"contract": "NapTx.sol:OfflinePaymentSystem",
						"label": "_balances",
						"offset": 0,
						"slot": "0",
						"type": "t_mapping(t_address,t_uint256)"
					},
					{
						"astId": 685,
						"contract": "NapTx.sol:OfflinePaymentSystem",
						"label": "_allowances",
						"offset": 0,
						"slot": "1",
						"type": "t_mapping(t_address,t_mapping(t_address,t_uint256))"
					},
					{
						"astId": 687,
						"contract": "NapTx.sol:OfflinePaymentSystem",
						"label": "_totalSupply",
						"offset": 0,
						"slot": "2",
						"type": "t_uint256"
					},
					{
						"astId": 689,
						"contract": "NapTx.sol:OfflinePaymentSystem",
						"label": "_name",
						"offset": 0,
						"slot": "3",
						"type": "t_string_storage"
					},
					{
						"astId": 691,
						"contract": "NapTx.sol:OfflinePaymentSystem",
						"label": "_symbol",
						"offset": 0,
						"slot": "4",
						"type": "t_string_storage"
					},
					{
						"astId": 59,
						"contract": "NapTx.sol:OfflinePaymentSystem",
						"label": "emisores",
						"offset": 0,
						"slot": "5",
						"type": "t_mapping(t_address,t_struct(Emisor)30_storage)"
					},
					{
						"astId": 64,
						"contract": "NapTx.sol:OfflinePaymentSystem",
						"label": "pagosPendientes",
						"offset": 0,
						"slot": "6",
						"type": "t_mapping(t_bytes32,t_struct(PagoPendiente)54_storage)"
					},
					{
						"astId": 70,
						"contract": "NapTx.sol:OfflinePaymentSystem",
						"label": "noncesUsados",
						"offset": 0,
						"slot": "7",
						"type": "t_mapping(t_address,t_mapping(t_uint256,t_bool))"
					},
					{
						"astId": 74,
						"contract": "NapTx.sol:OfflinePaymentSystem",
						"label": "deviceIdsUsados",
						"offset": 0,
						"slot": "8",
						"type": "t_mapping(t_bytes32,t_bool)"
					}
				],
				"types": {
					"t_address": {
						"encoding": "inplace",
						"label": "address",
						"numberOfBytes": "20"
					},
					"t_bool": {
						"encoding": "inplace",
						"label": "bool",
						"numberOfBytes": "1"
					},
					"t_bytes32": {
						"encoding": "inplace",
						"label": "bytes32",
						"numberOfBytes": "32"
					},
					"t_enum(Estado)15": {
						"encoding": "inplace",
						"label": "enum OfflinePaymentSystem.Estado",
						"numberOfBytes": "1"
					},
					"t_mapping(t_address,t_mapping(t_address,t_uint256))": {
						"encoding": "mapping",
						"key": "t_address",
						"label": "mapping(address => mapping(address => uint256))",
						"numberOfBytes": "32",
						"value": "t_mapping(t_address,t_uint256)"
					},
					"t_mapping(t_address,t_mapping(t_uint256,t_bool))": {
						"encoding": "mapping",
						"key": "t_address",
						"label": "mapping(address => mapping(uint256 => bool))",
						"numberOfBytes": "32",
						"value": "t_mapping(t_uint256,t_bool)"
					},
					"t_mapping(t_address,t_struct(Emisor)30_storage)": {
						"encoding": "mapping",
						"key": "t_address",
						"label": "mapping(address => struct OfflinePaymentSystem.Emisor)",
						"numberOfBytes": "32",
						"value": "t_struct(Emisor)30_storage"
					},
					"t_mapping(t_address,t_uint256)": {
						"encoding": "mapping",
						"key": "t_address",
						"label": "mapping(address => uint256)",
						"numberOfBytes": "32",
						"value": "t_uint256"
					},
					"t_mapping(t_bytes32,t_bool)": {
						"encoding": "mapping",
						"key": "t_bytes32",
						"label": "mapping(bytes32 => bool)",
						"numberOfBytes": "32",
						"value": "t_bool"
					},
					"t_mapping(t_bytes32,t_struct(PagoPendiente)54_storage)": {
						"encoding": "mapping",
						"key": "t_bytes32",
						"label": "mapping(bytes32 => struct OfflinePaymentSystem.PagoPendiente)",
						"numberOfBytes": "32",
						"value": "t_struct(PagoPendiente)54_storage"
					},
					"t_mapping(t_uint256,t_bool)": {
						"encoding": "mapping",
						"key": "t_uint256",
						"label": "mapping(uint256 => bool)",
						"numberOfBytes": "32",
						"value": "t_bool"
					},
					"t_string_storage": {
						"encoding": "bytes",
						"label": "string",
						"numberOfBytes": "32"
					},
					"t_struct(Emisor)30_storage": {
						"encoding": "inplace",
						"label": "struct OfflinePaymentSystem.Emisor",
						"members": [
							{
								"astId": 17,
								"contract": "NapTx.sol:OfflinePaymentSystem",
								"label": "walletAddress",
								"offset": 0,
								"slot": "0",
								"type": "t_address"
							},
							{
								"astId": 19,
								"contract": "NapTx.sol:OfflinePaymentSystem",
								"label": "hashActual",
								"offset": 0,
								"slot": "1",
								"type": "t_bytes32"
							},
							{
								"astId": 23,
								"contract": "NapTx.sol:OfflinePaymentSystem",
								"label": "whitelist",
								"offset": 0,
								"slot": "2",
								"type": "t_mapping(t_address,t_uint256)"
							},
							{
								"astId": 25,
								"contract": "NapTx.sol:OfflinePaymentSystem",
								"label": "timestampUltimoPago",
								"offset": 0,
								"slot": "3",
								"type": "t_uint256"
							},
							{
								"astId": 27,
								"contract": "NapTx.sol:OfflinePaymentSystem",
								"label": "registrado",
								"offset": 0,
								"slot": "4",
								"type": "t_bool"
							},
							{
								"astId": 29,
								"contract": "NapTx.sol:OfflinePaymentSystem",
								"label": "deviceId",
								"offset": 0,
								"slot": "5",
								"type": "t_bytes32"
							}
						],
						"numberOfBytes": "192"
					},
					"t_struct(PagoPendiente)54_storage": {
						"encoding": "inplace",
						"label": "struct OfflinePaymentSystem.PagoPendiente",
						"members": [
							{
								"astId": 32,
								"contract": "NapTx.sol:OfflinePaymentSystem",
								"label": "idPago",
								"offset": 0,
								"slot": "0",
								"type": "t_bytes32"
							},
							{
								"astId": 34,
								"contract": "NapTx.sol:OfflinePaymentSystem",
								"label": "emisor",
								"offset": 0,
								"slot": "1",
								"type": "t_address"
							},
							{
								"astId": 36,
								"contract": "NapTx.sol:OfflinePaymentSystem",
								"label": "receptor",
								"offset": 0,
								"slot": "2",
								"type": "t_address"
							},
							{
								"astId": 38,
								"contract": "NapTx.sol:OfflinePaymentSystem",
								"label": "amount",
								"offset": 0,
								"slot": "3",
								"type": "t_uint256"
							},
							{
								"astId": 40,
								"contract": "NapTx.sol:OfflinePaymentSystem",
								"label": "hashUsado",
								"offset": 0,
								"slot": "4",
								"type": "t_bytes32"
							},
							{
								"astId": 42,
								"contract": "NapTx.sol:OfflinePaymentSystem",
								"label": "hashPreparado",
								"offset": 0,
								"slot": "5",
								"type": "t_bytes32"
							},
							{
								"astId": 44,
								"contract": "NapTx.sol:OfflinePaymentSystem",
								"label": "hashFinal",
								"offset": 0,
								"slot": "6",
								"type": "t_bytes32"
							},
							{
								"astId": 46,
								"contract": "NapTx.sol:OfflinePaymentSystem",
								"label": "timestampPreparacion",
								"offset": 0,
								"slot": "7",
								"type": "t_uint256"
							},
							{
								"astId": 48,
								"contract": "NapTx.sol:OfflinePaymentSystem",
								"label": "timestampConfirmacion",
								"offset": 0,
								"slot": "8",
								"type": "t_uint256"
							},
							{
								"astId": 51,
								"contract": "NapTx.sol:OfflinePaymentSystem",
								"label": "estado",
								"offset": 0,
								"slot": "9",
								"type": "t_enum(Estado)15"
							},
							{
								"astId": 53,
								"contract": "NapTx.sol:OfflinePaymentSystem",
								"label": "transaccionId",
								"offset": 0,
								"slot": "10",
								"type": "t_bytes32"
							}
						],
						"numberOfBytes": "352"
					},
					"t_uint256": {
						"encoding": "inplace",
						"label": "uint256",
						"numberOfBytes": "32"
					}
				}
			},
			"userdoc": {
				"kind": "user",
				"methods": {},
				"version": 1
			}
		}
	}
}